{
  "_format": "hh-sol-artifact-1",
  "contractName": "BribeVault",
  "sourceName": "contracts/BribeVault.sol",
  "abi": [
    {
      "inputs": [
        {
          "internalType": "uint256",
          "name": "_fee",
          "type": "uint256"
        },
        {
          "internalType": "uint256",
          "name": "_feeMax",
          "type": "uint256"
        },
        {
          "internalType": "address",
          "name": "_feeRecipient",
          "type": "address"
        },
        {
          "internalType": "address",
          "name": "_distributor",
          "type": "address"
        }
      ],
      "stateMutability": "nonpayable",
      "type": "constructor"
    },
    {
      "inputs": [],
      "name": "BribeAlreadyTransferred",
      "type": "error"
    },
    {
      "inputs": [],
      "name": "InvalidAddress",
      "type": "error"
    },
    {
      "inputs": [],
      "name": "InvalidAmount",
      "type": "error"
    },
    {
      "inputs": [],
      "name": "InvalidArray",
      "type": "error"
    },
    {
      "inputs": [],
      "name": "InvalidBriber",
      "type": "error"
    },
    {
      "inputs": [],
      "name": "InvalidDistributor",
      "type": "error"
    },
    {
      "inputs": [],
      "name": "InvalidFee",
      "type": "error"
    },
    {
      "inputs": [],
      "name": "InvalidFeeRecipient",
      "type": "error"
    },
    {
      "inputs": [],
      "name": "InvalidMaxFee",
      "type": "error"
    },
    {
      "inputs": [],
      "name": "InvalidRewardIdentifier",
      "type": "error"
    },
    {
      "inputs": [],
      "name": "InvalidToken",
      "type": "error"
    },
    {
      "inputs": [],
      "name": "NotDepositor",
      "type": "error"
    },
    {
      "anonymous": false,
      "inputs": [
        {
          "indexed": true,
          "internalType": "address",
          "name": "market",
          "type": "address"
        },
        {
          "indexed": true,
          "internalType": "bytes32",
          "name": "proposal",
          "type": "bytes32"
        },
        {
          "indexed": true,
          "internalType": "uint256",
          "name": "deadline",
          "type": "uint256"
        },
        {
          "indexed": false,
          "internalType": "address",
          "name": "token",
          "type": "address"
        },
        {
          "indexed": false,
          "internalType": "address",
          "name": "briber",
          "type": "address"
        },
        {
          "indexed": false,
          "internalType": "uint256",
          "name": "amount",
          "type": "uint256"
        },
        {
          "indexed": false,
          "internalType": "uint256",
          "name": "totalAmount",
          "type": "uint256"
        },
        {
          "indexed": false,
          "internalType": "uint256",
          "name": "maxTokensPerVote",
          "type": "uint256"
        },
        {
          "indexed": false,
          "internalType": "uint256",
          "name": "periodIndex",
          "type": "uint256"
        }
      ],
      "name": "DepositBribe",
      "type": "event"
    },
    {
      "anonymous": false,
      "inputs": [
        {
          "indexed": true,
          "internalType": "address",
          "name": "token",
          "type": "address"
        },
        {
          "indexed": false,
          "internalType": "uint256",
          "name": "amount",
          "type": "uint256"
        },
        {
          "indexed": false,
          "internalType": "address",
          "name": "admin",
          "type": "address"
        }
      ],
      "name": "EmergencyWithdrawal",
      "type": "event"
    },
    {
      "anonymous": false,
      "inputs": [
        {
          "indexed": true,
          "internalType": "bytes32",
          "name": "role",
          "type": "bytes32"
        },
        {
          "indexed": true,
          "internalType": "bytes32",
          "name": "previousAdminRole",
          "type": "bytes32"
        },
        {
          "indexed": true,
          "internalType": "bytes32",
          "name": "newAdminRole",
          "type": "bytes32"
        }
      ],
      "name": "RoleAdminChanged",
      "type": "event"
    },
    {
      "anonymous": false,
      "inputs": [
        {
          "indexed": true,
          "internalType": "bytes32",
          "name": "role",
          "type": "bytes32"
        },
        {
          "indexed": true,
          "internalType": "address",
          "name": "account",
          "type": "address"
        },
        {
          "indexed": true,
          "internalType": "address",
          "name": "sender",
          "type": "address"
        }
      ],
      "name": "RoleGranted",
      "type": "event"
    },
    {
      "anonymous": false,
      "inputs": [
        {
          "indexed": true,
          "internalType": "bytes32",
          "name": "role",
          "type": "bytes32"
        },
        {
          "indexed": true,
          "internalType": "address",
          "name": "account",
          "type": "address"
        },
        {
          "indexed": true,
          "internalType": "address",
          "name": "sender",
          "type": "address"
        }
      ],
      "name": "RoleRevoked",
      "type": "event"
    },
    {
      "anonymous": false,
      "inputs": [
        {
          "indexed": false,
          "internalType": "address",
          "name": "_distributor",
          "type": "address"
        }
      ],
      "name": "SetDistributor",
      "type": "event"
    },
    {
      "anonymous": false,
      "inputs": [
        {
          "indexed": false,
          "internalType": "uint256",
          "name": "_fee",
          "type": "uint256"
        }
      ],
      "name": "SetFee",
      "type": "event"
    },
    {
      "anonymous": false,
      "inputs": [
        {
          "indexed": false,
          "internalType": "address",
          "name": "_feeRecipient",
          "type": "address"
        }
      ],
      "name": "SetFeeRecipient",
      "type": "event"
    },
    {
      "anonymous": false,
      "inputs": [
        {
          "indexed": false,
          "internalType": "address",
          "name": "from",
          "type": "address"
        },
        {
          "indexed": false,
          "internalType": "address",
          "name": "to",
          "type": "address"
        }
      ],
      "name": "SetRewardForwarding",
      "type": "event"
    },
    {
      "anonymous": false,
      "inputs": [
        {
          "indexed": true,
          "internalType": "bytes32",
          "name": "rewardIdentifier",
          "type": "bytes32"
        },
        {
          "indexed": true,
          "internalType": "address",
          "name": "token",
          "type": "address"
        },
        {
          "indexed": false,
          "internalType": "uint256",
          "name": "feeAmount",
          "type": "uint256"
        },
        {
          "indexed": false,
          "internalType": "uint256",
          "name": "distributorAmount",
          "type": "uint256"
        }
      ],
      "name": "TransferBribe",
      "type": "event"
    },
    {
      "inputs": [],
      "name": "DEFAULT_ADMIN_ROLE",
      "outputs": [
        {
          "internalType": "bytes32",
          "name": "",
          "type": "bytes32"
        }
      ],
      "stateMutability": "view",
      "type": "function"
    },
    {
      "inputs": [],
      "name": "DEPOSITOR_ROLE",
      "outputs": [
        {
          "internalType": "bytes32",
          "name": "",
          "type": "bytes32"
        }
      ],
      "stateMutability": "view",
      "type": "function"
    },
    {
      "inputs": [],
      "name": "FEE_DIVISOR",
      "outputs": [
        {
          "internalType": "uint256",
          "name": "",
          "type": "uint256"
        }
      ],
      "stateMutability": "view",
      "type": "function"
    },
    {
      "inputs": [],
      "name": "FEE_MAX",
      "outputs": [
        {
          "internalType": "uint256",
          "name": "",
          "type": "uint256"
        }
      ],
      "stateMutability": "view",
      "type": "function"
    },
    {
      "inputs": [],
      "name": "PERMIT2",
      "outputs": [
        {
          "internalType": "contract IPermit2",
          "name": "",
          "type": "address"
        }
      ],
      "stateMutability": "view",
      "type": "function"
    },
    {
      "inputs": [
        {
          "internalType": "bytes32",
          "name": "",
          "type": "bytes32"
        }
      ],
      "name": "bribes",
      "outputs": [
        {
          "internalType": "address",
          "name": "token",
          "type": "address"
        },
        {
          "internalType": "uint256",
          "name": "amount",
          "type": "uint256"
        },
        {
          "internalType": "bytes32",
          "name": "proposal",
          "type": "bytes32"
        }
      ],
      "stateMutability": "view",
      "type": "function"
    },
    {
      "inputs": [
        {
          "components": [
            {
              "internalType": "bytes32",
              "name": "proposal",
              "type": "bytes32"
            },
            {
              "internalType": "address",
              "name": "token",
              "type": "address"
            },
            {
              "internalType": "address",
              "name": "briber",
              "type": "address"
            },
            {
              "internalType": "uint256",
              "name": "amount",
              "type": "uint256"
            },
            {
              "internalType": "uint256",
              "name": "maxTokensPerVote",
              "type": "uint256"
            },
            {
              "internalType": "uint256",
              "name": "periods",
              "type": "uint256"
            },
            {
              "internalType": "uint256",
              "name": "periodDuration",
              "type": "uint256"
            },
            {
              "internalType": "uint256",
              "name": "proposalDeadline",
              "type": "uint256"
            },
            {
              "internalType": "uint256",
              "name": "permitDeadline",
              "type": "uint256"
            },
            {
              "internalType": "bytes",
              "name": "signature",
              "type": "bytes"
            }
          ],
          "internalType": "struct Common.DepositBribeParams",
          "name": "_dp",
          "type": "tuple"
        }
      ],
      "name": "depositBribe",
      "outputs": [],
      "stateMutability": "nonpayable",
      "type": "function"
    },
    {
      "inputs": [],
      "name": "distributor",
      "outputs": [
        {
          "internalType": "address",
          "name": "",
          "type": "address"
        }
      ],
      "stateMutability": "view",
      "type": "function"
    },
    {
      "inputs": [
        {
          "internalType": "address",
          "name": "token",
          "type": "address"
        },
        {
          "internalType": "uint256",
          "name": "amount",
          "type": "uint256"
        }
      ],
      "name": "emergencyWithdraw",
      "outputs": [],
      "stateMutability": "nonpayable",
      "type": "function"
    },
    {
      "inputs": [],
      "name": "fee",
      "outputs": [
        {
          "internalType": "uint256",
          "name": "",
          "type": "uint256"
        }
      ],
      "stateMutability": "view",
      "type": "function"
    },
    {
      "inputs": [],
      "name": "feeRecipient",
      "outputs": [
        {
          "internalType": "address",
          "name": "",
          "type": "address"
        }
      ],
      "stateMutability": "view",
      "type": "function"
    },
    {
      "inputs": [
        {
          "internalType": "address",
          "name": "_market",
          "type": "address"
        },
        {
          "internalType": "bytes32",
          "name": "_proposal",
          "type": "bytes32"
        },
        {
          "internalType": "uint256",
          "name": "_proposalDeadline",
          "type": "uint256"
        },
        {
          "internalType": "address",
          "name": "_token",
          "type": "address"
        }
      ],
      "name": "generateBribeVaultIdentifier",
      "outputs": [
        {
          "internalType": "bytes32",
          "name": "id",
          "type": "bytes32"
        }
      ],
      "stateMutability": "pure",
      "type": "function"
    },
    {
      "inputs": [
        {
          "internalType": "address",
          "name": "_market",
          "type": "address"
        },
        {
          "internalType": "address",
          "name": "_token",
          "type": "address"
        },
        {
          "internalType": "uint256",
          "name": "_proposalDeadline",
          "type": "uint256"
        }
      ],
      "name": "generateRewardIdentifier",
      "outputs": [
        {
          "internalType": "bytes32",
          "name": "id",
          "type": "bytes32"
        }
      ],
      "stateMutability": "pure",
      "type": "function"
    },
    {
      "inputs": [
        {
          "internalType": "bytes32",
          "name": "bribeIdentifier",
          "type": "bytes32"
        }
      ],
      "name": "getBribe",
      "outputs": [
        {
          "internalType": "address",
          "name": "token",
          "type": "address"
        },
        {
          "internalType": "uint256",
          "name": "amount",
          "type": "uint256"
        },
        {
          "internalType": "bytes32",
          "name": "proposal",
          "type": "bytes32"
        }
      ],
      "stateMutability": "view",
      "type": "function"
    },
    {
      "inputs": [
        {
          "internalType": "bytes32",
          "name": "rewardIdentifier",
          "type": "bytes32"
        }
      ],
      "name": "getBribeIdentifiersByRewardIdentifier",
      "outputs": [
        {
          "internalType": "bytes32[]",
          "name": "",
          "type": "bytes32[]"
        }
      ],
      "stateMutability": "view",
      "type": "function"
    },
    {
      "inputs": [
        {
          "internalType": "bytes32",
          "name": "role",
          "type": "bytes32"
        }
      ],
      "name": "getRoleAdmin",
      "outputs": [
        {
          "internalType": "bytes32",
          "name": "",
          "type": "bytes32"
        }
      ],
      "stateMutability": "view",
      "type": "function"
    },
    {
      "inputs": [
        {
          "internalType": "address",
          "name": "depositor",
          "type": "address"
        }
      ],
      "name": "grantDepositorRole",
      "outputs": [],
      "stateMutability": "nonpayable",
      "type": "function"
    },
    {
      "inputs": [
        {
          "internalType": "bytes32",
          "name": "role",
          "type": "bytes32"
        },
        {
          "internalType": "address",
          "name": "account",
          "type": "address"
        }
      ],
      "name": "grantRole",
      "outputs": [],
      "stateMutability": "nonpayable",
      "type": "function"
    },
    {
      "inputs": [
        {
          "internalType": "bytes32",
          "name": "role",
          "type": "bytes32"
        },
        {
          "internalType": "address",
          "name": "account",
          "type": "address"
        }
      ],
      "name": "hasRole",
      "outputs": [
        {
          "internalType": "bool",
          "name": "",
          "type": "bool"
        }
      ],
      "stateMutability": "view",
      "type": "function"
    },
    {
      "inputs": [
        {
          "internalType": "bytes32",
          "name": "role",
          "type": "bytes32"
        },
        {
          "internalType": "address",
          "name": "account",
          "type": "address"
        }
      ],
      "name": "renounceRole",
      "outputs": [],
      "stateMutability": "nonpayable",
      "type": "function"
    },
    {
      "inputs": [
        {
          "internalType": "address",
          "name": "depositor",
          "type": "address"
        }
      ],
      "name": "revokeDepositorRole",
      "outputs": [],
      "stateMutability": "nonpayable",
      "type": "function"
    },
    {
      "inputs": [
        {
          "internalType": "bytes32",
          "name": "role",
          "type": "bytes32"
        },
        {
          "internalType": "address",
          "name": "account",
          "type": "address"
        }
      ],
      "name": "revokeRole",
      "outputs": [],
      "stateMutability": "nonpayable",
      "type": "function"
    },
    {
      "inputs": [
        {
          "internalType": "address",
          "name": "",
          "type": "address"
        }
      ],
      "name": "rewardForwarding",
      "outputs": [
        {
          "internalType": "address",
          "name": "",
          "type": "address"
        }
      ],
      "stateMutability": "view",
      "type": "function"
    },
    {
      "inputs": [
        {
          "internalType": "bytes32",
          "name": "",
          "type": "bytes32"
        },
        {
          "internalType": "uint256",
          "name": "",
          "type": "uint256"
        }
      ],
      "name": "rewardToBribes",
      "outputs": [
        {
          "internalType": "bytes32",
          "name": "",
          "type": "bytes32"
        }
      ],
      "stateMutability": "view",
      "type": "function"
    },
    {
      "inputs": [
        {
          "internalType": "bytes32",
          "name": "",
          "type": "bytes32"
        }
      ],
      "name": "rewardTransfers",
      "outputs": [
        {
          "internalType": "uint256",
          "name": "feeAmount",
          "type": "uint256"
        },
        {
          "internalType": "uint256",
          "name": "distributorAmountTransferred",
          "type": "uint256"
        },
        {
          "internalType": "uint256",
          "name": "distributorAmountReceived",
          "type": "uint256"
        }
      ],
      "stateMutability": "view",
      "type": "function"
    },
    {
      "inputs": [
        {
          "internalType": "address",
          "name": "_distributor",
          "type": "address"
        }
      ],
      "name": "setDistributor",
      "outputs": [],
      "stateMutability": "nonpayable",
      "type": "function"
    },
    {
      "inputs": [
        {
          "internalType": "uint256",
          "name": "_fee",
          "type": "uint256"
        }
      ],
      "name": "setFee",
      "outputs": [],
      "stateMutability": "nonpayable",
      "type": "function"
    },
    {
      "inputs": [
        {
          "internalType": "address",
          "name": "_feeRecipient",
          "type": "address"
        }
      ],
      "name": "setFeeRecipient",
      "outputs": [],
      "stateMutability": "nonpayable",
      "type": "function"
    },
    {
      "inputs": [
        {
          "internalType": "address",
          "name": "to",
          "type": "address"
        }
      ],
      "name": "setRewardForwarding",
      "outputs": [],
      "stateMutability": "nonpayable",
      "type": "function"
    },
    {
      "inputs": [
        {
          "internalType": "bytes4",
          "name": "interfaceId",
          "type": "bytes4"
        }
      ],
      "name": "supportsInterface",
      "outputs": [
        {
          "internalType": "bool",
          "name": "",
          "type": "bool"
        }
      ],
      "stateMutability": "view",
      "type": "function"
    },
    {
      "inputs": [
        {
          "internalType": "bytes32[]",
          "name": "rewardIdentifiers",
          "type": "bytes32[]"
        }
      ],
      "name": "transferBribes",
      "outputs": [],
      "stateMutability": "nonpayable",
      "type": "function"
    }
  ],
  "bytecode": "0x60a06040523462000045575b62000023620000196200015a565b9291909162000280565b604051612d0b620004a982396080518181816102d801526115130152612d0b90f35b6200004f62000055565b6200000b565b50600080fd5b50634e487b7160e01b600052604160045260246000fd5b90601f01601f191681019081106001600160401b038211176200009457604052565b6200009e6200005b565b604052565b90620000ba620000b260405190565b928362000072565b565b805b14156200005557565b90505190620000ba82620000bc565b6001600160a01b031690565b90565b6001600160a01b038116620000be565b90505190620000ba82620000e5565b6080818303126200014a575b6200011c8282620000c7565b92620000e2620001308460208501620000c7565b93620001408160408601620000f5565b93606001620000f5565b6200015462000055565b62000110565b6200017d620031b4803803806200017181620000a3565b92833981019062000104565b90919293565b620000e2620000e2620000e29290565b620000e2620f424062000183565b50634e487b7160e01b600052601260045260246000fd5b8115620001c3570490565b620001cd620001a1565b0490565b620000d6620000e2620000e29290565b620000e290620001d1565b90600019905b9181191691161790565b9062000210620000e2620002189262000183565b8254620001ec565b9055565b906001600160a01b0390620001f2565b620000e290620000d6906001600160a01b031682565b620000e2906200022c565b620000e29062000242565b906200026c620000e262000218926200024d565b82546200021c565b620000e2600062000183565b9092916200028d62000193565b620002aa620000e2600292620002a38462000183565b90620001b8565b85101562000394578483116200037557620002c66000620001e1565b6001600160a01b0381166001600160a01b0384161462000355576001600160a01b03166001600160a01b03851614620003365762000312620003189362000320966080526001620001fc565b62000258565b600362000258565b620000ba6200032e62000274565b3390620003f4565b5050505050506200034660405190565b635c187b8d60e01b8152600490fd5b505050505050506200036660405190565b630ed1b8b360e31b8152600490fd5b5050505050506200038560405190565b6358d620b360e01b8152600490fd5b505050505050620003a460405190565b63a51d0c8160e01b8152600490fd5b905b600052602052604060002090565b90620003b5906200024d565b9060ff90620001f2565b90620003ec620000e26200021892151590565b8254620003cf565b90620004096200040582846200048a565b1590565b62000412575050565b620004386001620004328360006200042b8782620003b3565b01620003c3565b620003d9565b3390620004726200046b6200046b7f2f8788117e7eff1d82e926ec794901d17c78024a50270940304540a733656f0d9590565b926200024d565b926200047d60405190565b600090a4565b5460ff1690565b620000e291620004a2916200042b60009182620003b3565b6200048356fe60806040526004361015610018575b610016610716565b005b60003560e01c806301ffc9a7146106ec57806307cd2ffe146106c2578063172becff1461069b5780631aea69ca146106705780631da08b8714610637578063248a9ca31461060d57806328b16a3f146105e25780632c4ef0d5146105b85780632f2ff15d1461059057806336568abe14610568578063429c89101461053a57806346904840146105105780635c2a802b146104e957806369fe0e2d146104c25780636afdd8501461048c57806375619ab51461046557806391d148541461042857806395ccea67146104005780639e93ad8e146103d6578063a217fddf146103ac578063a3b0b5a314610376578063b2d7edb21461034e578063bfe1092814610309578063c2624e1e146102c1578063cc6c93881461028b578063d547741f14610263578063ddca3f4314610228578063e74b981b14610201578063e8fa2948146101da578063edcdab77146101a15763f96258c4146101775761000e565b34610194575b61001661018b36600461078f565b612779565b0390f35b61019c610716565b61017d565b50346101cd575b6101906101be6101b936600461086e565b610c9e565b604051919391938493846109c8565b6101d5610716565b6101a8565b50346101f4575b6100166101ef36600461078f565b6114d3565b6101fc610716565b6101e1565b503461021b575b61001661021636600461078f565b611635565b610223610716565b610208565b5034610256575b61023a366004610a68565b610190610245610c7f565b6040515b9182918290815260200190565b61025e610716565b61022f565b503461027e575b6100166102783660046109ed565b90610f63565b610286610716565b61026a565b50346102b4575b6101906102a86102a336600461086e565b61189f565b60405191829182610c6e565b6102bc610716565b610292565b50346102fc575b6102d3366004610a68565b6101907f0000000000000000000000000000000000000000000000000000000000000000610245565b610304610716565b6102c8565b5034610341575b61031b366004610a68565b610190610326610c08565b6040515b918291826001600160a01b03909116815260200190565b610349610716565b610310565b5034610369575b610016610363366004610bc1565b90612af2565b610371610716565b610355565b503461039f575b610388366004610a68565b610190600080516020612ca8833981519152610245565b6103a7610716565b61037d565b50346103c9575b6103be366004610a68565b610190610245610b6d565b6103d1610716565b6103b3565b50346103f3575b6103e8366004610a68565b610190610245610b5b565b6103fb610716565b6103dd565b503461041b575b610016610415366004610b1a565b90612c9d565b610423610716565b610407565b5034610458575b6101906104466104403660046109ed565b90610d01565b60405191829182901515815260200190565b610460610716565b61042f565b503461047f575b61001661047a36600461078f565b6116b6565b610487610716565b61046c565b50346104b5575b61049e366004610a68565b6101906104a9610af9565b60405191829182610b0a565b6104bd610716565b610493565b50346104dc575b6100166104d736600461086e565b611589565b6104e4610716565b6104c9565b5034610503575b6100166104fe366004610a9e565b611f08565b61050b610716565b6104f0565b503461052d575b610522366004610a68565b610190610326610a7b565b610535610716565b610517565b503461055b575b610190610245610552366004610a1e565b929190916116fd565b610563610716565b610541565b5034610583575b61001661057d3660046109ed565b90610fd2565b61058b610716565b61056f565b50346105ab575b6100166105a53660046109ed565b90610d5f565b6105b3610716565b610597565b50346105d5575b6101906101be6105d036600461086e565b6117c8565b6105dd610716565b6105bf565b5034610600575b6101906102456105fa3660046108f5565b9061098f565b610608610716565b6105e9565b503461062a575b61019061024561062536600461086e565b610d20565b610632610716565b610614565b5034610663575b61019061065461064f36600461086e565b6108a6565b604051919391938493846108d3565b61066b610716565b61063e565b503461068e575b610190610245610688366004610830565b9161174d565b610696610716565b610677565b50346106b5575b6100166106b036600461078f565b611476565b6106bd610716565b6106a2565b50346106df575b6101906103266106da36600461078f565b610806565b6106e7610716565b6106c9565b5034610709575b61019061044661070436600461073f565b610cb2565b610711610716565b6106f3565b50600080fd5b6001600160e01b031981165b141561071657565b9050359061073d8261071c565b565b906107539160208183031261075657610730565b90565b61075e610716565b610730565b9052565b6001600160a01b031690565b6001600160a01b038116610728565b9050359061073d82610773565b90610753916020818303126107a357610782565b6107ab610716565b610782565b61075390610767906001600160a01b031682565b610753906107b0565b610753906107c4565b906107e0906107cd565b600052602052604060002090565b610753916008021c610767565b9061075391546107ee565b610753906108186007916000926107d6565b6107fb565b80610728565b9050359061073d8261081d565b9091606082840312610861575b61075361084a8484610782565b936108588160208601610782565b93604001610823565b610869610716565b61083d565b906107539160208183031261088257610823565b61088a610716565b610823565b906107e0565b6107539081565b6107539054610895565b6108b190600661088f565b6108ba8161089c565b9161075360026108cc6001850161089c565b930161089c565b90815260608101939261073d9290916040916108f1905b6020830152565b0152565b919061075390604084820312610919575b6109108185610823565b93602001610823565b610921610716565b610906565b50634e487b7160e01b600052603260045260246000fd5b61095d60019161094b815490565b84101561096657600052602060002090565b91020190600090565b61096e610926565b600052602060002090565b610753916008021c81565b906107539154610979565b61099d60059160009261088f565b906109a6825490565b8310156109c15750610753916109bb9161093d565b90610984565b9250505080fd5b6001600160a01b03909116815260608101939261073d9290916040916108f1906108ea565b919061075390604084820312610a11575b610a088185610823565b93602001610782565b610a19610716565b6109fe565b608081830312610a5b575b610a338282610782565b92610753610a448460208501610823565b93610a528160408601610823565b93606001610782565b610a63610716565b610a29565b6000910312610a7357565b61073d610716565b610753600060026107fb565b9081610140910312610a965790565b610753610716565b9061075391602081830312610ad4575b80359067ffffffffffffffff8211610ac7575b01610a87565b610acf610716565b610ac1565b610adc610716565b610aae565b6107536e22d473030f116ddee9f6b43ac78ba36107cd565b610753610ae1565b610763906107cd565b60208101929161073d9190610b01565b919061075390604084820312610b35575b6109108185610782565b610b3d610716565b610b2b565b6107536107536107539290565b610753620f4240610b42565b610753610b4f565b6107536000610b42565b610753610b63565b909182601f83011215610bb4575b602082359267ffffffffffffffff8411610ba7575b019260208302840111610a7357565b610baf610716565b610b98565b610bbc610716565b610b83565b90610bea91602081830312610bfb575b80359067ffffffffffffffff8211610bee575b01610b75565b9091565b610bf6610716565b610be4565b610c03610716565b610bd1565b610753600060036107fb565b0190565b90610c38610c31610c27845190565b8084529260200190565b9260200190565b9060005b818110610c495750505090565b909192610c66610c5f6001928651815260200190565b9460200190565b929101610c3c565b602080825261075392910190610c18565b61075360006001610984565b61075390610767565b6107539054610c8b565b610ca990600461088f565b6108ba81610c94565b637965db0b60e01b6001600160e01b0319821614908115610cd1575090565b61075391506001600160e01b0319166301ffc9a760e01b1490565b610753905b60ff1690565b6107539054610cec565b61075391610d1b91610d156000918261088f565b016107d6565b610cf7565b6001610d3961075392610d31600090565b50600061088f565b0161089c565b9061073d91610d55610d5082610d20565b610d69565b9061073d91611022565b9061073d91610d3f565b61073d903390610eb9565b61075390610b42565b918091926000905b828210610d9d575011610d96575050565b6000910152565b91508060209183015181860152018291610d85565b610c14610dca92602092610dc4815190565b94859290565b93849101610d7d565b610e116107539392610e0b610e0b937f416363657373436f6e74726f6c3a206163636f756e7420000000000000000000815260170190565b90610db2565b7001034b99036b4b9b9b4b733903937b6329607d1b815260110190565b601f01601f191690565b50634e487b7160e01b600052604160045260246000fd5b90601f01601f1916810190811067ffffffffffffffff821117610e7157604052565b610e79610e38565b604052565b610e9f610e2e602093610c1493610e93815190565b80835293849260200190565b95869101610d7d565b602080825261075392910190610e7e565b90610ecb610ec78284610d01565b1590565b610ed3575050565b610f44925090610753610ef1610eeb610f2b946113d7565b92610d74565b610f06602091610f0083610b42565b90611277565b92610f1f610f1360405190565b94859384019283610dd3565b90810382520382610e4f565b6040515b62461bcd60e51b815291829160048301610ea8565b0390fd5b9061073d91610f59610d5082610d20565b9061073d91611098565b9061073d91610f48565b15610f7457565b5060405162461bcd60e51b815260206004820152602f60248201527f416363657373436f6e74726f6c3a2063616e206f6e6c792072656e6f756e636560448201526e103937b632b9903337b91039b2b63360891b6064820152608490fd5b61073d9190610ff3610fe333610767565b6001600160a01b03841614610f6d565b611098565b9060ff905b9181191691161790565b9061101761075361101e92151590565b8254610ff8565b9055565b90611030610ec78284610d01565b611038575050565b611052600161104d836000610d15878261088f565b611007565b33906110886110826110827f2f8788117e7eff1d82e926ec794901d17c78024a50270940304540a733656f0d9590565b926107cd565b9261109260405190565b600090a4565b906110a38183610d01565b6110ab575050565b6110bf600061104d8382610d15878261088f565b33906110886110826110827ff6391f5c32d9c69d2a47ea670b442974b53935d1edc7fd64eb21e047a839171b9590565b50634e487b7160e01b600052601160045260246000fd5b90611110565b9190565b908060001904821181151516611124570290565b61112c6110ef565b0290565b8119811161113c570190565b610c146110ef565b9061073d61115160405190565b9283610e4f565b610c1460209167ffffffffffffffff811161117757601f01601f191690565b610e2e610e38565b9061119161118c83611158565b611144565b918252565b369037565b9061073d6111b16111ab8461117f565b93611158565b601f190160208401611196565b9060016020916111cc845190565b8110156111da575b02010190565b6111e2610926565b6111d4565b60019080156111f4570390565b6111fc6110ef565b0390565b610cf16107536107539290565b6107539061122161110c6107539460ff1690565b901c90565b1561122d57565b5060405162461bcd60e51b815280610f44600482016020808252818101527f537472696e67733a20686578206c656e67746820696e73756666696369656e74604082015260600190565b91906002906112a86112a36112948361128f86610b42565b611106565b61129d85610b42565b90611130565b61119b565b9160009160306112c06112ba85610b42565b866111be565b536112f86112ef600f60fb1b9261128f6001958695881a6112e96112e388610b42565b8b6111be565b53610b42565b61129d83610b42565b915b61131b575b5050610753929361131561110c61075393610b42565b14611226565b909461132682610b42565b8611156113a55761139261138c839261136f6113526f181899199a1a9b1b9c1cb0b131b232b360811b90565b61135c600f610b42565b83166010811015611398575b1a60f81b90565b861a61137b8a896111be565b536113866004611200565b9061120d565b966111e7565b916112fa565b6113a0610926565b611368565b946112ff565b6107539081906001600160a01b031681565b6107536014611200565b6107536107536107539260ff1690565b6113f46113ef610753926113e9606090565b506107c4565b6113ab565b610f006113ff6113bd565b6113c7565b61073d90611413610d50610b63565b61142e565b6107676107536107539290565b61075390611418565b61143b6107676000611425565b6001600160a01b038216146114625761073d90600080516020612ca8833981519152611022565b505060405163e6c4247b60e01b8152600490fd5b61073d90611404565b61073d9061148e610d50610b63565b600080516020612ca8833981519152906114ab610ec78284610d01565b6114b85761073d91611098565b5050506114c460405190565b633cc50b4560e01b8152600490fd5b61073d9061147f565b61073d906114eb610d50610b63565b611511565b9060001990610ffd565b9061150a61075361101e92610b42565b82546114f0565b7f00000000000000000000000000000000000000000000000000000000000000008111611575576115438160016114fa565b6115707e172ddfc5ae88d08b3de01a5a187667c37a5a53989e8c175055cb6c993792a79161024960405190565b0390a1565b50506040516358d620b360e01b8152600490fd5b61073d906114dc565b61073d906115a1610d50610b63565b6115cc565b906001600160a01b0390610ffd565b906115c561075361101e926107cd565b82546115a6565b6115d96107676000611425565b6001600160a01b03821614611621576115f38160026115b5565b6115707f2e979f80fe4d43055c584cf4a8467c55875ea36728fc37176c05acd784eb7a739161032a60405190565b5050604051630ed1b8b360e31b8152600490fd5b61073d90611592565b61073d9061164d610d50610b63565b61165a6107676000611425565b6001600160a01b038216146116a2576116748160036115b5565b6115707ff52f1295a5bd82818185311d8284477532c0eba12fd2ba17314486d3a8f6810d9161032a60405190565b5050604051635c187b8d60e01b8152600490fd5b61073d9061163e565b610763906001600160a01b031660601b90565b926116f56020610c14946116ef6014886116ef829b9a86996116bf565b01918252565b0180926116bf565b610f1f61171f939461170d600090565b506040519586946020860194856116d2565b61173161172a825190565b9160200190565b2090565b601493926116f585836116ef602095610c14976116bf565b909161171f91610f1f61175f60405190565b948593602085019384611735565b6107536060611144565b9061073d6117b8600261178861176d565b946117a261179582610c94565b6001600160a01b03168752565b610d396117b16001830161089c565b6020880152565b6040840152565b61075390611777565b6117df6117e4916117d7600090565b50600461088f565b6117bf565b906117f682516001600160a01b031690565b9061180d6040611807602086015190565b94015190565b91929190565b9061182e611822610c27845490565b92600052602060002090565b9060005b81811061183f5750505090565b90919261186361185c6001926118548761089c565b815260200190565b9460010190565b929101611832565b9061075391611813565b9061073d61188f9261188660405190565b9384809261186b565b0383610e4f565b61075390611875565b6118b6610753916118ae606090565b50600561088f565b611896565b61073d906118d6600080516020612ca8833981519152610d69565b611a95565b3561075381610773565b356107538161081d565b9050519061073d8261081d565b9061075391602081830312611910576118ef565b611918610716565b6118ef565b506040513d6000823e3d90fd5b903590601e19368290030182121561196e575b01602081359167ffffffffffffffff8311611961575b0191368290038313610a7357565b611969610716565b611953565b611976610716565b61193d565b8181106111f4570390565b50634e487b7160e01b600052601260045260246000fd5b81156119a7570490565b6119af611986565b0490565b81156119bd570690565b6119c5611986565b0690565b9061150a61075361101e9290565b9160001960089290920291821b911b610ffd565b91906119fa61075361101e9390565b9083546119d7565b90611a2a61073d9280549068010000000000000000821015611a30575b60018201815561093d565b906119eb565b611a38610e38565b611a1f565b9194611a8e6108f192989795611a8760a096611a8061073d9a611a7060c08a019e60008b01906001600160a01b03169052565b6001600160a01b03166020890152565b6040870152565b6060850152565b6080830152565b906020820191611aa4836118db565b90611aaf6000611425565b91611acb6001600160a01b0384165b916001600160a01b031690565b14611eec576060810193611ade856118e5565b611aeb61110c6000610b42565b14611ecf576040820194611afe866118db565b611b106001600160a01b038616611abe565b14611eb157611c1b90611b2d611b28611b28856118db565b6107cd565b906370a082318489611b3e306107cd565b936020611b4a60405190565b8097611b568760e01b90565b82526001600160a01b038816600483015260249082905afa958615611ea4575b600096611e7c575b50916020939185611c019694611ba1611b9c8d61012081019061192a565b905090565b611bae61110c6000610b42565b1115611e565750505050611bc188612472565b611bea611bd3611b28611b288a6118db565b91611bdd60405190565b9586948593849360e01b90565b83526001600160a01b031660048301526024820190565b03915afa908115611e49575b600091611e2b575b5061197b565b9160009460015b15611e07575b611d9d60009686611c53611c3e60e087016118e5565b61129d611c4d60c089016118e5565b85611106565b858b611d16828a8c611ccb611c7b611c6a856118e5565b89611c74866118db565b91336116fd565b9160a0611c8c61075385600461088f565b9801611ca0611c9a826118e5565b8361199d565b918c611caf61110c6000610b42565b6000911415611dfb5750611cc561129d926118e5565b906119b3565b97611ced611ce48a611cdf60018b0161089c565b611130565b600189016114fa565b611d09611abe611cfc89610c94565b926001600160a01b031690565b14611da3575b50506118e5565b91611d356001611d2e611d288d6118db565b946118db565b920161089c565b91611d9487611d4660808d016118e5565b7f9350247ae5f8389ed8487daba15bc7f2173887676a95759508e1844aae0dfdc795611d81611d7b611d77336107cd565b9990565b99610b42565b99611d8b60405190565b96879687611a3d565b0390a460010190565b95611c22565b611def61075383611dbf611db9611df4966118db565b8a6115b5565b611dd4611dcb876118e5565b60028b016119c9565b611de98a611de36005936118db565b3361174d565b9061088f565b611a02565b8a38611d0f565b905061129d9150610b42565b611e1661075360a084016118e5565b861015611e2257611c28565b95505050505050565b611e439150611e3a3d82610e4f565b3d8101906118fc565b38611c15565b611e5161191d565b611c0d565b611e71611e6b611d28611b28611e77976118db565b916118e5565b92611f68565b611bc1565b85611c019694929750611e976020969492611e3a3d82610e4f565b9792945095509193611b7e565b611eac61191d565b611b76565b505050505050611ec060405190565b637bc101ab60e11b8152600490fd5b5050505050611edd60405190565b63162908e360e11b8152600490fd5b50505050611ef960405190565b63c1ab6dc160e01b8152600490fd5b61073d906118bb565b611f2a611f246107539263ffffffff1690565b60e01b90565b6001600160e01b03191690565b6001600160a01b03909116815260608101939261073d9290916040916108f1905b6001600160a01b03166020830152565b90611fad90611f9e61073d95600495611f846323b872dd611f11565b93611f8e60405190565b9788956020870190815201611f37565b60208201810382520383610e4f565b612083565b611fbc602061117f565b7f5361666545524332303a206c6f772d6c6576656c2063616c6c206661696c6564602082015290565b610753611fb2565b801515610728565b9050519061073d82611fed565b906107539160208183031261201657611ff5565b61201e610716565b611ff5565b1561202a57565b5060405162461bcd60e51b815260206004820152602a60248201527f5361666545524332303a204552433230206f7065726174696f6e20646964206e6044820152691bdd081cdd58d8d9595960b21b6064820152608490fd5b61073d916120936120a2926107cd565b9061209c611fe5565b916120e0565b80516120b161110c6000610b42565b149081156120c0575b50612023565b6120da915060206120cf825190565b818301019101612002565b386120ba565b61075392916120ef6000610b42565b91612170565b156120fc57565b5060405162461bcd60e51b815260206004820152602660248201527f416464726573733a20696e73756666696369656e742062616c616e636520666f6044820152651c8818d85b1b60d21b6064820152608490fd5b3d1561216b576121603d61117f565b903d6000602084013e565b606090565b90600061075394938192612182606090565b5061219961218f306107cd565b83903110156120f5565b60208101905191855af16121ab612151565b916121fe565b156121b857565b5060405162461bcd60e51b815260206004820152601d60248201527f416464726573733a2063616c6c20746f206e6f6e2d636f6e74726163740000006044820152606490fd5b919260609115612233575050815161221961110c6000610b42565b14612222575090565b61222e61075391612240565b6121b1565b90939261073d9250612252565b3b61224e61110c6000610b42565b1190565b915061225c825190565b61226961110c6000610b42565b11156122785750805190602001fd5b604051610f449250610f2f565b9050519061073d82610773565b65ffffffffffff8116610728565b9050519061073d82612292565b90916060828403126122de575b6107536122c78484612285565b936122d581602086016122a0565b936040016122a0565b6122e6610716565b6122ba565b6001600160a01b03909116815260608101939261073d92909160409161231090611f58565b01906001600160a01b03169052565b6107536080611144565b6123366107536107539290565b65ffffffffffff1690565b80516001600160a01b0316825261073d919060609081906020818101516001600160a01b03169085015260408181015165ffffffffffff1690850152015165ffffffffffff16910152565b9060a0604061073d936123a760008201516000860190612341565b60208101516001600160a01b031660808501520151910152565b90826000939282370152565b9190610e2e816123e481610c149560209181520190565b80956123c1565b61241b610753959394929461241161010084019660008501906001600160a01b03169052565b602083019061238c565b60e08185039101526123cd565b61231061073d94612462606094989795612452608086019a60008701906001600160a01b03169052565b6001600160a01b03166020850152565b6001600160a01b03166040830152565b61247d611b28610ae1565b63927da105916040810191612491836118db565b91602081019060606124c86124a5846118db565b976124d36124b2306107cd565b809a6124bd60405190565b998a95869560e01b90565b8552600485016122eb565b0381865afa9384156126cc575b6000946126ab575b50632b67b570946124f8816118db565b91612502846118db565b906060810196612511886118e5565b61251a90612736565b65ffffffffffff9061252a61231f565b6001600160a01b0390951685526001600160a01b0316602085015261254e90612329565b65ffffffffffff16604084015265ffffffffffff16606083015261257561010082016118e5565b61257d61176d565b9283526001600160a01b038a166020840152604083015261012081016125a29161192a565b949093863b156125d060009a6125db61262f998d9961263a988b9661269e575b604051978896879660e01b90565b8652600486016123eb565b0381838b5af18015612691575b61267d575b5061261661261061260b6126056336c78516966118db565b996118e5565b612736565b916118db565b90863b15612670575b604051998a988997889660e01b90565b865260048601612428565b03925af18015612663575b61264c5750565b61073d9061265a3d82610e4f565b3d810190610a68565b61266b61191d565b612645565b612678610716565b61261f565b61268b9061265a3d82610e4f565b386125ed565b61269961191d565b6125e8565b6126a6610716565b6125c2565b6126c49194506126bb3d82610e4f565b3d8101906122ad565b9491506124e8565b6126d461191d565b6124e0565b156126e057565b5060405162461bcd60e51b815260206004820152602760248201527f53616665436173743a2076616c756520646f65736e27742066697420696e20316044820152663630206269747360c81b6064820152608490fd5b6107539061275561274d6001600160a01b036113ab565b8211156126d9565b611418565b6001600160a01b03909116815260408101929161073d91602090612310565b339061278f8161278a8460076107d6565b6115b5565b7fbbd6eb1e2586cc8ea8e80aa1ccf25590beffdd2cb73367b5ac49214505bb48c4916115706127bd60405190565b9283928361275a565b9061073d916127d6610d50610b63565b61280b565b916020918110156127eb57020190565b6127f3610926565b020190565b90815260408101929161073d9160200152565b90809160009361281a85610b42565b8414612ad55760005b845b811015612acd5761283f61283a8286866127db565b6118e5565b60059061285361284f828461088f565b5490565b61285f61110c8a610b42565b14612aad5761287261075382600661088f565b9061289e896128986128926109bb8361288d8760049a61088f565b61093d565b8661088f565b01610c94565b916128a882612b5a565b909460018301916128b88361089c565b8114612a815760026129e2888f612a479a989688966129146129f7976128259f9d9b9461296295019361290f6128f66128f08761089c565b8961197b565b976129096129038461089c565b8561197b565b966114fa565b6114fa565b61291d8a6107cd565b91612927836107cd565b906370a0823193602061293a6003610c94565b6040518098819261294b8a60e01b90565b83526001600160a01b031688830190815260200190565b0381865afa958615612a74575b600096612a4e575b50906129a491612994602096979861298e8c610c94565b83612b19565b61299e6003610c94565b90612b19565b6129cb6129b16003610c94565b94611c016129be60405190565b9687958694859460e01b90565b845283016001600160a01b03909116815260200190565b92016129f183611cdf8361089c565b906114fa565b612a28612a227fb14baddc4b3d8807f1d5dfe595f14ed9e87fcdb8d45909968b5a64f952e399fd9390565b936107cd565b93612a3e612a3560405190565b928392836127f8565b0390a360010190565b9050612823565b602095965090612994612a696129a49493611e3a3d82610e4f565b979650509091612977565b612a7c61191d565b61296f565b509950505050505050505050610f449150612a9b60405190565b636e997d6760e11b8152918291820190565b5050505050505050612abe60405190565b6307e1fae360e31b8152600490fd5b509350505050565b5050505050612ae360405190565b631ec5aa5160e01b8152600490fd5b9061073d916127c6565b6001600160a01b03909116815260408101929161073d9160200152565b611fad600492611f9e61073d95612b3363a9059cbb611f11565b92612b3d60405190565b9687946020860190815201612afc565b90602080916111cc845190565b612b6a6118b6600092600561088f565b8192612b74825190565b92935b835b851015612bb457612bac612ba5612b799261129d6001610d396004611de9612ba18d8c612b4d565b5190565b9560010190565b949050612b77565b9350915050610753612bda612bcc611c4d600161089c565b612bd4610b4f565b9061199d565b809361197b565b9061073d91612bf1610d50610b63565b612c0b565b90815260408101929161073d91602090612310565b6000612c1961076782611425565b6001600160a01b03831614611eec57612c3190610b42565b8214612c9157612c40816107cd565b612c4c83338093612b19565b612c767f3ab9db27a4cdd8c603a752b62d5fbd93b4b3509fe2596708e9688e42bbac3576926107cd565b92612c8c612c8360405190565b92839283612bf6565b0390a2565b505050611edd60405190565b9061073d91612be156fe8f4f2da22e8ac8f11e15f9fc141cddbb5deea8800186560abb6e68c5496619a9a364697066735822122047a41ad9318973eb3f4e8e8a0deacc50fc6c43dcd5dfc3d17d314e83741a15556c6578706572696d656e74616cf564736f6c634300080c0041",
  "linkReferences": {},
  "deployedLinkReferences": {}
}