{
  "_format": "hh-sol-artifact-1",
  "contractName": "BribeMarket",
  "sourceName": "contracts/BribeMarket.sol",
  "abi": [
    {
      "inputs": [],
      "name": "AlreadyInitialized",
      "type": "error"
    },
    {
      "inputs": [],
      "name": "DeadlinePassed",
      "type": "error"
    },
    {
      "inputs": [],
      "name": "InvalidAddress",
      "type": "error"
    },
    {
      "inputs": [],
      "name": "InvalidAmount",
      "type": "error"
    },
    {
      "inputs": [],
      "name": "InvalidChoiceCount",
      "type": "error"
    },
    {
      "inputs": [],
      "name": "InvalidDeadline",
      "type": "error"
    },
    {
      "inputs": [],
      "name": "InvalidIdentifier",
      "type": "error"
    },
    {
      "inputs": [],
      "name": "InvalidMaxPeriod",
      "type": "error"
    },
    {
      "inputs": [],
      "name": "InvalidPeriod",
      "type": "error"
    },
    {
      "inputs": [],
      "name": "InvalidPeriodDuration",
      "type": "error"
    },
    {
      "inputs": [],
      "name": "InvalidProtocol",
      "type": "error"
    },
    {
      "inputs": [],
      "name": "NoWhitelistBribeVault",
      "type": "error"
    },
    {
      "inputs": [],
      "name": "NotAuthorized",
      "type": "error"
    },
    {
      "inputs": [],
      "name": "NotTeamMember",
      "type": "error"
    },
    {
      "inputs": [],
      "name": "TokenNotWhitelisted",
      "type": "error"
    },
    {
      "inputs": [],
      "name": "TokenWhitelisted",
      "type": "error"
    },
    {
      "inputs": [],
      "name": "VoterBlacklisted",
      "type": "error"
    },
    {
      "inputs": [],
      "name": "VoterNotBlacklisted",
      "type": "error"
    },
    {
      "anonymous": false,
      "inputs": [
        {
          "indexed": false,
          "internalType": "address[]",
          "name": "voters",
          "type": "address[]"
        }
      ],
      "name": "AddBlacklistedVoters",
      "type": "event"
    },
    {
      "anonymous": false,
      "inputs": [
        {
          "indexed": false,
          "internalType": "address[]",
          "name": "tokens",
          "type": "address[]"
        }
      ],
      "name": "AddWhitelistedTokens",
      "type": "event"
    },
    {
      "anonymous": false,
      "inputs": [
        {
          "indexed": false,
          "internalType": "address",
          "name": "teamMember",
          "type": "address"
        }
      ],
      "name": "GrantTeamRole",
      "type": "event"
    },
    {
      "anonymous": false,
      "inputs": [
        {
          "indexed": false,
          "internalType": "address",
          "name": "bribeVault",
          "type": "address"
        },
        {
          "indexed": false,
          "internalType": "address",
          "name": "admin",
          "type": "address"
        },
        {
          "indexed": false,
          "internalType": "string",
          "name": "protocol",
          "type": "string"
        },
        {
          "indexed": false,
          "internalType": "uint256",
          "name": "maxPeriods",
          "type": "uint256"
        },
        {
          "indexed": false,
          "internalType": "uint256",
          "name": "periodDuration",
          "type": "uint256"
        }
      ],
      "name": "Initialize",
      "type": "event"
    },
    {
      "anonymous": false,
      "inputs": [
        {
          "indexed": false,
          "internalType": "address[]",
          "name": "voters",
          "type": "address[]"
        }
      ],
      "name": "RemoveBlacklistedVoters",
      "type": "event"
    },
    {
      "anonymous": false,
      "inputs": [
        {
          "indexed": false,
          "internalType": "address[]",
          "name": "tokens",
          "type": "address[]"
        }
      ],
      "name": "RemoveWhitelistedTokens",
      "type": "event"
    },
    {
      "anonymous": false,
      "inputs": [
        {
          "indexed": false,
          "internalType": "address",
          "name": "teamMember",
          "type": "address"
        }
      ],
      "name": "RevokeTeamRole",
      "type": "event"
    },
    {
      "anonymous": false,
      "inputs": [
        {
          "indexed": true,
          "internalType": "bytes32",
          "name": "role",
          "type": "bytes32"
        },
        {
          "indexed": true,
          "internalType": "bytes32",
          "name": "previousAdminRole",
          "type": "bytes32"
        },
        {
          "indexed": true,
          "internalType": "bytes32",
          "name": "newAdminRole",
          "type": "bytes32"
        }
      ],
      "name": "RoleAdminChanged",
      "type": "event"
    },
    {
      "anonymous": false,
      "inputs": [
        {
          "indexed": true,
          "internalType": "bytes32",
          "name": "role",
          "type": "bytes32"
        },
        {
          "indexed": true,
          "internalType": "address",
          "name": "account",
          "type": "address"
        },
        {
          "indexed": true,
          "internalType": "address",
          "name": "sender",
          "type": "address"
        }
      ],
      "name": "RoleGranted",
      "type": "event"
    },
    {
      "anonymous": false,
      "inputs": [
        {
          "indexed": true,
          "internalType": "bytes32",
          "name": "role",
          "type": "bytes32"
        },
        {
          "indexed": true,
          "internalType": "address",
          "name": "account",
          "type": "address"
        },
        {
          "indexed": true,
          "internalType": "address",
          "name": "sender",
          "type": "address"
        }
      ],
      "name": "RoleRevoked",
      "type": "event"
    },
    {
      "anonymous": false,
      "inputs": [
        {
          "indexed": false,
          "internalType": "uint256",
          "name": "maxPeriods",
          "type": "uint256"
        }
      ],
      "name": "SetMaxPeriods",
      "type": "event"
    },
    {
      "anonymous": false,
      "inputs": [
        {
          "indexed": false,
          "internalType": "uint256",
          "name": "periodDuration",
          "type": "uint256"
        }
      ],
      "name": "SetPeriodDuration",
      "type": "event"
    },
    {
      "anonymous": false,
      "inputs": [
        {
          "indexed": false,
          "internalType": "bytes32[]",
          "name": "proposals",
          "type": "bytes32[]"
        },
        {
          "indexed": true,
          "internalType": "uint256",
          "name": "deadline",
          "type": "uint256"
        }
      ],
      "name": "SetProposals",
      "type": "event"
    },
    {
      "anonymous": false,
      "inputs": [
        {
          "indexed": false,
          "internalType": "bytes32[]",
          "name": "proposals",
          "type": "bytes32[]"
        },
        {
          "indexed": true,
          "internalType": "uint256",
          "name": "deadline",
          "type": "uint256"
        }
      ],
      "name": "SetProposalsByAddress",
      "type": "event"
    },
    {
      "anonymous": false,
      "inputs": [
        {
          "indexed": true,
          "internalType": "uint256",
          "name": "proposalIndex",
          "type": "uint256"
        },
        {
          "indexed": false,
          "internalType": "bytes32[]",
          "name": "proposals",
          "type": "bytes32[]"
        },
        {
          "indexed": true,
          "internalType": "uint256",
          "name": "deadline",
          "type": "uint256"
        }
      ],
      "name": "SetProposalsById",
      "type": "event"
    },
    {
      "inputs": [],
      "name": "BRIBE_VAULT",
      "outputs": [
        {
          "internalType": "address",
          "name": "",
          "type": "address"
        }
      ],
      "stateMutability": "view",
      "type": "function"
    },
    {
      "inputs": [],
      "name": "DEFAULT_ADMIN_ROLE",
      "outputs": [
        {
          "internalType": "bytes32",
          "name": "",
          "type": "bytes32"
        }
      ],
      "stateMutability": "view",
      "type": "function"
    },
    {
      "inputs": [],
      "name": "MAX_PERIODS",
      "outputs": [
        {
          "internalType": "uint256",
          "name": "",
          "type": "uint256"
        }
      ],
      "stateMutability": "view",
      "type": "function"
    },
    {
      "inputs": [],
      "name": "MAX_PERIOD_DURATION",
      "outputs": [
        {
          "internalType": "uint256",
          "name": "",
          "type": "uint256"
        }
      ],
      "stateMutability": "view",
      "type": "function"
    },
    {
      "inputs": [],
      "name": "PROTOCOL",
      "outputs": [
        {
          "internalType": "string",
          "name": "",
          "type": "string"
        }
      ],
      "stateMutability": "view",
      "type": "function"
    },
    {
      "inputs": [],
      "name": "TEAM_ROLE",
      "outputs": [
        {
          "internalType": "bytes32",
          "name": "",
          "type": "bytes32"
        }
      ],
      "stateMutability": "view",
      "type": "function"
    },
    {
      "inputs": [
        {
          "internalType": "address[]",
          "name": "_voters",
          "type": "address[]"
        }
      ],
      "name": "addBlacklistedVoters",
      "outputs": [],
      "stateMutability": "nonpayable",
      "type": "function"
    },
    {
      "inputs": [
        {
          "internalType": "address[]",
          "name": "_tokens",
          "type": "address[]"
        }
      ],
      "name": "addWhitelistedTokens",
      "outputs": [],
      "stateMutability": "nonpayable",
      "type": "function"
    },
    {
      "inputs": [
        {
          "internalType": "bytes32",
          "name": "_proposal",
          "type": "bytes32"
        },
        {
          "internalType": "address",
          "name": "_token",
          "type": "address"
        },
        {
          "internalType": "uint256",
          "name": "_amount",
          "type": "uint256"
        },
        {
          "internalType": "uint256",
          "name": "_maxTokensPerVote",
          "type": "uint256"
        },
        {
          "internalType": "uint256",
          "name": "_periods",
          "type": "uint256"
        }
      ],
      "name": "depositBribe",
      "outputs": [],
      "stateMutability": "nonpayable",
      "type": "function"
    },
    {
      "inputs": [
        {
          "internalType": "bytes32",
          "name": "_proposal",
          "type": "bytes32"
        },
        {
          "internalType": "address",
          "name": "_token",
          "type": "address"
        },
        {
          "internalType": "uint256",
          "name": "_amount",
          "type": "uint256"
        },
        {
          "internalType": "uint256",
          "name": "_maxTokensPerVote",
          "type": "uint256"
        },
        {
          "internalType": "uint256",
          "name": "_periods",
          "type": "uint256"
        },
        {
          "internalType": "uint256",
          "name": "_permitDeadline",
          "type": "uint256"
        },
        {
          "internalType": "bytes",
          "name": "_signature",
          "type": "bytes"
        }
      ],
      "name": "depositBribeWithPermit",
      "outputs": [],
      "stateMutability": "nonpayable",
      "type": "function"
    },
    {
      "inputs": [],
      "name": "getBlacklistedVoters",
      "outputs": [
        {
          "internalType": "address[]",
          "name": "",
          "type": "address[]"
        }
      ],
      "stateMutability": "view",
      "type": "function"
    },
    {
      "inputs": [
        {
          "internalType": "bytes32",
          "name": "_proposal",
          "type": "bytes32"
        },
        {
          "internalType": "uint256",
          "name": "_proposalDeadline",
          "type": "uint256"
        },
        {
          "internalType": "address",
          "name": "_token",
          "type": "address"
        }
      ],
      "name": "getBribe",
      "outputs": [
        {
          "internalType": "address",
          "name": "bribeToken",
          "type": "address"
        },
        {
          "internalType": "uint256",
          "name": "bribeAmount",
          "type": "uint256"
        },
        {
          "internalType": "bytes32",
          "name": "bribeProposal",
          "type": "bytes32"
        }
      ],
      "stateMutability": "view",
      "type": "function"
    },
    {
      "inputs": [
        {
          "internalType": "bytes32",
          "name": "role",
          "type": "bytes32"
        }
      ],
      "name": "getRoleAdmin",
      "outputs": [
        {
          "internalType": "bytes32",
          "name": "",
          "type": "bytes32"
        }
      ],
      "stateMutability": "view",
      "type": "function"
    },
    {
      "inputs": [],
      "name": "getWhitelistedTokens",
      "outputs": [
        {
          "internalType": "address[]",
          "name": "",
          "type": "address[]"
        }
      ],
      "stateMutability": "view",
      "type": "function"
    },
    {
      "inputs": [
        {
          "internalType": "bytes32",
          "name": "role",
          "type": "bytes32"
        },
        {
          "internalType": "address",
          "name": "account",
          "type": "address"
        }
      ],
      "name": "grantRole",
      "outputs": [],
      "stateMutability": "nonpayable",
      "type": "function"
    },
    {
      "inputs": [
        {
          "internalType": "address",
          "name": "_teamMember",
          "type": "address"
        }
      ],
      "name": "grantTeamRole",
      "outputs": [],
      "stateMutability": "nonpayable",
      "type": "function"
    },
    {
      "inputs": [
        {
          "internalType": "bytes32",
          "name": "role",
          "type": "bytes32"
        },
        {
          "internalType": "address",
          "name": "account",
          "type": "address"
        }
      ],
      "name": "hasRole",
      "outputs": [
        {
          "internalType": "bool",
          "name": "",
          "type": "bool"
        }
      ],
      "stateMutability": "view",
      "type": "function"
    },
    {
      "inputs": [
        {
          "internalType": "address",
          "name": "",
          "type": "address"
        }
      ],
      "name": "indexOfBlacklistedVoter",
      "outputs": [
        {
          "internalType": "uint256",
          "name": "",
          "type": "uint256"
        }
      ],
      "stateMutability": "view",
      "type": "function"
    },
    {
      "inputs": [
        {
          "internalType": "address",
          "name": "",
          "type": "address"
        }
      ],
      "name": "indexOfWhitelistedToken",
      "outputs": [
        {
          "internalType": "uint256",
          "name": "",
          "type": "uint256"
        }
      ],
      "stateMutability": "view",
      "type": "function"
    },
    {
      "inputs": [
        {
          "internalType": "address",
          "name": "_bribeVault",
          "type": "address"
        },
        {
          "internalType": "address",
          "name": "_admin",
          "type": "address"
        },
        {
          "internalType": "string",
          "name": "_protocol",
          "type": "string"
        },
        {
          "internalType": "uint256",
          "name": "_maxPeriods",
          "type": "uint256"
        },
        {
          "internalType": "uint256",
          "name": "_periodDuration",
          "type": "uint256"
        }
      ],
      "name": "initialize",
      "outputs": [],
      "stateMutability": "nonpayable",
      "type": "function"
    },
    {
      "inputs": [
        {
          "internalType": "address",
          "name": "_voter",
          "type": "address"
        }
      ],
      "name": "isBlacklistedVoter",
      "outputs": [
        {
          "internalType": "bool",
          "name": "",
          "type": "bool"
        }
      ],
      "stateMutability": "view",
      "type": "function"
    },
    {
      "inputs": [
        {
          "internalType": "address",
          "name": "_token",
          "type": "address"
        }
      ],
      "name": "isWhitelistedToken",
      "outputs": [
        {
          "internalType": "bool",
          "name": "",
          "type": "bool"
        }
      ],
      "stateMutability": "view",
      "type": "function"
    },
    {
      "inputs": [],
      "name": "maxPeriods",
      "outputs": [
        {
          "internalType": "uint256",
          "name": "",
          "type": "uint256"
        }
      ],
      "stateMutability": "view",
      "type": "function"
    },
    {
      "inputs": [],
      "name": "periodDuration",
      "outputs": [
        {
          "internalType": "uint256",
          "name": "",
          "type": "uint256"
        }
      ],
      "stateMutability": "view",
      "type": "function"
    },
    {
      "inputs": [
        {
          "internalType": "bytes32",
          "name": "",
          "type": "bytes32"
        }
      ],
      "name": "proposalDeadlines",
      "outputs": [
        {
          "internalType": "uint256",
          "name": "",
          "type": "uint256"
        }
      ],
      "stateMutability": "view",
      "type": "function"
    },
    {
      "inputs": [
        {
          "internalType": "address[]",
          "name": "_voters",
          "type": "address[]"
        }
      ],
      "name": "removeBlacklistedVoters",
      "outputs": [],
      "stateMutability": "nonpayable",
      "type": "function"
    },
    {
      "inputs": [
        {
          "internalType": "address[]",
          "name": "_tokens",
          "type": "address[]"
        }
      ],
      "name": "removeWhitelistedTokens",
      "outputs": [],
      "stateMutability": "nonpayable",
      "type": "function"
    },
    {
      "inputs": [
        {
          "internalType": "bytes32",
          "name": "role",
          "type": "bytes32"
        },
        {
          "internalType": "address",
          "name": "account",
          "type": "address"
        }
      ],
      "name": "renounceRole",
      "outputs": [],
      "stateMutability": "nonpayable",
      "type": "function"
    },
    {
      "inputs": [
        {
          "internalType": "bytes32",
          "name": "role",
          "type": "bytes32"
        },
        {
          "internalType": "address",
          "name": "account",
          "type": "address"
        }
      ],
      "name": "revokeRole",
      "outputs": [],
      "stateMutability": "nonpayable",
      "type": "function"
    },
    {
      "inputs": [
        {
          "internalType": "address",
          "name": "_teamMember",
          "type": "address"
        }
      ],
      "name": "revokeTeamRole",
      "outputs": [],
      "stateMutability": "nonpayable",
      "type": "function"
    },
    {
      "inputs": [
        {
          "internalType": "uint256",
          "name": "_periods",
          "type": "uint256"
        }
      ],
      "name": "setMaxPeriods",
      "outputs": [],
      "stateMutability": "nonpayable",
      "type": "function"
    },
    {
      "inputs": [
        {
          "internalType": "uint256",
          "name": "_periodDuration",
          "type": "uint256"
        }
      ],
      "name": "setPeriodDuration",
      "outputs": [],
      "stateMutability": "nonpayable",
      "type": "function"
    },
    {
      "inputs": [
        {
          "internalType": "bytes[]",
          "name": "_identifiers",
          "type": "bytes[]"
        },
        {
          "internalType": "uint256",
          "name": "_deadline",
          "type": "uint256"
        }
      ],
      "name": "setProposals",
      "outputs": [],
      "stateMutability": "nonpayable",
      "type": "function"
    },
    {
      "inputs": [
        {
          "internalType": "address[]",
          "name": "_addresses",
          "type": "address[]"
        },
        {
          "internalType": "uint256",
          "name": "_deadline",
          "type": "uint256"
        }
      ],
      "name": "setProposalsByAddress",
      "outputs": [],
      "stateMutability": "nonpayable",
      "type": "function"
    },
    {
      "inputs": [
        {
          "internalType": "uint256",
          "name": "_proposalIndex",
          "type": "uint256"
        },
        {
          "internalType": "uint256",
          "name": "_choiceCount",
          "type": "uint256"
        },
        {
          "internalType": "uint256",
          "name": "_deadline",
          "type": "uint256"
        }
      ],
      "name": "setProposalsById",
      "outputs": [],
      "stateMutability": "nonpayable",
      "type": "function"
    },
    {
      "inputs": [
        {
          "internalType": "bytes4",
          "name": "interfaceId",
          "type": "bytes4"
        }
      ],
      "name": "supportsInterface",
      "outputs": [
        {
          "internalType": "bool",
          "name": "",
          "type": "bool"
        }
      ],
      "stateMutability": "view",
      "type": "function"
    }
  ],
  "bytecode": "0x60806040523462000027575b620000156200003d565b6040516130d46200009782396130d490f35b6200003162000037565b6200000b565b50600080fd5b6200004762000080565b565b6200005962000059620000599290565b90565b62000059600162000049565b9062000059620000596200007c9262000049565b9055565b620000476200008e6200005c565b60016200006856fe60806040526004361015610018575b6100166107f5565b005b60003560e01c806301ffc9a7146107cb5780630a254640146107a1578063114e6e7314610779578063212983101461074f578063248a9ca3146107255780632f2ff15d146106fd5780632fa4d218146106d357806336568abe146106ab57806342a835511461068357806349d5e6041461064d5780635155bafa146106235780635699fbad146105fc5780637c2d6e01146105d55780637fb84bed146105ab57806384f389a8146105835780638d23507f146105555780638e8efaee1461052b5780638fef5891146104fd57806391b9b827146104c757806391d148541461049c5780639970227014610471578063a217fddf14610447578063ab37f4861461040b578063b0b38baa146103e1578063b470aade146103b7578063bcec454f1461038f578063be309bca1461034a578063cd698e6914610322578063d547741f146102fa578063d59551d2146102d2578063da606ce2146102ab578063e26f790014610275578063ea24a7681461023a578063ed99c0d114610212578063f52c395a146101eb5763f7e6b46b146101ae5761000e565b346101de575b6101da6101cb6101c5366004610ff3565b91612c24565b60405191939193849384611031565b0390f35b6101e66107f5565b6101b4565b5034610205575b6100166102003660046109d5565b6121b3565b61020d6107f5565b6101f2565b503461022d575b610016610227366004610a16565b9161212d565b6102356107f5565b610219565b5034610268575b6101da6102576102523660046109d5565b610fe1565b6040515b9182918290815260200190565b6102706107f5565b610241565b503461029e575b610287366004610846565b6101da610292612b86565b60405191829182610f62565b6102a66107f5565b61027c565b50346102c5575b6100166102c036600461091e565b6122c3565b6102cd6107f5565b6102b2565b50346102ed575b6100166102e7366004610fa3565b91611f9d565b6102f56107f5565b6102d9565b5034610315575b61001661030f3660046109a4565b9061125d565b61031d6107f5565b610301565b503461033d575b6100166103373660046108c4565b90612643565b6103456107f5565b610329565b5034610382575b61035c366004610846565b6101da610367610f97565b6040515b918291826001600160a01b03909116815260200190565b61038a6107f5565b610351565b50346103aa575b6100166103a43660046108c4565b906127fb565b6103b26107f5565b610396565b50346103d4575b6103c9366004610846565b6101da610257610f73565b6103dc6107f5565b6103be565b50346103fe575b6103f3366004610846565b6101da610292612b90565b6104066107f5565b6103e8565b503461043a575b6101da6104286104233660046109d5565b612cf8565b60405191829182901515815260200190565b6104426107f5565b610412565b5034610464575b610459366004610846565b6101da610257610efb565b61046c6107f5565b61044e565b503461048f575b610016610486366004610ea0565b93929092612a38565b6104976107f5565b610478565b50346104ba575b6101da6104286104b43660046109a4565b906110ab565b6104c26107f5565b6104a3565b50346104f0575b6104d9366004610846565b6101da6104e4610e24565b60405191829182610e8f565b6104f86107f5565b6104ce565b503461051e575b610016610512366004610c6d565b95949094939193612afa565b6105266107f5565b610504565b5034610548575b6101da6102576105433660046109d5565b610b5c565b6105506107f5565b610532565b5034610576575b61001661056a366004610ab0565b94939093929192611afd565b61057e6107f5565b61055c565b503461059e575b610016610598366004610a16565b91611e2c565b6105a66107f5565b61058a565b50346105c8575b6105bd366004610846565b6101da610257610a0e565b6105d06107f5565b6105b2565b50346105ef575b6100166105ea36600461091e565b612348565b6105f76107f5565b6105dc565b5034610616575b6100166106113660046109d5565b61223e565b61061e6107f5565b610603565b5034610640575b610635366004610846565b6101da6102576109f6565b6106486107f5565b61062a565b5034610676575b61065f366004610846565b6101da600080516020613071833981519152610257565b61067e6107f5565b610654565b503461069e575b6100166106983660046108c4565b906129df565b6106a66107f5565b61068a565b50346106c6575b6100166106c03660046109a4565b906112cc565b6106ce6107f5565b6106b2565b50346106f0575b6101da6104286106eb3660046109d5565b612d73565b6106f86107f5565b6106da565b5034610718575b6100166107123660046109a4565b9061111a565b6107206107f5565b610704565b5034610742575b6101da61025761073d36600461091e565b6110db565b61074a6107f5565b61072c565b503461076c575b6101da61025761076736600461091e565b610965565b6107746107f5565b610756565b5034610794575b61001661078e3660046108c4565b906128ed565b61079c6107f5565b610780565b50346107be575b6107b3366004610846565b6101da610257610870565b6107c66107f5565b6107a8565b50346107e8575b6101da6104286107e336600461081e565b61105c565b6107f06107f5565b6107d2565b50600080fd5b6001600160e01b031981165b14156107f557565b9050359061081c826107fb565b565b90610832916020818303126108355761080f565b90565b61083d6107f5565b61080f565b9052565b600091031261085157565b61081c6107f5565b6108326108326108329290565b610832600a610859565b610832610866565b909182601f830112156108b7575b602082359267ffffffffffffffff84116108aa575b01926020830284011161085157565b6108b26107f5565b61089b565b6108bf6107f5565b610886565b906108ed916020818303126108fe575b80359067ffffffffffffffff82116108f1575b01610878565b9091565b6108f96107f5565b6108e7565b6109066107f5565b6108d4565b80610807565b9050359061081c8261090b565b906108329160208183031261093257610911565b61093a6107f5565b610911565b905b600052602052604060002090565b610832916008021c81565b90610832915461094f565b6108329061097760089160009261093f565b61095a565b6001600160a01b031690565b6001600160a01b038116610807565b9050359061081c82610988565b9190610832906040848203126109c8575b6109bf8185610911565b93602001610997565b6109d06107f5565b6109b5565b90610832916020818303126109e957610997565b6109f16107f5565b610997565b6108326000600461095a565b61083262278d00610859565b610832610a02565b91604083830312610a5a575b610832610a4283853567ffffffffffffffff8111610a4d575b8601610878565b939094602001610911565b610a556107f5565b610a3b565b610a626107f5565b610a22565b909182601f83011215610aa3575b602082359267ffffffffffffffff8411610a96575b01928284011161085157565b610a9e6107f5565b610a8a565b610aab6107f5565b610a75565b919060a083820312610b1f575b610832610aca8285610997565b93610ad88360208301610997565b93610af984604084013567ffffffffffffffff8111610b12575b8401610a67565b939094610b098160608601610911565b93608001610911565b610b1a6107f5565b610af2565b610b276107f5565b610abd565b6108329061097c906001600160a01b031682565b61083290610b2c565b61083290610b40565b9061094190610b49565b61083290610977600991600092610b52565b601f01601f191690565b50634e487b7160e01b600052604160045260246000fd5b90601f01601f1916810190811067ffffffffffffffff821117610bb157604052565b610bb9610b78565b604052565b9061081c610bcb60405190565b9283610b8f565b610bf160209167ffffffffffffffff8111610bf557601f01601f191690565b0190565b610b6e610b78565b90826000939282370152565b92919061081c91610c21610c1c83610bd2565b610bbe565b94828652602086019183820111610c3757610bfd565b610c3f6107f5565b610bfd565b906108329181601f82011215610c60575b602081359101610c09565b610c686107f5565b610c55565b60e081830312610cf5575b610c828282610911565b92610c908360208401610997565b92610c9e8160408501610911565b92610cac8260608301610911565b92610832610cbd8460808501610911565b93610ccb8160a08601610911565b9360c08101359067ffffffffffffffff8211610ce8575b01610c44565b610cf06107f5565b610ce2565b610cfd6107f5565b610c78565b50634e487b7160e01b600052600060045260246000fd5b50634e487b7160e01b600052602260045260246000fd5b9060016002830492168015610d53575b6020831014610d4b57565b61081c610d19565b91607f1691610d40565b80546000939291610d7a610d7083610d30565b8085529360200190565b9160018116908115610dcc5750600114610d9357505050565b610da69192939450600052602060002090565b916000925b818410610db85750500190565b805484840152602090930192600101610dab565b60ff191683525050602001925050565b9061083291610d5d565b9061081c610e0092610df760405190565b93848092610ddc565b0383610b8f565b60006108329211610e1757610de6565b610e1f610d02565b610de6565b61083260006002610e07565b918091926000905b828210610e50575011610e49575050565b6000910152565b91508060209183015181860152018291610e38565b610e86610b6e602093610bf193610e7a815190565b80835293849260200190565b95869101610e30565b602080825261083292910190610e65565b919060a083820312610ee4575b610eb78184610911565b92610ec58260208301610997565b92610832610ed68460408501610911565b93610b098160608601610911565b610eec6107f5565b610ead565b6108326000610859565b610832610ef1565b90610f23610f1c610f12845190565b8084529260200190565b9260200190565b9060005b818110610f345750505090565b909192610f5a610f5360019286516001600160a01b0316815260200190565b9460200190565b929101610f27565b602080825261083292910190610f03565b6108326000600561095a565b610832916008021c61097c565b906108329154610f7f565b61083260006003610f8c565b9091606082840312610fd4575b610832610fbd8484610911565b93610fcb8160208601610911565b93604001610911565b610fdc6107f5565b610fb0565b61083290610977600a91600092610b52565b9091606082840312611024575b61083261100d8484610911565b9361101b8160208601610911565b93604001610997565b61102c6107f5565b611000565b6001600160a01b03909116815260608101939261081c929091604091611058906020830152565b0152565b637965db0b60e01b6001600160e01b031982161490811561107b575090565b61083291506001600160e01b0319166301ffc9a760e01b1490565b610832905b60ff1690565b6108329054611096565b610832916110c5916110bf6000918261093f565b01610b52565b6110a1565b6108329081565b61083290546110ca565b60016110f4610832926110ec600090565b50600061093f565b016110d1565b9061081c9161111061110b826110db565b611124565b9061081c9161131c565b9061081c916110fa565b61081c9033906111b4565b61083290610859565b610bf16111509260209261114a815190565b94859290565b93849101610e30565b6111976108329392611191611191937f416363657373436f6e74726f6c3a206163636f756e7420000000000000000000815260170190565b90611138565b7001034b99036b4b9b9b4b733903937b6329607d1b815260110190565b906111c66111c282846110ab565b1590565b6111ce575050565b61123e9250906108326111ec6111e6611226946116a8565b9261112f565b6112016020916111fb83610859565b90611548565b9261121a61120e60405190565b94859384019283611159565b90810382520382610b8f565b60405162461bcd60e51b815291829160048301610e8f565b0390fd5b9061081c9161125361110b826110db565b9061081c91611392565b9061081c91611242565b1561126e57565b5060405162461bcd60e51b815260206004820152602f60248201527f416363657373436f6e74726f6c3a2063616e206f6e6c792072656e6f756e636560448201526e103937b632b9903337b91039b2b63360891b6064820152608490fd5b61081c91906112ed6112dd3361097c565b6001600160a01b03841614611267565b611392565b9060ff905b9181191691161790565b9061131161083261131892151590565b82546112f2565b9055565b9061132a6111c282846110ab565b611332575050565b61134c60016113478360006110bf878261093f565b611301565b339061138261137c61137c7f2f8788117e7eff1d82e926ec794901d17c78024a50270940304540a733656f0d9590565b92610b49565b9261138c60405190565b600090a4565b9061139d81836110ab565b6113a5575050565b6113b9600061134783826110bf878261093f565b339061138261137c61137c7ff6391f5c32d9c69d2a47ea670b442974b53935d1edc7fd64eb21e047a839171b9590565b50634e487b7160e01b600052601160045260246000fd5b9061140a565b9190565b90806000190482118115151661141e570290565b6114266113e9565b0290565b81198111611436570190565b610bf16113e9565b9061144b610c1c83610bd2565b918252565b369037565b9061081c61146b6114658461143e565b93610bd2565b601f190160208401611450565b50634e487b7160e01b600052603260045260246000fd5b90600160209161149d845190565b8110156114ab575b02010190565b6114b3611478565b6114a5565b60019080156114c5570390565b6114cd6113e9565b0390565b61109b6108326108329290565b610832906114f26114066108329460ff1690565b901c90565b156114fe57565b5060405162461bcd60e51b81528061123e600482016020808252818101527f537472696e67733a20686578206c656e67746820696e73756666696369656e74604082015260600190565b91906002906115796115746115658361156086610859565b611400565b61156e85610859565b9061142a565b611455565b91600091603061159161158b85610859565b8661148f565b536115c96115c0600f60fb1b926115606001958695881a6115ba6115b488610859565b8b61148f565b53610859565b61156e83610859565b915b6115ec575b505061083292936115e661140661083293610859565b146114f7565b90946115f782610859565b8611156116765761166361165d83926116406116236f181899199a1a9b1b9c1cb0b131b232b360811b90565b61162d600f610859565b83166010811015611669575b1a60f81b90565b861a61164c8a8961148f565b5361165760046114d1565b906114de565b966114b8565b916115cb565b611671611478565b611639565b946115d0565b6108329081906001600160a01b031681565b61083260146114d1565b6108326108326108329260ff1690565b6116c56116c0610832926116ba606090565b50610b40565b61167c565b6111fb6116d061168e565b611698565b94939291906116e4600b6110a1565b6116fd576116f195611973565b61081c6001600b611301565b5050505050505061170d60405190565b62dc149f60e41b8152600490fd5b61097c6108326108329290565b6108329061171b565b906001600160a01b03906112f7565b9061175061083261131892610b49565b8254611731565b9160001960089290920291821b911b6112f7565b919061177c61083261131893610859565b908354611757565b61081c9160009161176b565b81811061179b575050565b806117a96000600193611784565b01611790565b9190601f81116117be57505050565b6117d061081c93600052602060002090565b906020601f8401819004830193106117f2575b6020601f909101040190611790565b90915081906117e3565b919067ffffffffffffffff82116118c7575b6118228261181c8554610d30565b856117af565b600090601f831160011461185d57611318929160009183611852575b5050600019600883021c1916906002021790565b01359050388061183e565b601f1983169161187285600052602060002090565b92815b8181106118af57509160029391856001969410611896575b50505002019055565b0135600019601f84166008021c1916905538808061188d565b91936020600181928787013581550195019201611875565b6118cf610b78565b61180e565b9061081c92916117fc565b90600019906112f7565b906118f961083261131892610859565b82546118df565b9190610b6e8161191781610bf19560209181520190565b8095610bfd565b916110589161081c9698979560809561195e61196b9461194e60a089019560008a01906001600160a01b03169052565b6001600160a01b03166020880152565b8583036040870152611900565b966060830152565b9291949093600061198661097c82611728565b6001600160a01b03861614611add57836119a0565b905090565b6119ac61140683610859565b14611abd576119ba81610859565b82148015611aaa575b611a8a576119d090610859565b82148015611a77575b611a5857611a53926119ec856003611740565b6119f8818860026118d4565b611a038260046118e9565b611a0e8360056118e9565b611a1f86611a1a610ef1565b61131c565b7fa80caddab9a93c4df4f67cd3ee3490472325e6903e29687fc5904cef451041f996611a4a60405190565b9687968761191e565b0390a1565b50505050505050611a6860405190565b634f08daf360e11b8152600490fd5b50611a83610832610a02565b82116119d9565b5050505050505050611a9b60405190565b63c17d8a0360e01b8152600490fd5b50611ab6610832610866565b82116119c3565b5050505050505050611ace60405190565b6301fc71f560e21b8152600490fd5b5050505050505050611aee60405190565b63e6c4247b60e01b8152600490fd5b9061081c95949392916116d5565b9190611b15610ef1565b611b236111c23380936110ab565b9081611b54575b50611b385761081c92611cbc565b50505050611b4560405190565b63ea8e4eb560e01b8152600490fd5b611b7191506111c2906000805160206130718339815191526110ab565b38611b2a565b6020809167ffffffffffffffff8111611b8f57020190565b611b97610b78565b020190565b9061144b610c1c83611b77565b9061081c61146b611bb984611b9c565b93611b77565b903590601e193682900301821215611c03575b01602081359167ffffffffffffffff8311611bf6575b019136829003831361085157565b611bfe6107f5565b611be8565b611c0b6107f5565b611bd2565b906108ed92602091811015611c29575b02810190611bbf565b611c31611478565b611c20565b9091610bf19083908093610bfd565b909161083292611c36565b906020809161149d845190565b6001906000198114611436570190565b90611c7c610f1c610f12845190565b9060005b818110611c8d5750505090565b909192611ca3610f536001928651815260200190565b929101611c80565b602080825261083292910190611c6d565b929181926000611ccb81610859565b8514611e1d57428310611dff57611ce185611ba9565b9160009560015b15611da5575b8296611cfe61199b82898c611c10565b611d0a61140686610859565b14611d845780611d5f61121a611d3f611d27611d7e958c8f611c10565b90611d3160405190565b938492602084019283611c45565b611d51611d4a825190565b9160200190565b20611d5c8389611c50565b52565b611d7987611d74611d70848a611c50565b5190565b613061565b611c5d565b96611ce8565b505050505050505050611d9660405190565b63eb48439160e01b8152600490fd5b80871015611db257611cee565b5095505092509050611dfa611de77f8c852cad34f901531c4a1328ddfefbc6152fbd45aa7eb38890e74f351d8493a692610859565b92611df160405190565b91829182611cab565b0390a2565b505050505050611e0e60405190565b631da7447960e21b8152600490fd5b505050505050611aee60405190565b9061081c9291611b0b565b9190611e41610ef1565b611e4f6111c23380936110ab565b9081611e64575b50611b385761081c92611e8d565b611e8191506111c2906000805160206130718339815191526110ab565b38611e56565b01918252565b9190916000611e9b81610859565b8414611f8057428310611f7257611eb184611ba9565b9460009460015b15611f1b575b611f158396611f04611ecf60405190565b611eee816020810161121a868c83602081611e87610bf1938396959052565b611ef9611d4a825190565b20611d5c838c611c50565b611d7987611d74611d70848d611c50565b95611eb8565b80861015611f2857611ebe565b5094935050611f6d611f63611f5d7fc3c3780ed921778d05400bdfaf133352f1c8ce56e4ce47391118f53a22103cce93610859565b93610859565b93611df160405190565b0390a3565b5050505050611e0e60405190565b5050505050611f8e60405190565b633d25757960e01b8152600490fd5b9061081c9291611e37565b9190611fb2610ef1565b611fc06111c23380936110ab565b9081611fd5575b50611b385761081c92612039565b611ff291506111c2906000805160206130718339815191526110ab565b38611fc7565b9160209181101561200857020190565b611b97611478565b3561083281610988565b610842906001600160a01b031660601b90565b610bf18160149361201a565b9092918392600061204981610859565b8514611e1d57428310611dff5761205f85611ba9565b9160009560015b156120eb575b829661208161207c828b8a611ff8565b612010565b61209d61209061097c87611728565b916001600160a01b031690565b146120d95780611d5f6120b761207c6120d3948d8c611ff8565b611d3f6120c360405190565b809261121a60208301918261202d565b96612066565b505050505050505050611aee60405190565b808710156120f85761206c565b5095505092509050611dfa611de77fa9411f55f4ccd3f63f1f6236481c2f6b385a4221287184e89ca4c40792f8224e92610859565b9061081c9291611fa8565b61081c9061214761110b610ef1565b61215461097c6000611728565b6001600160a01b038216146121a95761217b8160008051602061307183398151915261131c565b611a537fd36b0989e598a1b05388150a9a8c84925e2710d91910406b8735e01f3ed028179161036b60405190565b5050604051611aee565b61081c90612138565b61081c906121cb61110b610ef1565b6000805160206130718339815191526121e76111c283836110ab565b61222357816121f591611392565b611a537f708bd40f8f4d2ad60032caea0582161d35c50177cc0b2c575b5d483bd2902caa9161036b60405190565b50505061222f60405190565b632793ed7d60e01b8152600490fd5b61081c906121bc565b61081c9061225661110b610ef1565b6122606000610859565b811480156122b0575b6122a6576122788160046118e9565b611a537fbff777c073bd9101dd1e419471fe91c54c9ffe380882bca8eb1fcf75d6086f779161025b60405190565b5050604051611a9b565b506122bc610832610866565b8111612269565b61081c90612247565b61081c906122db61110b610ef1565b6122e56000610859565b81148015612335575b61232b576122fd8160056118e9565b611a537f7d7455c70e1855cfeb6ff84fe7b6d37efcfdaee91c05f2e25a55368f50ba7b5a9161025b60405190565b5050604051611a68565b50612341610832610a02565b81116122ee565b61081c906122cc565b9061235a610ef1565b6123686111c23380936110ab565b9081612389575b5061237d5761081c916124e7565b505050611b4560405190565b6123a691506111c2906000805160206130718339815191526110ab565b3861236f565b6108329061097c565b61083290546123ac565b6123df6001916123cd815490565b8410156123e857600052602060002090565b91020190600090565b6123f0611478565b600052602060002090565b916001600160a01b0360089290920291821b911b6112f7565b919061242561083261131893610b49565b9083546123fb565b9061245561081c928054906801000000000000000082101561245b575b6001820181556123bf565b90612414565b612463610b78565b61244a565b8181106114c5570390565b50610832906020810190610997565b818352602090920191906000825b82821061249e575050505090565b909192936124cd6124c66001926124b58886612473565b6001600160a01b0316815260200190565b9560200190565b93920190612490565b602080825261083293910191612482565b909190829160005b835b8110156126075761250661207c828786611ff8565b61251661209061097c6000611728565b146125f95761252961207c828786611ff8565b61253961209061097c60036123b5565b146125dc5761254f61042361207c838887611ff8565b6125bf576124f1906125b8906125b261259461258460066125808961257a61207c888f865b94611ff8565b9061242d565b5490565b61258e6001610859565b90612468565b6125ad60096125a761207c868d8c611ff8565b90610b52565b6118e9565b60010190565b90506124ef565b50505050506125cd60405190565b63241d2edf60e01b8152600490fd5b50505050506125ea60405190565b63a122bf3960e01b8152600490fd5b5050505050611aee60405190565b50929091507fe7e9e18eae0a1664f98ba7e59eda81692d5802c7e9bd75bb0261f3fc6fd4a49391611a5361263a60405190565b928392836124d6565b9061081c91612351565b90612656610ef1565b6126646111c23380936110ab565b9081612679575b5061237d5761081c916126f5565b61269691506111c2906000805160206130718339815191526110ab565b3861266b565b50634e487b7160e01b600052603160045260246000fd5b61081c91600091612414565b60016126c9825490565b80156126e8575b03906126e56126df83836123bf565b906126b3565b55565b6126f061269c565b6126d0565b909190829160005b835b8110156127c85761271a6111c261042361207c848988611ff8565b6127ab576127a4816125b261279f61275a610832600061279a8a6125a761207c8f9b6126ff9c60099461279561276561276061275a61207c878787611ff8565b89610b52565b6110d1565b6125ad8160069d8e61245561278d612787612781612584855490565b846123bf565b90610f8c565b9384926123bf565b611ff8565b611784565b6126bf565b90506126fd565b50505050506127b960405190565b6307c241ad60e51b8152600490fd5b50929091507fc18397a78d98d67911be09b9c32315c4b8db0454529f84f856e61f537494cbfc91611a5361263a60405190565b9061081c9161264d565b9061081c9161281561110b610ef1565b909190829160005b835b8110156128ba5761283461207c828786611ff8565b61284461209061097c6000611728565b146125f95761285a6106eb61207c838887611ff8565b61289d5761281f90612896906125b261288361258460076125808961257a61207c888f86612574565b6125ad600a6125a761207c868d8c611ff8565b905061281d565b50505050506128ab60405190565b6336650e8f60e11b8152600490fd5b50929091507f8ff2887f41c4af26bbcadf0889537a4641e2d1d6d9fa287feaf683a76096efd891611a5361263a60405190565b9061081c91612805565b9061081c9161290761110b610ef1565b909190829160005b835b8110156129ac5761292c6111c26106eb61207c848988611ff8565b61298f57612988816125b261279f61275a610832600061279a8a6125a761207c8f9b6129119c600a9461279561296c61276061275a61207c878787611ff8565b6125ad8160079d8e61245561278d612787612781612584855490565b905061290f565b505050505061299d60405190565b637463712b60e01b8152600490fd5b50929091507fa520ff964bc029411023e3f0e20bf29e54c023e5e23b0e28d0de3ae5d4231a9e91611a5361263a60405190565b9061081c916128f7565b906129fe949392916129f9612a9c565b612a18565b61081c612ace565b610832600061143e565b610832612a06565b9261081c949192612a296000610859565b93612a32612a10565b95612e61565b9061081c949392916129e9565b6108326002610859565b15612a5657565b5060405162461bcd60e51b815260206004820152601f60248201527f5265656e7472616e637947756172643a207265656e7472616e742063616c6c006044820152606490fd5b61081c612aa960016110d1565b612abd612ab4612a45565b91821415612a4f565b60016118e9565b6108326001610859565b61081c612abd612ac4565b906129fe969594939291612aeb612a9c565b9061081c969594939291612e61565b9061081c969594939291612ad9565b90612b24612b18610f12845490565b92600052602060002090565b9060005b818110612b355750505090565b909192612b51612b4a6001926124b5876123b5565b9460010190565b929101612b28565b9061083291612b09565b9061081c610e0092612b7460405190565b93848092612b59565b61083290612b63565b6108326006612b7d565b6108326007612b7d565b92612bb76020610bf194611e87601488611e87829b9a869961201a565b01809261201a565b9050519061081c82610988565b9050519061081c8261090b565b9091606082840312612c0a575b610832612bf38484612bbf565b93612c018160208601612bcc565b93604001612bcc565b612c126107f5565b612be6565b506040513d6000823e3d90fd5b91612cac92612c9e606093612c37600090565b50612c7b612c50612c4b612c4b60036123b5565b610b49565b93632c4ef0d59561121a612c6330610b49565b91612c6d60405190565b958694602086019485612b9a565b612c86611d4a825190565b2092612c9160405190565b9586948593849360e01b90565b835260048301526024820190565b03915afa8015612ceb575b6000808091939092612cca575b50909192565b915050612ce59150612cdc3d82610b8f565b3d810190612bd9565b38612cc4565b612cf3612c17565b612cb7565b600690612d03825490565b600090612d1261140683610859565b14612d6d57612d25612760836009610b52565b612d3161140683610859565b1415928315612d41575b50505090565b612d6492935061278761209092612d57926123bf565b926001600160a01b031690565b14388080612d3b565b91505090565b600790612d7e825490565b600090612d8d61140683610859565b14612d6d57612d2561276083600a610b52565b610832610140610bbe565b805182526020808201516001600160a01b03169083015261083291610140810191610120906040818101516001600160a01b031690840152612df260608201516060850152565b612e0160808201516080850152565b612e1060a082015160a0850152565b612e1f60c082015160c0850152565b612e2e60e082015160e0850152565b612e3f610100820151610100850152565b015190610120818403910152610e65565b602080825261083292910190612dab565b9394959095612e7461276086600861093f565b42811061304057600097612e8789610859565b8814801561302b575b61300957612ea061097c8a611728565b6001600160a01b03821614612ff657612ebb6111c282612cf8565b612fe357612ec889610859565b8514612fc1578897612eda60036123b5565b612ee390610b49565b612eec90610b49565b96635c2a802b9633612efe60056110d1565b94612f07612da0565b9b612f12908e8e0152565b6001600160a01b031660208c01526001600160a01b031660408b015260608a0152608089015260a088015260c087015260e0860152610100850152610120840152612f7e94612f7391833b15612fb4575b6040519687958694859360e01b90565b835260048301612e50565b03925af18015612fa7575b612f905750565b61081c90612f9e3d82610b8f565b3d810190610846565b612faf612c17565b612f89565b612fbc6107f5565b612f63565b50505050505050505050612fd460405190565b63162908e360e11b8152600490fd5b505050505050505050506127b960405190565b50505050505050505050611aee60405190565b5050505050505050505061301c60405190565b6302e8f35960e31b8152600490fd5b5061303961083260046110d1565b8811612e90565b50505050505050505061305260405190565b63387b2e5560e11b8152600490fd5b906125ad61081c92600861093f56fe5146a08baf902532d0ee2f909971144f12ca32651cd70cbee1117cddfb3b3b33a3646970667358221220e286f456265a698832cda4630e8d3b07260eb6eb0fcfc99c9e443cc02e8df9496c6578706572696d656e74616cf564736f6c634300080c0041",
  "linkReferences": {},
  "deployedLinkReferences": {}
}