{
  "_format": "hh-sol-artifact-1",
  "contractName": "FeeDistributionScheduler",
  "sourceName": "contracts/admin/FeeDistributionScheduler.sol",
  "abi": [
    {
      "inputs": [
        {
          "internalType": "contract IFeeTokenDistributor",
          "name": "feeDistributor",
          "type": "address"
        },
        {
          "internalType": "contract IERC20",
          "name": "token",
          "type": "address"
        }
      ],
      "name": "getPendingRewards",
      "outputs": [
        {
          "internalType": "uint256",
          "name": "",
          "type": "uint256"
        }
      ],
      "stateMutability": "view",
      "type": "function"
    },
    {
      "inputs": [
        {
          "internalType": "contract IFeeTokenDistributor",
          "name": "feeDistributor",
          "type": "address"
        },
        {
          "internalType": "contract IERC20",
          "name": "token",
          "type": "address"
        },
        {
          "internalType": "uint256",
          "name": "timestamp",
          "type": "uint256"
        }
      ],
      "name": "getPendingRewardsAt",
      "outputs": [
        {
          "internalType": "uint256",
          "name": "",
          "type": "uint256"
        }
      ],
      "stateMutability": "view",
      "type": "function"
    },
    {
      "inputs": [
        {
          "internalType": "contract IFeeTokenDistributor",
          "name": "feeDistributor",
          "type": "address"
        },
        {
          "internalType": "contract IERC20",
          "name": "token",
          "type": "address"
        },
        {
          "internalType": "uint256",
          "name": "timestamp",
          "type": "uint256"
        }
      ],
      "name": "getRewardNode",
      "outputs": [
        {
          "components": [
            {
              "internalType": "uint224",
              "name": "amount",
              "type": "uint224"
            },
            {
              "internalType": "uint32",
              "name": "nextTimestamp",
              "type": "uint32"
            }
          ],
          "internalType": "struct FeeDistributionScheduler.RewardNode",
          "name": "",
          "type": "tuple"
        }
      ],
      "stateMutability": "view",
      "type": "function"
    },
    {
      "inputs": [
        {
          "internalType": "contract IFeeTokenDistributor",
          "name": "feeDistributor",
          "type": "address"
        },
        {
          "internalType": "contract IERC20",
          "name": "token",
          "type": "address"
        },
        {
          "internalType": "uint256",
          "name": "amount",
          "type": "uint256"
        },
        {
          "internalType": "uint256",
          "name": "startTime",
          "type": "uint256"
        }
      ],
      "name": "scheduleDistribution",
      "outputs": [],
      "stateMutability": "nonpayable",
      "type": "function"
    },
    {
      "inputs": [
        {
          "internalType": "contract IFeeTokenDistributor",
          "name": "feeDistributor",
          "type": "address"
        },
        {
          "internalType": "contract IERC20",
          "name": "token",
          "type": "address"
        }
      ],
      "name": "startDistributionForToken",
      "outputs": [],
      "stateMutability": "nonpayable",
      "type": "function"
    }
  ],
  "bytecode": "0x608060405234801561001057600080fd5b50610fbd806100206000396000f3fe608060405234801561001057600080fd5b50600436106100675760003560e01c8063974e98a611610050578063974e98a6146100b5578063d85b7a61146100ca578063e2962564146100dd57610067565b80637a27db571461006c57806380723ab314610095575b600080fd5b61007f61007a366004610bb8565b6100f0565b60405161008c9190610f5c565b60405180910390f35b6100a86100a3366004610bf0565b610104565b60405161008c9190610f21565b6100c86100c3366004610c30565b610195565b005b6100c86100d8366004610bb8565b610374565b61007f6100eb366004610bf0565b610530565b60006100fd838342610530565b9392505050565b61010c610b81565b6000806101198686610567565b81526020808201929092526040908101600090812063ffffffff958616825283528190208151808301909252547bffffffffffffffffffffffffffffffffffffffffffffffffffffffff811682527c01000000000000000000000000000000000000000000000000000000009004909316908301525092915050565b600082116101d8576040517f08c379a00000000000000000000000000000000000000000000000000000000081526004016101cf90610e30565b60405180910390fd5b7bffffffffffffffffffffffffffffffffffffffffffffffffffffffff82111561022e576040517f08c379a00000000000000000000000000000000000000000000000000000000081526004016101cf90610d9c565b63ffffffff81111561026c576040517f08c379a00000000000000000000000000000000000000000000000000000000081526004016101cf90610e8d565b428110156102a6576040517f08c379a00000000000000000000000000000000000000000000000000000000081526004016101cf90610ec4565b6102af8161059a565b81146102e7576040517f08c379a00000000000000000000000000000000000000000000000000000000081526004016101cf90610d3f565b6301e133804282031115610327576040517f08c379a00000000000000000000000000000000000000000000000000000000081526004016101cf90610dd3565b61034973ffffffffffffffffffffffffffffffffffffffff84163330856105a6565b61036e6000806103598787610567565b81526020019081526020016000208284610649565b50505050565b60008060006103838585610567565b815260200190815260200160002090506000806103a0834261095c565b6000808052602086905260409081902080547bffffffffffffffffffffffffffffffffffffffffffffffffffffffff167c010000000000000000000000000000000000000000000000000000000063ffffffff861602179055517f095ea7b3000000000000000000000000000000000000000000000000000000008152919350915073ffffffffffffffffffffffffffffffffffffffff85169063095ea7b3906104509088908590600401610d19565b602060405180830381600087803b15801561046a57600080fd5b505af115801561047e573d6000803e3d6000fd5b505050506040513d601f19601f820116820180604052508101906104a29190610b98565b506040517f338b5dea00000000000000000000000000000000000000000000000000000000815273ffffffffffffffffffffffffffffffffffffffff86169063338b5dea906104f79087908590600401610d19565b600060405180830381600087803b15801561051157600080fd5b505af1158015610525573d6000803e3d6000fd5b505050505050505050565b6000806000806105408787610567565b81526020019081526020016000209050600061055c828561095c565b979650505050505050565b6000828260405160200161057c929190610cae565b60405160208183030381529060405280519060200120905092915050565b62093a80908190040290565b61036e846323b872dd60e01b8585856040516024016105c793929190610ce8565b604080517fffffffffffffffffffffffffffffffffffffffffffffffffffffffffffffffe08184030181529190526020810180517bffffffffffffffffffffffffffffffffffffffffffffffffffffffff167fffffffff0000000000000000000000000000000000000000000000000000000090931692909217909152610a1f565b6000808052602084905260408120547c0100000000000000000000000000000000000000000000000000000000900463ffffffff165b8063ffffffff168463ffffffff1611801561069f575063ffffffff811615155b156106e55763ffffffff8082166000908152602087905260409020549192507c01000000000000000000000000000000000000000000000000000000009091041661067f565b63ffffffff81166107af5763ffffffff8083166000908152602087815260408083208054858a167c01000000000000000000000000000000000000000000000000000000008181027bffffffffffffffffffffffffffffffffffffffffffffffffffffffff93841617909355835180850185528a83168152808601878152918752948c905292909420925183549251909516029383167fffffffff000000000000000000000000000000000000000000000000000000009190911617909116919091179055610955565b8363ffffffff168163ffffffff16141561089c5763ffffffff81166000908152602086905260409020547bffffffffffffffffffffffffffffffffffffffffffffffffffffffff9081168185160190811115610837576040517f08c379a00000000000000000000000000000000000000000000000000000000081526004016101cf90610d9c565b63ffffffff8216600090815260208790526040902080547fffffffff00000000000000000000000000000000000000000000000000000000167bffffffffffffffffffffffffffffffffffffffffffffffffffffffff92909216919091179055610955565b6040805180820182527bffffffffffffffffffffffffffffffffffffffffffffffffffffffff858116825263ffffffff84811660208085019182528983166000818152918c90528682209551865493517fffffffff000000000000000000000000000000000000000000000000000000009094169086161785167c010000000000000000000000000000000000000000000000000000000093851684021790955591871682529390208054909116929091029190911790555b5050505050565b60008080526020839052604081205481907c0100000000000000000000000000000000000000000000000000000000900463ffffffff16815b8163ffffffff1685101580156109b0575063ffffffff821615155b15610a145763ffffffff9182166000908152602087905260409020547c01000000000000000000000000000000000000000000000000000000008104909216917bffffffffffffffffffffffffffffffffffffffffffffffffffffffff1601610995565b909590945092505050565b600060608373ffffffffffffffffffffffffffffffffffffffff1683604051610a489190610c75565b6000604051808303816000865af19150503d8060008114610a85576040519150601f19603f3d011682016040523d82523d6000602084013e610a8a565b606091505b50915091506000821415610aa2573d6000803e3d6000fd5b61036e815160001480610ac4575081806020019051810190610ac49190610b98565b6101a281610ad557610ad581610ad9565b5050565b610b03817f42414c0000000000000000000000000000000000000000000000000000000000610b06565b50565b7f08c379a000000000000000000000000000000000000000000000000000000000600090815260206004526007602452600a808404818106603090810160081b958390069590950190829004918206850160101b01602363ffffff0060e086901c160160181b0190930160c81b60445260e882901c90606490fd5b604080518082019091526000808252602082015290565b600060208284031215610ba9578081fd5b815180151581146100fd578182fd5b60008060408385031215610bca578081fd5b8235610bd581610f65565b91506020830135610be581610f65565b809150509250929050565b600080600060608486031215610c04578081fd5b8335610c0f81610f65565b92506020840135610c1f81610f65565b929592945050506040919091013590565b60008060008060808587031215610c45578081fd5b8435610c5081610f65565b93506020850135610c6081610f65565b93969395505050506040820135916060013590565b60008251815b81811015610c955760208186018101518583015201610c7b565b81811115610ca35782828501525b509190910192915050565b7fffffffffffffffffffffffffffffffffffffffff000000000000000000000000606093841b811682529190921b16601482015260280190565b73ffffffffffffffffffffffffffffffffffffffff9384168152919092166020820152604081019190915260600190565b73ffffffffffffffffffffffffffffffffffffffff929092168252602082015260400190565b60208082526034908201527f446973747269627574696f6e206d75737420737461727420617420746865206260408201527f6567696e6e696e67206f6620746865207765656b000000000000000000000000606082015260800190565b60208082526016908201527f52657761726420616d6f756e74206f766572666c6f7700000000000000000000604082015260600190565b60208082526024908201527f446973747269627574696f6e20746f6f2066617220696e746f2074686520667560408201527f7475726500000000000000000000000000000000000000000000000000000000606082015260800190565b60208082526026908201527f4d7573742070726f76696465206e6f6e2d7a65726f206e756d626572206f662060408201527f746f6b656e730000000000000000000000000000000000000000000000000000606082015260800190565b60208082526019908201527f5265776172642074696d657374616d70206f766572666c6f7700000000000000604082015260600190565b60208082526031908201527f446973747269627574696f6e2063616e206f6e6c79206265207363686564756c60408201527f656420666f722074686520667574757265000000000000000000000000000000606082015260800190565b81517bffffffffffffffffffffffffffffffffffffffffffffffffffffffff16815260209182015163ffffffff169181019190915260400190565b90815260200190565b73ffffffffffffffffffffffffffffffffffffffff81168114610b0357600080fdfea264697066735822122019c4af0f9f60985b6a581db7e96ab2d3fd2a119d70b48130f3057d00d8e3619864736f6c63430007010033",
  "linkReferences": {},
  "deployedLinkReferences": {}
}