{"contracts/RewardHarvesterClaim.sol":{"RewardHarvesterClaim":{"abi":[{"inputs":[{"internalType":"address","name":"_harvester","type":"address"},{"internalType":"uint256","name":"_fee","type":"uint256"}],"stateMutability":"nonpayable","type":"constructor"},{"inputs":[],"name":"InvalidAddress","type":"error"},{"inputs":[],"name":"InvalidFee","type":"error"},{"anonymous":false,"inputs":[{"indexed":true,"internalType":"address","name":"previousOwner","type":"address"},{"indexed":true,"internalType":"address","name":"newOwner","type":"address"}],"name":"OwnershipTransferStarted","type":"event"},{"anonymous":false,"inputs":[{"indexed":true,"internalType":"address","name":"previousOwner","type":"address"},{"indexed":true,"internalType":"address","name":"newOwner","type":"address"}],"name":"OwnershipTransferred","type":"event"},{"anonymous":false,"inputs":[{"indexed":false,"internalType":"uint256","name":"fee","type":"uint256"}],"name":"SetFee","type":"event"},{"inputs":[],"name":"MAX_FEE","outputs":[{"internalType":"uint256","name":"","type":"uint256"}],"stateMutability":"view","type":"function"},{"inputs":[],"name":"acceptOwnership","outputs":[],"stateMutability":"nonpayable","type":"function"},{"inputs":[{"internalType":"uint256","name":"_newFee","type":"uint256"}],"name":"changeFee","outputs":[],"stateMutability":"nonpayable","type":"function"},{"inputs":[{"internalType":"address","name":"_token","type":"address"},{"internalType":"address","name":"_account","type":"address"},{"internalType":"uint256","name":"_amount","type":"uint256"},{"internalType":"bytes32[]","name":"_merkleProof","type":"bytes32[]"}],"name":"claim","outputs":[],"stateMutability":"nonpayable","type":"function"},{"inputs":[],"name":"fee","outputs":[{"internalType":"uint256","name":"","type":"uint256"}],"stateMutability":"view","type":"function"},{"inputs":[],"name":"harvester","outputs":[{"internalType":"contract RewardHarvester","name":"","type":"address"}],"stateMutability":"view","type":"function"},{"inputs":[],"name":"owner","outputs":[{"internalType":"address","name":"","type":"address"}],"stateMutability":"view","type":"function"},{"inputs":[],"name":"pendingOwner","outputs":[{"internalType":"address","name":"","type":"address"}],"stateMutability":"view","type":"function"},{"inputs":[],"name":"renounceOwnership","outputs":[],"stateMutability":"nonpayable","type":"function"},{"inputs":[{"internalType":"address","name":"newOwner","type":"address"}],"name":"transferOwnership","outputs":[],"stateMutability":"nonpayable","type":"function"}],"evm":{"bytecode":{"linkReferences":{},"object":"60a06040523462000042575b62000020620000196200013a565b90620001a8565b604051610a6162000409823960805181818161023a01526108340152610a6190f35b6200004c62000052565b6200000b565b50600080fd5b50634e487b7160e01b600052604160045260246000fd5b90601f01601f191681019081106001600160401b038211176200009157604052565b6200009b62000058565b604052565b90620000b7620000af60405190565b92836200006f565b565b6001600160a01b031690565b90565b6001600160a01b0381165b14156200005257565b90505190620000b782620000c8565b80620000d3565b90505190620000b782620000eb565b9190620000c5906040848203126200012a575b620001208185620000dc565b93602001620000f2565b6200013462000052565b62000114565b6200015d62000e6a803803806200015181620000a0565b92833981019062000101565b9091565b620000b9620000c5620000c59290565b620000c59062000161565b620000c590620000b9906001600160a01b031682565b620000c5906200017c565b620000c59062000192565b90620001b362000253565b620001c3620000b9600062000171565b6001600160a01b03831614620001eb57620001e2620000b7926200019d565b60805262000391565b505050620001f860405190565b63e6c4247b60e01b8152600490fd5b620000c5620000c5620000c59290565b620000c5600162000207565b90600019905b9181191691161790565b9062000247620000c56200024f9262000207565b825462000223565b9055565b6200025d62000273565b620000b76200026b62000217565b600262000233565b620000b78033620002c5565b916001600160a01b0360089290920291821b911b62000229565b9190620002ae620000c56200024f936200019d565b9083546200027f565b620000b79160009162000299565b620000b790620002d860006001620002b7565b62000321565b620000c590620000b9565b620000c59054620002de565b906001600160a01b039062000229565b9062000319620000c56200024f926200019d565b8254620002f5565b6200032d6000620002e9565b906200033b81600062000305565b620003726200036b7f8be0079c531659141344cd1fd0a4f28419497f9722a3daafe3b4186f6b6457e0936200019d565b916200019d565b916200037d60405190565b600090a3565b620000c5620186a062000207565b6200039f620000c562000383565b8111620003f457620003b381600362000233565b620003ef7e172ddfc5ae88d08b3de01a5a187667c37a5a53989e8c175055cb6c993792a791620003e260405190565b9182918290815260200190565b0390a1565b50506040516358d620b360e01b8152600490fdfe60806040526004361015610018575b61001661026c565b005b60003560e01c80634bdaeac11461021f5780636a1db1bf146101f8578063715018a6146101d157806379ba5097146101aa5780638da5cb5b14610180578063bc063e1a14610156578063ddca3f431461011b578063e30c3978146100e5578063f2fde38b146100be5763fabed412146100905761000e565b346100b1575b6100166100a43660046103f0565b939290926108d0565b0390f35b6100b961026c565b610096565b50346100d8575b6100166100d3366004610383565b6105df565b6100e061026c565b6100c5565b503461010e575b6100f7366004610272565b6100ad61010261053d565b6040519182918261031a565b61011661026c565b6100ec565b5034610149575b61012d366004610272565b6100ad610138610361565b6040515b9182918290815260200190565b61015161026c565b610122565b5034610173575b610168366004610272565b6100ad610138610343565b61017b61026c565b61015d565b503461019d575b610192366004610272565b6100ad610102610472565b6101a561026c565b610187565b50346101c4575b6101bc366004610272565b6100166106e3565b6101cc61026c565b6101b1565b50346101eb575b6101e3366004610272565b6100166104b4565b6101f361026c565b6101d8565b5034610212575b61001661020d3660046102f0565b6109b2565b61021a61026c565b6101ff565b503461025f575b610231366004610272565b604051806100ad7f0000000000000000000000000000000000000000000000000000000000000000826102c9565b61026761026c565b610226565b50600080fd5b600091031261027d57565b61028561026c565b565b61029b9061029e906001600160a01b031682565b90565b6001600160a01b031690565b61029b90610287565b61029b906102aa565b6102c5906102b3565b9052565b60208101929161028591906102bc565b805b141561026c57565b90503590610285826102d9565b9061029b91602081830312610304576102e3565b61030c61026c565b6102e3565b6102c59061029e565b6020810192916102859190610311565b61029b61029b61029b9290565b61029b620186a061032a565b61029b610337565b61029b916008021c81565b9061029b915461034b565b61029b60006003610356565b6102db8161029e565b905035906102858261036d565b9061029b9160208183031261039757610376565b61039f61026c565b610376565b909182601f830112156103e3575b602082359267ffffffffffffffff84116103d6575b01926020830284011161027d57565b6103de61026c565b6103c7565b6103eb61026c565b6103b2565b608081830312610452575b6104058282610376565b926104416104168460208501610376565b9361042481604086016102e3565b9360608101359067ffffffffffffffff8211610445575b016103a4565b9091565b61044d61026c565b61043b565b61045a61026c565b6103fb565b61029b9061029e565b61029b905461045f565b61029b6000610468565b61048461051a565b6102856104a2565b61029e61029b61029b9290565b61029b9061048c565b6102856104af6000610499565b610626565b61028561047c565b0190565b6020808252818101527f4f776e61626c653a2063616c6c6572206973206e6f7420746865206f776e6572604082015260600190565b156104fc57565b5060405162461bcd60e51b815280610516600482016104c0565b0390fd5b610285610525610472565b6105376105313361029e565b9161029e565b146104f5565b61029b6001610468565b6102859061055361051a565b610588565b906001600160a01b03905b9181191691161790565b9061057d61029b610584926102b3565b8254610558565b9055565b61059381600161056d565b61059b610472565b906105cf6105c97f38d16b8cac22d99fc7c124b9cd0de2d3fa1faef420bfe791d8c362d765e22700936102b3565b916102b3565b916105d960405190565b600090a3565b61028590610547565b916001600160a01b0360089290920291821b911b610563565b919061061261029b610584936102b3565b9083546105e8565b61028591600091610601565b610285906106366000600161061a565b6106406000610468565b9061064c81600061056d565b6105cf6105c97f8be0079c531659141344cd1fd0a4f28419497f9722a3daafe3b4186f6b6457e0936102b3565b60208082526029908201527f4f776e61626c6532537465703a2063616c6c6572206973206e6f7420746865206040820152683732bb9037bbb732b960b91b606082015260800190565b156106c957565b5060405162461bcd60e51b81528061051660048201610679565b610285336104af6106f261053d565b6106fe6105318461029e565b146106c2565b9061071994939291610714610960565b61081f565b610285610992565b61029b9081565b61029b9054610721565b50634e487b7160e01b600052604160045260246000fd5b90601f01601f1916810190811067ffffffffffffffff82111761076b57604052565b610773610732565b604052565b90826000939282370152565b8183526020926104bc919084019384936001600160fb1b0381116107ac575b02938491610778565b6107b461026c565b6107a3565b92906102859698979560a0956107f6610803946107ef61080b976107e560c08b019760008c0190610311565b60208a0190610311565b6040880152565b8583036060870152610784565b966080830152565b0190610311565b506040513d6000823e3d90fd5b916000809461088d84610882949895986108587f00000000000000000000000000000000000000000000000000000000000000006102b3565b966348a61ff5946108696003610728565b92893b156108c3575b6040519c8d9b8c9a8b9960e01b90565b8952600489016107b9565b03925af180156108b6575b61089f5750565b610285906108ad3d82610749565b3d810190610272565b6108be610812565b610898565b6108cb61026c565b610872565b9061028594939291610704565b61029b600261032a565b6020808252601f908201527f5265656e7472616e637947756172643a207265656e7472616e742063616c6c00604082015260600190565b1561092557565b5060405162461bcd60e51b815280610516600482016108e7565b9060001990610563565b9061095961029b6105849261032a565b825461093f565b61028561096d6002610728565b6109816109786108dd565b9182141561091e565b6002610949565b61029b600161032a565b610285610981610988565b610285906109a961051a565b610285906109bb565b6102859061099d565b6109c661029b610337565b8111610a09576109d7816003610949565b610a047e172ddfc5ae88d08b3de01a5a187667c37a5a53989e8c175055cb6c993792a79161013c60405190565b0390a1565b50506040516358d620b360e01b8152600490fdfea36469706673582212207878ebdf1a1e3cbdb95fd88252ccdd98fa84fd7f76be2977a4b4d8e056caade16c6578706572696d656e74616cf564736f6c634300080c0041","opcodes":"PUSH1 0xA0 PUSH1 0x40 MSTORE CALLVALUE PUSH3 0x42 JUMPI JUMPDEST PUSH3 0x20 PUSH3 0x19 PUSH3 0x13A JUMP JUMPDEST SWAP1 PUSH3 0x1A8 JUMP JUMPDEST PUSH1 0x40 MLOAD PUSH2 0xA61 PUSH3 0x409 DUP3 CODECOPY PUSH1 0x80 MLOAD DUP2 DUP2 DUP2 PUSH2 0x23A ADD MSTORE PUSH2 0x834 ADD MSTORE PUSH2 0xA61 SWAP1 RETURN JUMPDEST PUSH3 0x4C PUSH3 0x52 JUMP JUMPDEST PUSH3 0xB JUMP JUMPDEST POP PUSH1 0x0 DUP1 REVERT JUMPDEST POP PUSH4 0x4E487B71 PUSH1 0xE0 SHL PUSH1 0x0 MSTORE PUSH1 0x41 PUSH1 0x4 MSTORE PUSH1 0x24 PUSH1 0x0 REVERT JUMPDEST SWAP1 PUSH1 0x1F ADD PUSH1 0x1F NOT AND DUP2 ADD SWAP1 DUP2 LT PUSH1 0x1 PUSH1 0x1 PUSH1 0x40 SHL SUB DUP3 GT OR PUSH3 0x91 JUMPI PUSH1 0x40 MSTORE JUMP JUMPDEST PUSH3 0x9B PUSH3 0x58 JUMP JUMPDEST PUSH1 0x40 MSTORE JUMP JUMPDEST SWAP1 PUSH3 0xB7 PUSH3 0xAF PUSH1 0x40 MLOAD SWAP1 JUMP JUMPDEST SWAP3 DUP4 PUSH3 0x6F JUMP JUMPDEST JUMP JUMPDEST PUSH1 0x1 PUSH1 0x1 PUSH1 0xA0 SHL SUB AND SWAP1 JUMP JUMPDEST SWAP1 JUMP JUMPDEST PUSH1 0x1 PUSH1 0x1 PUSH1 0xA0 SHL SUB DUP2 AND JUMPDEST EQ ISZERO PUSH3 0x52 JUMPI JUMP JUMPDEST SWAP1 POP MLOAD SWAP1 PUSH3 0xB7 DUP3 PUSH3 0xC8 JUMP JUMPDEST DUP1 PUSH3 0xD3 JUMP JUMPDEST SWAP1 POP MLOAD SWAP1 PUSH3 0xB7 DUP3 PUSH3 0xEB JUMP JUMPDEST SWAP2 SWAP1 PUSH3 0xC5 SWAP1 PUSH1 0x40 DUP5 DUP3 SUB SLT PUSH3 0x12A JUMPI JUMPDEST PUSH3 0x120 DUP2 DUP6 PUSH3 0xDC JUMP JUMPDEST SWAP4 PUSH1 0x20 ADD PUSH3 0xF2 JUMP JUMPDEST PUSH3 0x134 PUSH3 0x52 JUMP JUMPDEST PUSH3 0x114 JUMP JUMPDEST PUSH3 0x15D PUSH3 0xE6A DUP1 CODESIZE SUB DUP1 PUSH3 0x151 DUP2 PUSH3 0xA0 JUMP JUMPDEST SWAP3 DUP4 CODECOPY DUP2 ADD SWAP1 PUSH3 0x101 JUMP JUMPDEST SWAP1 SWAP2 JUMP JUMPDEST PUSH3 0xB9 PUSH3 0xC5 PUSH3 0xC5 SWAP3 SWAP1 JUMP JUMPDEST PUSH3 0xC5 SWAP1 PUSH3 0x161 JUMP JUMPDEST PUSH3 0xC5 SWAP1 PUSH3 0xB9 SWAP1 PUSH1 0x1 PUSH1 0x1 PUSH1 0xA0 SHL SUB AND DUP3 JUMP JUMPDEST PUSH3 0xC5 SWAP1 PUSH3 0x17C JUMP JUMPDEST PUSH3 0xC5 SWAP1 PUSH3 0x192 JUMP JUMPDEST SWAP1 PUSH3 0x1B3 PUSH3 0x253 JUMP JUMPDEST PUSH3 0x1C3 PUSH3 0xB9 PUSH1 0x0 PUSH3 0x171 JUMP JUMPDEST PUSH1 0x1 PUSH1 0x1 PUSH1 0xA0 SHL SUB DUP4 AND EQ PUSH3 0x1EB JUMPI PUSH3 0x1E2 PUSH3 0xB7 SWAP3 PUSH3 0x19D JUMP JUMPDEST PUSH1 0x80 MSTORE PUSH3 0x391 JUMP JUMPDEST POP POP POP PUSH3 0x1F8 PUSH1 0x40 MLOAD SWAP1 JUMP JUMPDEST PUSH4 0xE6C4247B PUSH1 0xE0 SHL DUP2 MSTORE PUSH1 0x4 SWAP1 REVERT JUMPDEST PUSH3 0xC5 PUSH3 0xC5 PUSH3 0xC5 SWAP3 SWAP1 JUMP JUMPDEST PUSH3 0xC5 PUSH1 0x1 PUSH3 0x207 JUMP JUMPDEST SWAP1 PUSH1 0x0 NOT SWAP1 JUMPDEST SWAP2 DUP2 NOT AND SWAP2 AND OR SWAP1 JUMP JUMPDEST SWAP1 PUSH3 0x247 PUSH3 0xC5 PUSH3 0x24F SWAP3 PUSH3 0x207 JUMP JUMPDEST DUP3 SLOAD PUSH3 0x223 JUMP JUMPDEST SWAP1 SSTORE JUMP JUMPDEST PUSH3 0x25D PUSH3 0x273 JUMP JUMPDEST PUSH3 0xB7 PUSH3 0x26B PUSH3 0x217 JUMP JUMPDEST PUSH1 0x2 PUSH3 0x233 JUMP JUMPDEST PUSH3 0xB7 DUP1 CALLER PUSH3 0x2C5 JUMP JUMPDEST SWAP2 PUSH1 0x1 PUSH1 0x1 PUSH1 0xA0 SHL SUB PUSH1 0x8 SWAP3 SWAP1 SWAP3 MUL SWAP2 DUP3 SHL SWAP2 SHL PUSH3 0x229 JUMP JUMPDEST SWAP2 SWAP1 PUSH3 0x2AE PUSH3 0xC5 PUSH3 0x24F SWAP4 PUSH3 0x19D JUMP JUMPDEST SWAP1 DUP4 SLOAD PUSH3 0x27F JUMP JUMPDEST PUSH3 0xB7 SWAP2 PUSH1 0x0 SWAP2 PUSH3 0x299 JUMP JUMPDEST PUSH3 0xB7 SWAP1 PUSH3 0x2D8 PUSH1 0x0 PUSH1 0x1 PUSH3 0x2B7 JUMP JUMPDEST PUSH3 0x321 JUMP JUMPDEST PUSH3 0xC5 SWAP1 PUSH3 0xB9 JUMP JUMPDEST PUSH3 0xC5 SWAP1 SLOAD PUSH3 0x2DE JUMP JUMPDEST SWAP1 PUSH1 0x1 PUSH1 0x1 PUSH1 0xA0 SHL SUB SWAP1 PUSH3 0x229 JUMP JUMPDEST SWAP1 PUSH3 0x319 PUSH3 0xC5 PUSH3 0x24F SWAP3 PUSH3 0x19D JUMP JUMPDEST DUP3 SLOAD PUSH3 0x2F5 JUMP JUMPDEST PUSH3 0x32D PUSH1 0x0 PUSH3 0x2E9 JUMP JUMPDEST SWAP1 PUSH3 0x33B DUP2 PUSH1 0x0 PUSH3 0x305 JUMP JUMPDEST PUSH3 0x372 PUSH3 0x36B PUSH32 0x8BE0079C531659141344CD1FD0A4F28419497F9722A3DAAFE3B4186F6B6457E0 SWAP4 PUSH3 0x19D JUMP JUMPDEST SWAP2 PUSH3 0x19D JUMP JUMPDEST SWAP2 PUSH3 0x37D PUSH1 0x40 MLOAD SWAP1 JUMP JUMPDEST PUSH1 0x0 SWAP1 LOG3 JUMP JUMPDEST PUSH3 0xC5 PUSH3 0x186A0 PUSH3 0x207 JUMP JUMPDEST PUSH3 0x39F PUSH3 0xC5 PUSH3 0x383 JUMP JUMPDEST DUP2 GT PUSH3 0x3F4 JUMPI PUSH3 0x3B3 DUP2 PUSH1 0x3 PUSH3 0x233 JUMP JUMPDEST PUSH3 0x3EF PUSH31 0x172DDFC5AE88D08B3DE01A5A187667C37A5A53989E8C175055CB6C993792A7 SWAP2 PUSH3 0x3E2 PUSH1 0x40 MLOAD SWAP1 JUMP JUMPDEST SWAP2 DUP3 SWAP2 DUP3 SWAP1 DUP2 MSTORE PUSH1 0x20 ADD SWAP1 JUMP JUMPDEST SUB SWAP1 LOG1 JUMP JUMPDEST POP POP PUSH1 0x40 MLOAD PUSH4 0x58D620B3 PUSH1 0xE0 SHL DUP2 MSTORE PUSH1 0x4 SWAP1 REVERT INVALID PUSH1 0x80 PUSH1 0x40 MSTORE PUSH1 0x4 CALLDATASIZE LT ISZERO PUSH2 0x18 JUMPI JUMPDEST PUSH2 0x16 PUSH2 0x26C JUMP JUMPDEST STOP JUMPDEST PUSH1 0x0 CALLDATALOAD PUSH1 0xE0 SHR DUP1 PUSH4 0x4BDAEAC1 EQ PUSH2 0x21F JUMPI DUP1 PUSH4 0x6A1DB1BF EQ PUSH2 0x1F8 JUMPI DUP1 PUSH4 0x715018A6 EQ PUSH2 0x1D1 JUMPI DUP1 PUSH4 0x79BA5097 EQ PUSH2 0x1AA JUMPI DUP1 PUSH4 0x8DA5CB5B EQ PUSH2 0x180 JUMPI DUP1 PUSH4 0xBC063E1A EQ PUSH2 0x156 JUMPI DUP1 PUSH4 0xDDCA3F43 EQ PUSH2 0x11B JUMPI DUP1 PUSH4 0xE30C3978 EQ PUSH2 0xE5 JUMPI DUP1 PUSH4 0xF2FDE38B EQ PUSH2 0xBE JUMPI PUSH4 0xFABED412 EQ PUSH2 0x90 JUMPI PUSH2 0xE JUMP JUMPDEST CALLVALUE PUSH2 0xB1 JUMPI JUMPDEST PUSH2 0x16 PUSH2 0xA4 CALLDATASIZE PUSH1 0x4 PUSH2 0x3F0 JUMP JUMPDEST SWAP4 SWAP3 SWAP1 SWAP3 PUSH2 0x8D0 JUMP JUMPDEST SUB SWAP1 RETURN JUMPDEST PUSH2 0xB9 PUSH2 0x26C JUMP JUMPDEST PUSH2 0x96 JUMP JUMPDEST POP CALLVALUE PUSH2 0xD8 JUMPI JUMPDEST PUSH2 0x16 PUSH2 0xD3 CALLDATASIZE PUSH1 0x4 PUSH2 0x383 JUMP JUMPDEST PUSH2 0x5DF JUMP JUMPDEST PUSH2 0xE0 PUSH2 0x26C JUMP JUMPDEST PUSH2 0xC5 JUMP JUMPDEST POP CALLVALUE PUSH2 0x10E JUMPI JUMPDEST PUSH2 0xF7 CALLDATASIZE PUSH1 0x4 PUSH2 0x272 JUMP JUMPDEST PUSH2 0xAD PUSH2 0x102 PUSH2 0x53D JUMP JUMPDEST PUSH1 0x40 MLOAD SWAP2 DUP3 SWAP2 DUP3 PUSH2 0x31A JUMP JUMPDEST PUSH2 0x116 PUSH2 0x26C JUMP JUMPDEST PUSH2 0xEC JUMP JUMPDEST POP CALLVALUE PUSH2 0x149 JUMPI JUMPDEST PUSH2 0x12D CALLDATASIZE PUSH1 0x4 PUSH2 0x272 JUMP JUMPDEST PUSH2 0xAD PUSH2 0x138 PUSH2 0x361 JUMP JUMPDEST PUSH1 0x40 MLOAD JUMPDEST SWAP2 DUP3 SWAP2 DUP3 SWAP1 DUP2 MSTORE PUSH1 0x20 ADD SWAP1 JUMP JUMPDEST PUSH2 0x151 PUSH2 0x26C JUMP JUMPDEST PUSH2 0x122 JUMP JUMPDEST POP CALLVALUE PUSH2 0x173 JUMPI JUMPDEST PUSH2 0x168 CALLDATASIZE PUSH1 0x4 PUSH2 0x272 JUMP JUMPDEST PUSH2 0xAD PUSH2 0x138 PUSH2 0x343 JUMP JUMPDEST PUSH2 0x17B PUSH2 0x26C JUMP JUMPDEST PUSH2 0x15D JUMP JUMPDEST POP CALLVALUE PUSH2 0x19D JUMPI JUMPDEST PUSH2 0x192 CALLDATASIZE PUSH1 0x4 PUSH2 0x272 JUMP JUMPDEST PUSH2 0xAD PUSH2 0x102 PUSH2 0x472 JUMP JUMPDEST PUSH2 0x1A5 PUSH2 0x26C JUMP JUMPDEST PUSH2 0x187 JUMP JUMPDEST POP CALLVALUE PUSH2 0x1C4 JUMPI JUMPDEST PUSH2 0x1BC CALLDATASIZE PUSH1 0x4 PUSH2 0x272 JUMP JUMPDEST PUSH2 0x16 PUSH2 0x6E3 JUMP JUMPDEST PUSH2 0x1CC PUSH2 0x26C JUMP JUMPDEST PUSH2 0x1B1 JUMP JUMPDEST POP CALLVALUE PUSH2 0x1EB JUMPI JUMPDEST PUSH2 0x1E3 CALLDATASIZE PUSH1 0x4 PUSH2 0x272 JUMP JUMPDEST PUSH2 0x16 PUSH2 0x4B4 JUMP JUMPDEST PUSH2 0x1F3 PUSH2 0x26C JUMP JUMPDEST PUSH2 0x1D8 JUMP JUMPDEST POP CALLVALUE PUSH2 0x212 JUMPI JUMPDEST PUSH2 0x16 PUSH2 0x20D CALLDATASIZE PUSH1 0x4 PUSH2 0x2F0 JUMP JUMPDEST PUSH2 0x9B2 JUMP JUMPDEST PUSH2 0x21A PUSH2 0x26C JUMP JUMPDEST PUSH2 0x1FF JUMP JUMPDEST POP CALLVALUE PUSH2 0x25F JUMPI JUMPDEST PUSH2 0x231 CALLDATASIZE PUSH1 0x4 PUSH2 0x272 JUMP JUMPDEST PUSH1 0x40 MLOAD DUP1 PUSH2 0xAD PUSH32 0x0 DUP3 PUSH2 0x2C9 JUMP JUMPDEST PUSH2 0x267 PUSH2 0x26C JUMP JUMPDEST PUSH2 0x226 JUMP JUMPDEST POP PUSH1 0x0 DUP1 REVERT JUMPDEST PUSH1 0x0 SWAP2 SUB SLT PUSH2 0x27D JUMPI JUMP JUMPDEST PUSH2 0x285 PUSH2 0x26C JUMP JUMPDEST JUMP JUMPDEST PUSH2 0x29B SWAP1 PUSH2 0x29E SWAP1 PUSH1 0x1 PUSH1 0x1 PUSH1 0xA0 SHL SUB AND DUP3 JUMP JUMPDEST SWAP1 JUMP JUMPDEST PUSH1 0x1 PUSH1 0x1 PUSH1 0xA0 SHL SUB AND SWAP1 JUMP JUMPDEST PUSH2 0x29B SWAP1 PUSH2 0x287 JUMP JUMPDEST PUSH2 0x29B SWAP1 PUSH2 0x2AA JUMP JUMPDEST PUSH2 0x2C5 SWAP1 PUSH2 0x2B3 JUMP JUMPDEST SWAP1 MSTORE JUMP JUMPDEST PUSH1 0x20 DUP2 ADD SWAP3 SWAP2 PUSH2 0x285 SWAP2 SWAP1 PUSH2 0x2BC JUMP JUMPDEST DUP1 JUMPDEST EQ ISZERO PUSH2 0x26C JUMPI JUMP JUMPDEST SWAP1 POP CALLDATALOAD SWAP1 PUSH2 0x285 DUP3 PUSH2 0x2D9 JUMP JUMPDEST SWAP1 PUSH2 0x29B SWAP2 PUSH1 0x20 DUP2 DUP4 SUB SLT PUSH2 0x304 JUMPI PUSH2 0x2E3 JUMP JUMPDEST PUSH2 0x30C PUSH2 0x26C JUMP JUMPDEST PUSH2 0x2E3 JUMP JUMPDEST PUSH2 0x2C5 SWAP1 PUSH2 0x29E JUMP JUMPDEST PUSH1 0x20 DUP2 ADD SWAP3 SWAP2 PUSH2 0x285 SWAP2 SWAP1 PUSH2 0x311 JUMP JUMPDEST PUSH2 0x29B PUSH2 0x29B PUSH2 0x29B SWAP3 SWAP1 JUMP JUMPDEST PUSH2 0x29B PUSH3 0x186A0 PUSH2 0x32A JUMP JUMPDEST PUSH2 0x29B PUSH2 0x337 JUMP JUMPDEST PUSH2 0x29B SWAP2 PUSH1 0x8 MUL SHR DUP2 JUMP JUMPDEST SWAP1 PUSH2 0x29B SWAP2 SLOAD PUSH2 0x34B JUMP JUMPDEST PUSH2 0x29B PUSH1 0x0 PUSH1 0x3 PUSH2 0x356 JUMP JUMPDEST PUSH2 0x2DB DUP2 PUSH2 0x29E JUMP JUMPDEST SWAP1 POP CALLDATALOAD SWAP1 PUSH2 0x285 DUP3 PUSH2 0x36D JUMP JUMPDEST SWAP1 PUSH2 0x29B SWAP2 PUSH1 0x20 DUP2 DUP4 SUB SLT PUSH2 0x397 JUMPI PUSH2 0x376 JUMP JUMPDEST PUSH2 0x39F PUSH2 0x26C JUMP JUMPDEST PUSH2 0x376 JUMP JUMPDEST SWAP1 SWAP2 DUP3 PUSH1 0x1F DUP4 ADD SLT ISZERO PUSH2 0x3E3 JUMPI JUMPDEST PUSH1 0x20 DUP3 CALLDATALOAD SWAP3 PUSH8 0xFFFFFFFFFFFFFFFF DUP5 GT PUSH2 0x3D6 JUMPI JUMPDEST ADD SWAP3 PUSH1 0x20 DUP4 MUL DUP5 ADD GT PUSH2 0x27D JUMPI JUMP JUMPDEST PUSH2 0x3DE PUSH2 0x26C JUMP JUMPDEST PUSH2 0x3C7 JUMP JUMPDEST PUSH2 0x3EB PUSH2 0x26C JUMP JUMPDEST PUSH2 0x3B2 JUMP JUMPDEST PUSH1 0x80 DUP2 DUP4 SUB SLT PUSH2 0x452 JUMPI JUMPDEST PUSH2 0x405 DUP3 DUP3 PUSH2 0x376 JUMP JUMPDEST SWAP3 PUSH2 0x441 PUSH2 0x416 DUP5 PUSH1 0x20 DUP6 ADD PUSH2 0x376 JUMP JUMPDEST SWAP4 PUSH2 0x424 DUP2 PUSH1 0x40 DUP7 ADD PUSH2 0x2E3 JUMP JUMPDEST SWAP4 PUSH1 0x60 DUP2 ADD CALLDATALOAD SWAP1 PUSH8 0xFFFFFFFFFFFFFFFF DUP3 GT PUSH2 0x445 JUMPI JUMPDEST ADD PUSH2 0x3A4 JUMP JUMPDEST SWAP1 SWAP2 JUMP JUMPDEST PUSH2 0x44D PUSH2 0x26C JUMP JUMPDEST PUSH2 0x43B JUMP JUMPDEST PUSH2 0x45A PUSH2 0x26C JUMP JUMPDEST PUSH2 0x3FB JUMP JUMPDEST PUSH2 0x29B SWAP1 PUSH2 0x29E JUMP JUMPDEST PUSH2 0x29B SWAP1 SLOAD PUSH2 0x45F JUMP JUMPDEST PUSH2 0x29B PUSH1 0x0 PUSH2 0x468 JUMP JUMPDEST PUSH2 0x484 PUSH2 0x51A JUMP JUMPDEST PUSH2 0x285 PUSH2 0x4A2 JUMP JUMPDEST PUSH2 0x29E PUSH2 0x29B PUSH2 0x29B SWAP3 SWAP1 JUMP JUMPDEST PUSH2 0x29B SWAP1 PUSH2 0x48C JUMP JUMPDEST PUSH2 0x285 PUSH2 0x4AF PUSH1 0x0 PUSH2 0x499 JUMP JUMPDEST PUSH2 0x626 JUMP JUMPDEST PUSH2 0x285 PUSH2 0x47C JUMP JUMPDEST ADD SWAP1 JUMP JUMPDEST PUSH1 0x20 DUP1 DUP3 MSTORE DUP2 DUP2 ADD MSTORE PUSH32 0x4F776E61626C653A2063616C6C6572206973206E6F7420746865206F776E6572 PUSH1 0x40 DUP3 ADD MSTORE PUSH1 0x60 ADD SWAP1 JUMP JUMPDEST ISZERO PUSH2 0x4FC JUMPI JUMP JUMPDEST POP PUSH1 0x40 MLOAD PUSH3 0x461BCD PUSH1 0xE5 SHL DUP2 MSTORE DUP1 PUSH2 0x516 PUSH1 0x4 DUP3 ADD PUSH2 0x4C0 JUMP JUMPDEST SUB SWAP1 REVERT JUMPDEST PUSH2 0x285 PUSH2 0x525 PUSH2 0x472 JUMP JUMPDEST PUSH2 0x537 PUSH2 0x531 CALLER PUSH2 0x29E JUMP JUMPDEST SWAP2 PUSH2 0x29E JUMP JUMPDEST EQ PUSH2 0x4F5 JUMP JUMPDEST PUSH2 0x29B PUSH1 0x1 PUSH2 0x468 JUMP JUMPDEST PUSH2 0x285 SWAP1 PUSH2 0x553 PUSH2 0x51A JUMP JUMPDEST PUSH2 0x588 JUMP JUMPDEST SWAP1 PUSH1 0x1 PUSH1 0x1 PUSH1 0xA0 SHL SUB SWAP1 JUMPDEST SWAP2 DUP2 NOT AND SWAP2 AND OR SWAP1 JUMP JUMPDEST SWAP1 PUSH2 0x57D PUSH2 0x29B PUSH2 0x584 SWAP3 PUSH2 0x2B3 JUMP JUMPDEST DUP3 SLOAD PUSH2 0x558 JUMP JUMPDEST SWAP1 SSTORE JUMP JUMPDEST PUSH2 0x593 DUP2 PUSH1 0x1 PUSH2 0x56D JUMP JUMPDEST PUSH2 0x59B PUSH2 0x472 JUMP JUMPDEST SWAP1 PUSH2 0x5CF PUSH2 0x5C9 PUSH32 0x38D16B8CAC22D99FC7C124B9CD0DE2D3FA1FAEF420BFE791D8C362D765E22700 SWAP4 PUSH2 0x2B3 JUMP JUMPDEST SWAP2 PUSH2 0x2B3 JUMP JUMPDEST SWAP2 PUSH2 0x5D9 PUSH1 0x40 MLOAD SWAP1 JUMP JUMPDEST PUSH1 0x0 SWAP1 LOG3 JUMP JUMPDEST PUSH2 0x285 SWAP1 PUSH2 0x547 JUMP JUMPDEST SWAP2 PUSH1 0x1 PUSH1 0x1 PUSH1 0xA0 SHL SUB PUSH1 0x8 SWAP3 SWAP1 SWAP3 MUL SWAP2 DUP3 SHL SWAP2 SHL PUSH2 0x563 JUMP JUMPDEST SWAP2 SWAP1 PUSH2 0x612 PUSH2 0x29B PUSH2 0x584 SWAP4 PUSH2 0x2B3 JUMP JUMPDEST SWAP1 DUP4 SLOAD PUSH2 0x5E8 JUMP JUMPDEST PUSH2 0x285 SWAP2 PUSH1 0x0 SWAP2 PUSH2 0x601 JUMP JUMPDEST PUSH2 0x285 SWAP1 PUSH2 0x636 PUSH1 0x0 PUSH1 0x1 PUSH2 0x61A JUMP JUMPDEST PUSH2 0x640 PUSH1 0x0 PUSH2 0x468 JUMP JUMPDEST SWAP1 PUSH2 0x64C DUP2 PUSH1 0x0 PUSH2 0x56D JUMP JUMPDEST PUSH2 0x5CF PUSH2 0x5C9 PUSH32 0x8BE0079C531659141344CD1FD0A4F28419497F9722A3DAAFE3B4186F6B6457E0 SWAP4 PUSH2 0x2B3 JUMP JUMPDEST PUSH1 0x20 DUP1 DUP3 MSTORE PUSH1 0x29 SWAP1 DUP3 ADD MSTORE PUSH32 0x4F776E61626C6532537465703A2063616C6C6572206973206E6F742074686520 PUSH1 0x40 DUP3 ADD MSTORE PUSH9 0x3732BB9037BBB732B9 PUSH1 0xB9 SHL PUSH1 0x60 DUP3 ADD MSTORE PUSH1 0x80 ADD SWAP1 JUMP JUMPDEST ISZERO PUSH2 0x6C9 JUMPI JUMP JUMPDEST POP PUSH1 0x40 MLOAD PUSH3 0x461BCD PUSH1 0xE5 SHL DUP2 MSTORE DUP1 PUSH2 0x516 PUSH1 0x4 DUP3 ADD PUSH2 0x679 JUMP JUMPDEST PUSH2 0x285 CALLER PUSH2 0x4AF PUSH2 0x6F2 PUSH2 0x53D JUMP JUMPDEST PUSH2 0x6FE PUSH2 0x531 DUP5 PUSH2 0x29E JUMP JUMPDEST EQ PUSH2 0x6C2 JUMP JUMPDEST SWAP1 PUSH2 0x719 SWAP5 SWAP4 SWAP3 SWAP2 PUSH2 0x714 PUSH2 0x960 JUMP JUMPDEST PUSH2 0x81F JUMP JUMPDEST PUSH2 0x285 PUSH2 0x992 JUMP JUMPDEST PUSH2 0x29B SWAP1 DUP2 JUMP JUMPDEST PUSH2 0x29B SWAP1 SLOAD PUSH2 0x721 JUMP JUMPDEST POP PUSH4 0x4E487B71 PUSH1 0xE0 SHL PUSH1 0x0 MSTORE PUSH1 0x41 PUSH1 0x4 MSTORE PUSH1 0x24 PUSH1 0x0 REVERT JUMPDEST SWAP1 PUSH1 0x1F ADD PUSH1 0x1F NOT AND DUP2 ADD SWAP1 DUP2 LT PUSH8 0xFFFFFFFFFFFFFFFF DUP3 GT OR PUSH2 0x76B JUMPI PUSH1 0x40 MSTORE JUMP JUMPDEST PUSH2 0x773 PUSH2 0x732 JUMP JUMPDEST PUSH1 0x40 MSTORE JUMP JUMPDEST SWAP1 DUP3 PUSH1 0x0 SWAP4 SWAP3 DUP3 CALLDATACOPY ADD MSTORE JUMP JUMPDEST DUP2 DUP4 MSTORE PUSH1 0x20 SWAP3 PUSH2 0x4BC SWAP2 SWAP1 DUP5 ADD SWAP4 DUP5 SWAP4 PUSH1 0x1 PUSH1 0x1 PUSH1 0xFB SHL SUB DUP2 GT PUSH2 0x7AC JUMPI JUMPDEST MUL SWAP4 DUP5 SWAP2 PUSH2 0x778 JUMP JUMPDEST PUSH2 0x7B4 PUSH2 0x26C JUMP JUMPDEST PUSH2 0x7A3 JUMP JUMPDEST SWAP3 SWAP1 PUSH2 0x285 SWAP7 SWAP9 SWAP8 SWAP6 PUSH1 0xA0 SWAP6 PUSH2 0x7F6 PUSH2 0x803 SWAP5 PUSH2 0x7EF PUSH2 0x80B SWAP8 PUSH2 0x7E5 PUSH1 0xC0 DUP12 ADD SWAP8 PUSH1 0x0 DUP13 ADD SWAP1 PUSH2 0x311 JUMP JUMPDEST PUSH1 0x20 DUP11 ADD SWAP1 PUSH2 0x311 JUMP JUMPDEST PUSH1 0x40 DUP9 ADD MSTORE JUMP JUMPDEST DUP6 DUP4 SUB PUSH1 0x60 DUP8 ADD MSTORE PUSH2 0x784 JUMP JUMPDEST SWAP7 PUSH1 0x80 DUP4 ADD MSTORE JUMP JUMPDEST ADD SWAP1 PUSH2 0x311 JUMP JUMPDEST POP PUSH1 0x40 MLOAD RETURNDATASIZE PUSH1 0x0 DUP3 RETURNDATACOPY RETURNDATASIZE SWAP1 REVERT JUMPDEST SWAP2 PUSH1 0x0 DUP1 SWAP5 PUSH2 0x88D DUP5 PUSH2 0x882 SWAP5 SWAP9 SWAP6 SWAP9 PUSH2 0x858 PUSH32 0x0 PUSH2 0x2B3 JUMP JUMPDEST SWAP7 PUSH4 0x48A61FF5 SWAP5 PUSH2 0x869 PUSH1 0x3 PUSH2 0x728 JUMP JUMPDEST SWAP3 DUP10 EXTCODESIZE ISZERO PUSH2 0x8C3 JUMPI JUMPDEST PUSH1 0x40 MLOAD SWAP13 DUP14 SWAP12 DUP13 SWAP11 DUP12 SWAP10 PUSH1 0xE0 SHL SWAP1 JUMP JUMPDEST DUP10 MSTORE PUSH1 0x4 DUP10 ADD PUSH2 0x7B9 JUMP JUMPDEST SUB SWAP3 GAS CALL DUP1 ISZERO PUSH2 0x8B6 JUMPI JUMPDEST PUSH2 0x89F JUMPI POP JUMP JUMPDEST PUSH2 0x285 SWAP1 PUSH2 0x8AD RETURNDATASIZE DUP3 PUSH2 0x749 JUMP JUMPDEST RETURNDATASIZE DUP2 ADD SWAP1 PUSH2 0x272 JUMP JUMPDEST PUSH2 0x8BE PUSH2 0x812 JUMP JUMPDEST PUSH2 0x898 JUMP JUMPDEST PUSH2 0x8CB PUSH2 0x26C JUMP JUMPDEST PUSH2 0x872 JUMP JUMPDEST SWAP1 PUSH2 0x285 SWAP5 SWAP4 SWAP3 SWAP2 PUSH2 0x704 JUMP JUMPDEST PUSH2 0x29B PUSH1 0x2 PUSH2 0x32A JUMP JUMPDEST PUSH1 0x20 DUP1 DUP3 MSTORE PUSH1 0x1F SWAP1 DUP3 ADD MSTORE PUSH32 0x5265656E7472616E637947756172643A207265656E7472616E742063616C6C00 PUSH1 0x40 DUP3 ADD MSTORE PUSH1 0x60 ADD SWAP1 JUMP JUMPDEST ISZERO PUSH2 0x925 JUMPI JUMP JUMPDEST POP PUSH1 0x40 MLOAD PUSH3 0x461BCD PUSH1 0xE5 SHL DUP2 MSTORE DUP1 PUSH2 0x516 PUSH1 0x4 DUP3 ADD PUSH2 0x8E7 JUMP JUMPDEST SWAP1 PUSH1 0x0 NOT SWAP1 PUSH2 0x563 JUMP JUMPDEST SWAP1 PUSH2 0x959 PUSH2 0x29B PUSH2 0x584 SWAP3 PUSH2 0x32A JUMP JUMPDEST DUP3 SLOAD PUSH2 0x93F JUMP JUMPDEST PUSH2 0x285 PUSH2 0x96D PUSH1 0x2 PUSH2 0x728 JUMP JUMPDEST PUSH2 0x981 PUSH2 0x978 PUSH2 0x8DD JUMP JUMPDEST SWAP2 DUP3 EQ ISZERO PUSH2 0x91E JUMP JUMPDEST PUSH1 0x2 PUSH2 0x949 JUMP JUMPDEST PUSH2 0x29B PUSH1 0x1 PUSH2 0x32A JUMP JUMPDEST PUSH2 0x285 PUSH2 0x981 PUSH2 0x988 JUMP JUMPDEST PUSH2 0x285 SWAP1 PUSH2 0x9A9 PUSH2 0x51A JUMP JUMPDEST PUSH2 0x285 SWAP1 PUSH2 0x9BB JUMP JUMPDEST PUSH2 0x285 SWAP1 PUSH2 0x99D JUMP JUMPDEST PUSH2 0x9C6 PUSH2 0x29B PUSH2 0x337 JUMP JUMPDEST DUP2 GT PUSH2 0xA09 JUMPI PUSH2 0x9D7 DUP2 PUSH1 0x3 PUSH2 0x949 JUMP JUMPDEST PUSH2 0xA04 PUSH31 0x172DDFC5AE88D08B3DE01A5A187667C37A5A53989E8C175055CB6C993792A7 SWAP2 PUSH2 0x13C PUSH1 0x40 MLOAD SWAP1 JUMP JUMPDEST SUB SWAP1 LOG1 JUMP JUMPDEST POP POP PUSH1 0x40 MLOAD PUSH4 0x58D620B3 PUSH1 0xE0 SHL DUP2 MSTORE PUSH1 0x4 SWAP1 REVERT INVALID LOG3 PUSH5 0x6970667358 0x22 SLT KECCAK256 PUSH25 0x78EBDF1A1E3CBDB95FD88252CCDD98FA84FD7F76BE2977A4B4 0xD8 0xE0 JUMP 0xCA 0xAD 0xE1 PUSH13 0x6578706572696D656E74616CF5 PUSH5 0x736F6C6343 STOP ADDMOD 0xC STOP COINBASE "},"methodIdentifiers":{"MAX_FEE()":"bc063e1a","acceptOwnership()":"79ba5097","changeFee(uint256)":"6a1db1bf","claim(address,address,uint256,bytes32[])":"fabed412","fee()":"ddca3f43","harvester()":"4bdaeac1","owner()":"8da5cb5b","pendingOwner()":"e30c3978","renounceOwnership()":"715018a6","transferOwnership(address)":"f2fde38b"}}}}}