{"contracts/RewardSwapper.sol":{"RewardSwapper":{"abi":[{"inputs":[{"internalType":"address","name":"_rewardDistributor","type":"address"},{"internalType":"address","name":"_rewardHarvester","type":"address"},{"internalType":"address","name":"_operator","type":"address"}],"stateMutability":"nonpayable","type":"constructor"},{"inputs":[],"name":"DeadlineBreach","type":"error"},{"inputs":[],"name":"ExchangeDataArrayMismatch","type":"error"},{"inputs":[],"name":"ExternalCallFailure","type":"error"},{"inputs":[],"name":"InsufficientReturn","type":"error"},{"inputs":[],"name":"InvalidAddress","type":"error"},{"inputs":[],"name":"InvalidArray","type":"error"},{"inputs":[],"name":"NotAuthorized","type":"error"},{"inputs":[],"name":"TransferFromCall","type":"error"},{"inputs":[],"name":"ZeroExpectedReturns","type":"error"},{"anonymous":false,"inputs":[{"indexed":true,"internalType":"address","name":"token","type":"address"},{"indexed":false,"internalType":"uint256","name":"totalAmount","type":"uint256"}],"name":"BribeTransferred","type":"event"},{"anonymous":false,"inputs":[{"indexed":true,"internalType":"address","name":"previousOwner","type":"address"},{"indexed":true,"internalType":"address","name":"newOwner","type":"address"}],"name":"OwnershipTransferStarted","type":"event"},{"anonymous":false,"inputs":[{"indexed":true,"internalType":"address","name":"previousOwner","type":"address"},{"indexed":true,"internalType":"address","name":"newOwner","type":"address"}],"name":"OwnershipTransferred","type":"event"},{"anonymous":false,"inputs":[{"indexed":true,"internalType":"address","name":"operator","type":"address"}],"name":"SetOperator","type":"event"},{"anonymous":false,"inputs":[{"indexed":true,"internalType":"address","name":"rewardDistributor","type":"address"}],"name":"SetRewardDistributor","type":"event"},{"anonymous":false,"inputs":[{"indexed":true,"internalType":"address","name":"rewardHarvester","type":"address"}],"name":"SetRewardHarvester","type":"event"},{"inputs":[],"name":"acceptOwnership","outputs":[],"stateMutability":"nonpayable","type":"function"},{"inputs":[{"internalType":"address","name":"_operator","type":"address"}],"name":"changeOperator","outputs":[],"stateMutability":"nonpayable","type":"function"},{"inputs":[{"internalType":"address","name":"_distributor","type":"address"}],"name":"changeRewardDistributor","outputs":[],"stateMutability":"nonpayable","type":"function"},{"inputs":[{"internalType":"address","name":"_harvester","type":"address"}],"name":"changeRewardHarvester","outputs":[],"stateMutability":"nonpayable","type":"function"},{"inputs":[{"components":[{"internalType":"bytes32","name":"rwIdentifier","type":"bytes32"},{"internalType":"address","name":"fromToken","type":"address"},{"internalType":"address","name":"toToken","type":"address"},{"internalType":"uint256","name":"fromAmount","type":"uint256"},{"internalType":"uint256","name":"toAmount","type":"uint256"},{"internalType":"uint256","name":"deadline","type":"uint256"},{"internalType":"address[]","name":"callees","type":"address[]"},{"internalType":"uint256[]","name":"callLengths","type":"uint256[]"},{"internalType":"uint256[]","name":"values","type":"uint256[]"},{"internalType":"bytes","name":"exchangeData","type":"bytes"},{"internalType":"bytes32[]","name":"rwMerkleProof","type":"bytes32[]"}],"internalType":"struct Common.ClaimAndSwapData[]","name":"_claimSwapData","type":"tuple[]"}],"name":"claimSwapAndDepositReward","outputs":[],"stateMutability":"nonpayable","type":"function"},{"inputs":[],"name":"operator","outputs":[{"internalType":"address","name":"","type":"address"}],"stateMutability":"view","type":"function"},{"inputs":[],"name":"owner","outputs":[{"internalType":"address","name":"","type":"address"}],"stateMutability":"view","type":"function"},{"inputs":[],"name":"pendingOwner","outputs":[{"internalType":"address","name":"","type":"address"}],"stateMutability":"view","type":"function"},{"inputs":[],"name":"renounceOwnership","outputs":[],"stateMutability":"nonpayable","type":"function"},{"inputs":[],"name":"rewardDistributor","outputs":[{"internalType":"contract IRewardDistributor","name":"","type":"address"}],"stateMutability":"view","type":"function"},{"inputs":[],"name":"rewardHarvester","outputs":[{"internalType":"contract IRewardHarvester","name":"","type":"address"}],"stateMutability":"view","type":"function"},{"inputs":[{"internalType":"address","name":"newOwner","type":"address"}],"name":"transferOwnership","outputs":[],"stateMutability":"nonpayable","type":"function"}],"evm":{"bytecode":{"linkReferences":{},"object":"60806040523462000032575b620000206200001962000122565b916200014a565b604051611dea6200041a8239611dea90f35b6200003c62000042565b6200000b565b50600080fd5b50634e487b7160e01b600052604160045260246000fd5b90601f01601f191681019081106001600160401b038211176200008157604052565b6200008b62000048565b604052565b90620000a76200009f60405190565b92836200005f565b565b6001600160a01b031690565b90565b6001600160a01b03811614156200004257565b90505190620000a782620000b8565b909160608284031262000112575b620000b5620000f88484620000cb565b93620001088160208601620000cb565b93604001620000cb565b6200011c62000042565b620000e8565b620001456200220480380380620001398162000090565b928339810190620000da565b909192565b620000a79291620001696200016f926200016362000175565b620003b6565b62000353565b620002d5565b620000a78033620001fc565b916001600160a01b0360089290920291821b911b5b9181191691161790565b620000b590620000a9906001600160a01b031682565b620000b590620001a0565b620000b590620001b6565b9190620001e1620000b5620001ea93620001c1565b90835462000181565b9055565b620000a791600091620001cc565b620000a7906200020f60006001620001ee565b62000258565b620000b590620000a9565b620000b5905462000215565b906001600160a01b039062000196565b9062000250620000b5620001ea92620001c1565b82546200022c565b62000264600062000220565b90620002728160006200023c565b620002a9620002a27f8be0079c531659141344cd1fd0a4f28419497f9722a3daafe3b4186f6b6457e093620001c1565b91620001c1565b91620002b460405190565b600090a3565b620000a9620000b5620000b59290565b620000b590620002ba565b620002e5620000a96000620002ca565b6001600160a01b038216146200033f57620003028160046200023c565b6200032e7fdbebfba65bd6398fb722063efc10c99f624f9cd8ba657201056af918a676d5ee91620001c1565b906200033960405190565b600090a2565b505060405163e6c4247b60e01b8152600490fd5b62000363620000a96000620002ca565b6001600160a01b038216146200033f576200038a6200038282620001c1565b60036200023c565b6200032e7f04c6985b6bcdff2e07f21d65fe227c4afaa9769e02b23c2a32c0e8a66fc707f891620001c1565b620003c6620000a96000620002ca565b6001600160a01b038216146200033f57620003ed620003e582620001c1565b60026200023c565b6200032e7f07011b0b15512f533140457fca55819676a0497d4afe5c3d7a3524d951a0c4c891620001c156fe60806040526004361015610018575b6100166102b2565b005b60003560e01c806227edb11461028a57806306394c9b1461026357806328f59f051461023c578063570ca73514610212578063715018a6146101eb57806379ba5097146101c45780638da5cb5b1461019a578063a10843ec14610173578063acc2166a14610149578063b966b68314610113578063e30c3978146100cf5763f2fde38b146100a55761000e565b346100c2575b6100166100b9366004610384565b6105b8565b0390f35b6100ca6102b2565b6100ab565b5034610106575b6100e13660046103a5565b6100be6100ec610516565b604051918291826001600160a01b03909116815260200190565b61010e6102b2565b6100d6565b503461013c575b6101253660046103a5565b6100be61013061042a565b6040519182918261041a565b6101446102b2565b61011a565b5034610166575b61015b3660046103a5565b6100be6101306103df565b61016e6102b2565b610150565b503461018d575b610016610188366004610384565b611896565b6101956102b2565b61017a565b50346101b7575b6101ac3660046103a5565b6100be6100ec610449565b6101bf6102b2565b6101a1565b50346101de575b6101d63660046103a5565b6100166106b1565b6101e66102b2565b6101cb565b5034610205575b6101fd3660046103a5565b61001661048b565b61020d6102b2565b6101f2565b503461022f575b6102243660046103a5565b6100be6100ec6103cf565b6102376102b2565b610219565b5034610256575b610016610251366004610384565b6118b4565b61025e6102b2565b610243565b503461027d575b610016610278366004610384565b611878565b6102856102b2565b61026a565b50346102a5575b61001661029f36600461030e565b90611353565b6102ad6102b2565b610291565b50600080fd5b909182601f83011215610301575b602082359267ffffffffffffffff84116102f4575b0192602083028401116102ea57565b6102f26102b2565b565b6102fc6102b2565b6102db565b6103096102b2565b6102c6565b9061033791602081830312610348575b80359067ffffffffffffffff821161033b575b016102b8565b9091565b6103436102b2565b610331565b6103506102b2565b61031e565b6001600160a01b031690565b90565b6001600160a01b0381165b14156102b257565b905035906102f282610364565b906103619160208183031261039857610377565b6103a06102b2565b610377565b60009103126102ea57565b610361916008021c6001600160a01b031690565b9061036191546103b0565b610361600060046103c4565b9052565b610361600060026103c4565b61036190610355906001600160a01b031682565b610361906103eb565b610361906103ff565b6103db90610408565b6020810192916102f29190610411565b610361600060036103c4565b61036190610355565b6103619054610436565b610361600061043f565b61045b6104ec565b6102f2610479565b6103556103616103619290565b61036190610463565b6102f26104866000610470565b6105ff565b6102f2610453565b0190565b1561049e57565b5060405162461bcd60e51b8152806104e8600482016020808252818101527f4f776e61626c653a2063616c6c6572206973206e6f7420746865206f776e6572604082015260600190565b0390fd5b6102f26104f7610449565b61051061050333610355565b916001600160a01b031690565b14610497565b610361600161043f565b6102f29061052c6104ec565b610561565b906001600160a01b03905b9181191691161790565b9061055661036161055d92610408565b8254610531565b9055565b61056c816001610546565b610574610449565b906105a86105a27f38d16b8cac22d99fc7c124b9cd0de2d3fa1faef420bfe791d8c362d765e2270093610408565b91610408565b916105b260405190565b600090a3565b6102f290610520565b916001600160a01b0360089290920291821b911b61053c565b91906105eb61036161055d93610408565b9083546105c1565b6102f2916000916105da565b6102f29061060f600060016105f3565b610619600061043f565b90610625816000610546565b6105a86105a27f8be0079c531659141344cd1fd0a4f28419497f9722a3daafe3b4186f6b6457e093610408565b1561065957565b5060405162461bcd60e51b815260206004820152602960248201527f4f776e61626c6532537465703a2063616c6c6572206973206e6f7420746865206044820152683732bb9037bbb732b960b91b6064820152608490fd5b6102f2336104866106c0610516565b6106d26001600160a01b038416610503565b14610652565b90336106ea610503610355600461043f565b14156106f9576102f291610eaa565b50505061070560405190565b63ea8e4eb560e01b8152600490fd5b6103616103616103619290565b601f01601f191690565b50634e487b7160e01b600052604160045260246000fd5b90601f01601f1916810190811067ffffffffffffffff82111761076457604052565b61076c61072b565b604052565b905051906102f282610364565b906103619160208183031261079257610771565b61079a6102b2565b610771565b506040513d6000823e3d90fd5b8061036f565b905051906102f2826107ac565b90610361916020818303126107d3576107b2565b6107db6102b2565b6107b2565b906102f26107ed60405190565b9283610742565b6020809167ffffffffffffffff811161080c57020190565b61081461072b565b020190565b9061082b610826836107f4565b6107e0565b918252565b61036160806107e0565b610842610830565b600080825260208201819052604082015260608082015290565b61036161083a565b60005b82811061087357505050565b60209061087e61085c565b8184015201610867565b906102f261089e61089884610819565b936107f4565b601f190160208401610864565b50634e487b7160e01b600052603260045260246000fd5b90359061015e1936829003018212156108d9570190565b6104936102b2565b90610361926020918110156108fa575b028101906108c2565b6109026108ab565b6108f1565b35610361816107ac565b906020809161091e845190565b81101561092c575b02010190565b6109346108ab565b610926565b903590601e19368290030182121561097f575b01602081359167ffffffffffffffff8311610972575b019160208202360383136102ea57565b61097a6102b2565b610962565b6109876102b2565b61094c565b905035906102f2826107ac565b909291926109a9610826826107f4565b93818552602080860192028301928184116109e7575b915b8383106109ce5750505050565b602080916109dc848661098c565b8152019201916109c1565b6109ef6102b2565b6109bf565b610361913691610999565b90610a1f610a18610a0e845190565b8084529260200190565b9260200190565b9060005b818110610a305750505090565b909192610a4d610a466001928651815260200190565b9460200190565b929101610a23565b805182526020808201516001600160a01b031690830152610361916080810191606090610a8760408201516040850152565b01519060608184039101526109ff565b9061036191610a55565b90610ab7610aad835190565b8083529160200190565b9081610ac96020830284019460200190565b926000915b838310610add57505050505090565b90919293946020610b00610af983856001950387528951610a97565b9760200190565b9301930191939290610ace565b602080825261036192910190610aa1565b90929192610b2e610826826107f4565b9381855260208086019202830192818411610b6c575b915b838310610b535750505050565b60208091610b618486610377565b815201920191610b46565b610b746102b2565b610b44565b906103619181601f82011215610b95575b602081359101610b1e565b610b9d6102b2565b610b8a565b90929192610bb2610826826107f4565b9381855260208086019202830192818411610bf0575b915b838310610bd75750505050565b60208091610be5848661098c565b815201920191610bca565b610bf86102b2565b610bc8565b906103619181601f82011215610c19575b602081359101610ba2565b610c216102b2565b610c0e565b61049360209167ffffffffffffffff8111610c4557601f01601f191690565b61072161072b565b90826000939282370152565b9291906102f291610c6c61082683610c26565b94828652602086019183820111610c8257610c4d565b610c8a6102b2565b610c4d565b906103619181601f82011215610cab575b602081359101610c59565b610cb36102b2565b610ca0565b906103619181601f82011215610cd4575b602081359101610999565b610cdc6102b2565b610cc9565b9190610e1d9061016084820312610e59575b610cfe6101606107e0565b936000610d0b838361098c565b908601526020610d1d83828401610377565b908601526040610d2f83828401610377565b908601526060610d418382840161098c565b908601526080610d538382840161098c565b9086015260a0610d658382840161098c565b90860152610d898260c083013567ffffffffffffffff8111610e4c575b8301610b79565b60c0860152610dae8260e083013567ffffffffffffffff8111610e3f575b8301610bfd565b60e0860152610dd38261010083013567ffffffffffffffff8111610e3f578301610bfd565b610100860152610dfa8261012083013567ffffffffffffffff8111610e32575b8301610c8f565b6101208601526101408101359067ffffffffffffffff8211610e25575b01610cb8565b610140830152565b610e2d6102b2565b610e17565b610e3a6102b2565b610df3565b610e476102b2565b610da7565b610e546102b2565b610d82565b610e616102b2565b610cf3565b610361903690610ce1565b50634e487b7160e01b600052601160045260246000fd5b90610e92565b9190565b90818110610e9e570390565b610ea6610e71565b0390565b90919060009083610eba83610714565b811461133657610f11610ef26020610eda610ed5600361043f565b610408565b6374c13fda90610ee960405190565b93849260e01b90565b825260049082905afa908115611329575b60009161130b575b50610408565b92610f1b84610408565b916370a0823195610f2b30610408565b93610f3560405190565b96610f408960e01b90565b88526001600160a01b0386166004890152602088602481855afa9788156112fe575b6000986112e7575b50610f7484610888565b976000998a5b8c8782101561103557908b6110288260606110208f8f8f8983610fe961100d946020610fd96110309f8e610fd4898f9a610fc490610fbe6110189f8e9788916108e1565b01610907565b90610fcf8585610911565b510152565b610911565b5101906001600160a01b03169052565b6110088a6040610fcf866110028c610fbe838a8a6108e1565b93610911565b6108e1565b610140810190610939565b939095610911565b5101926109f4565b905260010190565b610f7a565b5050919397989961108187611097939598979c611055610ed5600261043f565b611076836356853398833b156112da575b6040519687958694859360e01b90565b835260048301610b0d565b03925af180156112cd575b6112b9575b5090505b895b8110156110cf576110c8816110c16110bc6110b78f95611097968f6108e1565b610e66565b6119f9565b5060010190565b9050611095565b5090919396506111ae959850611125929497506110f56110ee60405190565b9160e01b90565b81526001600160a01b03881660048201526020816024818a5afa9081156112ac575b600091611297575b50610e88565b94602061114e63dd62ed3e61116d611140610ed5600361043f565b604051958694859460e01b90565b84526001600160a01b0390811660048501521660248301526044820190565b0381885afa90811561128a575b60009161126c575b50851161124d575b50611198610ed5600361043f565b631e2720ff90803b15611240575b604051610ee9565b825260048201869052602490829084905af18015611233575b611216575b506112116111fa7ff1fa0256e6ecba08316eb890d662830768e73136b5b0dbea4c9c8c16ca1747eb92610408565b9261120460405190565b9182918290815260200190565b0390a2565b61122d906112243d82610742565b3d8101906103a5565b386111cc565b61123b61079f565b6111c7565b6112486102b2565b6111a6565b6112669061125e610ed5600361043f565b83199161140c565b3861118a565b611284915061127b3d82610742565b3d8101906107bf565b38611182565b61129261079f565b61117a565b6112a6915061127b3d82610742565b3861111f565b6112b461079f565b611117565b6112c7906112243d82610742565b38611091565b6112d561079f565b61108c565b6112e26102b2565b611066565b6112f791985061127b3d82610742565b9638610f6a565b61130661079f565b610f62565b611323915061131a3d82610742565b3d81019061077e565b38610f0b565b61133161079f565b610f03565b505050505061134460405190565b631ec5aa5160e01b8152600490fd5b906102f2916106d8565b1561136457565b5060405162461bcd60e51b815260206004820152603660248201527f5361666545524332303a20617070726f76652066726f6d206e6f6e2d7a65726f60448201527520746f206e6f6e2d7a65726f20616c6c6f77616e636560501b6064820152608490fd5b6113e26113dc6103619263ffffffff1690565b60e01b90565b6001600160e01b03191690565b6001600160a01b0390911681526040810192916102f29160200152565b61146f6004926114606102f29561143960008461142882610714565b8414918215611474575b505061135d565b61144663095ea7b36113c9565b9261145060405190565b96879460208601908152016113ef565b60208201810382520383610742565b6115e1565b909150602061148289610408565b63dd62ed3e9061114e61149430610408565b926114ae6114a160405190565b9788958694859460e01b90565b03915afa9182156114f6575b6000926114d7575b50610e8e6114cf91610714565b148438611432565b6114cf9192506114ee610e8e9161127b3d82610742565b9291506114c2565b6114fe61079f565b6114ba565b9061082b61082683610c26565b61151a6020611503565b7f5361666545524332303a206c6f772d6c6576656c2063616c6c206661696c6564602082015290565b610361611510565b80151561036f565b905051906102f28261154b565b906103619160208183031261157457611553565b61157c6102b2565b611553565b1561158857565b5060405162461bcd60e51b815260206004820152602a60248201527f5361666545524332303a204552433230206f7065726174696f6e20646964206e6044820152691bdd081cdd58d8d9595960b21b6064820152608490fd5b6102f2916115f161160092610408565b906115fa611543565b9161163e565b805161160f610e8e6000610714565b1490811561161e575b50611581565b6116389150602061162d825190565b818301019101611560565b38611618565b610361929161164d6000610714565b916116ce565b1561165a57565b5060405162461bcd60e51b815260206004820152602660248201527f416464726573733a20696e73756666696369656e742062616c616e636520666f6044820152651c8818d85b1b60d21b6064820152608490fd5b3d156116c9576116be3d611503565b903d6000602084013e565b606090565b906000610361949381926116e0606090565b506116f76116ed30610408565b8390311015611653565b60208101905191855af16117096116af565b9161175c565b1561171657565b5060405162461bcd60e51b815260206004820152601d60248201527f416464726573733a2063616c6c20746f206e6f6e2d636f6e74726163740000006044820152606490fd5b9192606091156117915750508151611777610e8e6000610714565b14611780575090565b61178c6103619161179e565b61170f565b9093926102f29250611820565b3b6117ac610e8e6000610714565b1190565b918091926000905b8282106117d05750116117c9575050565b6000910152565b915080602091830151818601520182916117b8565b611806610721602093610493936117fa815190565b80835293849260200190565b958691016117b0565b6020808252610361929101906117e5565b915061182a825190565b611837610e8e6000610714565b11156118465750805190602001fd5b6040516104e8925062461bcd60e51b81529182916004830161180f565b6102f29061186f6104ec565b6102f2906118bd565b6102f290611863565b6102f29061188d6104ec565b6102f290611933565b6102f290611881565b6102f2906118ab6104ec565b6102f29061198c565b6102f29061189f565b6118ca6103556000610470565b6001600160a01b0382161461191f576118e4816004610546565b61190e7fdbebfba65bd6398fb722063efc10c99f624f9cd8ba657201056af918a676d5ee91610408565b9061191860405190565b8080611211565b505060405163e6c4247b60e01b8152600490fd5b6119406103556000610470565b6001600160a01b0382161461191f5761196261195b82610408565b6003610546565b61190e7f04c6985b6bcdff2e07f21d65fe227c4afaa9769e02b23c2a32c0e8a66fc707f891610408565b6119996103556000610470565b6001600160a01b0382161461191f576119bb6119b482610408565b6002610546565b61190e7f07011b0b15512f533140457fca55819676a0497d4afe5c3d7a3524d951a0c4c891610408565b811981116119f1570190565b610493610e71565b60c0810180515160009392909160e0820192611a1a610e8e61036186515190565b1480611d61575b155b611d445760a08201514211611d27576080820193611a3f855190565b600090611a4e610e8e83610714565b14611d085761012084015191611a6384515190565b96611a6d83610714565b8814611cf6576323b872dd60e01b926040870190611a96610ed58084516001600160a01b031690565b916370a0823190611aa630610408565b926020611ab260405190565b8096611abe8660e01b90565b82526001600160a01b038716600483015260249082905afa948515611ce9575b600095611cca575b509b611afb611af6829f9e610714565b9d9190565b811015611bee57611b1160208e018a01516113e2565b6001600160e01b0319898116911614611bc857611b7a611b768a8f8f908f918f611b6588611b69611b6582610100611b5d611b5083611b709951610911565b516001600160a01b031690565b990151610911565b5190565b9351610911565b92611d89565b1590565b611ba2578d9c818d5190611b8d91610911565b51611b97916119e5565b90600101909c611afb565b5050505050505050505050505050611bb960405190565b639db50ff160e01b8152600490fd5b5050505050505050505050505050611bdf60405190565b6399df362b60e01b8152600490fd5b50909550611c4e9b50611c37949a50611c20939950610ed592985060209750610ed5919650516001600160a01b031690565b91611c2a60405190565b9889948593849360e01b90565b83526001600160a01b031660048301526024820190565b03915afa938415611cbd575b600094611c96575b50610e8e610361611c76611c7b9387610e88565b935190565b10611c8257565b50506040516308c613a960e41b8152600490fd5b611c7b919450610361611c76611cb3610e8e9361127b3d82610742565b9693505050611c62565b611cc561079f565b611c5a565b611afb919550611ce1611af69161127b3d82610742565b959150611ae6565b611cf161079f565b611ade565b50505050505050505061134460405190565b50505050505050611d1860405190565b637817658f60e11b8152600490fd5b5050505050611d3560405190565b63096e447160e21b8152600490fd5b5050505050611d5260405190565b637f53694f60e11b8152600490fd5b50611a23611d6e82515190565b611d81610e8e6103616101008701515190565b149050611a21565b906000949392611d97600090565b506020604051950101915af19056fea36469706673582212209d24f7a63290f453fed126fadc6d6b5a55c957de75ea6892b3b2bae17adef79c6c6578706572696d656e74616cf564736f6c634300080c0041","opcodes":"PUSH1 0x80 PUSH1 0x40 MSTORE CALLVALUE PUSH3 0x32 JUMPI JUMPDEST PUSH3 0x20 PUSH3 0x19 PUSH3 0x122 JUMP JUMPDEST SWAP2 PUSH3 0x14A JUMP JUMPDEST PUSH1 0x40 MLOAD PUSH2 0x1DEA PUSH3 0x41A DUP3 CODECOPY PUSH2 0x1DEA SWAP1 RETURN JUMPDEST PUSH3 0x3C PUSH3 0x42 JUMP JUMPDEST PUSH3 0xB JUMP JUMPDEST POP PUSH1 0x0 DUP1 REVERT JUMPDEST POP PUSH4 0x4E487B71 PUSH1 0xE0 SHL PUSH1 0x0 MSTORE PUSH1 0x41 PUSH1 0x4 MSTORE PUSH1 0x24 PUSH1 0x0 REVERT JUMPDEST SWAP1 PUSH1 0x1F ADD PUSH1 0x1F NOT AND DUP2 ADD SWAP1 DUP2 LT PUSH1 0x1 PUSH1 0x1 PUSH1 0x40 SHL SUB DUP3 GT OR PUSH3 0x81 JUMPI PUSH1 0x40 MSTORE JUMP JUMPDEST PUSH3 0x8B PUSH3 0x48 JUMP JUMPDEST PUSH1 0x40 MSTORE JUMP JUMPDEST SWAP1 PUSH3 0xA7 PUSH3 0x9F PUSH1 0x40 MLOAD SWAP1 JUMP JUMPDEST SWAP3 DUP4 PUSH3 0x5F JUMP JUMPDEST JUMP JUMPDEST PUSH1 0x1 PUSH1 0x1 PUSH1 0xA0 SHL SUB AND SWAP1 JUMP JUMPDEST SWAP1 JUMP JUMPDEST PUSH1 0x1 PUSH1 0x1 PUSH1 0xA0 SHL SUB DUP2 AND EQ ISZERO PUSH3 0x42 JUMPI JUMP JUMPDEST SWAP1 POP MLOAD SWAP1 PUSH3 0xA7 DUP3 PUSH3 0xB8 JUMP JUMPDEST SWAP1 SWAP2 PUSH1 0x60 DUP3 DUP5 SUB SLT PUSH3 0x112 JUMPI JUMPDEST PUSH3 0xB5 PUSH3 0xF8 DUP5 DUP5 PUSH3 0xCB JUMP JUMPDEST SWAP4 PUSH3 0x108 DUP2 PUSH1 0x20 DUP7 ADD PUSH3 0xCB JUMP JUMPDEST SWAP4 PUSH1 0x40 ADD PUSH3 0xCB JUMP JUMPDEST PUSH3 0x11C PUSH3 0x42 JUMP JUMPDEST PUSH3 0xE8 JUMP JUMPDEST PUSH3 0x145 PUSH3 0x2204 DUP1 CODESIZE SUB DUP1 PUSH3 0x139 DUP2 PUSH3 0x90 JUMP JUMPDEST SWAP3 DUP4 CODECOPY DUP2 ADD SWAP1 PUSH3 0xDA JUMP JUMPDEST SWAP1 SWAP2 SWAP3 JUMP JUMPDEST PUSH3 0xA7 SWAP3 SWAP2 PUSH3 0x169 PUSH3 0x16F SWAP3 PUSH3 0x163 PUSH3 0x175 JUMP JUMPDEST PUSH3 0x3B6 JUMP JUMPDEST PUSH3 0x353 JUMP JUMPDEST PUSH3 0x2D5 JUMP JUMPDEST PUSH3 0xA7 DUP1 CALLER PUSH3 0x1FC JUMP JUMPDEST SWAP2 PUSH1 0x1 PUSH1 0x1 PUSH1 0xA0 SHL SUB PUSH1 0x8 SWAP3 SWAP1 SWAP3 MUL SWAP2 DUP3 SHL SWAP2 SHL JUMPDEST SWAP2 DUP2 NOT AND SWAP2 AND OR SWAP1 JUMP JUMPDEST PUSH3 0xB5 SWAP1 PUSH3 0xA9 SWAP1 PUSH1 0x1 PUSH1 0x1 PUSH1 0xA0 SHL SUB AND DUP3 JUMP JUMPDEST PUSH3 0xB5 SWAP1 PUSH3 0x1A0 JUMP JUMPDEST PUSH3 0xB5 SWAP1 PUSH3 0x1B6 JUMP JUMPDEST SWAP2 SWAP1 PUSH3 0x1E1 PUSH3 0xB5 PUSH3 0x1EA SWAP4 PUSH3 0x1C1 JUMP JUMPDEST SWAP1 DUP4 SLOAD PUSH3 0x181 JUMP JUMPDEST SWAP1 SSTORE JUMP JUMPDEST PUSH3 0xA7 SWAP2 PUSH1 0x0 SWAP2 PUSH3 0x1CC JUMP JUMPDEST PUSH3 0xA7 SWAP1 PUSH3 0x20F PUSH1 0x0 PUSH1 0x1 PUSH3 0x1EE JUMP JUMPDEST PUSH3 0x258 JUMP JUMPDEST PUSH3 0xB5 SWAP1 PUSH3 0xA9 JUMP JUMPDEST PUSH3 0xB5 SWAP1 SLOAD PUSH3 0x215 JUMP JUMPDEST SWAP1 PUSH1 0x1 PUSH1 0x1 PUSH1 0xA0 SHL SUB SWAP1 PUSH3 0x196 JUMP JUMPDEST SWAP1 PUSH3 0x250 PUSH3 0xB5 PUSH3 0x1EA SWAP3 PUSH3 0x1C1 JUMP JUMPDEST DUP3 SLOAD PUSH3 0x22C JUMP JUMPDEST PUSH3 0x264 PUSH1 0x0 PUSH3 0x220 JUMP JUMPDEST SWAP1 PUSH3 0x272 DUP2 PUSH1 0x0 PUSH3 0x23C JUMP JUMPDEST PUSH3 0x2A9 PUSH3 0x2A2 PUSH32 0x8BE0079C531659141344CD1FD0A4F28419497F9722A3DAAFE3B4186F6B6457E0 SWAP4 PUSH3 0x1C1 JUMP JUMPDEST SWAP2 PUSH3 0x1C1 JUMP JUMPDEST SWAP2 PUSH3 0x2B4 PUSH1 0x40 MLOAD SWAP1 JUMP JUMPDEST PUSH1 0x0 SWAP1 LOG3 JUMP JUMPDEST PUSH3 0xA9 PUSH3 0xB5 PUSH3 0xB5 SWAP3 SWAP1 JUMP JUMPDEST PUSH3 0xB5 SWAP1 PUSH3 0x2BA JUMP JUMPDEST PUSH3 0x2E5 PUSH3 0xA9 PUSH1 0x0 PUSH3 0x2CA JUMP JUMPDEST PUSH1 0x1 PUSH1 0x1 PUSH1 0xA0 SHL SUB DUP3 AND EQ PUSH3 0x33F JUMPI PUSH3 0x302 DUP2 PUSH1 0x4 PUSH3 0x23C JUMP JUMPDEST PUSH3 0x32E PUSH32 0xDBEBFBA65BD6398FB722063EFC10C99F624F9CD8BA657201056AF918A676D5EE SWAP2 PUSH3 0x1C1 JUMP JUMPDEST SWAP1 PUSH3 0x339 PUSH1 0x40 MLOAD SWAP1 JUMP JUMPDEST PUSH1 0x0 SWAP1 LOG2 JUMP JUMPDEST POP POP PUSH1 0x40 MLOAD PUSH4 0xE6C4247B PUSH1 0xE0 SHL DUP2 MSTORE PUSH1 0x4 SWAP1 REVERT JUMPDEST PUSH3 0x363 PUSH3 0xA9 PUSH1 0x0 PUSH3 0x2CA JUMP JUMPDEST PUSH1 0x1 PUSH1 0x1 PUSH1 0xA0 SHL SUB DUP3 AND EQ PUSH3 0x33F JUMPI PUSH3 0x38A PUSH3 0x382 DUP3 PUSH3 0x1C1 JUMP JUMPDEST PUSH1 0x3 PUSH3 0x23C JUMP JUMPDEST PUSH3 0x32E PUSH32 0x4C6985B6BCDFF2E07F21D65FE227C4AFAA9769E02B23C2A32C0E8A66FC707F8 SWAP2 PUSH3 0x1C1 JUMP JUMPDEST PUSH3 0x3C6 PUSH3 0xA9 PUSH1 0x0 PUSH3 0x2CA JUMP JUMPDEST PUSH1 0x1 PUSH1 0x1 PUSH1 0xA0 SHL SUB DUP3 AND EQ PUSH3 0x33F JUMPI PUSH3 0x3ED PUSH3 0x3E5 DUP3 PUSH3 0x1C1 JUMP JUMPDEST PUSH1 0x2 PUSH3 0x23C JUMP JUMPDEST PUSH3 0x32E PUSH32 0x7011B0B15512F533140457FCA55819676A0497D4AFE5C3D7A3524D951A0C4C8 SWAP2 PUSH3 0x1C1 JUMP INVALID PUSH1 0x80 PUSH1 0x40 MSTORE PUSH1 0x4 CALLDATASIZE LT ISZERO PUSH2 0x18 JUMPI JUMPDEST PUSH2 0x16 PUSH2 0x2B2 JUMP JUMPDEST STOP JUMPDEST PUSH1 0x0 CALLDATALOAD PUSH1 0xE0 SHR DUP1 PUSH3 0x27EDB1 EQ PUSH2 0x28A JUMPI DUP1 PUSH4 0x6394C9B EQ PUSH2 0x263 JUMPI DUP1 PUSH4 0x28F59F05 EQ PUSH2 0x23C JUMPI DUP1 PUSH4 0x570CA735 EQ PUSH2 0x212 JUMPI DUP1 PUSH4 0x715018A6 EQ PUSH2 0x1EB JUMPI DUP1 PUSH4 0x79BA5097 EQ PUSH2 0x1C4 JUMPI DUP1 PUSH4 0x8DA5CB5B EQ PUSH2 0x19A JUMPI DUP1 PUSH4 0xA10843EC EQ PUSH2 0x173 JUMPI DUP1 PUSH4 0xACC2166A EQ PUSH2 0x149 JUMPI DUP1 PUSH4 0xB966B683 EQ PUSH2 0x113 JUMPI DUP1 PUSH4 0xE30C3978 EQ PUSH2 0xCF JUMPI PUSH4 0xF2FDE38B EQ PUSH2 0xA5 JUMPI PUSH2 0xE JUMP JUMPDEST CALLVALUE PUSH2 0xC2 JUMPI JUMPDEST PUSH2 0x16 PUSH2 0xB9 CALLDATASIZE PUSH1 0x4 PUSH2 0x384 JUMP JUMPDEST PUSH2 0x5B8 JUMP JUMPDEST SUB SWAP1 RETURN JUMPDEST PUSH2 0xCA PUSH2 0x2B2 JUMP JUMPDEST PUSH2 0xAB JUMP JUMPDEST POP CALLVALUE PUSH2 0x106 JUMPI JUMPDEST PUSH2 0xE1 CALLDATASIZE PUSH1 0x4 PUSH2 0x3A5 JUMP JUMPDEST PUSH2 0xBE PUSH2 0xEC PUSH2 0x516 JUMP JUMPDEST PUSH1 0x40 MLOAD SWAP2 DUP3 SWAP2 DUP3 PUSH1 0x1 PUSH1 0x1 PUSH1 0xA0 SHL SUB SWAP1 SWAP2 AND DUP2 MSTORE PUSH1 0x20 ADD SWAP1 JUMP JUMPDEST PUSH2 0x10E PUSH2 0x2B2 JUMP JUMPDEST PUSH2 0xD6 JUMP JUMPDEST POP CALLVALUE PUSH2 0x13C JUMPI JUMPDEST PUSH2 0x125 CALLDATASIZE PUSH1 0x4 PUSH2 0x3A5 JUMP JUMPDEST PUSH2 0xBE PUSH2 0x130 PUSH2 0x42A JUMP JUMPDEST PUSH1 0x40 MLOAD SWAP2 DUP3 SWAP2 DUP3 PUSH2 0x41A JUMP JUMPDEST PUSH2 0x144 PUSH2 0x2B2 JUMP JUMPDEST PUSH2 0x11A JUMP JUMPDEST POP CALLVALUE PUSH2 0x166 JUMPI JUMPDEST PUSH2 0x15B CALLDATASIZE PUSH1 0x4 PUSH2 0x3A5 JUMP JUMPDEST PUSH2 0xBE PUSH2 0x130 PUSH2 0x3DF JUMP JUMPDEST PUSH2 0x16E PUSH2 0x2B2 JUMP JUMPDEST PUSH2 0x150 JUMP JUMPDEST POP CALLVALUE PUSH2 0x18D JUMPI JUMPDEST PUSH2 0x16 PUSH2 0x188 CALLDATASIZE PUSH1 0x4 PUSH2 0x384 JUMP JUMPDEST PUSH2 0x1896 JUMP JUMPDEST PUSH2 0x195 PUSH2 0x2B2 JUMP JUMPDEST PUSH2 0x17A JUMP JUMPDEST POP CALLVALUE PUSH2 0x1B7 JUMPI JUMPDEST PUSH2 0x1AC CALLDATASIZE PUSH1 0x4 PUSH2 0x3A5 JUMP JUMPDEST PUSH2 0xBE PUSH2 0xEC PUSH2 0x449 JUMP JUMPDEST PUSH2 0x1BF PUSH2 0x2B2 JUMP JUMPDEST PUSH2 0x1A1 JUMP JUMPDEST POP CALLVALUE PUSH2 0x1DE JUMPI JUMPDEST PUSH2 0x1D6 CALLDATASIZE PUSH1 0x4 PUSH2 0x3A5 JUMP JUMPDEST PUSH2 0x16 PUSH2 0x6B1 JUMP JUMPDEST PUSH2 0x1E6 PUSH2 0x2B2 JUMP JUMPDEST PUSH2 0x1CB JUMP JUMPDEST POP CALLVALUE PUSH2 0x205 JUMPI JUMPDEST PUSH2 0x1FD CALLDATASIZE PUSH1 0x4 PUSH2 0x3A5 JUMP JUMPDEST PUSH2 0x16 PUSH2 0x48B JUMP JUMPDEST PUSH2 0x20D PUSH2 0x2B2 JUMP JUMPDEST PUSH2 0x1F2 JUMP JUMPDEST POP CALLVALUE PUSH2 0x22F JUMPI JUMPDEST PUSH2 0x224 CALLDATASIZE PUSH1 0x4 PUSH2 0x3A5 JUMP JUMPDEST PUSH2 0xBE PUSH2 0xEC PUSH2 0x3CF JUMP JUMPDEST PUSH2 0x237 PUSH2 0x2B2 JUMP JUMPDEST PUSH2 0x219 JUMP JUMPDEST POP CALLVALUE PUSH2 0x256 JUMPI JUMPDEST PUSH2 0x16 PUSH2 0x251 CALLDATASIZE PUSH1 0x4 PUSH2 0x384 JUMP JUMPDEST PUSH2 0x18B4 JUMP JUMPDEST PUSH2 0x25E PUSH2 0x2B2 JUMP JUMPDEST PUSH2 0x243 JUMP JUMPDEST POP CALLVALUE PUSH2 0x27D JUMPI JUMPDEST PUSH2 0x16 PUSH2 0x278 CALLDATASIZE PUSH1 0x4 PUSH2 0x384 JUMP JUMPDEST PUSH2 0x1878 JUMP JUMPDEST PUSH2 0x285 PUSH2 0x2B2 JUMP JUMPDEST PUSH2 0x26A JUMP JUMPDEST POP CALLVALUE PUSH2 0x2A5 JUMPI JUMPDEST PUSH2 0x16 PUSH2 0x29F CALLDATASIZE PUSH1 0x4 PUSH2 0x30E JUMP JUMPDEST SWAP1 PUSH2 0x1353 JUMP JUMPDEST PUSH2 0x2AD PUSH2 0x2B2 JUMP JUMPDEST PUSH2 0x291 JUMP JUMPDEST POP PUSH1 0x0 DUP1 REVERT JUMPDEST SWAP1 SWAP2 DUP3 PUSH1 0x1F DUP4 ADD SLT ISZERO PUSH2 0x301 JUMPI JUMPDEST PUSH1 0x20 DUP3 CALLDATALOAD SWAP3 PUSH8 0xFFFFFFFFFFFFFFFF DUP5 GT PUSH2 0x2F4 JUMPI JUMPDEST ADD SWAP3 PUSH1 0x20 DUP4 MUL DUP5 ADD GT PUSH2 0x2EA JUMPI JUMP JUMPDEST PUSH2 0x2F2 PUSH2 0x2B2 JUMP JUMPDEST JUMP JUMPDEST PUSH2 0x2FC PUSH2 0x2B2 JUMP JUMPDEST PUSH2 0x2DB JUMP JUMPDEST PUSH2 0x309 PUSH2 0x2B2 JUMP JUMPDEST PUSH2 0x2C6 JUMP JUMPDEST SWAP1 PUSH2 0x337 SWAP2 PUSH1 0x20 DUP2 DUP4 SUB SLT PUSH2 0x348 JUMPI JUMPDEST DUP1 CALLDATALOAD SWAP1 PUSH8 0xFFFFFFFFFFFFFFFF DUP3 GT PUSH2 0x33B JUMPI JUMPDEST ADD PUSH2 0x2B8 JUMP JUMPDEST SWAP1 SWAP2 JUMP JUMPDEST PUSH2 0x343 PUSH2 0x2B2 JUMP JUMPDEST PUSH2 0x331 JUMP JUMPDEST PUSH2 0x350 PUSH2 0x2B2 JUMP JUMPDEST PUSH2 0x31E JUMP JUMPDEST PUSH1 0x1 PUSH1 0x1 PUSH1 0xA0 SHL SUB AND SWAP1 JUMP JUMPDEST SWAP1 JUMP JUMPDEST PUSH1 0x1 PUSH1 0x1 PUSH1 0xA0 SHL SUB DUP2 AND JUMPDEST EQ ISZERO PUSH2 0x2B2 JUMPI JUMP JUMPDEST SWAP1 POP CALLDATALOAD SWAP1 PUSH2 0x2F2 DUP3 PUSH2 0x364 JUMP JUMPDEST SWAP1 PUSH2 0x361 SWAP2 PUSH1 0x20 DUP2 DUP4 SUB SLT PUSH2 0x398 JUMPI PUSH2 0x377 JUMP JUMPDEST PUSH2 0x3A0 PUSH2 0x2B2 JUMP JUMPDEST PUSH2 0x377 JUMP JUMPDEST PUSH1 0x0 SWAP2 SUB SLT PUSH2 0x2EA JUMPI JUMP JUMPDEST PUSH2 0x361 SWAP2 PUSH1 0x8 MUL SHR PUSH1 0x1 PUSH1 0x1 PUSH1 0xA0 SHL SUB AND SWAP1 JUMP JUMPDEST SWAP1 PUSH2 0x361 SWAP2 SLOAD PUSH2 0x3B0 JUMP JUMPDEST PUSH2 0x361 PUSH1 0x0 PUSH1 0x4 PUSH2 0x3C4 JUMP JUMPDEST SWAP1 MSTORE JUMP JUMPDEST PUSH2 0x361 PUSH1 0x0 PUSH1 0x2 PUSH2 0x3C4 JUMP JUMPDEST PUSH2 0x361 SWAP1 PUSH2 0x355 SWAP1 PUSH1 0x1 PUSH1 0x1 PUSH1 0xA0 SHL SUB AND DUP3 JUMP JUMPDEST PUSH2 0x361 SWAP1 PUSH2 0x3EB JUMP JUMPDEST PUSH2 0x361 SWAP1 PUSH2 0x3FF JUMP JUMPDEST PUSH2 0x3DB SWAP1 PUSH2 0x408 JUMP JUMPDEST PUSH1 0x20 DUP2 ADD SWAP3 SWAP2 PUSH2 0x2F2 SWAP2 SWAP1 PUSH2 0x411 JUMP JUMPDEST PUSH2 0x361 PUSH1 0x0 PUSH1 0x3 PUSH2 0x3C4 JUMP JUMPDEST PUSH2 0x361 SWAP1 PUSH2 0x355 JUMP JUMPDEST PUSH2 0x361 SWAP1 SLOAD PUSH2 0x436 JUMP JUMPDEST PUSH2 0x361 PUSH1 0x0 PUSH2 0x43F JUMP JUMPDEST PUSH2 0x45B PUSH2 0x4EC JUMP JUMPDEST PUSH2 0x2F2 PUSH2 0x479 JUMP JUMPDEST PUSH2 0x355 PUSH2 0x361 PUSH2 0x361 SWAP3 SWAP1 JUMP JUMPDEST PUSH2 0x361 SWAP1 PUSH2 0x463 JUMP JUMPDEST PUSH2 0x2F2 PUSH2 0x486 PUSH1 0x0 PUSH2 0x470 JUMP JUMPDEST PUSH2 0x5FF JUMP JUMPDEST PUSH2 0x2F2 PUSH2 0x453 JUMP JUMPDEST ADD SWAP1 JUMP JUMPDEST ISZERO PUSH2 0x49E JUMPI JUMP JUMPDEST POP PUSH1 0x40 MLOAD PUSH3 0x461BCD PUSH1 0xE5 SHL DUP2 MSTORE DUP1 PUSH2 0x4E8 PUSH1 0x4 DUP3 ADD PUSH1 0x20 DUP1 DUP3 MSTORE DUP2 DUP2 ADD MSTORE PUSH32 0x4F776E61626C653A2063616C6C6572206973206E6F7420746865206F776E6572 PUSH1 0x40 DUP3 ADD MSTORE PUSH1 0x60 ADD SWAP1 JUMP JUMPDEST SUB SWAP1 REVERT JUMPDEST PUSH2 0x2F2 PUSH2 0x4F7 PUSH2 0x449 JUMP JUMPDEST PUSH2 0x510 PUSH2 0x503 CALLER PUSH2 0x355 JUMP JUMPDEST SWAP2 PUSH1 0x1 PUSH1 0x1 PUSH1 0xA0 SHL SUB AND SWAP1 JUMP JUMPDEST EQ PUSH2 0x497 JUMP JUMPDEST PUSH2 0x361 PUSH1 0x1 PUSH2 0x43F JUMP JUMPDEST PUSH2 0x2F2 SWAP1 PUSH2 0x52C PUSH2 0x4EC JUMP JUMPDEST PUSH2 0x561 JUMP JUMPDEST SWAP1 PUSH1 0x1 PUSH1 0x1 PUSH1 0xA0 SHL SUB SWAP1 JUMPDEST SWAP2 DUP2 NOT AND SWAP2 AND OR SWAP1 JUMP JUMPDEST SWAP1 PUSH2 0x556 PUSH2 0x361 PUSH2 0x55D SWAP3 PUSH2 0x408 JUMP JUMPDEST DUP3 SLOAD PUSH2 0x531 JUMP JUMPDEST SWAP1 SSTORE JUMP JUMPDEST PUSH2 0x56C DUP2 PUSH1 0x1 PUSH2 0x546 JUMP JUMPDEST PUSH2 0x574 PUSH2 0x449 JUMP JUMPDEST SWAP1 PUSH2 0x5A8 PUSH2 0x5A2 PUSH32 0x38D16B8CAC22D99FC7C124B9CD0DE2D3FA1FAEF420BFE791D8C362D765E22700 SWAP4 PUSH2 0x408 JUMP JUMPDEST SWAP2 PUSH2 0x408 JUMP JUMPDEST SWAP2 PUSH2 0x5B2 PUSH1 0x40 MLOAD SWAP1 JUMP JUMPDEST PUSH1 0x0 SWAP1 LOG3 JUMP JUMPDEST PUSH2 0x2F2 SWAP1 PUSH2 0x520 JUMP JUMPDEST SWAP2 PUSH1 0x1 PUSH1 0x1 PUSH1 0xA0 SHL SUB PUSH1 0x8 SWAP3 SWAP1 SWAP3 MUL SWAP2 DUP3 SHL SWAP2 SHL PUSH2 0x53C JUMP JUMPDEST SWAP2 SWAP1 PUSH2 0x5EB PUSH2 0x361 PUSH2 0x55D SWAP4 PUSH2 0x408 JUMP JUMPDEST SWAP1 DUP4 SLOAD PUSH2 0x5C1 JUMP JUMPDEST PUSH2 0x2F2 SWAP2 PUSH1 0x0 SWAP2 PUSH2 0x5DA JUMP JUMPDEST PUSH2 0x2F2 SWAP1 PUSH2 0x60F PUSH1 0x0 PUSH1 0x1 PUSH2 0x5F3 JUMP JUMPDEST PUSH2 0x619 PUSH1 0x0 PUSH2 0x43F JUMP JUMPDEST SWAP1 PUSH2 0x625 DUP2 PUSH1 0x0 PUSH2 0x546 JUMP JUMPDEST PUSH2 0x5A8 PUSH2 0x5A2 PUSH32 0x8BE0079C531659141344CD1FD0A4F28419497F9722A3DAAFE3B4186F6B6457E0 SWAP4 PUSH2 0x408 JUMP JUMPDEST ISZERO PUSH2 0x659 JUMPI JUMP JUMPDEST POP PUSH1 0x40 MLOAD PUSH3 0x461BCD PUSH1 0xE5 SHL DUP2 MSTORE PUSH1 0x20 PUSH1 0x4 DUP3 ADD MSTORE PUSH1 0x29 PUSH1 0x24 DUP3 ADD MSTORE PUSH32 0x4F776E61626C6532537465703A2063616C6C6572206973206E6F742074686520 PUSH1 0x44 DUP3 ADD MSTORE PUSH9 0x3732BB9037BBB732B9 PUSH1 0xB9 SHL PUSH1 0x64 DUP3 ADD MSTORE PUSH1 0x84 SWAP1 REVERT JUMPDEST PUSH2 0x2F2 CALLER PUSH2 0x486 PUSH2 0x6C0 PUSH2 0x516 JUMP JUMPDEST PUSH2 0x6D2 PUSH1 0x1 PUSH1 0x1 PUSH1 0xA0 SHL SUB DUP5 AND PUSH2 0x503 JUMP JUMPDEST EQ PUSH2 0x652 JUMP JUMPDEST SWAP1 CALLER PUSH2 0x6EA PUSH2 0x503 PUSH2 0x355 PUSH1 0x4 PUSH2 0x43F JUMP JUMPDEST EQ ISZERO PUSH2 0x6F9 JUMPI PUSH2 0x2F2 SWAP2 PUSH2 0xEAA JUMP JUMPDEST POP POP POP PUSH2 0x705 PUSH1 0x40 MLOAD SWAP1 JUMP JUMPDEST PUSH4 0xEA8E4EB5 PUSH1 0xE0 SHL DUP2 MSTORE PUSH1 0x4 SWAP1 REVERT JUMPDEST PUSH2 0x361 PUSH2 0x361 PUSH2 0x361 SWAP3 SWAP1 JUMP JUMPDEST PUSH1 0x1F ADD PUSH1 0x1F NOT AND SWAP1 JUMP JUMPDEST POP PUSH4 0x4E487B71 PUSH1 0xE0 SHL PUSH1 0x0 MSTORE PUSH1 0x41 PUSH1 0x4 MSTORE PUSH1 0x24 PUSH1 0x0 REVERT JUMPDEST SWAP1 PUSH1 0x1F ADD PUSH1 0x1F NOT AND DUP2 ADD SWAP1 DUP2 LT PUSH8 0xFFFFFFFFFFFFFFFF DUP3 GT OR PUSH2 0x764 JUMPI PUSH1 0x40 MSTORE JUMP JUMPDEST PUSH2 0x76C PUSH2 0x72B JUMP JUMPDEST PUSH1 0x40 MSTORE JUMP JUMPDEST SWAP1 POP MLOAD SWAP1 PUSH2 0x2F2 DUP3 PUSH2 0x364 JUMP JUMPDEST SWAP1 PUSH2 0x361 SWAP2 PUSH1 0x20 DUP2 DUP4 SUB SLT PUSH2 0x792 JUMPI PUSH2 0x771 JUMP JUMPDEST PUSH2 0x79A PUSH2 0x2B2 JUMP JUMPDEST PUSH2 0x771 JUMP JUMPDEST POP PUSH1 0x40 MLOAD RETURNDATASIZE PUSH1 0x0 DUP3 RETURNDATACOPY RETURNDATASIZE SWAP1 REVERT JUMPDEST DUP1 PUSH2 0x36F JUMP JUMPDEST SWAP1 POP MLOAD SWAP1 PUSH2 0x2F2 DUP3 PUSH2 0x7AC JUMP JUMPDEST SWAP1 PUSH2 0x361 SWAP2 PUSH1 0x20 DUP2 DUP4 SUB SLT PUSH2 0x7D3 JUMPI PUSH2 0x7B2 JUMP JUMPDEST PUSH2 0x7DB PUSH2 0x2B2 JUMP JUMPDEST PUSH2 0x7B2 JUMP JUMPDEST SWAP1 PUSH2 0x2F2 PUSH2 0x7ED PUSH1 0x40 MLOAD SWAP1 JUMP JUMPDEST SWAP3 DUP4 PUSH2 0x742 JUMP JUMPDEST PUSH1 0x20 DUP1 SWAP2 PUSH8 0xFFFFFFFFFFFFFFFF DUP2 GT PUSH2 0x80C JUMPI MUL ADD SWAP1 JUMP JUMPDEST PUSH2 0x814 PUSH2 0x72B JUMP JUMPDEST MUL ADD SWAP1 JUMP JUMPDEST SWAP1 PUSH2 0x82B PUSH2 0x826 DUP4 PUSH2 0x7F4 JUMP JUMPDEST PUSH2 0x7E0 JUMP JUMPDEST SWAP2 DUP3 MSTORE JUMP JUMPDEST PUSH2 0x361 PUSH1 0x80 PUSH2 0x7E0 JUMP JUMPDEST PUSH2 0x842 PUSH2 0x830 JUMP JUMPDEST PUSH1 0x0 DUP1 DUP3 MSTORE PUSH1 0x20 DUP3 ADD DUP2 SWAP1 MSTORE PUSH1 0x40 DUP3 ADD MSTORE PUSH1 0x60 DUP1 DUP3 ADD MSTORE SWAP1 JUMP JUMPDEST PUSH2 0x361 PUSH2 0x83A JUMP JUMPDEST PUSH1 0x0 JUMPDEST DUP3 DUP2 LT PUSH2 0x873 JUMPI POP POP POP JUMP JUMPDEST PUSH1 0x20 SWAP1 PUSH2 0x87E PUSH2 0x85C JUMP JUMPDEST DUP2 DUP5 ADD MSTORE ADD PUSH2 0x867 JUMP JUMPDEST SWAP1 PUSH2 0x2F2 PUSH2 0x89E PUSH2 0x898 DUP5 PUSH2 0x819 JUMP JUMPDEST SWAP4 PUSH2 0x7F4 JUMP JUMPDEST PUSH1 0x1F NOT ADD PUSH1 0x20 DUP5 ADD PUSH2 0x864 JUMP JUMPDEST POP PUSH4 0x4E487B71 PUSH1 0xE0 SHL PUSH1 0x0 MSTORE PUSH1 0x32 PUSH1 0x4 MSTORE PUSH1 0x24 PUSH1 0x0 REVERT JUMPDEST SWAP1 CALLDATALOAD SWAP1 PUSH2 0x15E NOT CALLDATASIZE DUP3 SWAP1 SUB ADD DUP3 SLT ISZERO PUSH2 0x8D9 JUMPI ADD SWAP1 JUMP JUMPDEST PUSH2 0x493 PUSH2 0x2B2 JUMP JUMPDEST SWAP1 PUSH2 0x361 SWAP3 PUSH1 0x20 SWAP2 DUP2 LT ISZERO PUSH2 0x8FA JUMPI JUMPDEST MUL DUP2 ADD SWAP1 PUSH2 0x8C2 JUMP JUMPDEST PUSH2 0x902 PUSH2 0x8AB JUMP JUMPDEST PUSH2 0x8F1 JUMP JUMPDEST CALLDATALOAD PUSH2 0x361 DUP2 PUSH2 0x7AC JUMP JUMPDEST SWAP1 PUSH1 0x20 DUP1 SWAP2 PUSH2 0x91E DUP5 MLOAD SWAP1 JUMP JUMPDEST DUP2 LT ISZERO PUSH2 0x92C JUMPI JUMPDEST MUL ADD ADD SWAP1 JUMP JUMPDEST PUSH2 0x934 PUSH2 0x8AB JUMP JUMPDEST PUSH2 0x926 JUMP JUMPDEST SWAP1 CALLDATALOAD SWAP1 PUSH1 0x1E NOT CALLDATASIZE DUP3 SWAP1 SUB ADD DUP3 SLT ISZERO PUSH2 0x97F JUMPI JUMPDEST ADD PUSH1 0x20 DUP2 CALLDATALOAD SWAP2 PUSH8 0xFFFFFFFFFFFFFFFF DUP4 GT PUSH2 0x972 JUMPI JUMPDEST ADD SWAP2 PUSH1 0x20 DUP3 MUL CALLDATASIZE SUB DUP4 SGT PUSH2 0x2EA JUMPI JUMP JUMPDEST PUSH2 0x97A PUSH2 0x2B2 JUMP JUMPDEST PUSH2 0x962 JUMP JUMPDEST PUSH2 0x987 PUSH2 0x2B2 JUMP JUMPDEST PUSH2 0x94C JUMP JUMPDEST SWAP1 POP CALLDATALOAD SWAP1 PUSH2 0x2F2 DUP3 PUSH2 0x7AC JUMP JUMPDEST SWAP1 SWAP3 SWAP2 SWAP3 PUSH2 0x9A9 PUSH2 0x826 DUP3 PUSH2 0x7F4 JUMP JUMPDEST SWAP4 DUP2 DUP6 MSTORE PUSH1 0x20 DUP1 DUP7 ADD SWAP3 MUL DUP4 ADD SWAP3 DUP2 DUP5 GT PUSH2 0x9E7 JUMPI JUMPDEST SWAP2 JUMPDEST DUP4 DUP4 LT PUSH2 0x9CE JUMPI POP POP POP POP JUMP JUMPDEST PUSH1 0x20 DUP1 SWAP2 PUSH2 0x9DC DUP5 DUP7 PUSH2 0x98C JUMP JUMPDEST DUP2 MSTORE ADD SWAP3 ADD SWAP2 PUSH2 0x9C1 JUMP JUMPDEST PUSH2 0x9EF PUSH2 0x2B2 JUMP JUMPDEST PUSH2 0x9BF JUMP JUMPDEST PUSH2 0x361 SWAP2 CALLDATASIZE SWAP2 PUSH2 0x999 JUMP JUMPDEST SWAP1 PUSH2 0xA1F PUSH2 0xA18 PUSH2 0xA0E DUP5 MLOAD SWAP1 JUMP JUMPDEST DUP1 DUP5 MSTORE SWAP3 PUSH1 0x20 ADD SWAP1 JUMP JUMPDEST SWAP3 PUSH1 0x20 ADD SWAP1 JUMP JUMPDEST SWAP1 PUSH1 0x0 JUMPDEST DUP2 DUP2 LT PUSH2 0xA30 JUMPI POP POP POP SWAP1 JUMP JUMPDEST SWAP1 SWAP2 SWAP3 PUSH2 0xA4D PUSH2 0xA46 PUSH1 0x1 SWAP3 DUP7 MLOAD DUP2 MSTORE PUSH1 0x20 ADD SWAP1 JUMP JUMPDEST SWAP5 PUSH1 0x20 ADD SWAP1 JUMP JUMPDEST SWAP3 SWAP2 ADD PUSH2 0xA23 JUMP JUMPDEST DUP1 MLOAD DUP3 MSTORE PUSH1 0x20 DUP1 DUP3 ADD MLOAD PUSH1 0x1 PUSH1 0x1 PUSH1 0xA0 SHL SUB AND SWAP1 DUP4 ADD MSTORE PUSH2 0x361 SWAP2 PUSH1 0x80 DUP2 ADD SWAP2 PUSH1 0x60 SWAP1 PUSH2 0xA87 PUSH1 0x40 DUP3 ADD MLOAD PUSH1 0x40 DUP6 ADD MSTORE JUMP JUMPDEST ADD MLOAD SWAP1 PUSH1 0x60 DUP2 DUP5 SUB SWAP2 ADD MSTORE PUSH2 0x9FF JUMP JUMPDEST SWAP1 PUSH2 0x361 SWAP2 PUSH2 0xA55 JUMP JUMPDEST SWAP1 PUSH2 0xAB7 PUSH2 0xAAD DUP4 MLOAD SWAP1 JUMP JUMPDEST DUP1 DUP4 MSTORE SWAP2 PUSH1 0x20 ADD SWAP1 JUMP JUMPDEST SWAP1 DUP2 PUSH2 0xAC9 PUSH1 0x20 DUP4 MUL DUP5 ADD SWAP5 PUSH1 0x20 ADD SWAP1 JUMP JUMPDEST SWAP3 PUSH1 0x0 SWAP2 JUMPDEST DUP4 DUP4 LT PUSH2 0xADD JUMPI POP POP POP POP POP SWAP1 JUMP JUMPDEST SWAP1 SWAP2 SWAP3 SWAP4 SWAP5 PUSH1 0x20 PUSH2 0xB00 PUSH2 0xAF9 DUP4 DUP6 PUSH1 0x1 SWAP6 SUB DUP8 MSTORE DUP10 MLOAD PUSH2 0xA97 JUMP JUMPDEST SWAP8 PUSH1 0x20 ADD SWAP1 JUMP JUMPDEST SWAP4 ADD SWAP4 ADD SWAP2 SWAP4 SWAP3 SWAP1 PUSH2 0xACE JUMP JUMPDEST PUSH1 0x20 DUP1 DUP3 MSTORE PUSH2 0x361 SWAP3 SWAP2 ADD SWAP1 PUSH2 0xAA1 JUMP JUMPDEST SWAP1 SWAP3 SWAP2 SWAP3 PUSH2 0xB2E PUSH2 0x826 DUP3 PUSH2 0x7F4 JUMP JUMPDEST SWAP4 DUP2 DUP6 MSTORE PUSH1 0x20 DUP1 DUP7 ADD SWAP3 MUL DUP4 ADD SWAP3 DUP2 DUP5 GT PUSH2 0xB6C JUMPI JUMPDEST SWAP2 JUMPDEST DUP4 DUP4 LT PUSH2 0xB53 JUMPI POP POP POP POP JUMP JUMPDEST PUSH1 0x20 DUP1 SWAP2 PUSH2 0xB61 DUP5 DUP7 PUSH2 0x377 JUMP JUMPDEST DUP2 MSTORE ADD SWAP3 ADD SWAP2 PUSH2 0xB46 JUMP JUMPDEST PUSH2 0xB74 PUSH2 0x2B2 JUMP JUMPDEST PUSH2 0xB44 JUMP JUMPDEST SWAP1 PUSH2 0x361 SWAP2 DUP2 PUSH1 0x1F DUP3 ADD SLT ISZERO PUSH2 0xB95 JUMPI JUMPDEST PUSH1 0x20 DUP2 CALLDATALOAD SWAP2 ADD PUSH2 0xB1E JUMP JUMPDEST PUSH2 0xB9D PUSH2 0x2B2 JUMP JUMPDEST PUSH2 0xB8A JUMP JUMPDEST SWAP1 SWAP3 SWAP2 SWAP3 PUSH2 0xBB2 PUSH2 0x826 DUP3 PUSH2 0x7F4 JUMP JUMPDEST SWAP4 DUP2 DUP6 MSTORE PUSH1 0x20 DUP1 DUP7 ADD SWAP3 MUL DUP4 ADD SWAP3 DUP2 DUP5 GT PUSH2 0xBF0 JUMPI JUMPDEST SWAP2 JUMPDEST DUP4 DUP4 LT PUSH2 0xBD7 JUMPI POP POP POP POP JUMP JUMPDEST PUSH1 0x20 DUP1 SWAP2 PUSH2 0xBE5 DUP5 DUP7 PUSH2 0x98C JUMP JUMPDEST DUP2 MSTORE ADD SWAP3 ADD SWAP2 PUSH2 0xBCA JUMP JUMPDEST PUSH2 0xBF8 PUSH2 0x2B2 JUMP JUMPDEST PUSH2 0xBC8 JUMP JUMPDEST SWAP1 PUSH2 0x361 SWAP2 DUP2 PUSH1 0x1F DUP3 ADD SLT ISZERO PUSH2 0xC19 JUMPI JUMPDEST PUSH1 0x20 DUP2 CALLDATALOAD SWAP2 ADD PUSH2 0xBA2 JUMP JUMPDEST PUSH2 0xC21 PUSH2 0x2B2 JUMP JUMPDEST PUSH2 0xC0E JUMP JUMPDEST PUSH2 0x493 PUSH1 0x20 SWAP2 PUSH8 0xFFFFFFFFFFFFFFFF DUP2 GT PUSH2 0xC45 JUMPI PUSH1 0x1F ADD PUSH1 0x1F NOT AND SWAP1 JUMP JUMPDEST PUSH2 0x721 PUSH2 0x72B JUMP JUMPDEST SWAP1 DUP3 PUSH1 0x0 SWAP4 SWAP3 DUP3 CALLDATACOPY ADD MSTORE JUMP JUMPDEST SWAP3 SWAP2 SWAP1 PUSH2 0x2F2 SWAP2 PUSH2 0xC6C PUSH2 0x826 DUP4 PUSH2 0xC26 JUMP JUMPDEST SWAP5 DUP3 DUP7 MSTORE PUSH1 0x20 DUP7 ADD SWAP2 DUP4 DUP3 ADD GT PUSH2 0xC82 JUMPI PUSH2 0xC4D JUMP JUMPDEST PUSH2 0xC8A PUSH2 0x2B2 JUMP JUMPDEST PUSH2 0xC4D JUMP JUMPDEST SWAP1 PUSH2 0x361 SWAP2 DUP2 PUSH1 0x1F DUP3 ADD SLT ISZERO PUSH2 0xCAB JUMPI JUMPDEST PUSH1 0x20 DUP2 CALLDATALOAD SWAP2 ADD PUSH2 0xC59 JUMP JUMPDEST PUSH2 0xCB3 PUSH2 0x2B2 JUMP JUMPDEST PUSH2 0xCA0 JUMP JUMPDEST SWAP1 PUSH2 0x361 SWAP2 DUP2 PUSH1 0x1F DUP3 ADD SLT ISZERO PUSH2 0xCD4 JUMPI JUMPDEST PUSH1 0x20 DUP2 CALLDATALOAD SWAP2 ADD PUSH2 0x999 JUMP JUMPDEST PUSH2 0xCDC PUSH2 0x2B2 JUMP JUMPDEST PUSH2 0xCC9 JUMP JUMPDEST SWAP2 SWAP1 PUSH2 0xE1D SWAP1 PUSH2 0x160 DUP5 DUP3 SUB SLT PUSH2 0xE59 JUMPI JUMPDEST PUSH2 0xCFE PUSH2 0x160 PUSH2 0x7E0 JUMP JUMPDEST SWAP4 PUSH1 0x0 PUSH2 0xD0B DUP4 DUP4 PUSH2 0x98C JUMP JUMPDEST SWAP1 DUP7 ADD MSTORE PUSH1 0x20 PUSH2 0xD1D DUP4 DUP3 DUP5 ADD PUSH2 0x377 JUMP JUMPDEST SWAP1 DUP7 ADD MSTORE PUSH1 0x40 PUSH2 0xD2F DUP4 DUP3 DUP5 ADD PUSH2 0x377 JUMP JUMPDEST SWAP1 DUP7 ADD MSTORE PUSH1 0x60 PUSH2 0xD41 DUP4 DUP3 DUP5 ADD PUSH2 0x98C JUMP JUMPDEST SWAP1 DUP7 ADD MSTORE PUSH1 0x80 PUSH2 0xD53 DUP4 DUP3 DUP5 ADD PUSH2 0x98C JUMP JUMPDEST SWAP1 DUP7 ADD MSTORE PUSH1 0xA0 PUSH2 0xD65 DUP4 DUP3 DUP5 ADD PUSH2 0x98C JUMP JUMPDEST SWAP1 DUP7 ADD MSTORE PUSH2 0xD89 DUP3 PUSH1 0xC0 DUP4 ADD CALLDATALOAD PUSH8 0xFFFFFFFFFFFFFFFF DUP2 GT PUSH2 0xE4C JUMPI JUMPDEST DUP4 ADD PUSH2 0xB79 JUMP JUMPDEST PUSH1 0xC0 DUP7 ADD MSTORE PUSH2 0xDAE DUP3 PUSH1 0xE0 DUP4 ADD CALLDATALOAD PUSH8 0xFFFFFFFFFFFFFFFF DUP2 GT PUSH2 0xE3F JUMPI JUMPDEST DUP4 ADD PUSH2 0xBFD JUMP JUMPDEST PUSH1 0xE0 DUP7 ADD MSTORE PUSH2 0xDD3 DUP3 PUSH2 0x100 DUP4 ADD CALLDATALOAD PUSH8 0xFFFFFFFFFFFFFFFF DUP2 GT PUSH2 0xE3F JUMPI DUP4 ADD PUSH2 0xBFD JUMP JUMPDEST PUSH2 0x100 DUP7 ADD MSTORE PUSH2 0xDFA DUP3 PUSH2 0x120 DUP4 ADD CALLDATALOAD PUSH8 0xFFFFFFFFFFFFFFFF DUP2 GT PUSH2 0xE32 JUMPI JUMPDEST DUP4 ADD PUSH2 0xC8F JUMP JUMPDEST PUSH2 0x120 DUP7 ADD MSTORE PUSH2 0x140 DUP2 ADD CALLDATALOAD SWAP1 PUSH8 0xFFFFFFFFFFFFFFFF DUP3 GT PUSH2 0xE25 JUMPI JUMPDEST ADD PUSH2 0xCB8 JUMP JUMPDEST PUSH2 0x140 DUP4 ADD MSTORE JUMP JUMPDEST PUSH2 0xE2D PUSH2 0x2B2 JUMP JUMPDEST PUSH2 0xE17 JUMP JUMPDEST PUSH2 0xE3A PUSH2 0x2B2 JUMP JUMPDEST PUSH2 0xDF3 JUMP JUMPDEST PUSH2 0xE47 PUSH2 0x2B2 JUMP JUMPDEST PUSH2 0xDA7 JUMP JUMPDEST PUSH2 0xE54 PUSH2 0x2B2 JUMP JUMPDEST PUSH2 0xD82 JUMP JUMPDEST PUSH2 0xE61 PUSH2 0x2B2 JUMP JUMPDEST PUSH2 0xCF3 JUMP JUMPDEST PUSH2 0x361 SWAP1 CALLDATASIZE SWAP1 PUSH2 0xCE1 JUMP JUMPDEST POP PUSH4 0x4E487B71 PUSH1 0xE0 SHL PUSH1 0x0 MSTORE PUSH1 0x11 PUSH1 0x4 MSTORE PUSH1 0x24 PUSH1 0x0 REVERT JUMPDEST SWAP1 PUSH2 0xE92 JUMP JUMPDEST SWAP2 SWAP1 JUMP JUMPDEST SWAP1 DUP2 DUP2 LT PUSH2 0xE9E JUMPI SUB SWAP1 JUMP JUMPDEST PUSH2 0xEA6 PUSH2 0xE71 JUMP JUMPDEST SUB SWAP1 JUMP JUMPDEST SWAP1 SWAP2 SWAP1 PUSH1 0x0 SWAP1 DUP4 PUSH2 0xEBA DUP4 PUSH2 0x714 JUMP JUMPDEST DUP2 EQ PUSH2 0x1336 JUMPI PUSH2 0xF11 PUSH2 0xEF2 PUSH1 0x20 PUSH2 0xEDA PUSH2 0xED5 PUSH1 0x3 PUSH2 0x43F JUMP JUMPDEST PUSH2 0x408 JUMP JUMPDEST PUSH4 0x74C13FDA SWAP1 PUSH2 0xEE9 PUSH1 0x40 MLOAD SWAP1 JUMP JUMPDEST SWAP4 DUP5 SWAP3 PUSH1 0xE0 SHL SWAP1 JUMP JUMPDEST DUP3 MSTORE PUSH1 0x4 SWAP1 DUP3 SWAP1 GAS STATICCALL SWAP1 DUP2 ISZERO PUSH2 0x1329 JUMPI JUMPDEST PUSH1 0x0 SWAP2 PUSH2 0x130B JUMPI JUMPDEST POP PUSH2 0x408 JUMP JUMPDEST SWAP3 PUSH2 0xF1B DUP5 PUSH2 0x408 JUMP JUMPDEST SWAP2 PUSH4 0x70A08231 SWAP6 PUSH2 0xF2B ADDRESS PUSH2 0x408 JUMP JUMPDEST SWAP4 PUSH2 0xF35 PUSH1 0x40 MLOAD SWAP1 JUMP JUMPDEST SWAP7 PUSH2 0xF40 DUP10 PUSH1 0xE0 SHL SWAP1 JUMP JUMPDEST DUP9 MSTORE PUSH1 0x1 PUSH1 0x1 PUSH1 0xA0 SHL SUB DUP7 AND PUSH1 0x4 DUP10 ADD MSTORE PUSH1 0x20 DUP9 PUSH1 0x24 DUP2 DUP6 GAS STATICCALL SWAP8 DUP9 ISZERO PUSH2 0x12FE JUMPI JUMPDEST PUSH1 0x0 SWAP9 PUSH2 0x12E7 JUMPI JUMPDEST POP PUSH2 0xF74 DUP5 PUSH2 0x888 JUMP JUMPDEST SWAP8 PUSH1 0x0 SWAP10 DUP11 JUMPDEST DUP13 DUP8 DUP3 LT ISZERO PUSH2 0x1035 JUMPI SWAP1 DUP12 PUSH2 0x1028 DUP3 PUSH1 0x60 PUSH2 0x1020 DUP16 DUP16 DUP16 DUP10 DUP4 PUSH2 0xFE9 PUSH2 0x100D SWAP5 PUSH1 0x20 PUSH2 0xFD9 PUSH2 0x1030 SWAP16 DUP15 PUSH2 0xFD4 DUP10 DUP16 SWAP11 PUSH2 0xFC4 SWAP1 PUSH2 0xFBE PUSH2 0x1018 SWAP16 DUP15 SWAP8 DUP9 SWAP2 PUSH2 0x8E1 JUMP JUMPDEST ADD PUSH2 0x907 JUMP JUMPDEST SWAP1 PUSH2 0xFCF DUP6 DUP6 PUSH2 0x911 JUMP JUMPDEST MLOAD ADD MSTORE JUMP JUMPDEST PUSH2 0x911 JUMP JUMPDEST MLOAD ADD SWAP1 PUSH1 0x1 PUSH1 0x1 PUSH1 0xA0 SHL SUB AND SWAP1 MSTORE JUMP JUMPDEST PUSH2 0x1008 DUP11 PUSH1 0x40 PUSH2 0xFCF DUP7 PUSH2 0x1002 DUP13 PUSH2 0xFBE DUP4 DUP11 DUP11 PUSH2 0x8E1 JUMP JUMPDEST SWAP4 PUSH2 0x911 JUMP JUMPDEST PUSH2 0x8E1 JUMP JUMPDEST PUSH2 0x140 DUP2 ADD SWAP1 PUSH2 0x939 JUMP JUMPDEST SWAP4 SWAP1 SWAP6 PUSH2 0x911 JUMP JUMPDEST MLOAD ADD SWAP3 PUSH2 0x9F4 JUMP JUMPDEST SWAP1 MSTORE PUSH1 0x1 ADD SWAP1 JUMP JUMPDEST PUSH2 0xF7A JUMP JUMPDEST POP POP SWAP2 SWAP4 SWAP8 SWAP9 SWAP10 PUSH2 0x1081 DUP8 PUSH2 0x1097 SWAP4 SWAP6 SWAP9 SWAP8 SWAP13 PUSH2 0x1055 PUSH2 0xED5 PUSH1 0x2 PUSH2 0x43F JUMP JUMPDEST PUSH2 0x1076 DUP4 PUSH4 0x56853398 DUP4 EXTCODESIZE ISZERO PUSH2 0x12DA JUMPI JUMPDEST PUSH1 0x40 MLOAD SWAP7 DUP8 SWAP6 DUP7 SWAP5 DUP6 SWAP4 PUSH1 0xE0 SHL SWAP1 JUMP JUMPDEST DUP4 MSTORE PUSH1 0x4 DUP4 ADD PUSH2 0xB0D JUMP JUMPDEST SUB SWAP3 GAS CALL DUP1 ISZERO PUSH2 0x12CD JUMPI JUMPDEST PUSH2 0x12B9 JUMPI JUMPDEST POP SWAP1 POP JUMPDEST DUP10 JUMPDEST DUP2 LT ISZERO PUSH2 0x10CF JUMPI PUSH2 0x10C8 DUP2 PUSH2 0x10C1 PUSH2 0x10BC PUSH2 0x10B7 DUP16 SWAP6 PUSH2 0x1097 SWAP7 DUP16 PUSH2 0x8E1 JUMP JUMPDEST PUSH2 0xE66 JUMP JUMPDEST PUSH2 0x19F9 JUMP JUMPDEST POP PUSH1 0x1 ADD SWAP1 JUMP JUMPDEST SWAP1 POP PUSH2 0x1095 JUMP JUMPDEST POP SWAP1 SWAP2 SWAP4 SWAP7 POP PUSH2 0x11AE SWAP6 SWAP9 POP PUSH2 0x1125 SWAP3 SWAP5 SWAP8 POP PUSH2 0x10F5 PUSH2 0x10EE PUSH1 0x40 MLOAD SWAP1 JUMP JUMPDEST SWAP2 PUSH1 0xE0 SHL SWAP1 JUMP JUMPDEST DUP2 MSTORE PUSH1 0x1 PUSH1 0x1 PUSH1 0xA0 SHL SUB DUP9 AND PUSH1 0x4 DUP3 ADD MSTORE PUSH1 0x20 DUP2 PUSH1 0x24 DUP2 DUP11 GAS STATICCALL SWAP1 DUP2 ISZERO PUSH2 0x12AC JUMPI JUMPDEST PUSH1 0x0 SWAP2 PUSH2 0x1297 JUMPI JUMPDEST POP PUSH2 0xE88 JUMP JUMPDEST SWAP5 PUSH1 0x20 PUSH2 0x114E PUSH4 0xDD62ED3E PUSH2 0x116D PUSH2 0x1140 PUSH2 0xED5 PUSH1 0x3 PUSH2 0x43F JUMP JUMPDEST PUSH1 0x40 MLOAD SWAP6 DUP7 SWAP5 DUP6 SWAP5 PUSH1 0xE0 SHL SWAP1 JUMP JUMPDEST DUP5 MSTORE PUSH1 0x1 PUSH1 0x1 PUSH1 0xA0 SHL SUB SWAP1 DUP2 AND PUSH1 0x4 DUP6 ADD MSTORE AND PUSH1 0x24 DUP4 ADD MSTORE PUSH1 0x44 DUP3 ADD SWAP1 JUMP JUMPDEST SUB DUP2 DUP9 GAS STATICCALL SWAP1 DUP2 ISZERO PUSH2 0x128A JUMPI JUMPDEST PUSH1 0x0 SWAP2 PUSH2 0x126C JUMPI JUMPDEST POP DUP6 GT PUSH2 0x124D JUMPI JUMPDEST POP PUSH2 0x1198 PUSH2 0xED5 PUSH1 0x3 PUSH2 0x43F JUMP JUMPDEST PUSH4 0x1E2720FF SWAP1 DUP1 EXTCODESIZE ISZERO PUSH2 0x1240 JUMPI JUMPDEST PUSH1 0x40 MLOAD PUSH2 0xEE9 JUMP JUMPDEST DUP3 MSTORE PUSH1 0x4 DUP3 ADD DUP7 SWAP1 MSTORE PUSH1 0x24 SWAP1 DUP3 SWAP1 DUP5 SWAP1 GAS CALL DUP1 ISZERO PUSH2 0x1233 JUMPI JUMPDEST PUSH2 0x1216 JUMPI JUMPDEST POP PUSH2 0x1211 PUSH2 0x11FA PUSH32 0xF1FA0256E6ECBA08316EB890D662830768E73136B5B0DBEA4C9C8C16CA1747EB SWAP3 PUSH2 0x408 JUMP JUMPDEST SWAP3 PUSH2 0x1204 PUSH1 0x40 MLOAD SWAP1 JUMP JUMPDEST SWAP2 DUP3 SWAP2 DUP3 SWAP1 DUP2 MSTORE PUSH1 0x20 ADD SWAP1 JUMP JUMPDEST SUB SWAP1 LOG2 JUMP JUMPDEST PUSH2 0x122D SWAP1 PUSH2 0x1224 RETURNDATASIZE DUP3 PUSH2 0x742 JUMP JUMPDEST RETURNDATASIZE DUP2 ADD SWAP1 PUSH2 0x3A5 JUMP JUMPDEST CODESIZE PUSH2 0x11CC JUMP JUMPDEST PUSH2 0x123B PUSH2 0x79F JUMP JUMPDEST PUSH2 0x11C7 JUMP JUMPDEST PUSH2 0x1248 PUSH2 0x2B2 JUMP JUMPDEST PUSH2 0x11A6 JUMP JUMPDEST PUSH2 0x1266 SWAP1 PUSH2 0x125E PUSH2 0xED5 PUSH1 0x3 PUSH2 0x43F JUMP JUMPDEST DUP4 NOT SWAP2 PUSH2 0x140C JUMP JUMPDEST CODESIZE PUSH2 0x118A JUMP JUMPDEST PUSH2 0x1284 SWAP2 POP PUSH2 0x127B RETURNDATASIZE DUP3 PUSH2 0x742 JUMP JUMPDEST RETURNDATASIZE DUP2 ADD SWAP1 PUSH2 0x7BF JUMP JUMPDEST CODESIZE PUSH2 0x1182 JUMP JUMPDEST PUSH2 0x1292 PUSH2 0x79F JUMP JUMPDEST PUSH2 0x117A JUMP JUMPDEST PUSH2 0x12A6 SWAP2 POP PUSH2 0x127B RETURNDATASIZE DUP3 PUSH2 0x742 JUMP JUMPDEST CODESIZE PUSH2 0x111F JUMP JUMPDEST PUSH2 0x12B4 PUSH2 0x79F JUMP JUMPDEST PUSH2 0x1117 JUMP JUMPDEST PUSH2 0x12C7 SWAP1 PUSH2 0x1224 RETURNDATASIZE DUP3 PUSH2 0x742 JUMP JUMPDEST CODESIZE PUSH2 0x1091 JUMP JUMPDEST PUSH2 0x12D5 PUSH2 0x79F JUMP JUMPDEST PUSH2 0x108C JUMP JUMPDEST PUSH2 0x12E2 PUSH2 0x2B2 JUMP JUMPDEST PUSH2 0x1066 JUMP JUMPDEST PUSH2 0x12F7 SWAP2 SWAP9 POP PUSH2 0x127B RETURNDATASIZE DUP3 PUSH2 0x742 JUMP JUMPDEST SWAP7 CODESIZE PUSH2 0xF6A JUMP JUMPDEST PUSH2 0x1306 PUSH2 0x79F JUMP JUMPDEST PUSH2 0xF62 JUMP JUMPDEST PUSH2 0x1323 SWAP2 POP PUSH2 0x131A RETURNDATASIZE DUP3 PUSH2 0x742 JUMP JUMPDEST RETURNDATASIZE DUP2 ADD SWAP1 PUSH2 0x77E JUMP JUMPDEST CODESIZE PUSH2 0xF0B JUMP JUMPDEST PUSH2 0x1331 PUSH2 0x79F JUMP JUMPDEST PUSH2 0xF03 JUMP JUMPDEST POP POP POP POP POP PUSH2 0x1344 PUSH1 0x40 MLOAD SWAP1 JUMP JUMPDEST PUSH4 0x1EC5AA51 PUSH1 0xE0 SHL DUP2 MSTORE PUSH1 0x4 SWAP1 REVERT JUMPDEST SWAP1 PUSH2 0x2F2 SWAP2 PUSH2 0x6D8 JUMP JUMPDEST ISZERO PUSH2 0x1364 JUMPI JUMP JUMPDEST POP PUSH1 0x40 MLOAD PUSH3 0x461BCD PUSH1 0xE5 SHL DUP2 MSTORE PUSH1 0x20 PUSH1 0x4 DUP3 ADD MSTORE PUSH1 0x36 PUSH1 0x24 DUP3 ADD MSTORE PUSH32 0x5361666545524332303A20617070726F76652066726F6D206E6F6E2D7A65726F PUSH1 0x44 DUP3 ADD MSTORE PUSH22 0x20746F206E6F6E2D7A65726F20616C6C6F77616E6365 PUSH1 0x50 SHL PUSH1 0x64 DUP3 ADD MSTORE PUSH1 0x84 SWAP1 REVERT JUMPDEST PUSH2 0x13E2 PUSH2 0x13DC PUSH2 0x361 SWAP3 PUSH4 0xFFFFFFFF AND SWAP1 JUMP JUMPDEST PUSH1 0xE0 SHL SWAP1 JUMP JUMPDEST PUSH1 0x1 PUSH1 0x1 PUSH1 0xE0 SHL SUB NOT AND SWAP1 JUMP JUMPDEST PUSH1 0x1 PUSH1 0x1 PUSH1 0xA0 SHL SUB SWAP1 SWAP2 AND DUP2 MSTORE PUSH1 0x40 DUP2 ADD SWAP3 SWAP2 PUSH2 0x2F2 SWAP2 PUSH1 0x20 ADD MSTORE JUMP JUMPDEST PUSH2 0x146F PUSH1 0x4 SWAP3 PUSH2 0x1460 PUSH2 0x2F2 SWAP6 PUSH2 0x1439 PUSH1 0x0 DUP5 PUSH2 0x1428 DUP3 PUSH2 0x714 JUMP JUMPDEST DUP5 EQ SWAP2 DUP3 ISZERO PUSH2 0x1474 JUMPI JUMPDEST POP POP PUSH2 0x135D JUMP JUMPDEST PUSH2 0x1446 PUSH4 0x95EA7B3 PUSH2 0x13C9 JUMP JUMPDEST SWAP3 PUSH2 0x1450 PUSH1 0x40 MLOAD SWAP1 JUMP JUMPDEST SWAP7 DUP8 SWAP5 PUSH1 0x20 DUP7 ADD SWAP1 DUP2 MSTORE ADD PUSH2 0x13EF JUMP JUMPDEST PUSH1 0x20 DUP3 ADD DUP2 SUB DUP3 MSTORE SUB DUP4 PUSH2 0x742 JUMP JUMPDEST PUSH2 0x15E1 JUMP JUMPDEST SWAP1 SWAP2 POP PUSH1 0x20 PUSH2 0x1482 DUP10 PUSH2 0x408 JUMP JUMPDEST PUSH4 0xDD62ED3E SWAP1 PUSH2 0x114E PUSH2 0x1494 ADDRESS PUSH2 0x408 JUMP JUMPDEST SWAP3 PUSH2 0x14AE PUSH2 0x14A1 PUSH1 0x40 MLOAD SWAP1 JUMP JUMPDEST SWAP8 DUP9 SWAP6 DUP7 SWAP5 DUP6 SWAP5 PUSH1 0xE0 SHL SWAP1 JUMP JUMPDEST SUB SWAP2 GAS STATICCALL SWAP2 DUP3 ISZERO PUSH2 0x14F6 JUMPI JUMPDEST PUSH1 0x0 SWAP3 PUSH2 0x14D7 JUMPI JUMPDEST POP PUSH2 0xE8E PUSH2 0x14CF SWAP2 PUSH2 0x714 JUMP JUMPDEST EQ DUP5 CODESIZE PUSH2 0x1432 JUMP JUMPDEST PUSH2 0x14CF SWAP2 SWAP3 POP PUSH2 0x14EE PUSH2 0xE8E SWAP2 PUSH2 0x127B RETURNDATASIZE DUP3 PUSH2 0x742 JUMP JUMPDEST SWAP3 SWAP2 POP PUSH2 0x14C2 JUMP JUMPDEST PUSH2 0x14FE PUSH2 0x79F JUMP JUMPDEST PUSH2 0x14BA JUMP JUMPDEST SWAP1 PUSH2 0x82B PUSH2 0x826 DUP4 PUSH2 0xC26 JUMP JUMPDEST PUSH2 0x151A PUSH1 0x20 PUSH2 0x1503 JUMP JUMPDEST PUSH32 0x5361666545524332303A206C6F772D6C6576656C2063616C6C206661696C6564 PUSH1 0x20 DUP3 ADD MSTORE SWAP1 JUMP JUMPDEST PUSH2 0x361 PUSH2 0x1510 JUMP JUMPDEST DUP1 ISZERO ISZERO PUSH2 0x36F JUMP JUMPDEST SWAP1 POP MLOAD SWAP1 PUSH2 0x2F2 DUP3 PUSH2 0x154B JUMP JUMPDEST SWAP1 PUSH2 0x361 SWAP2 PUSH1 0x20 DUP2 DUP4 SUB SLT PUSH2 0x1574 JUMPI PUSH2 0x1553 JUMP JUMPDEST PUSH2 0x157C PUSH2 0x2B2 JUMP JUMPDEST PUSH2 0x1553 JUMP JUMPDEST ISZERO PUSH2 0x1588 JUMPI JUMP JUMPDEST POP PUSH1 0x40 MLOAD PUSH3 0x461BCD PUSH1 0xE5 SHL DUP2 MSTORE PUSH1 0x20 PUSH1 0x4 DUP3 ADD MSTORE PUSH1 0x2A PUSH1 0x24 DUP3 ADD MSTORE PUSH32 0x5361666545524332303A204552433230206F7065726174696F6E20646964206E PUSH1 0x44 DUP3 ADD MSTORE PUSH10 0x1BDD081CDD58D8D95959 PUSH1 0xB2 SHL PUSH1 0x64 DUP3 ADD MSTORE PUSH1 0x84 SWAP1 REVERT JUMPDEST PUSH2 0x2F2 SWAP2 PUSH2 0x15F1 PUSH2 0x1600 SWAP3 PUSH2 0x408 JUMP JUMPDEST SWAP1 PUSH2 0x15FA PUSH2 0x1543 JUMP JUMPDEST SWAP2 PUSH2 0x163E JUMP JUMPDEST DUP1 MLOAD PUSH2 0x160F PUSH2 0xE8E PUSH1 0x0 PUSH2 0x714 JUMP JUMPDEST EQ SWAP1 DUP2 ISZERO PUSH2 0x161E JUMPI JUMPDEST POP PUSH2 0x1581 JUMP JUMPDEST PUSH2 0x1638 SWAP2 POP PUSH1 0x20 PUSH2 0x162D DUP3 MLOAD SWAP1 JUMP JUMPDEST DUP2 DUP4 ADD ADD SWAP2 ADD PUSH2 0x1560 JUMP JUMPDEST CODESIZE PUSH2 0x1618 JUMP JUMPDEST PUSH2 0x361 SWAP3 SWAP2 PUSH2 0x164D PUSH1 0x0 PUSH2 0x714 JUMP JUMPDEST SWAP2 PUSH2 0x16CE JUMP JUMPDEST ISZERO PUSH2 0x165A JUMPI JUMP JUMPDEST POP PUSH1 0x40 MLOAD PUSH3 0x461BCD PUSH1 0xE5 SHL DUP2 MSTORE PUSH1 0x20 PUSH1 0x4 DUP3 ADD MSTORE PUSH1 0x26 PUSH1 0x24 DUP3 ADD MSTORE PUSH32 0x416464726573733A20696E73756666696369656E742062616C616E636520666F PUSH1 0x44 DUP3 ADD MSTORE PUSH6 0x1C8818D85B1B PUSH1 0xD2 SHL PUSH1 0x64 DUP3 ADD MSTORE PUSH1 0x84 SWAP1 REVERT JUMPDEST RETURNDATASIZE ISZERO PUSH2 0x16C9 JUMPI PUSH2 0x16BE RETURNDATASIZE PUSH2 0x1503 JUMP JUMPDEST SWAP1 RETURNDATASIZE PUSH1 0x0 PUSH1 0x20 DUP5 ADD RETURNDATACOPY JUMP JUMPDEST PUSH1 0x60 SWAP1 JUMP JUMPDEST SWAP1 PUSH1 0x0 PUSH2 0x361 SWAP5 SWAP4 DUP2 SWAP3 PUSH2 0x16E0 PUSH1 0x60 SWAP1 JUMP JUMPDEST POP PUSH2 0x16F7 PUSH2 0x16ED ADDRESS PUSH2 0x408 JUMP JUMPDEST DUP4 SWAP1 BALANCE LT ISZERO PUSH2 0x1653 JUMP JUMPDEST PUSH1 0x20 DUP2 ADD SWAP1 MLOAD SWAP2 DUP6 GAS CALL PUSH2 0x1709 PUSH2 0x16AF JUMP JUMPDEST SWAP2 PUSH2 0x175C JUMP JUMPDEST ISZERO PUSH2 0x1716 JUMPI JUMP JUMPDEST POP PUSH1 0x40 MLOAD PUSH3 0x461BCD PUSH1 0xE5 SHL DUP2 MSTORE PUSH1 0x20 PUSH1 0x4 DUP3 ADD MSTORE PUSH1 0x1D PUSH1 0x24 DUP3 ADD MSTORE PUSH32 0x416464726573733A2063616C6C20746F206E6F6E2D636F6E7472616374000000 PUSH1 0x44 DUP3 ADD MSTORE PUSH1 0x64 SWAP1 REVERT JUMPDEST SWAP2 SWAP3 PUSH1 0x60 SWAP2 ISZERO PUSH2 0x1791 JUMPI POP POP DUP2 MLOAD PUSH2 0x1777 PUSH2 0xE8E PUSH1 0x0 PUSH2 0x714 JUMP JUMPDEST EQ PUSH2 0x1780 JUMPI POP SWAP1 JUMP JUMPDEST PUSH2 0x178C PUSH2 0x361 SWAP2 PUSH2 0x179E JUMP JUMPDEST PUSH2 0x170F JUMP JUMPDEST SWAP1 SWAP4 SWAP3 PUSH2 0x2F2 SWAP3 POP PUSH2 0x1820 JUMP JUMPDEST EXTCODESIZE PUSH2 0x17AC PUSH2 0xE8E PUSH1 0x0 PUSH2 0x714 JUMP JUMPDEST GT SWAP1 JUMP JUMPDEST SWAP2 DUP1 SWAP2 SWAP3 PUSH1 0x0 SWAP1 JUMPDEST DUP3 DUP3 LT PUSH2 0x17D0 JUMPI POP GT PUSH2 0x17C9 JUMPI POP POP JUMP JUMPDEST PUSH1 0x0 SWAP2 ADD MSTORE JUMP JUMPDEST SWAP2 POP DUP1 PUSH1 0x20 SWAP2 DUP4 ADD MLOAD DUP2 DUP7 ADD MSTORE ADD DUP3 SWAP2 PUSH2 0x17B8 JUMP JUMPDEST PUSH2 0x1806 PUSH2 0x721 PUSH1 0x20 SWAP4 PUSH2 0x493 SWAP4 PUSH2 0x17FA DUP2 MLOAD SWAP1 JUMP JUMPDEST DUP1 DUP4 MSTORE SWAP4 DUP5 SWAP3 PUSH1 0x20 ADD SWAP1 JUMP JUMPDEST SWAP6 DUP7 SWAP2 ADD PUSH2 0x17B0 JUMP JUMPDEST PUSH1 0x20 DUP1 DUP3 MSTORE PUSH2 0x361 SWAP3 SWAP2 ADD SWAP1 PUSH2 0x17E5 JUMP JUMPDEST SWAP2 POP PUSH2 0x182A DUP3 MLOAD SWAP1 JUMP JUMPDEST PUSH2 0x1837 PUSH2 0xE8E PUSH1 0x0 PUSH2 0x714 JUMP JUMPDEST GT ISZERO PUSH2 0x1846 JUMPI POP DUP1 MLOAD SWAP1 PUSH1 0x20 ADD REVERT JUMPDEST PUSH1 0x40 MLOAD PUSH2 0x4E8 SWAP3 POP PUSH3 0x461BCD PUSH1 0xE5 SHL DUP2 MSTORE SWAP2 DUP3 SWAP2 PUSH1 0x4 DUP4 ADD PUSH2 0x180F JUMP JUMPDEST PUSH2 0x2F2 SWAP1 PUSH2 0x186F PUSH2 0x4EC JUMP JUMPDEST PUSH2 0x2F2 SWAP1 PUSH2 0x18BD JUMP JUMPDEST PUSH2 0x2F2 SWAP1 PUSH2 0x1863 JUMP JUMPDEST PUSH2 0x2F2 SWAP1 PUSH2 0x188D PUSH2 0x4EC JUMP JUMPDEST PUSH2 0x2F2 SWAP1 PUSH2 0x1933 JUMP JUMPDEST PUSH2 0x2F2 SWAP1 PUSH2 0x1881 JUMP JUMPDEST PUSH2 0x2F2 SWAP1 PUSH2 0x18AB PUSH2 0x4EC JUMP JUMPDEST PUSH2 0x2F2 SWAP1 PUSH2 0x198C JUMP JUMPDEST PUSH2 0x2F2 SWAP1 PUSH2 0x189F JUMP JUMPDEST PUSH2 0x18CA PUSH2 0x355 PUSH1 0x0 PUSH2 0x470 JUMP JUMPDEST PUSH1 0x1 PUSH1 0x1 PUSH1 0xA0 SHL SUB DUP3 AND EQ PUSH2 0x191F JUMPI PUSH2 0x18E4 DUP2 PUSH1 0x4 PUSH2 0x546 JUMP JUMPDEST PUSH2 0x190E PUSH32 0xDBEBFBA65BD6398FB722063EFC10C99F624F9CD8BA657201056AF918A676D5EE SWAP2 PUSH2 0x408 JUMP JUMPDEST SWAP1 PUSH2 0x1918 PUSH1 0x40 MLOAD SWAP1 JUMP JUMPDEST DUP1 DUP1 PUSH2 0x1211 JUMP JUMPDEST POP POP PUSH1 0x40 MLOAD PUSH4 0xE6C4247B PUSH1 0xE0 SHL DUP2 MSTORE PUSH1 0x4 SWAP1 REVERT JUMPDEST PUSH2 0x1940 PUSH2 0x355 PUSH1 0x0 PUSH2 0x470 JUMP JUMPDEST PUSH1 0x1 PUSH1 0x1 PUSH1 0xA0 SHL SUB DUP3 AND EQ PUSH2 0x191F JUMPI PUSH2 0x1962 PUSH2 0x195B DUP3 PUSH2 0x408 JUMP JUMPDEST PUSH1 0x3 PUSH2 0x546 JUMP JUMPDEST PUSH2 0x190E PUSH32 0x4C6985B6BCDFF2E07F21D65FE227C4AFAA9769E02B23C2A32C0E8A66FC707F8 SWAP2 PUSH2 0x408 JUMP JUMPDEST PUSH2 0x1999 PUSH2 0x355 PUSH1 0x0 PUSH2 0x470 JUMP JUMPDEST PUSH1 0x1 PUSH1 0x1 PUSH1 0xA0 SHL SUB DUP3 AND EQ PUSH2 0x191F JUMPI PUSH2 0x19BB PUSH2 0x19B4 DUP3 PUSH2 0x408 JUMP JUMPDEST PUSH1 0x2 PUSH2 0x546 JUMP JUMPDEST PUSH2 0x190E PUSH32 0x7011B0B15512F533140457FCA55819676A0497D4AFE5C3D7A3524D951A0C4C8 SWAP2 PUSH2 0x408 JUMP JUMPDEST DUP2 NOT DUP2 GT PUSH2 0x19F1 JUMPI ADD SWAP1 JUMP JUMPDEST PUSH2 0x493 PUSH2 0xE71 JUMP JUMPDEST PUSH1 0xC0 DUP2 ADD DUP1 MLOAD MLOAD PUSH1 0x0 SWAP4 SWAP3 SWAP1 SWAP2 PUSH1 0xE0 DUP3 ADD SWAP3 PUSH2 0x1A1A PUSH2 0xE8E PUSH2 0x361 DUP7 MLOAD MLOAD SWAP1 JUMP JUMPDEST EQ DUP1 PUSH2 0x1D61 JUMPI JUMPDEST ISZERO JUMPDEST PUSH2 0x1D44 JUMPI PUSH1 0xA0 DUP3 ADD MLOAD TIMESTAMP GT PUSH2 0x1D27 JUMPI PUSH1 0x80 DUP3 ADD SWAP4 PUSH2 0x1A3F DUP6 MLOAD SWAP1 JUMP JUMPDEST PUSH1 0x0 SWAP1 PUSH2 0x1A4E PUSH2 0xE8E DUP4 PUSH2 0x714 JUMP JUMPDEST EQ PUSH2 0x1D08 JUMPI PUSH2 0x120 DUP5 ADD MLOAD SWAP2 PUSH2 0x1A63 DUP5 MLOAD MLOAD SWAP1 JUMP JUMPDEST SWAP7 PUSH2 0x1A6D DUP4 PUSH2 0x714 JUMP JUMPDEST DUP9 EQ PUSH2 0x1CF6 JUMPI PUSH4 0x23B872DD PUSH1 0xE0 SHL SWAP3 PUSH1 0x40 DUP8 ADD SWAP1 PUSH2 0x1A96 PUSH2 0xED5 DUP1 DUP5 MLOAD PUSH1 0x1 PUSH1 0x1 PUSH1 0xA0 SHL SUB AND SWAP1 JUMP JUMPDEST SWAP2 PUSH4 0x70A08231 SWAP1 PUSH2 0x1AA6 ADDRESS PUSH2 0x408 JUMP JUMPDEST SWAP3 PUSH1 0x20 PUSH2 0x1AB2 PUSH1 0x40 MLOAD SWAP1 JUMP JUMPDEST DUP1 SWAP7 PUSH2 0x1ABE DUP7 PUSH1 0xE0 SHL SWAP1 JUMP JUMPDEST DUP3 MSTORE PUSH1 0x1 PUSH1 0x1 PUSH1 0xA0 SHL SUB DUP8 AND PUSH1 0x4 DUP4 ADD MSTORE PUSH1 0x24 SWAP1 DUP3 SWAP1 GAS STATICCALL SWAP5 DUP6 ISZERO PUSH2 0x1CE9 JUMPI JUMPDEST PUSH1 0x0 SWAP6 PUSH2 0x1CCA JUMPI JUMPDEST POP SWAP12 PUSH2 0x1AFB PUSH2 0x1AF6 DUP3 SWAP16 SWAP15 PUSH2 0x714 JUMP JUMPDEST SWAP14 SWAP2 SWAP1 JUMP JUMPDEST DUP2 LT ISZERO PUSH2 0x1BEE JUMPI PUSH2 0x1B11 PUSH1 0x20 DUP15 ADD DUP11 ADD MLOAD PUSH2 0x13E2 JUMP JUMPDEST PUSH1 0x1 PUSH1 0x1 PUSH1 0xE0 SHL SUB NOT DUP10 DUP2 AND SWAP2 AND EQ PUSH2 0x1BC8 JUMPI PUSH2 0x1B7A PUSH2 0x1B76 DUP11 DUP16 DUP16 SWAP1 DUP16 SWAP2 DUP16 PUSH2 0x1B65 DUP9 PUSH2 0x1B69 PUSH2 0x1B65 DUP3 PUSH2 0x100 PUSH2 0x1B5D PUSH2 0x1B50 DUP4 PUSH2 0x1B70 SWAP10 MLOAD PUSH2 0x911 JUMP JUMPDEST MLOAD PUSH1 0x1 PUSH1 0x1 PUSH1 0xA0 SHL SUB AND SWAP1 JUMP JUMPDEST SWAP10 ADD MLOAD PUSH2 0x911 JUMP JUMPDEST MLOAD SWAP1 JUMP JUMPDEST SWAP4 MLOAD PUSH2 0x911 JUMP JUMPDEST SWAP3 PUSH2 0x1D89 JUMP JUMPDEST ISZERO SWAP1 JUMP JUMPDEST PUSH2 0x1BA2 JUMPI DUP14 SWAP13 DUP2 DUP14 MLOAD SWAP1 PUSH2 0x1B8D SWAP2 PUSH2 0x911 JUMP JUMPDEST MLOAD PUSH2 0x1B97 SWAP2 PUSH2 0x19E5 JUMP JUMPDEST SWAP1 PUSH1 0x1 ADD SWAP1 SWAP13 PUSH2 0x1AFB JUMP JUMPDEST POP POP POP POP POP POP POP POP POP POP POP POP POP POP PUSH2 0x1BB9 PUSH1 0x40 MLOAD SWAP1 JUMP JUMPDEST PUSH4 0x9DB50FF1 PUSH1 0xE0 SHL DUP2 MSTORE PUSH1 0x4 SWAP1 REVERT JUMPDEST POP POP POP POP POP POP POP POP POP POP POP POP POP POP PUSH2 0x1BDF PUSH1 0x40 MLOAD SWAP1 JUMP JUMPDEST PUSH4 0x99DF362B PUSH1 0xE0 SHL DUP2 MSTORE PUSH1 0x4 SWAP1 REVERT JUMPDEST POP SWAP1 SWAP6 POP PUSH2 0x1C4E SWAP12 POP PUSH2 0x1C37 SWAP5 SWAP11 POP PUSH2 0x1C20 SWAP4 SWAP10 POP PUSH2 0xED5 SWAP3 SWAP9 POP PUSH1 0x20 SWAP8 POP PUSH2 0xED5 SWAP2 SWAP7 POP MLOAD PUSH1 0x1 PUSH1 0x1 PUSH1 0xA0 SHL SUB AND SWAP1 JUMP JUMPDEST SWAP2 PUSH2 0x1C2A PUSH1 0x40 MLOAD SWAP1 JUMP JUMPDEST SWAP9 DUP10 SWAP5 DUP6 SWAP4 DUP5 SWAP4 PUSH1 0xE0 SHL SWAP1 JUMP JUMPDEST DUP4 MSTORE PUSH1 0x1 PUSH1 0x1 PUSH1 0xA0 SHL SUB AND PUSH1 0x4 DUP4 ADD MSTORE PUSH1 0x24 DUP3 ADD SWAP1 JUMP JUMPDEST SUB SWAP2 GAS STATICCALL SWAP4 DUP5 ISZERO PUSH2 0x1CBD JUMPI JUMPDEST PUSH1 0x0 SWAP5 PUSH2 0x1C96 JUMPI JUMPDEST POP PUSH2 0xE8E PUSH2 0x361 PUSH2 0x1C76 PUSH2 0x1C7B SWAP4 DUP8 PUSH2 0xE88 JUMP JUMPDEST SWAP4 MLOAD SWAP1 JUMP JUMPDEST LT PUSH2 0x1C82 JUMPI JUMP JUMPDEST POP POP PUSH1 0x40 MLOAD PUSH4 0x8C613A9 PUSH1 0xE4 SHL DUP2 MSTORE PUSH1 0x4 SWAP1 REVERT JUMPDEST PUSH2 0x1C7B SWAP2 SWAP5 POP PUSH2 0x361 PUSH2 0x1C76 PUSH2 0x1CB3 PUSH2 0xE8E SWAP4 PUSH2 0x127B RETURNDATASIZE DUP3 PUSH2 0x742 JUMP JUMPDEST SWAP7 SWAP4 POP POP POP PUSH2 0x1C62 JUMP JUMPDEST PUSH2 0x1CC5 PUSH2 0x79F JUMP JUMPDEST PUSH2 0x1C5A JUMP JUMPDEST PUSH2 0x1AFB SWAP2 SWAP6 POP PUSH2 0x1CE1 PUSH2 0x1AF6 SWAP2 PUSH2 0x127B RETURNDATASIZE DUP3 PUSH2 0x742 JUMP JUMPDEST SWAP6 SWAP2 POP PUSH2 0x1AE6 JUMP JUMPDEST PUSH2 0x1CF1 PUSH2 0x79F JUMP JUMPDEST PUSH2 0x1ADE JUMP JUMPDEST POP POP POP POP POP POP POP POP POP PUSH2 0x1344 PUSH1 0x40 MLOAD SWAP1 JUMP JUMPDEST POP POP POP POP POP POP POP PUSH2 0x1D18 PUSH1 0x40 MLOAD SWAP1 JUMP JUMPDEST PUSH4 0x7817658F PUSH1 0xE1 SHL DUP2 MSTORE PUSH1 0x4 SWAP1 REVERT JUMPDEST POP POP POP POP POP PUSH2 0x1D35 PUSH1 0x40 MLOAD SWAP1 JUMP JUMPDEST PUSH4 0x96E4471 PUSH1 0xE2 SHL DUP2 MSTORE PUSH1 0x4 SWAP1 REVERT JUMPDEST POP POP POP POP POP PUSH2 0x1D52 PUSH1 0x40 MLOAD SWAP1 JUMP JUMPDEST PUSH4 0x7F53694F PUSH1 0xE1 SHL DUP2 MSTORE PUSH1 0x4 SWAP1 REVERT JUMPDEST POP PUSH2 0x1A23 PUSH2 0x1D6E DUP3 MLOAD MLOAD SWAP1 JUMP JUMPDEST PUSH2 0x1D81 PUSH2 0xE8E PUSH2 0x361 PUSH2 0x100 DUP8 ADD MLOAD MLOAD SWAP1 JUMP JUMPDEST EQ SWAP1 POP PUSH2 0x1A21 JUMP JUMPDEST SWAP1 PUSH1 0x0 SWAP5 SWAP4 SWAP3 PUSH2 0x1D97 PUSH1 0x0 SWAP1 JUMP JUMPDEST POP PUSH1 0x20 PUSH1 0x40 MLOAD SWAP6 ADD ADD SWAP2 GAS CALL SWAP1 JUMP INVALID LOG3 PUSH5 0x6970667358 0x22 SLT KECCAK256 SWAP14 0x24 0xF7 0xA6 ORIGIN SWAP1 DELEGATECALL MSTORE8 INVALID 0xD1 0x26 STATICCALL 0xDC PUSH14 0x6B5A55C957DE75EA6892B3B2BAE1 PUSH27 0xDEF79C6C6578706572696D656E74616CF564736F6C634300080C00 COINBASE "},"methodIdentifiers":{"acceptOwnership()":"79ba5097","changeOperator(address)":"06394c9b","changeRewardDistributor(address)":"28f59f05","changeRewardHarvester(address)":"a10843ec","claimSwapAndDepositReward((bytes32,address,address,uint256,uint256,uint256,address[],uint256[],uint256[],bytes,bytes32[])[])":"0027edb1","operator()":"570ca735","owner()":"8da5cb5b","pendingOwner()":"e30c3978","renounceOwnership()":"715018a6","rewardDistributor()":"acc2166a","rewardHarvester()":"b966b683","transferOwnership(address)":"f2fde38b"}}}}}