{"contracts/RewardHarvester.sol":{"RewardHarvester":{"abi":[{"inputs":[{"internalType":"address","name":"_rewardSwapper","type":"address"},{"internalType":"address","name":"_operator","type":"address"},{"internalType":"address","name":"_defaultToken","type":"address"}],"stateMutability":"nonpayable","type":"constructor"},{"inputs":[],"name":"InvalidAddress","type":"error"},{"inputs":[],"name":"InvalidAmount","type":"error"},{"inputs":[],"name":"InvalidClaim","type":"error"},{"inputs":[],"name":"InvalidDistribution","type":"error"},{"inputs":[],"name":"InvalidFee","type":"error"},{"inputs":[],"name":"InvalidMerkleRoot","type":"error"},{"inputs":[],"name":"InvalidOperator","type":"error"},{"inputs":[],"name":"InvalidProof","type":"error"},{"inputs":[],"name":"InvalidTimerDuration","type":"error"},{"inputs":[],"name":"InvalidToken","type":"error"},{"inputs":[],"name":"NotAuthorized","type":"error"},{"inputs":[],"name":"RewardInactive","type":"error"},{"anonymous":false,"inputs":[{"indexed":true,"internalType":"address","name":"token","type":"address"},{"indexed":false,"internalType":"uint256","name":"totalAmount","type":"uint256"}],"name":"BribeTransferred","type":"event"},{"anonymous":false,"inputs":[{"indexed":true,"internalType":"address","name":"token","type":"address"}],"name":"DefaultTokenUpdated","type":"event"},{"anonymous":false,"inputs":[{"indexed":true,"internalType":"address","name":"token","type":"address"},{"indexed":false,"internalType":"uint256","name":"amount","type":"uint256"}],"name":"FeesCollected","type":"event"},{"anonymous":false,"inputs":[{"indexed":false,"internalType":"address","name":"member","type":"address"}],"name":"MemberJoined","type":"event"},{"anonymous":false,"inputs":[{"indexed":false,"internalType":"address","name":"member","type":"address"}],"name":"MemberLeft","type":"event"},{"anonymous":false,"inputs":[{"indexed":true,"internalType":"address","name":"previousOwner","type":"address"},{"indexed":true,"internalType":"address","name":"newOwner","type":"address"}],"name":"OwnershipTransferStarted","type":"event"},{"anonymous":false,"inputs":[{"indexed":true,"internalType":"address","name":"previousOwner","type":"address"},{"indexed":true,"internalType":"address","name":"newOwner","type":"address"}],"name":"OwnershipTransferred","type":"event"},{"anonymous":false,"inputs":[{"indexed":true,"internalType":"address","name":"token","type":"address"},{"indexed":true,"internalType":"address","name":"account","type":"address"},{"indexed":false,"internalType":"uint256","name":"amount","type":"uint256"},{"indexed":false,"internalType":"uint256","name":"postFeeAmount","type":"uint256"},{"indexed":false,"internalType":"address","name":"receiver","type":"address"}],"name":"RewardClaimed","type":"event"},{"anonymous":false,"inputs":[{"indexed":true,"internalType":"address","name":"token","type":"address"},{"indexed":false,"internalType":"bytes32","name":"merkleRoot","type":"bytes32"},{"indexed":false,"internalType":"bytes32","name":"proof","type":"bytes32"},{"indexed":false,"internalType":"uint256","name":"activeAt","type":"uint256"}],"name":"RewardMetadataUpdated","type":"event"},{"anonymous":false,"inputs":[{"indexed":false,"internalType":"uint256","name":"duration","type":"uint256"}],"name":"SetActiveTimerDuration","type":"event"},{"anonymous":false,"inputs":[{"indexed":true,"internalType":"address","name":"claimer","type":"address"}],"name":"SetClaimer","type":"event"},{"anonymous":false,"inputs":[{"indexed":true,"internalType":"address","name":"operator","type":"address"}],"name":"SetOperator","type":"event"},{"anonymous":false,"inputs":[{"indexed":true,"internalType":"address","name":"rewardSwapper","type":"address"}],"name":"SetRewardSwapper","type":"event"},{"inputs":[],"name":"FEE_BASIS","outputs":[{"internalType":"uint256","name":"","type":"uint256"}],"stateMutability":"view","type":"function"},{"inputs":[],"name":"MAX_FEE","outputs":[{"internalType":"uint256","name":"","type":"uint256"}],"stateMutability":"view","type":"function"},{"inputs":[],"name":"MINIMUM_ACTIVE_TIMER","outputs":[{"internalType":"uint256","name":"","type":"uint256"}],"stateMutability":"view","type":"function"},{"inputs":[],"name":"acceptOwnership","outputs":[],"stateMutability":"nonpayable","type":"function"},{"inputs":[],"name":"activeTimerDuration","outputs":[{"internalType":"uint256","name":"","type":"uint256"}],"stateMutability":"view","type":"function"},{"inputs":[{"internalType":"uint256","name":"_duration","type":"uint256"}],"name":"changeActiveTimerDuration","outputs":[],"stateMutability":"nonpayable","type":"function"},{"inputs":[{"internalType":"address","name":"_claimer","type":"address"}],"name":"changeClaimer","outputs":[],"stateMutability":"nonpayable","type":"function"},{"inputs":[{"internalType":"address","name":"_newToken","type":"address"}],"name":"changeDefaultToken","outputs":[],"stateMutability":"nonpayable","type":"function"},{"inputs":[{"internalType":"address","name":"_operator","type":"address"}],"name":"changeOperator","outputs":[],"stateMutability":"nonpayable","type":"function"},{"inputs":[{"internalType":"address","name":"_newSwapper","type":"address"}],"name":"changeRewardSwapper","outputs":[],"stateMutability":"nonpayable","type":"function"},{"inputs":[{"internalType":"address","name":"_token","type":"address"},{"internalType":"address","name":"_account","type":"address"},{"internalType":"uint256","name":"_amount","type":"uint256"},{"internalType":"bytes32[]","name":"_merkleProof","type":"bytes32[]"},{"internalType":"uint256","name":"_fee","type":"uint256"},{"internalType":"address","name":"_receiver","type":"address"}],"name":"claim","outputs":[],"stateMutability":"nonpayable","type":"function"},{"inputs":[{"internalType":"address","name":"","type":"address"},{"internalType":"address","name":"","type":"address"}],"name":"claimed","outputs":[{"internalType":"uint256","name":"","type":"uint256"}],"stateMutability":"view","type":"function"},{"inputs":[],"name":"claimer","outputs":[{"internalType":"address","name":"","type":"address"}],"stateMutability":"view","type":"function"},{"inputs":[{"internalType":"address","name":"_token","type":"address"}],"name":"collectFees","outputs":[],"stateMutability":"nonpayable","type":"function"},{"inputs":[],"name":"defaultToken","outputs":[{"internalType":"address","name":"","type":"address"}],"stateMutability":"view","type":"function"},{"inputs":[{"internalType":"uint256","name":"_amount","type":"uint256"}],"name":"depositReward","outputs":[],"stateMutability":"nonpayable","type":"function"},{"inputs":[{"internalType":"address","name":"","type":"address"}],"name":"feesCollected","outputs":[{"internalType":"uint256","name":"","type":"uint256"}],"stateMutability":"view","type":"function"},{"inputs":[{"internalType":"address","name":"","type":"address"}],"name":"isMember","outputs":[{"internalType":"bool","name":"","type":"bool"}],"stateMutability":"view","type":"function"},{"inputs":[],"name":"join","outputs":[],"stateMutability":"nonpayable","type":"function"},{"inputs":[],"name":"leave","outputs":[],"stateMutability":"nonpayable","type":"function"},{"inputs":[],"name":"operator","outputs":[{"internalType":"address","name":"","type":"address"}],"stateMutability":"view","type":"function"},{"inputs":[],"name":"owner","outputs":[{"internalType":"address","name":"","type":"address"}],"stateMutability":"view","type":"function"},{"inputs":[],"name":"pendingOwner","outputs":[{"internalType":"address","name":"","type":"address"}],"stateMutability":"view","type":"function"},{"inputs":[],"name":"renounceOwnership","outputs":[],"stateMutability":"nonpayable","type":"function"},{"inputs":[],"name":"rewardSwapper","outputs":[{"internalType":"address","name":"","type":"address"}],"stateMutability":"view","type":"function"},{"inputs":[{"internalType":"address","name":"","type":"address"}],"name":"rewards","outputs":[{"internalType":"bytes32","name":"merkleRoot","type":"bytes32"},{"internalType":"bytes32","name":"hashedData","type":"bytes32"},{"internalType":"uint256","name":"activeAt","type":"uint256"}],"stateMutability":"view","type":"function"},{"inputs":[{"internalType":"address","name":"newOwner","type":"address"}],"name":"transferOwnership","outputs":[],"stateMutability":"nonpayable","type":"function"},{"inputs":[{"internalType":"address","name":"_token","type":"address"},{"internalType":"bytes32","name":"_merkleRoot","type":"bytes32"},{"internalType":"bytes32","name":"_hashedData","type":"bytes32"}],"name":"updateRewardsMetadata","outputs":[],"stateMutability":"nonpayable","type":"function"}],"evm":{"bytecode":{"linkReferences":{},"object":"60806040523462000032575b620000206200001962000122565b9162000167565b604051611dcf620004fe8239611dcf90f35b6200003c62000042565b6200000b565b50600080fd5b50634e487b7160e01b600052604160045260246000fd5b90601f01601f191681019081106001600160401b038211176200008157604052565b6200008b62000048565b604052565b90620000a76200009f60405190565b92836200005f565b565b6001600160a01b031690565b90565b6001600160a01b03811614156200004257565b90505190620000a782620000b8565b909160608284031262000112575b620000b5620000f88484620000cb565b93620001088160208601620000cb565b93604001620000cb565b6200011c62000042565b620000e8565b62000145620022cd80380380620001398162000090565b928339810190620000da565b909192565b620000b5620000b5620000b59290565b620000b5612a306200014a565b906200018c9062000186620001929462000180620001a6565b62000306565b620003f1565b62000384565b620000a7620001a06200015a565b62000485565b620000a780336200022d565b916001600160a01b0360089290920291821b911b5b9181191691161790565b620000b590620000a9906001600160a01b031682565b620000b590620001d1565b620000b590620001e7565b919062000212620000b56200021b93620001f2565b908354620001b2565b9055565b620000a791600091620001fd565b620000a79062000240600060016200021f565b62000289565b620000b590620000a9565b620000b5905462000246565b906001600160a01b0390620001c7565b9062000281620000b56200021b92620001f2565b82546200025d565b62000295600062000251565b90620002a38160006200026d565b620002da620002d37f8be0079c531659141344cd1fd0a4f28419497f9722a3daafe3b4186f6b6457e093620001f2565b91620001f2565b91620002e560405190565b600090a3565b620000a9620000b5620000b59290565b620000b590620002eb565b62000316620000a96000620002fb565b6001600160a01b038216146200037057620003338160066200026d565b6200035f7f2ffae89a4970d1ff9bf1a765b00d7eee23cd328cdaaab85b7ce9e5379c1ece3291620001f2565b906200036a60405190565b600090a2565b505060405163c1ab6dc160e01b8152600490fd5b62000394620000a96000620002fb565b6001600160a01b03821614620003dd57620003b18160096200026d565b6200035f7f5326c5ebddd2feafb723c3b63cc83fb32a9c8dd7d05476832b798d9782bad87891620001f2565b505060405163e6c4247b60e01b8152600490fd5b62000401620000a96000620002fb565b6001600160a01b038216146200044a576200041e8160076200026d565b6200035f7fdbebfba65bd6398fb722063efc10c99f624f9cd8ba657201056af918a676d5ee91620001f2565b505060405163ccea9e6f60e01b8152600490fd5b9060001990620001c7565b906200047d620000b56200021b926200014a565b82546200045e565b62000493620000b56200015a565b8110620004e957620004a781600a62000469565b620004e47f676dc704f22ddab12a141690a96616ef0128413803c63394aba7ffe658681a1691620004d760405190565b9182918290815260200190565b0390a1565b50506040516367e00a0760e01b8152600490fdfe60806040526004361015610018575b61001661061e565b005b60003560e01c806303aaf08b146105f757806306394c9b146105d05780630700037d146105965780630c9cbf0e1461056b5780630cc630c714610543578063101cef481461051c5780631e2720ff146104f557806333f642f6146104cb57806348a61ff51461049d5780635512b81114610473578063570ca735146104495780635b2478ea1461041f578063715018a6146103f857806374c13fda146103ce57806379ba5097146103a75780637fdba5f61461037d5780638686ebcc146103535780638da5cb5b146103295780638e3fb0d314610302578063960d264d146102db578063a230c5241461029f578063a480ca7914610278578063b688a36314610251578063bc063e1a14610216578063d379be23146101ec578063d66d9e19146101c5578063e30c3978146101805763f2fde38b146101565761000e565b34610173575b61001661016a366004610655565b610b3b565b0390f35b61017b61061e565b61015c565b50346101b8575b6101923660046107f0565b61016f61019d610a97565b6040515b918291826001600160a01b03909116815260200190565b6101c061061e565b610187565b50346101df575b6101d73660046107f0565b610016610cc4565b6101e761061e565b6101cc565b5034610209575b6101fe3660046107f0565b61016f61019d6109ab565b61021161061e565b6101f3565b5034610244575b6102283660046107f0565b61016f6102336109a3565b6040515b9182918290815260200190565b61024c61061e565b61021d565b503461026b575b6102633660046107f0565b610016610c7b565b61027361061e565b610258565b5034610292575b61001661028d366004610655565b611b10565b61029a61061e565b61027f565b50346102ce575b61016f6102bc6102b7366004610655565b610980565b60405191829182901515815260200190565b6102d661061e565b6102a6565b50346102f5575b6100166102f03660046107cf565b611c13565b6102fd61061e565b6102e2565b503461031c575b610016610317366004610655565b611b4c565b61032461061e565b610309565b5034610346575b61033b3660046107f0565b61016f61019d6109ca565b61034e61061e565b610330565b5034610370575b6103653660046107f0565b61016f61023361095f565b61037861061e565b61035a565b503461039a575b61038f3660046107f0565b61016f61023361094b565b6103a261061e565b610384565b50346103c1575b6103b93660046107f0565b610016610c34565b6103c961061e565b6103ae565b50346103eb575b6103e03660046107f0565b61016f61019d610927565b6103f361061e565b6103d5565b5034610412575b61040a3660046107f0565b610016610a0c565b61041a61061e565b6103ff565b503461043c575b61016f610233610437366004610655565b610915565b61044461061e565b610426565b5034610466575b61045b3660046107f0565b61016f61019d610909565b61046e61061e565b610450565b5034610490575b6104853660046107f0565b61016f61019d6108fd565b61049861061e565b61047a565b50346104be575b6100166104b236600461085b565b95949094939193610ecf565b6104c661061e565b6104a4565b50346104e8575b6104dd3660046107f0565b61016f610233610803565b6104f061061e565b6104d2565b503461050f575b61001661050a3660046107cf565b6118c0565b61051761061e565b6104fc565b5034610536575b610016610531366004610655565b611bf5565b61053e61061e565b610523565b503461055e575b610016610558366004610791565b91611a71565b61056661061e565b61054a565b5034610589575b61016f610233610583366004610718565b9061075f565b61059161061e565b610572565b50346105c3575b61016f6105b36105ae366004610655565b6106c5565b6040519193915b938493846106f6565b6105cb61061e565b61059d565b50346105ea575b6100166105e5366004610655565b611b2e565b6105f261061e565b6105d7565b5034610611575b61001661060c366004610655565b611b6a565b61061961061e565b6105fe565b50600080fd5b6001600160a01b031690565b90565b6001600160a01b0381165b141561061e57565b9050359061065382610633565b565b906106309160208183031261066957610646565b61067161061e565b610646565b61063090610624906001600160a01b031682565b61063090610676565b6106309061068a565b906106a690610693565b600052602052604060002090565b6106309081565b61063090546106b4565b6106d090600461069c565b6106d9816106bb565b9161063060026106eb600185016106bb565b93016106bb565b9052565b908152606081019392610653929091604091610714905b6020830152565b0152565b91906106309060408482031261073c575b6107338185610646565b93602001610646565b61074461061e565b610729565b610630916008021c81565b906106309154610749565b6107796106309261077460059360009461069c565b61069c565b610754565b8061063e565b905035906106538261077e565b90916060828403126107c2575b6106306107ab8484610646565b936107b98160208601610784565b93604001610784565b6107ca61061e565b61079e565b90610630916020818303126107e357610784565b6107eb61061e565b610784565b60009103126107fb57565b61065361061e565b6106306000600a610754565b909182601f8301121561084e575b602082359267ffffffffffffffff8411610841575b0192602083028401116107fb57565b61084961061e565b610832565b61085661061e565b61081d565b909160c0828403126108d8575b6108728383610646565b926106306108838260208601610646565b936108918360408301610784565b936108b284606084013567ffffffffffffffff81116108cb575b840161080f565b9390946108c28160808601610784565b9360a001610646565b6108d361061e565b6108ab565b6108e061061e565b610868565b610630916008021c610624565b9061063091546108e5565b610630600060096108f2565b610630600060076108f2565b6106309061077960039160009261069c565b610630600060066108f2565b6106306106306106309290565b610630612a30610933565b610630610940565b610630620f4240610933565b610630610953565b610630916008021c60ff1690565b906106309154610967565b6106309061099260029160009261069c565b610975565b610630620186a0610933565b610630610997565b610630600060086108f2565b61063090610624565b61063090546109b7565b61063060006109c0565b6109dc610a6d565b6106536109fa565b6106246106306106309290565b610630906109e4565b610653610a0760006109f1565b610b82565b6106536109d4565b0190565b15610a1f57565b5060405162461bcd60e51b815280610a69600482016020808252818101527f4f776e61626c653a2063616c6c6572206973206e6f7420746865206f776e6572604082015260600190565b0390fd5b610653610a786109ca565b610a91610a8433610624565b916001600160a01b031690565b14610a18565b61063060016109c0565b61065390610aad610a6d565b610ae2565b906001600160a01b03905b9181191691161790565b90610ad7610630610ade92610693565b8254610ab2565b9055565b610aed816001610ac7565b610af56109ca565b90610b29610b237f38d16b8cac22d99fc7c124b9cd0de2d3fa1faef420bfe791d8c362d765e2270093610693565b91610693565b91610b3360405190565b80805b0390a3565b61065390610aa1565b916001600160a01b0360089290920291821b911b610abd565b9190610b6e610630610ade93610693565b908354610b44565b61065391600091610b5d565b61065390610b9260006001610b76565b610b9c60006109c0565b90610ba8816000610ac7565b610b29610b237f8be0079c531659141344cd1fd0a4f28419497f9722a3daafe3b4186f6b6457e093610693565b15610bdc57565b5060405162461bcd60e51b815260206004820152602960248201527f4f776e61626c6532537465703a2063616c6c6572206973206e6f7420746865206044820152683732bb9037bbb732b960b91b6064820152608490fd5b61065333610a07610c43610a97565b610c556001600160a01b038416610a84565b14610bd5565b9060ff90610abd565b90610c74610630610ade92151590565b8254610c5b565b33610c916001610c8c83600261069c565b610c64565b610cbf7f0abf3b3f643594d958297062a019458e27d7766629590ac621aa1000fa1298ab916101a160405190565b0390a1565b33610cd56000610c8c83600261069c565b610cbf7fbea911b50ccdd2233b28faa49766c3cbd0631608f32e5a724d7b83b32b681ad0916101a160405190565b50634e487b7160e01b600052601160045260246000fd5b90610d24565b9190565b908060001904821181151516610d38570290565b610d40610d03565b0290565b50634e487b7160e01b600052601260045260246000fd5b8115610d65570490565b610d6d610d44565b0490565b818110610d7c570390565b610d84610d03565b0390565b81198111610d94570190565b610a14610d03565b9060001990610abd565b90610db6610630610ade92610933565b8254610d9c565b601f01601f191690565b50634e487b7160e01b600052604160045260246000fd5b90601f01601f1916810190811067ffffffffffffffff821117610e0057604052565b610e08610dc7565b604052565b90610653610e1a60405190565b9283610dde565b6106306060610e0d565b90610653610e696002610e3c610e21565b94610e4d610e49826106bb565b8752565b610e63610e5c600183016106bb565b6020880152565b016106bb565b6040840152565b61063090610e2b565b6106f2906001600160a01b031660601b90565b601481610e9f610a149360209695610e79565b01918252565b908152606081019392610653929091604091610ec09061070d565b01906001600160a01b03169052565b93909433610ee3610a8461062460086109c0565b141561118157600091610ef8610624846109f1565b6001600160a01b0388161461116057610f1083610933565b841461113f57610f21610630610997565b821161111e57610f43610f35879386610d1a565b610f3d610953565b90610d5b565b94610f75610f518787610d71565b96610f6f610f6086600361069c565b91610f6a836106bb565b610d88565b90610da6565b600491610f8a610f85858561069c565b610e70565b94610fa787610f6a610fa28d61077460059a8b61069c565b6106bb565b9581810191610fc0610d20610fba855190565b92610933565b146110f2576040015142106110c7579161102391610fdf611027945190565b908b61100a610fed60405190565b8092610ffe8c602084019283610e8c565b90810382520382610dde565b61101c611015825190565b9160200190565b20926115bd565b1590565b61109f57509061103e86610774876110439561069c565b610da6565b611056828661105186610693565b6111e4565b610b3661108c6110867f70fec9c7f21f70099818a4619c69af3a4677031e67acea18286c0eca3a754bce95610693565b95610693565b9561109660405190565b93849384610ea5565b9650505050505050610a6991506110b560405190565b6309bde33960e01b8152918291820190565b5050509650505050505050610a6991506110e060405190565b630995309b60e01b8152918291820190565b505050509650505050505050610a69915061110c60405190565b630d16b83360e31b8152918291820190565b50505050505050505061113060405190565b6358d620b360e01b8152600490fd5b50505050505050505061115160405190565b63162908e360e11b8152600490fd5b50505050505050505061117260405190565b633b4f091f60e21b8152600490fd5b505050505050505061119260405190565b63ea8e4eb560e01b8152600490fd5b6111ba6111b46106309263ffffffff1690565b60e01b90565b6001600160e01b03191690565b6001600160a01b0390911681526040810192916106539160200152565b611227600492611218610653956111fe63a9059cbb6111a1565b9261120860405190565b96879460208601908152016111c7565b60208201810382520383610dde565b61133b565b610a1460209167ffffffffffffffff811161124b57601f01601f191690565b610dbd610dc7565b906112656112608361122c565b610e0d565b918252565b6112746020611253565b7f5361666545524332303a206c6f772d6c6576656c2063616c6c206661696c6564602082015290565b61063061126a565b80151561063e565b90505190610653826112a5565b90610630916020818303126112ce576112ad565b6112d661061e565b6112ad565b156112e257565b5060405162461bcd60e51b815260206004820152602a60248201527f5361666545524332303a204552433230206f7065726174696f6e20646964206e6044820152691bdd081cdd58d8d9595960b21b6064820152608490fd5b6106539161134b61135a92610693565b9061135461129d565b91611398565b8051611369610d206000610933565b14908115611378575b506112db565b61139291506020611387825190565b8183010191016112ba565b38611372565b61063092916113a76000610933565b91611428565b156113b457565b5060405162461bcd60e51b815260206004820152602660248201527f416464726573733a20696e73756666696369656e742062616c616e636520666f6044820152651c8818d85b1b60d21b6064820152608490fd5b3d15611423576114183d611253565b903d6000602084013e565b606090565b9060006106309493819261143a606090565b5061145161144730610693565b83903110156113ad565b60208101905191855af1611463611409565b916114b6565b1561147057565b5060405162461bcd60e51b815260206004820152601d60248201527f416464726573733a2063616c6c20746f206e6f6e2d636f6e74726163740000006044820152606490fd5b9192606091156114eb57505081516114d1610d206000610933565b146114da575090565b6114e6610630916114f8565b611469565b909392610653925061157a565b3b611506610d206000610933565b1190565b918091926000905b82821061152a575011611523575050565b6000910152565b91508060209183015181860152018291611512565b611560610dbd602093610a1493611554815190565b80835293849260200190565b9586910161150a565b60208082526106309291019061153f565b9150611584825190565b611591610d206000610933565b11156115a05750805190602001fd5b604051610a69925062461bcd60e51b815291829160048301611569565b6115dc9293610d20926115d8926115d2600090565b5061162e565b9290565b1490565b6001906000198114610d94570190565b50634e487b7160e01b600052603260045260246000fd5b9160209181101561161757020190565b61161f6115f0565b020190565b356106308161077e565b6116386000610933565b925b8284101561166e576116626116689161165c611657878787611607565b611624565b90611675565b936115e0565b9261163a565b9250505090565b81811015611690579061063091600052602052604060002090565b61063091600052602052604060002090565b336116b061062460076109c0565b6001600160a01b038216141590816116db575b506116d15761065390611730565b5050604051611192565b90506116ed610a8461062460096109c0565b1415386116c3565b905051906106538261077e565b9061063091602081830312611716576116f5565b61171e61061e565b6116f5565b506040513d6000823e3d90fd5b61173a6000610933565b81146118b65761181761175561175060066109c0565b610693565b61175e81610693565b926370a082319361176e30610693565b9161177860405190565b936117838760e01b90565b85526001600160a01b0384166004860152602085602481865afa9485156118a9575b60009561187f575b50916117c284926117fd9560209533906118ed565b6117e66117cf60066109c0565b976117d960405190565b9586948593849360e01b90565b83526001600160a01b031660048301526024820190565b03915afa908115611872575b600091611854575b50610d71565b9061184f6118457ff1fa0256e6ecba08316eb890d662830768e73136b5b0dbea4c9c8c16ca1747eb92610693565b9261023760405190565b0390a2565b61186c91506118633d82610dde565b3d810190611702565b38611811565b61187a611723565b611809565b60209391955084926117fd9561189c6117c2936118633d82610dde565b97939550509294506117ad565b6118b1611723565b6117a5565b5050604051611151565b610653906116a2565b6001600160a01b039182168152911660208201526060810192916106539160400152565b9061122790611218610653956004956119096323b872dd6111a1565b9361191360405190565b97889560208701908152016118c9565b91903361193361062460076109c0565b6001600160a01b03821614159081611961575b506119545761065392611987565b5050505061119260405190565b9050611971610a846106246109ca565b141538611946565b90610db6610630610ade9290565b9091600092611998610624856109f1565b6001600160a01b03841614611a54576119b084610933565b8114611a3757611a006002946119d0426119ca600a6106bb565b90610d88565b9586916119ed856119e56106308a600461069c565b928301611979565b6119fa8660018301611979565b01610da6565b61184f611a2d7f9ca93988e299d8264919a188c320f8d8efa97e1976a234f3c6c42315fc10b4e094610693565b946105ba60405190565b5050505050611a4560405190565b639dd854d360e01b8152600490fd5b5050505050611a6260405190565b63c1ab6dc160e01b8152600490fd5b906106539291611923565b61065390611a88610a6d565b600390611a98610fa2828461069c565b91600090611aa582610933565b8414611b025761103e83611abb611ac194610933565b9261069c565b611ad582611ace83610693565b33906111e4565b61184f6118457f9dc46f23cfb5ddcad0ae7ea2be38d47fec07bb9382ec7e564efc69e036dd66ce92610693565b505050505061115160405190565b61065390611a7c565b61065390611b25610a6d565b61065390611cc8565b61065390611b19565b61065390611b43610a6d565b61065390611c1c565b61065390611b37565b61065390611b61610a6d565b61065390611c77565b61065390611b55565b61065390611b7f610a6d565b611b8c61062460006109f1565b6001600160a01b03821614611be157611ba6816008610ac7565b611bd07fdfe91dcad2adcb1ecd18d2e830b469081211d6743c1e2dfa893836431fb7879491610693565b90611bda60405190565b808061184f565b505060405163e6c4247b60e01b8152600490fd5b61065390611b73565b61065390611c0a610a6d565b61065390611d2d565b61065390611bfe565b611c2961062460006109f1565b6001600160a01b03821614611c6d57611c43816006610ac7565b611bd07f2ffae89a4970d1ff9bf1a765b00d7eee23cd328cdaaab85b7ce9e5379c1ece3291610693565b5050604051611a62565b611c8461062460006109f1565b6001600160a01b03821614611be157611c9e816009610ac7565b611bd07f5326c5ebddd2feafb723c3b63cc83fb32a9c8dd7d05476832b798d9782bad87891610693565b611cd561062460006109f1565b6001600160a01b03821614611d1957611cef816007610ac7565b611bd07fdbebfba65bd6398fb722063efc10c99f624f9cd8ba657201056af918a676d5ee91610693565b505060405163ccea9e6f60e01b8152600490fd5b611d38610630610940565b8110611d7757611d4981600a610da6565b610cbf7f676dc704f22ddab12a141690a96616ef0128413803c63394aba7ffe658681a169161023760405190565b50506040516367e00a0760e01b8152600490fdfea3646970667358221220df9a4f3132244f55c35bfb7e8209d5f82cfd6e1d0a80c8c3e1720944ebb5cb286c6578706572696d656e74616cf564736f6c634300080c0041","opcodes":"PUSH1 0x80 PUSH1 0x40 MSTORE CALLVALUE PUSH3 0x32 JUMPI JUMPDEST PUSH3 0x20 PUSH3 0x19 PUSH3 0x122 JUMP JUMPDEST SWAP2 PUSH3 0x167 JUMP JUMPDEST PUSH1 0x40 MLOAD PUSH2 0x1DCF PUSH3 0x4FE DUP3 CODECOPY PUSH2 0x1DCF SWAP1 RETURN JUMPDEST PUSH3 0x3C PUSH3 0x42 JUMP JUMPDEST PUSH3 0xB JUMP JUMPDEST POP PUSH1 0x0 DUP1 REVERT JUMPDEST POP PUSH4 0x4E487B71 PUSH1 0xE0 SHL PUSH1 0x0 MSTORE PUSH1 0x41 PUSH1 0x4 MSTORE PUSH1 0x24 PUSH1 0x0 REVERT JUMPDEST SWAP1 PUSH1 0x1F ADD PUSH1 0x1F NOT AND DUP2 ADD SWAP1 DUP2 LT PUSH1 0x1 PUSH1 0x1 PUSH1 0x40 SHL SUB DUP3 GT OR PUSH3 0x81 JUMPI PUSH1 0x40 MSTORE JUMP JUMPDEST PUSH3 0x8B PUSH3 0x48 JUMP JUMPDEST PUSH1 0x40 MSTORE JUMP JUMPDEST SWAP1 PUSH3 0xA7 PUSH3 0x9F PUSH1 0x40 MLOAD SWAP1 JUMP JUMPDEST SWAP3 DUP4 PUSH3 0x5F JUMP JUMPDEST JUMP JUMPDEST PUSH1 0x1 PUSH1 0x1 PUSH1 0xA0 SHL SUB AND SWAP1 JUMP JUMPDEST SWAP1 JUMP JUMPDEST PUSH1 0x1 PUSH1 0x1 PUSH1 0xA0 SHL SUB DUP2 AND EQ ISZERO PUSH3 0x42 JUMPI JUMP JUMPDEST SWAP1 POP MLOAD SWAP1 PUSH3 0xA7 DUP3 PUSH3 0xB8 JUMP JUMPDEST SWAP1 SWAP2 PUSH1 0x60 DUP3 DUP5 SUB SLT PUSH3 0x112 JUMPI JUMPDEST PUSH3 0xB5 PUSH3 0xF8 DUP5 DUP5 PUSH3 0xCB JUMP JUMPDEST SWAP4 PUSH3 0x108 DUP2 PUSH1 0x20 DUP7 ADD PUSH3 0xCB JUMP JUMPDEST SWAP4 PUSH1 0x40 ADD PUSH3 0xCB JUMP JUMPDEST PUSH3 0x11C PUSH3 0x42 JUMP JUMPDEST PUSH3 0xE8 JUMP JUMPDEST PUSH3 0x145 PUSH3 0x22CD DUP1 CODESIZE SUB DUP1 PUSH3 0x139 DUP2 PUSH3 0x90 JUMP JUMPDEST SWAP3 DUP4 CODECOPY DUP2 ADD SWAP1 PUSH3 0xDA JUMP JUMPDEST SWAP1 SWAP2 SWAP3 JUMP JUMPDEST PUSH3 0xB5 PUSH3 0xB5 PUSH3 0xB5 SWAP3 SWAP1 JUMP JUMPDEST PUSH3 0xB5 PUSH2 0x2A30 PUSH3 0x14A JUMP JUMPDEST SWAP1 PUSH3 0x18C SWAP1 PUSH3 0x186 PUSH3 0x192 SWAP5 PUSH3 0x180 PUSH3 0x1A6 JUMP JUMPDEST PUSH3 0x306 JUMP JUMPDEST PUSH3 0x3F1 JUMP JUMPDEST PUSH3 0x384 JUMP JUMPDEST PUSH3 0xA7 PUSH3 0x1A0 PUSH3 0x15A JUMP JUMPDEST PUSH3 0x485 JUMP JUMPDEST PUSH3 0xA7 DUP1 CALLER PUSH3 0x22D JUMP JUMPDEST SWAP2 PUSH1 0x1 PUSH1 0x1 PUSH1 0xA0 SHL SUB PUSH1 0x8 SWAP3 SWAP1 SWAP3 MUL SWAP2 DUP3 SHL SWAP2 SHL JUMPDEST SWAP2 DUP2 NOT AND SWAP2 AND OR SWAP1 JUMP JUMPDEST PUSH3 0xB5 SWAP1 PUSH3 0xA9 SWAP1 PUSH1 0x1 PUSH1 0x1 PUSH1 0xA0 SHL SUB AND DUP3 JUMP JUMPDEST PUSH3 0xB5 SWAP1 PUSH3 0x1D1 JUMP JUMPDEST PUSH3 0xB5 SWAP1 PUSH3 0x1E7 JUMP JUMPDEST SWAP2 SWAP1 PUSH3 0x212 PUSH3 0xB5 PUSH3 0x21B SWAP4 PUSH3 0x1F2 JUMP JUMPDEST SWAP1 DUP4 SLOAD PUSH3 0x1B2 JUMP JUMPDEST SWAP1 SSTORE JUMP JUMPDEST PUSH3 0xA7 SWAP2 PUSH1 0x0 SWAP2 PUSH3 0x1FD JUMP JUMPDEST PUSH3 0xA7 SWAP1 PUSH3 0x240 PUSH1 0x0 PUSH1 0x1 PUSH3 0x21F JUMP JUMPDEST PUSH3 0x289 JUMP JUMPDEST PUSH3 0xB5 SWAP1 PUSH3 0xA9 JUMP JUMPDEST PUSH3 0xB5 SWAP1 SLOAD PUSH3 0x246 JUMP JUMPDEST SWAP1 PUSH1 0x1 PUSH1 0x1 PUSH1 0xA0 SHL SUB SWAP1 PUSH3 0x1C7 JUMP JUMPDEST SWAP1 PUSH3 0x281 PUSH3 0xB5 PUSH3 0x21B SWAP3 PUSH3 0x1F2 JUMP JUMPDEST DUP3 SLOAD PUSH3 0x25D JUMP JUMPDEST PUSH3 0x295 PUSH1 0x0 PUSH3 0x251 JUMP JUMPDEST SWAP1 PUSH3 0x2A3 DUP2 PUSH1 0x0 PUSH3 0x26D JUMP JUMPDEST PUSH3 0x2DA PUSH3 0x2D3 PUSH32 0x8BE0079C531659141344CD1FD0A4F28419497F9722A3DAAFE3B4186F6B6457E0 SWAP4 PUSH3 0x1F2 JUMP JUMPDEST SWAP2 PUSH3 0x1F2 JUMP JUMPDEST SWAP2 PUSH3 0x2E5 PUSH1 0x40 MLOAD SWAP1 JUMP JUMPDEST PUSH1 0x0 SWAP1 LOG3 JUMP JUMPDEST PUSH3 0xA9 PUSH3 0xB5 PUSH3 0xB5 SWAP3 SWAP1 JUMP JUMPDEST PUSH3 0xB5 SWAP1 PUSH3 0x2EB JUMP JUMPDEST PUSH3 0x316 PUSH3 0xA9 PUSH1 0x0 PUSH3 0x2FB JUMP JUMPDEST PUSH1 0x1 PUSH1 0x1 PUSH1 0xA0 SHL SUB DUP3 AND EQ PUSH3 0x370 JUMPI PUSH3 0x333 DUP2 PUSH1 0x6 PUSH3 0x26D JUMP JUMPDEST PUSH3 0x35F PUSH32 0x2FFAE89A4970D1FF9BF1A765B00D7EEE23CD328CDAAAB85B7CE9E5379C1ECE32 SWAP2 PUSH3 0x1F2 JUMP JUMPDEST SWAP1 PUSH3 0x36A PUSH1 0x40 MLOAD SWAP1 JUMP JUMPDEST PUSH1 0x0 SWAP1 LOG2 JUMP JUMPDEST POP POP PUSH1 0x40 MLOAD PUSH4 0xC1AB6DC1 PUSH1 0xE0 SHL DUP2 MSTORE PUSH1 0x4 SWAP1 REVERT JUMPDEST PUSH3 0x394 PUSH3 0xA9 PUSH1 0x0 PUSH3 0x2FB JUMP JUMPDEST PUSH1 0x1 PUSH1 0x1 PUSH1 0xA0 SHL SUB DUP3 AND EQ PUSH3 0x3DD JUMPI PUSH3 0x3B1 DUP2 PUSH1 0x9 PUSH3 0x26D JUMP JUMPDEST PUSH3 0x35F PUSH32 0x5326C5EBDDD2FEAFB723C3B63CC83FB32A9C8DD7D05476832B798D9782BAD878 SWAP2 PUSH3 0x1F2 JUMP JUMPDEST POP POP PUSH1 0x40 MLOAD PUSH4 0xE6C4247B PUSH1 0xE0 SHL DUP2 MSTORE PUSH1 0x4 SWAP1 REVERT JUMPDEST PUSH3 0x401 PUSH3 0xA9 PUSH1 0x0 PUSH3 0x2FB JUMP JUMPDEST PUSH1 0x1 PUSH1 0x1 PUSH1 0xA0 SHL SUB DUP3 AND EQ PUSH3 0x44A JUMPI PUSH3 0x41E DUP2 PUSH1 0x7 PUSH3 0x26D JUMP JUMPDEST PUSH3 0x35F PUSH32 0xDBEBFBA65BD6398FB722063EFC10C99F624F9CD8BA657201056AF918A676D5EE SWAP2 PUSH3 0x1F2 JUMP JUMPDEST POP POP PUSH1 0x40 MLOAD PUSH4 0xCCEA9E6F PUSH1 0xE0 SHL DUP2 MSTORE PUSH1 0x4 SWAP1 REVERT JUMPDEST SWAP1 PUSH1 0x0 NOT SWAP1 PUSH3 0x1C7 JUMP JUMPDEST SWAP1 PUSH3 0x47D PUSH3 0xB5 PUSH3 0x21B SWAP3 PUSH3 0x14A JUMP JUMPDEST DUP3 SLOAD PUSH3 0x45E JUMP JUMPDEST PUSH3 0x493 PUSH3 0xB5 PUSH3 0x15A JUMP JUMPDEST DUP2 LT PUSH3 0x4E9 JUMPI PUSH3 0x4A7 DUP2 PUSH1 0xA PUSH3 0x469 JUMP JUMPDEST PUSH3 0x4E4 PUSH32 0x676DC704F22DDAB12A141690A96616EF0128413803C63394ABA7FFE658681A16 SWAP2 PUSH3 0x4D7 PUSH1 0x40 MLOAD SWAP1 JUMP JUMPDEST SWAP2 DUP3 SWAP2 DUP3 SWAP1 DUP2 MSTORE PUSH1 0x20 ADD SWAP1 JUMP JUMPDEST SUB SWAP1 LOG1 JUMP JUMPDEST POP POP PUSH1 0x40 MLOAD PUSH4 0x67E00A07 PUSH1 0xE0 SHL DUP2 MSTORE PUSH1 0x4 SWAP1 REVERT INVALID PUSH1 0x80 PUSH1 0x40 MSTORE PUSH1 0x4 CALLDATASIZE LT ISZERO PUSH2 0x18 JUMPI JUMPDEST PUSH2 0x16 PUSH2 0x61E JUMP JUMPDEST STOP JUMPDEST PUSH1 0x0 CALLDATALOAD PUSH1 0xE0 SHR DUP1 PUSH4 0x3AAF08B EQ PUSH2 0x5F7 JUMPI DUP1 PUSH4 0x6394C9B EQ PUSH2 0x5D0 JUMPI DUP1 PUSH4 0x700037D EQ PUSH2 0x596 JUMPI DUP1 PUSH4 0xC9CBF0E EQ PUSH2 0x56B JUMPI DUP1 PUSH4 0xCC630C7 EQ PUSH2 0x543 JUMPI DUP1 PUSH4 0x101CEF48 EQ PUSH2 0x51C JUMPI DUP1 PUSH4 0x1E2720FF EQ PUSH2 0x4F5 JUMPI DUP1 PUSH4 0x33F642F6 EQ PUSH2 0x4CB JUMPI DUP1 PUSH4 0x48A61FF5 EQ PUSH2 0x49D JUMPI DUP1 PUSH4 0x5512B811 EQ PUSH2 0x473 JUMPI DUP1 PUSH4 0x570CA735 EQ PUSH2 0x449 JUMPI DUP1 PUSH4 0x5B2478EA EQ PUSH2 0x41F JUMPI DUP1 PUSH4 0x715018A6 EQ PUSH2 0x3F8 JUMPI DUP1 PUSH4 0x74C13FDA EQ PUSH2 0x3CE JUMPI DUP1 PUSH4 0x79BA5097 EQ PUSH2 0x3A7 JUMPI DUP1 PUSH4 0x7FDBA5F6 EQ PUSH2 0x37D JUMPI DUP1 PUSH4 0x8686EBCC EQ PUSH2 0x353 JUMPI DUP1 PUSH4 0x8DA5CB5B EQ PUSH2 0x329 JUMPI DUP1 PUSH4 0x8E3FB0D3 EQ PUSH2 0x302 JUMPI DUP1 PUSH4 0x960D264D EQ PUSH2 0x2DB JUMPI DUP1 PUSH4 0xA230C524 EQ PUSH2 0x29F JUMPI DUP1 PUSH4 0xA480CA79 EQ PUSH2 0x278 JUMPI DUP1 PUSH4 0xB688A363 EQ PUSH2 0x251 JUMPI DUP1 PUSH4 0xBC063E1A EQ PUSH2 0x216 JUMPI DUP1 PUSH4 0xD379BE23 EQ PUSH2 0x1EC JUMPI DUP1 PUSH4 0xD66D9E19 EQ PUSH2 0x1C5 JUMPI DUP1 PUSH4 0xE30C3978 EQ PUSH2 0x180 JUMPI PUSH4 0xF2FDE38B EQ PUSH2 0x156 JUMPI PUSH2 0xE JUMP JUMPDEST CALLVALUE PUSH2 0x173 JUMPI JUMPDEST PUSH2 0x16 PUSH2 0x16A CALLDATASIZE PUSH1 0x4 PUSH2 0x655 JUMP JUMPDEST PUSH2 0xB3B JUMP JUMPDEST SUB SWAP1 RETURN JUMPDEST PUSH2 0x17B PUSH2 0x61E JUMP JUMPDEST PUSH2 0x15C JUMP JUMPDEST POP CALLVALUE PUSH2 0x1B8 JUMPI JUMPDEST PUSH2 0x192 CALLDATASIZE PUSH1 0x4 PUSH2 0x7F0 JUMP JUMPDEST PUSH2 0x16F PUSH2 0x19D PUSH2 0xA97 JUMP JUMPDEST PUSH1 0x40 MLOAD JUMPDEST SWAP2 DUP3 SWAP2 DUP3 PUSH1 0x1 PUSH1 0x1 PUSH1 0xA0 SHL SUB SWAP1 SWAP2 AND DUP2 MSTORE PUSH1 0x20 ADD SWAP1 JUMP JUMPDEST PUSH2 0x1C0 PUSH2 0x61E JUMP JUMPDEST PUSH2 0x187 JUMP JUMPDEST POP CALLVALUE PUSH2 0x1DF JUMPI JUMPDEST PUSH2 0x1D7 CALLDATASIZE PUSH1 0x4 PUSH2 0x7F0 JUMP JUMPDEST PUSH2 0x16 PUSH2 0xCC4 JUMP JUMPDEST PUSH2 0x1E7 PUSH2 0x61E JUMP JUMPDEST PUSH2 0x1CC JUMP JUMPDEST POP CALLVALUE PUSH2 0x209 JUMPI JUMPDEST PUSH2 0x1FE CALLDATASIZE PUSH1 0x4 PUSH2 0x7F0 JUMP JUMPDEST PUSH2 0x16F PUSH2 0x19D PUSH2 0x9AB JUMP JUMPDEST PUSH2 0x211 PUSH2 0x61E JUMP JUMPDEST PUSH2 0x1F3 JUMP JUMPDEST POP CALLVALUE PUSH2 0x244 JUMPI JUMPDEST PUSH2 0x228 CALLDATASIZE PUSH1 0x4 PUSH2 0x7F0 JUMP JUMPDEST PUSH2 0x16F PUSH2 0x233 PUSH2 0x9A3 JUMP JUMPDEST PUSH1 0x40 MLOAD JUMPDEST SWAP2 DUP3 SWAP2 DUP3 SWAP1 DUP2 MSTORE PUSH1 0x20 ADD SWAP1 JUMP JUMPDEST PUSH2 0x24C PUSH2 0x61E JUMP JUMPDEST PUSH2 0x21D JUMP JUMPDEST POP CALLVALUE PUSH2 0x26B JUMPI JUMPDEST PUSH2 0x263 CALLDATASIZE PUSH1 0x4 PUSH2 0x7F0 JUMP JUMPDEST PUSH2 0x16 PUSH2 0xC7B JUMP JUMPDEST PUSH2 0x273 PUSH2 0x61E JUMP JUMPDEST PUSH2 0x258 JUMP JUMPDEST POP CALLVALUE PUSH2 0x292 JUMPI JUMPDEST PUSH2 0x16 PUSH2 0x28D CALLDATASIZE PUSH1 0x4 PUSH2 0x655 JUMP JUMPDEST PUSH2 0x1B10 JUMP JUMPDEST PUSH2 0x29A PUSH2 0x61E JUMP JUMPDEST PUSH2 0x27F JUMP JUMPDEST POP CALLVALUE PUSH2 0x2CE JUMPI JUMPDEST PUSH2 0x16F PUSH2 0x2BC PUSH2 0x2B7 CALLDATASIZE PUSH1 0x4 PUSH2 0x655 JUMP JUMPDEST PUSH2 0x980 JUMP JUMPDEST PUSH1 0x40 MLOAD SWAP2 DUP3 SWAP2 DUP3 SWAP1 ISZERO ISZERO DUP2 MSTORE PUSH1 0x20 ADD SWAP1 JUMP JUMPDEST PUSH2 0x2D6 PUSH2 0x61E JUMP JUMPDEST PUSH2 0x2A6 JUMP JUMPDEST POP CALLVALUE PUSH2 0x2F5 JUMPI JUMPDEST PUSH2 0x16 PUSH2 0x2F0 CALLDATASIZE PUSH1 0x4 PUSH2 0x7CF JUMP JUMPDEST PUSH2 0x1C13 JUMP JUMPDEST PUSH2 0x2FD PUSH2 0x61E JUMP JUMPDEST PUSH2 0x2E2 JUMP JUMPDEST POP CALLVALUE PUSH2 0x31C JUMPI JUMPDEST PUSH2 0x16 PUSH2 0x317 CALLDATASIZE PUSH1 0x4 PUSH2 0x655 JUMP JUMPDEST PUSH2 0x1B4C JUMP JUMPDEST PUSH2 0x324 PUSH2 0x61E JUMP JUMPDEST PUSH2 0x309 JUMP JUMPDEST POP CALLVALUE PUSH2 0x346 JUMPI JUMPDEST PUSH2 0x33B CALLDATASIZE PUSH1 0x4 PUSH2 0x7F0 JUMP JUMPDEST PUSH2 0x16F PUSH2 0x19D PUSH2 0x9CA JUMP JUMPDEST PUSH2 0x34E PUSH2 0x61E JUMP JUMPDEST PUSH2 0x330 JUMP JUMPDEST POP CALLVALUE PUSH2 0x370 JUMPI JUMPDEST PUSH2 0x365 CALLDATASIZE PUSH1 0x4 PUSH2 0x7F0 JUMP JUMPDEST PUSH2 0x16F PUSH2 0x233 PUSH2 0x95F JUMP JUMPDEST PUSH2 0x378 PUSH2 0x61E JUMP JUMPDEST PUSH2 0x35A JUMP JUMPDEST POP CALLVALUE PUSH2 0x39A JUMPI JUMPDEST PUSH2 0x38F CALLDATASIZE PUSH1 0x4 PUSH2 0x7F0 JUMP JUMPDEST PUSH2 0x16F PUSH2 0x233 PUSH2 0x94B JUMP JUMPDEST PUSH2 0x3A2 PUSH2 0x61E JUMP JUMPDEST PUSH2 0x384 JUMP JUMPDEST POP CALLVALUE PUSH2 0x3C1 JUMPI JUMPDEST PUSH2 0x3B9 CALLDATASIZE PUSH1 0x4 PUSH2 0x7F0 JUMP JUMPDEST PUSH2 0x16 PUSH2 0xC34 JUMP JUMPDEST PUSH2 0x3C9 PUSH2 0x61E JUMP JUMPDEST PUSH2 0x3AE JUMP JUMPDEST POP CALLVALUE PUSH2 0x3EB JUMPI JUMPDEST PUSH2 0x3E0 CALLDATASIZE PUSH1 0x4 PUSH2 0x7F0 JUMP JUMPDEST PUSH2 0x16F PUSH2 0x19D PUSH2 0x927 JUMP JUMPDEST PUSH2 0x3F3 PUSH2 0x61E JUMP JUMPDEST PUSH2 0x3D5 JUMP JUMPDEST POP CALLVALUE PUSH2 0x412 JUMPI JUMPDEST PUSH2 0x40A CALLDATASIZE PUSH1 0x4 PUSH2 0x7F0 JUMP JUMPDEST PUSH2 0x16 PUSH2 0xA0C JUMP JUMPDEST PUSH2 0x41A PUSH2 0x61E JUMP JUMPDEST PUSH2 0x3FF JUMP JUMPDEST POP CALLVALUE PUSH2 0x43C JUMPI JUMPDEST PUSH2 0x16F PUSH2 0x233 PUSH2 0x437 CALLDATASIZE PUSH1 0x4 PUSH2 0x655 JUMP JUMPDEST PUSH2 0x915 JUMP JUMPDEST PUSH2 0x444 PUSH2 0x61E JUMP JUMPDEST PUSH2 0x426 JUMP JUMPDEST POP CALLVALUE PUSH2 0x466 JUMPI JUMPDEST PUSH2 0x45B CALLDATASIZE PUSH1 0x4 PUSH2 0x7F0 JUMP JUMPDEST PUSH2 0x16F PUSH2 0x19D PUSH2 0x909 JUMP JUMPDEST PUSH2 0x46E PUSH2 0x61E JUMP JUMPDEST PUSH2 0x450 JUMP JUMPDEST POP CALLVALUE PUSH2 0x490 JUMPI JUMPDEST PUSH2 0x485 CALLDATASIZE PUSH1 0x4 PUSH2 0x7F0 JUMP JUMPDEST PUSH2 0x16F PUSH2 0x19D PUSH2 0x8FD JUMP JUMPDEST PUSH2 0x498 PUSH2 0x61E JUMP JUMPDEST PUSH2 0x47A JUMP JUMPDEST POP CALLVALUE PUSH2 0x4BE JUMPI JUMPDEST PUSH2 0x16 PUSH2 0x4B2 CALLDATASIZE PUSH1 0x4 PUSH2 0x85B JUMP JUMPDEST SWAP6 SWAP5 SWAP1 SWAP5 SWAP4 SWAP2 SWAP4 PUSH2 0xECF JUMP JUMPDEST PUSH2 0x4C6 PUSH2 0x61E JUMP JUMPDEST PUSH2 0x4A4 JUMP JUMPDEST POP CALLVALUE PUSH2 0x4E8 JUMPI JUMPDEST PUSH2 0x4DD CALLDATASIZE PUSH1 0x4 PUSH2 0x7F0 JUMP JUMPDEST PUSH2 0x16F PUSH2 0x233 PUSH2 0x803 JUMP JUMPDEST PUSH2 0x4F0 PUSH2 0x61E JUMP JUMPDEST PUSH2 0x4D2 JUMP JUMPDEST POP CALLVALUE PUSH2 0x50F JUMPI JUMPDEST PUSH2 0x16 PUSH2 0x50A CALLDATASIZE PUSH1 0x4 PUSH2 0x7CF JUMP JUMPDEST PUSH2 0x18C0 JUMP JUMPDEST PUSH2 0x517 PUSH2 0x61E JUMP JUMPDEST PUSH2 0x4FC JUMP JUMPDEST POP CALLVALUE PUSH2 0x536 JUMPI JUMPDEST PUSH2 0x16 PUSH2 0x531 CALLDATASIZE PUSH1 0x4 PUSH2 0x655 JUMP JUMPDEST PUSH2 0x1BF5 JUMP JUMPDEST PUSH2 0x53E PUSH2 0x61E JUMP JUMPDEST PUSH2 0x523 JUMP JUMPDEST POP CALLVALUE PUSH2 0x55E JUMPI JUMPDEST PUSH2 0x16 PUSH2 0x558 CALLDATASIZE PUSH1 0x4 PUSH2 0x791 JUMP JUMPDEST SWAP2 PUSH2 0x1A71 JUMP JUMPDEST PUSH2 0x566 PUSH2 0x61E JUMP JUMPDEST PUSH2 0x54A JUMP JUMPDEST POP CALLVALUE PUSH2 0x589 JUMPI JUMPDEST PUSH2 0x16F PUSH2 0x233 PUSH2 0x583 CALLDATASIZE PUSH1 0x4 PUSH2 0x718 JUMP JUMPDEST SWAP1 PUSH2 0x75F JUMP JUMPDEST PUSH2 0x591 PUSH2 0x61E JUMP JUMPDEST PUSH2 0x572 JUMP JUMPDEST POP CALLVALUE PUSH2 0x5C3 JUMPI JUMPDEST PUSH2 0x16F PUSH2 0x5B3 PUSH2 0x5AE CALLDATASIZE PUSH1 0x4 PUSH2 0x655 JUMP JUMPDEST PUSH2 0x6C5 JUMP JUMPDEST PUSH1 0x40 MLOAD SWAP2 SWAP4 SWAP2 JUMPDEST SWAP4 DUP5 SWAP4 DUP5 PUSH2 0x6F6 JUMP JUMPDEST PUSH2 0x5CB PUSH2 0x61E JUMP JUMPDEST PUSH2 0x59D JUMP JUMPDEST POP CALLVALUE PUSH2 0x5EA JUMPI JUMPDEST PUSH2 0x16 PUSH2 0x5E5 CALLDATASIZE PUSH1 0x4 PUSH2 0x655 JUMP JUMPDEST PUSH2 0x1B2E JUMP JUMPDEST PUSH2 0x5F2 PUSH2 0x61E JUMP JUMPDEST PUSH2 0x5D7 JUMP JUMPDEST POP CALLVALUE PUSH2 0x611 JUMPI JUMPDEST PUSH2 0x16 PUSH2 0x60C CALLDATASIZE PUSH1 0x4 PUSH2 0x655 JUMP JUMPDEST PUSH2 0x1B6A JUMP JUMPDEST PUSH2 0x619 PUSH2 0x61E JUMP JUMPDEST PUSH2 0x5FE JUMP JUMPDEST POP PUSH1 0x0 DUP1 REVERT JUMPDEST PUSH1 0x1 PUSH1 0x1 PUSH1 0xA0 SHL SUB AND SWAP1 JUMP JUMPDEST SWAP1 JUMP JUMPDEST PUSH1 0x1 PUSH1 0x1 PUSH1 0xA0 SHL SUB DUP2 AND JUMPDEST EQ ISZERO PUSH2 0x61E JUMPI JUMP JUMPDEST SWAP1 POP CALLDATALOAD SWAP1 PUSH2 0x653 DUP3 PUSH2 0x633 JUMP JUMPDEST JUMP JUMPDEST SWAP1 PUSH2 0x630 SWAP2 PUSH1 0x20 DUP2 DUP4 SUB SLT PUSH2 0x669 JUMPI PUSH2 0x646 JUMP JUMPDEST PUSH2 0x671 PUSH2 0x61E JUMP JUMPDEST PUSH2 0x646 JUMP JUMPDEST PUSH2 0x630 SWAP1 PUSH2 0x624 SWAP1 PUSH1 0x1 PUSH1 0x1 PUSH1 0xA0 SHL SUB AND DUP3 JUMP JUMPDEST PUSH2 0x630 SWAP1 PUSH2 0x676 JUMP JUMPDEST PUSH2 0x630 SWAP1 PUSH2 0x68A JUMP JUMPDEST SWAP1 PUSH2 0x6A6 SWAP1 PUSH2 0x693 JUMP JUMPDEST PUSH1 0x0 MSTORE PUSH1 0x20 MSTORE PUSH1 0x40 PUSH1 0x0 KECCAK256 SWAP1 JUMP JUMPDEST PUSH2 0x630 SWAP1 DUP2 JUMP JUMPDEST PUSH2 0x630 SWAP1 SLOAD PUSH2 0x6B4 JUMP JUMPDEST PUSH2 0x6D0 SWAP1 PUSH1 0x4 PUSH2 0x69C JUMP JUMPDEST PUSH2 0x6D9 DUP2 PUSH2 0x6BB JUMP JUMPDEST SWAP2 PUSH2 0x630 PUSH1 0x2 PUSH2 0x6EB PUSH1 0x1 DUP6 ADD PUSH2 0x6BB JUMP JUMPDEST SWAP4 ADD PUSH2 0x6BB JUMP JUMPDEST SWAP1 MSTORE JUMP JUMPDEST SWAP1 DUP2 MSTORE PUSH1 0x60 DUP2 ADD SWAP4 SWAP3 PUSH2 0x653 SWAP3 SWAP1 SWAP2 PUSH1 0x40 SWAP2 PUSH2 0x714 SWAP1 JUMPDEST PUSH1 0x20 DUP4 ADD MSTORE JUMP JUMPDEST ADD MSTORE JUMP JUMPDEST SWAP2 SWAP1 PUSH2 0x630 SWAP1 PUSH1 0x40 DUP5 DUP3 SUB SLT PUSH2 0x73C JUMPI JUMPDEST PUSH2 0x733 DUP2 DUP6 PUSH2 0x646 JUMP JUMPDEST SWAP4 PUSH1 0x20 ADD PUSH2 0x646 JUMP JUMPDEST PUSH2 0x744 PUSH2 0x61E JUMP JUMPDEST PUSH2 0x729 JUMP JUMPDEST PUSH2 0x630 SWAP2 PUSH1 0x8 MUL SHR DUP2 JUMP JUMPDEST SWAP1 PUSH2 0x630 SWAP2 SLOAD PUSH2 0x749 JUMP JUMPDEST PUSH2 0x779 PUSH2 0x630 SWAP3 PUSH2 0x774 PUSH1 0x5 SWAP4 PUSH1 0x0 SWAP5 PUSH2 0x69C JUMP JUMPDEST PUSH2 0x69C JUMP JUMPDEST PUSH2 0x754 JUMP JUMPDEST DUP1 PUSH2 0x63E JUMP JUMPDEST SWAP1 POP CALLDATALOAD SWAP1 PUSH2 0x653 DUP3 PUSH2 0x77E JUMP JUMPDEST SWAP1 SWAP2 PUSH1 0x60 DUP3 DUP5 SUB SLT PUSH2 0x7C2 JUMPI JUMPDEST PUSH2 0x630 PUSH2 0x7AB DUP5 DUP5 PUSH2 0x646 JUMP JUMPDEST SWAP4 PUSH2 0x7B9 DUP2 PUSH1 0x20 DUP7 ADD PUSH2 0x784 JUMP JUMPDEST SWAP4 PUSH1 0x40 ADD PUSH2 0x784 JUMP JUMPDEST PUSH2 0x7CA PUSH2 0x61E JUMP JUMPDEST PUSH2 0x79E JUMP JUMPDEST SWAP1 PUSH2 0x630 SWAP2 PUSH1 0x20 DUP2 DUP4 SUB SLT PUSH2 0x7E3 JUMPI PUSH2 0x784 JUMP JUMPDEST PUSH2 0x7EB PUSH2 0x61E JUMP JUMPDEST PUSH2 0x784 JUMP JUMPDEST PUSH1 0x0 SWAP2 SUB SLT PUSH2 0x7FB JUMPI JUMP JUMPDEST PUSH2 0x653 PUSH2 0x61E JUMP JUMPDEST PUSH2 0x630 PUSH1 0x0 PUSH1 0xA PUSH2 0x754 JUMP JUMPDEST SWAP1 SWAP2 DUP3 PUSH1 0x1F DUP4 ADD SLT ISZERO PUSH2 0x84E JUMPI JUMPDEST PUSH1 0x20 DUP3 CALLDATALOAD SWAP3 PUSH8 0xFFFFFFFFFFFFFFFF DUP5 GT PUSH2 0x841 JUMPI JUMPDEST ADD SWAP3 PUSH1 0x20 DUP4 MUL DUP5 ADD GT PUSH2 0x7FB JUMPI JUMP JUMPDEST PUSH2 0x849 PUSH2 0x61E JUMP JUMPDEST PUSH2 0x832 JUMP JUMPDEST PUSH2 0x856 PUSH2 0x61E JUMP JUMPDEST PUSH2 0x81D JUMP JUMPDEST SWAP1 SWAP2 PUSH1 0xC0 DUP3 DUP5 SUB SLT PUSH2 0x8D8 JUMPI JUMPDEST PUSH2 0x872 DUP4 DUP4 PUSH2 0x646 JUMP JUMPDEST SWAP3 PUSH2 0x630 PUSH2 0x883 DUP3 PUSH1 0x20 DUP7 ADD PUSH2 0x646 JUMP JUMPDEST SWAP4 PUSH2 0x891 DUP4 PUSH1 0x40 DUP4 ADD PUSH2 0x784 JUMP JUMPDEST SWAP4 PUSH2 0x8B2 DUP5 PUSH1 0x60 DUP5 ADD CALLDATALOAD PUSH8 0xFFFFFFFFFFFFFFFF DUP2 GT PUSH2 0x8CB JUMPI JUMPDEST DUP5 ADD PUSH2 0x80F JUMP JUMPDEST SWAP4 SWAP1 SWAP5 PUSH2 0x8C2 DUP2 PUSH1 0x80 DUP7 ADD PUSH2 0x784 JUMP JUMPDEST SWAP4 PUSH1 0xA0 ADD PUSH2 0x646 JUMP JUMPDEST PUSH2 0x8D3 PUSH2 0x61E JUMP JUMPDEST PUSH2 0x8AB JUMP JUMPDEST PUSH2 0x8E0 PUSH2 0x61E JUMP JUMPDEST PUSH2 0x868 JUMP JUMPDEST PUSH2 0x630 SWAP2 PUSH1 0x8 MUL SHR PUSH2 0x624 JUMP JUMPDEST SWAP1 PUSH2 0x630 SWAP2 SLOAD PUSH2 0x8E5 JUMP JUMPDEST PUSH2 0x630 PUSH1 0x0 PUSH1 0x9 PUSH2 0x8F2 JUMP JUMPDEST PUSH2 0x630 PUSH1 0x0 PUSH1 0x7 PUSH2 0x8F2 JUMP JUMPDEST PUSH2 0x630 SWAP1 PUSH2 0x779 PUSH1 0x3 SWAP2 PUSH1 0x0 SWAP3 PUSH2 0x69C JUMP JUMPDEST PUSH2 0x630 PUSH1 0x0 PUSH1 0x6 PUSH2 0x8F2 JUMP JUMPDEST PUSH2 0x630 PUSH2 0x630 PUSH2 0x630 SWAP3 SWAP1 JUMP JUMPDEST PUSH2 0x630 PUSH2 0x2A30 PUSH2 0x933 JUMP JUMPDEST PUSH2 0x630 PUSH2 0x940 JUMP JUMPDEST PUSH2 0x630 PUSH3 0xF4240 PUSH2 0x933 JUMP JUMPDEST PUSH2 0x630 PUSH2 0x953 JUMP JUMPDEST PUSH2 0x630 SWAP2 PUSH1 0x8 MUL SHR PUSH1 0xFF AND SWAP1 JUMP JUMPDEST SWAP1 PUSH2 0x630 SWAP2 SLOAD PUSH2 0x967 JUMP JUMPDEST PUSH2 0x630 SWAP1 PUSH2 0x992 PUSH1 0x2 SWAP2 PUSH1 0x0 SWAP3 PUSH2 0x69C JUMP JUMPDEST PUSH2 0x975 JUMP JUMPDEST PUSH2 0x630 PUSH3 0x186A0 PUSH2 0x933 JUMP JUMPDEST PUSH2 0x630 PUSH2 0x997 JUMP JUMPDEST PUSH2 0x630 PUSH1 0x0 PUSH1 0x8 PUSH2 0x8F2 JUMP JUMPDEST PUSH2 0x630 SWAP1 PUSH2 0x624 JUMP JUMPDEST PUSH2 0x630 SWAP1 SLOAD PUSH2 0x9B7 JUMP JUMPDEST PUSH2 0x630 PUSH1 0x0 PUSH2 0x9C0 JUMP JUMPDEST PUSH2 0x9DC PUSH2 0xA6D JUMP JUMPDEST PUSH2 0x653 PUSH2 0x9FA JUMP JUMPDEST PUSH2 0x624 PUSH2 0x630 PUSH2 0x630 SWAP3 SWAP1 JUMP JUMPDEST PUSH2 0x630 SWAP1 PUSH2 0x9E4 JUMP JUMPDEST PUSH2 0x653 PUSH2 0xA07 PUSH1 0x0 PUSH2 0x9F1 JUMP JUMPDEST PUSH2 0xB82 JUMP JUMPDEST PUSH2 0x653 PUSH2 0x9D4 JUMP JUMPDEST ADD SWAP1 JUMP JUMPDEST ISZERO PUSH2 0xA1F JUMPI JUMP JUMPDEST POP PUSH1 0x40 MLOAD PUSH3 0x461BCD PUSH1 0xE5 SHL DUP2 MSTORE DUP1 PUSH2 0xA69 PUSH1 0x4 DUP3 ADD PUSH1 0x20 DUP1 DUP3 MSTORE DUP2 DUP2 ADD MSTORE PUSH32 0x4F776E61626C653A2063616C6C6572206973206E6F7420746865206F776E6572 PUSH1 0x40 DUP3 ADD MSTORE PUSH1 0x60 ADD SWAP1 JUMP JUMPDEST SUB SWAP1 REVERT JUMPDEST PUSH2 0x653 PUSH2 0xA78 PUSH2 0x9CA JUMP JUMPDEST PUSH2 0xA91 PUSH2 0xA84 CALLER PUSH2 0x624 JUMP JUMPDEST SWAP2 PUSH1 0x1 PUSH1 0x1 PUSH1 0xA0 SHL SUB AND SWAP1 JUMP JUMPDEST EQ PUSH2 0xA18 JUMP JUMPDEST PUSH2 0x630 PUSH1 0x1 PUSH2 0x9C0 JUMP JUMPDEST PUSH2 0x653 SWAP1 PUSH2 0xAAD PUSH2 0xA6D JUMP JUMPDEST PUSH2 0xAE2 JUMP JUMPDEST SWAP1 PUSH1 0x1 PUSH1 0x1 PUSH1 0xA0 SHL SUB SWAP1 JUMPDEST SWAP2 DUP2 NOT AND SWAP2 AND OR SWAP1 JUMP JUMPDEST SWAP1 PUSH2 0xAD7 PUSH2 0x630 PUSH2 0xADE SWAP3 PUSH2 0x693 JUMP JUMPDEST DUP3 SLOAD PUSH2 0xAB2 JUMP JUMPDEST SWAP1 SSTORE JUMP JUMPDEST PUSH2 0xAED DUP2 PUSH1 0x1 PUSH2 0xAC7 JUMP JUMPDEST PUSH2 0xAF5 PUSH2 0x9CA JUMP JUMPDEST SWAP1 PUSH2 0xB29 PUSH2 0xB23 PUSH32 0x38D16B8CAC22D99FC7C124B9CD0DE2D3FA1FAEF420BFE791D8C362D765E22700 SWAP4 PUSH2 0x693 JUMP JUMPDEST SWAP2 PUSH2 0x693 JUMP JUMPDEST SWAP2 PUSH2 0xB33 PUSH1 0x40 MLOAD SWAP1 JUMP JUMPDEST DUP1 DUP1 JUMPDEST SUB SWAP1 LOG3 JUMP JUMPDEST PUSH2 0x653 SWAP1 PUSH2 0xAA1 JUMP JUMPDEST SWAP2 PUSH1 0x1 PUSH1 0x1 PUSH1 0xA0 SHL SUB PUSH1 0x8 SWAP3 SWAP1 SWAP3 MUL SWAP2 DUP3 SHL SWAP2 SHL PUSH2 0xABD JUMP JUMPDEST SWAP2 SWAP1 PUSH2 0xB6E PUSH2 0x630 PUSH2 0xADE SWAP4 PUSH2 0x693 JUMP JUMPDEST SWAP1 DUP4 SLOAD PUSH2 0xB44 JUMP JUMPDEST PUSH2 0x653 SWAP2 PUSH1 0x0 SWAP2 PUSH2 0xB5D JUMP JUMPDEST PUSH2 0x653 SWAP1 PUSH2 0xB92 PUSH1 0x0 PUSH1 0x1 PUSH2 0xB76 JUMP JUMPDEST PUSH2 0xB9C PUSH1 0x0 PUSH2 0x9C0 JUMP JUMPDEST SWAP1 PUSH2 0xBA8 DUP2 PUSH1 0x0 PUSH2 0xAC7 JUMP JUMPDEST PUSH2 0xB29 PUSH2 0xB23 PUSH32 0x8BE0079C531659141344CD1FD0A4F28419497F9722A3DAAFE3B4186F6B6457E0 SWAP4 PUSH2 0x693 JUMP JUMPDEST ISZERO PUSH2 0xBDC JUMPI JUMP JUMPDEST POP PUSH1 0x40 MLOAD PUSH3 0x461BCD PUSH1 0xE5 SHL DUP2 MSTORE PUSH1 0x20 PUSH1 0x4 DUP3 ADD MSTORE PUSH1 0x29 PUSH1 0x24 DUP3 ADD MSTORE PUSH32 0x4F776E61626C6532537465703A2063616C6C6572206973206E6F742074686520 PUSH1 0x44 DUP3 ADD MSTORE PUSH9 0x3732BB9037BBB732B9 PUSH1 0xB9 SHL PUSH1 0x64 DUP3 ADD MSTORE PUSH1 0x84 SWAP1 REVERT JUMPDEST PUSH2 0x653 CALLER PUSH2 0xA07 PUSH2 0xC43 PUSH2 0xA97 JUMP JUMPDEST PUSH2 0xC55 PUSH1 0x1 PUSH1 0x1 PUSH1 0xA0 SHL SUB DUP5 AND PUSH2 0xA84 JUMP JUMPDEST EQ PUSH2 0xBD5 JUMP JUMPDEST SWAP1 PUSH1 0xFF SWAP1 PUSH2 0xABD JUMP JUMPDEST SWAP1 PUSH2 0xC74 PUSH2 0x630 PUSH2 0xADE SWAP3 ISZERO ISZERO SWAP1 JUMP JUMPDEST DUP3 SLOAD PUSH2 0xC5B JUMP JUMPDEST CALLER PUSH2 0xC91 PUSH1 0x1 PUSH2 0xC8C DUP4 PUSH1 0x2 PUSH2 0x69C JUMP JUMPDEST PUSH2 0xC64 JUMP JUMPDEST PUSH2 0xCBF PUSH32 0xABF3B3F643594D958297062A019458E27D7766629590AC621AA1000FA1298AB SWAP2 PUSH2 0x1A1 PUSH1 0x40 MLOAD SWAP1 JUMP JUMPDEST SUB SWAP1 LOG1 JUMP JUMPDEST CALLER PUSH2 0xCD5 PUSH1 0x0 PUSH2 0xC8C DUP4 PUSH1 0x2 PUSH2 0x69C JUMP JUMPDEST PUSH2 0xCBF PUSH32 0xBEA911B50CCDD2233B28FAA49766C3CBD0631608F32E5A724D7B83B32B681AD0 SWAP2 PUSH2 0x1A1 PUSH1 0x40 MLOAD SWAP1 JUMP JUMPDEST POP PUSH4 0x4E487B71 PUSH1 0xE0 SHL PUSH1 0x0 MSTORE PUSH1 0x11 PUSH1 0x4 MSTORE PUSH1 0x24 PUSH1 0x0 REVERT JUMPDEST SWAP1 PUSH2 0xD24 JUMP JUMPDEST SWAP2 SWAP1 JUMP JUMPDEST SWAP1 DUP1 PUSH1 0x0 NOT DIV DUP3 GT DUP2 ISZERO ISZERO AND PUSH2 0xD38 JUMPI MUL SWAP1 JUMP JUMPDEST PUSH2 0xD40 PUSH2 0xD03 JUMP JUMPDEST MUL SWAP1 JUMP JUMPDEST POP PUSH4 0x4E487B71 PUSH1 0xE0 SHL PUSH1 0x0 MSTORE PUSH1 0x12 PUSH1 0x4 MSTORE PUSH1 0x24 PUSH1 0x0 REVERT JUMPDEST DUP2 ISZERO PUSH2 0xD65 JUMPI DIV SWAP1 JUMP JUMPDEST PUSH2 0xD6D PUSH2 0xD44 JUMP JUMPDEST DIV SWAP1 JUMP JUMPDEST DUP2 DUP2 LT PUSH2 0xD7C JUMPI SUB SWAP1 JUMP JUMPDEST PUSH2 0xD84 PUSH2 0xD03 JUMP JUMPDEST SUB SWAP1 JUMP JUMPDEST DUP2 NOT DUP2 GT PUSH2 0xD94 JUMPI ADD SWAP1 JUMP JUMPDEST PUSH2 0xA14 PUSH2 0xD03 JUMP JUMPDEST SWAP1 PUSH1 0x0 NOT SWAP1 PUSH2 0xABD JUMP JUMPDEST SWAP1 PUSH2 0xDB6 PUSH2 0x630 PUSH2 0xADE SWAP3 PUSH2 0x933 JUMP JUMPDEST DUP3 SLOAD PUSH2 0xD9C JUMP JUMPDEST PUSH1 0x1F ADD PUSH1 0x1F NOT AND SWAP1 JUMP JUMPDEST POP PUSH4 0x4E487B71 PUSH1 0xE0 SHL PUSH1 0x0 MSTORE PUSH1 0x41 PUSH1 0x4 MSTORE PUSH1 0x24 PUSH1 0x0 REVERT JUMPDEST SWAP1 PUSH1 0x1F ADD PUSH1 0x1F NOT AND DUP2 ADD SWAP1 DUP2 LT PUSH8 0xFFFFFFFFFFFFFFFF DUP3 GT OR PUSH2 0xE00 JUMPI PUSH1 0x40 MSTORE JUMP JUMPDEST PUSH2 0xE08 PUSH2 0xDC7 JUMP JUMPDEST PUSH1 0x40 MSTORE JUMP JUMPDEST SWAP1 PUSH2 0x653 PUSH2 0xE1A PUSH1 0x40 MLOAD SWAP1 JUMP JUMPDEST SWAP3 DUP4 PUSH2 0xDDE JUMP JUMPDEST PUSH2 0x630 PUSH1 0x60 PUSH2 0xE0D JUMP JUMPDEST SWAP1 PUSH2 0x653 PUSH2 0xE69 PUSH1 0x2 PUSH2 0xE3C PUSH2 0xE21 JUMP JUMPDEST SWAP5 PUSH2 0xE4D PUSH2 0xE49 DUP3 PUSH2 0x6BB JUMP JUMPDEST DUP8 MSTORE JUMP JUMPDEST PUSH2 0xE63 PUSH2 0xE5C PUSH1 0x1 DUP4 ADD PUSH2 0x6BB JUMP JUMPDEST PUSH1 0x20 DUP9 ADD MSTORE JUMP JUMPDEST ADD PUSH2 0x6BB JUMP JUMPDEST PUSH1 0x40 DUP5 ADD MSTORE JUMP JUMPDEST PUSH2 0x630 SWAP1 PUSH2 0xE2B JUMP JUMPDEST PUSH2 0x6F2 SWAP1 PUSH1 0x1 PUSH1 0x1 PUSH1 0xA0 SHL SUB AND PUSH1 0x60 SHL SWAP1 JUMP JUMPDEST PUSH1 0x14 DUP2 PUSH2 0xE9F PUSH2 0xA14 SWAP4 PUSH1 0x20 SWAP7 SWAP6 PUSH2 0xE79 JUMP JUMPDEST ADD SWAP2 DUP3 MSTORE JUMP JUMPDEST SWAP1 DUP2 MSTORE PUSH1 0x60 DUP2 ADD SWAP4 SWAP3 PUSH2 0x653 SWAP3 SWAP1 SWAP2 PUSH1 0x40 SWAP2 PUSH2 0xEC0 SWAP1 PUSH2 0x70D JUMP JUMPDEST ADD SWAP1 PUSH1 0x1 PUSH1 0x1 PUSH1 0xA0 SHL SUB AND SWAP1 MSTORE JUMP JUMPDEST SWAP4 SWAP1 SWAP5 CALLER PUSH2 0xEE3 PUSH2 0xA84 PUSH2 0x624 PUSH1 0x8 PUSH2 0x9C0 JUMP JUMPDEST EQ ISZERO PUSH2 0x1181 JUMPI PUSH1 0x0 SWAP2 PUSH2 0xEF8 PUSH2 0x624 DUP5 PUSH2 0x9F1 JUMP JUMPDEST PUSH1 0x1 PUSH1 0x1 PUSH1 0xA0 SHL SUB DUP9 AND EQ PUSH2 0x1160 JUMPI PUSH2 0xF10 DUP4 PUSH2 0x933 JUMP JUMPDEST DUP5 EQ PUSH2 0x113F JUMPI PUSH2 0xF21 PUSH2 0x630 PUSH2 0x997 JUMP JUMPDEST DUP3 GT PUSH2 0x111E JUMPI PUSH2 0xF43 PUSH2 0xF35 DUP8 SWAP4 DUP7 PUSH2 0xD1A JUMP JUMPDEST PUSH2 0xF3D PUSH2 0x953 JUMP JUMPDEST SWAP1 PUSH2 0xD5B JUMP JUMPDEST SWAP5 PUSH2 0xF75 PUSH2 0xF51 DUP8 DUP8 PUSH2 0xD71 JUMP JUMPDEST SWAP7 PUSH2 0xF6F PUSH2 0xF60 DUP7 PUSH1 0x3 PUSH2 0x69C JUMP JUMPDEST SWAP2 PUSH2 0xF6A DUP4 PUSH2 0x6BB JUMP JUMPDEST PUSH2 0xD88 JUMP JUMPDEST SWAP1 PUSH2 0xDA6 JUMP JUMPDEST PUSH1 0x4 SWAP2 PUSH2 0xF8A PUSH2 0xF85 DUP6 DUP6 PUSH2 0x69C JUMP JUMPDEST PUSH2 0xE70 JUMP JUMPDEST SWAP5 PUSH2 0xFA7 DUP8 PUSH2 0xF6A PUSH2 0xFA2 DUP14 PUSH2 0x774 PUSH1 0x5 SWAP11 DUP12 PUSH2 0x69C JUMP JUMPDEST PUSH2 0x6BB JUMP JUMPDEST SWAP6 DUP2 DUP2 ADD SWAP2 PUSH2 0xFC0 PUSH2 0xD20 PUSH2 0xFBA DUP6 MLOAD SWAP1 JUMP JUMPDEST SWAP3 PUSH2 0x933 JUMP JUMPDEST EQ PUSH2 0x10F2 JUMPI PUSH1 0x40 ADD MLOAD TIMESTAMP LT PUSH2 0x10C7 JUMPI SWAP2 PUSH2 0x1023 SWAP2 PUSH2 0xFDF PUSH2 0x1027 SWAP5 MLOAD SWAP1 JUMP JUMPDEST SWAP1 DUP12 PUSH2 0x100A PUSH2 0xFED PUSH1 0x40 MLOAD SWAP1 JUMP JUMPDEST DUP1 SWAP3 PUSH2 0xFFE DUP13 PUSH1 0x20 DUP5 ADD SWAP3 DUP4 PUSH2 0xE8C JUMP JUMPDEST SWAP1 DUP2 SUB DUP3 MSTORE SUB DUP3 PUSH2 0xDDE JUMP JUMPDEST PUSH2 0x101C PUSH2 0x1015 DUP3 MLOAD SWAP1 JUMP JUMPDEST SWAP2 PUSH1 0x20 ADD SWAP1 JUMP JUMPDEST KECCAK256 SWAP3 PUSH2 0x15BD JUMP JUMPDEST ISZERO SWAP1 JUMP JUMPDEST PUSH2 0x109F JUMPI POP SWAP1 PUSH2 0x103E DUP7 PUSH2 0x774 DUP8 PUSH2 0x1043 SWAP6 PUSH2 0x69C JUMP JUMPDEST PUSH2 0xDA6 JUMP JUMPDEST PUSH2 0x1056 DUP3 DUP7 PUSH2 0x1051 DUP7 PUSH2 0x693 JUMP JUMPDEST PUSH2 0x11E4 JUMP JUMPDEST PUSH2 0xB36 PUSH2 0x108C PUSH2 0x1086 PUSH32 0x70FEC9C7F21F70099818A4619C69AF3A4677031E67ACEA18286C0ECA3A754BCE SWAP6 PUSH2 0x693 JUMP JUMPDEST SWAP6 PUSH2 0x693 JUMP JUMPDEST SWAP6 PUSH2 0x1096 PUSH1 0x40 MLOAD SWAP1 JUMP JUMPDEST SWAP4 DUP5 SWAP4 DUP5 PUSH2 0xEA5 JUMP JUMPDEST SWAP7 POP POP POP POP POP POP POP PUSH2 0xA69 SWAP2 POP PUSH2 0x10B5 PUSH1 0x40 MLOAD SWAP1 JUMP JUMPDEST PUSH4 0x9BDE339 PUSH1 0xE0 SHL DUP2 MSTORE SWAP2 DUP3 SWAP2 DUP3 ADD SWAP1 JUMP JUMPDEST POP POP POP SWAP7 POP POP POP POP POP POP POP PUSH2 0xA69 SWAP2 POP PUSH2 0x10E0 PUSH1 0x40 MLOAD SWAP1 JUMP JUMPDEST PUSH4 0x995309B PUSH1 0xE0 SHL DUP2 MSTORE SWAP2 DUP3 SWAP2 DUP3 ADD SWAP1 JUMP JUMPDEST POP POP POP POP SWAP7 POP POP POP POP POP POP POP PUSH2 0xA69 SWAP2 POP PUSH2 0x110C PUSH1 0x40 MLOAD SWAP1 JUMP JUMPDEST PUSH4 0xD16B833 PUSH1 0xE3 SHL DUP2 MSTORE SWAP2 DUP3 SWAP2 DUP3 ADD SWAP1 JUMP JUMPDEST POP POP POP POP POP POP POP POP POP PUSH2 0x1130 PUSH1 0x40 MLOAD SWAP1 JUMP JUMPDEST PUSH4 0x58D620B3 PUSH1 0xE0 SHL DUP2 MSTORE PUSH1 0x4 SWAP1 REVERT JUMPDEST POP POP POP POP POP POP POP POP POP PUSH2 0x1151 PUSH1 0x40 MLOAD SWAP1 JUMP JUMPDEST PUSH4 0x162908E3 PUSH1 0xE1 SHL DUP2 MSTORE PUSH1 0x4 SWAP1 REVERT JUMPDEST POP POP POP POP POP POP POP POP POP PUSH2 0x1172 PUSH1 0x40 MLOAD SWAP1 JUMP JUMPDEST PUSH4 0x3B4F091F PUSH1 0xE2 SHL DUP2 MSTORE PUSH1 0x4 SWAP1 REVERT JUMPDEST POP POP POP POP POP POP POP POP PUSH2 0x1192 PUSH1 0x40 MLOAD SWAP1 JUMP JUMPDEST PUSH4 0xEA8E4EB5 PUSH1 0xE0 SHL DUP2 MSTORE PUSH1 0x4 SWAP1 REVERT JUMPDEST PUSH2 0x11BA PUSH2 0x11B4 PUSH2 0x630 SWAP3 PUSH4 0xFFFFFFFF AND SWAP1 JUMP JUMPDEST PUSH1 0xE0 SHL SWAP1 JUMP JUMPDEST PUSH1 0x1 PUSH1 0x1 PUSH1 0xE0 SHL SUB NOT AND SWAP1 JUMP JUMPDEST PUSH1 0x1 PUSH1 0x1 PUSH1 0xA0 SHL SUB SWAP1 SWAP2 AND DUP2 MSTORE PUSH1 0x40 DUP2 ADD SWAP3 SWAP2 PUSH2 0x653 SWAP2 PUSH1 0x20 ADD MSTORE JUMP JUMPDEST PUSH2 0x1227 PUSH1 0x4 SWAP3 PUSH2 0x1218 PUSH2 0x653 SWAP6 PUSH2 0x11FE PUSH4 0xA9059CBB PUSH2 0x11A1 JUMP JUMPDEST SWAP3 PUSH2 0x1208 PUSH1 0x40 MLOAD SWAP1 JUMP JUMPDEST SWAP7 DUP8 SWAP5 PUSH1 0x20 DUP7 ADD SWAP1 DUP2 MSTORE ADD PUSH2 0x11C7 JUMP JUMPDEST PUSH1 0x20 DUP3 ADD DUP2 SUB DUP3 MSTORE SUB DUP4 PUSH2 0xDDE JUMP JUMPDEST PUSH2 0x133B JUMP JUMPDEST PUSH2 0xA14 PUSH1 0x20 SWAP2 PUSH8 0xFFFFFFFFFFFFFFFF DUP2 GT PUSH2 0x124B JUMPI PUSH1 0x1F ADD PUSH1 0x1F NOT AND SWAP1 JUMP JUMPDEST PUSH2 0xDBD PUSH2 0xDC7 JUMP JUMPDEST SWAP1 PUSH2 0x1265 PUSH2 0x1260 DUP4 PUSH2 0x122C JUMP JUMPDEST PUSH2 0xE0D JUMP JUMPDEST SWAP2 DUP3 MSTORE JUMP JUMPDEST PUSH2 0x1274 PUSH1 0x20 PUSH2 0x1253 JUMP JUMPDEST PUSH32 0x5361666545524332303A206C6F772D6C6576656C2063616C6C206661696C6564 PUSH1 0x20 DUP3 ADD MSTORE SWAP1 JUMP JUMPDEST PUSH2 0x630 PUSH2 0x126A JUMP JUMPDEST DUP1 ISZERO ISZERO PUSH2 0x63E JUMP JUMPDEST SWAP1 POP MLOAD SWAP1 PUSH2 0x653 DUP3 PUSH2 0x12A5 JUMP JUMPDEST SWAP1 PUSH2 0x630 SWAP2 PUSH1 0x20 DUP2 DUP4 SUB SLT PUSH2 0x12CE JUMPI PUSH2 0x12AD JUMP JUMPDEST PUSH2 0x12D6 PUSH2 0x61E JUMP JUMPDEST PUSH2 0x12AD JUMP JUMPDEST ISZERO PUSH2 0x12E2 JUMPI JUMP JUMPDEST POP PUSH1 0x40 MLOAD PUSH3 0x461BCD PUSH1 0xE5 SHL DUP2 MSTORE PUSH1 0x20 PUSH1 0x4 DUP3 ADD MSTORE PUSH1 0x2A PUSH1 0x24 DUP3 ADD MSTORE PUSH32 0x5361666545524332303A204552433230206F7065726174696F6E20646964206E PUSH1 0x44 DUP3 ADD MSTORE PUSH10 0x1BDD081CDD58D8D95959 PUSH1 0xB2 SHL PUSH1 0x64 DUP3 ADD MSTORE PUSH1 0x84 SWAP1 REVERT JUMPDEST PUSH2 0x653 SWAP2 PUSH2 0x134B PUSH2 0x135A SWAP3 PUSH2 0x693 JUMP JUMPDEST SWAP1 PUSH2 0x1354 PUSH2 0x129D JUMP JUMPDEST SWAP2 PUSH2 0x1398 JUMP JUMPDEST DUP1 MLOAD PUSH2 0x1369 PUSH2 0xD20 PUSH1 0x0 PUSH2 0x933 JUMP JUMPDEST EQ SWAP1 DUP2 ISZERO PUSH2 0x1378 JUMPI JUMPDEST POP PUSH2 0x12DB JUMP JUMPDEST PUSH2 0x1392 SWAP2 POP PUSH1 0x20 PUSH2 0x1387 DUP3 MLOAD SWAP1 JUMP JUMPDEST DUP2 DUP4 ADD ADD SWAP2 ADD PUSH2 0x12BA JUMP JUMPDEST CODESIZE PUSH2 0x1372 JUMP JUMPDEST PUSH2 0x630 SWAP3 SWAP2 PUSH2 0x13A7 PUSH1 0x0 PUSH2 0x933 JUMP JUMPDEST SWAP2 PUSH2 0x1428 JUMP JUMPDEST ISZERO PUSH2 0x13B4 JUMPI JUMP JUMPDEST POP PUSH1 0x40 MLOAD PUSH3 0x461BCD PUSH1 0xE5 SHL DUP2 MSTORE PUSH1 0x20 PUSH1 0x4 DUP3 ADD MSTORE PUSH1 0x26 PUSH1 0x24 DUP3 ADD MSTORE PUSH32 0x416464726573733A20696E73756666696369656E742062616C616E636520666F PUSH1 0x44 DUP3 ADD MSTORE PUSH6 0x1C8818D85B1B PUSH1 0xD2 SHL PUSH1 0x64 DUP3 ADD MSTORE PUSH1 0x84 SWAP1 REVERT JUMPDEST RETURNDATASIZE ISZERO PUSH2 0x1423 JUMPI PUSH2 0x1418 RETURNDATASIZE PUSH2 0x1253 JUMP JUMPDEST SWAP1 RETURNDATASIZE PUSH1 0x0 PUSH1 0x20 DUP5 ADD RETURNDATACOPY JUMP JUMPDEST PUSH1 0x60 SWAP1 JUMP JUMPDEST SWAP1 PUSH1 0x0 PUSH2 0x630 SWAP5 SWAP4 DUP2 SWAP3 PUSH2 0x143A PUSH1 0x60 SWAP1 JUMP JUMPDEST POP PUSH2 0x1451 PUSH2 0x1447 ADDRESS PUSH2 0x693 JUMP JUMPDEST DUP4 SWAP1 BALANCE LT ISZERO PUSH2 0x13AD JUMP JUMPDEST PUSH1 0x20 DUP2 ADD SWAP1 MLOAD SWAP2 DUP6 GAS CALL PUSH2 0x1463 PUSH2 0x1409 JUMP JUMPDEST SWAP2 PUSH2 0x14B6 JUMP JUMPDEST ISZERO PUSH2 0x1470 JUMPI JUMP JUMPDEST POP PUSH1 0x40 MLOAD PUSH3 0x461BCD PUSH1 0xE5 SHL DUP2 MSTORE PUSH1 0x20 PUSH1 0x4 DUP3 ADD MSTORE PUSH1 0x1D PUSH1 0x24 DUP3 ADD MSTORE PUSH32 0x416464726573733A2063616C6C20746F206E6F6E2D636F6E7472616374000000 PUSH1 0x44 DUP3 ADD MSTORE PUSH1 0x64 SWAP1 REVERT JUMPDEST SWAP2 SWAP3 PUSH1 0x60 SWAP2 ISZERO PUSH2 0x14EB JUMPI POP POP DUP2 MLOAD PUSH2 0x14D1 PUSH2 0xD20 PUSH1 0x0 PUSH2 0x933 JUMP JUMPDEST EQ PUSH2 0x14DA JUMPI POP SWAP1 JUMP JUMPDEST PUSH2 0x14E6 PUSH2 0x630 SWAP2 PUSH2 0x14F8 JUMP JUMPDEST PUSH2 0x1469 JUMP JUMPDEST SWAP1 SWAP4 SWAP3 PUSH2 0x653 SWAP3 POP PUSH2 0x157A JUMP JUMPDEST EXTCODESIZE PUSH2 0x1506 PUSH2 0xD20 PUSH1 0x0 PUSH2 0x933 JUMP JUMPDEST GT SWAP1 JUMP JUMPDEST SWAP2 DUP1 SWAP2 SWAP3 PUSH1 0x0 SWAP1 JUMPDEST DUP3 DUP3 LT PUSH2 0x152A JUMPI POP GT PUSH2 0x1523 JUMPI POP POP JUMP JUMPDEST PUSH1 0x0 SWAP2 ADD MSTORE JUMP JUMPDEST SWAP2 POP DUP1 PUSH1 0x20 SWAP2 DUP4 ADD MLOAD DUP2 DUP7 ADD MSTORE ADD DUP3 SWAP2 PUSH2 0x1512 JUMP JUMPDEST PUSH2 0x1560 PUSH2 0xDBD PUSH1 0x20 SWAP4 PUSH2 0xA14 SWAP4 PUSH2 0x1554 DUP2 MLOAD SWAP1 JUMP JUMPDEST DUP1 DUP4 MSTORE SWAP4 DUP5 SWAP3 PUSH1 0x20 ADD SWAP1 JUMP JUMPDEST SWAP6 DUP7 SWAP2 ADD PUSH2 0x150A JUMP JUMPDEST PUSH1 0x20 DUP1 DUP3 MSTORE PUSH2 0x630 SWAP3 SWAP2 ADD SWAP1 PUSH2 0x153F JUMP JUMPDEST SWAP2 POP PUSH2 0x1584 DUP3 MLOAD SWAP1 JUMP JUMPDEST PUSH2 0x1591 PUSH2 0xD20 PUSH1 0x0 PUSH2 0x933 JUMP JUMPDEST GT ISZERO PUSH2 0x15A0 JUMPI POP DUP1 MLOAD SWAP1 PUSH1 0x20 ADD REVERT JUMPDEST PUSH1 0x40 MLOAD PUSH2 0xA69 SWAP3 POP PUSH3 0x461BCD PUSH1 0xE5 SHL DUP2 MSTORE SWAP2 DUP3 SWAP2 PUSH1 0x4 DUP4 ADD PUSH2 0x1569 JUMP JUMPDEST PUSH2 0x15DC SWAP3 SWAP4 PUSH2 0xD20 SWAP3 PUSH2 0x15D8 SWAP3 PUSH2 0x15D2 PUSH1 0x0 SWAP1 JUMP JUMPDEST POP PUSH2 0x162E JUMP JUMPDEST SWAP3 SWAP1 JUMP JUMPDEST EQ SWAP1 JUMP JUMPDEST PUSH1 0x1 SWAP1 PUSH1 0x0 NOT DUP2 EQ PUSH2 0xD94 JUMPI ADD SWAP1 JUMP JUMPDEST POP PUSH4 0x4E487B71 PUSH1 0xE0 SHL PUSH1 0x0 MSTORE PUSH1 0x32 PUSH1 0x4 MSTORE PUSH1 0x24 PUSH1 0x0 REVERT JUMPDEST SWAP2 PUSH1 0x20 SWAP2 DUP2 LT ISZERO PUSH2 0x1617 JUMPI MUL ADD SWAP1 JUMP JUMPDEST PUSH2 0x161F PUSH2 0x15F0 JUMP JUMPDEST MUL ADD SWAP1 JUMP JUMPDEST CALLDATALOAD PUSH2 0x630 DUP2 PUSH2 0x77E JUMP JUMPDEST PUSH2 0x1638 PUSH1 0x0 PUSH2 0x933 JUMP JUMPDEST SWAP3 JUMPDEST DUP3 DUP5 LT ISZERO PUSH2 0x166E JUMPI PUSH2 0x1662 PUSH2 0x1668 SWAP2 PUSH2 0x165C PUSH2 0x1657 DUP8 DUP8 DUP8 PUSH2 0x1607 JUMP JUMPDEST PUSH2 0x1624 JUMP JUMPDEST SWAP1 PUSH2 0x1675 JUMP JUMPDEST SWAP4 PUSH2 0x15E0 JUMP JUMPDEST SWAP3 PUSH2 0x163A JUMP JUMPDEST SWAP3 POP POP POP SWAP1 JUMP JUMPDEST DUP2 DUP2 LT ISZERO PUSH2 0x1690 JUMPI SWAP1 PUSH2 0x630 SWAP2 PUSH1 0x0 MSTORE PUSH1 0x20 MSTORE PUSH1 0x40 PUSH1 0x0 KECCAK256 SWAP1 JUMP JUMPDEST PUSH2 0x630 SWAP2 PUSH1 0x0 MSTORE PUSH1 0x20 MSTORE PUSH1 0x40 PUSH1 0x0 KECCAK256 SWAP1 JUMP JUMPDEST CALLER PUSH2 0x16B0 PUSH2 0x624 PUSH1 0x7 PUSH2 0x9C0 JUMP JUMPDEST PUSH1 0x1 PUSH1 0x1 PUSH1 0xA0 SHL SUB DUP3 AND EQ ISZERO SWAP1 DUP2 PUSH2 0x16DB JUMPI JUMPDEST POP PUSH2 0x16D1 JUMPI PUSH2 0x653 SWAP1 PUSH2 0x1730 JUMP JUMPDEST POP POP PUSH1 0x40 MLOAD PUSH2 0x1192 JUMP JUMPDEST SWAP1 POP PUSH2 0x16ED PUSH2 0xA84 PUSH2 0x624 PUSH1 0x9 PUSH2 0x9C0 JUMP JUMPDEST EQ ISZERO CODESIZE PUSH2 0x16C3 JUMP JUMPDEST SWAP1 POP MLOAD SWAP1 PUSH2 0x653 DUP3 PUSH2 0x77E JUMP JUMPDEST SWAP1 PUSH2 0x630 SWAP2 PUSH1 0x20 DUP2 DUP4 SUB SLT PUSH2 0x1716 JUMPI PUSH2 0x16F5 JUMP JUMPDEST PUSH2 0x171E PUSH2 0x61E JUMP JUMPDEST PUSH2 0x16F5 JUMP JUMPDEST POP PUSH1 0x40 MLOAD RETURNDATASIZE PUSH1 0x0 DUP3 RETURNDATACOPY RETURNDATASIZE SWAP1 REVERT JUMPDEST PUSH2 0x173A PUSH1 0x0 PUSH2 0x933 JUMP JUMPDEST DUP2 EQ PUSH2 0x18B6 JUMPI PUSH2 0x1817 PUSH2 0x1755 PUSH2 0x1750 PUSH1 0x6 PUSH2 0x9C0 JUMP JUMPDEST PUSH2 0x693 JUMP JUMPDEST PUSH2 0x175E DUP2 PUSH2 0x693 JUMP JUMPDEST SWAP3 PUSH4 0x70A08231 SWAP4 PUSH2 0x176E ADDRESS PUSH2 0x693 JUMP JUMPDEST SWAP2 PUSH2 0x1778 PUSH1 0x40 MLOAD SWAP1 JUMP JUMPDEST SWAP4 PUSH2 0x1783 DUP8 PUSH1 0xE0 SHL SWAP1 JUMP JUMPDEST DUP6 MSTORE PUSH1 0x1 PUSH1 0x1 PUSH1 0xA0 SHL SUB DUP5 AND PUSH1 0x4 DUP7 ADD MSTORE PUSH1 0x20 DUP6 PUSH1 0x24 DUP2 DUP7 GAS STATICCALL SWAP5 DUP6 ISZERO PUSH2 0x18A9 JUMPI JUMPDEST PUSH1 0x0 SWAP6 PUSH2 0x187F JUMPI JUMPDEST POP SWAP2 PUSH2 0x17C2 DUP5 SWAP3 PUSH2 0x17FD SWAP6 PUSH1 0x20 SWAP6 CALLER SWAP1 PUSH2 0x18ED JUMP JUMPDEST PUSH2 0x17E6 PUSH2 0x17CF PUSH1 0x6 PUSH2 0x9C0 JUMP JUMPDEST SWAP8 PUSH2 0x17D9 PUSH1 0x40 MLOAD SWAP1 JUMP JUMPDEST SWAP6 DUP7 SWAP5 DUP6 SWAP4 DUP5 SWAP4 PUSH1 0xE0 SHL SWAP1 JUMP JUMPDEST DUP4 MSTORE PUSH1 0x1 PUSH1 0x1 PUSH1 0xA0 SHL SUB AND PUSH1 0x4 DUP4 ADD MSTORE PUSH1 0x24 DUP3 ADD SWAP1 JUMP JUMPDEST SUB SWAP2 GAS STATICCALL SWAP1 DUP2 ISZERO PUSH2 0x1872 JUMPI JUMPDEST PUSH1 0x0 SWAP2 PUSH2 0x1854 JUMPI JUMPDEST POP PUSH2 0xD71 JUMP JUMPDEST SWAP1 PUSH2 0x184F PUSH2 0x1845 PUSH32 0xF1FA0256E6ECBA08316EB890D662830768E73136B5B0DBEA4C9C8C16CA1747EB SWAP3 PUSH2 0x693 JUMP JUMPDEST SWAP3 PUSH2 0x237 PUSH1 0x40 MLOAD SWAP1 JUMP JUMPDEST SUB SWAP1 LOG2 JUMP JUMPDEST PUSH2 0x186C SWAP2 POP PUSH2 0x1863 RETURNDATASIZE DUP3 PUSH2 0xDDE JUMP JUMPDEST RETURNDATASIZE DUP2 ADD SWAP1 PUSH2 0x1702 JUMP JUMPDEST CODESIZE PUSH2 0x1811 JUMP JUMPDEST PUSH2 0x187A PUSH2 0x1723 JUMP JUMPDEST PUSH2 0x1809 JUMP JUMPDEST PUSH1 0x20 SWAP4 SWAP2 SWAP6 POP DUP5 SWAP3 PUSH2 0x17FD SWAP6 PUSH2 0x189C PUSH2 0x17C2 SWAP4 PUSH2 0x1863 RETURNDATASIZE DUP3 PUSH2 0xDDE JUMP JUMPDEST SWAP8 SWAP4 SWAP6 POP POP SWAP3 SWAP5 POP PUSH2 0x17AD JUMP JUMPDEST PUSH2 0x18B1 PUSH2 0x1723 JUMP JUMPDEST PUSH2 0x17A5 JUMP JUMPDEST POP POP PUSH1 0x40 MLOAD PUSH2 0x1151 JUMP JUMPDEST PUSH2 0x653 SWAP1 PUSH2 0x16A2 JUMP JUMPDEST PUSH1 0x1 PUSH1 0x1 PUSH1 0xA0 SHL SUB SWAP2 DUP3 AND DUP2 MSTORE SWAP2 AND PUSH1 0x20 DUP3 ADD MSTORE PUSH1 0x60 DUP2 ADD SWAP3 SWAP2 PUSH2 0x653 SWAP2 PUSH1 0x40 ADD MSTORE JUMP JUMPDEST SWAP1 PUSH2 0x1227 SWAP1 PUSH2 0x1218 PUSH2 0x653 SWAP6 PUSH1 0x4 SWAP6 PUSH2 0x1909 PUSH4 0x23B872DD PUSH2 0x11A1 JUMP JUMPDEST SWAP4 PUSH2 0x1913 PUSH1 0x40 MLOAD SWAP1 JUMP JUMPDEST SWAP8 DUP9 SWAP6 PUSH1 0x20 DUP8 ADD SWAP1 DUP2 MSTORE ADD PUSH2 0x18C9 JUMP JUMPDEST SWAP2 SWAP1 CALLER PUSH2 0x1933 PUSH2 0x624 PUSH1 0x7 PUSH2 0x9C0 JUMP JUMPDEST PUSH1 0x1 PUSH1 0x1 PUSH1 0xA0 SHL SUB DUP3 AND EQ ISZERO SWAP1 DUP2 PUSH2 0x1961 JUMPI JUMPDEST POP PUSH2 0x1954 JUMPI PUSH2 0x653 SWAP3 PUSH2 0x1987 JUMP JUMPDEST POP POP POP POP PUSH2 0x1192 PUSH1 0x40 MLOAD SWAP1 JUMP JUMPDEST SWAP1 POP PUSH2 0x1971 PUSH2 0xA84 PUSH2 0x624 PUSH2 0x9CA JUMP JUMPDEST EQ ISZERO CODESIZE PUSH2 0x1946 JUMP JUMPDEST SWAP1 PUSH2 0xDB6 PUSH2 0x630 PUSH2 0xADE SWAP3 SWAP1 JUMP JUMPDEST SWAP1 SWAP2 PUSH1 0x0 SWAP3 PUSH2 0x1998 PUSH2 0x624 DUP6 PUSH2 0x9F1 JUMP JUMPDEST PUSH1 0x1 PUSH1 0x1 PUSH1 0xA0 SHL SUB DUP5 AND EQ PUSH2 0x1A54 JUMPI PUSH2 0x19B0 DUP5 PUSH2 0x933 JUMP JUMPDEST DUP2 EQ PUSH2 0x1A37 JUMPI PUSH2 0x1A00 PUSH1 0x2 SWAP5 PUSH2 0x19D0 TIMESTAMP PUSH2 0x19CA PUSH1 0xA PUSH2 0x6BB JUMP JUMPDEST SWAP1 PUSH2 0xD88 JUMP JUMPDEST SWAP6 DUP7 SWAP2 PUSH2 0x19ED DUP6 PUSH2 0x19E5 PUSH2 0x630 DUP11 PUSH1 0x4 PUSH2 0x69C JUMP JUMPDEST SWAP3 DUP4 ADD PUSH2 0x1979 JUMP JUMPDEST PUSH2 0x19FA DUP7 PUSH1 0x1 DUP4 ADD PUSH2 0x1979 JUMP JUMPDEST ADD PUSH2 0xDA6 JUMP JUMPDEST PUSH2 0x184F PUSH2 0x1A2D PUSH32 0x9CA93988E299D8264919A188C320F8D8EFA97E1976A234F3C6C42315FC10B4E0 SWAP5 PUSH2 0x693 JUMP JUMPDEST SWAP5 PUSH2 0x5BA PUSH1 0x40 MLOAD SWAP1 JUMP JUMPDEST POP POP POP POP POP PUSH2 0x1A45 PUSH1 0x40 MLOAD SWAP1 JUMP JUMPDEST PUSH4 0x9DD854D3 PUSH1 0xE0 SHL DUP2 MSTORE PUSH1 0x4 SWAP1 REVERT JUMPDEST POP POP POP POP POP PUSH2 0x1A62 PUSH1 0x40 MLOAD SWAP1 JUMP JUMPDEST PUSH4 0xC1AB6DC1 PUSH1 0xE0 SHL DUP2 MSTORE PUSH1 0x4 SWAP1 REVERT JUMPDEST SWAP1 PUSH2 0x653 SWAP3 SWAP2 PUSH2 0x1923 JUMP JUMPDEST PUSH2 0x653 SWAP1 PUSH2 0x1A88 PUSH2 0xA6D JUMP JUMPDEST PUSH1 0x3 SWAP1 PUSH2 0x1A98 PUSH2 0xFA2 DUP3 DUP5 PUSH2 0x69C JUMP JUMPDEST SWAP2 PUSH1 0x0 SWAP1 PUSH2 0x1AA5 DUP3 PUSH2 0x933 JUMP JUMPDEST DUP5 EQ PUSH2 0x1B02 JUMPI PUSH2 0x103E DUP4 PUSH2 0x1ABB PUSH2 0x1AC1 SWAP5 PUSH2 0x933 JUMP JUMPDEST SWAP3 PUSH2 0x69C JUMP JUMPDEST PUSH2 0x1AD5 DUP3 PUSH2 0x1ACE DUP4 PUSH2 0x693 JUMP JUMPDEST CALLER SWAP1 PUSH2 0x11E4 JUMP JUMPDEST PUSH2 0x184F PUSH2 0x1845 PUSH32 0x9DC46F23CFB5DDCAD0AE7EA2BE38D47FEC07BB9382EC7E564EFC69E036DD66CE SWAP3 PUSH2 0x693 JUMP JUMPDEST POP POP POP POP POP PUSH2 0x1151 PUSH1 0x40 MLOAD SWAP1 JUMP JUMPDEST PUSH2 0x653 SWAP1 PUSH2 0x1A7C JUMP JUMPDEST PUSH2 0x653 SWAP1 PUSH2 0x1B25 PUSH2 0xA6D JUMP JUMPDEST PUSH2 0x653 SWAP1 PUSH2 0x1CC8 JUMP JUMPDEST PUSH2 0x653 SWAP1 PUSH2 0x1B19 JUMP JUMPDEST PUSH2 0x653 SWAP1 PUSH2 0x1B43 PUSH2 0xA6D JUMP JUMPDEST PUSH2 0x653 SWAP1 PUSH2 0x1C1C JUMP JUMPDEST PUSH2 0x653 SWAP1 PUSH2 0x1B37 JUMP JUMPDEST PUSH2 0x653 SWAP1 PUSH2 0x1B61 PUSH2 0xA6D JUMP JUMPDEST PUSH2 0x653 SWAP1 PUSH2 0x1C77 JUMP JUMPDEST PUSH2 0x653 SWAP1 PUSH2 0x1B55 JUMP JUMPDEST PUSH2 0x653 SWAP1 PUSH2 0x1B7F PUSH2 0xA6D JUMP JUMPDEST PUSH2 0x1B8C PUSH2 0x624 PUSH1 0x0 PUSH2 0x9F1 JUMP JUMPDEST PUSH1 0x1 PUSH1 0x1 PUSH1 0xA0 SHL SUB DUP3 AND EQ PUSH2 0x1BE1 JUMPI PUSH2 0x1BA6 DUP2 PUSH1 0x8 PUSH2 0xAC7 JUMP JUMPDEST PUSH2 0x1BD0 PUSH32 0xDFE91DCAD2ADCB1ECD18D2E830B469081211D6743C1E2DFA893836431FB78794 SWAP2 PUSH2 0x693 JUMP JUMPDEST SWAP1 PUSH2 0x1BDA PUSH1 0x40 MLOAD SWAP1 JUMP JUMPDEST DUP1 DUP1 PUSH2 0x184F JUMP JUMPDEST POP POP PUSH1 0x40 MLOAD PUSH4 0xE6C4247B PUSH1 0xE0 SHL DUP2 MSTORE PUSH1 0x4 SWAP1 REVERT JUMPDEST PUSH2 0x653 SWAP1 PUSH2 0x1B73 JUMP JUMPDEST PUSH2 0x653 SWAP1 PUSH2 0x1C0A PUSH2 0xA6D JUMP JUMPDEST PUSH2 0x653 SWAP1 PUSH2 0x1D2D JUMP JUMPDEST PUSH2 0x653 SWAP1 PUSH2 0x1BFE JUMP JUMPDEST PUSH2 0x1C29 PUSH2 0x624 PUSH1 0x0 PUSH2 0x9F1 JUMP JUMPDEST PUSH1 0x1 PUSH1 0x1 PUSH1 0xA0 SHL SUB DUP3 AND EQ PUSH2 0x1C6D JUMPI PUSH2 0x1C43 DUP2 PUSH1 0x6 PUSH2 0xAC7 JUMP JUMPDEST PUSH2 0x1BD0 PUSH32 0x2FFAE89A4970D1FF9BF1A765B00D7EEE23CD328CDAAAB85B7CE9E5379C1ECE32 SWAP2 PUSH2 0x693 JUMP JUMPDEST POP POP PUSH1 0x40 MLOAD PUSH2 0x1A62 JUMP JUMPDEST PUSH2 0x1C84 PUSH2 0x624 PUSH1 0x0 PUSH2 0x9F1 JUMP JUMPDEST PUSH1 0x1 PUSH1 0x1 PUSH1 0xA0 SHL SUB DUP3 AND EQ PUSH2 0x1BE1 JUMPI PUSH2 0x1C9E DUP2 PUSH1 0x9 PUSH2 0xAC7 JUMP JUMPDEST PUSH2 0x1BD0 PUSH32 0x5326C5EBDDD2FEAFB723C3B63CC83FB32A9C8DD7D05476832B798D9782BAD878 SWAP2 PUSH2 0x693 JUMP JUMPDEST PUSH2 0x1CD5 PUSH2 0x624 PUSH1 0x0 PUSH2 0x9F1 JUMP JUMPDEST PUSH1 0x1 PUSH1 0x1 PUSH1 0xA0 SHL SUB DUP3 AND EQ PUSH2 0x1D19 JUMPI PUSH2 0x1CEF DUP2 PUSH1 0x7 PUSH2 0xAC7 JUMP JUMPDEST PUSH2 0x1BD0 PUSH32 0xDBEBFBA65BD6398FB722063EFC10C99F624F9CD8BA657201056AF918A676D5EE SWAP2 PUSH2 0x693 JUMP JUMPDEST POP POP PUSH1 0x40 MLOAD PUSH4 0xCCEA9E6F PUSH1 0xE0 SHL DUP2 MSTORE PUSH1 0x4 SWAP1 REVERT JUMPDEST PUSH2 0x1D38 PUSH2 0x630 PUSH2 0x940 JUMP JUMPDEST DUP2 LT PUSH2 0x1D77 JUMPI PUSH2 0x1D49 DUP2 PUSH1 0xA PUSH2 0xDA6 JUMP JUMPDEST PUSH2 0xCBF PUSH32 0x676DC704F22DDAB12A141690A96616EF0128413803C63394ABA7FFE658681A16 SWAP2 PUSH2 0x237 PUSH1 0x40 MLOAD SWAP1 JUMP JUMPDEST POP POP PUSH1 0x40 MLOAD PUSH4 0x67E00A07 PUSH1 0xE0 SHL DUP2 MSTORE PUSH1 0x4 SWAP1 REVERT INVALID LOG3 PUSH5 0x6970667358 0x22 SLT KECCAK256 0xDF SWAP11 0x4F BALANCE ORIGIN 0x24 0x4F SSTORE 0xC3 JUMPDEST 0xFB PUSH31 0x8209D5F82CFD6E1D0A80C8C3E1720944EBB5CB286C6578706572696D656E74 PUSH2 0x6CF5 PUSH5 0x736F6C6343 STOP ADDMOD 0xC STOP COINBASE "},"methodIdentifiers":{"FEE_BASIS()":"8686ebcc","MAX_FEE()":"bc063e1a","MINIMUM_ACTIVE_TIMER()":"7fdba5f6","acceptOwnership()":"79ba5097","activeTimerDuration()":"33f642f6","changeActiveTimerDuration(uint256)":"960d264d","changeClaimer(address)":"101cef48","changeDefaultToken(address)":"8e3fb0d3","changeOperator(address)":"06394c9b","changeRewardSwapper(address)":"03aaf08b","claim(address,address,uint256,bytes32[],uint256,address)":"48a61ff5","claimed(address,address)":"0c9cbf0e","claimer()":"d379be23","collectFees(address)":"a480ca79","defaultToken()":"74c13fda","depositReward(uint256)":"1e2720ff","feesCollected(address)":"5b2478ea","isMember(address)":"a230c524","join()":"b688a363","leave()":"d66d9e19","operator()":"570ca735","owner()":"8da5cb5b","pendingOwner()":"e30c3978","renounceOwnership()":"715018a6","rewardSwapper()":"5512b811","rewards(address)":"0700037d","transferOwnership(address)":"f2fde38b","updateRewardsMetadata(address,bytes32,bytes32)":"0cc630c7"}}}}}