{"contracts/RewardDistributor.sol":{"RewardDistributor":{"abi":[{"inputs":[],"stateMutability":"nonpayable","type":"constructor"},{"inputs":[],"name":"InvalidArray","type":"error"},{"inputs":[],"name":"InvalidDistribution","type":"error"},{"inputs":[],"name":"InvalidMerkleRoot","type":"error"},{"inputs":[],"name":"InvalidProof","type":"error"},{"inputs":[],"name":"InvalidTimerDuration","type":"error"},{"inputs":[],"name":"RewardInactive","type":"error"},{"anonymous":false,"inputs":[{"indexed":false,"internalType":"address","name":"account","type":"address"}],"name":"Paused","type":"event"},{"anonymous":false,"inputs":[{"indexed":true,"internalType":"bytes32","name":"identifier","type":"bytes32"},{"indexed":true,"internalType":"address","name":"token","type":"address"},{"indexed":true,"internalType":"address","name":"account","type":"address"},{"indexed":false,"internalType":"uint256","name":"amount","type":"uint256"}],"name":"RewardClaimed","type":"event"},{"anonymous":false,"inputs":[{"indexed":true,"internalType":"bytes32","name":"identifier","type":"bytes32"},{"indexed":true,"internalType":"address","name":"token","type":"address"},{"indexed":false,"internalType":"bytes32","name":"merkleRoot","type":"bytes32"},{"indexed":false,"internalType":"bytes32","name":"proof","type":"bytes32"},{"indexed":false,"internalType":"uint256","name":"activeAt","type":"uint256"}],"name":"RewardMetadataUpdated","type":"event"},{"anonymous":false,"inputs":[{"indexed":true,"internalType":"bytes32","name":"role","type":"bytes32"},{"indexed":true,"internalType":"bytes32","name":"previousAdminRole","type":"bytes32"},{"indexed":true,"internalType":"bytes32","name":"newAdminRole","type":"bytes32"}],"name":"RoleAdminChanged","type":"event"},{"anonymous":false,"inputs":[{"indexed":true,"internalType":"bytes32","name":"role","type":"bytes32"},{"indexed":true,"internalType":"address","name":"account","type":"address"},{"indexed":true,"internalType":"address","name":"sender","type":"address"}],"name":"RoleGranted","type":"event"},{"anonymous":false,"inputs":[{"indexed":true,"internalType":"bytes32","name":"role","type":"bytes32"},{"indexed":true,"internalType":"address","name":"account","type":"address"},{"indexed":true,"internalType":"address","name":"sender","type":"address"}],"name":"RoleRevoked","type":"event"},{"anonymous":false,"inputs":[{"indexed":false,"internalType":"uint256","name":"duration","type":"uint256"}],"name":"SetActiveTimerDuration","type":"event"},{"anonymous":false,"inputs":[{"indexed":false,"internalType":"address","name":"account","type":"address"}],"name":"Unpaused","type":"event"},{"inputs":[],"name":"DEFAULT_ADMIN_ROLE","outputs":[{"internalType":"bytes32","name":"","type":"bytes32"}],"stateMutability":"view","type":"function"},{"inputs":[],"name":"MINIMUM_ACTIVE_TIMER","outputs":[{"internalType":"uint256","name":"","type":"uint256"}],"stateMutability":"view","type":"function"},{"inputs":[],"name":"activeTimerDuration","outputs":[{"internalType":"uint256","name":"","type":"uint256"}],"stateMutability":"view","type":"function"},{"inputs":[{"internalType":"uint256","name":"_duration","type":"uint256"}],"name":"changeActiveTimerDuration","outputs":[],"stateMutability":"nonpayable","type":"function"},{"inputs":[{"components":[{"internalType":"bytes32","name":"identifier","type":"bytes32"},{"internalType":"address","name":"account","type":"address"},{"internalType":"uint256","name":"amount","type":"uint256"},{"internalType":"bytes32[]","name":"merkleProof","type":"bytes32[]"}],"internalType":"struct RewardDistributor.Claim[]","name":"_claims","type":"tuple[]"}],"name":"claim","outputs":[],"stateMutability":"nonpayable","type":"function"},{"inputs":[{"internalType":"bytes32","name":"","type":"bytes32"},{"internalType":"address","name":"","type":"address"}],"name":"claimed","outputs":[{"internalType":"uint256","name":"","type":"uint256"}],"stateMutability":"view","type":"function"},{"inputs":[{"internalType":"bytes32","name":"role","type":"bytes32"}],"name":"getRoleAdmin","outputs":[{"internalType":"bytes32","name":"","type":"bytes32"}],"stateMutability":"view","type":"function"},{"inputs":[{"internalType":"bytes32","name":"role","type":"bytes32"},{"internalType":"address","name":"account","type":"address"}],"name":"grantRole","outputs":[],"stateMutability":"nonpayable","type":"function"},{"inputs":[{"internalType":"bytes32","name":"role","type":"bytes32"},{"internalType":"address","name":"account","type":"address"}],"name":"hasRole","outputs":[{"internalType":"bool","name":"","type":"bool"}],"stateMutability":"view","type":"function"},{"inputs":[],"name":"paused","outputs":[{"internalType":"bool","name":"","type":"bool"}],"stateMutability":"view","type":"function"},{"inputs":[{"internalType":"bytes32","name":"role","type":"bytes32"},{"internalType":"address","name":"account","type":"address"}],"name":"renounceRole","outputs":[],"stateMutability":"nonpayable","type":"function"},{"inputs":[{"internalType":"bytes32","name":"role","type":"bytes32"},{"internalType":"address","name":"account","type":"address"}],"name":"revokeRole","outputs":[],"stateMutability":"nonpayable","type":"function"},{"inputs":[{"internalType":"bytes32","name":"","type":"bytes32"}],"name":"rewards","outputs":[{"internalType":"address","name":"token","type":"address"},{"internalType":"bytes32","name":"merkleRoot","type":"bytes32"},{"internalType":"bytes32","name":"proof","type":"bytes32"},{"internalType":"uint256","name":"activeAt","type":"uint256"}],"stateMutability":"view","type":"function"},{"inputs":[{"internalType":"bool","name":"state","type":"bool"}],"name":"setPauseState","outputs":[],"stateMutability":"nonpayable","type":"function"},{"inputs":[{"internalType":"bytes4","name":"interfaceId","type":"bytes4"}],"name":"supportsInterface","outputs":[{"internalType":"bool","name":"","type":"bool"}],"stateMutability":"view","type":"function"},{"inputs":[{"components":[{"internalType":"bytes32","name":"identifier","type":"bytes32"},{"internalType":"address","name":"token","type":"address"},{"internalType":"bytes32","name":"merkleRoot","type":"bytes32"},{"internalType":"bytes32","name":"proof","type":"bytes32"}],"internalType":"struct Common.Distribution[]","name":"_distributions","type":"tuple[]"}],"name":"updateRewardsMetadata","outputs":[],"stateMutability":"nonpayable","type":"function"}],"evm":{"bytecode":{"linkReferences":{},"object":"60806040523462000027575b6200001562000069565b604051611bc9620002cd8239611bc990f35b6200003162000037565b6200000b565b50600080fd5b6200004d6200004d6200004d9290565b90565b6200004d60006200003d565b6200004d612a306200003d565b62000073620000d3565b620000896200008162000050565b339062000192565b6200009d620000976200005c565b62000254565b565b9060ff905b9181191691161790565b151590565b90620000c76200004d620000cf92620000ae565b82546200009f565b9055565b620000dd6200011e565b6200009d60006002620000b3565b6200004d60016200003d565b9060001990620000a4565b90620001166200004d620000cf926200003d565b8254620000f7565b6200009d6200012c620000eb565b600162000102565b9062000140906200004d565b600052602052604060002090565b6200004d9062000164906001600160a01b031682565b6001600160a01b031690565b6200004d906200014e565b6200004d9062000170565b9062000140906200017b565b90620001a7620001a3828462000236565b1590565b620001b0575050565b620001d66001620001d0836000620001c9878262000134565b0162000186565b620000b3565b3390620002136200020c6200020c7f2f8788117e7eff1d82e926ec794901d17c78024a50270940304540a733656f0d956200004d565b926200017b565b926200021e60405190565b600090a4565b60ff1690565b6200004d905462000224565b6200004d916200024e91620001c96000918262000134565b6200022a565b620002626200004d6200005c565b8110620002b8576200027681600562000102565b620002b37f676dc704f22ddab12a141690a96616ef0128413803c63394aba7ffe658681a1691620002a660405190565b9182918290815260200190565b0390a1565b50506040516367e00a0760e01b8152600490fdfe60806040526004361015610018575b6100166103a0565b005b60003560e01c806301ffc9a714610376578063248a9ca31461034c5780632f2ff15d1461032457806333f642f6146102fa57806336568abe146102d257806356853398146102aa5780635c975abb146102805780637fdba5f61461025657806391d1485414610219578063938d967a146101d9578063960d264d146101b2578063a217fddf14610188578063cdb88ad114610161578063d547741f14610139578063df45c752146101115763dfcae622146100d25761000e565b34610104575b6101006100ef6100e936600461044d565b9061070d565b6040515b9182918290815260200190565b0390f35b61010c6103a0565b6100d8565b503461012c575b61001661012636600461069a565b9061137a565b6101346103a0565b610118565b5034610154575b61001661014e36600461044d565b906109e1565b61015c6103a0565b610140565b503461017b575b61001661017636600461062d565b6113a8565b6101836103a0565b610168565b50346101a5575b61019a36600461047e565b6101006100ef610610565b6101ad6103a0565b61018f565b50346101cc575b6100166101c7366004610404565b6114d5565b6101d46103a0565b6101b9565b503461020c575b6101006101f66101f1366004610404565b610587565b9061020394929460405190565b948594856105ca565b6102146103a0565b6101e0565b5034610249575b61010061023761023136600461044d565b9061077b565b60405191829182901515815260200190565b6102516103a0565b610220565b5034610273575b61026836600461047e565b6101006100ef61055e565b61027b6103a0565b61025d565b503461029d575b61029236600461047e565b610100610237610b6f565b6102a56103a0565b610287565b50346102c5575b6100166102bf3660046104ff565b90611040565b6102cd6103a0565b6102b1565b50346102ed575b6100166102e736600461044d565b90610a50565b6102f56103a0565b6102d9565b5034610317575b61030c36600461047e565b6101006100ef6104a7565b61031f6103a0565b610301565b503461033f575b61001661033936600461044d565b906107d9565b6103476103a0565b61032b565b5034610369575b6101006100ef610364366004610404565b61079a565b6103716103a0565b610353565b5034610393575b61010061023761038e3660046103c9565b61072c565b61039b6103a0565b61037d565b50600080fd5b6001600160e01b031981165b14156103a057565b905035906103c7826103a6565b565b906103dd916020818303126103e0576103ba565b90565b6103e86103a0565b6103ba565b9052565b806103b2565b905035906103c7826103f1565b906103dd91602081830312610418576103f7565b6104206103a0565b6103f7565b6001600160a01b031690565b6001600160a01b0381166103b2565b905035906103c782610431565b91906103dd90604084820312610471575b61046881856103f7565b93602001610440565b6104796103a0565b61045e565b600091031261048957565b6103c76103a0565b6103dd916008021c81565b906103dd9154610491565b6103dd6000600561049c565b909182601f830112156104f2575b602082359267ffffffffffffffff84116104e5575b01926020830284011161048957565b6104ed6103a0565b6104d6565b6104fa6103a0565b6104c1565b9061052891602081830312610539575b80359067ffffffffffffffff821161052c575b016104b3565b9091565b6105346103a0565b610522565b6105416103a0565b61050f565b6103dd6103dd6103dd9290565b6103dd612a30610546565b6103dd610553565b905b600052602052604060002090565b6103dd9081565b6103dd9054610576565b610592906003610566565b906105a482546001600160a01b031690565b916105b16001820161057d565b916103dd60036105c36002850161057d565b930161057d565b6106026103c7946105fb6060949897956105f4608086019a60008701906001600160a01b03169052565b6020850152565b6040830152565b0152565b6103dd6000610546565b6103dd610606565b8015156103b2565b905035906103c782610618565b906103dd9160208183031261064157610620565b6106496103a0565b610620565b909182601f8301121561068d575b602082359267ffffffffffffffff8411610680575b01926080830284011161048957565b6106886103a0565b610671565b6106956103a0565b61065c565b90610528916020818303126106d0575b80359067ffffffffffffffff82116106c3575b0161064e565b6106cb6103a0565b6106bd565b6106d86103a0565b6106aa565b6103dd90610425906001600160a01b031682565b6103dd906106dd565b6103dd906106f1565b90610568906106fa565b6107276103dd92610722600493600094610566565b610703565b61049c565b637965db0b60e01b6001600160e01b031982161490811561074b575090565b6103dd91506001600160e01b0319166301ffc9a760e01b1490565b6103dd905b60ff1690565b6103dd9054610766565b6103dd916107959161078f60009182610566565b01610703565b610771565b60016107b36103dd926107ab600090565b506000610566565b0161057d565b906103c7916107cf6107ca8261079a565b6107e3565b906103c791610aa0565b906103c7916107b9565b6103c7903390610937565b6103dd90610546565b0190565b918091926000905b82821061081b575011610814575050565b6000910152565b91508060209183015181860152018291610803565b6107f761084892602092610842815190565b94859290565b938491016107fb565b61088f6103dd9392610889610889937f416363657373436f6e74726f6c3a206163636f756e7420000000000000000000815260170190565b90610830565b7001034b99036b4b9b9b4b733903937b6329607d1b815260110190565b601f01601f191690565b50634e487b7160e01b600052604160045260246000fd5b90601f01601f1916810190811067ffffffffffffffff8211176108ef57604052565b6108f76108b6565b604052565b61091d6108ac6020936107f793610911815190565b80835293849260200190565b958691016107fb565b60208082526103dd929101906108fc565b90610949610945828461077b565b1590565b610951575050565b6109c29250906103dd61096f6109696109a994610e78565b926107ee565b61098460209161097e83610546565b90610d18565b9261099d61099160405190565b94859384019283610851565b908103825203826108cd565b6040515b62461bcd60e51b815291829160048301610926565b0390fd5b906103c7916109d76107ca8261079a565b906103c791610b18565b906103c7916109c6565b156109f257565b5060405162461bcd60e51b815260206004820152602f60248201527f416363657373436f6e74726f6c3a2063616e206f6e6c792072656e6f756e636560448201526e103937b632b9903337b91039b2b63360891b6064820152608490fd5b6103c79190610a71610a6133610425565b6001600160a01b038416146109eb565b610b18565b9060ff905b9181191691161790565b90610a956103dd610a9c92151590565b8254610a76565b9055565b90610aae610945828461077b565b610ab6575050565b610ad06001610acb83600061078f8782610566565b610a85565b3390610b06610b00610b007f2f8788117e7eff1d82e926ec794901d17c78024a50270940304540a733656f0d9590565b926106fa565b92610b1060405190565b80805b0390a4565b90610b23818361077b565b610b2b575050565b610b3f6000610acb838261078f8782610566565b3390610b06610b00610b007ff6391f5c32d9c69d2a47ea670b442974b53935d1edc7fd64eb21e047a839171b9590565b6103dd6002610771565b50634e487b7160e01b600052601160045260246000fd5b90610b9a565b9190565b908060001904821181151516610bae570290565b610bb6610b79565b0290565b81198111610bc6570190565b6107f7610b79565b906103c7610bdb60405190565b92836108cd565b6107f760209167ffffffffffffffff8111610c0157601f01601f191690565b6108ac6108b6565b90610c1b610c1683610be2565b610bce565b918252565b369037565b906103c7610c3b610c3584610c09565b93610be2565b601f190160208401610c20565b50634e487b7160e01b600052603260045260246000fd5b906001602091610c6d845190565b811015610c7b575b02010190565b610c83610c48565b610c75565b6001908015610c95570390565b610c9d610b79565b0390565b61076b6103dd6103dd9290565b6103dd90610cc2610b966103dd9460ff1690565b901c90565b15610cce57565b5060405162461bcd60e51b8152806109c2600482016020808252818101527f537472696e67733a20686578206c656e67746820696e73756666696369656e74604082015260600190565b9190600290610d49610d44610d3583610d3086610546565b610b90565b610d3e85610546565b90610bba565b610c25565b916000916030610d61610d5b85610546565b86610c5f565b53610d99610d90600f60fb1b92610d306001958695881a610d8a610d8488610546565b8b610c5f565b53610546565b610d3e83610546565b915b610dbc575b50506103dd9293610db6610b966103dd93610546565b14610cc7565b9094610dc782610546565b861115610e4657610e33610e2d8392610e10610df36f181899199a1a9b1b9c1cb0b131b232b360811b90565b610dfd600f610546565b83166010811015610e39575b1a60f81b90565b861a610e1c8a89610c5f565b53610e276004610ca1565b90610cae565b96610c88565b91610d9b565b610e41610c48565b610e09565b94610da0565b6103dd9081906001600160a01b031681565b6103dd6014610ca1565b6103dd6103dd6103dd9260ff1690565b610e95610e906103dd92610e8a606090565b506106f1565b610e4c565b61097e610ea0610e5e565b610e68565b1490565b90610ebb91610eb6611115565b610ec3565b6103c7611147565b906103c791610ed061108a565b610f80565b903590607e193682900301821215610eeb570190565b6107f76103a0565b906103dd92602091811015610f0c575b02810190610ed5565b610f14610c48565b610f03565b356103dd816103f1565b356103dd81610431565b903590601e193682900301821215610f73575b01602081359167ffffffffffffffff8311610f66575b0191602082023603831361048957565b610f6e6103a0565b610f56565b610f7b6103a0565b610f40565b9091908291600090610f9182610546565b84146110235760005b845b81101561101b576110148161100e86808a611006610ffc86610ff56040610fdd838f610fef610f9c9f610fe9818c610fe38f96610fdd60209684809a610ef3565b01610f19565b9e610ef3565b01610f23565b9a610ef3565b938d610ef3565b6060810190610f2d565b939092611583565b60010190565b9050610f9a565b509350505050565b505050505061103160405190565b631ec5aa5160e01b8152600490fd5b906103c791610ea9565b1561105157565b5060405162461bcd60e51b815260206004820152601060248201526f14185d5cd8589b194e881c185d5cd95960821b6044820152606490fd5b6103c7611098610945610b6f565b61104a565b6103dd6002610546565b156110ae57565b5060405162461bcd60e51b815260206004820152601f60248201527f5265656e7472616e637947756172643a207265656e7472616e742063616c6c006044820152606490fd5b9060001990610a7b565b9061110e6103dd610a9c92610546565b82546110f4565b6103c7611122600161057d565b61113661112d61109d565b918214156110a7565b60016110fe565b6103dd6001610546565b6103c761113661113d565b906103c7916111626107ca610606565b6111eb565b9160809181101561117757020190565b61117f610c48565b020190565b9061110e6103dd610a9c9290565b6104256103dd6103dd9290565b6103dd90611192565b906001600160a01b0390610a7b565b906111c76103dd610a9c926106fa565b82546111a8565b9081526060810193926103c7929091604091610602906020830152565b91816000936111f985610546565b841461135d5761120d42610d3e600561057d565b9260005b855b81101561135457611225818585611167565b80880191600361123484610f19565b61123e9082610566565b8a604085019161124d83610f19565b61125a9060018301611184565b8a606087019461126986610f19565b6112769060028501611184565b820190611282916110fe565b019361129585546001600160a01b031690565b61129e8d61119f565b6001600160a01b0316906001600160a01b0316146112db6112db60206112d46112139a6113329a6112e196611339575b50610f19565b9401610f23565b93610f19565b61131261130c7f1d0b6716ec306cca1346fdec2c918d00831bd1239f2d28acf62e94f2373355fc9390565b936106fa565b936113298c61132060405190565b938493846111ce565b0390a360010190565b9050611211565b61134e90611348858a01610f23565b906111b7565b386112ce565b50945050505050565b505050505061136b60405190565b630d16b83360e31b8152600490fd5b906103c791611152565b6103c7906113936107ca610606565b156113a0576103c7611413565b6103c7611461565b6103c790611384565b6113b961108a565b6103c76113c860016002610a85565b3361140e7f62e78cea01bee320cd4e420270b5ea74000d11b0c9f74754ebdbfc544b05a258916113f760405190565b918291826001600160a01b03909116815260200190565b0390a1565b6103c76113b1565b6114236114ad565b6103c761143260006002610a85565b3361140e7f5db9ee0a495bf2e6ff9c91a7834c1ba4fdd244a5e8aa4e537bd38aeae4b073aa916113f760405190565b6103c761141b565b1561147057565b5060405162461bcd60e51b815260206004820152601460248201527314185d5cd8589b194e881b9bdd081c185d5cd95960621b6044820152606490fd5b6103c76114b8610b6f565b611469565b6103c7906114cc6107ca610606565b6103c790611b27565b6103c7906114bd565b6103dd6080610bce565b906103c761154760036114f96114de565b9461151b61150e82546001600160a01b031690565b6001600160a01b03168752565b61153161152a6001830161057d565b6020880152565b6107b36115406002830161057d565b6040880152565b6060840152565b6103dd906114e8565b6103ed906001600160a01b031660601b90565b60148161157d6107f79360209695611557565b01918252565b919392909261159b611596846003610566565b61154e565b9060208201906115a9825190565b936000946115b9610b9687610546565b146116fd57606084015142106116dc576109456116329187936115fb6115f68c6115f16115ec8e61072260049b8c610566565b61057d565b610bba565b965190565b9061160560405190565b611619818d61099d8b60208401928361156a565b61162b611624825190565b9160200190565b2092611a74565b6116b55761166093929161164d876107228861165295610566565b6110fe565b01516001600160a01b031690565b90611674848461166f856106fa565b611761565b610b136116ab6116a56116a57f5eb306c17229e0da0cbf33aae2020ca276e63db4818b8060786e49ae516231109490565b946106fa565b946100f360405190565b955050505050506109c291506116ca60405190565b6309bde33960e01b8152918291820190565b5050505050505050506116ee60405190565b630995309b60e01b8152600490fd5b50505050505050505061170f60405190565b639dd854d360e01b8152600490fd5b6117376117316103dd9263ffffffff1690565b60e01b90565b6001600160e01b03191690565b6001600160a01b0390911681526040810192916103c79160200152565b6117a46004926117956103c79561177b63a9059cbb61171e565b9261178560405190565b9687946020860190815201611744565b602082018103825203836108cd565b611872565b6117b36020610c09565b7f5361666545524332303a206c6f772d6c6576656c2063616c6c206661696c6564602082015290565b6103dd6117a9565b905051906103c782610618565b906103dd91602081830312611805576117e4565b61180d6103a0565b6117e4565b1561181957565b5060405162461bcd60e51b815260206004820152602a60248201527f5361666545524332303a204552433230206f7065726174696f6e20646964206e6044820152691bdd081cdd58d8d9595960b21b6064820152608490fd5b6103c791611882611891926106fa565b9061188b6117dc565b916118cf565b80516118a0610b966000610546565b149081156118af575b50611812565b6118c9915060206118be825190565b8183010191016117f1565b386118a9565b6103dd92916118de6000610546565b9161195f565b156118eb57565b5060405162461bcd60e51b815260206004820152602660248201527f416464726573733a20696e73756666696369656e742062616c616e636520666f6044820152651c8818d85b1b60d21b6064820152608490fd5b3d1561195a5761194f3d610c09565b903d6000602084013e565b606090565b9060006103dd94938192611971606090565b5061198861197e306106fa565b83903110156118e4565b60208101905191855af161199a611940565b916119ed565b156119a757565b5060405162461bcd60e51b815260206004820152601d60248201527f416464726573733a2063616c6c20746f206e6f6e2d636f6e74726163740000006044820152606490fd5b919260609115611a225750508151611a08610b966000610546565b14611a11575090565b611a1d6103dd91611a2f565b6119a0565b9093926103c79250611a41565b3b611a3d610b966000610546565b1190565b9150611a4b825190565b611a58610b966000610546565b1115611a675750805190602001fd5b6040516109c292506109ad565b610ea59293610b9692611a8f92611a89600090565b50611ab3565b9290565b6001906000198114610bc6570190565b9160209181101561117757020190565b611abd6000610546565b925b82841015611af357611ae7611aed91611ae1611adc878787611aa3565b610f19565b90611afa565b93611a93565b92611abf565b9250505090565b81811015611b1557906103dd91600052602052604060002090565b6103dd91600052602052604060002090565b611b326103dd610553565b8110611b7157611b438160056110fe565b61140e7f676dc704f22ddab12a141690a96616ef0128413803c63394aba7ffe658681a16916100f360405190565b50506040516367e00a0760e01b8152600490fdfea364697066735822122098163cbcc7b95e7e33dc5b56853bde84c8b36b03ac696c29a4ddd82b8dbfb1fa6c6578706572696d656e74616cf564736f6c634300080c0041","opcodes":"PUSH1 0x80 PUSH1 0x40 MSTORE CALLVALUE PUSH3 0x27 JUMPI JUMPDEST PUSH3 0x15 PUSH3 0x69 JUMP JUMPDEST PUSH1 0x40 MLOAD PUSH2 0x1BC9 PUSH3 0x2CD DUP3 CODECOPY PUSH2 0x1BC9 SWAP1 RETURN JUMPDEST PUSH3 0x31 PUSH3 0x37 JUMP JUMPDEST PUSH3 0xB JUMP JUMPDEST POP PUSH1 0x0 DUP1 REVERT JUMPDEST PUSH3 0x4D PUSH3 0x4D PUSH3 0x4D SWAP3 SWAP1 JUMP JUMPDEST SWAP1 JUMP JUMPDEST PUSH3 0x4D PUSH1 0x0 PUSH3 0x3D JUMP JUMPDEST PUSH3 0x4D PUSH2 0x2A30 PUSH3 0x3D JUMP JUMPDEST PUSH3 0x73 PUSH3 0xD3 JUMP JUMPDEST PUSH3 0x89 PUSH3 0x81 PUSH3 0x50 JUMP JUMPDEST CALLER SWAP1 PUSH3 0x192 JUMP JUMPDEST PUSH3 0x9D PUSH3 0x97 PUSH3 0x5C JUMP JUMPDEST PUSH3 0x254 JUMP JUMPDEST JUMP JUMPDEST SWAP1 PUSH1 0xFF SWAP1 JUMPDEST SWAP2 DUP2 NOT AND SWAP2 AND OR SWAP1 JUMP JUMPDEST ISZERO ISZERO SWAP1 JUMP JUMPDEST SWAP1 PUSH3 0xC7 PUSH3 0x4D PUSH3 0xCF SWAP3 PUSH3 0xAE JUMP JUMPDEST DUP3 SLOAD PUSH3 0x9F JUMP JUMPDEST SWAP1 SSTORE JUMP JUMPDEST PUSH3 0xDD PUSH3 0x11E JUMP JUMPDEST PUSH3 0x9D PUSH1 0x0 PUSH1 0x2 PUSH3 0xB3 JUMP JUMPDEST PUSH3 0x4D PUSH1 0x1 PUSH3 0x3D JUMP JUMPDEST SWAP1 PUSH1 0x0 NOT SWAP1 PUSH3 0xA4 JUMP JUMPDEST SWAP1 PUSH3 0x116 PUSH3 0x4D PUSH3 0xCF SWAP3 PUSH3 0x3D JUMP JUMPDEST DUP3 SLOAD PUSH3 0xF7 JUMP JUMPDEST PUSH3 0x9D PUSH3 0x12C PUSH3 0xEB JUMP JUMPDEST PUSH1 0x1 PUSH3 0x102 JUMP JUMPDEST SWAP1 PUSH3 0x140 SWAP1 PUSH3 0x4D JUMP JUMPDEST PUSH1 0x0 MSTORE PUSH1 0x20 MSTORE PUSH1 0x40 PUSH1 0x0 KECCAK256 SWAP1 JUMP JUMPDEST PUSH3 0x4D SWAP1 PUSH3 0x164 SWAP1 PUSH1 0x1 PUSH1 0x1 PUSH1 0xA0 SHL SUB AND DUP3 JUMP JUMPDEST PUSH1 0x1 PUSH1 0x1 PUSH1 0xA0 SHL SUB AND SWAP1 JUMP JUMPDEST PUSH3 0x4D SWAP1 PUSH3 0x14E JUMP JUMPDEST PUSH3 0x4D SWAP1 PUSH3 0x170 JUMP JUMPDEST SWAP1 PUSH3 0x140 SWAP1 PUSH3 0x17B JUMP JUMPDEST SWAP1 PUSH3 0x1A7 PUSH3 0x1A3 DUP3 DUP5 PUSH3 0x236 JUMP JUMPDEST ISZERO SWAP1 JUMP JUMPDEST PUSH3 0x1B0 JUMPI POP POP JUMP JUMPDEST PUSH3 0x1D6 PUSH1 0x1 PUSH3 0x1D0 DUP4 PUSH1 0x0 PUSH3 0x1C9 DUP8 DUP3 PUSH3 0x134 JUMP JUMPDEST ADD PUSH3 0x186 JUMP JUMPDEST PUSH3 0xB3 JUMP JUMPDEST CALLER SWAP1 PUSH3 0x213 PUSH3 0x20C PUSH3 0x20C PUSH32 0x2F8788117E7EFF1D82E926EC794901D17C78024A50270940304540A733656F0D SWAP6 PUSH3 0x4D JUMP JUMPDEST SWAP3 PUSH3 0x17B JUMP JUMPDEST SWAP3 PUSH3 0x21E PUSH1 0x40 MLOAD SWAP1 JUMP JUMPDEST PUSH1 0x0 SWAP1 LOG4 JUMP JUMPDEST PUSH1 0xFF AND SWAP1 JUMP JUMPDEST PUSH3 0x4D SWAP1 SLOAD PUSH3 0x224 JUMP JUMPDEST PUSH3 0x4D SWAP2 PUSH3 0x24E SWAP2 PUSH3 0x1C9 PUSH1 0x0 SWAP2 DUP3 PUSH3 0x134 JUMP JUMPDEST PUSH3 0x22A JUMP JUMPDEST PUSH3 0x262 PUSH3 0x4D PUSH3 0x5C JUMP JUMPDEST DUP2 LT PUSH3 0x2B8 JUMPI PUSH3 0x276 DUP2 PUSH1 0x5 PUSH3 0x102 JUMP JUMPDEST PUSH3 0x2B3 PUSH32 0x676DC704F22DDAB12A141690A96616EF0128413803C63394ABA7FFE658681A16 SWAP2 PUSH3 0x2A6 PUSH1 0x40 MLOAD SWAP1 JUMP JUMPDEST SWAP2 DUP3 SWAP2 DUP3 SWAP1 DUP2 MSTORE PUSH1 0x20 ADD SWAP1 JUMP JUMPDEST SUB SWAP1 LOG1 JUMP JUMPDEST POP POP PUSH1 0x40 MLOAD PUSH4 0x67E00A07 PUSH1 0xE0 SHL DUP2 MSTORE PUSH1 0x4 SWAP1 REVERT INVALID PUSH1 0x80 PUSH1 0x40 MSTORE PUSH1 0x4 CALLDATASIZE LT ISZERO PUSH2 0x18 JUMPI JUMPDEST PUSH2 0x16 PUSH2 0x3A0 JUMP JUMPDEST STOP JUMPDEST PUSH1 0x0 CALLDATALOAD PUSH1 0xE0 SHR DUP1 PUSH4 0x1FFC9A7 EQ PUSH2 0x376 JUMPI DUP1 PUSH4 0x248A9CA3 EQ PUSH2 0x34C JUMPI DUP1 PUSH4 0x2F2FF15D EQ PUSH2 0x324 JUMPI DUP1 PUSH4 0x33F642F6 EQ PUSH2 0x2FA JUMPI DUP1 PUSH4 0x36568ABE EQ PUSH2 0x2D2 JUMPI DUP1 PUSH4 0x56853398 EQ PUSH2 0x2AA JUMPI DUP1 PUSH4 0x5C975ABB EQ PUSH2 0x280 JUMPI DUP1 PUSH4 0x7FDBA5F6 EQ PUSH2 0x256 JUMPI DUP1 PUSH4 0x91D14854 EQ PUSH2 0x219 JUMPI DUP1 PUSH4 0x938D967A EQ PUSH2 0x1D9 JUMPI DUP1 PUSH4 0x960D264D EQ PUSH2 0x1B2 JUMPI DUP1 PUSH4 0xA217FDDF EQ PUSH2 0x188 JUMPI DUP1 PUSH4 0xCDB88AD1 EQ PUSH2 0x161 JUMPI DUP1 PUSH4 0xD547741F EQ PUSH2 0x139 JUMPI DUP1 PUSH4 0xDF45C752 EQ PUSH2 0x111 JUMPI PUSH4 0xDFCAE622 EQ PUSH2 0xD2 JUMPI PUSH2 0xE JUMP JUMPDEST CALLVALUE PUSH2 0x104 JUMPI JUMPDEST PUSH2 0x100 PUSH2 0xEF PUSH2 0xE9 CALLDATASIZE PUSH1 0x4 PUSH2 0x44D JUMP JUMPDEST SWAP1 PUSH2 0x70D JUMP JUMPDEST PUSH1 0x40 MLOAD JUMPDEST SWAP2 DUP3 SWAP2 DUP3 SWAP1 DUP2 MSTORE PUSH1 0x20 ADD SWAP1 JUMP JUMPDEST SUB SWAP1 RETURN JUMPDEST PUSH2 0x10C PUSH2 0x3A0 JUMP JUMPDEST PUSH2 0xD8 JUMP JUMPDEST POP CALLVALUE PUSH2 0x12C JUMPI JUMPDEST PUSH2 0x16 PUSH2 0x126 CALLDATASIZE PUSH1 0x4 PUSH2 0x69A JUMP JUMPDEST SWAP1 PUSH2 0x137A JUMP JUMPDEST PUSH2 0x134 PUSH2 0x3A0 JUMP JUMPDEST PUSH2 0x118 JUMP JUMPDEST POP CALLVALUE PUSH2 0x154 JUMPI JUMPDEST PUSH2 0x16 PUSH2 0x14E CALLDATASIZE PUSH1 0x4 PUSH2 0x44D JUMP JUMPDEST SWAP1 PUSH2 0x9E1 JUMP JUMPDEST PUSH2 0x15C PUSH2 0x3A0 JUMP JUMPDEST PUSH2 0x140 JUMP JUMPDEST POP CALLVALUE PUSH2 0x17B JUMPI JUMPDEST PUSH2 0x16 PUSH2 0x176 CALLDATASIZE PUSH1 0x4 PUSH2 0x62D JUMP JUMPDEST PUSH2 0x13A8 JUMP JUMPDEST PUSH2 0x183 PUSH2 0x3A0 JUMP JUMPDEST PUSH2 0x168 JUMP JUMPDEST POP CALLVALUE PUSH2 0x1A5 JUMPI JUMPDEST PUSH2 0x19A CALLDATASIZE PUSH1 0x4 PUSH2 0x47E JUMP JUMPDEST PUSH2 0x100 PUSH2 0xEF PUSH2 0x610 JUMP JUMPDEST PUSH2 0x1AD PUSH2 0x3A0 JUMP JUMPDEST PUSH2 0x18F JUMP JUMPDEST POP CALLVALUE PUSH2 0x1CC JUMPI JUMPDEST PUSH2 0x16 PUSH2 0x1C7 CALLDATASIZE PUSH1 0x4 PUSH2 0x404 JUMP JUMPDEST PUSH2 0x14D5 JUMP JUMPDEST PUSH2 0x1D4 PUSH2 0x3A0 JUMP JUMPDEST PUSH2 0x1B9 JUMP JUMPDEST POP CALLVALUE PUSH2 0x20C JUMPI JUMPDEST PUSH2 0x100 PUSH2 0x1F6 PUSH2 0x1F1 CALLDATASIZE PUSH1 0x4 PUSH2 0x404 JUMP JUMPDEST PUSH2 0x587 JUMP JUMPDEST SWAP1 PUSH2 0x203 SWAP5 SWAP3 SWAP5 PUSH1 0x40 MLOAD SWAP1 JUMP JUMPDEST SWAP5 DUP6 SWAP5 DUP6 PUSH2 0x5CA JUMP JUMPDEST PUSH2 0x214 PUSH2 0x3A0 JUMP JUMPDEST PUSH2 0x1E0 JUMP JUMPDEST POP CALLVALUE PUSH2 0x249 JUMPI JUMPDEST PUSH2 0x100 PUSH2 0x237 PUSH2 0x231 CALLDATASIZE PUSH1 0x4 PUSH2 0x44D JUMP JUMPDEST SWAP1 PUSH2 0x77B JUMP JUMPDEST PUSH1 0x40 MLOAD SWAP2 DUP3 SWAP2 DUP3 SWAP1 ISZERO ISZERO DUP2 MSTORE PUSH1 0x20 ADD SWAP1 JUMP JUMPDEST PUSH2 0x251 PUSH2 0x3A0 JUMP JUMPDEST PUSH2 0x220 JUMP JUMPDEST POP CALLVALUE PUSH2 0x273 JUMPI JUMPDEST PUSH2 0x268 CALLDATASIZE PUSH1 0x4 PUSH2 0x47E JUMP JUMPDEST PUSH2 0x100 PUSH2 0xEF PUSH2 0x55E JUMP JUMPDEST PUSH2 0x27B PUSH2 0x3A0 JUMP JUMPDEST PUSH2 0x25D JUMP JUMPDEST POP CALLVALUE PUSH2 0x29D JUMPI JUMPDEST PUSH2 0x292 CALLDATASIZE PUSH1 0x4 PUSH2 0x47E JUMP JUMPDEST PUSH2 0x100 PUSH2 0x237 PUSH2 0xB6F JUMP JUMPDEST PUSH2 0x2A5 PUSH2 0x3A0 JUMP JUMPDEST PUSH2 0x287 JUMP JUMPDEST POP CALLVALUE PUSH2 0x2C5 JUMPI JUMPDEST PUSH2 0x16 PUSH2 0x2BF CALLDATASIZE PUSH1 0x4 PUSH2 0x4FF JUMP JUMPDEST SWAP1 PUSH2 0x1040 JUMP JUMPDEST PUSH2 0x2CD PUSH2 0x3A0 JUMP JUMPDEST PUSH2 0x2B1 JUMP JUMPDEST POP CALLVALUE PUSH2 0x2ED JUMPI JUMPDEST PUSH2 0x16 PUSH2 0x2E7 CALLDATASIZE PUSH1 0x4 PUSH2 0x44D JUMP JUMPDEST SWAP1 PUSH2 0xA50 JUMP JUMPDEST PUSH2 0x2F5 PUSH2 0x3A0 JUMP JUMPDEST PUSH2 0x2D9 JUMP JUMPDEST POP CALLVALUE PUSH2 0x317 JUMPI JUMPDEST PUSH2 0x30C CALLDATASIZE PUSH1 0x4 PUSH2 0x47E JUMP JUMPDEST PUSH2 0x100 PUSH2 0xEF PUSH2 0x4A7 JUMP JUMPDEST PUSH2 0x31F PUSH2 0x3A0 JUMP JUMPDEST PUSH2 0x301 JUMP JUMPDEST POP CALLVALUE PUSH2 0x33F JUMPI JUMPDEST PUSH2 0x16 PUSH2 0x339 CALLDATASIZE PUSH1 0x4 PUSH2 0x44D JUMP JUMPDEST SWAP1 PUSH2 0x7D9 JUMP JUMPDEST PUSH2 0x347 PUSH2 0x3A0 JUMP JUMPDEST PUSH2 0x32B JUMP JUMPDEST POP CALLVALUE PUSH2 0x369 JUMPI JUMPDEST PUSH2 0x100 PUSH2 0xEF PUSH2 0x364 CALLDATASIZE PUSH1 0x4 PUSH2 0x404 JUMP JUMPDEST PUSH2 0x79A JUMP JUMPDEST PUSH2 0x371 PUSH2 0x3A0 JUMP JUMPDEST PUSH2 0x353 JUMP JUMPDEST POP CALLVALUE PUSH2 0x393 JUMPI JUMPDEST PUSH2 0x100 PUSH2 0x237 PUSH2 0x38E CALLDATASIZE PUSH1 0x4 PUSH2 0x3C9 JUMP JUMPDEST PUSH2 0x72C JUMP JUMPDEST PUSH2 0x39B PUSH2 0x3A0 JUMP JUMPDEST PUSH2 0x37D JUMP JUMPDEST POP PUSH1 0x0 DUP1 REVERT JUMPDEST PUSH1 0x1 PUSH1 0x1 PUSH1 0xE0 SHL SUB NOT DUP2 AND JUMPDEST EQ ISZERO PUSH2 0x3A0 JUMPI JUMP JUMPDEST SWAP1 POP CALLDATALOAD SWAP1 PUSH2 0x3C7 DUP3 PUSH2 0x3A6 JUMP JUMPDEST JUMP JUMPDEST SWAP1 PUSH2 0x3DD SWAP2 PUSH1 0x20 DUP2 DUP4 SUB SLT PUSH2 0x3E0 JUMPI PUSH2 0x3BA JUMP JUMPDEST SWAP1 JUMP JUMPDEST PUSH2 0x3E8 PUSH2 0x3A0 JUMP JUMPDEST PUSH2 0x3BA JUMP JUMPDEST SWAP1 MSTORE JUMP JUMPDEST DUP1 PUSH2 0x3B2 JUMP JUMPDEST SWAP1 POP CALLDATALOAD SWAP1 PUSH2 0x3C7 DUP3 PUSH2 0x3F1 JUMP JUMPDEST SWAP1 PUSH2 0x3DD SWAP2 PUSH1 0x20 DUP2 DUP4 SUB SLT PUSH2 0x418 JUMPI PUSH2 0x3F7 JUMP JUMPDEST PUSH2 0x420 PUSH2 0x3A0 JUMP JUMPDEST PUSH2 0x3F7 JUMP JUMPDEST PUSH1 0x1 PUSH1 0x1 PUSH1 0xA0 SHL SUB AND SWAP1 JUMP JUMPDEST PUSH1 0x1 PUSH1 0x1 PUSH1 0xA0 SHL SUB DUP2 AND PUSH2 0x3B2 JUMP JUMPDEST SWAP1 POP CALLDATALOAD SWAP1 PUSH2 0x3C7 DUP3 PUSH2 0x431 JUMP JUMPDEST SWAP2 SWAP1 PUSH2 0x3DD SWAP1 PUSH1 0x40 DUP5 DUP3 SUB SLT PUSH2 0x471 JUMPI JUMPDEST PUSH2 0x468 DUP2 DUP6 PUSH2 0x3F7 JUMP JUMPDEST SWAP4 PUSH1 0x20 ADD PUSH2 0x440 JUMP JUMPDEST PUSH2 0x479 PUSH2 0x3A0 JUMP JUMPDEST PUSH2 0x45E JUMP JUMPDEST PUSH1 0x0 SWAP2 SUB SLT PUSH2 0x489 JUMPI JUMP JUMPDEST PUSH2 0x3C7 PUSH2 0x3A0 JUMP JUMPDEST PUSH2 0x3DD SWAP2 PUSH1 0x8 MUL SHR DUP2 JUMP JUMPDEST SWAP1 PUSH2 0x3DD SWAP2 SLOAD PUSH2 0x491 JUMP JUMPDEST PUSH2 0x3DD PUSH1 0x0 PUSH1 0x5 PUSH2 0x49C JUMP JUMPDEST SWAP1 SWAP2 DUP3 PUSH1 0x1F DUP4 ADD SLT ISZERO PUSH2 0x4F2 JUMPI JUMPDEST PUSH1 0x20 DUP3 CALLDATALOAD SWAP3 PUSH8 0xFFFFFFFFFFFFFFFF DUP5 GT PUSH2 0x4E5 JUMPI JUMPDEST ADD SWAP3 PUSH1 0x20 DUP4 MUL DUP5 ADD GT PUSH2 0x489 JUMPI JUMP JUMPDEST PUSH2 0x4ED PUSH2 0x3A0 JUMP JUMPDEST PUSH2 0x4D6 JUMP JUMPDEST PUSH2 0x4FA PUSH2 0x3A0 JUMP JUMPDEST PUSH2 0x4C1 JUMP JUMPDEST SWAP1 PUSH2 0x528 SWAP2 PUSH1 0x20 DUP2 DUP4 SUB SLT PUSH2 0x539 JUMPI JUMPDEST DUP1 CALLDATALOAD SWAP1 PUSH8 0xFFFFFFFFFFFFFFFF DUP3 GT PUSH2 0x52C JUMPI JUMPDEST ADD PUSH2 0x4B3 JUMP JUMPDEST SWAP1 SWAP2 JUMP JUMPDEST PUSH2 0x534 PUSH2 0x3A0 JUMP JUMPDEST PUSH2 0x522 JUMP JUMPDEST PUSH2 0x541 PUSH2 0x3A0 JUMP JUMPDEST PUSH2 0x50F JUMP JUMPDEST PUSH2 0x3DD PUSH2 0x3DD PUSH2 0x3DD SWAP3 SWAP1 JUMP JUMPDEST PUSH2 0x3DD PUSH2 0x2A30 PUSH2 0x546 JUMP JUMPDEST PUSH2 0x3DD PUSH2 0x553 JUMP JUMPDEST SWAP1 JUMPDEST PUSH1 0x0 MSTORE PUSH1 0x20 MSTORE PUSH1 0x40 PUSH1 0x0 KECCAK256 SWAP1 JUMP JUMPDEST PUSH2 0x3DD SWAP1 DUP2 JUMP JUMPDEST PUSH2 0x3DD SWAP1 SLOAD PUSH2 0x576 JUMP JUMPDEST PUSH2 0x592 SWAP1 PUSH1 0x3 PUSH2 0x566 JUMP JUMPDEST SWAP1 PUSH2 0x5A4 DUP3 SLOAD PUSH1 0x1 PUSH1 0x1 PUSH1 0xA0 SHL SUB AND SWAP1 JUMP JUMPDEST SWAP2 PUSH2 0x5B1 PUSH1 0x1 DUP3 ADD PUSH2 0x57D JUMP JUMPDEST SWAP2 PUSH2 0x3DD PUSH1 0x3 PUSH2 0x5C3 PUSH1 0x2 DUP6 ADD PUSH2 0x57D JUMP JUMPDEST SWAP4 ADD PUSH2 0x57D JUMP JUMPDEST PUSH2 0x602 PUSH2 0x3C7 SWAP5 PUSH2 0x5FB PUSH1 0x60 SWAP5 SWAP9 SWAP8 SWAP6 PUSH2 0x5F4 PUSH1 0x80 DUP7 ADD SWAP11 PUSH1 0x0 DUP8 ADD SWAP1 PUSH1 0x1 PUSH1 0x1 PUSH1 0xA0 SHL SUB AND SWAP1 MSTORE JUMP JUMPDEST PUSH1 0x20 DUP6 ADD MSTORE JUMP JUMPDEST PUSH1 0x40 DUP4 ADD MSTORE JUMP JUMPDEST ADD MSTORE JUMP JUMPDEST PUSH2 0x3DD PUSH1 0x0 PUSH2 0x546 JUMP JUMPDEST PUSH2 0x3DD PUSH2 0x606 JUMP JUMPDEST DUP1 ISZERO ISZERO PUSH2 0x3B2 JUMP JUMPDEST SWAP1 POP CALLDATALOAD SWAP1 PUSH2 0x3C7 DUP3 PUSH2 0x618 JUMP JUMPDEST SWAP1 PUSH2 0x3DD SWAP2 PUSH1 0x20 DUP2 DUP4 SUB SLT PUSH2 0x641 JUMPI PUSH2 0x620 JUMP JUMPDEST PUSH2 0x649 PUSH2 0x3A0 JUMP JUMPDEST PUSH2 0x620 JUMP JUMPDEST SWAP1 SWAP2 DUP3 PUSH1 0x1F DUP4 ADD SLT ISZERO PUSH2 0x68D JUMPI JUMPDEST PUSH1 0x20 DUP3 CALLDATALOAD SWAP3 PUSH8 0xFFFFFFFFFFFFFFFF DUP5 GT PUSH2 0x680 JUMPI JUMPDEST ADD SWAP3 PUSH1 0x80 DUP4 MUL DUP5 ADD GT PUSH2 0x489 JUMPI JUMP JUMPDEST PUSH2 0x688 PUSH2 0x3A0 JUMP JUMPDEST PUSH2 0x671 JUMP JUMPDEST PUSH2 0x695 PUSH2 0x3A0 JUMP JUMPDEST PUSH2 0x65C JUMP JUMPDEST SWAP1 PUSH2 0x528 SWAP2 PUSH1 0x20 DUP2 DUP4 SUB SLT PUSH2 0x6D0 JUMPI JUMPDEST DUP1 CALLDATALOAD SWAP1 PUSH8 0xFFFFFFFFFFFFFFFF DUP3 GT PUSH2 0x6C3 JUMPI JUMPDEST ADD PUSH2 0x64E JUMP JUMPDEST PUSH2 0x6CB PUSH2 0x3A0 JUMP JUMPDEST PUSH2 0x6BD JUMP JUMPDEST PUSH2 0x6D8 PUSH2 0x3A0 JUMP JUMPDEST PUSH2 0x6AA JUMP JUMPDEST PUSH2 0x3DD SWAP1 PUSH2 0x425 SWAP1 PUSH1 0x1 PUSH1 0x1 PUSH1 0xA0 SHL SUB AND DUP3 JUMP JUMPDEST PUSH2 0x3DD SWAP1 PUSH2 0x6DD JUMP JUMPDEST PUSH2 0x3DD SWAP1 PUSH2 0x6F1 JUMP JUMPDEST SWAP1 PUSH2 0x568 SWAP1 PUSH2 0x6FA JUMP JUMPDEST PUSH2 0x727 PUSH2 0x3DD SWAP3 PUSH2 0x722 PUSH1 0x4 SWAP4 PUSH1 0x0 SWAP5 PUSH2 0x566 JUMP JUMPDEST PUSH2 0x703 JUMP JUMPDEST PUSH2 0x49C JUMP JUMPDEST PUSH4 0x7965DB0B PUSH1 0xE0 SHL PUSH1 0x1 PUSH1 0x1 PUSH1 0xE0 SHL SUB NOT DUP3 AND EQ SWAP1 DUP2 ISZERO PUSH2 0x74B JUMPI POP SWAP1 JUMP JUMPDEST PUSH2 0x3DD SWAP2 POP PUSH1 0x1 PUSH1 0x1 PUSH1 0xE0 SHL SUB NOT AND PUSH4 0x1FFC9A7 PUSH1 0xE0 SHL EQ SWAP1 JUMP JUMPDEST PUSH2 0x3DD SWAP1 JUMPDEST PUSH1 0xFF AND SWAP1 JUMP JUMPDEST PUSH2 0x3DD SWAP1 SLOAD PUSH2 0x766 JUMP JUMPDEST PUSH2 0x3DD SWAP2 PUSH2 0x795 SWAP2 PUSH2 0x78F PUSH1 0x0 SWAP2 DUP3 PUSH2 0x566 JUMP JUMPDEST ADD PUSH2 0x703 JUMP JUMPDEST PUSH2 0x771 JUMP JUMPDEST PUSH1 0x1 PUSH2 0x7B3 PUSH2 0x3DD SWAP3 PUSH2 0x7AB PUSH1 0x0 SWAP1 JUMP JUMPDEST POP PUSH1 0x0 PUSH2 0x566 JUMP JUMPDEST ADD PUSH2 0x57D JUMP JUMPDEST SWAP1 PUSH2 0x3C7 SWAP2 PUSH2 0x7CF PUSH2 0x7CA DUP3 PUSH2 0x79A JUMP JUMPDEST PUSH2 0x7E3 JUMP JUMPDEST SWAP1 PUSH2 0x3C7 SWAP2 PUSH2 0xAA0 JUMP JUMPDEST SWAP1 PUSH2 0x3C7 SWAP2 PUSH2 0x7B9 JUMP JUMPDEST PUSH2 0x3C7 SWAP1 CALLER SWAP1 PUSH2 0x937 JUMP JUMPDEST PUSH2 0x3DD SWAP1 PUSH2 0x546 JUMP JUMPDEST ADD SWAP1 JUMP JUMPDEST SWAP2 DUP1 SWAP2 SWAP3 PUSH1 0x0 SWAP1 JUMPDEST DUP3 DUP3 LT PUSH2 0x81B JUMPI POP GT PUSH2 0x814 JUMPI POP POP JUMP JUMPDEST PUSH1 0x0 SWAP2 ADD MSTORE JUMP JUMPDEST SWAP2 POP DUP1 PUSH1 0x20 SWAP2 DUP4 ADD MLOAD DUP2 DUP7 ADD MSTORE ADD DUP3 SWAP2 PUSH2 0x803 JUMP JUMPDEST PUSH2 0x7F7 PUSH2 0x848 SWAP3 PUSH1 0x20 SWAP3 PUSH2 0x842 DUP2 MLOAD SWAP1 JUMP JUMPDEST SWAP5 DUP6 SWAP3 SWAP1 JUMP JUMPDEST SWAP4 DUP5 SWAP2 ADD PUSH2 0x7FB JUMP JUMPDEST PUSH2 0x88F PUSH2 0x3DD SWAP4 SWAP3 PUSH2 0x889 PUSH2 0x889 SWAP4 PUSH32 0x416363657373436F6E74726F6C3A206163636F756E7420000000000000000000 DUP2 MSTORE PUSH1 0x17 ADD SWAP1 JUMP JUMPDEST SWAP1 PUSH2 0x830 JUMP JUMPDEST PUSH17 0x1034B99036B4B9B9B4B733903937B6329 PUSH1 0x7D SHL DUP2 MSTORE PUSH1 0x11 ADD SWAP1 JUMP JUMPDEST PUSH1 0x1F ADD PUSH1 0x1F NOT AND SWAP1 JUMP JUMPDEST POP PUSH4 0x4E487B71 PUSH1 0xE0 SHL PUSH1 0x0 MSTORE PUSH1 0x41 PUSH1 0x4 MSTORE PUSH1 0x24 PUSH1 0x0 REVERT JUMPDEST SWAP1 PUSH1 0x1F ADD PUSH1 0x1F NOT AND DUP2 ADD SWAP1 DUP2 LT PUSH8 0xFFFFFFFFFFFFFFFF DUP3 GT OR PUSH2 0x8EF JUMPI PUSH1 0x40 MSTORE JUMP JUMPDEST PUSH2 0x8F7 PUSH2 0x8B6 JUMP JUMPDEST PUSH1 0x40 MSTORE JUMP JUMPDEST PUSH2 0x91D PUSH2 0x8AC PUSH1 0x20 SWAP4 PUSH2 0x7F7 SWAP4 PUSH2 0x911 DUP2 MLOAD SWAP1 JUMP JUMPDEST DUP1 DUP4 MSTORE SWAP4 DUP5 SWAP3 PUSH1 0x20 ADD SWAP1 JUMP JUMPDEST SWAP6 DUP7 SWAP2 ADD PUSH2 0x7FB JUMP JUMPDEST PUSH1 0x20 DUP1 DUP3 MSTORE PUSH2 0x3DD SWAP3 SWAP2 ADD SWAP1 PUSH2 0x8FC JUMP JUMPDEST SWAP1 PUSH2 0x949 PUSH2 0x945 DUP3 DUP5 PUSH2 0x77B JUMP JUMPDEST ISZERO SWAP1 JUMP JUMPDEST PUSH2 0x951 JUMPI POP POP JUMP JUMPDEST PUSH2 0x9C2 SWAP3 POP SWAP1 PUSH2 0x3DD PUSH2 0x96F PUSH2 0x969 PUSH2 0x9A9 SWAP5 PUSH2 0xE78 JUMP JUMPDEST SWAP3 PUSH2 0x7EE JUMP JUMPDEST PUSH2 0x984 PUSH1 0x20 SWAP2 PUSH2 0x97E DUP4 PUSH2 0x546 JUMP JUMPDEST SWAP1 PUSH2 0xD18 JUMP JUMPDEST SWAP3 PUSH2 0x99D PUSH2 0x991 PUSH1 0x40 MLOAD SWAP1 JUMP JUMPDEST SWAP5 DUP6 SWAP4 DUP5 ADD SWAP3 DUP4 PUSH2 0x851 JUMP JUMPDEST SWAP1 DUP2 SUB DUP3 MSTORE SUB DUP3 PUSH2 0x8CD JUMP JUMPDEST PUSH1 0x40 MLOAD JUMPDEST PUSH3 0x461BCD PUSH1 0xE5 SHL DUP2 MSTORE SWAP2 DUP3 SWAP2 PUSH1 0x4 DUP4 ADD PUSH2 0x926 JUMP JUMPDEST SUB SWAP1 REVERT JUMPDEST SWAP1 PUSH2 0x3C7 SWAP2 PUSH2 0x9D7 PUSH2 0x7CA DUP3 PUSH2 0x79A JUMP JUMPDEST SWAP1 PUSH2 0x3C7 SWAP2 PUSH2 0xB18 JUMP JUMPDEST SWAP1 PUSH2 0x3C7 SWAP2 PUSH2 0x9C6 JUMP JUMPDEST ISZERO PUSH2 0x9F2 JUMPI JUMP JUMPDEST POP PUSH1 0x40 MLOAD PUSH3 0x461BCD PUSH1 0xE5 SHL DUP2 MSTORE PUSH1 0x20 PUSH1 0x4 DUP3 ADD MSTORE PUSH1 0x2F PUSH1 0x24 DUP3 ADD MSTORE PUSH32 0x416363657373436F6E74726F6C3A2063616E206F6E6C792072656E6F756E6365 PUSH1 0x44 DUP3 ADD MSTORE PUSH15 0x103937B632B9903337B91039B2B633 PUSH1 0x89 SHL PUSH1 0x64 DUP3 ADD MSTORE PUSH1 0x84 SWAP1 REVERT JUMPDEST PUSH2 0x3C7 SWAP2 SWAP1 PUSH2 0xA71 PUSH2 0xA61 CALLER PUSH2 0x425 JUMP JUMPDEST PUSH1 0x1 PUSH1 0x1 PUSH1 0xA0 SHL SUB DUP5 AND EQ PUSH2 0x9EB JUMP JUMPDEST PUSH2 0xB18 JUMP JUMPDEST SWAP1 PUSH1 0xFF SWAP1 JUMPDEST SWAP2 DUP2 NOT AND SWAP2 AND OR SWAP1 JUMP JUMPDEST SWAP1 PUSH2 0xA95 PUSH2 0x3DD PUSH2 0xA9C SWAP3 ISZERO ISZERO SWAP1 JUMP JUMPDEST DUP3 SLOAD PUSH2 0xA76 JUMP JUMPDEST SWAP1 SSTORE JUMP JUMPDEST SWAP1 PUSH2 0xAAE PUSH2 0x945 DUP3 DUP5 PUSH2 0x77B JUMP JUMPDEST PUSH2 0xAB6 JUMPI POP POP JUMP JUMPDEST PUSH2 0xAD0 PUSH1 0x1 PUSH2 0xACB DUP4 PUSH1 0x0 PUSH2 0x78F DUP8 DUP3 PUSH2 0x566 JUMP JUMPDEST PUSH2 0xA85 JUMP JUMPDEST CALLER SWAP1 PUSH2 0xB06 PUSH2 0xB00 PUSH2 0xB00 PUSH32 0x2F8788117E7EFF1D82E926EC794901D17C78024A50270940304540A733656F0D SWAP6 SWAP1 JUMP JUMPDEST SWAP3 PUSH2 0x6FA JUMP JUMPDEST SWAP3 PUSH2 0xB10 PUSH1 0x40 MLOAD SWAP1 JUMP JUMPDEST DUP1 DUP1 JUMPDEST SUB SWAP1 LOG4 JUMP JUMPDEST SWAP1 PUSH2 0xB23 DUP2 DUP4 PUSH2 0x77B JUMP JUMPDEST PUSH2 0xB2B JUMPI POP POP JUMP JUMPDEST PUSH2 0xB3F PUSH1 0x0 PUSH2 0xACB DUP4 DUP3 PUSH2 0x78F DUP8 DUP3 PUSH2 0x566 JUMP JUMPDEST CALLER SWAP1 PUSH2 0xB06 PUSH2 0xB00 PUSH2 0xB00 PUSH32 0xF6391F5C32D9C69D2A47EA670B442974B53935D1EDC7FD64EB21E047A839171B SWAP6 SWAP1 JUMP JUMPDEST PUSH2 0x3DD PUSH1 0x2 PUSH2 0x771 JUMP JUMPDEST POP PUSH4 0x4E487B71 PUSH1 0xE0 SHL PUSH1 0x0 MSTORE PUSH1 0x11 PUSH1 0x4 MSTORE PUSH1 0x24 PUSH1 0x0 REVERT JUMPDEST SWAP1 PUSH2 0xB9A JUMP JUMPDEST SWAP2 SWAP1 JUMP JUMPDEST SWAP1 DUP1 PUSH1 0x0 NOT DIV DUP3 GT DUP2 ISZERO ISZERO AND PUSH2 0xBAE JUMPI MUL SWAP1 JUMP JUMPDEST PUSH2 0xBB6 PUSH2 0xB79 JUMP JUMPDEST MUL SWAP1 JUMP JUMPDEST DUP2 NOT DUP2 GT PUSH2 0xBC6 JUMPI ADD SWAP1 JUMP JUMPDEST PUSH2 0x7F7 PUSH2 0xB79 JUMP JUMPDEST SWAP1 PUSH2 0x3C7 PUSH2 0xBDB PUSH1 0x40 MLOAD SWAP1 JUMP JUMPDEST SWAP3 DUP4 PUSH2 0x8CD JUMP JUMPDEST PUSH2 0x7F7 PUSH1 0x20 SWAP2 PUSH8 0xFFFFFFFFFFFFFFFF DUP2 GT PUSH2 0xC01 JUMPI PUSH1 0x1F ADD PUSH1 0x1F NOT AND SWAP1 JUMP JUMPDEST PUSH2 0x8AC PUSH2 0x8B6 JUMP JUMPDEST SWAP1 PUSH2 0xC1B PUSH2 0xC16 DUP4 PUSH2 0xBE2 JUMP JUMPDEST PUSH2 0xBCE JUMP JUMPDEST SWAP2 DUP3 MSTORE JUMP JUMPDEST CALLDATASIZE SWAP1 CALLDATACOPY JUMP JUMPDEST SWAP1 PUSH2 0x3C7 PUSH2 0xC3B PUSH2 0xC35 DUP5 PUSH2 0xC09 JUMP JUMPDEST SWAP4 PUSH2 0xBE2 JUMP JUMPDEST PUSH1 0x1F NOT ADD PUSH1 0x20 DUP5 ADD PUSH2 0xC20 JUMP JUMPDEST POP PUSH4 0x4E487B71 PUSH1 0xE0 SHL PUSH1 0x0 MSTORE PUSH1 0x32 PUSH1 0x4 MSTORE PUSH1 0x24 PUSH1 0x0 REVERT JUMPDEST SWAP1 PUSH1 0x1 PUSH1 0x20 SWAP2 PUSH2 0xC6D DUP5 MLOAD SWAP1 JUMP JUMPDEST DUP2 LT ISZERO PUSH2 0xC7B JUMPI JUMPDEST MUL ADD ADD SWAP1 JUMP JUMPDEST PUSH2 0xC83 PUSH2 0xC48 JUMP JUMPDEST PUSH2 0xC75 JUMP JUMPDEST PUSH1 0x1 SWAP1 DUP1 ISZERO PUSH2 0xC95 JUMPI SUB SWAP1 JUMP JUMPDEST PUSH2 0xC9D PUSH2 0xB79 JUMP JUMPDEST SUB SWAP1 JUMP JUMPDEST PUSH2 0x76B PUSH2 0x3DD PUSH2 0x3DD SWAP3 SWAP1 JUMP JUMPDEST PUSH2 0x3DD SWAP1 PUSH2 0xCC2 PUSH2 0xB96 PUSH2 0x3DD SWAP5 PUSH1 0xFF AND SWAP1 JUMP JUMPDEST SWAP1 SHR SWAP1 JUMP JUMPDEST ISZERO PUSH2 0xCCE JUMPI JUMP JUMPDEST POP PUSH1 0x40 MLOAD PUSH3 0x461BCD PUSH1 0xE5 SHL DUP2 MSTORE DUP1 PUSH2 0x9C2 PUSH1 0x4 DUP3 ADD PUSH1 0x20 DUP1 DUP3 MSTORE DUP2 DUP2 ADD MSTORE PUSH32 0x537472696E67733A20686578206C656E67746820696E73756666696369656E74 PUSH1 0x40 DUP3 ADD MSTORE PUSH1 0x60 ADD SWAP1 JUMP JUMPDEST SWAP2 SWAP1 PUSH1 0x2 SWAP1 PUSH2 0xD49 PUSH2 0xD44 PUSH2 0xD35 DUP4 PUSH2 0xD30 DUP7 PUSH2 0x546 JUMP JUMPDEST PUSH2 0xB90 JUMP JUMPDEST PUSH2 0xD3E DUP6 PUSH2 0x546 JUMP JUMPDEST SWAP1 PUSH2 0xBBA JUMP JUMPDEST PUSH2 0xC25 JUMP JUMPDEST SWAP2 PUSH1 0x0 SWAP2 PUSH1 0x30 PUSH2 0xD61 PUSH2 0xD5B DUP6 PUSH2 0x546 JUMP JUMPDEST DUP7 PUSH2 0xC5F JUMP JUMPDEST MSTORE8 PUSH2 0xD99 PUSH2 0xD90 PUSH1 0xF PUSH1 0xFB SHL SWAP3 PUSH2 0xD30 PUSH1 0x1 SWAP6 DUP7 SWAP6 DUP9 BYTE PUSH2 0xD8A PUSH2 0xD84 DUP9 PUSH2 0x546 JUMP JUMPDEST DUP12 PUSH2 0xC5F JUMP JUMPDEST MSTORE8 PUSH2 0x546 JUMP JUMPDEST PUSH2 0xD3E DUP4 PUSH2 0x546 JUMP JUMPDEST SWAP2 JUMPDEST PUSH2 0xDBC JUMPI JUMPDEST POP POP PUSH2 0x3DD SWAP3 SWAP4 PUSH2 0xDB6 PUSH2 0xB96 PUSH2 0x3DD SWAP4 PUSH2 0x546 JUMP JUMPDEST EQ PUSH2 0xCC7 JUMP JUMPDEST SWAP1 SWAP5 PUSH2 0xDC7 DUP3 PUSH2 0x546 JUMP JUMPDEST DUP7 GT ISZERO PUSH2 0xE46 JUMPI PUSH2 0xE33 PUSH2 0xE2D DUP4 SWAP3 PUSH2 0xE10 PUSH2 0xDF3 PUSH16 0x181899199A1A9B1B9C1CB0B131B232B3 PUSH1 0x81 SHL SWAP1 JUMP JUMPDEST PUSH2 0xDFD PUSH1 0xF PUSH2 0x546 JUMP JUMPDEST DUP4 AND PUSH1 0x10 DUP2 LT ISZERO PUSH2 0xE39 JUMPI JUMPDEST BYTE PUSH1 0xF8 SHL SWAP1 JUMP JUMPDEST DUP7 BYTE PUSH2 0xE1C DUP11 DUP10 PUSH2 0xC5F JUMP JUMPDEST MSTORE8 PUSH2 0xE27 PUSH1 0x4 PUSH2 0xCA1 JUMP JUMPDEST SWAP1 PUSH2 0xCAE JUMP JUMPDEST SWAP7 PUSH2 0xC88 JUMP JUMPDEST SWAP2 PUSH2 0xD9B JUMP JUMPDEST PUSH2 0xE41 PUSH2 0xC48 JUMP JUMPDEST PUSH2 0xE09 JUMP JUMPDEST SWAP5 PUSH2 0xDA0 JUMP JUMPDEST PUSH2 0x3DD SWAP1 DUP2 SWAP1 PUSH1 0x1 PUSH1 0x1 PUSH1 0xA0 SHL SUB AND DUP2 JUMP JUMPDEST PUSH2 0x3DD PUSH1 0x14 PUSH2 0xCA1 JUMP JUMPDEST PUSH2 0x3DD PUSH2 0x3DD PUSH2 0x3DD SWAP3 PUSH1 0xFF AND SWAP1 JUMP JUMPDEST PUSH2 0xE95 PUSH2 0xE90 PUSH2 0x3DD SWAP3 PUSH2 0xE8A PUSH1 0x60 SWAP1 JUMP JUMPDEST POP PUSH2 0x6F1 JUMP JUMPDEST PUSH2 0xE4C JUMP JUMPDEST PUSH2 0x97E PUSH2 0xEA0 PUSH2 0xE5E JUMP JUMPDEST PUSH2 0xE68 JUMP JUMPDEST EQ SWAP1 JUMP JUMPDEST SWAP1 PUSH2 0xEBB SWAP2 PUSH2 0xEB6 PUSH2 0x1115 JUMP JUMPDEST PUSH2 0xEC3 JUMP JUMPDEST PUSH2 0x3C7 PUSH2 0x1147 JUMP JUMPDEST SWAP1 PUSH2 0x3C7 SWAP2 PUSH2 0xED0 PUSH2 0x108A JUMP JUMPDEST PUSH2 0xF80 JUMP JUMPDEST SWAP1 CALLDATALOAD SWAP1 PUSH1 0x7E NOT CALLDATASIZE DUP3 SWAP1 SUB ADD DUP3 SLT ISZERO PUSH2 0xEEB JUMPI ADD SWAP1 JUMP JUMPDEST PUSH2 0x7F7 PUSH2 0x3A0 JUMP JUMPDEST SWAP1 PUSH2 0x3DD SWAP3 PUSH1 0x20 SWAP2 DUP2 LT ISZERO PUSH2 0xF0C JUMPI JUMPDEST MUL DUP2 ADD SWAP1 PUSH2 0xED5 JUMP JUMPDEST PUSH2 0xF14 PUSH2 0xC48 JUMP JUMPDEST PUSH2 0xF03 JUMP JUMPDEST CALLDATALOAD PUSH2 0x3DD DUP2 PUSH2 0x3F1 JUMP JUMPDEST CALLDATALOAD PUSH2 0x3DD DUP2 PUSH2 0x431 JUMP JUMPDEST SWAP1 CALLDATALOAD SWAP1 PUSH1 0x1E NOT CALLDATASIZE DUP3 SWAP1 SUB ADD DUP3 SLT ISZERO PUSH2 0xF73 JUMPI JUMPDEST ADD PUSH1 0x20 DUP2 CALLDATALOAD SWAP2 PUSH8 0xFFFFFFFFFFFFFFFF DUP4 GT PUSH2 0xF66 JUMPI JUMPDEST ADD SWAP2 PUSH1 0x20 DUP3 MUL CALLDATASIZE SUB DUP4 SGT PUSH2 0x489 JUMPI JUMP JUMPDEST PUSH2 0xF6E PUSH2 0x3A0 JUMP JUMPDEST PUSH2 0xF56 JUMP JUMPDEST PUSH2 0xF7B PUSH2 0x3A0 JUMP JUMPDEST PUSH2 0xF40 JUMP JUMPDEST SWAP1 SWAP2 SWAP1 DUP3 SWAP2 PUSH1 0x0 SWAP1 PUSH2 0xF91 DUP3 PUSH2 0x546 JUMP JUMPDEST DUP5 EQ PUSH2 0x1023 JUMPI PUSH1 0x0 JUMPDEST DUP5 JUMPDEST DUP2 LT ISZERO PUSH2 0x101B JUMPI PUSH2 0x1014 DUP2 PUSH2 0x100E DUP7 DUP1 DUP11 PUSH2 0x1006 PUSH2 0xFFC DUP7 PUSH2 0xFF5 PUSH1 0x40 PUSH2 0xFDD DUP4 DUP16 PUSH2 0xFEF PUSH2 0xF9C SWAP16 PUSH2 0xFE9 DUP2 DUP13 PUSH2 0xFE3 DUP16 SWAP7 PUSH2 0xFDD PUSH1 0x20 SWAP7 DUP5 DUP1 SWAP11 PUSH2 0xEF3 JUMP JUMPDEST ADD PUSH2 0xF19 JUMP JUMPDEST SWAP15 PUSH2 0xEF3 JUMP JUMPDEST ADD PUSH2 0xF23 JUMP JUMPDEST SWAP11 PUSH2 0xEF3 JUMP JUMPDEST SWAP4 DUP14 PUSH2 0xEF3 JUMP JUMPDEST PUSH1 0x60 DUP2 ADD SWAP1 PUSH2 0xF2D JUMP JUMPDEST SWAP4 SWAP1 SWAP3 PUSH2 0x1583 JUMP JUMPDEST PUSH1 0x1 ADD SWAP1 JUMP JUMPDEST SWAP1 POP PUSH2 0xF9A JUMP JUMPDEST POP SWAP4 POP POP POP POP JUMP JUMPDEST POP POP POP POP POP PUSH2 0x1031 PUSH1 0x40 MLOAD SWAP1 JUMP JUMPDEST PUSH4 0x1EC5AA51 PUSH1 0xE0 SHL DUP2 MSTORE PUSH1 0x4 SWAP1 REVERT JUMPDEST SWAP1 PUSH2 0x3C7 SWAP2 PUSH2 0xEA9 JUMP JUMPDEST ISZERO PUSH2 0x1051 JUMPI JUMP JUMPDEST POP PUSH1 0x40 MLOAD PUSH3 0x461BCD PUSH1 0xE5 SHL DUP2 MSTORE PUSH1 0x20 PUSH1 0x4 DUP3 ADD MSTORE PUSH1 0x10 PUSH1 0x24 DUP3 ADD MSTORE PUSH16 0x14185D5CD8589B194E881C185D5CD959 PUSH1 0x82 SHL PUSH1 0x44 DUP3 ADD MSTORE PUSH1 0x64 SWAP1 REVERT JUMPDEST PUSH2 0x3C7 PUSH2 0x1098 PUSH2 0x945 PUSH2 0xB6F JUMP JUMPDEST PUSH2 0x104A JUMP JUMPDEST PUSH2 0x3DD PUSH1 0x2 PUSH2 0x546 JUMP JUMPDEST ISZERO PUSH2 0x10AE JUMPI JUMP JUMPDEST POP PUSH1 0x40 MLOAD PUSH3 0x461BCD PUSH1 0xE5 SHL DUP2 MSTORE PUSH1 0x20 PUSH1 0x4 DUP3 ADD MSTORE PUSH1 0x1F PUSH1 0x24 DUP3 ADD MSTORE PUSH32 0x5265656E7472616E637947756172643A207265656E7472616E742063616C6C00 PUSH1 0x44 DUP3 ADD MSTORE PUSH1 0x64 SWAP1 REVERT JUMPDEST SWAP1 PUSH1 0x0 NOT SWAP1 PUSH2 0xA7B JUMP JUMPDEST SWAP1 PUSH2 0x110E PUSH2 0x3DD PUSH2 0xA9C SWAP3 PUSH2 0x546 JUMP JUMPDEST DUP3 SLOAD PUSH2 0x10F4 JUMP JUMPDEST PUSH2 0x3C7 PUSH2 0x1122 PUSH1 0x1 PUSH2 0x57D JUMP JUMPDEST PUSH2 0x1136 PUSH2 0x112D PUSH2 0x109D JUMP JUMPDEST SWAP2 DUP3 EQ ISZERO PUSH2 0x10A7 JUMP JUMPDEST PUSH1 0x1 PUSH2 0x10FE JUMP JUMPDEST PUSH2 0x3DD PUSH1 0x1 PUSH2 0x546 JUMP JUMPDEST PUSH2 0x3C7 PUSH2 0x1136 PUSH2 0x113D JUMP JUMPDEST SWAP1 PUSH2 0x3C7 SWAP2 PUSH2 0x1162 PUSH2 0x7CA PUSH2 0x606 JUMP JUMPDEST PUSH2 0x11EB JUMP JUMPDEST SWAP2 PUSH1 0x80 SWAP2 DUP2 LT ISZERO PUSH2 0x1177 JUMPI MUL ADD SWAP1 JUMP JUMPDEST PUSH2 0x117F PUSH2 0xC48 JUMP JUMPDEST MUL ADD SWAP1 JUMP JUMPDEST SWAP1 PUSH2 0x110E PUSH2 0x3DD PUSH2 0xA9C SWAP3 SWAP1 JUMP JUMPDEST PUSH2 0x425 PUSH2 0x3DD PUSH2 0x3DD SWAP3 SWAP1 JUMP JUMPDEST PUSH2 0x3DD SWAP1 PUSH2 0x1192 JUMP JUMPDEST SWAP1 PUSH1 0x1 PUSH1 0x1 PUSH1 0xA0 SHL SUB SWAP1 PUSH2 0xA7B JUMP JUMPDEST SWAP1 PUSH2 0x11C7 PUSH2 0x3DD PUSH2 0xA9C SWAP3 PUSH2 0x6FA JUMP JUMPDEST DUP3 SLOAD PUSH2 0x11A8 JUMP JUMPDEST SWAP1 DUP2 MSTORE PUSH1 0x60 DUP2 ADD SWAP4 SWAP3 PUSH2 0x3C7 SWAP3 SWAP1 SWAP2 PUSH1 0x40 SWAP2 PUSH2 0x602 SWAP1 PUSH1 0x20 DUP4 ADD MSTORE JUMP JUMPDEST SWAP2 DUP2 PUSH1 0x0 SWAP4 PUSH2 0x11F9 DUP6 PUSH2 0x546 JUMP JUMPDEST DUP5 EQ PUSH2 0x135D JUMPI PUSH2 0x120D TIMESTAMP PUSH2 0xD3E PUSH1 0x5 PUSH2 0x57D JUMP JUMPDEST SWAP3 PUSH1 0x0 JUMPDEST DUP6 JUMPDEST DUP2 LT ISZERO PUSH2 0x1354 JUMPI PUSH2 0x1225 DUP2 DUP6 DUP6 PUSH2 0x1167 JUMP JUMPDEST DUP1 DUP9 ADD SWAP2 PUSH1 0x3 PUSH2 0x1234 DUP5 PUSH2 0xF19 JUMP JUMPDEST PUSH2 0x123E SWAP1 DUP3 PUSH2 0x566 JUMP JUMPDEST DUP11 PUSH1 0x40 DUP6 ADD SWAP2 PUSH2 0x124D DUP4 PUSH2 0xF19 JUMP JUMPDEST PUSH2 0x125A SWAP1 PUSH1 0x1 DUP4 ADD PUSH2 0x1184 JUMP JUMPDEST DUP11 PUSH1 0x60 DUP8 ADD SWAP5 PUSH2 0x1269 DUP7 PUSH2 0xF19 JUMP JUMPDEST PUSH2 0x1276 SWAP1 PUSH1 0x2 DUP6 ADD PUSH2 0x1184 JUMP JUMPDEST DUP3 ADD SWAP1 PUSH2 0x1282 SWAP2 PUSH2 0x10FE JUMP JUMPDEST ADD SWAP4 PUSH2 0x1295 DUP6 SLOAD PUSH1 0x1 PUSH1 0x1 PUSH1 0xA0 SHL SUB AND SWAP1 JUMP JUMPDEST PUSH2 0x129E DUP14 PUSH2 0x119F JUMP JUMPDEST PUSH1 0x1 PUSH1 0x1 PUSH1 0xA0 SHL SUB AND SWAP1 PUSH1 0x1 PUSH1 0x1 PUSH1 0xA0 SHL SUB AND EQ PUSH2 0x12DB PUSH2 0x12DB PUSH1 0x20 PUSH2 0x12D4 PUSH2 0x1213 SWAP11 PUSH2 0x1332 SWAP11 PUSH2 0x12E1 SWAP7 PUSH2 0x1339 JUMPI JUMPDEST POP PUSH2 0xF19 JUMP JUMPDEST SWAP5 ADD PUSH2 0xF23 JUMP JUMPDEST SWAP4 PUSH2 0xF19 JUMP JUMPDEST PUSH2 0x1312 PUSH2 0x130C PUSH32 0x1D0B6716EC306CCA1346FDEC2C918D00831BD1239F2D28ACF62E94F2373355FC SWAP4 SWAP1 JUMP JUMPDEST SWAP4 PUSH2 0x6FA JUMP JUMPDEST SWAP4 PUSH2 0x1329 DUP13 PUSH2 0x1320 PUSH1 0x40 MLOAD SWAP1 JUMP JUMPDEST SWAP4 DUP5 SWAP4 DUP5 PUSH2 0x11CE JUMP JUMPDEST SUB SWAP1 LOG3 PUSH1 0x1 ADD SWAP1 JUMP JUMPDEST SWAP1 POP PUSH2 0x1211 JUMP JUMPDEST PUSH2 0x134E SWAP1 PUSH2 0x1348 DUP6 DUP11 ADD PUSH2 0xF23 JUMP JUMPDEST SWAP1 PUSH2 0x11B7 JUMP JUMPDEST CODESIZE PUSH2 0x12CE JUMP JUMPDEST POP SWAP5 POP POP POP POP POP JUMP JUMPDEST POP POP POP POP POP PUSH2 0x136B PUSH1 0x40 MLOAD SWAP1 JUMP JUMPDEST PUSH4 0xD16B833 PUSH1 0xE3 SHL DUP2 MSTORE PUSH1 0x4 SWAP1 REVERT JUMPDEST SWAP1 PUSH2 0x3C7 SWAP2 PUSH2 0x1152 JUMP JUMPDEST PUSH2 0x3C7 SWAP1 PUSH2 0x1393 PUSH2 0x7CA PUSH2 0x606 JUMP JUMPDEST ISZERO PUSH2 0x13A0 JUMPI PUSH2 0x3C7 PUSH2 0x1413 JUMP JUMPDEST PUSH2 0x3C7 PUSH2 0x1461 JUMP JUMPDEST PUSH2 0x3C7 SWAP1 PUSH2 0x1384 JUMP JUMPDEST PUSH2 0x13B9 PUSH2 0x108A JUMP JUMPDEST PUSH2 0x3C7 PUSH2 0x13C8 PUSH1 0x1 PUSH1 0x2 PUSH2 0xA85 JUMP JUMPDEST CALLER PUSH2 0x140E PUSH32 0x62E78CEA01BEE320CD4E420270B5EA74000D11B0C9F74754EBDBFC544B05A258 SWAP2 PUSH2 0x13F7 PUSH1 0x40 MLOAD SWAP1 JUMP JUMPDEST SWAP2 DUP3 SWAP2 DUP3 PUSH1 0x1 PUSH1 0x1 PUSH1 0xA0 SHL SUB SWAP1 SWAP2 AND DUP2 MSTORE PUSH1 0x20 ADD SWAP1 JUMP JUMPDEST SUB SWAP1 LOG1 JUMP JUMPDEST PUSH2 0x3C7 PUSH2 0x13B1 JUMP JUMPDEST PUSH2 0x1423 PUSH2 0x14AD JUMP JUMPDEST PUSH2 0x3C7 PUSH2 0x1432 PUSH1 0x0 PUSH1 0x2 PUSH2 0xA85 JUMP JUMPDEST CALLER PUSH2 0x140E PUSH32 0x5DB9EE0A495BF2E6FF9C91A7834C1BA4FDD244A5E8AA4E537BD38AEAE4B073AA SWAP2 PUSH2 0x13F7 PUSH1 0x40 MLOAD SWAP1 JUMP JUMPDEST PUSH2 0x3C7 PUSH2 0x141B JUMP JUMPDEST ISZERO PUSH2 0x1470 JUMPI JUMP JUMPDEST POP PUSH1 0x40 MLOAD PUSH3 0x461BCD PUSH1 0xE5 SHL DUP2 MSTORE PUSH1 0x20 PUSH1 0x4 DUP3 ADD MSTORE PUSH1 0x14 PUSH1 0x24 DUP3 ADD MSTORE PUSH20 0x14185D5CD8589B194E881B9BDD081C185D5CD959 PUSH1 0x62 SHL PUSH1 0x44 DUP3 ADD MSTORE PUSH1 0x64 SWAP1 REVERT JUMPDEST PUSH2 0x3C7 PUSH2 0x14B8 PUSH2 0xB6F JUMP JUMPDEST PUSH2 0x1469 JUMP JUMPDEST PUSH2 0x3C7 SWAP1 PUSH2 0x14CC PUSH2 0x7CA PUSH2 0x606 JUMP JUMPDEST PUSH2 0x3C7 SWAP1 PUSH2 0x1B27 JUMP JUMPDEST PUSH2 0x3C7 SWAP1 PUSH2 0x14BD JUMP JUMPDEST PUSH2 0x3DD PUSH1 0x80 PUSH2 0xBCE JUMP JUMPDEST SWAP1 PUSH2 0x3C7 PUSH2 0x1547 PUSH1 0x3 PUSH2 0x14F9 PUSH2 0x14DE JUMP JUMPDEST SWAP5 PUSH2 0x151B PUSH2 0x150E DUP3 SLOAD PUSH1 0x1 PUSH1 0x1 PUSH1 0xA0 SHL SUB AND SWAP1 JUMP JUMPDEST PUSH1 0x1 PUSH1 0x1 PUSH1 0xA0 SHL SUB AND DUP8 MSTORE JUMP JUMPDEST PUSH2 0x1531 PUSH2 0x152A PUSH1 0x1 DUP4 ADD PUSH2 0x57D JUMP JUMPDEST PUSH1 0x20 DUP9 ADD MSTORE JUMP JUMPDEST PUSH2 0x7B3 PUSH2 0x1540 PUSH1 0x2 DUP4 ADD PUSH2 0x57D JUMP JUMPDEST PUSH1 0x40 DUP9 ADD MSTORE JUMP JUMPDEST PUSH1 0x60 DUP5 ADD MSTORE JUMP JUMPDEST PUSH2 0x3DD SWAP1 PUSH2 0x14E8 JUMP JUMPDEST PUSH2 0x3ED SWAP1 PUSH1 0x1 PUSH1 0x1 PUSH1 0xA0 SHL SUB AND PUSH1 0x60 SHL SWAP1 JUMP JUMPDEST PUSH1 0x14 DUP2 PUSH2 0x157D PUSH2 0x7F7 SWAP4 PUSH1 0x20 SWAP7 SWAP6 PUSH2 0x1557 JUMP JUMPDEST ADD SWAP2 DUP3 MSTORE JUMP JUMPDEST SWAP2 SWAP4 SWAP3 SWAP1 SWAP3 PUSH2 0x159B PUSH2 0x1596 DUP5 PUSH1 0x3 PUSH2 0x566 JUMP JUMPDEST PUSH2 0x154E JUMP JUMPDEST SWAP1 PUSH1 0x20 DUP3 ADD SWAP1 PUSH2 0x15A9 DUP3 MLOAD SWAP1 JUMP JUMPDEST SWAP4 PUSH1 0x0 SWAP5 PUSH2 0x15B9 PUSH2 0xB96 DUP8 PUSH2 0x546 JUMP JUMPDEST EQ PUSH2 0x16FD JUMPI PUSH1 0x60 DUP5 ADD MLOAD TIMESTAMP LT PUSH2 0x16DC JUMPI PUSH2 0x945 PUSH2 0x1632 SWAP2 DUP8 SWAP4 PUSH2 0x15FB PUSH2 0x15F6 DUP13 PUSH2 0x15F1 PUSH2 0x15EC DUP15 PUSH2 0x722 PUSH1 0x4 SWAP12 DUP13 PUSH2 0x566 JUMP JUMPDEST PUSH2 0x57D JUMP JUMPDEST PUSH2 0xBBA JUMP JUMPDEST SWAP7 MLOAD SWAP1 JUMP JUMPDEST SWAP1 PUSH2 0x1605 PUSH1 0x40 MLOAD SWAP1 JUMP JUMPDEST PUSH2 0x1619 DUP2 DUP14 PUSH2 0x99D DUP12 PUSH1 0x20 DUP5 ADD SWAP3 DUP4 PUSH2 0x156A JUMP JUMPDEST PUSH2 0x162B PUSH2 0x1624 DUP3 MLOAD SWAP1 JUMP JUMPDEST SWAP2 PUSH1 0x20 ADD SWAP1 JUMP JUMPDEST KECCAK256 SWAP3 PUSH2 0x1A74 JUMP JUMPDEST PUSH2 0x16B5 JUMPI PUSH2 0x1660 SWAP4 SWAP3 SWAP2 PUSH2 0x164D DUP8 PUSH2 0x722 DUP9 PUSH2 0x1652 SWAP6 PUSH2 0x566 JUMP JUMPDEST PUSH2 0x10FE JUMP JUMPDEST ADD MLOAD PUSH1 0x1 PUSH1 0x1 PUSH1 0xA0 SHL SUB AND SWAP1 JUMP JUMPDEST SWAP1 PUSH2 0x1674 DUP5 DUP5 PUSH2 0x166F DUP6 PUSH2 0x6FA JUMP JUMPDEST PUSH2 0x1761 JUMP JUMPDEST PUSH2 0xB13 PUSH2 0x16AB PUSH2 0x16A5 PUSH2 0x16A5 PUSH32 0x5EB306C17229E0DA0CBF33AAE2020CA276E63DB4818B8060786E49AE51623110 SWAP5 SWAP1 JUMP JUMPDEST SWAP5 PUSH2 0x6FA JUMP JUMPDEST SWAP5 PUSH2 0xF3 PUSH1 0x40 MLOAD SWAP1 JUMP JUMPDEST SWAP6 POP POP POP POP POP POP PUSH2 0x9C2 SWAP2 POP PUSH2 0x16CA PUSH1 0x40 MLOAD SWAP1 JUMP JUMPDEST PUSH4 0x9BDE339 PUSH1 0xE0 SHL DUP2 MSTORE SWAP2 DUP3 SWAP2 DUP3 ADD SWAP1 JUMP JUMPDEST POP POP POP POP POP POP POP POP POP PUSH2 0x16EE PUSH1 0x40 MLOAD SWAP1 JUMP JUMPDEST PUSH4 0x995309B PUSH1 0xE0 SHL DUP2 MSTORE PUSH1 0x4 SWAP1 REVERT JUMPDEST POP POP POP POP POP POP POP POP POP PUSH2 0x170F PUSH1 0x40 MLOAD SWAP1 JUMP JUMPDEST PUSH4 0x9DD854D3 PUSH1 0xE0 SHL DUP2 MSTORE PUSH1 0x4 SWAP1 REVERT JUMPDEST PUSH2 0x1737 PUSH2 0x1731 PUSH2 0x3DD SWAP3 PUSH4 0xFFFFFFFF AND SWAP1 JUMP JUMPDEST PUSH1 0xE0 SHL SWAP1 JUMP JUMPDEST PUSH1 0x1 PUSH1 0x1 PUSH1 0xE0 SHL SUB NOT AND SWAP1 JUMP JUMPDEST PUSH1 0x1 PUSH1 0x1 PUSH1 0xA0 SHL SUB SWAP1 SWAP2 AND DUP2 MSTORE PUSH1 0x40 DUP2 ADD SWAP3 SWAP2 PUSH2 0x3C7 SWAP2 PUSH1 0x20 ADD MSTORE JUMP JUMPDEST PUSH2 0x17A4 PUSH1 0x4 SWAP3 PUSH2 0x1795 PUSH2 0x3C7 SWAP6 PUSH2 0x177B PUSH4 0xA9059CBB PUSH2 0x171E JUMP JUMPDEST SWAP3 PUSH2 0x1785 PUSH1 0x40 MLOAD SWAP1 JUMP JUMPDEST SWAP7 DUP8 SWAP5 PUSH1 0x20 DUP7 ADD SWAP1 DUP2 MSTORE ADD PUSH2 0x1744 JUMP JUMPDEST PUSH1 0x20 DUP3 ADD DUP2 SUB DUP3 MSTORE SUB DUP4 PUSH2 0x8CD JUMP JUMPDEST PUSH2 0x1872 JUMP JUMPDEST PUSH2 0x17B3 PUSH1 0x20 PUSH2 0xC09 JUMP JUMPDEST PUSH32 0x5361666545524332303A206C6F772D6C6576656C2063616C6C206661696C6564 PUSH1 0x20 DUP3 ADD MSTORE SWAP1 JUMP JUMPDEST PUSH2 0x3DD PUSH2 0x17A9 JUMP JUMPDEST SWAP1 POP MLOAD SWAP1 PUSH2 0x3C7 DUP3 PUSH2 0x618 JUMP JUMPDEST SWAP1 PUSH2 0x3DD SWAP2 PUSH1 0x20 DUP2 DUP4 SUB SLT PUSH2 0x1805 JUMPI PUSH2 0x17E4 JUMP JUMPDEST PUSH2 0x180D PUSH2 0x3A0 JUMP JUMPDEST PUSH2 0x17E4 JUMP JUMPDEST ISZERO PUSH2 0x1819 JUMPI JUMP JUMPDEST POP PUSH1 0x40 MLOAD PUSH3 0x461BCD PUSH1 0xE5 SHL DUP2 MSTORE PUSH1 0x20 PUSH1 0x4 DUP3 ADD MSTORE PUSH1 0x2A PUSH1 0x24 DUP3 ADD MSTORE PUSH32 0x5361666545524332303A204552433230206F7065726174696F6E20646964206E PUSH1 0x44 DUP3 ADD MSTORE PUSH10 0x1BDD081CDD58D8D95959 PUSH1 0xB2 SHL PUSH1 0x64 DUP3 ADD MSTORE PUSH1 0x84 SWAP1 REVERT JUMPDEST PUSH2 0x3C7 SWAP2 PUSH2 0x1882 PUSH2 0x1891 SWAP3 PUSH2 0x6FA JUMP JUMPDEST SWAP1 PUSH2 0x188B PUSH2 0x17DC JUMP JUMPDEST SWAP2 PUSH2 0x18CF JUMP JUMPDEST DUP1 MLOAD PUSH2 0x18A0 PUSH2 0xB96 PUSH1 0x0 PUSH2 0x546 JUMP JUMPDEST EQ SWAP1 DUP2 ISZERO PUSH2 0x18AF JUMPI JUMPDEST POP PUSH2 0x1812 JUMP JUMPDEST PUSH2 0x18C9 SWAP2 POP PUSH1 0x20 PUSH2 0x18BE DUP3 MLOAD SWAP1 JUMP JUMPDEST DUP2 DUP4 ADD ADD SWAP2 ADD PUSH2 0x17F1 JUMP JUMPDEST CODESIZE PUSH2 0x18A9 JUMP JUMPDEST PUSH2 0x3DD SWAP3 SWAP2 PUSH2 0x18DE PUSH1 0x0 PUSH2 0x546 JUMP JUMPDEST SWAP2 PUSH2 0x195F JUMP JUMPDEST ISZERO PUSH2 0x18EB JUMPI JUMP JUMPDEST POP PUSH1 0x40 MLOAD PUSH3 0x461BCD PUSH1 0xE5 SHL DUP2 MSTORE PUSH1 0x20 PUSH1 0x4 DUP3 ADD MSTORE PUSH1 0x26 PUSH1 0x24 DUP3 ADD MSTORE PUSH32 0x416464726573733A20696E73756666696369656E742062616C616E636520666F PUSH1 0x44 DUP3 ADD MSTORE PUSH6 0x1C8818D85B1B PUSH1 0xD2 SHL PUSH1 0x64 DUP3 ADD MSTORE PUSH1 0x84 SWAP1 REVERT JUMPDEST RETURNDATASIZE ISZERO PUSH2 0x195A JUMPI PUSH2 0x194F RETURNDATASIZE PUSH2 0xC09 JUMP JUMPDEST SWAP1 RETURNDATASIZE PUSH1 0x0 PUSH1 0x20 DUP5 ADD RETURNDATACOPY JUMP JUMPDEST PUSH1 0x60 SWAP1 JUMP JUMPDEST SWAP1 PUSH1 0x0 PUSH2 0x3DD SWAP5 SWAP4 DUP2 SWAP3 PUSH2 0x1971 PUSH1 0x60 SWAP1 JUMP JUMPDEST POP PUSH2 0x1988 PUSH2 0x197E ADDRESS PUSH2 0x6FA JUMP JUMPDEST DUP4 SWAP1 BALANCE LT ISZERO PUSH2 0x18E4 JUMP JUMPDEST PUSH1 0x20 DUP2 ADD SWAP1 MLOAD SWAP2 DUP6 GAS CALL PUSH2 0x199A PUSH2 0x1940 JUMP JUMPDEST SWAP2 PUSH2 0x19ED JUMP JUMPDEST ISZERO PUSH2 0x19A7 JUMPI JUMP JUMPDEST POP PUSH1 0x40 MLOAD PUSH3 0x461BCD PUSH1 0xE5 SHL DUP2 MSTORE PUSH1 0x20 PUSH1 0x4 DUP3 ADD MSTORE PUSH1 0x1D PUSH1 0x24 DUP3 ADD MSTORE PUSH32 0x416464726573733A2063616C6C20746F206E6F6E2D636F6E7472616374000000 PUSH1 0x44 DUP3 ADD MSTORE PUSH1 0x64 SWAP1 REVERT JUMPDEST SWAP2 SWAP3 PUSH1 0x60 SWAP2 ISZERO PUSH2 0x1A22 JUMPI POP POP DUP2 MLOAD PUSH2 0x1A08 PUSH2 0xB96 PUSH1 0x0 PUSH2 0x546 JUMP JUMPDEST EQ PUSH2 0x1A11 JUMPI POP SWAP1 JUMP JUMPDEST PUSH2 0x1A1D PUSH2 0x3DD SWAP2 PUSH2 0x1A2F JUMP JUMPDEST PUSH2 0x19A0 JUMP JUMPDEST SWAP1 SWAP4 SWAP3 PUSH2 0x3C7 SWAP3 POP PUSH2 0x1A41 JUMP JUMPDEST EXTCODESIZE PUSH2 0x1A3D PUSH2 0xB96 PUSH1 0x0 PUSH2 0x546 JUMP JUMPDEST GT SWAP1 JUMP JUMPDEST SWAP2 POP PUSH2 0x1A4B DUP3 MLOAD SWAP1 JUMP JUMPDEST PUSH2 0x1A58 PUSH2 0xB96 PUSH1 0x0 PUSH2 0x546 JUMP JUMPDEST GT ISZERO PUSH2 0x1A67 JUMPI POP DUP1 MLOAD SWAP1 PUSH1 0x20 ADD REVERT JUMPDEST PUSH1 0x40 MLOAD PUSH2 0x9C2 SWAP3 POP PUSH2 0x9AD JUMP JUMPDEST PUSH2 0xEA5 SWAP3 SWAP4 PUSH2 0xB96 SWAP3 PUSH2 0x1A8F SWAP3 PUSH2 0x1A89 PUSH1 0x0 SWAP1 JUMP JUMPDEST POP PUSH2 0x1AB3 JUMP JUMPDEST SWAP3 SWAP1 JUMP JUMPDEST PUSH1 0x1 SWAP1 PUSH1 0x0 NOT DUP2 EQ PUSH2 0xBC6 JUMPI ADD SWAP1 JUMP JUMPDEST SWAP2 PUSH1 0x20 SWAP2 DUP2 LT ISZERO PUSH2 0x1177 JUMPI MUL ADD SWAP1 JUMP JUMPDEST PUSH2 0x1ABD PUSH1 0x0 PUSH2 0x546 JUMP JUMPDEST SWAP3 JUMPDEST DUP3 DUP5 LT ISZERO PUSH2 0x1AF3 JUMPI PUSH2 0x1AE7 PUSH2 0x1AED SWAP2 PUSH2 0x1AE1 PUSH2 0x1ADC DUP8 DUP8 DUP8 PUSH2 0x1AA3 JUMP JUMPDEST PUSH2 0xF19 JUMP JUMPDEST SWAP1 PUSH2 0x1AFA JUMP JUMPDEST SWAP4 PUSH2 0x1A93 JUMP JUMPDEST SWAP3 PUSH2 0x1ABF JUMP JUMPDEST SWAP3 POP POP POP SWAP1 JUMP JUMPDEST DUP2 DUP2 LT ISZERO PUSH2 0x1B15 JUMPI SWAP1 PUSH2 0x3DD SWAP2 PUSH1 0x0 MSTORE PUSH1 0x20 MSTORE PUSH1 0x40 PUSH1 0x0 KECCAK256 SWAP1 JUMP JUMPDEST PUSH2 0x3DD SWAP2 PUSH1 0x0 MSTORE PUSH1 0x20 MSTORE PUSH1 0x40 PUSH1 0x0 KECCAK256 SWAP1 JUMP JUMPDEST PUSH2 0x1B32 PUSH2 0x3DD PUSH2 0x553 JUMP JUMPDEST DUP2 LT PUSH2 0x1B71 JUMPI PUSH2 0x1B43 DUP2 PUSH1 0x5 PUSH2 0x10FE JUMP JUMPDEST PUSH2 0x140E PUSH32 0x676DC704F22DDAB12A141690A96616EF0128413803C63394ABA7FFE658681A16 SWAP2 PUSH2 0xF3 PUSH1 0x40 MLOAD SWAP1 JUMP JUMPDEST POP POP PUSH1 0x40 MLOAD PUSH4 0x67E00A07 PUSH1 0xE0 SHL DUP2 MSTORE PUSH1 0x4 SWAP1 REVERT INVALID LOG3 PUSH5 0x6970667358 0x22 SLT KECCAK256 SWAP9 AND EXTCODECOPY 0xBC 0xC7 0xB9 0x5E PUSH31 0x33DC5B56853BDE84C8B36B03AC696C29A4DDD82B8DBFB1FA6C657870657269 PUSH14 0x656E74616CF564736F6C63430008 0xC STOP COINBASE "},"methodIdentifiers":{"DEFAULT_ADMIN_ROLE()":"a217fddf","MINIMUM_ACTIVE_TIMER()":"7fdba5f6","activeTimerDuration()":"33f642f6","changeActiveTimerDuration(uint256)":"960d264d","claim((bytes32,address,uint256,bytes32[])[])":"56853398","claimed(bytes32,address)":"dfcae622","getRoleAdmin(bytes32)":"248a9ca3","grantRole(bytes32,address)":"2f2ff15d","hasRole(bytes32,address)":"91d14854","paused()":"5c975abb","renounceRole(bytes32,address)":"36568abe","revokeRole(bytes32,address)":"d547741f","rewards(bytes32)":"938d967a","setPauseState(bool)":"cdb88ad1","supportsInterface(bytes4)":"01ffc9a7","updateRewardsMetadata((bytes32,address,bytes32,bytes32)[])":"df45c752"}}}}}