{"contracts/BribeVault.sol":{"BribeVault":{"abi":[{"inputs":[{"internalType":"uint256","name":"_fee","type":"uint256"},{"internalType":"uint256","name":"_feeMax","type":"uint256"},{"internalType":"address","name":"_feeRecipient","type":"address"},{"internalType":"address","name":"_distributor","type":"address"}],"stateMutability":"nonpayable","type":"constructor"},{"inputs":[],"name":"BribeAlreadyTransferred","type":"error"},{"inputs":[],"name":"InvalidAddress","type":"error"},{"inputs":[],"name":"InvalidAmount","type":"error"},{"inputs":[],"name":"InvalidArray","type":"error"},{"inputs":[],"name":"InvalidBriber","type":"error"},{"inputs":[],"name":"InvalidDistributor","type":"error"},{"inputs":[],"name":"InvalidFee","type":"error"},{"inputs":[],"name":"InvalidFeeRecipient","type":"error"},{"inputs":[],"name":"InvalidMaxFee","type":"error"},{"inputs":[],"name":"InvalidRewardIdentifier","type":"error"},{"inputs":[],"name":"InvalidToken","type":"error"},{"inputs":[],"name":"NotDepositor","type":"error"},{"anonymous":false,"inputs":[{"indexed":true,"internalType":"address","name":"market","type":"address"},{"indexed":true,"internalType":"bytes32","name":"proposal","type":"bytes32"},{"indexed":true,"internalType":"uint256","name":"deadline","type":"uint256"},{"indexed":false,"internalType":"address","name":"token","type":"address"},{"indexed":false,"internalType":"address","name":"briber","type":"address"},{"indexed":false,"internalType":"uint256","name":"amount","type":"uint256"},{"indexed":false,"internalType":"uint256","name":"totalAmount","type":"uint256"},{"indexed":false,"internalType":"uint256","name":"maxTokensPerVote","type":"uint256"},{"indexed":false,"internalType":"uint256","name":"periodIndex","type":"uint256"}],"name":"DepositBribe","type":"event"},{"anonymous":false,"inputs":[{"indexed":true,"internalType":"address","name":"token","type":"address"},{"indexed":false,"internalType":"uint256","name":"amount","type":"uint256"},{"indexed":false,"internalType":"address","name":"admin","type":"address"}],"name":"EmergencyWithdrawal","type":"event"},{"anonymous":false,"inputs":[{"indexed":true,"internalType":"bytes32","name":"role","type":"bytes32"},{"indexed":true,"internalType":"bytes32","name":"previousAdminRole","type":"bytes32"},{"indexed":true,"internalType":"bytes32","name":"newAdminRole","type":"bytes32"}],"name":"RoleAdminChanged","type":"event"},{"anonymous":false,"inputs":[{"indexed":true,"internalType":"bytes32","name":"role","type":"bytes32"},{"indexed":true,"internalType":"address","name":"account","type":"address"},{"indexed":true,"internalType":"address","name":"sender","type":"address"}],"name":"RoleGranted","type":"event"},{"anonymous":false,"inputs":[{"indexed":true,"internalType":"bytes32","name":"role","type":"bytes32"},{"indexed":true,"internalType":"address","name":"account","type":"address"},{"indexed":true,"internalType":"address","name":"sender","type":"address"}],"name":"RoleRevoked","type":"event"},{"anonymous":false,"inputs":[{"indexed":false,"internalType":"address","name":"_distributor","type":"address"}],"name":"SetDistributor","type":"event"},{"anonymous":false,"inputs":[{"indexed":false,"internalType":"uint256","name":"_fee","type":"uint256"}],"name":"SetFee","type":"event"},{"anonymous":false,"inputs":[{"indexed":false,"internalType":"address","name":"_feeRecipient","type":"address"}],"name":"SetFeeRecipient","type":"event"},{"anonymous":false,"inputs":[{"indexed":false,"internalType":"address","name":"from","type":"address"},{"indexed":false,"internalType":"address","name":"to","type":"address"}],"name":"SetRewardForwarding","type":"event"},{"anonymous":false,"inputs":[{"indexed":true,"internalType":"bytes32","name":"rewardIdentifier","type":"bytes32"},{"indexed":true,"internalType":"address","name":"token","type":"address"},{"indexed":false,"internalType":"uint256","name":"feeAmount","type":"uint256"},{"indexed":false,"internalType":"uint256","name":"distributorAmount","type":"uint256"}],"name":"TransferBribe","type":"event"},{"inputs":[],"name":"DEFAULT_ADMIN_ROLE","outputs":[{"internalType":"bytes32","name":"","type":"bytes32"}],"stateMutability":"view","type":"function"},{"inputs":[],"name":"DEPOSITOR_ROLE","outputs":[{"internalType":"bytes32","name":"","type":"bytes32"}],"stateMutability":"view","type":"function"},{"inputs":[],"name":"FEE_DIVISOR","outputs":[{"internalType":"uint256","name":"","type":"uint256"}],"stateMutability":"view","type":"function"},{"inputs":[],"name":"FEE_MAX","outputs":[{"internalType":"uint256","name":"","type":"uint256"}],"stateMutability":"view","type":"function"},{"inputs":[],"name":"PERMIT2","outputs":[{"internalType":"contract IPermit2","name":"","type":"address"}],"stateMutability":"view","type":"function"},{"inputs":[{"internalType":"bytes32","name":"","type":"bytes32"}],"name":"bribes","outputs":[{"internalType":"address","name":"token","type":"address"},{"internalType":"uint256","name":"amount","type":"uint256"}],"stateMutability":"view","type":"function"},{"inputs":[{"components":[{"internalType":"bytes32","name":"proposal","type":"bytes32"},{"internalType":"address","name":"token","type":"address"},{"internalType":"address","name":"briber","type":"address"},{"internalType":"uint256","name":"amount","type":"uint256"},{"internalType":"uint256","name":"maxTokensPerVote","type":"uint256"},{"internalType":"uint256","name":"periods","type":"uint256"},{"internalType":"uint256","name":"periodDuration","type":"uint256"},{"internalType":"uint256","name":"proposalDeadline","type":"uint256"},{"internalType":"uint256","name":"permitDeadline","type":"uint256"},{"internalType":"bytes","name":"signature","type":"bytes"}],"internalType":"struct Common.DepositBribeParams","name":"_dp","type":"tuple"}],"name":"depositBribe","outputs":[],"stateMutability":"nonpayable","type":"function"},{"inputs":[],"name":"distributor","outputs":[{"internalType":"address","name":"","type":"address"}],"stateMutability":"view","type":"function"},{"inputs":[{"internalType":"address","name":"token","type":"address"},{"internalType":"uint256","name":"amount","type":"uint256"}],"name":"emergencyWithdraw","outputs":[],"stateMutability":"nonpayable","type":"function"},{"inputs":[],"name":"fee","outputs":[{"internalType":"uint256","name":"","type":"uint256"}],"stateMutability":"view","type":"function"},{"inputs":[],"name":"feeRecipient","outputs":[{"internalType":"address","name":"","type":"address"}],"stateMutability":"view","type":"function"},{"inputs":[{"internalType":"address","name":"_market","type":"address"},{"internalType":"bytes32","name":"_proposal","type":"bytes32"},{"internalType":"uint256","name":"_proposalDeadline","type":"uint256"},{"internalType":"address","name":"_token","type":"address"}],"name":"generateBribeVaultIdentifier","outputs":[{"internalType":"bytes32","name":"id","type":"bytes32"}],"stateMutability":"pure","type":"function"},{"inputs":[{"internalType":"address","name":"_market","type":"address"},{"internalType":"address","name":"_token","type":"address"},{"internalType":"uint256","name":"_proposalDeadline","type":"uint256"}],"name":"generateRewardIdentifier","outputs":[{"internalType":"bytes32","name":"id","type":"bytes32"}],"stateMutability":"pure","type":"function"},{"inputs":[{"internalType":"bytes32","name":"bribeIdentifier","type":"bytes32"}],"name":"getBribe","outputs":[{"internalType":"address","name":"token","type":"address"},{"internalType":"uint256","name":"amount","type":"uint256"}],"stateMutability":"view","type":"function"},{"inputs":[{"internalType":"bytes32","name":"rewardIdentifier","type":"bytes32"}],"name":"getBribeIdentifiersByRewardIdentifier","outputs":[{"internalType":"bytes32[]","name":"","type":"bytes32[]"}],"stateMutability":"view","type":"function"},{"inputs":[{"internalType":"bytes32","name":"role","type":"bytes32"}],"name":"getRoleAdmin","outputs":[{"internalType":"bytes32","name":"","type":"bytes32"}],"stateMutability":"view","type":"function"},{"inputs":[{"internalType":"address","name":"depositor","type":"address"}],"name":"grantDepositorRole","outputs":[],"stateMutability":"nonpayable","type":"function"},{"inputs":[{"internalType":"bytes32","name":"role","type":"bytes32"},{"internalType":"address","name":"account","type":"address"}],"name":"grantRole","outputs":[],"stateMutability":"nonpayable","type":"function"},{"inputs":[{"internalType":"bytes32","name":"role","type":"bytes32"},{"internalType":"address","name":"account","type":"address"}],"name":"hasRole","outputs":[{"internalType":"bool","name":"","type":"bool"}],"stateMutability":"view","type":"function"},{"inputs":[{"internalType":"bytes32","name":"role","type":"bytes32"},{"internalType":"address","name":"account","type":"address"}],"name":"renounceRole","outputs":[],"stateMutability":"nonpayable","type":"function"},{"inputs":[{"internalType":"address","name":"depositor","type":"address"}],"name":"revokeDepositorRole","outputs":[],"stateMutability":"nonpayable","type":"function"},{"inputs":[{"internalType":"bytes32","name":"role","type":"bytes32"},{"internalType":"address","name":"account","type":"address"}],"name":"revokeRole","outputs":[],"stateMutability":"nonpayable","type":"function"},{"inputs":[{"internalType":"address","name":"","type":"address"}],"name":"rewardForwarding","outputs":[{"internalType":"address","name":"","type":"address"}],"stateMutability":"view","type":"function"},{"inputs":[{"internalType":"bytes32","name":"","type":"bytes32"},{"internalType":"uint256","name":"","type":"uint256"}],"name":"rewardToBribes","outputs":[{"internalType":"bytes32","name":"","type":"bytes32"}],"stateMutability":"view","type":"function"},{"inputs":[{"internalType":"bytes32","name":"","type":"bytes32"}],"name":"rewardTransfers","outputs":[{"internalType":"uint256","name":"feeAmount","type":"uint256"},{"internalType":"uint256","name":"distributorAmountTransferred","type":"uint256"},{"internalType":"uint256","name":"distributorAmountReceived","type":"uint256"}],"stateMutability":"view","type":"function"},{"inputs":[{"internalType":"address","name":"_distributor","type":"address"}],"name":"setDistributor","outputs":[],"stateMutability":"nonpayable","type":"function"},{"inputs":[{"internalType":"uint256","name":"_fee","type":"uint256"}],"name":"setFee","outputs":[],"stateMutability":"nonpayable","type":"function"},{"inputs":[{"internalType":"address","name":"_feeRecipient","type":"address"}],"name":"setFeeRecipient","outputs":[],"stateMutability":"nonpayable","type":"function"},{"inputs":[{"internalType":"address","name":"to","type":"address"}],"name":"setRewardForwarding","outputs":[],"stateMutability":"nonpayable","type":"function"},{"inputs":[{"internalType":"bytes4","name":"interfaceId","type":"bytes4"}],"name":"supportsInterface","outputs":[{"internalType":"bool","name":"","type":"bool"}],"stateMutability":"view","type":"function"},{"inputs":[{"internalType":"bytes32[]","name":"rewardIdentifiers","type":"bytes32[]"}],"name":"transferBribes","outputs":[],"stateMutability":"nonpayable","type":"function"}],"evm":{"bytecode":{"linkReferences":{},"object":"60a06040523462000045575b62000023620000196200015a565b9291909162000280565b604051612cab620004a982396080518181816102dc01526115110152612cab90f35b6200004f62000055565b6200000b565b50600080fd5b50634e487b7160e01b600052604160045260246000fd5b90601f01601f191681019081106001600160401b038211176200009457604052565b6200009e6200005b565b604052565b90620000ba620000b260405190565b928362000072565b565b805b14156200005557565b90505190620000ba82620000bc565b6001600160a01b031690565b90565b6001600160a01b038116620000be565b90505190620000ba82620000e5565b6080818303126200014a575b6200011c8282620000c7565b92620000e2620001308460208501620000c7565b93620001408160408601620000f5565b93606001620000f5565b6200015462000055565b62000110565b6200017d62003154803803806200017181620000a3565b92833981019062000104565b90919293565b620000e2620000e2620000e29290565b620000e2620f424062000183565b50634e487b7160e01b600052601260045260246000fd5b8115620001c3570490565b620001cd620001a1565b0490565b620000d6620000e2620000e29290565b620000e290620001d1565b90600019905b9181191691161790565b9062000210620000e2620002189262000183565b8254620001ec565b9055565b906001600160a01b0390620001f2565b620000e290620000d6906001600160a01b031682565b620000e2906200022c565b620000e29062000242565b906200026c620000e262000218926200024d565b82546200021c565b620000e2600062000183565b9092916200028d62000193565b620002aa620000e2600292620002a38462000183565b90620001b8565b85101562000394578483116200037557620002c66000620001e1565b6001600160a01b0381166001600160a01b0384161462000355576001600160a01b03166001600160a01b03851614620003365762000312620003189362000320966080526001620001fc565b62000258565b600362000258565b620000ba6200032e62000274565b3390620003f4565b5050505050506200034660405190565b635c187b8d60e01b8152600490fd5b505050505050506200036660405190565b630ed1b8b360e31b8152600490fd5b5050505050506200038560405190565b6358d620b360e01b8152600490fd5b505050505050620003a460405190565b63a51d0c8160e01b8152600490fd5b905b600052602052604060002090565b90620003b5906200024d565b9060ff90620001f2565b90620003ec620000e26200021892151590565b8254620003cf565b90620004096200040582846200048a565b1590565b62000412575050565b620004386001620004328360006200042b8782620003b3565b01620003c3565b620003d9565b3390620004726200046b6200046b7f2f8788117e7eff1d82e926ec794901d17c78024a50270940304540a733656f0d9590565b926200024d565b926200047d60405190565b600090a4565b5460ff1690565b620000e291620004a2916200042b60009182620003b3565b6200048356fe60806040526004361015610018575b610016610717565b005b60003560e01c806301ffc9a7146106ed57806307cd2ffe146106c3578063172becff1461069c5780631aea69ca146106715780631da08b8714610638578063248a9ca31461060e57806328b16a3f146105e35780632c4ef0d5146105bc5780632f2ff15d1461059457806336568abe1461056c578063429c89101461053e57806346904840146105145780635c2a802b146104ed57806369fe0e2d146104c65780636afdd8501461049057806375619ab51461046957806391d148541461042c57806395ccea67146104045780639e93ad8e146103da578063a217fddf146103b0578063a3b0b5a31461037a578063b2d7edb214610352578063bfe109281461030d578063c2624e1e146102c5578063cc6c93881461028f578063d547741f14610267578063ddca3f431461022c578063e74b981b14610205578063e8fa2948146101de578063edcdab77146101a15763f96258c4146101775761000e565b34610194575b61001661018b366004610790565b612736565b0390f35b61019c610717565b61017d565b50346101d1575b6101bb6101b636600461086f565b610c96565b906101906101c860405190565b928392836109c8565b6101d9610717565b6101a8565b50346101f8575b6100166101f3366004610790565b6114d1565b610200610717565b6101e5565b503461021f575b61001661021a366004610790565b611633565b610227610717565b61020c565b503461025a575b61023e366004610a60565b610190610249610c77565b6040515b9182918290815260200190565b610262610717565b610233565b5034610282575b61001661027c3660046109e5565b90610f61565b61028a610717565b61026e565b50346102b8575b6101906102ac6102a736600461086f565b611875565b60405191829182610c66565b6102c0610717565b610296565b5034610300575b6102d7366004610a60565b6101907f0000000000000000000000000000000000000000000000000000000000000000610249565b610308610717565b6102cc565b5034610345575b61031f366004610a60565b61019061032a610c00565b6040515b918291826001600160a01b03909116815260200190565b61034d610717565b610314565b503461036d575b610016610367366004610bb9565b90612aaf565b610375610717565b610359565b50346103a3575b61038c366004610a60565b610190600080516020612c48833981519152610249565b6103ab610717565b610381565b50346103cd575b6103c2366004610a60565b610190610249610b65565b6103d5610717565b6103b7565b50346103f7575b6103ec366004610a60565b610190610249610b53565b6103ff610717565b6103e1565b503461041f575b610016610419366004610b12565b90612c3d565b610427610717565b61040b565b503461045c575b61019061044a6104443660046109e5565b90610cff565b60405191829182901515815260200190565b610464610717565b610433565b5034610483575b61001661047e366004610790565b6116b4565b61048b610717565b610470565b50346104b9575b6104a2366004610a60565b6101906104ad610af1565b60405191829182610b02565b6104c1610717565b610497565b50346104e0575b6100166104db36600461086f565b611587565b6104e8610717565b6104cd565b5034610507575b610016610502366004610a96565b611ebb565b61050f610717565b6104f4565b5034610531575b610526366004610a60565b61019061032a610a73565b610539610717565b61051b565b503461055f575b610190610249610556366004610a16565b929190916116fb565b610567610717565b610545565b5034610587575b6100166105813660046109e5565b90610fd0565b61058f610717565b610573565b50346105af575b6100166105a93660046109e5565b90610d5d565b6105b7610717565b61059b565b50346105d6575b6101bb6105d136600461086f565b6117b0565b6105de610717565b6105c3565b5034610601575b6101906102496105fb3660046108f5565b9061098f565b610609610717565b6105ea565b503461062b575b61019061024961062636600461086f565b610d1e565b610633610717565b610615565b5034610664575b61019061065561065036600461086f565b6108a7565b604051919391938493846108d4565b61066c610717565b61063f565b503461068f575b610190610249610689366004610831565b9161174b565b610697610717565b610678565b50346106b6575b6100166106b1366004610790565b611474565b6106be610717565b6106a3565b50346106e0575b61019061032a6106db366004610790565b610807565b6106e8610717565b6106ca565b503461070a575b61019061044a610705366004610740565b610cb0565b610712610717565b6106f4565b50600080fd5b6001600160e01b031981165b141561071757565b9050359061073e8261071d565b565b906107549160208183031261075757610731565b90565b61075f610717565b610731565b9052565b6001600160a01b031690565b6001600160a01b038116610729565b9050359061073e82610774565b90610754916020818303126107a457610783565b6107ac610717565b610783565b61075490610768906001600160a01b031682565b610754906107b1565b610754906107c5565b906107e1906107ce565b600052602052604060002090565b610754916008021c610768565b9061075491546107ef565b610754906108196007916000926107d7565b6107fc565b80610729565b9050359061073e8261081e565b9091606082840312610862575b61075461084b8484610783565b936108598160208601610783565b93604001610824565b61086a610717565b61083e565b906107549160208183031261088357610824565b61088b610717565b610824565b906107e1565b6107549081565b6107549054610896565b6108b2906006610890565b6108bb8161089d565b9161075460026108cd6001850161089d565b930161089d565b90815260608101939261073e9290916040916108f1906020830152565b0152565b919061075490604084820312610919575b6109108185610824565b93602001610824565b610921610717565b610906565b50634e487b7160e01b600052603260045260246000fd5b61095d60019161094b815490565b84101561096657600052602060002090565b91020190600090565b61096e610926565b600052602060002090565b610754916008021c81565b906107549154610979565b61099d600591600092610890565b906109a6825490565b8310156109c15750610754916109bb9161093d565b90610984565b9250505080fd5b6001600160a01b03909116815260408101929161073e9160200152565b919061075490604084820312610a09575b610a008185610824565b93602001610783565b610a11610717565b6109f6565b608081830312610a53575b610a2b8282610783565b92610754610a3c8460208501610824565b93610a4a8160408601610824565b93606001610783565b610a5b610717565b610a21565b6000910312610a6b57565b61073e610717565b610754600060026107fc565b9081610140910312610a8e5790565b610754610717565b9061075491602081830312610acc575b80359067ffffffffffffffff8211610abf575b01610a7f565b610ac7610717565b610ab9565b610ad4610717565b610aa6565b6107546e22d473030f116ddee9f6b43ac78ba36107ce565b610754610ad9565b610764906107ce565b60208101929161073e9190610af9565b919061075490604084820312610b2d575b6109108185610783565b610b35610717565b610b23565b6107546107546107549290565b610754620f4240610b3a565b610754610b47565b6107546000610b3a565b610754610b5b565b909182601f83011215610bac575b602082359267ffffffffffffffff8411610b9f575b019260208302840111610a6b57565b610ba7610717565b610b90565b610bb4610717565b610b7b565b90610be291602081830312610bf3575b80359067ffffffffffffffff8211610be6575b01610b6d565b9091565b610bee610717565b610bdc565b610bfb610717565b610bc9565b610754600060036107fc565b0190565b90610c30610c29610c1f845190565b8084529260200190565b9260200190565b9060005b818110610c415750505090565b909192610c5e610c576001928651815260200190565b9460200190565b929101610c34565b602080825261075492910190610c10565b61075460006001610984565b61075490610768565b6107549054610c83565b610ca1906004610890565b9061075460016108cd84610c8c565b637965db0b60e01b6001600160e01b0319821614908115610ccf575090565b61075491506001600160e01b0319166301ffc9a760e01b1490565b610754905b60ff1690565b6107549054610cea565b61075491610d1991610d1360009182610890565b016107d7565b610cf5565b6001610d3761075492610d2f600090565b506000610890565b0161089d565b9061073e91610d53610d4e82610d1e565b610d67565b9061073e91611020565b9061073e91610d3d565b61073e903390610eb7565b61075490610b3a565b918091926000905b828210610d9b575011610d94575050565b6000910152565b91508060209183015181860152018291610d83565b610c0c610dc892602092610dc2815190565b94859290565b93849101610d7b565b610e0f6107549392610e09610e09937f416363657373436f6e74726f6c3a206163636f756e7420000000000000000000815260170190565b90610db0565b7001034b99036b4b9b9b4b733903937b6329607d1b815260110190565b601f01601f191690565b50634e487b7160e01b600052604160045260246000fd5b90601f01601f1916810190811067ffffffffffffffff821117610e6f57604052565b610e77610e36565b604052565b610e9d610e2c602093610c0c93610e91815190565b80835293849260200190565b95869101610d7b565b602080825261075492910190610e7c565b90610ec9610ec58284610cff565b1590565b610ed1575050565b610f42925090610754610eef610ee9610f29946113d5565b92610d72565b610f04602091610efe83610b3a565b90611275565b92610f1d610f1160405190565b94859384019283610dd1565b90810382520382610e4d565b6040515b62461bcd60e51b815291829160048301610ea6565b0390fd5b9061073e91610f57610d4e82610d1e565b9061073e91611096565b9061073e91610f46565b15610f7257565b5060405162461bcd60e51b815260206004820152602f60248201527f416363657373436f6e74726f6c3a2063616e206f6e6c792072656e6f756e636560448201526e103937b632b9903337b91039b2b63360891b6064820152608490fd5b61073e9190610ff1610fe133610768565b6001600160a01b03841614610f6b565b611096565b9060ff905b9181191691161790565b9061101561075461101c92151590565b8254610ff6565b9055565b9061102e610ec58284610cff565b611036575050565b611050600161104b836000610d138782610890565b611005565b33906110866110806110807f2f8788117e7eff1d82e926ec794901d17c78024a50270940304540a733656f0d9590565b926107ce565b9261109060405190565b600090a4565b906110a18183610cff565b6110a9575050565b6110bd600061104b8382610d138782610890565b33906110866110806110807ff6391f5c32d9c69d2a47ea670b442974b53935d1edc7fd64eb21e047a839171b9590565b50634e487b7160e01b600052601160045260246000fd5b9061110e565b9190565b908060001904821181151516611122570290565b61112a6110ed565b0290565b8119811161113a570190565b610c0c6110ed565b9061073e61114f60405190565b9283610e4d565b610c0c60209167ffffffffffffffff811161117557601f01601f191690565b610e2c610e36565b9061118f61118a83611156565b611142565b918252565b369037565b9061073e6111af6111a98461117d565b93611156565b601f190160208401611194565b9060016020916111ca845190565b8110156111d8575b02010190565b6111e0610926565b6111d2565b60019080156111f2570390565b6111fa6110ed565b0390565b610cef6107546107549290565b6107549061121f61110a6107549460ff1690565b901c90565b1561122b57565b5060405162461bcd60e51b815280610f42600482016020808252818101527f537472696e67733a20686578206c656e67746820696e73756666696369656e74604082015260600190565b91906002906112a66112a16112928361128d86610b3a565b611104565b61129b85610b3a565b9061112e565b611199565b9160009160306112be6112b885610b3a565b866111bc565b536112f66112ed600f60fb1b9261128d6001958695881a6112e76112e188610b3a565b8b6111bc565b53610b3a565b61129b83610b3a565b915b611319575b5050610754929361131361110a61075493610b3a565b14611224565b909461132482610b3a565b8611156113a35761139061138a839261136d6113506f181899199a1a9b1b9c1cb0b131b232b360811b90565b61135a600f610b3a565b83166010811015611396575b1a60f81b90565b861a6113798a896111bc565b5361138460046111fe565b9061120b565b966111e5565b916112f8565b61139e610926565b611366565b946112fd565b6107549081906001600160a01b031681565b61075460146111fe565b6107546107546107549260ff1690565b6113f26113ed610754926113e7606090565b506107c5565b6113a9565b610efe6113fd6113bb565b6113c5565b61073e90611411610d4e610b5b565b61142c565b6107686107546107549290565b61075490611416565b6114396107686000611423565b6001600160a01b038216146114605761073e90600080516020612c48833981519152611020565b505060405163e6c4247b60e01b8152600490fd5b61073e90611402565b61073e9061148c610d4e610b5b565b600080516020612c48833981519152906114a9610ec58284610cff565b6114b65761073e91611096565b5050506114c260405190565b633cc50b4560e01b8152600490fd5b61073e9061147d565b61073e906114e9610d4e610b5b565b61150f565b9060001990610ffb565b9061150861075461101c92610b3a565b82546114ee565b7f00000000000000000000000000000000000000000000000000000000000000008111611573576115418160016114f8565b61156e7e172ddfc5ae88d08b3de01a5a187667c37a5a53989e8c175055cb6c993792a79161024d60405190565b0390a1565b50506040516358d620b360e01b8152600490fd5b61073e906114da565b61073e9061159f610d4e610b5b565b6115ca565b906001600160a01b0390610ffb565b906115c361075461101c926107ce565b82546115a4565b6115d76107686000611423565b6001600160a01b0382161461161f576115f18160026115b3565b61156e7f2e979f80fe4d43055c584cf4a8467c55875ea36728fc37176c05acd784eb7a739161032e60405190565b5050604051630ed1b8b360e31b8152600490fd5b61073e90611590565b61073e9061164b610d4e610b5b565b6116586107686000611423565b6001600160a01b038216146116a0576116728160036115b3565b61156e7ff52f1295a5bd82818185311d8284477532c0eba12fd2ba17314486d3a8f6810d9161032e60405190565b5050604051635c187b8d60e01b8152600490fd5b61073e9061163c565b610764906001600160a01b031660601b90565b926116f36020610c0c946116ed6014886116ed829b9a86996116bd565b01918252565b0180926116bd565b610f1d61171d939461170b600090565b506040519586946020860194856116d0565b61172f611728825190565b9160200190565b2090565b601493926116f385836116ed602095610c0c976116bd565b909161171d91610f1d61175d60405190565b948593602085019384611733565b6107546040611142565b9061073e6117a0600161178661176b565b94610d3761179382610c8c565b6001600160a01b03168752565b6020840152565b61075490611775565b6117c76117cc916117bf600090565b506004610890565b6117a7565b9061075460206117e384516001600160a01b031690565b93015190565b906118046117f8610c1f845490565b92600052602060002090565b9060005b8181106118155750505090565b90919261183961183260019261182a8761089d565b815260200190565b9460010190565b929101611808565b90610754916117e9565b9061073e6118659261185c60405190565b93848092611841565b0383610e4d565b6107549061184b565b61188c61075491611884606090565b506005610890565b61186c565b61073e906118ac600080516020612c48833981519152610d67565b611a5d565b3561075481610774565b356107548161081e565b9050519061073e8261081e565b90610754916020818303126118e6576118c5565b6118ee610717565b6118c5565b506040513d6000823e3d90fd5b903590601e193682900301821215611944575b01602081359167ffffffffffffffff8311611937575b0191368290038313610a6b57565b61193f610717565b611929565b61194c610717565b611913565b8181106111f2570390565b50634e487b7160e01b600052601260045260246000fd5b811561197d570490565b61198561195c565b0490565b8115611993570690565b61199b61195c565b0690565b9160001960089290920291821b911b610ffb565b91906119c261075461101c9390565b90835461199f565b906119f261073e92805490680100000000000000008210156119f8575b60018201815561093d565b906119b3565b611a00610e36565b6119e7565b9194611a566108f192989795611a4f60a096611a4861073e9a611a3860c08a019e60008b01906001600160a01b03169052565b6001600160a01b03166020890152565b6040870152565b6060850152565b6080830152565b906020820191611a6c836118b1565b90611a776000611423565b91611a936001600160a01b0384165b916001600160a01b031690565b14611e9f576060810193611aa6856118bb565b611ab361110a6000610b3a565b14611e82576040820194611ac6866118b1565b611ad86001600160a01b038616611a86565b14611e6457611be390611af5611af0611af0856118b1565b6107ce565b906370a082318489611b06306107ce565b936020611b1260405190565b8097611b1e8760e01b90565b82526001600160a01b038816600483015260249082905afa958615611e57575b600096611e2f575b50916020939185611bc99694611b69611b648d610120810190611900565b905090565b611b7661110a6000610b3a565b1115611e095750505050611b898861242f565b611bb2611b9b611af0611af08a6118b1565b91611ba560405190565b9586948593849360e01b90565b83526001600160a01b031660048301526024820190565b03915afa908115611dfc575b600091611dde575b50611951565b9160009460015b15611dba575b611d6560009686611c1b611c0660e087016118bb565b61129b611c1560c089016118bb565b85611104565b858b611cde828a8c611c93611c43611c32856118bb565b89611c3c866118b1565b91336116fb565b9160a0611c54610754856004610890565b9801611c68611c62826118bb565b83611973565b918c611c7761110a6000610b3a565b6000911415611dae5750611c8d61129b926118bb565b90611989565b97611cb5611cac8a611ca760018b0161089d565b61112e565b600189016114f8565b611cd1611a86611cc489610c8c565b926001600160a01b031690565b14611d6b575b50506118bb565b91611cfd6001611cf6611cf08d6118b1565b946118b1565b920161089d565b91611d5c87611d0e60808d016118bb565b7f9350247ae5f8389ed8487daba15bc7f2173887676a95759508e1844aae0dfdc795611d49611d43611d3f336107ce565b9990565b99610b3a565b99611d5360405190565b96879687611a05565b0390a460010190565b95611bea565b611da261075483611d87611d81611da7966118b1565b8a6115b3565b611d9c8a611d966005936118b1565b3361174b565b90610890565b6119ca565b8a38611cd7565b905061129b9150610b3a565b611dc961075460a084016118bb565b861015611dd557611bf0565b95505050505050565b611df69150611ded3d82610e4d565b3d8101906118d2565b38611bdd565b611e046118f3565b611bd5565b611e24611e1e611cf0611af0611e2a976118b1565b916118bb565b92611f1b565b611b89565b85611bc99694929750611e4a6020969492611ded3d82610e4d565b9792945095509193611b46565b611e5f6118f3565b611b3e565b505050505050611e7360405190565b637bc101ab60e11b8152600490fd5b5050505050611e9060405190565b63162908e360e11b8152600490fd5b50505050611eac60405190565b63c1ab6dc160e01b8152600490fd5b61073e90611891565b611edd611ed76107549263ffffffff1690565b60e01b90565b6001600160e01b03191690565b6001600160a01b03909116815260608101939261073e9290916040916108f1905b6001600160a01b03166020830152565b90611f6090611f5161073e95600495611f376323b872dd611ec4565b93611f4160405190565b9788956020870190815201611eea565b60208201810382520383610e4d565b612036565b611f6f602061117d565b7f5361666545524332303a206c6f772d6c6576656c2063616c6c206661696c6564602082015290565b610754611f65565b801515610729565b9050519061073e82611fa0565b9061075491602081830312611fc957611fa8565b611fd1610717565b611fa8565b15611fdd57565b5060405162461bcd60e51b815260206004820152602a60248201527f5361666545524332303a204552433230206f7065726174696f6e20646964206e6044820152691bdd081cdd58d8d9595960b21b6064820152608490fd5b61073e91612046612055926107ce565b9061204f611f98565b91612093565b805161206461110a6000610b3a565b14908115612073575b50611fd6565b61208d91506020612082825190565b818301019101611fb5565b3861206d565b61075492916120a26000610b3a565b91612123565b156120af57565b5060405162461bcd60e51b815260206004820152602660248201527f416464726573733a20696e73756666696369656e742062616c616e636520666f6044820152651c8818d85b1b60d21b6064820152608490fd5b3d1561211e576121133d61117d565b903d6000602084013e565b606090565b90600061075494938192612135606090565b5061214c612142306107ce565b83903110156120a8565b60208101905191855af161215e612104565b916121b1565b1561216b57565b5060405162461bcd60e51b815260206004820152601d60248201527f416464726573733a2063616c6c20746f206e6f6e2d636f6e74726163740000006044820152606490fd5b9192606091156121e657505081516121cc61110a6000610b3a565b146121d5575090565b6121e1610754916121f3565b612164565b90939261073e9250612205565b3b61220161110a6000610b3a565b1190565b915061220f825190565b61221c61110a6000610b3a565b111561222b5750805190602001fd5b604051610f429250610f2d565b9050519061073e82610774565b65ffffffffffff8116610729565b9050519061073e82612245565b9091606082840312612291575b61075461227a8484612238565b936122888160208601612253565b93604001612253565b612299610717565b61226d565b6001600160a01b03909116815260608101939261073e9290916040916122c390611f0b565b01906001600160a01b03169052565b6107546080611142565b6122e96107546107549290565b65ffffffffffff1690565b6107546060611142565b80516001600160a01b0316825261073e919060609081906020818101516001600160a01b03169085015260408181015165ffffffffffff1690850152015165ffffffffffff16910152565b9060a0604061073e93612364600082015160008601906122fe565b60208101516001600160a01b031660808501520151910152565b90826000939282370152565b9190610e2c816123a181610c0c9560209181520190565b809561237e565b6123d861075495939492946123ce61010084019660008501906001600160a01b03169052565b6020830190612349565b60e081850391015261238a565b6122c361073e9461241f60609498979561240f608086019a60008701906001600160a01b03169052565b6001600160a01b03166020850152565b6001600160a01b03166040830152565b61243a611af0610ad9565b63927da10591604081019161244e836118b1565b9160208101906060612485612462846118b1565b9761249061246f306107ce565b809a61247a60405190565b998a95869560e01b90565b85526004850161229e565b0381865afa938415612689575b600094612668575b50632b67b570946124b5816118b1565b916124bf846118b1565b9060608101966124ce886118bb565b6124d7906126f3565b65ffffffffffff906124e76122d2565b6001600160a01b0390951685526001600160a01b0316602085015261250b906122dc565b65ffffffffffff16604084015265ffffffffffff16606083015261253261010082016118bb565b61253a6122f4565b9283526001600160a01b038a1660208401526040830152610120810161255f91611900565b949093863b1561258d60009a6125986125ec998d996125f7988b9661265b575b604051978896879660e01b90565b8652600486016123a8565b0381838b5af1801561264e575b61263a575b506125d36125cd6125c86125c26336c78516966118b1565b996118bb565b6126f3565b916118b1565b90863b1561262d575b604051998a988997889660e01b90565b8652600486016123e5565b03925af18015612620575b6126095750565b61073e906126173d82610e4d565b3d810190610a60565b6126286118f3565b612602565b612635610717565b6125dc565b612648906126173d82610e4d565b386125aa565b6126566118f3565b6125a5565b612663610717565b61257f565b6126819194506126783d82610e4d565b3d810190612260565b9491506124a5565b6126916118f3565b61249d565b1561269d57565b5060405162461bcd60e51b815260206004820152602760248201527f53616665436173743a2076616c756520646f65736e27742066697420696e20316044820152663630206269747360c81b6064820152608490fd5b6107549061271261270a6001600160a01b036113a9565b821115612696565b611416565b6001600160a01b03909116815260408101929161073e916020906122c3565b339061274c816127478460076107d7565b6115b3565b7fbbd6eb1e2586cc8ea8e80aa1ccf25590beffdd2cb73367b5ac49214505bb48c49161156e61277a60405190565b92839283612717565b9061073e91612793610d4e610b5b565b6127c8565b916020918110156127a857020190565b6127b0610926565b020190565b90815260408101929161073e9160200152565b9080916000936127d785610b3a565b8414612a925760005b845b811015612a8a576127fc6127f7828686612798565b6118bb565b60059061281061280c8284610890565b5490565b61281c61110a8a610b3a565b14612a6a5761282f610754826006610890565b9061285b8961285561284f6109bb8361284a8760049a610890565b61093d565b86610890565b01610c8c565b9161286582612afa565b909460018301916128758361089d565b8114612a3e57600261299f888f612a049a989688966128d16129b4976127e29f9d9b9461291f9501936128cc6128b36128ad8761089d565b89611951565b976128c66128c08461089d565b85611951565b966114f8565b6114f8565b6128da8a6107ce565b916128e4836107ce565b906370a082319360206128f76003610c8c565b604051809881926129088a60e01b90565b83526001600160a01b031688830190815260200190565b0381865afa958615612a31575b600096612a0b575b509061296191612951602096979861294b8c610c8c565b83612ab9565b61295b6003610c8c565b90612ab9565b61298861296e6003610c8c565b94611bc961297b60405190565b9687958694859460e01b90565b845283016001600160a01b03909116815260200190565b92016129ae83611ca78361089d565b906114f8565b6129e56129df7fb14baddc4b3d8807f1d5dfe595f14ed9e87fcdb8d45909968b5a64f952e399fd9390565b936107ce565b936129fb6129f260405190565b928392836127b5565b0390a360010190565b90506127e0565b602095965090612951612a266129619493611ded3d82610e4d565b979650509091612934565b612a396118f3565b61292c565b509950505050505050505050610f429150612a5860405190565b636e997d6760e11b8152918291820190565b5050505050505050612a7b60405190565b6307e1fae360e31b8152600490fd5b509350505050565b5050505050612aa060405190565b631ec5aa5160e01b8152600490fd5b9061073e91612783565b611f60600492611f5161073e95612ad363a9059cbb611ec4565b92612add60405190565b96879460208601908152016109c8565b90602080916111ca845190565b612b0a61188c6000926005610890565b8192612b14825190565b92935b835b851015612b5457612b4c612b45612b199261129b6001610d376004611d9c612b418d8c612aed565b5190565b9560010190565b949050612b17565b9350915050610754612b7a612b6c611c15600161089d565b612b74610b47565b90611973565b8093611951565b9061073e91612b91610d4e610b5b565b612bab565b90815260408101929161073e916020906122c3565b6000612bb961076882611423565b6001600160a01b03831614611e9f57612bd190610b3a565b8214612c3157612be0816107ce565b612bec83338093612ab9565b612c167f3ab9db27a4cdd8c603a752b62d5fbd93b4b3509fe2596708e9688e42bbac3576926107ce565b92612c2c612c2360405190565b92839283612b96565b0390a2565b505050611e9060405190565b9061073e91612b8156fe8f4f2da22e8ac8f11e15f9fc141cddbb5deea8800186560abb6e68c5496619a9a36469706673582212201ce318eaccfa6af2bed5640c13f2afb68735377e329b38ab9d38bd1beadc29ef6c6578706572696d656e74616cf564736f6c634300080c0041","opcodes":"PUSH1 0xA0 PUSH1 0x40 MSTORE CALLVALUE PUSH3 0x45 JUMPI JUMPDEST PUSH3 0x23 PUSH3 0x19 PUSH3 0x15A JUMP JUMPDEST SWAP3 SWAP2 SWAP1 SWAP2 PUSH3 0x280 JUMP JUMPDEST PUSH1 0x40 MLOAD PUSH2 0x2CAB PUSH3 0x4A9 DUP3 CODECOPY PUSH1 0x80 MLOAD DUP2 DUP2 DUP2 PUSH2 0x2DC ADD MSTORE PUSH2 0x1511 ADD MSTORE PUSH2 0x2CAB SWAP1 RETURN JUMPDEST PUSH3 0x4F PUSH3 0x55 JUMP JUMPDEST PUSH3 0xB JUMP JUMPDEST POP PUSH1 0x0 DUP1 REVERT JUMPDEST POP PUSH4 0x4E487B71 PUSH1 0xE0 SHL PUSH1 0x0 MSTORE PUSH1 0x41 PUSH1 0x4 MSTORE PUSH1 0x24 PUSH1 0x0 REVERT JUMPDEST SWAP1 PUSH1 0x1F ADD PUSH1 0x1F NOT AND DUP2 ADD SWAP1 DUP2 LT PUSH1 0x1 PUSH1 0x1 PUSH1 0x40 SHL SUB DUP3 GT OR PUSH3 0x94 JUMPI PUSH1 0x40 MSTORE JUMP JUMPDEST PUSH3 0x9E PUSH3 0x5B JUMP JUMPDEST PUSH1 0x40 MSTORE JUMP JUMPDEST SWAP1 PUSH3 0xBA PUSH3 0xB2 PUSH1 0x40 MLOAD SWAP1 JUMP JUMPDEST SWAP3 DUP4 PUSH3 0x72 JUMP JUMPDEST JUMP JUMPDEST DUP1 JUMPDEST EQ ISZERO PUSH3 0x55 JUMPI JUMP JUMPDEST SWAP1 POP MLOAD SWAP1 PUSH3 0xBA DUP3 PUSH3 0xBC JUMP JUMPDEST PUSH1 0x1 PUSH1 0x1 PUSH1 0xA0 SHL SUB AND SWAP1 JUMP JUMPDEST SWAP1 JUMP JUMPDEST PUSH1 0x1 PUSH1 0x1 PUSH1 0xA0 SHL SUB DUP2 AND PUSH3 0xBE JUMP JUMPDEST SWAP1 POP MLOAD SWAP1 PUSH3 0xBA DUP3 PUSH3 0xE5 JUMP JUMPDEST PUSH1 0x80 DUP2 DUP4 SUB SLT PUSH3 0x14A JUMPI JUMPDEST PUSH3 0x11C DUP3 DUP3 PUSH3 0xC7 JUMP JUMPDEST SWAP3 PUSH3 0xE2 PUSH3 0x130 DUP5 PUSH1 0x20 DUP6 ADD PUSH3 0xC7 JUMP JUMPDEST SWAP4 PUSH3 0x140 DUP2 PUSH1 0x40 DUP7 ADD PUSH3 0xF5 JUMP JUMPDEST SWAP4 PUSH1 0x60 ADD PUSH3 0xF5 JUMP JUMPDEST PUSH3 0x154 PUSH3 0x55 JUMP JUMPDEST PUSH3 0x110 JUMP JUMPDEST PUSH3 0x17D PUSH3 0x3154 DUP1 CODESIZE SUB DUP1 PUSH3 0x171 DUP2 PUSH3 0xA3 JUMP JUMPDEST SWAP3 DUP4 CODECOPY DUP2 ADD SWAP1 PUSH3 0x104 JUMP JUMPDEST SWAP1 SWAP2 SWAP3 SWAP4 JUMP JUMPDEST PUSH3 0xE2 PUSH3 0xE2 PUSH3 0xE2 SWAP3 SWAP1 JUMP JUMPDEST PUSH3 0xE2 PUSH3 0xF4240 PUSH3 0x183 JUMP JUMPDEST POP PUSH4 0x4E487B71 PUSH1 0xE0 SHL PUSH1 0x0 MSTORE PUSH1 0x12 PUSH1 0x4 MSTORE PUSH1 0x24 PUSH1 0x0 REVERT JUMPDEST DUP2 ISZERO PUSH3 0x1C3 JUMPI DIV SWAP1 JUMP JUMPDEST PUSH3 0x1CD PUSH3 0x1A1 JUMP JUMPDEST DIV SWAP1 JUMP JUMPDEST PUSH3 0xD6 PUSH3 0xE2 PUSH3 0xE2 SWAP3 SWAP1 JUMP JUMPDEST PUSH3 0xE2 SWAP1 PUSH3 0x1D1 JUMP JUMPDEST SWAP1 PUSH1 0x0 NOT SWAP1 JUMPDEST SWAP2 DUP2 NOT AND SWAP2 AND OR SWAP1 JUMP JUMPDEST SWAP1 PUSH3 0x210 PUSH3 0xE2 PUSH3 0x218 SWAP3 PUSH3 0x183 JUMP JUMPDEST DUP3 SLOAD PUSH3 0x1EC JUMP JUMPDEST SWAP1 SSTORE JUMP JUMPDEST SWAP1 PUSH1 0x1 PUSH1 0x1 PUSH1 0xA0 SHL SUB SWAP1 PUSH3 0x1F2 JUMP JUMPDEST PUSH3 0xE2 SWAP1 PUSH3 0xD6 SWAP1 PUSH1 0x1 PUSH1 0x1 PUSH1 0xA0 SHL SUB AND DUP3 JUMP JUMPDEST PUSH3 0xE2 SWAP1 PUSH3 0x22C JUMP JUMPDEST PUSH3 0xE2 SWAP1 PUSH3 0x242 JUMP JUMPDEST SWAP1 PUSH3 0x26C PUSH3 0xE2 PUSH3 0x218 SWAP3 PUSH3 0x24D JUMP JUMPDEST DUP3 SLOAD PUSH3 0x21C JUMP JUMPDEST PUSH3 0xE2 PUSH1 0x0 PUSH3 0x183 JUMP JUMPDEST SWAP1 SWAP3 SWAP2 PUSH3 0x28D PUSH3 0x193 JUMP JUMPDEST PUSH3 0x2AA PUSH3 0xE2 PUSH1 0x2 SWAP3 PUSH3 0x2A3 DUP5 PUSH3 0x183 JUMP JUMPDEST SWAP1 PUSH3 0x1B8 JUMP JUMPDEST DUP6 LT ISZERO PUSH3 0x394 JUMPI DUP5 DUP4 GT PUSH3 0x375 JUMPI PUSH3 0x2C6 PUSH1 0x0 PUSH3 0x1E1 JUMP JUMPDEST PUSH1 0x1 PUSH1 0x1 PUSH1 0xA0 SHL SUB DUP2 AND PUSH1 0x1 PUSH1 0x1 PUSH1 0xA0 SHL SUB DUP5 AND EQ PUSH3 0x355 JUMPI PUSH1 0x1 PUSH1 0x1 PUSH1 0xA0 SHL SUB AND PUSH1 0x1 PUSH1 0x1 PUSH1 0xA0 SHL SUB DUP6 AND EQ PUSH3 0x336 JUMPI PUSH3 0x312 PUSH3 0x318 SWAP4 PUSH3 0x320 SWAP7 PUSH1 0x80 MSTORE PUSH1 0x1 PUSH3 0x1FC JUMP JUMPDEST PUSH3 0x258 JUMP JUMPDEST PUSH1 0x3 PUSH3 0x258 JUMP JUMPDEST PUSH3 0xBA PUSH3 0x32E PUSH3 0x274 JUMP JUMPDEST CALLER SWAP1 PUSH3 0x3F4 JUMP JUMPDEST POP POP POP POP POP POP PUSH3 0x346 PUSH1 0x40 MLOAD SWAP1 JUMP JUMPDEST PUSH4 0x5C187B8D PUSH1 0xE0 SHL DUP2 MSTORE PUSH1 0x4 SWAP1 REVERT JUMPDEST POP POP POP POP POP POP POP PUSH3 0x366 PUSH1 0x40 MLOAD SWAP1 JUMP JUMPDEST PUSH4 0xED1B8B3 PUSH1 0xE3 SHL DUP2 MSTORE PUSH1 0x4 SWAP1 REVERT JUMPDEST POP POP POP POP POP POP PUSH3 0x385 PUSH1 0x40 MLOAD SWAP1 JUMP JUMPDEST PUSH4 0x58D620B3 PUSH1 0xE0 SHL DUP2 MSTORE PUSH1 0x4 SWAP1 REVERT JUMPDEST POP POP POP POP POP POP PUSH3 0x3A4 PUSH1 0x40 MLOAD SWAP1 JUMP JUMPDEST PUSH4 0xA51D0C81 PUSH1 0xE0 SHL DUP2 MSTORE PUSH1 0x4 SWAP1 REVERT JUMPDEST SWAP1 JUMPDEST PUSH1 0x0 MSTORE PUSH1 0x20 MSTORE PUSH1 0x40 PUSH1 0x0 KECCAK256 SWAP1 JUMP JUMPDEST SWAP1 PUSH3 0x3B5 SWAP1 PUSH3 0x24D JUMP JUMPDEST SWAP1 PUSH1 0xFF SWAP1 PUSH3 0x1F2 JUMP JUMPDEST SWAP1 PUSH3 0x3EC PUSH3 0xE2 PUSH3 0x218 SWAP3 ISZERO ISZERO SWAP1 JUMP JUMPDEST DUP3 SLOAD PUSH3 0x3CF JUMP JUMPDEST SWAP1 PUSH3 0x409 PUSH3 0x405 DUP3 DUP5 PUSH3 0x48A JUMP JUMPDEST ISZERO SWAP1 JUMP JUMPDEST PUSH3 0x412 JUMPI POP POP JUMP JUMPDEST PUSH3 0x438 PUSH1 0x1 PUSH3 0x432 DUP4 PUSH1 0x0 PUSH3 0x42B DUP8 DUP3 PUSH3 0x3B3 JUMP JUMPDEST ADD PUSH3 0x3C3 JUMP JUMPDEST PUSH3 0x3D9 JUMP JUMPDEST CALLER SWAP1 PUSH3 0x472 PUSH3 0x46B PUSH3 0x46B PUSH32 0x2F8788117E7EFF1D82E926EC794901D17C78024A50270940304540A733656F0D SWAP6 SWAP1 JUMP JUMPDEST SWAP3 PUSH3 0x24D JUMP JUMPDEST SWAP3 PUSH3 0x47D PUSH1 0x40 MLOAD SWAP1 JUMP JUMPDEST PUSH1 0x0 SWAP1 LOG4 JUMP JUMPDEST SLOAD PUSH1 0xFF AND SWAP1 JUMP JUMPDEST PUSH3 0xE2 SWAP2 PUSH3 0x4A2 SWAP2 PUSH3 0x42B PUSH1 0x0 SWAP2 DUP3 PUSH3 0x3B3 JUMP JUMPDEST PUSH3 0x483 JUMP INVALID PUSH1 0x80 PUSH1 0x40 MSTORE PUSH1 0x4 CALLDATASIZE LT ISZERO PUSH2 0x18 JUMPI JUMPDEST PUSH2 0x16 PUSH2 0x717 JUMP JUMPDEST STOP JUMPDEST PUSH1 0x0 CALLDATALOAD PUSH1 0xE0 SHR DUP1 PUSH4 0x1FFC9A7 EQ PUSH2 0x6ED JUMPI DUP1 PUSH4 0x7CD2FFE EQ PUSH2 0x6C3 JUMPI DUP1 PUSH4 0x172BECFF EQ PUSH2 0x69C JUMPI DUP1 PUSH4 0x1AEA69CA EQ PUSH2 0x671 JUMPI DUP1 PUSH4 0x1DA08B87 EQ PUSH2 0x638 JUMPI DUP1 PUSH4 0x248A9CA3 EQ PUSH2 0x60E JUMPI DUP1 PUSH4 0x28B16A3F EQ PUSH2 0x5E3 JUMPI DUP1 PUSH4 0x2C4EF0D5 EQ PUSH2 0x5BC JUMPI DUP1 PUSH4 0x2F2FF15D EQ PUSH2 0x594 JUMPI DUP1 PUSH4 0x36568ABE EQ PUSH2 0x56C JUMPI DUP1 PUSH4 0x429C8910 EQ PUSH2 0x53E JUMPI DUP1 PUSH4 0x46904840 EQ PUSH2 0x514 JUMPI DUP1 PUSH4 0x5C2A802B EQ PUSH2 0x4ED JUMPI DUP1 PUSH4 0x69FE0E2D EQ PUSH2 0x4C6 JUMPI DUP1 PUSH4 0x6AFDD850 EQ PUSH2 0x490 JUMPI DUP1 PUSH4 0x75619AB5 EQ PUSH2 0x469 JUMPI DUP1 PUSH4 0x91D14854 EQ PUSH2 0x42C JUMPI DUP1 PUSH4 0x95CCEA67 EQ PUSH2 0x404 JUMPI DUP1 PUSH4 0x9E93AD8E EQ PUSH2 0x3DA JUMPI DUP1 PUSH4 0xA217FDDF EQ PUSH2 0x3B0 JUMPI DUP1 PUSH4 0xA3B0B5A3 EQ PUSH2 0x37A JUMPI DUP1 PUSH4 0xB2D7EDB2 EQ PUSH2 0x352 JUMPI DUP1 PUSH4 0xBFE10928 EQ PUSH2 0x30D JUMPI DUP1 PUSH4 0xC2624E1E EQ PUSH2 0x2C5 JUMPI DUP1 PUSH4 0xCC6C9388 EQ PUSH2 0x28F JUMPI DUP1 PUSH4 0xD547741F EQ PUSH2 0x267 JUMPI DUP1 PUSH4 0xDDCA3F43 EQ PUSH2 0x22C JUMPI DUP1 PUSH4 0xE74B981B EQ PUSH2 0x205 JUMPI DUP1 PUSH4 0xE8FA2948 EQ PUSH2 0x1DE JUMPI DUP1 PUSH4 0xEDCDAB77 EQ PUSH2 0x1A1 JUMPI PUSH4 0xF96258C4 EQ PUSH2 0x177 JUMPI PUSH2 0xE JUMP JUMPDEST CALLVALUE PUSH2 0x194 JUMPI JUMPDEST PUSH2 0x16 PUSH2 0x18B CALLDATASIZE PUSH1 0x4 PUSH2 0x790 JUMP JUMPDEST PUSH2 0x2736 JUMP JUMPDEST SUB SWAP1 RETURN JUMPDEST PUSH2 0x19C PUSH2 0x717 JUMP JUMPDEST PUSH2 0x17D JUMP JUMPDEST POP CALLVALUE PUSH2 0x1D1 JUMPI JUMPDEST PUSH2 0x1BB PUSH2 0x1B6 CALLDATASIZE PUSH1 0x4 PUSH2 0x86F JUMP JUMPDEST PUSH2 0xC96 JUMP JUMPDEST SWAP1 PUSH2 0x190 PUSH2 0x1C8 PUSH1 0x40 MLOAD SWAP1 JUMP JUMPDEST SWAP3 DUP4 SWAP3 DUP4 PUSH2 0x9C8 JUMP JUMPDEST PUSH2 0x1D9 PUSH2 0x717 JUMP JUMPDEST PUSH2 0x1A8 JUMP JUMPDEST POP CALLVALUE PUSH2 0x1F8 JUMPI JUMPDEST PUSH2 0x16 PUSH2 0x1F3 CALLDATASIZE PUSH1 0x4 PUSH2 0x790 JUMP JUMPDEST PUSH2 0x14D1 JUMP JUMPDEST PUSH2 0x200 PUSH2 0x717 JUMP JUMPDEST PUSH2 0x1E5 JUMP JUMPDEST POP CALLVALUE PUSH2 0x21F JUMPI JUMPDEST PUSH2 0x16 PUSH2 0x21A CALLDATASIZE PUSH1 0x4 PUSH2 0x790 JUMP JUMPDEST PUSH2 0x1633 JUMP JUMPDEST PUSH2 0x227 PUSH2 0x717 JUMP JUMPDEST PUSH2 0x20C JUMP JUMPDEST POP CALLVALUE PUSH2 0x25A JUMPI JUMPDEST PUSH2 0x23E CALLDATASIZE PUSH1 0x4 PUSH2 0xA60 JUMP JUMPDEST PUSH2 0x190 PUSH2 0x249 PUSH2 0xC77 JUMP JUMPDEST PUSH1 0x40 MLOAD JUMPDEST SWAP2 DUP3 SWAP2 DUP3 SWAP1 DUP2 MSTORE PUSH1 0x20 ADD SWAP1 JUMP JUMPDEST PUSH2 0x262 PUSH2 0x717 JUMP JUMPDEST PUSH2 0x233 JUMP JUMPDEST POP CALLVALUE PUSH2 0x282 JUMPI JUMPDEST PUSH2 0x16 PUSH2 0x27C CALLDATASIZE PUSH1 0x4 PUSH2 0x9E5 JUMP JUMPDEST SWAP1 PUSH2 0xF61 JUMP JUMPDEST PUSH2 0x28A PUSH2 0x717 JUMP JUMPDEST PUSH2 0x26E JUMP JUMPDEST POP CALLVALUE PUSH2 0x2B8 JUMPI JUMPDEST PUSH2 0x190 PUSH2 0x2AC PUSH2 0x2A7 CALLDATASIZE PUSH1 0x4 PUSH2 0x86F JUMP JUMPDEST PUSH2 0x1875 JUMP JUMPDEST PUSH1 0x40 MLOAD SWAP2 DUP3 SWAP2 DUP3 PUSH2 0xC66 JUMP JUMPDEST PUSH2 0x2C0 PUSH2 0x717 JUMP JUMPDEST PUSH2 0x296 JUMP JUMPDEST POP CALLVALUE PUSH2 0x300 JUMPI JUMPDEST PUSH2 0x2D7 CALLDATASIZE PUSH1 0x4 PUSH2 0xA60 JUMP JUMPDEST PUSH2 0x190 PUSH32 0x0 PUSH2 0x249 JUMP JUMPDEST PUSH2 0x308 PUSH2 0x717 JUMP JUMPDEST PUSH2 0x2CC JUMP JUMPDEST POP CALLVALUE PUSH2 0x345 JUMPI JUMPDEST PUSH2 0x31F CALLDATASIZE PUSH1 0x4 PUSH2 0xA60 JUMP JUMPDEST PUSH2 0x190 PUSH2 0x32A PUSH2 0xC00 JUMP JUMPDEST PUSH1 0x40 MLOAD JUMPDEST SWAP2 DUP3 SWAP2 DUP3 PUSH1 0x1 PUSH1 0x1 PUSH1 0xA0 SHL SUB SWAP1 SWAP2 AND DUP2 MSTORE PUSH1 0x20 ADD SWAP1 JUMP JUMPDEST PUSH2 0x34D PUSH2 0x717 JUMP JUMPDEST PUSH2 0x314 JUMP JUMPDEST POP CALLVALUE PUSH2 0x36D JUMPI JUMPDEST PUSH2 0x16 PUSH2 0x367 CALLDATASIZE PUSH1 0x4 PUSH2 0xBB9 JUMP JUMPDEST SWAP1 PUSH2 0x2AAF JUMP JUMPDEST PUSH2 0x375 PUSH2 0x717 JUMP JUMPDEST PUSH2 0x359 JUMP JUMPDEST POP CALLVALUE PUSH2 0x3A3 JUMPI JUMPDEST PUSH2 0x38C CALLDATASIZE PUSH1 0x4 PUSH2 0xA60 JUMP JUMPDEST PUSH2 0x190 PUSH1 0x0 DUP1 MLOAD PUSH1 0x20 PUSH2 0x2C48 DUP4 CODECOPY DUP2 MLOAD SWAP2 MSTORE PUSH2 0x249 JUMP JUMPDEST PUSH2 0x3AB PUSH2 0x717 JUMP JUMPDEST PUSH2 0x381 JUMP JUMPDEST POP CALLVALUE PUSH2 0x3CD JUMPI JUMPDEST PUSH2 0x3C2 CALLDATASIZE PUSH1 0x4 PUSH2 0xA60 JUMP JUMPDEST PUSH2 0x190 PUSH2 0x249 PUSH2 0xB65 JUMP JUMPDEST PUSH2 0x3D5 PUSH2 0x717 JUMP JUMPDEST PUSH2 0x3B7 JUMP JUMPDEST POP CALLVALUE PUSH2 0x3F7 JUMPI JUMPDEST PUSH2 0x3EC CALLDATASIZE PUSH1 0x4 PUSH2 0xA60 JUMP JUMPDEST PUSH2 0x190 PUSH2 0x249 PUSH2 0xB53 JUMP JUMPDEST PUSH2 0x3FF PUSH2 0x717 JUMP JUMPDEST PUSH2 0x3E1 JUMP JUMPDEST POP CALLVALUE PUSH2 0x41F JUMPI JUMPDEST PUSH2 0x16 PUSH2 0x419 CALLDATASIZE PUSH1 0x4 PUSH2 0xB12 JUMP JUMPDEST SWAP1 PUSH2 0x2C3D JUMP JUMPDEST PUSH2 0x427 PUSH2 0x717 JUMP JUMPDEST PUSH2 0x40B JUMP JUMPDEST POP CALLVALUE PUSH2 0x45C JUMPI JUMPDEST PUSH2 0x190 PUSH2 0x44A PUSH2 0x444 CALLDATASIZE PUSH1 0x4 PUSH2 0x9E5 JUMP JUMPDEST SWAP1 PUSH2 0xCFF JUMP JUMPDEST PUSH1 0x40 MLOAD SWAP2 DUP3 SWAP2 DUP3 SWAP1 ISZERO ISZERO DUP2 MSTORE PUSH1 0x20 ADD SWAP1 JUMP JUMPDEST PUSH2 0x464 PUSH2 0x717 JUMP JUMPDEST PUSH2 0x433 JUMP JUMPDEST POP CALLVALUE PUSH2 0x483 JUMPI JUMPDEST PUSH2 0x16 PUSH2 0x47E CALLDATASIZE PUSH1 0x4 PUSH2 0x790 JUMP JUMPDEST PUSH2 0x16B4 JUMP JUMPDEST PUSH2 0x48B PUSH2 0x717 JUMP JUMPDEST PUSH2 0x470 JUMP JUMPDEST POP CALLVALUE PUSH2 0x4B9 JUMPI JUMPDEST PUSH2 0x4A2 CALLDATASIZE PUSH1 0x4 PUSH2 0xA60 JUMP JUMPDEST PUSH2 0x190 PUSH2 0x4AD PUSH2 0xAF1 JUMP JUMPDEST PUSH1 0x40 MLOAD SWAP2 DUP3 SWAP2 DUP3 PUSH2 0xB02 JUMP JUMPDEST PUSH2 0x4C1 PUSH2 0x717 JUMP JUMPDEST PUSH2 0x497 JUMP JUMPDEST POP CALLVALUE PUSH2 0x4E0 JUMPI JUMPDEST PUSH2 0x16 PUSH2 0x4DB CALLDATASIZE PUSH1 0x4 PUSH2 0x86F JUMP JUMPDEST PUSH2 0x1587 JUMP JUMPDEST PUSH2 0x4E8 PUSH2 0x717 JUMP JUMPDEST PUSH2 0x4CD JUMP JUMPDEST POP CALLVALUE PUSH2 0x507 JUMPI JUMPDEST PUSH2 0x16 PUSH2 0x502 CALLDATASIZE PUSH1 0x4 PUSH2 0xA96 JUMP JUMPDEST PUSH2 0x1EBB JUMP JUMPDEST PUSH2 0x50F PUSH2 0x717 JUMP JUMPDEST PUSH2 0x4F4 JUMP JUMPDEST POP CALLVALUE PUSH2 0x531 JUMPI JUMPDEST PUSH2 0x526 CALLDATASIZE PUSH1 0x4 PUSH2 0xA60 JUMP JUMPDEST PUSH2 0x190 PUSH2 0x32A PUSH2 0xA73 JUMP JUMPDEST PUSH2 0x539 PUSH2 0x717 JUMP JUMPDEST PUSH2 0x51B JUMP JUMPDEST POP CALLVALUE PUSH2 0x55F JUMPI JUMPDEST PUSH2 0x190 PUSH2 0x249 PUSH2 0x556 CALLDATASIZE PUSH1 0x4 PUSH2 0xA16 JUMP JUMPDEST SWAP3 SWAP2 SWAP1 SWAP2 PUSH2 0x16FB JUMP JUMPDEST PUSH2 0x567 PUSH2 0x717 JUMP JUMPDEST PUSH2 0x545 JUMP JUMPDEST POP CALLVALUE PUSH2 0x587 JUMPI JUMPDEST PUSH2 0x16 PUSH2 0x581 CALLDATASIZE PUSH1 0x4 PUSH2 0x9E5 JUMP JUMPDEST SWAP1 PUSH2 0xFD0 JUMP JUMPDEST PUSH2 0x58F PUSH2 0x717 JUMP JUMPDEST PUSH2 0x573 JUMP JUMPDEST POP CALLVALUE PUSH2 0x5AF JUMPI JUMPDEST PUSH2 0x16 PUSH2 0x5A9 CALLDATASIZE PUSH1 0x4 PUSH2 0x9E5 JUMP JUMPDEST SWAP1 PUSH2 0xD5D JUMP JUMPDEST PUSH2 0x5B7 PUSH2 0x717 JUMP JUMPDEST PUSH2 0x59B JUMP JUMPDEST POP CALLVALUE PUSH2 0x5D6 JUMPI JUMPDEST PUSH2 0x1BB PUSH2 0x5D1 CALLDATASIZE PUSH1 0x4 PUSH2 0x86F JUMP JUMPDEST PUSH2 0x17B0 JUMP JUMPDEST PUSH2 0x5DE PUSH2 0x717 JUMP JUMPDEST PUSH2 0x5C3 JUMP JUMPDEST POP CALLVALUE PUSH2 0x601 JUMPI JUMPDEST PUSH2 0x190 PUSH2 0x249 PUSH2 0x5FB CALLDATASIZE PUSH1 0x4 PUSH2 0x8F5 JUMP JUMPDEST SWAP1 PUSH2 0x98F JUMP JUMPDEST PUSH2 0x609 PUSH2 0x717 JUMP JUMPDEST PUSH2 0x5EA JUMP JUMPDEST POP CALLVALUE PUSH2 0x62B JUMPI JUMPDEST PUSH2 0x190 PUSH2 0x249 PUSH2 0x626 CALLDATASIZE PUSH1 0x4 PUSH2 0x86F JUMP JUMPDEST PUSH2 0xD1E JUMP JUMPDEST PUSH2 0x633 PUSH2 0x717 JUMP JUMPDEST PUSH2 0x615 JUMP JUMPDEST POP CALLVALUE PUSH2 0x664 JUMPI JUMPDEST PUSH2 0x190 PUSH2 0x655 PUSH2 0x650 CALLDATASIZE PUSH1 0x4 PUSH2 0x86F JUMP JUMPDEST PUSH2 0x8A7 JUMP JUMPDEST PUSH1 0x40 MLOAD SWAP2 SWAP4 SWAP2 SWAP4 DUP5 SWAP4 DUP5 PUSH2 0x8D4 JUMP JUMPDEST PUSH2 0x66C PUSH2 0x717 JUMP JUMPDEST PUSH2 0x63F JUMP JUMPDEST POP CALLVALUE PUSH2 0x68F JUMPI JUMPDEST PUSH2 0x190 PUSH2 0x249 PUSH2 0x689 CALLDATASIZE PUSH1 0x4 PUSH2 0x831 JUMP JUMPDEST SWAP2 PUSH2 0x174B JUMP JUMPDEST PUSH2 0x697 PUSH2 0x717 JUMP JUMPDEST PUSH2 0x678 JUMP JUMPDEST POP CALLVALUE PUSH2 0x6B6 JUMPI JUMPDEST PUSH2 0x16 PUSH2 0x6B1 CALLDATASIZE PUSH1 0x4 PUSH2 0x790 JUMP JUMPDEST PUSH2 0x1474 JUMP JUMPDEST PUSH2 0x6BE PUSH2 0x717 JUMP JUMPDEST PUSH2 0x6A3 JUMP JUMPDEST POP CALLVALUE PUSH2 0x6E0 JUMPI JUMPDEST PUSH2 0x190 PUSH2 0x32A PUSH2 0x6DB CALLDATASIZE PUSH1 0x4 PUSH2 0x790 JUMP JUMPDEST PUSH2 0x807 JUMP JUMPDEST PUSH2 0x6E8 PUSH2 0x717 JUMP JUMPDEST PUSH2 0x6CA JUMP JUMPDEST POP CALLVALUE PUSH2 0x70A JUMPI JUMPDEST PUSH2 0x190 PUSH2 0x44A PUSH2 0x705 CALLDATASIZE PUSH1 0x4 PUSH2 0x740 JUMP JUMPDEST PUSH2 0xCB0 JUMP JUMPDEST PUSH2 0x712 PUSH2 0x717 JUMP JUMPDEST PUSH2 0x6F4 JUMP JUMPDEST POP PUSH1 0x0 DUP1 REVERT JUMPDEST PUSH1 0x1 PUSH1 0x1 PUSH1 0xE0 SHL SUB NOT DUP2 AND JUMPDEST EQ ISZERO PUSH2 0x717 JUMPI JUMP JUMPDEST SWAP1 POP CALLDATALOAD SWAP1 PUSH2 0x73E DUP3 PUSH2 0x71D JUMP JUMPDEST JUMP JUMPDEST SWAP1 PUSH2 0x754 SWAP2 PUSH1 0x20 DUP2 DUP4 SUB SLT PUSH2 0x757 JUMPI PUSH2 0x731 JUMP JUMPDEST SWAP1 JUMP JUMPDEST PUSH2 0x75F PUSH2 0x717 JUMP JUMPDEST PUSH2 0x731 JUMP JUMPDEST SWAP1 MSTORE JUMP JUMPDEST PUSH1 0x1 PUSH1 0x1 PUSH1 0xA0 SHL SUB AND SWAP1 JUMP JUMPDEST PUSH1 0x1 PUSH1 0x1 PUSH1 0xA0 SHL SUB DUP2 AND PUSH2 0x729 JUMP JUMPDEST SWAP1 POP CALLDATALOAD SWAP1 PUSH2 0x73E DUP3 PUSH2 0x774 JUMP JUMPDEST SWAP1 PUSH2 0x754 SWAP2 PUSH1 0x20 DUP2 DUP4 SUB SLT PUSH2 0x7A4 JUMPI PUSH2 0x783 JUMP JUMPDEST PUSH2 0x7AC PUSH2 0x717 JUMP JUMPDEST PUSH2 0x783 JUMP JUMPDEST PUSH2 0x754 SWAP1 PUSH2 0x768 SWAP1 PUSH1 0x1 PUSH1 0x1 PUSH1 0xA0 SHL SUB AND DUP3 JUMP JUMPDEST PUSH2 0x754 SWAP1 PUSH2 0x7B1 JUMP JUMPDEST PUSH2 0x754 SWAP1 PUSH2 0x7C5 JUMP JUMPDEST SWAP1 PUSH2 0x7E1 SWAP1 PUSH2 0x7CE JUMP JUMPDEST PUSH1 0x0 MSTORE PUSH1 0x20 MSTORE PUSH1 0x40 PUSH1 0x0 KECCAK256 SWAP1 JUMP JUMPDEST PUSH2 0x754 SWAP2 PUSH1 0x8 MUL SHR PUSH2 0x768 JUMP JUMPDEST SWAP1 PUSH2 0x754 SWAP2 SLOAD PUSH2 0x7EF JUMP JUMPDEST PUSH2 0x754 SWAP1 PUSH2 0x819 PUSH1 0x7 SWAP2 PUSH1 0x0 SWAP3 PUSH2 0x7D7 JUMP JUMPDEST PUSH2 0x7FC JUMP JUMPDEST DUP1 PUSH2 0x729 JUMP JUMPDEST SWAP1 POP CALLDATALOAD SWAP1 PUSH2 0x73E DUP3 PUSH2 0x81E JUMP JUMPDEST SWAP1 SWAP2 PUSH1 0x60 DUP3 DUP5 SUB SLT PUSH2 0x862 JUMPI JUMPDEST PUSH2 0x754 PUSH2 0x84B DUP5 DUP5 PUSH2 0x783 JUMP JUMPDEST SWAP4 PUSH2 0x859 DUP2 PUSH1 0x20 DUP7 ADD PUSH2 0x783 JUMP JUMPDEST SWAP4 PUSH1 0x40 ADD PUSH2 0x824 JUMP JUMPDEST PUSH2 0x86A PUSH2 0x717 JUMP JUMPDEST PUSH2 0x83E JUMP JUMPDEST SWAP1 PUSH2 0x754 SWAP2 PUSH1 0x20 DUP2 DUP4 SUB SLT PUSH2 0x883 JUMPI PUSH2 0x824 JUMP JUMPDEST PUSH2 0x88B PUSH2 0x717 JUMP JUMPDEST PUSH2 0x824 JUMP JUMPDEST SWAP1 PUSH2 0x7E1 JUMP JUMPDEST PUSH2 0x754 SWAP1 DUP2 JUMP JUMPDEST PUSH2 0x754 SWAP1 SLOAD PUSH2 0x896 JUMP JUMPDEST PUSH2 0x8B2 SWAP1 PUSH1 0x6 PUSH2 0x890 JUMP JUMPDEST PUSH2 0x8BB DUP2 PUSH2 0x89D JUMP JUMPDEST SWAP2 PUSH2 0x754 PUSH1 0x2 PUSH2 0x8CD PUSH1 0x1 DUP6 ADD PUSH2 0x89D JUMP JUMPDEST SWAP4 ADD PUSH2 0x89D JUMP JUMPDEST SWAP1 DUP2 MSTORE PUSH1 0x60 DUP2 ADD SWAP4 SWAP3 PUSH2 0x73E SWAP3 SWAP1 SWAP2 PUSH1 0x40 SWAP2 PUSH2 0x8F1 SWAP1 PUSH1 0x20 DUP4 ADD MSTORE JUMP JUMPDEST ADD MSTORE JUMP JUMPDEST SWAP2 SWAP1 PUSH2 0x754 SWAP1 PUSH1 0x40 DUP5 DUP3 SUB SLT PUSH2 0x919 JUMPI JUMPDEST PUSH2 0x910 DUP2 DUP6 PUSH2 0x824 JUMP JUMPDEST SWAP4 PUSH1 0x20 ADD PUSH2 0x824 JUMP JUMPDEST PUSH2 0x921 PUSH2 0x717 JUMP JUMPDEST PUSH2 0x906 JUMP JUMPDEST POP PUSH4 0x4E487B71 PUSH1 0xE0 SHL PUSH1 0x0 MSTORE PUSH1 0x32 PUSH1 0x4 MSTORE PUSH1 0x24 PUSH1 0x0 REVERT JUMPDEST PUSH2 0x95D PUSH1 0x1 SWAP2 PUSH2 0x94B DUP2 SLOAD SWAP1 JUMP JUMPDEST DUP5 LT ISZERO PUSH2 0x966 JUMPI PUSH1 0x0 MSTORE PUSH1 0x20 PUSH1 0x0 KECCAK256 SWAP1 JUMP JUMPDEST SWAP2 MUL ADD SWAP1 PUSH1 0x0 SWAP1 JUMP JUMPDEST PUSH2 0x96E PUSH2 0x926 JUMP JUMPDEST PUSH1 0x0 MSTORE PUSH1 0x20 PUSH1 0x0 KECCAK256 SWAP1 JUMP JUMPDEST PUSH2 0x754 SWAP2 PUSH1 0x8 MUL SHR DUP2 JUMP JUMPDEST SWAP1 PUSH2 0x754 SWAP2 SLOAD PUSH2 0x979 JUMP JUMPDEST PUSH2 0x99D PUSH1 0x5 SWAP2 PUSH1 0x0 SWAP3 PUSH2 0x890 JUMP JUMPDEST SWAP1 PUSH2 0x9A6 DUP3 SLOAD SWAP1 JUMP JUMPDEST DUP4 LT ISZERO PUSH2 0x9C1 JUMPI POP PUSH2 0x754 SWAP2 PUSH2 0x9BB SWAP2 PUSH2 0x93D JUMP JUMPDEST SWAP1 PUSH2 0x984 JUMP JUMPDEST SWAP3 POP POP POP DUP1 REVERT JUMPDEST PUSH1 0x1 PUSH1 0x1 PUSH1 0xA0 SHL SUB SWAP1 SWAP2 AND DUP2 MSTORE PUSH1 0x40 DUP2 ADD SWAP3 SWAP2 PUSH2 0x73E SWAP2 PUSH1 0x20 ADD MSTORE JUMP JUMPDEST SWAP2 SWAP1 PUSH2 0x754 SWAP1 PUSH1 0x40 DUP5 DUP3 SUB SLT PUSH2 0xA09 JUMPI JUMPDEST PUSH2 0xA00 DUP2 DUP6 PUSH2 0x824 JUMP JUMPDEST SWAP4 PUSH1 0x20 ADD PUSH2 0x783 JUMP JUMPDEST PUSH2 0xA11 PUSH2 0x717 JUMP JUMPDEST PUSH2 0x9F6 JUMP JUMPDEST PUSH1 0x80 DUP2 DUP4 SUB SLT PUSH2 0xA53 JUMPI JUMPDEST PUSH2 0xA2B DUP3 DUP3 PUSH2 0x783 JUMP JUMPDEST SWAP3 PUSH2 0x754 PUSH2 0xA3C DUP5 PUSH1 0x20 DUP6 ADD PUSH2 0x824 JUMP JUMPDEST SWAP4 PUSH2 0xA4A DUP2 PUSH1 0x40 DUP7 ADD PUSH2 0x824 JUMP JUMPDEST SWAP4 PUSH1 0x60 ADD PUSH2 0x783 JUMP JUMPDEST PUSH2 0xA5B PUSH2 0x717 JUMP JUMPDEST PUSH2 0xA21 JUMP JUMPDEST PUSH1 0x0 SWAP2 SUB SLT PUSH2 0xA6B JUMPI JUMP JUMPDEST PUSH2 0x73E PUSH2 0x717 JUMP JUMPDEST PUSH2 0x754 PUSH1 0x0 PUSH1 0x2 PUSH2 0x7FC JUMP JUMPDEST SWAP1 DUP2 PUSH2 0x140 SWAP2 SUB SLT PUSH2 0xA8E JUMPI SWAP1 JUMP JUMPDEST PUSH2 0x754 PUSH2 0x717 JUMP JUMPDEST SWAP1 PUSH2 0x754 SWAP2 PUSH1 0x20 DUP2 DUP4 SUB SLT PUSH2 0xACC JUMPI JUMPDEST DUP1 CALLDATALOAD SWAP1 PUSH8 0xFFFFFFFFFFFFFFFF DUP3 GT PUSH2 0xABF JUMPI JUMPDEST ADD PUSH2 0xA7F JUMP JUMPDEST PUSH2 0xAC7 PUSH2 0x717 JUMP JUMPDEST PUSH2 0xAB9 JUMP JUMPDEST PUSH2 0xAD4 PUSH2 0x717 JUMP JUMPDEST PUSH2 0xAA6 JUMP JUMPDEST PUSH2 0x754 PUSH15 0x22D473030F116DDEE9F6B43AC78BA3 PUSH2 0x7CE JUMP JUMPDEST PUSH2 0x754 PUSH2 0xAD9 JUMP JUMPDEST PUSH2 0x764 SWAP1 PUSH2 0x7CE JUMP JUMPDEST PUSH1 0x20 DUP2 ADD SWAP3 SWAP2 PUSH2 0x73E SWAP2 SWAP1 PUSH2 0xAF9 JUMP JUMPDEST SWAP2 SWAP1 PUSH2 0x754 SWAP1 PUSH1 0x40 DUP5 DUP3 SUB SLT PUSH2 0xB2D JUMPI JUMPDEST PUSH2 0x910 DUP2 DUP6 PUSH2 0x783 JUMP JUMPDEST PUSH2 0xB35 PUSH2 0x717 JUMP JUMPDEST PUSH2 0xB23 JUMP JUMPDEST PUSH2 0x754 PUSH2 0x754 PUSH2 0x754 SWAP3 SWAP1 JUMP JUMPDEST PUSH2 0x754 PUSH3 0xF4240 PUSH2 0xB3A JUMP JUMPDEST PUSH2 0x754 PUSH2 0xB47 JUMP JUMPDEST PUSH2 0x754 PUSH1 0x0 PUSH2 0xB3A JUMP JUMPDEST PUSH2 0x754 PUSH2 0xB5B JUMP JUMPDEST SWAP1 SWAP2 DUP3 PUSH1 0x1F DUP4 ADD SLT ISZERO PUSH2 0xBAC JUMPI JUMPDEST PUSH1 0x20 DUP3 CALLDATALOAD SWAP3 PUSH8 0xFFFFFFFFFFFFFFFF DUP5 GT PUSH2 0xB9F JUMPI JUMPDEST ADD SWAP3 PUSH1 0x20 DUP4 MUL DUP5 ADD GT PUSH2 0xA6B JUMPI JUMP JUMPDEST PUSH2 0xBA7 PUSH2 0x717 JUMP JUMPDEST PUSH2 0xB90 JUMP JUMPDEST PUSH2 0xBB4 PUSH2 0x717 JUMP JUMPDEST PUSH2 0xB7B JUMP JUMPDEST SWAP1 PUSH2 0xBE2 SWAP2 PUSH1 0x20 DUP2 DUP4 SUB SLT PUSH2 0xBF3 JUMPI JUMPDEST DUP1 CALLDATALOAD SWAP1 PUSH8 0xFFFFFFFFFFFFFFFF DUP3 GT PUSH2 0xBE6 JUMPI JUMPDEST ADD PUSH2 0xB6D JUMP JUMPDEST SWAP1 SWAP2 JUMP JUMPDEST PUSH2 0xBEE PUSH2 0x717 JUMP JUMPDEST PUSH2 0xBDC JUMP JUMPDEST PUSH2 0xBFB PUSH2 0x717 JUMP JUMPDEST PUSH2 0xBC9 JUMP JUMPDEST PUSH2 0x754 PUSH1 0x0 PUSH1 0x3 PUSH2 0x7FC JUMP JUMPDEST ADD SWAP1 JUMP JUMPDEST SWAP1 PUSH2 0xC30 PUSH2 0xC29 PUSH2 0xC1F DUP5 MLOAD SWAP1 JUMP JUMPDEST DUP1 DUP5 MSTORE SWAP3 PUSH1 0x20 ADD SWAP1 JUMP JUMPDEST SWAP3 PUSH1 0x20 ADD SWAP1 JUMP JUMPDEST SWAP1 PUSH1 0x0 JUMPDEST DUP2 DUP2 LT PUSH2 0xC41 JUMPI POP POP POP SWAP1 JUMP JUMPDEST SWAP1 SWAP2 SWAP3 PUSH2 0xC5E PUSH2 0xC57 PUSH1 0x1 SWAP3 DUP7 MLOAD DUP2 MSTORE PUSH1 0x20 ADD SWAP1 JUMP JUMPDEST SWAP5 PUSH1 0x20 ADD SWAP1 JUMP JUMPDEST SWAP3 SWAP2 ADD PUSH2 0xC34 JUMP JUMPDEST PUSH1 0x20 DUP1 DUP3 MSTORE PUSH2 0x754 SWAP3 SWAP2 ADD SWAP1 PUSH2 0xC10 JUMP JUMPDEST PUSH2 0x754 PUSH1 0x0 PUSH1 0x1 PUSH2 0x984 JUMP JUMPDEST PUSH2 0x754 SWAP1 PUSH2 0x768 JUMP JUMPDEST PUSH2 0x754 SWAP1 SLOAD PUSH2 0xC83 JUMP JUMPDEST PUSH2 0xCA1 SWAP1 PUSH1 0x4 PUSH2 0x890 JUMP JUMPDEST SWAP1 PUSH2 0x754 PUSH1 0x1 PUSH2 0x8CD DUP5 PUSH2 0xC8C JUMP JUMPDEST PUSH4 0x7965DB0B PUSH1 0xE0 SHL PUSH1 0x1 PUSH1 0x1 PUSH1 0xE0 SHL SUB NOT DUP3 AND EQ SWAP1 DUP2 ISZERO PUSH2 0xCCF JUMPI POP SWAP1 JUMP JUMPDEST PUSH2 0x754 SWAP2 POP PUSH1 0x1 PUSH1 0x1 PUSH1 0xE0 SHL SUB NOT AND PUSH4 0x1FFC9A7 PUSH1 0xE0 SHL EQ SWAP1 JUMP JUMPDEST PUSH2 0x754 SWAP1 JUMPDEST PUSH1 0xFF AND SWAP1 JUMP JUMPDEST PUSH2 0x754 SWAP1 SLOAD PUSH2 0xCEA JUMP JUMPDEST PUSH2 0x754 SWAP2 PUSH2 0xD19 SWAP2 PUSH2 0xD13 PUSH1 0x0 SWAP2 DUP3 PUSH2 0x890 JUMP JUMPDEST ADD PUSH2 0x7D7 JUMP JUMPDEST PUSH2 0xCF5 JUMP JUMPDEST PUSH1 0x1 PUSH2 0xD37 PUSH2 0x754 SWAP3 PUSH2 0xD2F PUSH1 0x0 SWAP1 JUMP JUMPDEST POP PUSH1 0x0 PUSH2 0x890 JUMP JUMPDEST ADD PUSH2 0x89D JUMP JUMPDEST SWAP1 PUSH2 0x73E SWAP2 PUSH2 0xD53 PUSH2 0xD4E DUP3 PUSH2 0xD1E JUMP JUMPDEST PUSH2 0xD67 JUMP JUMPDEST SWAP1 PUSH2 0x73E SWAP2 PUSH2 0x1020 JUMP JUMPDEST SWAP1 PUSH2 0x73E SWAP2 PUSH2 0xD3D JUMP JUMPDEST PUSH2 0x73E SWAP1 CALLER SWAP1 PUSH2 0xEB7 JUMP JUMPDEST PUSH2 0x754 SWAP1 PUSH2 0xB3A JUMP JUMPDEST SWAP2 DUP1 SWAP2 SWAP3 PUSH1 0x0 SWAP1 JUMPDEST DUP3 DUP3 LT PUSH2 0xD9B JUMPI POP GT PUSH2 0xD94 JUMPI POP POP JUMP JUMPDEST PUSH1 0x0 SWAP2 ADD MSTORE JUMP JUMPDEST SWAP2 POP DUP1 PUSH1 0x20 SWAP2 DUP4 ADD MLOAD DUP2 DUP7 ADD MSTORE ADD DUP3 SWAP2 PUSH2 0xD83 JUMP JUMPDEST PUSH2 0xC0C PUSH2 0xDC8 SWAP3 PUSH1 0x20 SWAP3 PUSH2 0xDC2 DUP2 MLOAD SWAP1 JUMP JUMPDEST SWAP5 DUP6 SWAP3 SWAP1 JUMP JUMPDEST SWAP4 DUP5 SWAP2 ADD PUSH2 0xD7B JUMP JUMPDEST PUSH2 0xE0F PUSH2 0x754 SWAP4 SWAP3 PUSH2 0xE09 PUSH2 0xE09 SWAP4 PUSH32 0x416363657373436F6E74726F6C3A206163636F756E7420000000000000000000 DUP2 MSTORE PUSH1 0x17 ADD SWAP1 JUMP JUMPDEST SWAP1 PUSH2 0xDB0 JUMP JUMPDEST PUSH17 0x1034B99036B4B9B9B4B733903937B6329 PUSH1 0x7D SHL DUP2 MSTORE PUSH1 0x11 ADD SWAP1 JUMP JUMPDEST PUSH1 0x1F ADD PUSH1 0x1F NOT AND SWAP1 JUMP JUMPDEST POP PUSH4 0x4E487B71 PUSH1 0xE0 SHL PUSH1 0x0 MSTORE PUSH1 0x41 PUSH1 0x4 MSTORE PUSH1 0x24 PUSH1 0x0 REVERT JUMPDEST SWAP1 PUSH1 0x1F ADD PUSH1 0x1F NOT AND DUP2 ADD SWAP1 DUP2 LT PUSH8 0xFFFFFFFFFFFFFFFF DUP3 GT OR PUSH2 0xE6F JUMPI PUSH1 0x40 MSTORE JUMP JUMPDEST PUSH2 0xE77 PUSH2 0xE36 JUMP JUMPDEST PUSH1 0x40 MSTORE JUMP JUMPDEST PUSH2 0xE9D PUSH2 0xE2C PUSH1 0x20 SWAP4 PUSH2 0xC0C SWAP4 PUSH2 0xE91 DUP2 MLOAD SWAP1 JUMP JUMPDEST DUP1 DUP4 MSTORE SWAP4 DUP5 SWAP3 PUSH1 0x20 ADD SWAP1 JUMP JUMPDEST SWAP6 DUP7 SWAP2 ADD PUSH2 0xD7B JUMP JUMPDEST PUSH1 0x20 DUP1 DUP3 MSTORE PUSH2 0x754 SWAP3 SWAP2 ADD SWAP1 PUSH2 0xE7C JUMP JUMPDEST SWAP1 PUSH2 0xEC9 PUSH2 0xEC5 DUP3 DUP5 PUSH2 0xCFF JUMP JUMPDEST ISZERO SWAP1 JUMP JUMPDEST PUSH2 0xED1 JUMPI POP POP JUMP JUMPDEST PUSH2 0xF42 SWAP3 POP SWAP1 PUSH2 0x754 PUSH2 0xEEF PUSH2 0xEE9 PUSH2 0xF29 SWAP5 PUSH2 0x13D5 JUMP JUMPDEST SWAP3 PUSH2 0xD72 JUMP JUMPDEST PUSH2 0xF04 PUSH1 0x20 SWAP2 PUSH2 0xEFE DUP4 PUSH2 0xB3A JUMP JUMPDEST SWAP1 PUSH2 0x1275 JUMP JUMPDEST SWAP3 PUSH2 0xF1D PUSH2 0xF11 PUSH1 0x40 MLOAD SWAP1 JUMP JUMPDEST SWAP5 DUP6 SWAP4 DUP5 ADD SWAP3 DUP4 PUSH2 0xDD1 JUMP JUMPDEST SWAP1 DUP2 SUB DUP3 MSTORE SUB DUP3 PUSH2 0xE4D JUMP JUMPDEST PUSH1 0x40 MLOAD JUMPDEST PUSH3 0x461BCD PUSH1 0xE5 SHL DUP2 MSTORE SWAP2 DUP3 SWAP2 PUSH1 0x4 DUP4 ADD PUSH2 0xEA6 JUMP JUMPDEST SUB SWAP1 REVERT JUMPDEST SWAP1 PUSH2 0x73E SWAP2 PUSH2 0xF57 PUSH2 0xD4E DUP3 PUSH2 0xD1E JUMP JUMPDEST SWAP1 PUSH2 0x73E SWAP2 PUSH2 0x1096 JUMP JUMPDEST SWAP1 PUSH2 0x73E SWAP2 PUSH2 0xF46 JUMP JUMPDEST ISZERO PUSH2 0xF72 JUMPI JUMP JUMPDEST POP PUSH1 0x40 MLOAD PUSH3 0x461BCD PUSH1 0xE5 SHL DUP2 MSTORE PUSH1 0x20 PUSH1 0x4 DUP3 ADD MSTORE PUSH1 0x2F PUSH1 0x24 DUP3 ADD MSTORE PUSH32 0x416363657373436F6E74726F6C3A2063616E206F6E6C792072656E6F756E6365 PUSH1 0x44 DUP3 ADD MSTORE PUSH15 0x103937B632B9903337B91039B2B633 PUSH1 0x89 SHL PUSH1 0x64 DUP3 ADD MSTORE PUSH1 0x84 SWAP1 REVERT JUMPDEST PUSH2 0x73E SWAP2 SWAP1 PUSH2 0xFF1 PUSH2 0xFE1 CALLER PUSH2 0x768 JUMP JUMPDEST PUSH1 0x1 PUSH1 0x1 PUSH1 0xA0 SHL SUB DUP5 AND EQ PUSH2 0xF6B JUMP JUMPDEST PUSH2 0x1096 JUMP JUMPDEST SWAP1 PUSH1 0xFF SWAP1 JUMPDEST SWAP2 DUP2 NOT AND SWAP2 AND OR SWAP1 JUMP JUMPDEST SWAP1 PUSH2 0x1015 PUSH2 0x754 PUSH2 0x101C SWAP3 ISZERO ISZERO SWAP1 JUMP JUMPDEST DUP3 SLOAD PUSH2 0xFF6 JUMP JUMPDEST SWAP1 SSTORE JUMP JUMPDEST SWAP1 PUSH2 0x102E PUSH2 0xEC5 DUP3 DUP5 PUSH2 0xCFF JUMP JUMPDEST PUSH2 0x1036 JUMPI POP POP JUMP JUMPDEST PUSH2 0x1050 PUSH1 0x1 PUSH2 0x104B DUP4 PUSH1 0x0 PUSH2 0xD13 DUP8 DUP3 PUSH2 0x890 JUMP JUMPDEST PUSH2 0x1005 JUMP JUMPDEST CALLER SWAP1 PUSH2 0x1086 PUSH2 0x1080 PUSH2 0x1080 PUSH32 0x2F8788117E7EFF1D82E926EC794901D17C78024A50270940304540A733656F0D SWAP6 SWAP1 JUMP JUMPDEST SWAP3 PUSH2 0x7CE JUMP JUMPDEST SWAP3 PUSH2 0x1090 PUSH1 0x40 MLOAD SWAP1 JUMP JUMPDEST PUSH1 0x0 SWAP1 LOG4 JUMP JUMPDEST SWAP1 PUSH2 0x10A1 DUP2 DUP4 PUSH2 0xCFF JUMP JUMPDEST PUSH2 0x10A9 JUMPI POP POP JUMP JUMPDEST PUSH2 0x10BD PUSH1 0x0 PUSH2 0x104B DUP4 DUP3 PUSH2 0xD13 DUP8 DUP3 PUSH2 0x890 JUMP JUMPDEST CALLER SWAP1 PUSH2 0x1086 PUSH2 0x1080 PUSH2 0x1080 PUSH32 0xF6391F5C32D9C69D2A47EA670B442974B53935D1EDC7FD64EB21E047A839171B SWAP6 SWAP1 JUMP JUMPDEST POP PUSH4 0x4E487B71 PUSH1 0xE0 SHL PUSH1 0x0 MSTORE PUSH1 0x11 PUSH1 0x4 MSTORE PUSH1 0x24 PUSH1 0x0 REVERT JUMPDEST SWAP1 PUSH2 0x110E JUMP JUMPDEST SWAP2 SWAP1 JUMP JUMPDEST SWAP1 DUP1 PUSH1 0x0 NOT DIV DUP3 GT DUP2 ISZERO ISZERO AND PUSH2 0x1122 JUMPI MUL SWAP1 JUMP JUMPDEST PUSH2 0x112A PUSH2 0x10ED JUMP JUMPDEST MUL SWAP1 JUMP JUMPDEST DUP2 NOT DUP2 GT PUSH2 0x113A JUMPI ADD SWAP1 JUMP JUMPDEST PUSH2 0xC0C PUSH2 0x10ED JUMP JUMPDEST SWAP1 PUSH2 0x73E PUSH2 0x114F PUSH1 0x40 MLOAD SWAP1 JUMP JUMPDEST SWAP3 DUP4 PUSH2 0xE4D JUMP JUMPDEST PUSH2 0xC0C PUSH1 0x20 SWAP2 PUSH8 0xFFFFFFFFFFFFFFFF DUP2 GT PUSH2 0x1175 JUMPI PUSH1 0x1F ADD PUSH1 0x1F NOT AND SWAP1 JUMP JUMPDEST PUSH2 0xE2C PUSH2 0xE36 JUMP JUMPDEST SWAP1 PUSH2 0x118F PUSH2 0x118A DUP4 PUSH2 0x1156 JUMP JUMPDEST PUSH2 0x1142 JUMP JUMPDEST SWAP2 DUP3 MSTORE JUMP JUMPDEST CALLDATASIZE SWAP1 CALLDATACOPY JUMP JUMPDEST SWAP1 PUSH2 0x73E PUSH2 0x11AF PUSH2 0x11A9 DUP5 PUSH2 0x117D JUMP JUMPDEST SWAP4 PUSH2 0x1156 JUMP JUMPDEST PUSH1 0x1F NOT ADD PUSH1 0x20 DUP5 ADD PUSH2 0x1194 JUMP JUMPDEST SWAP1 PUSH1 0x1 PUSH1 0x20 SWAP2 PUSH2 0x11CA DUP5 MLOAD SWAP1 JUMP JUMPDEST DUP2 LT ISZERO PUSH2 0x11D8 JUMPI JUMPDEST MUL ADD ADD SWAP1 JUMP JUMPDEST PUSH2 0x11E0 PUSH2 0x926 JUMP JUMPDEST PUSH2 0x11D2 JUMP JUMPDEST PUSH1 0x1 SWAP1 DUP1 ISZERO PUSH2 0x11F2 JUMPI SUB SWAP1 JUMP JUMPDEST PUSH2 0x11FA PUSH2 0x10ED JUMP JUMPDEST SUB SWAP1 JUMP JUMPDEST PUSH2 0xCEF PUSH2 0x754 PUSH2 0x754 SWAP3 SWAP1 JUMP JUMPDEST PUSH2 0x754 SWAP1 PUSH2 0x121F PUSH2 0x110A PUSH2 0x754 SWAP5 PUSH1 0xFF AND SWAP1 JUMP JUMPDEST SWAP1 SHR SWAP1 JUMP JUMPDEST ISZERO PUSH2 0x122B JUMPI JUMP JUMPDEST POP PUSH1 0x40 MLOAD PUSH3 0x461BCD PUSH1 0xE5 SHL DUP2 MSTORE DUP1 PUSH2 0xF42 PUSH1 0x4 DUP3 ADD PUSH1 0x20 DUP1 DUP3 MSTORE DUP2 DUP2 ADD MSTORE PUSH32 0x537472696E67733A20686578206C656E67746820696E73756666696369656E74 PUSH1 0x40 DUP3 ADD MSTORE PUSH1 0x60 ADD SWAP1 JUMP JUMPDEST SWAP2 SWAP1 PUSH1 0x2 SWAP1 PUSH2 0x12A6 PUSH2 0x12A1 PUSH2 0x1292 DUP4 PUSH2 0x128D DUP7 PUSH2 0xB3A JUMP JUMPDEST PUSH2 0x1104 JUMP JUMPDEST PUSH2 0x129B DUP6 PUSH2 0xB3A JUMP JUMPDEST SWAP1 PUSH2 0x112E JUMP JUMPDEST PUSH2 0x1199 JUMP JUMPDEST SWAP2 PUSH1 0x0 SWAP2 PUSH1 0x30 PUSH2 0x12BE PUSH2 0x12B8 DUP6 PUSH2 0xB3A JUMP JUMPDEST DUP7 PUSH2 0x11BC JUMP JUMPDEST MSTORE8 PUSH2 0x12F6 PUSH2 0x12ED PUSH1 0xF PUSH1 0xFB SHL SWAP3 PUSH2 0x128D PUSH1 0x1 SWAP6 DUP7 SWAP6 DUP9 BYTE PUSH2 0x12E7 PUSH2 0x12E1 DUP9 PUSH2 0xB3A JUMP JUMPDEST DUP12 PUSH2 0x11BC JUMP JUMPDEST MSTORE8 PUSH2 0xB3A JUMP JUMPDEST PUSH2 0x129B DUP4 PUSH2 0xB3A JUMP JUMPDEST SWAP2 JUMPDEST PUSH2 0x1319 JUMPI JUMPDEST POP POP PUSH2 0x754 SWAP3 SWAP4 PUSH2 0x1313 PUSH2 0x110A PUSH2 0x754 SWAP4 PUSH2 0xB3A JUMP JUMPDEST EQ PUSH2 0x1224 JUMP JUMPDEST SWAP1 SWAP5 PUSH2 0x1324 DUP3 PUSH2 0xB3A JUMP JUMPDEST DUP7 GT ISZERO PUSH2 0x13A3 JUMPI PUSH2 0x1390 PUSH2 0x138A DUP4 SWAP3 PUSH2 0x136D PUSH2 0x1350 PUSH16 0x181899199A1A9B1B9C1CB0B131B232B3 PUSH1 0x81 SHL SWAP1 JUMP JUMPDEST PUSH2 0x135A PUSH1 0xF PUSH2 0xB3A JUMP JUMPDEST DUP4 AND PUSH1 0x10 DUP2 LT ISZERO PUSH2 0x1396 JUMPI JUMPDEST BYTE PUSH1 0xF8 SHL SWAP1 JUMP JUMPDEST DUP7 BYTE PUSH2 0x1379 DUP11 DUP10 PUSH2 0x11BC JUMP JUMPDEST MSTORE8 PUSH2 0x1384 PUSH1 0x4 PUSH2 0x11FE JUMP JUMPDEST SWAP1 PUSH2 0x120B JUMP JUMPDEST SWAP7 PUSH2 0x11E5 JUMP JUMPDEST SWAP2 PUSH2 0x12F8 JUMP JUMPDEST PUSH2 0x139E PUSH2 0x926 JUMP JUMPDEST PUSH2 0x1366 JUMP JUMPDEST SWAP5 PUSH2 0x12FD JUMP JUMPDEST PUSH2 0x754 SWAP1 DUP2 SWAP1 PUSH1 0x1 PUSH1 0x1 PUSH1 0xA0 SHL SUB AND DUP2 JUMP JUMPDEST PUSH2 0x754 PUSH1 0x14 PUSH2 0x11FE JUMP JUMPDEST PUSH2 0x754 PUSH2 0x754 PUSH2 0x754 SWAP3 PUSH1 0xFF AND SWAP1 JUMP JUMPDEST PUSH2 0x13F2 PUSH2 0x13ED PUSH2 0x754 SWAP3 PUSH2 0x13E7 PUSH1 0x60 SWAP1 JUMP JUMPDEST POP PUSH2 0x7C5 JUMP JUMPDEST PUSH2 0x13A9 JUMP JUMPDEST PUSH2 0xEFE PUSH2 0x13FD PUSH2 0x13BB JUMP JUMPDEST PUSH2 0x13C5 JUMP JUMPDEST PUSH2 0x73E SWAP1 PUSH2 0x1411 PUSH2 0xD4E PUSH2 0xB5B JUMP JUMPDEST PUSH2 0x142C JUMP JUMPDEST PUSH2 0x768 PUSH2 0x754 PUSH2 0x754 SWAP3 SWAP1 JUMP JUMPDEST PUSH2 0x754 SWAP1 PUSH2 0x1416 JUMP JUMPDEST PUSH2 0x1439 PUSH2 0x768 PUSH1 0x0 PUSH2 0x1423 JUMP JUMPDEST PUSH1 0x1 PUSH1 0x1 PUSH1 0xA0 SHL SUB DUP3 AND EQ PUSH2 0x1460 JUMPI PUSH2 0x73E SWAP1 PUSH1 0x0 DUP1 MLOAD PUSH1 0x20 PUSH2 0x2C48 DUP4 CODECOPY DUP2 MLOAD SWAP2 MSTORE PUSH2 0x1020 JUMP JUMPDEST POP POP PUSH1 0x40 MLOAD PUSH4 0xE6C4247B PUSH1 0xE0 SHL DUP2 MSTORE PUSH1 0x4 SWAP1 REVERT JUMPDEST PUSH2 0x73E SWAP1 PUSH2 0x1402 JUMP JUMPDEST PUSH2 0x73E SWAP1 PUSH2 0x148C PUSH2 0xD4E PUSH2 0xB5B JUMP JUMPDEST PUSH1 0x0 DUP1 MLOAD PUSH1 0x20 PUSH2 0x2C48 DUP4 CODECOPY DUP2 MLOAD SWAP2 MSTORE SWAP1 PUSH2 0x14A9 PUSH2 0xEC5 DUP3 DUP5 PUSH2 0xCFF JUMP JUMPDEST PUSH2 0x14B6 JUMPI PUSH2 0x73E SWAP2 PUSH2 0x1096 JUMP JUMPDEST POP POP POP PUSH2 0x14C2 PUSH1 0x40 MLOAD SWAP1 JUMP JUMPDEST PUSH4 0x3CC50B45 PUSH1 0xE0 SHL DUP2 MSTORE PUSH1 0x4 SWAP1 REVERT JUMPDEST PUSH2 0x73E SWAP1 PUSH2 0x147D JUMP JUMPDEST PUSH2 0x73E SWAP1 PUSH2 0x14E9 PUSH2 0xD4E PUSH2 0xB5B JUMP JUMPDEST PUSH2 0x150F JUMP JUMPDEST SWAP1 PUSH1 0x0 NOT SWAP1 PUSH2 0xFFB JUMP JUMPDEST SWAP1 PUSH2 0x1508 PUSH2 0x754 PUSH2 0x101C SWAP3 PUSH2 0xB3A JUMP JUMPDEST DUP3 SLOAD PUSH2 0x14EE JUMP JUMPDEST PUSH32 0x0 DUP2 GT PUSH2 0x1573 JUMPI PUSH2 0x1541 DUP2 PUSH1 0x1 PUSH2 0x14F8 JUMP JUMPDEST PUSH2 0x156E PUSH31 0x172DDFC5AE88D08B3DE01A5A187667C37A5A53989E8C175055CB6C993792A7 SWAP2 PUSH2 0x24D PUSH1 0x40 MLOAD SWAP1 JUMP JUMPDEST SUB SWAP1 LOG1 JUMP JUMPDEST POP POP PUSH1 0x40 MLOAD PUSH4 0x58D620B3 PUSH1 0xE0 SHL DUP2 MSTORE PUSH1 0x4 SWAP1 REVERT JUMPDEST PUSH2 0x73E SWAP1 PUSH2 0x14DA JUMP JUMPDEST PUSH2 0x73E SWAP1 PUSH2 0x159F PUSH2 0xD4E PUSH2 0xB5B JUMP JUMPDEST PUSH2 0x15CA JUMP JUMPDEST SWAP1 PUSH1 0x1 PUSH1 0x1 PUSH1 0xA0 SHL SUB SWAP1 PUSH2 0xFFB JUMP JUMPDEST SWAP1 PUSH2 0x15C3 PUSH2 0x754 PUSH2 0x101C SWAP3 PUSH2 0x7CE JUMP JUMPDEST DUP3 SLOAD PUSH2 0x15A4 JUMP JUMPDEST PUSH2 0x15D7 PUSH2 0x768 PUSH1 0x0 PUSH2 0x1423 JUMP JUMPDEST PUSH1 0x1 PUSH1 0x1 PUSH1 0xA0 SHL SUB DUP3 AND EQ PUSH2 0x161F JUMPI PUSH2 0x15F1 DUP2 PUSH1 0x2 PUSH2 0x15B3 JUMP JUMPDEST PUSH2 0x156E PUSH32 0x2E979F80FE4D43055C584CF4A8467C55875EA36728FC37176C05ACD784EB7A73 SWAP2 PUSH2 0x32E PUSH1 0x40 MLOAD SWAP1 JUMP JUMPDEST POP POP PUSH1 0x40 MLOAD PUSH4 0xED1B8B3 PUSH1 0xE3 SHL DUP2 MSTORE PUSH1 0x4 SWAP1 REVERT JUMPDEST PUSH2 0x73E SWAP1 PUSH2 0x1590 JUMP JUMPDEST PUSH2 0x73E SWAP1 PUSH2 0x164B PUSH2 0xD4E PUSH2 0xB5B JUMP JUMPDEST PUSH2 0x1658 PUSH2 0x768 PUSH1 0x0 PUSH2 0x1423 JUMP JUMPDEST PUSH1 0x1 PUSH1 0x1 PUSH1 0xA0 SHL SUB DUP3 AND EQ PUSH2 0x16A0 JUMPI PUSH2 0x1672 DUP2 PUSH1 0x3 PUSH2 0x15B3 JUMP JUMPDEST PUSH2 0x156E PUSH32 0xF52F1295A5BD82818185311D8284477532C0EBA12FD2BA17314486D3A8F6810D SWAP2 PUSH2 0x32E PUSH1 0x40 MLOAD SWAP1 JUMP JUMPDEST POP POP PUSH1 0x40 MLOAD PUSH4 0x5C187B8D PUSH1 0xE0 SHL DUP2 MSTORE PUSH1 0x4 SWAP1 REVERT JUMPDEST PUSH2 0x73E SWAP1 PUSH2 0x163C JUMP JUMPDEST PUSH2 0x764 SWAP1 PUSH1 0x1 PUSH1 0x1 PUSH1 0xA0 SHL SUB AND PUSH1 0x60 SHL SWAP1 JUMP JUMPDEST SWAP3 PUSH2 0x16F3 PUSH1 0x20 PUSH2 0xC0C SWAP5 PUSH2 0x16ED PUSH1 0x14 DUP9 PUSH2 0x16ED DUP3 SWAP12 SWAP11 DUP7 SWAP10 PUSH2 0x16BD JUMP JUMPDEST ADD SWAP2 DUP3 MSTORE JUMP JUMPDEST ADD DUP1 SWAP3 PUSH2 0x16BD JUMP JUMPDEST PUSH2 0xF1D PUSH2 0x171D SWAP4 SWAP5 PUSH2 0x170B PUSH1 0x0 SWAP1 JUMP JUMPDEST POP PUSH1 0x40 MLOAD SWAP6 DUP7 SWAP5 PUSH1 0x20 DUP7 ADD SWAP5 DUP6 PUSH2 0x16D0 JUMP JUMPDEST PUSH2 0x172F PUSH2 0x1728 DUP3 MLOAD SWAP1 JUMP JUMPDEST SWAP2 PUSH1 0x20 ADD SWAP1 JUMP JUMPDEST KECCAK256 SWAP1 JUMP JUMPDEST PUSH1 0x14 SWAP4 SWAP3 PUSH2 0x16F3 DUP6 DUP4 PUSH2 0x16ED PUSH1 0x20 SWAP6 PUSH2 0xC0C SWAP8 PUSH2 0x16BD JUMP JUMPDEST SWAP1 SWAP2 PUSH2 0x171D SWAP2 PUSH2 0xF1D PUSH2 0x175D PUSH1 0x40 MLOAD SWAP1 JUMP JUMPDEST SWAP5 DUP6 SWAP4 PUSH1 0x20 DUP6 ADD SWAP4 DUP5 PUSH2 0x1733 JUMP JUMPDEST PUSH2 0x754 PUSH1 0x40 PUSH2 0x1142 JUMP JUMPDEST SWAP1 PUSH2 0x73E PUSH2 0x17A0 PUSH1 0x1 PUSH2 0x1786 PUSH2 0x176B JUMP JUMPDEST SWAP5 PUSH2 0xD37 PUSH2 0x1793 DUP3 PUSH2 0xC8C JUMP JUMPDEST PUSH1 0x1 PUSH1 0x1 PUSH1 0xA0 SHL SUB AND DUP8 MSTORE JUMP JUMPDEST PUSH1 0x20 DUP5 ADD MSTORE JUMP JUMPDEST PUSH2 0x754 SWAP1 PUSH2 0x1775 JUMP JUMPDEST PUSH2 0x17C7 PUSH2 0x17CC SWAP2 PUSH2 0x17BF PUSH1 0x0 SWAP1 JUMP JUMPDEST POP PUSH1 0x4 PUSH2 0x890 JUMP JUMPDEST PUSH2 0x17A7 JUMP JUMPDEST SWAP1 PUSH2 0x754 PUSH1 0x20 PUSH2 0x17E3 DUP5 MLOAD PUSH1 0x1 PUSH1 0x1 PUSH1 0xA0 SHL SUB AND SWAP1 JUMP JUMPDEST SWAP4 ADD MLOAD SWAP1 JUMP JUMPDEST SWAP1 PUSH2 0x1804 PUSH2 0x17F8 PUSH2 0xC1F DUP5 SLOAD SWAP1 JUMP JUMPDEST SWAP3 PUSH1 0x0 MSTORE PUSH1 0x20 PUSH1 0x0 KECCAK256 SWAP1 JUMP JUMPDEST SWAP1 PUSH1 0x0 JUMPDEST DUP2 DUP2 LT PUSH2 0x1815 JUMPI POP POP POP SWAP1 JUMP JUMPDEST SWAP1 SWAP2 SWAP3 PUSH2 0x1839 PUSH2 0x1832 PUSH1 0x1 SWAP3 PUSH2 0x182A DUP8 PUSH2 0x89D JUMP JUMPDEST DUP2 MSTORE PUSH1 0x20 ADD SWAP1 JUMP JUMPDEST SWAP5 PUSH1 0x1 ADD SWAP1 JUMP JUMPDEST SWAP3 SWAP2 ADD PUSH2 0x1808 JUMP JUMPDEST SWAP1 PUSH2 0x754 SWAP2 PUSH2 0x17E9 JUMP JUMPDEST SWAP1 PUSH2 0x73E PUSH2 0x1865 SWAP3 PUSH2 0x185C PUSH1 0x40 MLOAD SWAP1 JUMP JUMPDEST SWAP4 DUP5 DUP1 SWAP3 PUSH2 0x1841 JUMP JUMPDEST SUB DUP4 PUSH2 0xE4D JUMP JUMPDEST PUSH2 0x754 SWAP1 PUSH2 0x184B JUMP JUMPDEST PUSH2 0x188C PUSH2 0x754 SWAP2 PUSH2 0x1884 PUSH1 0x60 SWAP1 JUMP JUMPDEST POP PUSH1 0x5 PUSH2 0x890 JUMP JUMPDEST PUSH2 0x186C JUMP JUMPDEST PUSH2 0x73E SWAP1 PUSH2 0x18AC PUSH1 0x0 DUP1 MLOAD PUSH1 0x20 PUSH2 0x2C48 DUP4 CODECOPY DUP2 MLOAD SWAP2 MSTORE PUSH2 0xD67 JUMP JUMPDEST PUSH2 0x1A5D JUMP JUMPDEST CALLDATALOAD PUSH2 0x754 DUP2 PUSH2 0x774 JUMP JUMPDEST CALLDATALOAD PUSH2 0x754 DUP2 PUSH2 0x81E JUMP JUMPDEST SWAP1 POP MLOAD SWAP1 PUSH2 0x73E DUP3 PUSH2 0x81E JUMP JUMPDEST SWAP1 PUSH2 0x754 SWAP2 PUSH1 0x20 DUP2 DUP4 SUB SLT PUSH2 0x18E6 JUMPI PUSH2 0x18C5 JUMP JUMPDEST PUSH2 0x18EE PUSH2 0x717 JUMP JUMPDEST PUSH2 0x18C5 JUMP JUMPDEST POP PUSH1 0x40 MLOAD RETURNDATASIZE PUSH1 0x0 DUP3 RETURNDATACOPY RETURNDATASIZE SWAP1 REVERT JUMPDEST SWAP1 CALLDATALOAD SWAP1 PUSH1 0x1E NOT CALLDATASIZE DUP3 SWAP1 SUB ADD DUP3 SLT ISZERO PUSH2 0x1944 JUMPI JUMPDEST ADD PUSH1 0x20 DUP2 CALLDATALOAD SWAP2 PUSH8 0xFFFFFFFFFFFFFFFF DUP4 GT PUSH2 0x1937 JUMPI JUMPDEST ADD SWAP2 CALLDATASIZE DUP3 SWAP1 SUB DUP4 SGT PUSH2 0xA6B JUMPI JUMP JUMPDEST PUSH2 0x193F PUSH2 0x717 JUMP JUMPDEST PUSH2 0x1929 JUMP JUMPDEST PUSH2 0x194C PUSH2 0x717 JUMP JUMPDEST PUSH2 0x1913 JUMP JUMPDEST DUP2 DUP2 LT PUSH2 0x11F2 JUMPI SUB SWAP1 JUMP JUMPDEST POP PUSH4 0x4E487B71 PUSH1 0xE0 SHL PUSH1 0x0 MSTORE PUSH1 0x12 PUSH1 0x4 MSTORE PUSH1 0x24 PUSH1 0x0 REVERT JUMPDEST DUP2 ISZERO PUSH2 0x197D JUMPI DIV SWAP1 JUMP JUMPDEST PUSH2 0x1985 PUSH2 0x195C JUMP JUMPDEST DIV SWAP1 JUMP JUMPDEST DUP2 ISZERO PUSH2 0x1993 JUMPI MOD SWAP1 JUMP JUMPDEST PUSH2 0x199B PUSH2 0x195C JUMP JUMPDEST MOD SWAP1 JUMP JUMPDEST SWAP2 PUSH1 0x0 NOT PUSH1 0x8 SWAP3 SWAP1 SWAP3 MUL SWAP2 DUP3 SHL SWAP2 SHL PUSH2 0xFFB JUMP JUMPDEST SWAP2 SWAP1 PUSH2 0x19C2 PUSH2 0x754 PUSH2 0x101C SWAP4 SWAP1 JUMP JUMPDEST SWAP1 DUP4 SLOAD PUSH2 0x199F JUMP JUMPDEST SWAP1 PUSH2 0x19F2 PUSH2 0x73E SWAP3 DUP1 SLOAD SWAP1 PUSH9 0x10000000000000000 DUP3 LT ISZERO PUSH2 0x19F8 JUMPI JUMPDEST PUSH1 0x1 DUP3 ADD DUP2 SSTORE PUSH2 0x93D JUMP JUMPDEST SWAP1 PUSH2 0x19B3 JUMP JUMPDEST PUSH2 0x1A00 PUSH2 0xE36 JUMP JUMPDEST PUSH2 0x19E7 JUMP JUMPDEST SWAP2 SWAP5 PUSH2 0x1A56 PUSH2 0x8F1 SWAP3 SWAP9 SWAP8 SWAP6 PUSH2 0x1A4F PUSH1 0xA0 SWAP7 PUSH2 0x1A48 PUSH2 0x73E SWAP11 PUSH2 0x1A38 PUSH1 0xC0 DUP11 ADD SWAP15 PUSH1 0x0 DUP12 ADD SWAP1 PUSH1 0x1 PUSH1 0x1 PUSH1 0xA0 SHL SUB AND SWAP1 MSTORE JUMP JUMPDEST PUSH1 0x1 PUSH1 0x1 PUSH1 0xA0 SHL SUB AND PUSH1 0x20 DUP10 ADD MSTORE JUMP JUMPDEST PUSH1 0x40 DUP8 ADD MSTORE JUMP JUMPDEST PUSH1 0x60 DUP6 ADD MSTORE JUMP JUMPDEST PUSH1 0x80 DUP4 ADD MSTORE JUMP JUMPDEST SWAP1 PUSH1 0x20 DUP3 ADD SWAP2 PUSH2 0x1A6C DUP4 PUSH2 0x18B1 JUMP JUMPDEST SWAP1 PUSH2 0x1A77 PUSH1 0x0 PUSH2 0x1423 JUMP JUMPDEST SWAP2 PUSH2 0x1A93 PUSH1 0x1 PUSH1 0x1 PUSH1 0xA0 SHL SUB DUP5 AND JUMPDEST SWAP2 PUSH1 0x1 PUSH1 0x1 PUSH1 0xA0 SHL SUB AND SWAP1 JUMP JUMPDEST EQ PUSH2 0x1E9F JUMPI PUSH1 0x60 DUP2 ADD SWAP4 PUSH2 0x1AA6 DUP6 PUSH2 0x18BB JUMP JUMPDEST PUSH2 0x1AB3 PUSH2 0x110A PUSH1 0x0 PUSH2 0xB3A JUMP JUMPDEST EQ PUSH2 0x1E82 JUMPI PUSH1 0x40 DUP3 ADD SWAP5 PUSH2 0x1AC6 DUP7 PUSH2 0x18B1 JUMP JUMPDEST PUSH2 0x1AD8 PUSH1 0x1 PUSH1 0x1 PUSH1 0xA0 SHL SUB DUP7 AND PUSH2 0x1A86 JUMP JUMPDEST EQ PUSH2 0x1E64 JUMPI PUSH2 0x1BE3 SWAP1 PUSH2 0x1AF5 PUSH2 0x1AF0 PUSH2 0x1AF0 DUP6 PUSH2 0x18B1 JUMP JUMPDEST PUSH2 0x7CE JUMP JUMPDEST SWAP1 PUSH4 0x70A08231 DUP5 DUP10 PUSH2 0x1B06 ADDRESS PUSH2 0x7CE JUMP JUMPDEST SWAP4 PUSH1 0x20 PUSH2 0x1B12 PUSH1 0x40 MLOAD SWAP1 JUMP JUMPDEST DUP1 SWAP8 PUSH2 0x1B1E DUP8 PUSH1 0xE0 SHL SWAP1 JUMP JUMPDEST DUP3 MSTORE PUSH1 0x1 PUSH1 0x1 PUSH1 0xA0 SHL SUB DUP9 AND PUSH1 0x4 DUP4 ADD MSTORE PUSH1 0x24 SWAP1 DUP3 SWAP1 GAS STATICCALL SWAP6 DUP7 ISZERO PUSH2 0x1E57 JUMPI JUMPDEST PUSH1 0x0 SWAP7 PUSH2 0x1E2F JUMPI JUMPDEST POP SWAP2 PUSH1 0x20 SWAP4 SWAP2 DUP6 PUSH2 0x1BC9 SWAP7 SWAP5 PUSH2 0x1B69 PUSH2 0x1B64 DUP14 PUSH2 0x120 DUP2 ADD SWAP1 PUSH2 0x1900 JUMP JUMPDEST SWAP1 POP SWAP1 JUMP JUMPDEST PUSH2 0x1B76 PUSH2 0x110A PUSH1 0x0 PUSH2 0xB3A JUMP JUMPDEST GT ISZERO PUSH2 0x1E09 JUMPI POP POP POP POP PUSH2 0x1B89 DUP9 PUSH2 0x242F JUMP JUMPDEST PUSH2 0x1BB2 PUSH2 0x1B9B PUSH2 0x1AF0 PUSH2 0x1AF0 DUP11 PUSH2 0x18B1 JUMP JUMPDEST SWAP2 PUSH2 0x1BA5 PUSH1 0x40 MLOAD SWAP1 JUMP JUMPDEST SWAP6 DUP7 SWAP5 DUP6 SWAP4 DUP5 SWAP4 PUSH1 0xE0 SHL SWAP1 JUMP JUMPDEST DUP4 MSTORE PUSH1 0x1 PUSH1 0x1 PUSH1 0xA0 SHL SUB AND PUSH1 0x4 DUP4 ADD MSTORE PUSH1 0x24 DUP3 ADD SWAP1 JUMP JUMPDEST SUB SWAP2 GAS STATICCALL SWAP1 DUP2 ISZERO PUSH2 0x1DFC JUMPI JUMPDEST PUSH1 0x0 SWAP2 PUSH2 0x1DDE JUMPI JUMPDEST POP PUSH2 0x1951 JUMP JUMPDEST SWAP2 PUSH1 0x0 SWAP5 PUSH1 0x1 JUMPDEST ISZERO PUSH2 0x1DBA JUMPI JUMPDEST PUSH2 0x1D65 PUSH1 0x0 SWAP7 DUP7 PUSH2 0x1C1B PUSH2 0x1C06 PUSH1 0xE0 DUP8 ADD PUSH2 0x18BB JUMP JUMPDEST PUSH2 0x129B PUSH2 0x1C15 PUSH1 0xC0 DUP10 ADD PUSH2 0x18BB JUMP JUMPDEST DUP6 PUSH2 0x1104 JUMP JUMPDEST DUP6 DUP12 PUSH2 0x1CDE DUP3 DUP11 DUP13 PUSH2 0x1C93 PUSH2 0x1C43 PUSH2 0x1C32 DUP6 PUSH2 0x18BB JUMP JUMPDEST DUP10 PUSH2 0x1C3C DUP7 PUSH2 0x18B1 JUMP JUMPDEST SWAP2 CALLER PUSH2 0x16FB JUMP JUMPDEST SWAP2 PUSH1 0xA0 PUSH2 0x1C54 PUSH2 0x754 DUP6 PUSH1 0x4 PUSH2 0x890 JUMP JUMPDEST SWAP9 ADD PUSH2 0x1C68 PUSH2 0x1C62 DUP3 PUSH2 0x18BB JUMP JUMPDEST DUP4 PUSH2 0x1973 JUMP JUMPDEST SWAP2 DUP13 PUSH2 0x1C77 PUSH2 0x110A PUSH1 0x0 PUSH2 0xB3A JUMP JUMPDEST PUSH1 0x0 SWAP2 EQ ISZERO PUSH2 0x1DAE JUMPI POP PUSH2 0x1C8D PUSH2 0x129B SWAP3 PUSH2 0x18BB JUMP JUMPDEST SWAP1 PUSH2 0x1989 JUMP JUMPDEST SWAP8 PUSH2 0x1CB5 PUSH2 0x1CAC DUP11 PUSH2 0x1CA7 PUSH1 0x1 DUP12 ADD PUSH2 0x89D JUMP JUMPDEST PUSH2 0x112E JUMP JUMPDEST PUSH1 0x1 DUP10 ADD PUSH2 0x14F8 JUMP JUMPDEST PUSH2 0x1CD1 PUSH2 0x1A86 PUSH2 0x1CC4 DUP10 PUSH2 0xC8C JUMP JUMPDEST SWAP3 PUSH1 0x1 PUSH1 0x1 PUSH1 0xA0 SHL SUB AND SWAP1 JUMP JUMPDEST EQ PUSH2 0x1D6B JUMPI JUMPDEST POP POP PUSH2 0x18BB JUMP JUMPDEST SWAP2 PUSH2 0x1CFD PUSH1 0x1 PUSH2 0x1CF6 PUSH2 0x1CF0 DUP14 PUSH2 0x18B1 JUMP JUMPDEST SWAP5 PUSH2 0x18B1 JUMP JUMPDEST SWAP3 ADD PUSH2 0x89D JUMP JUMPDEST SWAP2 PUSH2 0x1D5C DUP8 PUSH2 0x1D0E PUSH1 0x80 DUP14 ADD PUSH2 0x18BB JUMP JUMPDEST PUSH32 0x9350247AE5F8389ED8487DABA15BC7F2173887676A95759508E1844AAE0DFDC7 SWAP6 PUSH2 0x1D49 PUSH2 0x1D43 PUSH2 0x1D3F CALLER PUSH2 0x7CE JUMP JUMPDEST SWAP10 SWAP1 JUMP JUMPDEST SWAP10 PUSH2 0xB3A JUMP JUMPDEST SWAP10 PUSH2 0x1D53 PUSH1 0x40 MLOAD SWAP1 JUMP JUMPDEST SWAP7 DUP8 SWAP7 DUP8 PUSH2 0x1A05 JUMP JUMPDEST SUB SWAP1 LOG4 PUSH1 0x1 ADD SWAP1 JUMP JUMPDEST SWAP6 PUSH2 0x1BEA JUMP JUMPDEST PUSH2 0x1DA2 PUSH2 0x754 DUP4 PUSH2 0x1D87 PUSH2 0x1D81 PUSH2 0x1DA7 SWAP7 PUSH2 0x18B1 JUMP JUMPDEST DUP11 PUSH2 0x15B3 JUMP JUMPDEST PUSH2 0x1D9C DUP11 PUSH2 0x1D96 PUSH1 0x5 SWAP4 PUSH2 0x18B1 JUMP JUMPDEST CALLER PUSH2 0x174B JUMP JUMPDEST SWAP1 PUSH2 0x890 JUMP JUMPDEST PUSH2 0x19CA JUMP JUMPDEST DUP11 CODESIZE PUSH2 0x1CD7 JUMP JUMPDEST SWAP1 POP PUSH2 0x129B SWAP2 POP PUSH2 0xB3A JUMP JUMPDEST PUSH2 0x1DC9 PUSH2 0x754 PUSH1 0xA0 DUP5 ADD PUSH2 0x18BB JUMP JUMPDEST DUP7 LT ISZERO PUSH2 0x1DD5 JUMPI PUSH2 0x1BF0 JUMP JUMPDEST SWAP6 POP POP POP POP POP POP JUMP JUMPDEST PUSH2 0x1DF6 SWAP2 POP PUSH2 0x1DED RETURNDATASIZE DUP3 PUSH2 0xE4D JUMP JUMPDEST RETURNDATASIZE DUP2 ADD SWAP1 PUSH2 0x18D2 JUMP JUMPDEST CODESIZE PUSH2 0x1BDD JUMP JUMPDEST PUSH2 0x1E04 PUSH2 0x18F3 JUMP JUMPDEST PUSH2 0x1BD5 JUMP JUMPDEST PUSH2 0x1E24 PUSH2 0x1E1E PUSH2 0x1CF0 PUSH2 0x1AF0 PUSH2 0x1E2A SWAP8 PUSH2 0x18B1 JUMP JUMPDEST SWAP2 PUSH2 0x18BB JUMP JUMPDEST SWAP3 PUSH2 0x1F1B JUMP JUMPDEST PUSH2 0x1B89 JUMP JUMPDEST DUP6 PUSH2 0x1BC9 SWAP7 SWAP5 SWAP3 SWAP8 POP PUSH2 0x1E4A PUSH1 0x20 SWAP7 SWAP5 SWAP3 PUSH2 0x1DED RETURNDATASIZE DUP3 PUSH2 0xE4D JUMP JUMPDEST SWAP8 SWAP3 SWAP5 POP SWAP6 POP SWAP2 SWAP4 PUSH2 0x1B46 JUMP JUMPDEST PUSH2 0x1E5F PUSH2 0x18F3 JUMP JUMPDEST PUSH2 0x1B3E JUMP JUMPDEST POP POP POP POP POP POP PUSH2 0x1E73 PUSH1 0x40 MLOAD SWAP1 JUMP JUMPDEST PUSH4 0x7BC101AB PUSH1 0xE1 SHL DUP2 MSTORE PUSH1 0x4 SWAP1 REVERT JUMPDEST POP POP POP POP POP PUSH2 0x1E90 PUSH1 0x40 MLOAD SWAP1 JUMP JUMPDEST PUSH4 0x162908E3 PUSH1 0xE1 SHL DUP2 MSTORE PUSH1 0x4 SWAP1 REVERT JUMPDEST POP POP POP POP PUSH2 0x1EAC PUSH1 0x40 MLOAD SWAP1 JUMP JUMPDEST PUSH4 0xC1AB6DC1 PUSH1 0xE0 SHL DUP2 MSTORE PUSH1 0x4 SWAP1 REVERT JUMPDEST PUSH2 0x73E SWAP1 PUSH2 0x1891 JUMP JUMPDEST PUSH2 0x1EDD PUSH2 0x1ED7 PUSH2 0x754 SWAP3 PUSH4 0xFFFFFFFF AND SWAP1 JUMP JUMPDEST PUSH1 0xE0 SHL SWAP1 JUMP JUMPDEST PUSH1 0x1 PUSH1 0x1 PUSH1 0xE0 SHL SUB NOT AND SWAP1 JUMP JUMPDEST PUSH1 0x1 PUSH1 0x1 PUSH1 0xA0 SHL SUB SWAP1 SWAP2 AND DUP2 MSTORE PUSH1 0x60 DUP2 ADD SWAP4 SWAP3 PUSH2 0x73E SWAP3 SWAP1 SWAP2 PUSH1 0x40 SWAP2 PUSH2 0x8F1 SWAP1 JUMPDEST PUSH1 0x1 PUSH1 0x1 PUSH1 0xA0 SHL SUB AND PUSH1 0x20 DUP4 ADD MSTORE JUMP JUMPDEST SWAP1 PUSH2 0x1F60 SWAP1 PUSH2 0x1F51 PUSH2 0x73E SWAP6 PUSH1 0x4 SWAP6 PUSH2 0x1F37 PUSH4 0x23B872DD PUSH2 0x1EC4 JUMP JUMPDEST SWAP4 PUSH2 0x1F41 PUSH1 0x40 MLOAD SWAP1 JUMP JUMPDEST SWAP8 DUP9 SWAP6 PUSH1 0x20 DUP8 ADD SWAP1 DUP2 MSTORE ADD PUSH2 0x1EEA JUMP JUMPDEST PUSH1 0x20 DUP3 ADD DUP2 SUB DUP3 MSTORE SUB DUP4 PUSH2 0xE4D JUMP JUMPDEST PUSH2 0x2036 JUMP JUMPDEST PUSH2 0x1F6F PUSH1 0x20 PUSH2 0x117D JUMP JUMPDEST PUSH32 0x5361666545524332303A206C6F772D6C6576656C2063616C6C206661696C6564 PUSH1 0x20 DUP3 ADD MSTORE SWAP1 JUMP JUMPDEST PUSH2 0x754 PUSH2 0x1F65 JUMP JUMPDEST DUP1 ISZERO ISZERO PUSH2 0x729 JUMP JUMPDEST SWAP1 POP MLOAD SWAP1 PUSH2 0x73E DUP3 PUSH2 0x1FA0 JUMP JUMPDEST SWAP1 PUSH2 0x754 SWAP2 PUSH1 0x20 DUP2 DUP4 SUB SLT PUSH2 0x1FC9 JUMPI PUSH2 0x1FA8 JUMP JUMPDEST PUSH2 0x1FD1 PUSH2 0x717 JUMP JUMPDEST PUSH2 0x1FA8 JUMP JUMPDEST ISZERO PUSH2 0x1FDD JUMPI JUMP JUMPDEST POP PUSH1 0x40 MLOAD PUSH3 0x461BCD PUSH1 0xE5 SHL DUP2 MSTORE PUSH1 0x20 PUSH1 0x4 DUP3 ADD MSTORE PUSH1 0x2A PUSH1 0x24 DUP3 ADD MSTORE PUSH32 0x5361666545524332303A204552433230206F7065726174696F6E20646964206E PUSH1 0x44 DUP3 ADD MSTORE PUSH10 0x1BDD081CDD58D8D95959 PUSH1 0xB2 SHL PUSH1 0x64 DUP3 ADD MSTORE PUSH1 0x84 SWAP1 REVERT JUMPDEST PUSH2 0x73E SWAP2 PUSH2 0x2046 PUSH2 0x2055 SWAP3 PUSH2 0x7CE JUMP JUMPDEST SWAP1 PUSH2 0x204F PUSH2 0x1F98 JUMP JUMPDEST SWAP2 PUSH2 0x2093 JUMP JUMPDEST DUP1 MLOAD PUSH2 0x2064 PUSH2 0x110A PUSH1 0x0 PUSH2 0xB3A JUMP JUMPDEST EQ SWAP1 DUP2 ISZERO PUSH2 0x2073 JUMPI JUMPDEST POP PUSH2 0x1FD6 JUMP JUMPDEST PUSH2 0x208D SWAP2 POP PUSH1 0x20 PUSH2 0x2082 DUP3 MLOAD SWAP1 JUMP JUMPDEST DUP2 DUP4 ADD ADD SWAP2 ADD PUSH2 0x1FB5 JUMP JUMPDEST CODESIZE PUSH2 0x206D JUMP JUMPDEST PUSH2 0x754 SWAP3 SWAP2 PUSH2 0x20A2 PUSH1 0x0 PUSH2 0xB3A JUMP JUMPDEST SWAP2 PUSH2 0x2123 JUMP JUMPDEST ISZERO PUSH2 0x20AF JUMPI JUMP JUMPDEST POP PUSH1 0x40 MLOAD PUSH3 0x461BCD PUSH1 0xE5 SHL DUP2 MSTORE PUSH1 0x20 PUSH1 0x4 DUP3 ADD MSTORE PUSH1 0x26 PUSH1 0x24 DUP3 ADD MSTORE PUSH32 0x416464726573733A20696E73756666696369656E742062616C616E636520666F PUSH1 0x44 DUP3 ADD MSTORE PUSH6 0x1C8818D85B1B PUSH1 0xD2 SHL PUSH1 0x64 DUP3 ADD MSTORE PUSH1 0x84 SWAP1 REVERT JUMPDEST RETURNDATASIZE ISZERO PUSH2 0x211E JUMPI PUSH2 0x2113 RETURNDATASIZE PUSH2 0x117D JUMP JUMPDEST SWAP1 RETURNDATASIZE PUSH1 0x0 PUSH1 0x20 DUP5 ADD RETURNDATACOPY JUMP JUMPDEST PUSH1 0x60 SWAP1 JUMP JUMPDEST SWAP1 PUSH1 0x0 PUSH2 0x754 SWAP5 SWAP4 DUP2 SWAP3 PUSH2 0x2135 PUSH1 0x60 SWAP1 JUMP JUMPDEST POP PUSH2 0x214C PUSH2 0x2142 ADDRESS PUSH2 0x7CE JUMP JUMPDEST DUP4 SWAP1 BALANCE LT ISZERO PUSH2 0x20A8 JUMP JUMPDEST PUSH1 0x20 DUP2 ADD SWAP1 MLOAD SWAP2 DUP6 GAS CALL PUSH2 0x215E PUSH2 0x2104 JUMP JUMPDEST SWAP2 PUSH2 0x21B1 JUMP JUMPDEST ISZERO PUSH2 0x216B JUMPI JUMP JUMPDEST POP PUSH1 0x40 MLOAD PUSH3 0x461BCD PUSH1 0xE5 SHL DUP2 MSTORE PUSH1 0x20 PUSH1 0x4 DUP3 ADD MSTORE PUSH1 0x1D PUSH1 0x24 DUP3 ADD MSTORE PUSH32 0x416464726573733A2063616C6C20746F206E6F6E2D636F6E7472616374000000 PUSH1 0x44 DUP3 ADD MSTORE PUSH1 0x64 SWAP1 REVERT JUMPDEST SWAP2 SWAP3 PUSH1 0x60 SWAP2 ISZERO PUSH2 0x21E6 JUMPI POP POP DUP2 MLOAD PUSH2 0x21CC PUSH2 0x110A PUSH1 0x0 PUSH2 0xB3A JUMP JUMPDEST EQ PUSH2 0x21D5 JUMPI POP SWAP1 JUMP JUMPDEST PUSH2 0x21E1 PUSH2 0x754 SWAP2 PUSH2 0x21F3 JUMP JUMPDEST PUSH2 0x2164 JUMP JUMPDEST SWAP1 SWAP4 SWAP3 PUSH2 0x73E SWAP3 POP PUSH2 0x2205 JUMP JUMPDEST EXTCODESIZE PUSH2 0x2201 PUSH2 0x110A PUSH1 0x0 PUSH2 0xB3A JUMP JUMPDEST GT SWAP1 JUMP JUMPDEST SWAP2 POP PUSH2 0x220F DUP3 MLOAD SWAP1 JUMP JUMPDEST PUSH2 0x221C PUSH2 0x110A PUSH1 0x0 PUSH2 0xB3A JUMP JUMPDEST GT ISZERO PUSH2 0x222B JUMPI POP DUP1 MLOAD SWAP1 PUSH1 0x20 ADD REVERT JUMPDEST PUSH1 0x40 MLOAD PUSH2 0xF42 SWAP3 POP PUSH2 0xF2D JUMP JUMPDEST SWAP1 POP MLOAD SWAP1 PUSH2 0x73E DUP3 PUSH2 0x774 JUMP JUMPDEST PUSH6 0xFFFFFFFFFFFF DUP2 AND PUSH2 0x729 JUMP JUMPDEST SWAP1 POP MLOAD SWAP1 PUSH2 0x73E DUP3 PUSH2 0x2245 JUMP JUMPDEST SWAP1 SWAP2 PUSH1 0x60 DUP3 DUP5 SUB SLT PUSH2 0x2291 JUMPI JUMPDEST PUSH2 0x754 PUSH2 0x227A DUP5 DUP5 PUSH2 0x2238 JUMP JUMPDEST SWAP4 PUSH2 0x2288 DUP2 PUSH1 0x20 DUP7 ADD PUSH2 0x2253 JUMP JUMPDEST SWAP4 PUSH1 0x40 ADD PUSH2 0x2253 JUMP JUMPDEST PUSH2 0x2299 PUSH2 0x717 JUMP JUMPDEST PUSH2 0x226D JUMP JUMPDEST PUSH1 0x1 PUSH1 0x1 PUSH1 0xA0 SHL SUB SWAP1 SWAP2 AND DUP2 MSTORE PUSH1 0x60 DUP2 ADD SWAP4 SWAP3 PUSH2 0x73E SWAP3 SWAP1 SWAP2 PUSH1 0x40 SWAP2 PUSH2 0x22C3 SWAP1 PUSH2 0x1F0B JUMP JUMPDEST ADD SWAP1 PUSH1 0x1 PUSH1 0x1 PUSH1 0xA0 SHL SUB AND SWAP1 MSTORE JUMP JUMPDEST PUSH2 0x754 PUSH1 0x80 PUSH2 0x1142 JUMP JUMPDEST PUSH2 0x22E9 PUSH2 0x754 PUSH2 0x754 SWAP3 SWAP1 JUMP JUMPDEST PUSH6 0xFFFFFFFFFFFF AND SWAP1 JUMP JUMPDEST PUSH2 0x754 PUSH1 0x60 PUSH2 0x1142 JUMP JUMPDEST DUP1 MLOAD PUSH1 0x1 PUSH1 0x1 PUSH1 0xA0 SHL SUB AND DUP3 MSTORE PUSH2 0x73E SWAP2 SWAP1 PUSH1 0x60 SWAP1 DUP2 SWAP1 PUSH1 0x20 DUP2 DUP2 ADD MLOAD PUSH1 0x1 PUSH1 0x1 PUSH1 0xA0 SHL SUB AND SWAP1 DUP6 ADD MSTORE PUSH1 0x40 DUP2 DUP2 ADD MLOAD PUSH6 0xFFFFFFFFFFFF AND SWAP1 DUP6 ADD MSTORE ADD MLOAD PUSH6 0xFFFFFFFFFFFF AND SWAP2 ADD MSTORE JUMP JUMPDEST SWAP1 PUSH1 0xA0 PUSH1 0x40 PUSH2 0x73E SWAP4 PUSH2 0x2364 PUSH1 0x0 DUP3 ADD MLOAD PUSH1 0x0 DUP7 ADD SWAP1 PUSH2 0x22FE JUMP JUMPDEST PUSH1 0x20 DUP2 ADD MLOAD PUSH1 0x1 PUSH1 0x1 PUSH1 0xA0 SHL SUB AND PUSH1 0x80 DUP6 ADD MSTORE ADD MLOAD SWAP2 ADD MSTORE JUMP JUMPDEST SWAP1 DUP3 PUSH1 0x0 SWAP4 SWAP3 DUP3 CALLDATACOPY ADD MSTORE JUMP JUMPDEST SWAP2 SWAP1 PUSH2 0xE2C DUP2 PUSH2 0x23A1 DUP2 PUSH2 0xC0C SWAP6 PUSH1 0x20 SWAP2 DUP2 MSTORE ADD SWAP1 JUMP JUMPDEST DUP1 SWAP6 PUSH2 0x237E JUMP JUMPDEST PUSH2 0x23D8 PUSH2 0x754 SWAP6 SWAP4 SWAP5 SWAP3 SWAP5 PUSH2 0x23CE PUSH2 0x100 DUP5 ADD SWAP7 PUSH1 0x0 DUP6 ADD SWAP1 PUSH1 0x1 PUSH1 0x1 PUSH1 0xA0 SHL SUB AND SWAP1 MSTORE JUMP JUMPDEST PUSH1 0x20 DUP4 ADD SWAP1 PUSH2 0x2349 JUMP JUMPDEST PUSH1 0xE0 DUP2 DUP6 SUB SWAP2 ADD MSTORE PUSH2 0x238A JUMP JUMPDEST PUSH2 0x22C3 PUSH2 0x73E SWAP5 PUSH2 0x241F PUSH1 0x60 SWAP5 SWAP9 SWAP8 SWAP6 PUSH2 0x240F PUSH1 0x80 DUP7 ADD SWAP11 PUSH1 0x0 DUP8 ADD SWAP1 PUSH1 0x1 PUSH1 0x1 PUSH1 0xA0 SHL SUB AND SWAP1 MSTORE JUMP JUMPDEST PUSH1 0x1 PUSH1 0x1 PUSH1 0xA0 SHL SUB AND PUSH1 0x20 DUP6 ADD MSTORE JUMP JUMPDEST PUSH1 0x1 PUSH1 0x1 PUSH1 0xA0 SHL SUB AND PUSH1 0x40 DUP4 ADD MSTORE JUMP JUMPDEST PUSH2 0x243A PUSH2 0x1AF0 PUSH2 0xAD9 JUMP JUMPDEST PUSH4 0x927DA105 SWAP2 PUSH1 0x40 DUP2 ADD SWAP2 PUSH2 0x244E DUP4 PUSH2 0x18B1 JUMP JUMPDEST SWAP2 PUSH1 0x20 DUP2 ADD SWAP1 PUSH1 0x60 PUSH2 0x2485 PUSH2 0x2462 DUP5 PUSH2 0x18B1 JUMP JUMPDEST SWAP8 PUSH2 0x2490 PUSH2 0x246F ADDRESS PUSH2 0x7CE JUMP JUMPDEST DUP1 SWAP11 PUSH2 0x247A PUSH1 0x40 MLOAD SWAP1 JUMP JUMPDEST SWAP10 DUP11 SWAP6 DUP7 SWAP6 PUSH1 0xE0 SHL SWAP1 JUMP JUMPDEST DUP6 MSTORE PUSH1 0x4 DUP6 ADD PUSH2 0x229E JUMP JUMPDEST SUB DUP2 DUP7 GAS STATICCALL SWAP4 DUP5 ISZERO PUSH2 0x2689 JUMPI JUMPDEST PUSH1 0x0 SWAP5 PUSH2 0x2668 JUMPI JUMPDEST POP PUSH4 0x2B67B570 SWAP5 PUSH2 0x24B5 DUP2 PUSH2 0x18B1 JUMP JUMPDEST SWAP2 PUSH2 0x24BF DUP5 PUSH2 0x18B1 JUMP JUMPDEST SWAP1 PUSH1 0x60 DUP2 ADD SWAP7 PUSH2 0x24CE DUP9 PUSH2 0x18BB JUMP JUMPDEST PUSH2 0x24D7 SWAP1 PUSH2 0x26F3 JUMP JUMPDEST PUSH6 0xFFFFFFFFFFFF SWAP1 PUSH2 0x24E7 PUSH2 0x22D2 JUMP JUMPDEST PUSH1 0x1 PUSH1 0x1 PUSH1 0xA0 SHL SUB SWAP1 SWAP6 AND DUP6 MSTORE PUSH1 0x1 PUSH1 0x1 PUSH1 0xA0 SHL SUB AND PUSH1 0x20 DUP6 ADD MSTORE PUSH2 0x250B SWAP1 PUSH2 0x22DC JUMP JUMPDEST PUSH6 0xFFFFFFFFFFFF AND PUSH1 0x40 DUP5 ADD MSTORE PUSH6 0xFFFFFFFFFFFF AND PUSH1 0x60 DUP4 ADD MSTORE PUSH2 0x2532 PUSH2 0x100 DUP3 ADD PUSH2 0x18BB JUMP JUMPDEST PUSH2 0x253A PUSH2 0x22F4 JUMP JUMPDEST SWAP3 DUP4 MSTORE PUSH1 0x1 PUSH1 0x1 PUSH1 0xA0 SHL SUB DUP11 AND PUSH1 0x20 DUP5 ADD MSTORE PUSH1 0x40 DUP4 ADD MSTORE PUSH2 0x120 DUP2 ADD PUSH2 0x255F SWAP2 PUSH2 0x1900 JUMP JUMPDEST SWAP5 SWAP1 SWAP4 DUP7 EXTCODESIZE ISZERO PUSH2 0x258D PUSH1 0x0 SWAP11 PUSH2 0x2598 PUSH2 0x25EC SWAP10 DUP14 SWAP10 PUSH2 0x25F7 SWAP9 DUP12 SWAP7 PUSH2 0x265B JUMPI JUMPDEST PUSH1 0x40 MLOAD SWAP8 DUP9 SWAP7 DUP8 SWAP7 PUSH1 0xE0 SHL SWAP1 JUMP JUMPDEST DUP7 MSTORE PUSH1 0x4 DUP7 ADD PUSH2 0x23A8 JUMP JUMPDEST SUB DUP2 DUP4 DUP12 GAS CALL DUP1 ISZERO PUSH2 0x264E JUMPI JUMPDEST PUSH2 0x263A JUMPI JUMPDEST POP PUSH2 0x25D3 PUSH2 0x25CD PUSH2 0x25C8 PUSH2 0x25C2 PUSH4 0x36C78516 SWAP7 PUSH2 0x18B1 JUMP JUMPDEST SWAP10 PUSH2 0x18BB JUMP JUMPDEST PUSH2 0x26F3 JUMP JUMPDEST SWAP2 PUSH2 0x18B1 JUMP JUMPDEST SWAP1 DUP7 EXTCODESIZE ISZERO PUSH2 0x262D JUMPI JUMPDEST PUSH1 0x40 MLOAD SWAP10 DUP11 SWAP9 DUP10 SWAP8 DUP9 SWAP7 PUSH1 0xE0 SHL SWAP1 JUMP JUMPDEST DUP7 MSTORE PUSH1 0x4 DUP7 ADD PUSH2 0x23E5 JUMP JUMPDEST SUB SWAP3 GAS CALL DUP1 ISZERO PUSH2 0x2620 JUMPI JUMPDEST PUSH2 0x2609 JUMPI POP JUMP JUMPDEST PUSH2 0x73E SWAP1 PUSH2 0x2617 RETURNDATASIZE DUP3 PUSH2 0xE4D JUMP JUMPDEST RETURNDATASIZE DUP2 ADD SWAP1 PUSH2 0xA60 JUMP JUMPDEST PUSH2 0x2628 PUSH2 0x18F3 JUMP JUMPDEST PUSH2 0x2602 JUMP JUMPDEST PUSH2 0x2635 PUSH2 0x717 JUMP JUMPDEST PUSH2 0x25DC JUMP JUMPDEST PUSH2 0x2648 SWAP1 PUSH2 0x2617 RETURNDATASIZE DUP3 PUSH2 0xE4D JUMP JUMPDEST CODESIZE PUSH2 0x25AA JUMP JUMPDEST PUSH2 0x2656 PUSH2 0x18F3 JUMP JUMPDEST PUSH2 0x25A5 JUMP JUMPDEST PUSH2 0x2663 PUSH2 0x717 JUMP JUMPDEST PUSH2 0x257F JUMP JUMPDEST PUSH2 0x2681 SWAP2 SWAP5 POP PUSH2 0x2678 RETURNDATASIZE DUP3 PUSH2 0xE4D JUMP JUMPDEST RETURNDATASIZE DUP2 ADD SWAP1 PUSH2 0x2260 JUMP JUMPDEST SWAP5 SWAP2 POP PUSH2 0x24A5 JUMP JUMPDEST PUSH2 0x2691 PUSH2 0x18F3 JUMP JUMPDEST PUSH2 0x249D JUMP JUMPDEST ISZERO PUSH2 0x269D JUMPI JUMP JUMPDEST POP PUSH1 0x40 MLOAD PUSH3 0x461BCD PUSH1 0xE5 SHL DUP2 MSTORE PUSH1 0x20 PUSH1 0x4 DUP3 ADD MSTORE PUSH1 0x27 PUSH1 0x24 DUP3 ADD MSTORE PUSH32 0x53616665436173743A2076616C756520646F65736E27742066697420696E2031 PUSH1 0x44 DUP3 ADD MSTORE PUSH7 0x36302062697473 PUSH1 0xC8 SHL PUSH1 0x64 DUP3 ADD MSTORE PUSH1 0x84 SWAP1 REVERT JUMPDEST PUSH2 0x754 SWAP1 PUSH2 0x2712 PUSH2 0x270A PUSH1 0x1 PUSH1 0x1 PUSH1 0xA0 SHL SUB PUSH2 0x13A9 JUMP JUMPDEST DUP3 GT ISZERO PUSH2 0x2696 JUMP JUMPDEST PUSH2 0x1416 JUMP JUMPDEST PUSH1 0x1 PUSH1 0x1 PUSH1 0xA0 SHL SUB SWAP1 SWAP2 AND DUP2 MSTORE PUSH1 0x40 DUP2 ADD SWAP3 SWAP2 PUSH2 0x73E SWAP2 PUSH1 0x20 SWAP1 PUSH2 0x22C3 JUMP JUMPDEST CALLER SWAP1 PUSH2 0x274C DUP2 PUSH2 0x2747 DUP5 PUSH1 0x7 PUSH2 0x7D7 JUMP JUMPDEST PUSH2 0x15B3 JUMP JUMPDEST PUSH32 0xBBD6EB1E2586CC8EA8E80AA1CCF25590BEFFDD2CB73367B5AC49214505BB48C4 SWAP2 PUSH2 0x156E PUSH2 0x277A PUSH1 0x40 MLOAD SWAP1 JUMP JUMPDEST SWAP3 DUP4 SWAP3 DUP4 PUSH2 0x2717 JUMP JUMPDEST SWAP1 PUSH2 0x73E SWAP2 PUSH2 0x2793 PUSH2 0xD4E PUSH2 0xB5B JUMP JUMPDEST PUSH2 0x27C8 JUMP JUMPDEST SWAP2 PUSH1 0x20 SWAP2 DUP2 LT ISZERO PUSH2 0x27A8 JUMPI MUL ADD SWAP1 JUMP JUMPDEST PUSH2 0x27B0 PUSH2 0x926 JUMP JUMPDEST MUL ADD SWAP1 JUMP JUMPDEST SWAP1 DUP2 MSTORE PUSH1 0x40 DUP2 ADD SWAP3 SWAP2 PUSH2 0x73E SWAP2 PUSH1 0x20 ADD MSTORE JUMP JUMPDEST SWAP1 DUP1 SWAP2 PUSH1 0x0 SWAP4 PUSH2 0x27D7 DUP6 PUSH2 0xB3A JUMP JUMPDEST DUP5 EQ PUSH2 0x2A92 JUMPI PUSH1 0x0 JUMPDEST DUP5 JUMPDEST DUP2 LT ISZERO PUSH2 0x2A8A JUMPI PUSH2 0x27FC PUSH2 0x27F7 DUP3 DUP7 DUP7 PUSH2 0x2798 JUMP JUMPDEST PUSH2 0x18BB JUMP JUMPDEST PUSH1 0x5 SWAP1 PUSH2 0x2810 PUSH2 0x280C DUP3 DUP5 PUSH2 0x890 JUMP JUMPDEST SLOAD SWAP1 JUMP JUMPDEST PUSH2 0x281C PUSH2 0x110A DUP11 PUSH2 0xB3A JUMP JUMPDEST EQ PUSH2 0x2A6A JUMPI PUSH2 0x282F PUSH2 0x754 DUP3 PUSH1 0x6 PUSH2 0x890 JUMP JUMPDEST SWAP1 PUSH2 0x285B DUP10 PUSH2 0x2855 PUSH2 0x284F PUSH2 0x9BB DUP4 PUSH2 0x284A DUP8 PUSH1 0x4 SWAP11 PUSH2 0x890 JUMP JUMPDEST PUSH2 0x93D JUMP JUMPDEST DUP7 PUSH2 0x890 JUMP JUMPDEST ADD PUSH2 0xC8C JUMP JUMPDEST SWAP2 PUSH2 0x2865 DUP3 PUSH2 0x2AFA JUMP JUMPDEST SWAP1 SWAP5 PUSH1 0x1 DUP4 ADD SWAP2 PUSH2 0x2875 DUP4 PUSH2 0x89D JUMP JUMPDEST DUP2 EQ PUSH2 0x2A3E JUMPI PUSH1 0x2 PUSH2 0x299F DUP9 DUP16 PUSH2 0x2A04 SWAP11 SWAP9 SWAP7 DUP9 SWAP7 PUSH2 0x28D1 PUSH2 0x29B4 SWAP8 PUSH2 0x27E2 SWAP16 SWAP14 SWAP12 SWAP5 PUSH2 0x291F SWAP6 ADD SWAP4 PUSH2 0x28CC PUSH2 0x28B3 PUSH2 0x28AD DUP8 PUSH2 0x89D JUMP JUMPDEST DUP10 PUSH2 0x1951 JUMP JUMPDEST SWAP8 PUSH2 0x28C6 PUSH2 0x28C0 DUP5 PUSH2 0x89D JUMP JUMPDEST DUP6 PUSH2 0x1951 JUMP JUMPDEST SWAP7 PUSH2 0x14F8 JUMP JUMPDEST PUSH2 0x14F8 JUMP JUMPDEST PUSH2 0x28DA DUP11 PUSH2 0x7CE JUMP JUMPDEST SWAP2 PUSH2 0x28E4 DUP4 PUSH2 0x7CE JUMP JUMPDEST SWAP1 PUSH4 0x70A08231 SWAP4 PUSH1 0x20 PUSH2 0x28F7 PUSH1 0x3 PUSH2 0xC8C JUMP JUMPDEST PUSH1 0x40 MLOAD DUP1 SWAP9 DUP2 SWAP3 PUSH2 0x2908 DUP11 PUSH1 0xE0 SHL SWAP1 JUMP JUMPDEST DUP4 MSTORE PUSH1 0x1 PUSH1 0x1 PUSH1 0xA0 SHL SUB AND DUP9 DUP4 ADD SWAP1 DUP2 MSTORE PUSH1 0x20 ADD SWAP1 JUMP JUMPDEST SUB DUP2 DUP7 GAS STATICCALL SWAP6 DUP7 ISZERO PUSH2 0x2A31 JUMPI JUMPDEST PUSH1 0x0 SWAP7 PUSH2 0x2A0B JUMPI JUMPDEST POP SWAP1 PUSH2 0x2961 SWAP2 PUSH2 0x2951 PUSH1 0x20 SWAP7 SWAP8 SWAP9 PUSH2 0x294B DUP13 PUSH2 0xC8C JUMP JUMPDEST DUP4 PUSH2 0x2AB9 JUMP JUMPDEST PUSH2 0x295B PUSH1 0x3 PUSH2 0xC8C JUMP JUMPDEST SWAP1 PUSH2 0x2AB9 JUMP JUMPDEST PUSH2 0x2988 PUSH2 0x296E PUSH1 0x3 PUSH2 0xC8C JUMP JUMPDEST SWAP5 PUSH2 0x1BC9 PUSH2 0x297B PUSH1 0x40 MLOAD SWAP1 JUMP JUMPDEST SWAP7 DUP8 SWAP6 DUP7 SWAP5 DUP6 SWAP5 PUSH1 0xE0 SHL SWAP1 JUMP JUMPDEST DUP5 MSTORE DUP4 ADD PUSH1 0x1 PUSH1 0x1 PUSH1 0xA0 SHL SUB SWAP1 SWAP2 AND DUP2 MSTORE PUSH1 0x20 ADD SWAP1 JUMP JUMPDEST SWAP3 ADD PUSH2 0x29AE DUP4 PUSH2 0x1CA7 DUP4 PUSH2 0x89D JUMP JUMPDEST SWAP1 PUSH2 0x14F8 JUMP JUMPDEST PUSH2 0x29E5 PUSH2 0x29DF PUSH32 0xB14BADDC4B3D8807F1D5DFE595F14ED9E87FCDB8D45909968B5A64F952E399FD SWAP4 SWAP1 JUMP JUMPDEST SWAP4 PUSH2 0x7CE JUMP JUMPDEST SWAP4 PUSH2 0x29FB PUSH2 0x29F2 PUSH1 0x40 MLOAD SWAP1 JUMP JUMPDEST SWAP3 DUP4 SWAP3 DUP4 PUSH2 0x27B5 JUMP JUMPDEST SUB SWAP1 LOG3 PUSH1 0x1 ADD SWAP1 JUMP JUMPDEST SWAP1 POP PUSH2 0x27E0 JUMP JUMPDEST PUSH1 0x20 SWAP6 SWAP7 POP SWAP1 PUSH2 0x2951 PUSH2 0x2A26 PUSH2 0x2961 SWAP5 SWAP4 PUSH2 0x1DED RETURNDATASIZE DUP3 PUSH2 0xE4D JUMP JUMPDEST SWAP8 SWAP7 POP POP SWAP1 SWAP2 PUSH2 0x2934 JUMP JUMPDEST PUSH2 0x2A39 PUSH2 0x18F3 JUMP JUMPDEST PUSH2 0x292C JUMP JUMPDEST POP SWAP10 POP POP POP POP POP POP POP POP POP POP PUSH2 0xF42 SWAP2 POP PUSH2 0x2A58 PUSH1 0x40 MLOAD SWAP1 JUMP JUMPDEST PUSH4 0x6E997D67 PUSH1 0xE1 SHL DUP2 MSTORE SWAP2 DUP3 SWAP2 DUP3 ADD SWAP1 JUMP JUMPDEST POP POP POP POP POP POP POP POP PUSH2 0x2A7B PUSH1 0x40 MLOAD SWAP1 JUMP JUMPDEST PUSH4 0x7E1FAE3 PUSH1 0xE3 SHL DUP2 MSTORE PUSH1 0x4 SWAP1 REVERT JUMPDEST POP SWAP4 POP POP POP POP JUMP JUMPDEST POP POP POP POP POP PUSH2 0x2AA0 PUSH1 0x40 MLOAD SWAP1 JUMP JUMPDEST PUSH4 0x1EC5AA51 PUSH1 0xE0 SHL DUP2 MSTORE PUSH1 0x4 SWAP1 REVERT JUMPDEST SWAP1 PUSH2 0x73E SWAP2 PUSH2 0x2783 JUMP JUMPDEST PUSH2 0x1F60 PUSH1 0x4 SWAP3 PUSH2 0x1F51 PUSH2 0x73E SWAP6 PUSH2 0x2AD3 PUSH4 0xA9059CBB PUSH2 0x1EC4 JUMP JUMPDEST SWAP3 PUSH2 0x2ADD PUSH1 0x40 MLOAD SWAP1 JUMP JUMPDEST SWAP7 DUP8 SWAP5 PUSH1 0x20 DUP7 ADD SWAP1 DUP2 MSTORE ADD PUSH2 0x9C8 JUMP JUMPDEST SWAP1 PUSH1 0x20 DUP1 SWAP2 PUSH2 0x11CA DUP5 MLOAD SWAP1 JUMP JUMPDEST PUSH2 0x2B0A PUSH2 0x188C PUSH1 0x0 SWAP3 PUSH1 0x5 PUSH2 0x890 JUMP JUMPDEST DUP2 SWAP3 PUSH2 0x2B14 DUP3 MLOAD SWAP1 JUMP JUMPDEST SWAP3 SWAP4 JUMPDEST DUP4 JUMPDEST DUP6 LT ISZERO PUSH2 0x2B54 JUMPI PUSH2 0x2B4C PUSH2 0x2B45 PUSH2 0x2B19 SWAP3 PUSH2 0x129B PUSH1 0x1 PUSH2 0xD37 PUSH1 0x4 PUSH2 0x1D9C PUSH2 0x2B41 DUP14 DUP13 PUSH2 0x2AED JUMP JUMPDEST MLOAD SWAP1 JUMP JUMPDEST SWAP6 PUSH1 0x1 ADD SWAP1 JUMP JUMPDEST SWAP5 SWAP1 POP PUSH2 0x2B17 JUMP JUMPDEST SWAP4 POP SWAP2 POP POP PUSH2 0x754 PUSH2 0x2B7A PUSH2 0x2B6C PUSH2 0x1C15 PUSH1 0x1 PUSH2 0x89D JUMP JUMPDEST PUSH2 0x2B74 PUSH2 0xB47 JUMP JUMPDEST SWAP1 PUSH2 0x1973 JUMP JUMPDEST DUP1 SWAP4 PUSH2 0x1951 JUMP JUMPDEST SWAP1 PUSH2 0x73E SWAP2 PUSH2 0x2B91 PUSH2 0xD4E PUSH2 0xB5B JUMP JUMPDEST PUSH2 0x2BAB JUMP JUMPDEST SWAP1 DUP2 MSTORE PUSH1 0x40 DUP2 ADD SWAP3 SWAP2 PUSH2 0x73E SWAP2 PUSH1 0x20 SWAP1 PUSH2 0x22C3 JUMP JUMPDEST PUSH1 0x0 PUSH2 0x2BB9 PUSH2 0x768 DUP3 PUSH2 0x1423 JUMP JUMPDEST PUSH1 0x1 PUSH1 0x1 PUSH1 0xA0 SHL SUB DUP4 AND EQ PUSH2 0x1E9F JUMPI PUSH2 0x2BD1 SWAP1 PUSH2 0xB3A JUMP JUMPDEST DUP3 EQ PUSH2 0x2C31 JUMPI PUSH2 0x2BE0 DUP2 PUSH2 0x7CE JUMP JUMPDEST PUSH2 0x2BEC DUP4 CALLER DUP1 SWAP4 PUSH2 0x2AB9 JUMP JUMPDEST PUSH2 0x2C16 PUSH32 0x3AB9DB27A4CDD8C603A752B62D5FBD93B4B3509FE2596708E9688E42BBAC3576 SWAP3 PUSH2 0x7CE JUMP JUMPDEST SWAP3 PUSH2 0x2C2C PUSH2 0x2C23 PUSH1 0x40 MLOAD SWAP1 JUMP JUMPDEST SWAP3 DUP4 SWAP3 DUP4 PUSH2 0x2B96 JUMP JUMPDEST SUB SWAP1 LOG2 JUMP JUMPDEST POP POP POP PUSH2 0x1E90 PUSH1 0x40 MLOAD SWAP1 JUMP JUMPDEST SWAP1 PUSH2 0x73E SWAP2 PUSH2 0x2B81 JUMP INVALID DUP16 0x4F 0x2D LOG2 0x2E DUP11 0xC8 CALL 0x1E ISZERO 0xF9 0xFC EQ SHR 0xDD 0xBB 0x5D 0xEE 0xA8 DUP1 ADD DUP7 JUMP EXP 0xBB PUSH15 0x68C5496619A9A36469706673582212 KECCAK256 SHR 0xE3 XOR 0xEA 0xCC STATICCALL PUSH11 0xF2BED5640C13F2AFB68735 CALLDATACOPY PUSH31 0x329B38AB9D38BD1BEADC29EF6C6578706572696D656E74616CF564736F6C63 NUMBER STOP ADDMOD 0xC STOP COINBASE "},"methodIdentifiers":{"DEFAULT_ADMIN_ROLE()":"a217fddf","DEPOSITOR_ROLE()":"a3b0b5a3","FEE_DIVISOR()":"9e93ad8e","FEE_MAX()":"c2624e1e","PERMIT2()":"6afdd850","bribes(bytes32)":"edcdab77","depositBribe((bytes32,address,address,uint256,uint256,uint256,uint256,uint256,uint256,bytes))":"5c2a802b","distributor()":"bfe10928","emergencyWithdraw(address,uint256)":"95ccea67","fee()":"ddca3f43","feeRecipient()":"46904840","generateBribeVaultIdentifier(address,bytes32,uint256,address)":"429c8910","generateRewardIdentifier(address,address,uint256)":"1aea69ca","getBribe(bytes32)":"2c4ef0d5","getBribeIdentifiersByRewardIdentifier(bytes32)":"cc6c9388","getRoleAdmin(bytes32)":"248a9ca3","grantDepositorRole(address)":"172becff","grantRole(bytes32,address)":"2f2ff15d","hasRole(bytes32,address)":"91d14854","renounceRole(bytes32,address)":"36568abe","revokeDepositorRole(address)":"e8fa2948","revokeRole(bytes32,address)":"d547741f","rewardForwarding(address)":"07cd2ffe","rewardToBribes(bytes32,uint256)":"28b16a3f","rewardTransfers(bytes32)":"1da08b87","setDistributor(address)":"75619ab5","setFee(uint256)":"69fe0e2d","setFeeRecipient(address)":"e74b981b","setRewardForwarding(address)":"f96258c4","supportsInterface(bytes4)":"01ffc9a7","transferBribes(bytes32[])":"b2d7edb2"}}}}}