{"contracts/BribeFactory.sol":{"BribeFactory":{"abi":[{"inputs":[{"internalType":"address","name":"_implementation","type":"address"},{"internalType":"address","name":"_bribeVault","type":"address"}],"stateMutability":"nonpayable","type":"constructor"},{"inputs":[],"name":"InvalidMaxPeriod","type":"error"},{"inputs":[],"name":"InvalidPeriodDuration","type":"error"},{"inputs":[],"name":"NotAContract","type":"error"},{"anonymous":false,"inputs":[{"indexed":true,"internalType":"address","name":"bribeMarket","type":"address"}],"name":"BribeMarketCreated","type":"event"},{"anonymous":false,"inputs":[{"indexed":true,"internalType":"address","name":"bribeMarketImplementation","type":"address"}],"name":"BribeMarketImplementationUpdated","type":"event"},{"anonymous":false,"inputs":[{"indexed":true,"internalType":"address","name":"bribeVault","type":"address"}],"name":"BribeVaultUpdated","type":"event"},{"anonymous":false,"inputs":[{"indexed":true,"internalType":"address","name":"previousOwner","type":"address"},{"indexed":true,"internalType":"address","name":"newOwner","type":"address"}],"name":"OwnershipTransferStarted","type":"event"},{"anonymous":false,"inputs":[{"indexed":true,"internalType":"address","name":"previousOwner","type":"address"},{"indexed":true,"internalType":"address","name":"newOwner","type":"address"}],"name":"OwnershipTransferred","type":"event"},{"inputs":[],"name":"MAX_PERIODS","outputs":[{"internalType":"uint256","name":"","type":"uint256"}],"stateMutability":"view","type":"function"},{"inputs":[],"name":"MAX_PERIOD_DURATION","outputs":[{"internalType":"uint256","name":"","type":"uint256"}],"stateMutability":"view","type":"function"},{"inputs":[],"name":"acceptOwnership","outputs":[],"stateMutability":"nonpayable","type":"function"},{"inputs":[],"name":"bribeMarketImplementation","outputs":[{"internalType":"address","name":"","type":"address"}],"stateMutability":"view","type":"function"},{"inputs":[],"name":"bribeVault","outputs":[{"internalType":"address","name":"","type":"address"}],"stateMutability":"view","type":"function"},{"inputs":[{"internalType":"string","name":"_protocol","type":"string"},{"internalType":"uint256","name":"_maxPeriods","type":"uint256"},{"internalType":"uint256","name":"_periodDuration","type":"uint256"}],"name":"createBribeMarket","outputs":[{"internalType":"address","name":"","type":"address"}],"stateMutability":"nonpayable","type":"function"},{"inputs":[],"name":"owner","outputs":[{"internalType":"address","name":"","type":"address"}],"stateMutability":"view","type":"function"},{"inputs":[],"name":"pendingOwner","outputs":[{"internalType":"address","name":"","type":"address"}],"stateMutability":"view","type":"function"},{"inputs":[],"name":"renounceOwnership","outputs":[],"stateMutability":"nonpayable","type":"function"},{"inputs":[{"internalType":"address","name":"_implementation","type":"address"}],"name":"setBribeMarketImplementation","outputs":[],"stateMutability":"nonpayable","type":"function"},{"inputs":[{"internalType":"address","name":"_bribeVault","type":"address"}],"name":"setBribeVault","outputs":[],"stateMutability":"nonpayable","type":"function"},{"inputs":[{"internalType":"address","name":"newOwner","type":"address"}],"name":"transferOwnership","outputs":[],"stateMutability":"nonpayable","type":"function"}],"evm":{"bytecode":{"linkReferences":{},"object":"60806040523462000032575b620000206200001962000113565b906200013a565b604051610c1c620003508239610c1c90f35b6200003c62000042565b6200000b565b50600080fd5b50634e487b7160e01b600052604160045260246000fd5b90601f01601f191681019081106001600160401b038211176200008157604052565b6200008b62000048565b604052565b90620000a76200009f60405190565b92836200005f565b565b6001600160a01b031690565b90565b6001600160a01b03811614156200004257565b90505190620000a782620000b8565b9190620000b59060408482031262000103575b620000f98185620000cb565b93602001620000cb565b6200010d62000042565b620000ed565b6200013662000f6c803803806200012a8162000090565b928339810190620000da565b9091565b9062000154620000a7926200014e6200015a565b620002f7565b62000344565b620000a78033620001e1565b916001600160a01b0360089290920291821b911b5b9181191691161790565b620000b590620000a9906001600160a01b031682565b620000b59062000185565b620000b5906200019b565b9190620001c6620000b5620001cf93620001a6565b90835462000166565b9055565b620000a791600091620001b1565b620000a790620001f460006001620001d3565b6200023d565b620000b590620000a9565b620000b59054620001fa565b906001600160a01b03906200017b565b9062000235620000b5620001cf92620001a6565b825462000211565b62000249600062000205565b906200025781600062000221565b6200028e620002877f8be0079c531659141344cd1fd0a4f28419497f9722a3daafe3b4186f6b6457e093620001a6565b91620001a6565b916200029960405190565b600090a3565b620000b5620000b5620000b59290565b803b620002c5620002c160006200029f565b9190565b14620002d657620000a790620002ea565b50506040516309ee12d560e01b8152600490fd5b620000a790600262000221565b620000a790620002af565b803b62000314620002c160006200029f565b14620002d657620000a790803b62000331620002c160006200029f565b14620002d657620000a790600362000221565b620000a7906200030256fe60806040526004361015610018575b6100166102b2565b005b60003560e01c80630a25464014610288578063152bb06d146102615780631a00ab3314610237578063715018a614610210578063742a6c43146101e257806379ba5097146101bb5780637fb84bed14610181578063833d657e146101575780638da5cb5b1461012d578063a8f6902314610106578063e30c3978146100d05763f2fde38b146100a65761000e565b346100c3575b6100166100ba36600461031d565b610609565b0390f35b6100cb6102b2565b6100ac565b50346100f9575b6100e23660046102b8565b6100bf6100ed610541565b60405191829182610372565b6101016102b2565b6100d7565b5034610120575b61001661011b36600461031d565b610afe565b6101286102b2565b61010d565b503461014a575b61013f3660046102b8565b6100bf6100ed610471565b6101526102b2565b610134565b5034610174575b6101693660046102b8565b6100bf6100ed610452565b61017c6102b2565b61015e565b50346101ae575b6101933660046102b8565b6100bf61019e61044a565b6040519182918290815260200190565b6101b66102b2565b610188565b50346101d5575b6101cd3660046102b8565b61001661070d565b6101dd6102b2565b6101c2565b5034610203575b6100bf6100ed6101fa3660046103de565b92919091610800565b61020b6102b2565b6101e9565b503461022a575b6102223660046102b8565b6100166104b3565b6102326102b2565b610217565b5034610254575b6102493660046102b8565b6100bf6100ed61035d565b61025c6102b2565b61023e565b503461027b575b61001661027636600461031d565b610b46565b6102836102b2565b610268565b50346102a5575b61029a3660046102b8565b6100bf61019e6102e7565b6102ad6102b2565b61028f565b50600080fd5b60009103126102c357565b6102cb6102b2565b565b6102da6102da6102da9290565b90565b6102da600a6102cd565b6102da6102dd565b9052565b6001600160a01b031690565b610308816102f3565b14156102b257565b905035906102cb826102ff565b906102da9160208183031261033157610310565b6103396102b2565b610310565b6102da916008021c6001600160a01b031690565b906102da915461033e565b6102da60006002610352565b6102ef906102f3565b6020810192916102cb9190610369565b909182601f830112156103be575b602082359267ffffffffffffffff84116103b1575b0192828401116102c357565b6103b96102b2565b6103a5565b6103c66102b2565b610390565b80610308565b905035906102cb826103cb565b6102da9192606082850312610431575b61040b84833567ffffffffffffffff8111610424575b8401610382565b93909461041b81602086016103d1565b936040016103d1565b61042c6102b2565b610404565b6104396102b2565b6103ee565b6102da62278d006102cd565b6102da61043e565b6102da60006003610352565b6102da906102f3565b6102da905461045e565b6102da6000610467565b610483610519565b6102cb6104a1565b6102f36102da6102da9290565b6102da9061048b565b6102cb6104ae6000610498565b610650565b6102cb61047b565b0190565b6020808252818101527f4f776e61626c653a2063616c6c6572206973206e6f7420746865206f776e6572604082015260600190565b156104fb57565b5060405162461bcd60e51b815280610515600482016104bf565b0390fd5b6102cb610524610471565b61053b610535336102f3565b6102f3565b916102f3565b146104f4565b6102da6001610467565b6102cb90610557610519565b6105b2565b906001600160a01b03905b9181191691161790565b6102da906102f3906001600160a01b031682565b6102da90610571565b6102da90610585565b906105a76102da6105ae9261058e565b825461055c565b9055565b6105bd816001610597565b6105c5610471565b906105f96105f37f38d16b8cac22d99fc7c124b9cd0de2d3fa1faef420bfe791d8c362d765e227009361058e565b9161058e565b9161060360405190565b600090a3565b6102cb9061054b565b916001600160a01b0360089290920291821b911b610567565b919061063c6102da6105ae9361058e565b908354610612565b6102cb9160009161062b565b6102cb9061066060006001610644565b61066a6000610467565b90610676816000610597565b6105f96105f37f8be0079c531659141344cd1fd0a4f28419497f9722a3daafe3b4186f6b6457e09361058e565b60208082526029908201527f4f776e61626c6532537465703a2063616c6c6572206973206e6f7420746865206040820152683732bb9037bbb732b960b91b606082015260800190565b156106f357565b5060405162461bcd60e51b815280610515600482016106a3565b6102cb336104ae61071c610541565b610728610535846102f3565b146106ec565b50634e487b7160e01b600052604160045260246000fd5b90601f01601f1916810190811067ffffffffffffffff82111761076757604052565b61076f61072e565b604052565b90826000939282370152565b919061079e81610797816104bb9560209181520190565b8095610774565b601f01601f191690565b916107ef916102cb969897956080956107da6107e7946107d060a089019560008a0190610369565b6020880190610369565b8583036040870152610780565b966060830152565b0152565b506040513d6000823e3d90fd5b91929091600091610810836102cd565b851480156109e8575b6109ca57610826836102cd565b811480156109b7575b610999576108d69383916108908361084f61084a6002610467565b610a4c565b9861089b61086461085f8c61058e565b61058e565b94638d23507f926108756003610467565b97339a883b1561098c575b6040519b8c9a8b998a9860e01b90565b8852600488016107a8565b03925af1801561097f575b61096b575b506108bc61085f61085f6003610467565b63172becff90803b1561095e575b60405193849260e01b90565b82528183816108e88860048301610372565b03925af18015610951575b610934575b507fc079bf405ebc76ac163f8dab16cc2e0570562f5b2d7cb957c69d4bf1f8d22fe86109238261058e565b9061092d60405190565b600090a290565b61094b906109423d82610745565b3d8101906102b8565b386108f8565b6109596107f3565b6108f3565b6109666102b2565b6108ca565b610979906109423d82610745565b386108ab565b6109876107f3565b6108a6565b6109946102b2565b610880565b5050505050506109a860405190565b634f08daf360e11b8152600490fd5b506109c36102da61043e565b811161082f565b5050505050506109d960405190565b63c17d8a0360e01b8152600490fd5b506109f46102da6102dd565b8511610819565b602080825260169082015275115490cc4c4d8dce8818dc99585d194819985a5b195960521b604082015260600190565b15610a3257565b5060405162461bcd60e51b815280610515600482016109fb565b6e5af43d82803e903d91602b57fd5bf390763d602d80600a3d3981f3363d3d373d3d3d363d730000008160601b60e81c1760005260781b17602052603760096000f0906102cb610a9f6105306000610498565b610aa8846102f3565b1415610a2b565b6102cb90610abb610519565b610ac481610b8f565b610aee7f2f64067393bb7145c8b43796303f94efd9c3c4633a970158de88b74aaae198e19161058e565b90610af860405190565b600090a2565b6102cb90610aaf565b6102cb90610b13610519565b610b1c81610bcf565b610aee7f8bd91d825017fca95e546ffcdf4ff56d37b0d717a6e77e5b472174db55250a809161058e565b6102cb90610b07565b803b610b62610b5e60006102cd565b9190565b14610b70576102cb90610b84565b50506040516309ee12d560e01b8152600490fd5b6102cb906002610597565b6102cb90610b4f565b803b610ba7610b5e60006102cd565b14610b70576102cb90803b610bbf610b5e60006102cd565b14610b70576102cb906003610597565b6102cb90610b9856fea36469706673582212205fa88e84ebf9137556a2ba8c506f504229f602bf875b0987350cfa2616052b6b6c6578706572696d656e74616cf564736f6c634300080c0041","opcodes":"PUSH1 0x80 PUSH1 0x40 MSTORE CALLVALUE PUSH3 0x32 JUMPI JUMPDEST PUSH3 0x20 PUSH3 0x19 PUSH3 0x113 JUMP JUMPDEST SWAP1 PUSH3 0x13A JUMP JUMPDEST PUSH1 0x40 MLOAD PUSH2 0xC1C PUSH3 0x350 DUP3 CODECOPY PUSH2 0xC1C SWAP1 RETURN JUMPDEST PUSH3 0x3C PUSH3 0x42 JUMP JUMPDEST PUSH3 0xB JUMP JUMPDEST POP PUSH1 0x0 DUP1 REVERT JUMPDEST POP PUSH4 0x4E487B71 PUSH1 0xE0 SHL PUSH1 0x0 MSTORE PUSH1 0x41 PUSH1 0x4 MSTORE PUSH1 0x24 PUSH1 0x0 REVERT JUMPDEST SWAP1 PUSH1 0x1F ADD PUSH1 0x1F NOT AND DUP2 ADD SWAP1 DUP2 LT PUSH1 0x1 PUSH1 0x1 PUSH1 0x40 SHL SUB DUP3 GT OR PUSH3 0x81 JUMPI PUSH1 0x40 MSTORE JUMP JUMPDEST PUSH3 0x8B PUSH3 0x48 JUMP JUMPDEST PUSH1 0x40 MSTORE JUMP JUMPDEST SWAP1 PUSH3 0xA7 PUSH3 0x9F PUSH1 0x40 MLOAD SWAP1 JUMP JUMPDEST SWAP3 DUP4 PUSH3 0x5F JUMP JUMPDEST JUMP JUMPDEST PUSH1 0x1 PUSH1 0x1 PUSH1 0xA0 SHL SUB AND SWAP1 JUMP JUMPDEST SWAP1 JUMP JUMPDEST PUSH1 0x1 PUSH1 0x1 PUSH1 0xA0 SHL SUB DUP2 AND EQ ISZERO PUSH3 0x42 JUMPI JUMP JUMPDEST SWAP1 POP MLOAD SWAP1 PUSH3 0xA7 DUP3 PUSH3 0xB8 JUMP JUMPDEST SWAP2 SWAP1 PUSH3 0xB5 SWAP1 PUSH1 0x40 DUP5 DUP3 SUB SLT PUSH3 0x103 JUMPI JUMPDEST PUSH3 0xF9 DUP2 DUP6 PUSH3 0xCB JUMP JUMPDEST SWAP4 PUSH1 0x20 ADD PUSH3 0xCB JUMP JUMPDEST PUSH3 0x10D PUSH3 0x42 JUMP JUMPDEST PUSH3 0xED JUMP JUMPDEST PUSH3 0x136 PUSH3 0xF6C DUP1 CODESIZE SUB DUP1 PUSH3 0x12A DUP2 PUSH3 0x90 JUMP JUMPDEST SWAP3 DUP4 CODECOPY DUP2 ADD SWAP1 PUSH3 0xDA JUMP JUMPDEST SWAP1 SWAP2 JUMP JUMPDEST SWAP1 PUSH3 0x154 PUSH3 0xA7 SWAP3 PUSH3 0x14E PUSH3 0x15A JUMP JUMPDEST PUSH3 0x2F7 JUMP JUMPDEST PUSH3 0x344 JUMP JUMPDEST PUSH3 0xA7 DUP1 CALLER PUSH3 0x1E1 JUMP JUMPDEST SWAP2 PUSH1 0x1 PUSH1 0x1 PUSH1 0xA0 SHL SUB PUSH1 0x8 SWAP3 SWAP1 SWAP3 MUL SWAP2 DUP3 SHL SWAP2 SHL JUMPDEST SWAP2 DUP2 NOT AND SWAP2 AND OR SWAP1 JUMP JUMPDEST PUSH3 0xB5 SWAP1 PUSH3 0xA9 SWAP1 PUSH1 0x1 PUSH1 0x1 PUSH1 0xA0 SHL SUB AND DUP3 JUMP JUMPDEST PUSH3 0xB5 SWAP1 PUSH3 0x185 JUMP JUMPDEST PUSH3 0xB5 SWAP1 PUSH3 0x19B JUMP JUMPDEST SWAP2 SWAP1 PUSH3 0x1C6 PUSH3 0xB5 PUSH3 0x1CF SWAP4 PUSH3 0x1A6 JUMP JUMPDEST SWAP1 DUP4 SLOAD PUSH3 0x166 JUMP JUMPDEST SWAP1 SSTORE JUMP JUMPDEST PUSH3 0xA7 SWAP2 PUSH1 0x0 SWAP2 PUSH3 0x1B1 JUMP JUMPDEST PUSH3 0xA7 SWAP1 PUSH3 0x1F4 PUSH1 0x0 PUSH1 0x1 PUSH3 0x1D3 JUMP JUMPDEST PUSH3 0x23D JUMP JUMPDEST PUSH3 0xB5 SWAP1 PUSH3 0xA9 JUMP JUMPDEST PUSH3 0xB5 SWAP1 SLOAD PUSH3 0x1FA JUMP JUMPDEST SWAP1 PUSH1 0x1 PUSH1 0x1 PUSH1 0xA0 SHL SUB SWAP1 PUSH3 0x17B JUMP JUMPDEST SWAP1 PUSH3 0x235 PUSH3 0xB5 PUSH3 0x1CF SWAP3 PUSH3 0x1A6 JUMP JUMPDEST DUP3 SLOAD PUSH3 0x211 JUMP JUMPDEST PUSH3 0x249 PUSH1 0x0 PUSH3 0x205 JUMP JUMPDEST SWAP1 PUSH3 0x257 DUP2 PUSH1 0x0 PUSH3 0x221 JUMP JUMPDEST PUSH3 0x28E PUSH3 0x287 PUSH32 0x8BE0079C531659141344CD1FD0A4F28419497F9722A3DAAFE3B4186F6B6457E0 SWAP4 PUSH3 0x1A6 JUMP JUMPDEST SWAP2 PUSH3 0x1A6 JUMP JUMPDEST SWAP2 PUSH3 0x299 PUSH1 0x40 MLOAD SWAP1 JUMP JUMPDEST PUSH1 0x0 SWAP1 LOG3 JUMP JUMPDEST PUSH3 0xB5 PUSH3 0xB5 PUSH3 0xB5 SWAP3 SWAP1 JUMP JUMPDEST DUP1 EXTCODESIZE PUSH3 0x2C5 PUSH3 0x2C1 PUSH1 0x0 PUSH3 0x29F JUMP JUMPDEST SWAP2 SWAP1 JUMP JUMPDEST EQ PUSH3 0x2D6 JUMPI PUSH3 0xA7 SWAP1 PUSH3 0x2EA JUMP JUMPDEST POP POP PUSH1 0x40 MLOAD PUSH4 0x9EE12D5 PUSH1 0xE0 SHL DUP2 MSTORE PUSH1 0x4 SWAP1 REVERT JUMPDEST PUSH3 0xA7 SWAP1 PUSH1 0x2 PUSH3 0x221 JUMP JUMPDEST PUSH3 0xA7 SWAP1 PUSH3 0x2AF JUMP JUMPDEST DUP1 EXTCODESIZE PUSH3 0x314 PUSH3 0x2C1 PUSH1 0x0 PUSH3 0x29F JUMP JUMPDEST EQ PUSH3 0x2D6 JUMPI PUSH3 0xA7 SWAP1 DUP1 EXTCODESIZE PUSH3 0x331 PUSH3 0x2C1 PUSH1 0x0 PUSH3 0x29F JUMP JUMPDEST EQ PUSH3 0x2D6 JUMPI PUSH3 0xA7 SWAP1 PUSH1 0x3 PUSH3 0x221 JUMP JUMPDEST PUSH3 0xA7 SWAP1 PUSH3 0x302 JUMP INVALID PUSH1 0x80 PUSH1 0x40 MSTORE PUSH1 0x4 CALLDATASIZE LT ISZERO PUSH2 0x18 JUMPI JUMPDEST PUSH2 0x16 PUSH2 0x2B2 JUMP JUMPDEST STOP JUMPDEST PUSH1 0x0 CALLDATALOAD PUSH1 0xE0 SHR DUP1 PUSH4 0xA254640 EQ PUSH2 0x288 JUMPI DUP1 PUSH4 0x152BB06D EQ PUSH2 0x261 JUMPI DUP1 PUSH4 0x1A00AB33 EQ PUSH2 0x237 JUMPI DUP1 PUSH4 0x715018A6 EQ PUSH2 0x210 JUMPI DUP1 PUSH4 0x742A6C43 EQ PUSH2 0x1E2 JUMPI DUP1 PUSH4 0x79BA5097 EQ PUSH2 0x1BB JUMPI DUP1 PUSH4 0x7FB84BED EQ PUSH2 0x181 JUMPI DUP1 PUSH4 0x833D657E EQ PUSH2 0x157 JUMPI DUP1 PUSH4 0x8DA5CB5B EQ PUSH2 0x12D JUMPI DUP1 PUSH4 0xA8F69023 EQ PUSH2 0x106 JUMPI DUP1 PUSH4 0xE30C3978 EQ PUSH2 0xD0 JUMPI PUSH4 0xF2FDE38B EQ PUSH2 0xA6 JUMPI PUSH2 0xE JUMP JUMPDEST CALLVALUE PUSH2 0xC3 JUMPI JUMPDEST PUSH2 0x16 PUSH2 0xBA CALLDATASIZE PUSH1 0x4 PUSH2 0x31D JUMP JUMPDEST PUSH2 0x609 JUMP JUMPDEST SUB SWAP1 RETURN JUMPDEST PUSH2 0xCB PUSH2 0x2B2 JUMP JUMPDEST PUSH2 0xAC JUMP JUMPDEST POP CALLVALUE PUSH2 0xF9 JUMPI JUMPDEST PUSH2 0xE2 CALLDATASIZE PUSH1 0x4 PUSH2 0x2B8 JUMP JUMPDEST PUSH2 0xBF PUSH2 0xED PUSH2 0x541 JUMP JUMPDEST PUSH1 0x40 MLOAD SWAP2 DUP3 SWAP2 DUP3 PUSH2 0x372 JUMP JUMPDEST PUSH2 0x101 PUSH2 0x2B2 JUMP JUMPDEST PUSH2 0xD7 JUMP JUMPDEST POP CALLVALUE PUSH2 0x120 JUMPI JUMPDEST PUSH2 0x16 PUSH2 0x11B CALLDATASIZE PUSH1 0x4 PUSH2 0x31D JUMP JUMPDEST PUSH2 0xAFE JUMP JUMPDEST PUSH2 0x128 PUSH2 0x2B2 JUMP JUMPDEST PUSH2 0x10D JUMP JUMPDEST POP CALLVALUE PUSH2 0x14A JUMPI JUMPDEST PUSH2 0x13F CALLDATASIZE PUSH1 0x4 PUSH2 0x2B8 JUMP JUMPDEST PUSH2 0xBF PUSH2 0xED PUSH2 0x471 JUMP JUMPDEST PUSH2 0x152 PUSH2 0x2B2 JUMP JUMPDEST PUSH2 0x134 JUMP JUMPDEST POP CALLVALUE PUSH2 0x174 JUMPI JUMPDEST PUSH2 0x169 CALLDATASIZE PUSH1 0x4 PUSH2 0x2B8 JUMP JUMPDEST PUSH2 0xBF PUSH2 0xED PUSH2 0x452 JUMP JUMPDEST PUSH2 0x17C PUSH2 0x2B2 JUMP JUMPDEST PUSH2 0x15E JUMP JUMPDEST POP CALLVALUE PUSH2 0x1AE JUMPI JUMPDEST PUSH2 0x193 CALLDATASIZE PUSH1 0x4 PUSH2 0x2B8 JUMP JUMPDEST PUSH2 0xBF PUSH2 0x19E PUSH2 0x44A JUMP JUMPDEST PUSH1 0x40 MLOAD SWAP2 DUP3 SWAP2 DUP3 SWAP1 DUP2 MSTORE PUSH1 0x20 ADD SWAP1 JUMP JUMPDEST PUSH2 0x1B6 PUSH2 0x2B2 JUMP JUMPDEST PUSH2 0x188 JUMP JUMPDEST POP CALLVALUE PUSH2 0x1D5 JUMPI JUMPDEST PUSH2 0x1CD CALLDATASIZE PUSH1 0x4 PUSH2 0x2B8 JUMP JUMPDEST PUSH2 0x16 PUSH2 0x70D JUMP JUMPDEST PUSH2 0x1DD PUSH2 0x2B2 JUMP JUMPDEST PUSH2 0x1C2 JUMP JUMPDEST POP CALLVALUE PUSH2 0x203 JUMPI JUMPDEST PUSH2 0xBF PUSH2 0xED PUSH2 0x1FA CALLDATASIZE PUSH1 0x4 PUSH2 0x3DE JUMP JUMPDEST SWAP3 SWAP2 SWAP1 SWAP2 PUSH2 0x800 JUMP JUMPDEST PUSH2 0x20B PUSH2 0x2B2 JUMP JUMPDEST PUSH2 0x1E9 JUMP JUMPDEST POP CALLVALUE PUSH2 0x22A JUMPI JUMPDEST PUSH2 0x222 CALLDATASIZE PUSH1 0x4 PUSH2 0x2B8 JUMP JUMPDEST PUSH2 0x16 PUSH2 0x4B3 JUMP JUMPDEST PUSH2 0x232 PUSH2 0x2B2 JUMP JUMPDEST PUSH2 0x217 JUMP JUMPDEST POP CALLVALUE PUSH2 0x254 JUMPI JUMPDEST PUSH2 0x249 CALLDATASIZE PUSH1 0x4 PUSH2 0x2B8 JUMP JUMPDEST PUSH2 0xBF PUSH2 0xED PUSH2 0x35D JUMP JUMPDEST PUSH2 0x25C PUSH2 0x2B2 JUMP JUMPDEST PUSH2 0x23E JUMP JUMPDEST POP CALLVALUE PUSH2 0x27B JUMPI JUMPDEST PUSH2 0x16 PUSH2 0x276 CALLDATASIZE PUSH1 0x4 PUSH2 0x31D JUMP JUMPDEST PUSH2 0xB46 JUMP JUMPDEST PUSH2 0x283 PUSH2 0x2B2 JUMP JUMPDEST PUSH2 0x268 JUMP JUMPDEST POP CALLVALUE PUSH2 0x2A5 JUMPI JUMPDEST PUSH2 0x29A CALLDATASIZE PUSH1 0x4 PUSH2 0x2B8 JUMP JUMPDEST PUSH2 0xBF PUSH2 0x19E PUSH2 0x2E7 JUMP JUMPDEST PUSH2 0x2AD PUSH2 0x2B2 JUMP JUMPDEST PUSH2 0x28F JUMP JUMPDEST POP PUSH1 0x0 DUP1 REVERT JUMPDEST PUSH1 0x0 SWAP2 SUB SLT PUSH2 0x2C3 JUMPI JUMP JUMPDEST PUSH2 0x2CB PUSH2 0x2B2 JUMP JUMPDEST JUMP JUMPDEST PUSH2 0x2DA PUSH2 0x2DA PUSH2 0x2DA SWAP3 SWAP1 JUMP JUMPDEST SWAP1 JUMP JUMPDEST PUSH2 0x2DA PUSH1 0xA PUSH2 0x2CD JUMP JUMPDEST PUSH2 0x2DA PUSH2 0x2DD JUMP JUMPDEST SWAP1 MSTORE JUMP JUMPDEST PUSH1 0x1 PUSH1 0x1 PUSH1 0xA0 SHL SUB AND SWAP1 JUMP JUMPDEST PUSH2 0x308 DUP2 PUSH2 0x2F3 JUMP JUMPDEST EQ ISZERO PUSH2 0x2B2 JUMPI JUMP JUMPDEST SWAP1 POP CALLDATALOAD SWAP1 PUSH2 0x2CB DUP3 PUSH2 0x2FF JUMP JUMPDEST SWAP1 PUSH2 0x2DA SWAP2 PUSH1 0x20 DUP2 DUP4 SUB SLT PUSH2 0x331 JUMPI PUSH2 0x310 JUMP JUMPDEST PUSH2 0x339 PUSH2 0x2B2 JUMP JUMPDEST PUSH2 0x310 JUMP JUMPDEST PUSH2 0x2DA SWAP2 PUSH1 0x8 MUL SHR PUSH1 0x1 PUSH1 0x1 PUSH1 0xA0 SHL SUB AND SWAP1 JUMP JUMPDEST SWAP1 PUSH2 0x2DA SWAP2 SLOAD PUSH2 0x33E JUMP JUMPDEST PUSH2 0x2DA PUSH1 0x0 PUSH1 0x2 PUSH2 0x352 JUMP JUMPDEST PUSH2 0x2EF SWAP1 PUSH2 0x2F3 JUMP JUMPDEST PUSH1 0x20 DUP2 ADD SWAP3 SWAP2 PUSH2 0x2CB SWAP2 SWAP1 PUSH2 0x369 JUMP JUMPDEST SWAP1 SWAP2 DUP3 PUSH1 0x1F DUP4 ADD SLT ISZERO PUSH2 0x3BE JUMPI JUMPDEST PUSH1 0x20 DUP3 CALLDATALOAD SWAP3 PUSH8 0xFFFFFFFFFFFFFFFF DUP5 GT PUSH2 0x3B1 JUMPI JUMPDEST ADD SWAP3 DUP3 DUP5 ADD GT PUSH2 0x2C3 JUMPI JUMP JUMPDEST PUSH2 0x3B9 PUSH2 0x2B2 JUMP JUMPDEST PUSH2 0x3A5 JUMP JUMPDEST PUSH2 0x3C6 PUSH2 0x2B2 JUMP JUMPDEST PUSH2 0x390 JUMP JUMPDEST DUP1 PUSH2 0x308 JUMP JUMPDEST SWAP1 POP CALLDATALOAD SWAP1 PUSH2 0x2CB DUP3 PUSH2 0x3CB JUMP JUMPDEST PUSH2 0x2DA SWAP2 SWAP3 PUSH1 0x60 DUP3 DUP6 SUB SLT PUSH2 0x431 JUMPI JUMPDEST PUSH2 0x40B DUP5 DUP4 CALLDATALOAD PUSH8 0xFFFFFFFFFFFFFFFF DUP2 GT PUSH2 0x424 JUMPI JUMPDEST DUP5 ADD PUSH2 0x382 JUMP JUMPDEST SWAP4 SWAP1 SWAP5 PUSH2 0x41B DUP2 PUSH1 0x20 DUP7 ADD PUSH2 0x3D1 JUMP JUMPDEST SWAP4 PUSH1 0x40 ADD PUSH2 0x3D1 JUMP JUMPDEST PUSH2 0x42C PUSH2 0x2B2 JUMP JUMPDEST PUSH2 0x404 JUMP JUMPDEST PUSH2 0x439 PUSH2 0x2B2 JUMP JUMPDEST PUSH2 0x3EE JUMP JUMPDEST PUSH2 0x2DA PUSH3 0x278D00 PUSH2 0x2CD JUMP JUMPDEST PUSH2 0x2DA PUSH2 0x43E JUMP JUMPDEST PUSH2 0x2DA PUSH1 0x0 PUSH1 0x3 PUSH2 0x352 JUMP JUMPDEST PUSH2 0x2DA SWAP1 PUSH2 0x2F3 JUMP JUMPDEST PUSH2 0x2DA SWAP1 SLOAD PUSH2 0x45E JUMP JUMPDEST PUSH2 0x2DA PUSH1 0x0 PUSH2 0x467 JUMP JUMPDEST PUSH2 0x483 PUSH2 0x519 JUMP JUMPDEST PUSH2 0x2CB PUSH2 0x4A1 JUMP JUMPDEST PUSH2 0x2F3 PUSH2 0x2DA PUSH2 0x2DA SWAP3 SWAP1 JUMP JUMPDEST PUSH2 0x2DA SWAP1 PUSH2 0x48B JUMP JUMPDEST PUSH2 0x2CB PUSH2 0x4AE PUSH1 0x0 PUSH2 0x498 JUMP JUMPDEST PUSH2 0x650 JUMP JUMPDEST PUSH2 0x2CB PUSH2 0x47B JUMP JUMPDEST ADD SWAP1 JUMP JUMPDEST PUSH1 0x20 DUP1 DUP3 MSTORE DUP2 DUP2 ADD MSTORE PUSH32 0x4F776E61626C653A2063616C6C6572206973206E6F7420746865206F776E6572 PUSH1 0x40 DUP3 ADD MSTORE PUSH1 0x60 ADD SWAP1 JUMP JUMPDEST ISZERO PUSH2 0x4FB JUMPI JUMP JUMPDEST POP PUSH1 0x40 MLOAD PUSH3 0x461BCD PUSH1 0xE5 SHL DUP2 MSTORE DUP1 PUSH2 0x515 PUSH1 0x4 DUP3 ADD PUSH2 0x4BF JUMP JUMPDEST SUB SWAP1 REVERT JUMPDEST PUSH2 0x2CB PUSH2 0x524 PUSH2 0x471 JUMP JUMPDEST PUSH2 0x53B PUSH2 0x535 CALLER PUSH2 0x2F3 JUMP JUMPDEST PUSH2 0x2F3 JUMP JUMPDEST SWAP2 PUSH2 0x2F3 JUMP JUMPDEST EQ PUSH2 0x4F4 JUMP JUMPDEST PUSH2 0x2DA PUSH1 0x1 PUSH2 0x467 JUMP JUMPDEST PUSH2 0x2CB SWAP1 PUSH2 0x557 PUSH2 0x519 JUMP JUMPDEST PUSH2 0x5B2 JUMP JUMPDEST SWAP1 PUSH1 0x1 PUSH1 0x1 PUSH1 0xA0 SHL SUB SWAP1 JUMPDEST SWAP2 DUP2 NOT AND SWAP2 AND OR SWAP1 JUMP JUMPDEST PUSH2 0x2DA SWAP1 PUSH2 0x2F3 SWAP1 PUSH1 0x1 PUSH1 0x1 PUSH1 0xA0 SHL SUB AND DUP3 JUMP JUMPDEST PUSH2 0x2DA SWAP1 PUSH2 0x571 JUMP JUMPDEST PUSH2 0x2DA SWAP1 PUSH2 0x585 JUMP JUMPDEST SWAP1 PUSH2 0x5A7 PUSH2 0x2DA PUSH2 0x5AE SWAP3 PUSH2 0x58E JUMP JUMPDEST DUP3 SLOAD PUSH2 0x55C JUMP JUMPDEST SWAP1 SSTORE JUMP JUMPDEST PUSH2 0x5BD DUP2 PUSH1 0x1 PUSH2 0x597 JUMP JUMPDEST PUSH2 0x5C5 PUSH2 0x471 JUMP JUMPDEST SWAP1 PUSH2 0x5F9 PUSH2 0x5F3 PUSH32 0x38D16B8CAC22D99FC7C124B9CD0DE2D3FA1FAEF420BFE791D8C362D765E22700 SWAP4 PUSH2 0x58E JUMP JUMPDEST SWAP2 PUSH2 0x58E JUMP JUMPDEST SWAP2 PUSH2 0x603 PUSH1 0x40 MLOAD SWAP1 JUMP JUMPDEST PUSH1 0x0 SWAP1 LOG3 JUMP JUMPDEST PUSH2 0x2CB SWAP1 PUSH2 0x54B JUMP JUMPDEST SWAP2 PUSH1 0x1 PUSH1 0x1 PUSH1 0xA0 SHL SUB PUSH1 0x8 SWAP3 SWAP1 SWAP3 MUL SWAP2 DUP3 SHL SWAP2 SHL PUSH2 0x567 JUMP JUMPDEST SWAP2 SWAP1 PUSH2 0x63C PUSH2 0x2DA PUSH2 0x5AE SWAP4 PUSH2 0x58E JUMP JUMPDEST SWAP1 DUP4 SLOAD PUSH2 0x612 JUMP JUMPDEST PUSH2 0x2CB SWAP2 PUSH1 0x0 SWAP2 PUSH2 0x62B JUMP JUMPDEST PUSH2 0x2CB SWAP1 PUSH2 0x660 PUSH1 0x0 PUSH1 0x1 PUSH2 0x644 JUMP JUMPDEST PUSH2 0x66A PUSH1 0x0 PUSH2 0x467 JUMP JUMPDEST SWAP1 PUSH2 0x676 DUP2 PUSH1 0x0 PUSH2 0x597 JUMP JUMPDEST PUSH2 0x5F9 PUSH2 0x5F3 PUSH32 0x8BE0079C531659141344CD1FD0A4F28419497F9722A3DAAFE3B4186F6B6457E0 SWAP4 PUSH2 0x58E JUMP JUMPDEST PUSH1 0x20 DUP1 DUP3 MSTORE PUSH1 0x29 SWAP1 DUP3 ADD MSTORE PUSH32 0x4F776E61626C6532537465703A2063616C6C6572206973206E6F742074686520 PUSH1 0x40 DUP3 ADD MSTORE PUSH9 0x3732BB9037BBB732B9 PUSH1 0xB9 SHL PUSH1 0x60 DUP3 ADD MSTORE PUSH1 0x80 ADD SWAP1 JUMP JUMPDEST ISZERO PUSH2 0x6F3 JUMPI JUMP JUMPDEST POP PUSH1 0x40 MLOAD PUSH3 0x461BCD PUSH1 0xE5 SHL DUP2 MSTORE DUP1 PUSH2 0x515 PUSH1 0x4 DUP3 ADD PUSH2 0x6A3 JUMP JUMPDEST PUSH2 0x2CB CALLER PUSH2 0x4AE PUSH2 0x71C PUSH2 0x541 JUMP JUMPDEST PUSH2 0x728 PUSH2 0x535 DUP5 PUSH2 0x2F3 JUMP JUMPDEST EQ PUSH2 0x6EC JUMP JUMPDEST POP PUSH4 0x4E487B71 PUSH1 0xE0 SHL PUSH1 0x0 MSTORE PUSH1 0x41 PUSH1 0x4 MSTORE PUSH1 0x24 PUSH1 0x0 REVERT JUMPDEST SWAP1 PUSH1 0x1F ADD PUSH1 0x1F NOT AND DUP2 ADD SWAP1 DUP2 LT PUSH8 0xFFFFFFFFFFFFFFFF DUP3 GT OR PUSH2 0x767 JUMPI PUSH1 0x40 MSTORE JUMP JUMPDEST PUSH2 0x76F PUSH2 0x72E JUMP JUMPDEST PUSH1 0x40 MSTORE JUMP JUMPDEST SWAP1 DUP3 PUSH1 0x0 SWAP4 SWAP3 DUP3 CALLDATACOPY ADD MSTORE JUMP JUMPDEST SWAP2 SWAP1 PUSH2 0x79E DUP2 PUSH2 0x797 DUP2 PUSH2 0x4BB SWAP6 PUSH1 0x20 SWAP2 DUP2 MSTORE ADD SWAP1 JUMP JUMPDEST DUP1 SWAP6 PUSH2 0x774 JUMP JUMPDEST PUSH1 0x1F ADD PUSH1 0x1F NOT AND SWAP1 JUMP JUMPDEST SWAP2 PUSH2 0x7EF SWAP2 PUSH2 0x2CB SWAP7 SWAP9 SWAP8 SWAP6 PUSH1 0x80 SWAP6 PUSH2 0x7DA PUSH2 0x7E7 SWAP5 PUSH2 0x7D0 PUSH1 0xA0 DUP10 ADD SWAP6 PUSH1 0x0 DUP11 ADD SWAP1 PUSH2 0x369 JUMP JUMPDEST PUSH1 0x20 DUP9 ADD SWAP1 PUSH2 0x369 JUMP JUMPDEST DUP6 DUP4 SUB PUSH1 0x40 DUP8 ADD MSTORE PUSH2 0x780 JUMP JUMPDEST SWAP7 PUSH1 0x60 DUP4 ADD MSTORE JUMP JUMPDEST ADD MSTORE JUMP JUMPDEST POP PUSH1 0x40 MLOAD RETURNDATASIZE PUSH1 0x0 DUP3 RETURNDATACOPY RETURNDATASIZE SWAP1 REVERT JUMPDEST SWAP2 SWAP3 SWAP1 SWAP2 PUSH1 0x0 SWAP2 PUSH2 0x810 DUP4 PUSH2 0x2CD JUMP JUMPDEST DUP6 EQ DUP1 ISZERO PUSH2 0x9E8 JUMPI JUMPDEST PUSH2 0x9CA JUMPI PUSH2 0x826 DUP4 PUSH2 0x2CD JUMP JUMPDEST DUP2 EQ DUP1 ISZERO PUSH2 0x9B7 JUMPI JUMPDEST PUSH2 0x999 JUMPI PUSH2 0x8D6 SWAP4 DUP4 SWAP2 PUSH2 0x890 DUP4 PUSH2 0x84F PUSH2 0x84A PUSH1 0x2 PUSH2 0x467 JUMP JUMPDEST PUSH2 0xA4C JUMP JUMPDEST SWAP9 PUSH2 0x89B PUSH2 0x864 PUSH2 0x85F DUP13 PUSH2 0x58E JUMP JUMPDEST PUSH2 0x58E JUMP JUMPDEST SWAP5 PUSH4 0x8D23507F SWAP3 PUSH2 0x875 PUSH1 0x3 PUSH2 0x467 JUMP JUMPDEST SWAP8 CALLER SWAP11 DUP9 EXTCODESIZE ISZERO PUSH2 0x98C JUMPI JUMPDEST PUSH1 0x40 MLOAD SWAP12 DUP13 SWAP11 DUP12 SWAP10 DUP11 SWAP9 PUSH1 0xE0 SHL SWAP1 JUMP JUMPDEST DUP9 MSTORE PUSH1 0x4 DUP9 ADD PUSH2 0x7A8 JUMP JUMPDEST SUB SWAP3 GAS CALL DUP1 ISZERO PUSH2 0x97F JUMPI JUMPDEST PUSH2 0x96B JUMPI JUMPDEST POP PUSH2 0x8BC PUSH2 0x85F PUSH2 0x85F PUSH1 0x3 PUSH2 0x467 JUMP JUMPDEST PUSH4 0x172BECFF SWAP1 DUP1 EXTCODESIZE ISZERO PUSH2 0x95E JUMPI JUMPDEST PUSH1 0x40 MLOAD SWAP4 DUP5 SWAP3 PUSH1 0xE0 SHL SWAP1 JUMP JUMPDEST DUP3 MSTORE DUP2 DUP4 DUP2 PUSH2 0x8E8 DUP9 PUSH1 0x4 DUP4 ADD PUSH2 0x372 JUMP JUMPDEST SUB SWAP3 GAS CALL DUP1 ISZERO PUSH2 0x951 JUMPI JUMPDEST PUSH2 0x934 JUMPI JUMPDEST POP PUSH32 0xC079BF405EBC76AC163F8DAB16CC2E0570562F5B2D7CB957C69D4BF1F8D22FE8 PUSH2 0x923 DUP3 PUSH2 0x58E JUMP JUMPDEST SWAP1 PUSH2 0x92D PUSH1 0x40 MLOAD SWAP1 JUMP JUMPDEST PUSH1 0x0 SWAP1 LOG2 SWAP1 JUMP JUMPDEST PUSH2 0x94B SWAP1 PUSH2 0x942 RETURNDATASIZE DUP3 PUSH2 0x745 JUMP JUMPDEST RETURNDATASIZE DUP2 ADD SWAP1 PUSH2 0x2B8 JUMP JUMPDEST CODESIZE PUSH2 0x8F8 JUMP JUMPDEST PUSH2 0x959 PUSH2 0x7F3 JUMP JUMPDEST PUSH2 0x8F3 JUMP JUMPDEST PUSH2 0x966 PUSH2 0x2B2 JUMP JUMPDEST PUSH2 0x8CA JUMP JUMPDEST PUSH2 0x979 SWAP1 PUSH2 0x942 RETURNDATASIZE DUP3 PUSH2 0x745 JUMP JUMPDEST CODESIZE PUSH2 0x8AB JUMP JUMPDEST PUSH2 0x987 PUSH2 0x7F3 JUMP JUMPDEST PUSH2 0x8A6 JUMP JUMPDEST PUSH2 0x994 PUSH2 0x2B2 JUMP JUMPDEST PUSH2 0x880 JUMP JUMPDEST POP POP POP POP POP POP PUSH2 0x9A8 PUSH1 0x40 MLOAD SWAP1 JUMP JUMPDEST PUSH4 0x4F08DAF3 PUSH1 0xE1 SHL DUP2 MSTORE PUSH1 0x4 SWAP1 REVERT JUMPDEST POP PUSH2 0x9C3 PUSH2 0x2DA PUSH2 0x43E JUMP JUMPDEST DUP2 GT PUSH2 0x82F JUMP JUMPDEST POP POP POP POP POP POP PUSH2 0x9D9 PUSH1 0x40 MLOAD SWAP1 JUMP JUMPDEST PUSH4 0xC17D8A03 PUSH1 0xE0 SHL DUP2 MSTORE PUSH1 0x4 SWAP1 REVERT JUMPDEST POP PUSH2 0x9F4 PUSH2 0x2DA PUSH2 0x2DD JUMP JUMPDEST DUP6 GT PUSH2 0x819 JUMP JUMPDEST PUSH1 0x20 DUP1 DUP3 MSTORE PUSH1 0x16 SWAP1 DUP3 ADD MSTORE PUSH22 0x115490CC4C4D8DCE8818DC99585D194819985A5B1959 PUSH1 0x52 SHL PUSH1 0x40 DUP3 ADD MSTORE PUSH1 0x60 ADD SWAP1 JUMP JUMPDEST ISZERO PUSH2 0xA32 JUMPI JUMP JUMPDEST POP PUSH1 0x40 MLOAD PUSH3 0x461BCD PUSH1 0xE5 SHL DUP2 MSTORE DUP1 PUSH2 0x515 PUSH1 0x4 DUP3 ADD PUSH2 0x9FB JUMP JUMPDEST PUSH15 0x5AF43D82803E903D91602B57FD5BF3 SWAP1 PUSH23 0x3D602D80600A3D3981F3363D3D373D3D3D363D73000000 DUP2 PUSH1 0x60 SHL PUSH1 0xE8 SHR OR PUSH1 0x0 MSTORE PUSH1 0x78 SHL OR PUSH1 0x20 MSTORE PUSH1 0x37 PUSH1 0x9 PUSH1 0x0 CREATE SWAP1 PUSH2 0x2CB PUSH2 0xA9F PUSH2 0x530 PUSH1 0x0 PUSH2 0x498 JUMP JUMPDEST PUSH2 0xAA8 DUP5 PUSH2 0x2F3 JUMP JUMPDEST EQ ISZERO PUSH2 0xA2B JUMP JUMPDEST PUSH2 0x2CB SWAP1 PUSH2 0xABB PUSH2 0x519 JUMP JUMPDEST PUSH2 0xAC4 DUP2 PUSH2 0xB8F JUMP JUMPDEST PUSH2 0xAEE PUSH32 0x2F64067393BB7145C8B43796303F94EFD9C3C4633A970158DE88B74AAAE198E1 SWAP2 PUSH2 0x58E JUMP JUMPDEST SWAP1 PUSH2 0xAF8 PUSH1 0x40 MLOAD SWAP1 JUMP JUMPDEST PUSH1 0x0 SWAP1 LOG2 JUMP JUMPDEST PUSH2 0x2CB SWAP1 PUSH2 0xAAF JUMP JUMPDEST PUSH2 0x2CB SWAP1 PUSH2 0xB13 PUSH2 0x519 JUMP JUMPDEST PUSH2 0xB1C DUP2 PUSH2 0xBCF JUMP JUMPDEST PUSH2 0xAEE PUSH32 0x8BD91D825017FCA95E546FFCDF4FF56D37B0D717A6E77E5B472174DB55250A80 SWAP2 PUSH2 0x58E JUMP JUMPDEST PUSH2 0x2CB SWAP1 PUSH2 0xB07 JUMP JUMPDEST DUP1 EXTCODESIZE PUSH2 0xB62 PUSH2 0xB5E PUSH1 0x0 PUSH2 0x2CD JUMP JUMPDEST SWAP2 SWAP1 JUMP JUMPDEST EQ PUSH2 0xB70 JUMPI PUSH2 0x2CB SWAP1 PUSH2 0xB84 JUMP JUMPDEST POP POP PUSH1 0x40 MLOAD PUSH4 0x9EE12D5 PUSH1 0xE0 SHL DUP2 MSTORE PUSH1 0x4 SWAP1 REVERT JUMPDEST PUSH2 0x2CB SWAP1 PUSH1 0x2 PUSH2 0x597 JUMP JUMPDEST PUSH2 0x2CB SWAP1 PUSH2 0xB4F JUMP JUMPDEST DUP1 EXTCODESIZE PUSH2 0xBA7 PUSH2 0xB5E PUSH1 0x0 PUSH2 0x2CD JUMP JUMPDEST EQ PUSH2 0xB70 JUMPI PUSH2 0x2CB SWAP1 DUP1 EXTCODESIZE PUSH2 0xBBF PUSH2 0xB5E PUSH1 0x0 PUSH2 0x2CD JUMP JUMPDEST EQ PUSH2 0xB70 JUMPI PUSH2 0x2CB SWAP1 PUSH1 0x3 PUSH2 0x597 JUMP JUMPDEST PUSH2 0x2CB SWAP1 PUSH2 0xB98 JUMP INVALID LOG3 PUSH5 0x6970667358 0x22 SLT KECCAK256 0x5F 0xA8 DUP15 DUP5 0xEB 0xF9 SGT PUSH22 0x56A2BA8C506F504229F602BF875B0987350CFA261605 0x2B PUSH12 0x6C6578706572696D656E7461 PUSH13 0xF564736F6C634300080C004100 "},"methodIdentifiers":{"MAX_PERIODS()":"0a254640","MAX_PERIOD_DURATION()":"7fb84bed","acceptOwnership()":"79ba5097","bribeMarketImplementation()":"1a00ab33","bribeVault()":"833d657e","createBribeMarket(string,uint256,uint256)":"742a6c43","owner()":"8da5cb5b","pendingOwner()":"e30c3978","renounceOwnership()":"715018a6","setBribeMarketImplementation(address)":"a8f69023","setBribeVault(address)":"152bb06d","transferOwnership(address)":"f2fde38b"}}}}}