{"contracts/BribeMarket.sol":{"BribeMarket":{"abi":[{"inputs":[],"name":"AlreadyInitialized","type":"error"},{"inputs":[],"name":"DeadlinePassed","type":"error"},{"inputs":[],"name":"InvalidAddress","type":"error"},{"inputs":[],"name":"InvalidAmount","type":"error"},{"inputs":[],"name":"InvalidChoiceCount","type":"error"},{"inputs":[],"name":"InvalidDeadline","type":"error"},{"inputs":[],"name":"InvalidIdentifier","type":"error"},{"inputs":[],"name":"InvalidMaxPeriod","type":"error"},{"inputs":[],"name":"InvalidPeriod","type":"error"},{"inputs":[],"name":"InvalidPeriodDuration","type":"error"},{"inputs":[],"name":"InvalidProtocol","type":"error"},{"inputs":[],"name":"NoWhitelistBribeVault","type":"error"},{"inputs":[],"name":"NotAuthorized","type":"error"},{"inputs":[],"name":"NotTeamMember","type":"error"},{"inputs":[],"name":"TokenNotWhitelisted","type":"error"},{"inputs":[],"name":"TokenWhitelisted","type":"error"},{"inputs":[],"name":"VoterBlacklisted","type":"error"},{"inputs":[],"name":"VoterNotBlacklisted","type":"error"},{"anonymous":false,"inputs":[{"indexed":false,"internalType":"address[]","name":"voters","type":"address[]"}],"name":"AddBlacklistedVoters","type":"event"},{"anonymous":false,"inputs":[{"indexed":false,"internalType":"address[]","name":"tokens","type":"address[]"}],"name":"AddWhitelistedTokens","type":"event"},{"anonymous":false,"inputs":[{"indexed":false,"internalType":"address","name":"teamMember","type":"address"}],"name":"GrantTeamRole","type":"event"},{"anonymous":false,"inputs":[{"indexed":false,"internalType":"address","name":"bribeVault","type":"address"},{"indexed":false,"internalType":"address","name":"admin","type":"address"},{"indexed":false,"internalType":"string","name":"protocol","type":"string"},{"indexed":false,"internalType":"uint256","name":"maxPeriods","type":"uint256"},{"indexed":false,"internalType":"uint256","name":"periodDuration","type":"uint256"}],"name":"Initialize","type":"event"},{"anonymous":false,"inputs":[{"indexed":false,"internalType":"address[]","name":"voters","type":"address[]"}],"name":"RemoveBlacklistedVoters","type":"event"},{"anonymous":false,"inputs":[{"indexed":false,"internalType":"address[]","name":"tokens","type":"address[]"}],"name":"RemoveWhitelistedTokens","type":"event"},{"anonymous":false,"inputs":[{"indexed":false,"internalType":"address","name":"teamMember","type":"address"}],"name":"RevokeTeamRole","type":"event"},{"anonymous":false,"inputs":[{"indexed":true,"internalType":"bytes32","name":"role","type":"bytes32"},{"indexed":true,"internalType":"bytes32","name":"previousAdminRole","type":"bytes32"},{"indexed":true,"internalType":"bytes32","name":"newAdminRole","type":"bytes32"}],"name":"RoleAdminChanged","type":"event"},{"anonymous":false,"inputs":[{"indexed":true,"internalType":"bytes32","name":"role","type":"bytes32"},{"indexed":true,"internalType":"address","name":"account","type":"address"},{"indexed":true,"internalType":"address","name":"sender","type":"address"}],"name":"RoleGranted","type":"event"},{"anonymous":false,"inputs":[{"indexed":true,"internalType":"bytes32","name":"role","type":"bytes32"},{"indexed":true,"internalType":"address","name":"account","type":"address"},{"indexed":true,"internalType":"address","name":"sender","type":"address"}],"name":"RoleRevoked","type":"event"},{"anonymous":false,"inputs":[{"indexed":false,"internalType":"uint256","name":"maxPeriods","type":"uint256"}],"name":"SetMaxPeriods","type":"event"},{"anonymous":false,"inputs":[{"indexed":false,"internalType":"uint256","name":"periodDuration","type":"uint256"}],"name":"SetPeriodDuration","type":"event"},{"anonymous":false,"inputs":[{"indexed":false,"internalType":"bytes32[]","name":"proposals","type":"bytes32[]"},{"indexed":true,"internalType":"uint256","name":"deadline","type":"uint256"}],"name":"SetProposals","type":"event"},{"anonymous":false,"inputs":[{"indexed":false,"internalType":"bytes32[]","name":"proposals","type":"bytes32[]"},{"indexed":true,"internalType":"uint256","name":"deadline","type":"uint256"}],"name":"SetProposalsByAddress","type":"event"},{"anonymous":false,"inputs":[{"indexed":true,"internalType":"uint256","name":"proposalIndex","type":"uint256"},{"indexed":false,"internalType":"bytes32[]","name":"proposals","type":"bytes32[]"},{"indexed":true,"internalType":"uint256","name":"deadline","type":"uint256"}],"name":"SetProposalsById","type":"event"},{"inputs":[],"name":"BRIBE_VAULT","outputs":[{"internalType":"address","name":"","type":"address"}],"stateMutability":"view","type":"function"},{"inputs":[],"name":"DEFAULT_ADMIN_ROLE","outputs":[{"internalType":"bytes32","name":"","type":"bytes32"}],"stateMutability":"view","type":"function"},{"inputs":[],"name":"MAX_PERIODS","outputs":[{"internalType":"uint256","name":"","type":"uint256"}],"stateMutability":"view","type":"function"},{"inputs":[],"name":"MAX_PERIOD_DURATION","outputs":[{"internalType":"uint256","name":"","type":"uint256"}],"stateMutability":"view","type":"function"},{"inputs":[],"name":"PROTOCOL","outputs":[{"internalType":"string","name":"","type":"string"}],"stateMutability":"view","type":"function"},{"inputs":[],"name":"TEAM_ROLE","outputs":[{"internalType":"bytes32","name":"","type":"bytes32"}],"stateMutability":"view","type":"function"},{"inputs":[{"internalType":"address[]","name":"_voters","type":"address[]"}],"name":"addBlacklistedVoters","outputs":[],"stateMutability":"nonpayable","type":"function"},{"inputs":[{"internalType":"address[]","name":"_tokens","type":"address[]"}],"name":"addWhitelistedTokens","outputs":[],"stateMutability":"nonpayable","type":"function"},{"inputs":[{"internalType":"bytes32","name":"_proposal","type":"bytes32"},{"internalType":"address","name":"_token","type":"address"},{"internalType":"uint256","name":"_amount","type":"uint256"},{"internalType":"uint256","name":"_maxTokensPerVote","type":"uint256"},{"internalType":"uint256","name":"_periods","type":"uint256"}],"name":"depositBribe","outputs":[],"stateMutability":"nonpayable","type":"function"},{"inputs":[{"internalType":"bytes32","name":"_proposal","type":"bytes32"},{"internalType":"address","name":"_token","type":"address"},{"internalType":"uint256","name":"_amount","type":"uint256"},{"internalType":"uint256","name":"_maxTokensPerVote","type":"uint256"},{"internalType":"uint256","name":"_periods","type":"uint256"},{"internalType":"uint256","name":"_permitDeadline","type":"uint256"},{"internalType":"bytes","name":"_signature","type":"bytes"}],"name":"depositBribeWithPermit","outputs":[],"stateMutability":"nonpayable","type":"function"},{"inputs":[],"name":"getBlacklistedVoters","outputs":[{"internalType":"address[]","name":"","type":"address[]"}],"stateMutability":"view","type":"function"},{"inputs":[{"internalType":"bytes32","name":"_proposal","type":"bytes32"},{"internalType":"uint256","name":"_proposalDeadline","type":"uint256"},{"internalType":"address","name":"_token","type":"address"}],"name":"getBribe","outputs":[{"internalType":"address","name":"bribeToken","type":"address"},{"internalType":"uint256","name":"bribeAmount","type":"uint256"}],"stateMutability":"view","type":"function"},{"inputs":[{"internalType":"bytes32","name":"role","type":"bytes32"}],"name":"getRoleAdmin","outputs":[{"internalType":"bytes32","name":"","type":"bytes32"}],"stateMutability":"view","type":"function"},{"inputs":[],"name":"getWhitelistedTokens","outputs":[{"internalType":"address[]","name":"","type":"address[]"}],"stateMutability":"view","type":"function"},{"inputs":[{"internalType":"bytes32","name":"role","type":"bytes32"},{"internalType":"address","name":"account","type":"address"}],"name":"grantRole","outputs":[],"stateMutability":"nonpayable","type":"function"},{"inputs":[{"internalType":"address","name":"_teamMember","type":"address"}],"name":"grantTeamRole","outputs":[],"stateMutability":"nonpayable","type":"function"},{"inputs":[{"internalType":"bytes32","name":"role","type":"bytes32"},{"internalType":"address","name":"account","type":"address"}],"name":"hasRole","outputs":[{"internalType":"bool","name":"","type":"bool"}],"stateMutability":"view","type":"function"},{"inputs":[{"internalType":"address","name":"","type":"address"}],"name":"indexOfBlacklistedVoter","outputs":[{"internalType":"uint256","name":"","type":"uint256"}],"stateMutability":"view","type":"function"},{"inputs":[{"internalType":"address","name":"","type":"address"}],"name":"indexOfWhitelistedToken","outputs":[{"internalType":"uint256","name":"","type":"uint256"}],"stateMutability":"view","type":"function"},{"inputs":[{"internalType":"address","name":"_bribeVault","type":"address"},{"internalType":"address","name":"_admin","type":"address"},{"internalType":"string","name":"_protocol","type":"string"},{"internalType":"uint256","name":"_maxPeriods","type":"uint256"},{"internalType":"uint256","name":"_periodDuration","type":"uint256"}],"name":"initialize","outputs":[],"stateMutability":"nonpayable","type":"function"},{"inputs":[{"internalType":"address","name":"_voter","type":"address"}],"name":"isBlacklistedVoter","outputs":[{"internalType":"bool","name":"","type":"bool"}],"stateMutability":"view","type":"function"},{"inputs":[{"internalType":"address","name":"_token","type":"address"}],"name":"isWhitelistedToken","outputs":[{"internalType":"bool","name":"","type":"bool"}],"stateMutability":"view","type":"function"},{"inputs":[],"name":"maxPeriods","outputs":[{"internalType":"uint256","name":"","type":"uint256"}],"stateMutability":"view","type":"function"},{"inputs":[],"name":"periodDuration","outputs":[{"internalType":"uint256","name":"","type":"uint256"}],"stateMutability":"view","type":"function"},{"inputs":[{"internalType":"bytes32","name":"","type":"bytes32"}],"name":"proposalDeadlines","outputs":[{"internalType":"uint256","name":"","type":"uint256"}],"stateMutability":"view","type":"function"},{"inputs":[{"internalType":"address[]","name":"_voters","type":"address[]"}],"name":"removeBlacklistedVoters","outputs":[],"stateMutability":"nonpayable","type":"function"},{"inputs":[{"internalType":"address[]","name":"_tokens","type":"address[]"}],"name":"removeWhitelistedTokens","outputs":[],"stateMutability":"nonpayable","type":"function"},{"inputs":[{"internalType":"bytes32","name":"role","type":"bytes32"},{"internalType":"address","name":"account","type":"address"}],"name":"renounceRole","outputs":[],"stateMutability":"nonpayable","type":"function"},{"inputs":[{"internalType":"bytes32","name":"role","type":"bytes32"},{"internalType":"address","name":"account","type":"address"}],"name":"revokeRole","outputs":[],"stateMutability":"nonpayable","type":"function"},{"inputs":[{"internalType":"address","name":"_teamMember","type":"address"}],"name":"revokeTeamRole","outputs":[],"stateMutability":"nonpayable","type":"function"},{"inputs":[{"internalType":"uint256","name":"_periods","type":"uint256"}],"name":"setMaxPeriods","outputs":[],"stateMutability":"nonpayable","type":"function"},{"inputs":[{"internalType":"uint256","name":"_periodDuration","type":"uint256"}],"name":"setPeriodDuration","outputs":[],"stateMutability":"nonpayable","type":"function"},{"inputs":[{"internalType":"bytes[]","name":"_identifiers","type":"bytes[]"},{"internalType":"uint256","name":"_deadline","type":"uint256"}],"name":"setProposals","outputs":[],"stateMutability":"nonpayable","type":"function"},{"inputs":[{"internalType":"address[]","name":"_addresses","type":"address[]"},{"internalType":"uint256","name":"_deadline","type":"uint256"}],"name":"setProposalsByAddress","outputs":[],"stateMutability":"nonpayable","type":"function"},{"inputs":[{"internalType":"uint256","name":"_proposalIndex","type":"uint256"},{"internalType":"uint256","name":"_choiceCount","type":"uint256"},{"internalType":"uint256","name":"_deadline","type":"uint256"}],"name":"setProposalsById","outputs":[],"stateMutability":"nonpayable","type":"function"},{"inputs":[{"internalType":"bytes4","name":"interfaceId","type":"bytes4"}],"name":"supportsInterface","outputs":[{"internalType":"bool","name":"","type":"bool"}],"stateMutability":"view","type":"function"}],"evm":{"bytecode":{"linkReferences":{},"object":"60806040523462000027575b620000156200003d565b6040516130b76200009782396130b790f35b6200003162000037565b6200000b565b50600080fd5b6200004762000080565b565b6200005962000059620000599290565b90565b62000059600162000049565b9062000059620000596200007c9262000049565b9055565b620000476200008e6200005c565b60016200006856fe60806040526004361015610018575b6100166107f9565b005b60003560e01c806301ffc9a7146107cf5780630a254640146107a5578063114e6e731461077d5780632129831014610753578063248a9ca3146107295780632f2ff15d146107015780632fa4d218146106d757806336568abe146106af57806342a835511461068757806349d5e604146106515780635155bafa146106275780635699fbad146106005780637c2d6e01146105d95780637fb84bed146105af57806384f389a8146105875780638d23507f146105595780638e8efaee1461052f5780638fef58911461050157806391b9b827146104cb57806391d14854146104a05780639970227014610475578063a217fddf1461044b578063ab37f4861461040f578063b0b38baa146103e5578063b470aade146103bb578063bcec454f14610393578063be309bca1461034e578063cd698e6914610326578063d547741f146102fe578063d59551d2146102d6578063da606ce2146102af578063e26f790014610279578063ea24a7681461023e578063ed99c0d114610216578063f52c395a146101ef5763f7e6b46b146101ae5761000e565b346101e2575b6101c86101c2366004610ff7565b91612c11565b906101de6101d560405190565b92839283611035565b0390f35b6101ea6107f9565b6101b4565b5034610209575b6100166102043660046109d9565b6121ad565b6102116107f9565b6101f6565b5034610231575b61001661022b366004610a1a565b91612127565b6102396107f9565b61021d565b503461026c575b6101de61025b6102563660046109d9565b610fe5565b6040515b9182918290815260200190565b6102746107f9565b610245565b50346102a2575b61028b36600461084a565b6101de610296612b80565b60405191829182610f66565b6102aa6107f9565b610280565b50346102c9575b6100166102c4366004610922565b6122bd565b6102d16107f9565b6102b6565b50346102f1575b6100166102eb366004610fa7565b91611f97565b6102f96107f9565b6102dd565b5034610319575b6100166103133660046109a8565b90611257565b6103216107f9565b610305565b5034610341575b61001661033b3660046108c8565b9061263d565b6103496107f9565b61032d565b5034610386575b61036036600461084a565b6101de61036b610f9b565b6040515b918291826001600160a01b03909116815260200190565b61038e6107f9565b610355565b50346103ae575b6100166103a83660046108c8565b906127f5565b6103b66107f9565b61039a565b50346103d8575b6103cd36600461084a565b6101de61025b610f77565b6103e06107f9565b6103c2565b5034610402575b6103f736600461084a565b6101de610296612b8a565b61040a6107f9565b6103ec565b503461043e575b6101de61042c6104273660046109d9565b612cdb565b60405191829182901515815260200190565b6104466107f9565b610416565b5034610468575b61045d36600461084a565b6101de61025b610eff565b6104706107f9565b610452565b5034610493575b61001661048a366004610ea4565b93929092612a32565b61049b6107f9565b61047c565b50346104be575b6101de61042c6104b83660046109a8565b906110a5565b6104c66107f9565b6104a7565b50346104f4575b6104dd36600461084a565b6101de6104e8610e28565b60405191829182610e93565b6104fc6107f9565b6104d2565b5034610522575b610016610516366004610c71565b95949094939193612af4565b61052a6107f9565b610508565b503461054c575b6101de61025b6105473660046109d9565b610b60565b6105546107f9565b610536565b503461057a575b61001661056e366004610ab4565b94939093929192611af7565b6105826107f9565b610560565b50346105a2575b61001661059c366004610a1a565b91611e26565b6105aa6107f9565b61058e565b50346105cc575b6105c136600461084a565b6101de61025b610a12565b6105d46107f9565b6105b6565b50346105f3575b6100166105ee366004610922565b612342565b6105fb6107f9565b6105e0565b503461061a575b6100166106153660046109d9565b612238565b6106226107f9565b610607565b5034610644575b61063936600461084a565b6101de61025b6109fa565b61064c6107f9565b61062e565b503461067a575b61066336600461084a565b6101de60008051602061305483398151915261025b565b6106826107f9565b610658565b50346106a2575b61001661069c3660046108c8565b906129d9565b6106aa6107f9565b61068e565b50346106ca575b6100166106c43660046109a8565b906112c6565b6106d26107f9565b6106b6565b50346106f4575b6101de61042c6106ef3660046109d9565b612d56565b6106fc6107f9565b6106de565b503461071c575b6100166107163660046109a8565b90611114565b6107246107f9565b610708565b5034610746575b6101de61025b610741366004610922565b6110d5565b61074e6107f9565b610730565b5034610770575b6101de61025b61076b366004610922565b610969565b6107786107f9565b61075a565b5034610798575b6100166107923660046108c8565b906128e7565b6107a06107f9565b610784565b50346107c2575b6107b736600461084a565b6101de61025b610874565b6107ca6107f9565b6107ac565b50346107ec575b6101de61042c6107e7366004610822565b611056565b6107f46107f9565b6107d6565b50600080fd5b6001600160e01b031981165b14156107f957565b90503590610820826107ff565b565b906108369160208183031261083957610813565b90565b6108416107f9565b610813565b9052565b600091031261085557565b6108206107f9565b6108366108366108369290565b610836600a61085d565b61083661086a565b909182601f830112156108bb575b602082359267ffffffffffffffff84116108ae575b01926020830284011161085557565b6108b66107f9565b61089f565b6108c36107f9565b61088a565b906108f191602081830312610902575b80359067ffffffffffffffff82116108f5575b0161087c565b9091565b6108fd6107f9565b6108eb565b61090a6107f9565b6108d8565b8061080b565b905035906108208261090f565b906108369160208183031261093657610915565b61093e6107f9565b610915565b905b600052602052604060002090565b610836916008021c81565b906108369154610953565b6108369061097b600891600092610943565b61095e565b6001600160a01b031690565b6001600160a01b03811661080b565b905035906108208261098c565b9190610836906040848203126109cc575b6109c38185610915565b9360200161099b565b6109d46107f9565b6109b9565b90610836916020818303126109ed5761099b565b6109f56107f9565b61099b565b6108366000600461095e565b61083662278d0061085d565b610836610a06565b91604083830312610a5e575b610836610a4683853567ffffffffffffffff8111610a51575b860161087c565b939094602001610915565b610a596107f9565b610a3f565b610a666107f9565b610a26565b909182601f83011215610aa7575b602082359267ffffffffffffffff8411610a9a575b01928284011161085557565b610aa26107f9565b610a8e565b610aaf6107f9565b610a79565b919060a083820312610b23575b610836610ace828561099b565b93610adc836020830161099b565b93610afd84604084013567ffffffffffffffff8111610b16575b8401610a6b565b939094610b0d8160608601610915565b93608001610915565b610b1e6107f9565b610af6565b610b2b6107f9565b610ac1565b61083690610980906001600160a01b031682565b61083690610b30565b61083690610b44565b9061094590610b4d565b6108369061097b600991600092610b56565b601f01601f191690565b50634e487b7160e01b600052604160045260246000fd5b90601f01601f1916810190811067ffffffffffffffff821117610bb557604052565b610bbd610b7c565b604052565b90610820610bcf60405190565b9283610b93565b610bf560209167ffffffffffffffff8111610bf957601f01601f191690565b0190565b610b72610b7c565b90826000939282370152565b92919061082091610c25610c2083610bd6565b610bc2565b94828652602086019183820111610c3b57610c01565b610c436107f9565b610c01565b906108369181601f82011215610c64575b602081359101610c0d565b610c6c6107f9565b610c59565b60e081830312610cf9575b610c868282610915565b92610c94836020840161099b565b92610ca28160408501610915565b92610cb08260608301610915565b92610836610cc18460808501610915565b93610ccf8160a08601610915565b9360c08101359067ffffffffffffffff8211610cec575b01610c48565b610cf46107f9565b610ce6565b610d016107f9565b610c7c565b50634e487b7160e01b600052600060045260246000fd5b50634e487b7160e01b600052602260045260246000fd5b9060016002830492168015610d57575b6020831014610d4f57565b610820610d1d565b91607f1691610d44565b80546000939291610d7e610d7483610d34565b8085529360200190565b9160018116908115610dd05750600114610d9757505050565b610daa9192939450600052602060002090565b916000925b818410610dbc5750500190565b805484840152602090930192600101610daf565b60ff191683525050602001925050565b9061083691610d61565b90610820610e0492610dfb60405190565b93848092610de0565b0383610b93565b60006108369211610e1b57610dea565b610e23610d06565b610dea565b61083660006002610e0b565b918091926000905b828210610e54575011610e4d575050565b6000910152565b91508060209183015181860152018291610e3c565b610e8a610b72602093610bf593610e7e815190565b80835293849260200190565b95869101610e34565b602080825261083692910190610e69565b919060a083820312610ee8575b610ebb8184610915565b92610ec9826020830161099b565b92610836610eda8460408501610915565b93610b0d8160608601610915565b610ef06107f9565b610eb1565b610836600061085d565b610836610ef5565b90610f27610f20610f16845190565b8084529260200190565b9260200190565b9060005b818110610f385750505090565b909192610f5e610f5760019286516001600160a01b0316815260200190565b9460200190565b929101610f2b565b602080825261083692910190610f07565b6108366000600561095e565b610836916008021c610980565b906108369154610f83565b61083660006003610f90565b9091606082840312610fd8575b610836610fc18484610915565b93610fcf8160208601610915565b93604001610915565b610fe06107f9565b610fb4565b6108369061097b600a91600092610b56565b9091606082840312611028575b6108366110118484610915565b9361101f8160208601610915565b9360400161099b565b6110306107f9565b611004565b6001600160a01b0390911681526040810192916108209160200152565b0152565b637965db0b60e01b6001600160e01b0319821614908115611075575090565b61083691506001600160e01b0319166301ffc9a760e01b1490565b610836905b60ff1690565b6108369054611090565b610836916110bf916110b960009182610943565b01610b56565b61109b565b6108369081565b61083690546110c4565b60016110ee610836926110e6600090565b506000610943565b016110cb565b906108209161110a611105826110d5565b61111e565b9061082091611316565b90610820916110f4565b6108209033906111ae565b6108369061085d565b610bf561114a92602092611144815190565b94859290565b93849101610e34565b611191610836939261118b61118b937f416363657373436f6e74726f6c3a206163636f756e7420000000000000000000815260170190565b90611132565b7001034b99036b4b9b9b4b733903937b6329607d1b815260110190565b906111c06111bc82846110a5565b1590565b6111c8575050565b6112389250906108366111e66111e0611220946116a2565b92611129565b6111fb6020916111f58361085d565b90611542565b9261121461120860405190565b94859384019283611153565b90810382520382610b93565b60405162461bcd60e51b815291829160048301610e93565b0390fd5b906108209161124d611105826110d5565b906108209161138c565b906108209161123c565b1561126857565b5060405162461bcd60e51b815260206004820152602f60248201527f416363657373436f6e74726f6c3a2063616e206f6e6c792072656e6f756e636560448201526e103937b632b9903337b91039b2b63360891b6064820152608490fd5b61082091906112e76112d733610980565b6001600160a01b03841614611261565b61138c565b9060ff905b9181191691161790565b9061130b61083661131292151590565b82546112ec565b9055565b906113246111bc82846110a5565b61132c575050565b61134660016113418360006110b98782610943565b6112fb565b339061137c6113766113767f2f8788117e7eff1d82e926ec794901d17c78024a50270940304540a733656f0d9590565b92610b4d565b9261138660405190565b600090a4565b9061139781836110a5565b61139f575050565b6113b3600061134183826110b98782610943565b339061137c6113766113767ff6391f5c32d9c69d2a47ea670b442974b53935d1edc7fd64eb21e047a839171b9590565b50634e487b7160e01b600052601160045260246000fd5b90611404565b9190565b908060001904821181151516611418570290565b6114206113e3565b0290565b81198111611430570190565b610bf56113e3565b90611445610c2083610bd6565b918252565b369037565b9061082061146561145f84611438565b93610bd6565b601f19016020840161144a565b50634e487b7160e01b600052603260045260246000fd5b906001602091611497845190565b8110156114a5575b02010190565b6114ad611472565b61149f565b60019080156114bf570390565b6114c76113e3565b0390565b6110956108366108369290565b610836906114ec6114006108369460ff1690565b901c90565b156114f857565b5060405162461bcd60e51b815280611238600482016020808252818101527f537472696e67733a20686578206c656e67746820696e73756666696369656e74604082015260600190565b919060029061157361156e61155f8361155a8661085d565b6113fa565b6115688561085d565b90611424565b61144f565b91600091603061158b6115858561085d565b86611489565b536115c36115ba600f60fb1b9261155a6001958695881a6115b46115ae8861085d565b8b611489565b5361085d565b6115688361085d565b915b6115e6575b505061083692936115e06114006108369361085d565b146114f1565b90946115f18261085d565b8611156116705761165d611657839261163a61161d6f181899199a1a9b1b9c1cb0b131b232b360811b90565b611627600f61085d565b83166010811015611663575b1a60f81b90565b861a6116468a89611489565b5361165160046114cb565b906114d8565b966114b2565b916115c5565b61166b611472565b611633565b946115ca565b6108369081906001600160a01b031681565b61083660146114cb565b6108366108366108369260ff1690565b6116bf6116ba610836926116b4606090565b50610b44565b611676565b6111f56116ca611688565b611692565b94939291906116de600b61109b565b6116f7576116eb9561196d565b6108206001600b6112fb565b5050505050505061170760405190565b62dc149f60e41b8152600490fd5b6109806108366108369290565b61083690611715565b906001600160a01b03906112f1565b9061174a61083661131292610b4d565b825461172b565b9160001960089290920291821b911b6112f1565b91906117766108366113129361085d565b908354611751565b61082091600091611765565b818110611795575050565b806117a3600060019361177e565b0161178a565b9190601f81116117b857505050565b6117ca61082093600052602060002090565b906020601f8401819004830193106117ec575b6020601f90910104019061178a565b90915081906117dd565b919067ffffffffffffffff82116118c1575b61181c826118168554610d34565b856117a9565b600090601f83116001146118575761131292916000918361184c575b5050600019600883021c1916906002021790565b013590503880611838565b601f1983169161186c85600052602060002090565b92815b8181106118a957509160029391856001969410611890575b50505002019055565b0135600019601f84166008021c19169055388080611887565b9193602060018192878701358155019501920161186f565b6118c9610b7c565b611808565b9061082092916117f6565b90600019906112f1565b906118f36108366113129261085d565b82546118d9565b9190610b728161191181610bf59560209181520190565b8095610c01565b9161105291610820969897956080956119586119659461194860a089019560008a01906001600160a01b03169052565b6001600160a01b03166020880152565b85830360408701526118fa565b966060830152565b9291949093600061198061098082611722565b6001600160a01b03861614611ad7578361199a565b905090565b6119a66114008361085d565b14611ab7576119b48161085d565b82148015611aa4575b611a84576119ca9061085d565b82148015611a71575b611a5257611a4d926119e685600361173a565b6119f2818860026118ce565b6119fd8260046118e3565b611a088360056118e3565b611a1986611a14610ef5565b611316565b7fa80caddab9a93c4df4f67cd3ee3490472325e6903e29687fc5904cef451041f996611a4460405190565b96879687611918565b0390a1565b50505050505050611a6260405190565b634f08daf360e11b8152600490fd5b50611a7d610836610a06565b82116119d3565b5050505050505050611a9560405190565b63c17d8a0360e01b8152600490fd5b50611ab061083661086a565b82116119bd565b5050505050505050611ac860405190565b6301fc71f560e21b8152600490fd5b5050505050505050611ae860405190565b63e6c4247b60e01b8152600490fd5b9061082095949392916116cf565b9190611b0f610ef5565b611b1d6111bc3380936110a5565b9081611b4e575b50611b325761082092611cb6565b50505050611b3f60405190565b63ea8e4eb560e01b8152600490fd5b611b6b91506111bc906000805160206130548339815191526110a5565b38611b24565b6020809167ffffffffffffffff8111611b8957020190565b611b91610b7c565b020190565b90611445610c2083611b71565b90610820611465611bb384611b96565b93611b71565b903590601e193682900301821215611bfd575b01602081359167ffffffffffffffff8311611bf0575b019136829003831361085557565b611bf86107f9565b611be2565b611c056107f9565b611bcc565b906108f192602091811015611c23575b02810190611bb9565b611c2b611472565b611c1a565b9091610bf59083908093610c01565b909161083692611c30565b9060208091611497845190565b6001906000198114611430570190565b90611c76610f20610f16845190565b9060005b818110611c875750505090565b909192611c9d610f576001928651815260200190565b929101611c7a565b602080825261083692910190611c67565b929181926000611cc58161085d565b8514611e1757428310611df957611cdb85611ba3565b9160009560015b15611d9f575b8296611cf861199582898c611c0a565b611d046114008661085d565b14611d7e5780611d59611214611d39611d21611d78958c8f611c0a565b90611d2b60405190565b938492602084019283611c3f565b611d4b611d44825190565b9160200190565b20611d568389611c4a565b52565b611d7387611d6e611d6a848a611c4a565b5190565b613044565b611c57565b96611ce2565b505050505050505050611d9060405190565b63eb48439160e01b8152600490fd5b80871015611dac57611ce8565b5095505092509050611df4611de17f8c852cad34f901531c4a1328ddfefbc6152fbd45aa7eb38890e74f351d8493a69261085d565b92611deb60405190565b91829182611ca5565b0390a2565b505050505050611e0860405190565b631da7447960e21b8152600490fd5b505050505050611ae860405190565b906108209291611b05565b9190611e3b610ef5565b611e496111bc3380936110a5565b9081611e5e575b50611b325761082092611e87565b611e7b91506111bc906000805160206130548339815191526110a5565b38611e50565b01918252565b9190916000611e958161085d565b8414611f7a57428310611f6c57611eab84611ba3565b9460009460015b15611f15575b611f0f8396611efe611ec960405190565b611ee88160208101611214868c83602081611e81610bf5938396959052565b611ef3611d44825190565b20611d56838c611c4a565b611d7387611d6e611d6a848d611c4a565b95611eb2565b80861015611f2257611eb8565b5094935050611f67611f5d611f577fc3c3780ed921778d05400bdfaf133352f1c8ce56e4ce47391118f53a22103cce9361085d565b9361085d565b93611deb60405190565b0390a3565b5050505050611e0860405190565b5050505050611f8860405190565b633d25757960e01b8152600490fd5b906108209291611e31565b9190611fac610ef5565b611fba6111bc3380936110a5565b9081611fcf575b50611b325761082092612033565b611fec91506111bc906000805160206130548339815191526110a5565b38611fc1565b9160209181101561200257020190565b611b91611472565b356108368161098c565b610846906001600160a01b031660601b90565b610bf581601493612014565b909291839260006120438161085d565b8514611e1757428310611df95761205985611ba3565b9160009560015b156120e5575b829661207b612076828b8a611ff2565b61200a565b61209761208a61098087611722565b916001600160a01b031690565b146120d35780611d596120b16120766120cd948d8c611ff2565b611d396120bd60405190565b8092611214602083019182612027565b96612060565b505050505050505050611ae860405190565b808710156120f257612066565b5095505092509050611df4611de17fa9411f55f4ccd3f63f1f6236481c2f6b385a4221287184e89ca4c40792f8224e9261085d565b906108209291611fa2565b61082090612141611105610ef5565b61214e6109806000611722565b6001600160a01b038216146121a35761217581600080516020613054833981519152611316565b611a4d7fd36b0989e598a1b05388150a9a8c84925e2710d91910406b8735e01f3ed028179161036f60405190565b5050604051611ae8565b61082090612132565b610820906121c5611105610ef5565b6000805160206130548339815191526121e16111bc83836110a5565b61221d57816121ef9161138c565b611a4d7f708bd40f8f4d2ad60032caea0582161d35c50177cc0b2c575b5d483bd2902caa9161036f60405190565b50505061222960405190565b632793ed7d60e01b8152600490fd5b610820906121b6565b61082090612250611105610ef5565b61225a600061085d565b811480156122aa575b6122a0576122728160046118e3565b611a4d7fbff777c073bd9101dd1e419471fe91c54c9ffe380882bca8eb1fcf75d6086f779161025f60405190565b5050604051611a95565b506122b661083661086a565b8111612263565b61082090612241565b610820906122d5611105610ef5565b6122df600061085d565b8114801561232f575b612325576122f78160056118e3565b611a4d7f7d7455c70e1855cfeb6ff84fe7b6d37efcfdaee91c05f2e25a55368f50ba7b5a9161025f60405190565b5050604051611a62565b5061233b610836610a06565b81116122e8565b610820906122c6565b90612354610ef5565b6123626111bc3380936110a5565b9081612383575b5061237757610820916124e1565b505050611b3f60405190565b6123a091506111bc906000805160206130548339815191526110a5565b38612369565b61083690610980565b61083690546123a6565b6123d96001916123c7815490565b8410156123e257600052602060002090565b91020190600090565b6123ea611472565b600052602060002090565b916001600160a01b0360089290920291821b911b6112f1565b919061241f61083661131293610b4d565b9083546123f5565b9061244f6108209280549068010000000000000000821015612455575b6001820181556123b9565b9061240e565b61245d610b7c565b612444565b8181106114bf570390565b5061083690602081019061099b565b818352602090920191906000825b828210612498575050505090565b909192936124c76124c06001926124af888661246d565b6001600160a01b0316815260200190565b9560200190565b9392019061248a565b60208082526108369391019161247c565b909190829160005b835b81101561260157612500612076828786611ff2565b61251061208a6109806000611722565b146125f357612523612076828786611ff2565b61253361208a61098060036123af565b146125d657612549610427612076838887611ff2565b6125b9576124eb906125b2906125ac61258e61257e600661257a89612574612076888f865b94611ff2565b90612427565b5490565b612588600161085d565b90612462565b6125a760096125a1612076868d8c611ff2565b90610b56565b6118e3565b60010190565b90506124e9565b50505050506125c760405190565b63241d2edf60e01b8152600490fd5b50505050506125e460405190565b63a122bf3960e01b8152600490fd5b5050505050611ae860405190565b50929091507fe7e9e18eae0a1664f98ba7e59eda81692d5802c7e9bd75bb0261f3fc6fd4a49391611a4d61263460405190565b928392836124d0565b906108209161234b565b90612650610ef5565b61265e6111bc3380936110a5565b9081612673575b5061237757610820916126ef565b61269091506111bc906000805160206130548339815191526110a5565b38612665565b50634e487b7160e01b600052603160045260246000fd5b6108209160009161240e565b60016126c3825490565b80156126e2575b03906126df6126d983836123b9565b906126ad565b55565b6126ea612696565b6126ca565b909190829160005b835b8110156127c2576127146111bc610427612076848988611ff2565b6127a55761279e816125ac61279961275461083660006127948a6125a16120768f9b6126f99c60099461278f61275f61275a612754612076878787611ff2565b89610b56565b6110cb565b6125a78160069d8e61244f61278761278161277b61257e855490565b846123b9565b90610f90565b9384926123b9565b611ff2565b61177e565b6126b9565b90506126f7565b50505050506127b360405190565b6307c241ad60e51b8152600490fd5b50929091507fc18397a78d98d67911be09b9c32315c4b8db0454529f84f856e61f537494cbfc91611a4d61263460405190565b9061082091612647565b906108209161280f611105610ef5565b909190829160005b835b8110156128b45761282e612076828786611ff2565b61283e61208a6109806000611722565b146125f3576128546106ef612076838887611ff2565b6128975761281990612890906125ac61287d61257e600761257a89612574612076888f8661256e565b6125a7600a6125a1612076868d8c611ff2565b9050612817565b50505050506128a560405190565b6336650e8f60e11b8152600490fd5b50929091507f8ff2887f41c4af26bbcadf0889537a4641e2d1d6d9fa287feaf683a76096efd891611a4d61263460405190565b90610820916127ff565b9061082091612901611105610ef5565b909190829160005b835b8110156129a6576129266111bc6106ef612076848988611ff2565b61298957612982816125ac61279961275461083660006127948a6125a16120768f9b61290b9c600a9461278f61296661275a612754612076878787611ff2565b6125a78160079d8e61244f61278761278161277b61257e855490565b9050612909565b505050505061299760405190565b637463712b60e01b8152600490fd5b50929091507fa520ff964bc029411023e3f0e20bf29e54c023e5e23b0e28d0de3ae5d4231a9e91611a4d61263460405190565b90610820916128f1565b906129f8949392916129f3612a96565b612a12565b610820612ac8565b6108366000611438565b610836612a00565b92610820949192612a23600061085d565b93612a2c612a0a565b95612e44565b90610820949392916129e3565b610836600261085d565b15612a5057565b5060405162461bcd60e51b815260206004820152601f60248201527f5265656e7472616e637947756172643a207265656e7472616e742063616c6c006044820152606490fd5b610820612aa360016110cb565b612ab7612aae612a3f565b91821415612a49565b60016118e3565b610836600161085d565b610820612ab7612abe565b906129f8969594939291612ae5612a96565b90610820969594939291612e44565b90610820969594939291612ad3565b90612b1e612b12610f16845490565b92600052602060002090565b9060005b818110612b2f5750505090565b909192612b4b612b446001926124af876123af565b9460010190565b929101612b22565b9061083691612b03565b90610820610e0492612b6e60405190565b93848092612b53565b61083690612b5d565b6108366006612b77565b6108366007612b77565b92612bb16020610bf594611e81601488611e81829b9a8699612014565b018092612014565b905051906108208261098c565b905051906108208261090f565b919061083690604084820312612bf7575b612bee8185612bb9565b93602001612bc6565b612bff6107f9565b612be4565b506040513d6000823e3d90fd5b91612c9992612c8b604093612c24600090565b50612c68612c3d612c38612c3860036123af565b610b4d565b93632c4ef0d595611214612c5030610b4d565b91612c5a60405190565b958694602086019485612b94565b612c73611d44825190565b2092612c7e60405190565b9586948593849360e01b90565b835260048301526024820190565b03915afa908115612cce575b600080919092612cb457509091565b90506108f19150612cc53d82610b93565b3d810190612bd3565b612cd6612c04565b612ca5565b600690612ce6825490565b600090612cf56114008361085d565b14612d5057612d0861275a836009610b56565b612d146114008361085d565b1415928315612d24575b50505090565b612d4792935061278161208a92612d3a926123b9565b926001600160a01b031690565b14388080612d1e565b91505090565b600790612d61825490565b600090612d706114008361085d565b14612d5057612d0861275a83600a610b56565b610836610140610bc2565b805182526020808201516001600160a01b03169083015261083691610140810191610120906040818101516001600160a01b031690840152612dd560608201516060850152565b612de460808201516080850152565b612df360a082015160a0850152565b612e0260c082015160c0850152565b612e1160e082015160e0850152565b612e22610100820151610100850152565b015190610120818403910152610e69565b602080825261083692910190612d8e565b9394959095612e5761275a866008610943565b42811061302357600097612e6a8961085d565b8814801561300e575b612fec57612e836109808a611722565b6001600160a01b03821614612fd957612e9e6111bc82612cdb565b612fc657612eab8961085d565b8514612fa4578897612ebd60036123af565b612ec690610b4d565b612ecf90610b4d565b96635c2a802b9633612ee160056110cb565b94612eea612d83565b9b612ef5908e8e0152565b6001600160a01b031660208c01526001600160a01b031660408b015260608a0152608089015260a088015260c087015260e0860152610100850152610120840152612f6194612f5691833b15612f97575b6040519687958694859360e01b90565b835260048301612e33565b03925af18015612f8a575b612f735750565b61082090612f813d82610b93565b3d81019061084a565b612f92612c04565b612f6c565b612f9f6107f9565b612f46565b50505050505050505050612fb760405190565b63162908e360e11b8152600490fd5b505050505050505050506127b360405190565b50505050505050505050611ae860405190565b50505050505050505050612fff60405190565b6302e8f35960e31b8152600490fd5b5061301c61083660046110cb565b8811612e73565b50505050505050505061303560405190565b63387b2e5560e11b8152600490fd5b906125a761082092600861094356fe5146a08baf902532d0ee2f909971144f12ca32651cd70cbee1117cddfb3b3b33a36469706673582212203de87fe65e419580b394cc648a6887356af0210ace8c733dc23f090de2bfc3116c6578706572696d656e74616cf564736f6c634300080c0041","opcodes":"PUSH1 0x80 PUSH1 0x40 MSTORE CALLVALUE PUSH3 0x27 JUMPI JUMPDEST PUSH3 0x15 PUSH3 0x3D JUMP JUMPDEST PUSH1 0x40 MLOAD PUSH2 0x30B7 PUSH3 0x97 DUP3 CODECOPY PUSH2 0x30B7 SWAP1 RETURN JUMPDEST PUSH3 0x31 PUSH3 0x37 JUMP JUMPDEST PUSH3 0xB JUMP JUMPDEST POP PUSH1 0x0 DUP1 REVERT JUMPDEST PUSH3 0x47 PUSH3 0x80 JUMP JUMPDEST JUMP JUMPDEST PUSH3 0x59 PUSH3 0x59 PUSH3 0x59 SWAP3 SWAP1 JUMP JUMPDEST SWAP1 JUMP JUMPDEST PUSH3 0x59 PUSH1 0x1 PUSH3 0x49 JUMP JUMPDEST SWAP1 PUSH3 0x59 PUSH3 0x59 PUSH3 0x7C SWAP3 PUSH3 0x49 JUMP JUMPDEST SWAP1 SSTORE JUMP JUMPDEST PUSH3 0x47 PUSH3 0x8E PUSH3 0x5C JUMP JUMPDEST PUSH1 0x1 PUSH3 0x68 JUMP INVALID PUSH1 0x80 PUSH1 0x40 MSTORE PUSH1 0x4 CALLDATASIZE LT ISZERO PUSH2 0x18 JUMPI JUMPDEST PUSH2 0x16 PUSH2 0x7F9 JUMP JUMPDEST STOP JUMPDEST PUSH1 0x0 CALLDATALOAD PUSH1 0xE0 SHR DUP1 PUSH4 0x1FFC9A7 EQ PUSH2 0x7CF JUMPI DUP1 PUSH4 0xA254640 EQ PUSH2 0x7A5 JUMPI DUP1 PUSH4 0x114E6E73 EQ PUSH2 0x77D JUMPI DUP1 PUSH4 0x21298310 EQ PUSH2 0x753 JUMPI DUP1 PUSH4 0x248A9CA3 EQ PUSH2 0x729 JUMPI DUP1 PUSH4 0x2F2FF15D EQ PUSH2 0x701 JUMPI DUP1 PUSH4 0x2FA4D218 EQ PUSH2 0x6D7 JUMPI DUP1 PUSH4 0x36568ABE EQ PUSH2 0x6AF JUMPI DUP1 PUSH4 0x42A83551 EQ PUSH2 0x687 JUMPI DUP1 PUSH4 0x49D5E604 EQ PUSH2 0x651 JUMPI DUP1 PUSH4 0x5155BAFA EQ PUSH2 0x627 JUMPI DUP1 PUSH4 0x5699FBAD EQ PUSH2 0x600 JUMPI DUP1 PUSH4 0x7C2D6E01 EQ PUSH2 0x5D9 JUMPI DUP1 PUSH4 0x7FB84BED EQ PUSH2 0x5AF JUMPI DUP1 PUSH4 0x84F389A8 EQ PUSH2 0x587 JUMPI DUP1 PUSH4 0x8D23507F EQ PUSH2 0x559 JUMPI DUP1 PUSH4 0x8E8EFAEE EQ PUSH2 0x52F JUMPI DUP1 PUSH4 0x8FEF5891 EQ PUSH2 0x501 JUMPI DUP1 PUSH4 0x91B9B827 EQ PUSH2 0x4CB JUMPI DUP1 PUSH4 0x91D14854 EQ PUSH2 0x4A0 JUMPI DUP1 PUSH4 0x99702270 EQ PUSH2 0x475 JUMPI DUP1 PUSH4 0xA217FDDF EQ PUSH2 0x44B JUMPI DUP1 PUSH4 0xAB37F486 EQ PUSH2 0x40F JUMPI DUP1 PUSH4 0xB0B38BAA EQ PUSH2 0x3E5 JUMPI DUP1 PUSH4 0xB470AADE EQ PUSH2 0x3BB JUMPI DUP1 PUSH4 0xBCEC454F EQ PUSH2 0x393 JUMPI DUP1 PUSH4 0xBE309BCA EQ PUSH2 0x34E JUMPI DUP1 PUSH4 0xCD698E69 EQ PUSH2 0x326 JUMPI DUP1 PUSH4 0xD547741F EQ PUSH2 0x2FE JUMPI DUP1 PUSH4 0xD59551D2 EQ PUSH2 0x2D6 JUMPI DUP1 PUSH4 0xDA606CE2 EQ PUSH2 0x2AF JUMPI DUP1 PUSH4 0xE26F7900 EQ PUSH2 0x279 JUMPI DUP1 PUSH4 0xEA24A768 EQ PUSH2 0x23E JUMPI DUP1 PUSH4 0xED99C0D1 EQ PUSH2 0x216 JUMPI DUP1 PUSH4 0xF52C395A EQ PUSH2 0x1EF JUMPI PUSH4 0xF7E6B46B EQ PUSH2 0x1AE JUMPI PUSH2 0xE JUMP JUMPDEST CALLVALUE PUSH2 0x1E2 JUMPI JUMPDEST PUSH2 0x1C8 PUSH2 0x1C2 CALLDATASIZE PUSH1 0x4 PUSH2 0xFF7 JUMP JUMPDEST SWAP2 PUSH2 0x2C11 JUMP JUMPDEST SWAP1 PUSH2 0x1DE PUSH2 0x1D5 PUSH1 0x40 MLOAD SWAP1 JUMP JUMPDEST SWAP3 DUP4 SWAP3 DUP4 PUSH2 0x1035 JUMP JUMPDEST SUB SWAP1 RETURN JUMPDEST PUSH2 0x1EA PUSH2 0x7F9 JUMP JUMPDEST PUSH2 0x1B4 JUMP JUMPDEST POP CALLVALUE PUSH2 0x209 JUMPI JUMPDEST PUSH2 0x16 PUSH2 0x204 CALLDATASIZE PUSH1 0x4 PUSH2 0x9D9 JUMP JUMPDEST PUSH2 0x21AD JUMP JUMPDEST PUSH2 0x211 PUSH2 0x7F9 JUMP JUMPDEST PUSH2 0x1F6 JUMP JUMPDEST POP CALLVALUE PUSH2 0x231 JUMPI JUMPDEST PUSH2 0x16 PUSH2 0x22B CALLDATASIZE PUSH1 0x4 PUSH2 0xA1A JUMP JUMPDEST SWAP2 PUSH2 0x2127 JUMP JUMPDEST PUSH2 0x239 PUSH2 0x7F9 JUMP JUMPDEST PUSH2 0x21D JUMP JUMPDEST POP CALLVALUE PUSH2 0x26C JUMPI JUMPDEST PUSH2 0x1DE PUSH2 0x25B PUSH2 0x256 CALLDATASIZE PUSH1 0x4 PUSH2 0x9D9 JUMP JUMPDEST PUSH2 0xFE5 JUMP JUMPDEST PUSH1 0x40 MLOAD JUMPDEST SWAP2 DUP3 SWAP2 DUP3 SWAP1 DUP2 MSTORE PUSH1 0x20 ADD SWAP1 JUMP JUMPDEST PUSH2 0x274 PUSH2 0x7F9 JUMP JUMPDEST PUSH2 0x245 JUMP JUMPDEST POP CALLVALUE PUSH2 0x2A2 JUMPI JUMPDEST PUSH2 0x28B CALLDATASIZE PUSH1 0x4 PUSH2 0x84A JUMP JUMPDEST PUSH2 0x1DE PUSH2 0x296 PUSH2 0x2B80 JUMP JUMPDEST PUSH1 0x40 MLOAD SWAP2 DUP3 SWAP2 DUP3 PUSH2 0xF66 JUMP JUMPDEST PUSH2 0x2AA PUSH2 0x7F9 JUMP JUMPDEST PUSH2 0x280 JUMP JUMPDEST POP CALLVALUE PUSH2 0x2C9 JUMPI JUMPDEST PUSH2 0x16 PUSH2 0x2C4 CALLDATASIZE PUSH1 0x4 PUSH2 0x922 JUMP JUMPDEST PUSH2 0x22BD JUMP JUMPDEST PUSH2 0x2D1 PUSH2 0x7F9 JUMP JUMPDEST PUSH2 0x2B6 JUMP JUMPDEST POP CALLVALUE PUSH2 0x2F1 JUMPI JUMPDEST PUSH2 0x16 PUSH2 0x2EB CALLDATASIZE PUSH1 0x4 PUSH2 0xFA7 JUMP JUMPDEST SWAP2 PUSH2 0x1F97 JUMP JUMPDEST PUSH2 0x2F9 PUSH2 0x7F9 JUMP JUMPDEST PUSH2 0x2DD JUMP JUMPDEST POP CALLVALUE PUSH2 0x319 JUMPI JUMPDEST PUSH2 0x16 PUSH2 0x313 CALLDATASIZE PUSH1 0x4 PUSH2 0x9A8 JUMP JUMPDEST SWAP1 PUSH2 0x1257 JUMP JUMPDEST PUSH2 0x321 PUSH2 0x7F9 JUMP JUMPDEST PUSH2 0x305 JUMP JUMPDEST POP CALLVALUE PUSH2 0x341 JUMPI JUMPDEST PUSH2 0x16 PUSH2 0x33B CALLDATASIZE PUSH1 0x4 PUSH2 0x8C8 JUMP JUMPDEST SWAP1 PUSH2 0x263D JUMP JUMPDEST PUSH2 0x349 PUSH2 0x7F9 JUMP JUMPDEST PUSH2 0x32D JUMP JUMPDEST POP CALLVALUE PUSH2 0x386 JUMPI JUMPDEST PUSH2 0x360 CALLDATASIZE PUSH1 0x4 PUSH2 0x84A JUMP JUMPDEST PUSH2 0x1DE PUSH2 0x36B PUSH2 0xF9B JUMP JUMPDEST PUSH1 0x40 MLOAD JUMPDEST SWAP2 DUP3 SWAP2 DUP3 PUSH1 0x1 PUSH1 0x1 PUSH1 0xA0 SHL SUB SWAP1 SWAP2 AND DUP2 MSTORE PUSH1 0x20 ADD SWAP1 JUMP JUMPDEST PUSH2 0x38E PUSH2 0x7F9 JUMP JUMPDEST PUSH2 0x355 JUMP JUMPDEST POP CALLVALUE PUSH2 0x3AE JUMPI JUMPDEST PUSH2 0x16 PUSH2 0x3A8 CALLDATASIZE PUSH1 0x4 PUSH2 0x8C8 JUMP JUMPDEST SWAP1 PUSH2 0x27F5 JUMP JUMPDEST PUSH2 0x3B6 PUSH2 0x7F9 JUMP JUMPDEST PUSH2 0x39A JUMP JUMPDEST POP CALLVALUE PUSH2 0x3D8 JUMPI JUMPDEST PUSH2 0x3CD CALLDATASIZE PUSH1 0x4 PUSH2 0x84A JUMP JUMPDEST PUSH2 0x1DE PUSH2 0x25B PUSH2 0xF77 JUMP JUMPDEST PUSH2 0x3E0 PUSH2 0x7F9 JUMP JUMPDEST PUSH2 0x3C2 JUMP JUMPDEST POP CALLVALUE PUSH2 0x402 JUMPI JUMPDEST PUSH2 0x3F7 CALLDATASIZE PUSH1 0x4 PUSH2 0x84A JUMP JUMPDEST PUSH2 0x1DE PUSH2 0x296 PUSH2 0x2B8A JUMP JUMPDEST PUSH2 0x40A PUSH2 0x7F9 JUMP JUMPDEST PUSH2 0x3EC JUMP JUMPDEST POP CALLVALUE PUSH2 0x43E JUMPI JUMPDEST PUSH2 0x1DE PUSH2 0x42C PUSH2 0x427 CALLDATASIZE PUSH1 0x4 PUSH2 0x9D9 JUMP JUMPDEST PUSH2 0x2CDB JUMP JUMPDEST PUSH1 0x40 MLOAD SWAP2 DUP3 SWAP2 DUP3 SWAP1 ISZERO ISZERO DUP2 MSTORE PUSH1 0x20 ADD SWAP1 JUMP JUMPDEST PUSH2 0x446 PUSH2 0x7F9 JUMP JUMPDEST PUSH2 0x416 JUMP JUMPDEST POP CALLVALUE PUSH2 0x468 JUMPI JUMPDEST PUSH2 0x45D CALLDATASIZE PUSH1 0x4 PUSH2 0x84A JUMP JUMPDEST PUSH2 0x1DE PUSH2 0x25B PUSH2 0xEFF JUMP JUMPDEST PUSH2 0x470 PUSH2 0x7F9 JUMP JUMPDEST PUSH2 0x452 JUMP JUMPDEST POP CALLVALUE PUSH2 0x493 JUMPI JUMPDEST PUSH2 0x16 PUSH2 0x48A CALLDATASIZE PUSH1 0x4 PUSH2 0xEA4 JUMP JUMPDEST SWAP4 SWAP3 SWAP1 SWAP3 PUSH2 0x2A32 JUMP JUMPDEST PUSH2 0x49B PUSH2 0x7F9 JUMP JUMPDEST PUSH2 0x47C JUMP JUMPDEST POP CALLVALUE PUSH2 0x4BE JUMPI JUMPDEST PUSH2 0x1DE PUSH2 0x42C PUSH2 0x4B8 CALLDATASIZE PUSH1 0x4 PUSH2 0x9A8 JUMP JUMPDEST SWAP1 PUSH2 0x10A5 JUMP JUMPDEST PUSH2 0x4C6 PUSH2 0x7F9 JUMP JUMPDEST PUSH2 0x4A7 JUMP JUMPDEST POP CALLVALUE PUSH2 0x4F4 JUMPI JUMPDEST PUSH2 0x4DD CALLDATASIZE PUSH1 0x4 PUSH2 0x84A JUMP JUMPDEST PUSH2 0x1DE PUSH2 0x4E8 PUSH2 0xE28 JUMP JUMPDEST PUSH1 0x40 MLOAD SWAP2 DUP3 SWAP2 DUP3 PUSH2 0xE93 JUMP JUMPDEST PUSH2 0x4FC PUSH2 0x7F9 JUMP JUMPDEST PUSH2 0x4D2 JUMP JUMPDEST POP CALLVALUE PUSH2 0x522 JUMPI JUMPDEST PUSH2 0x16 PUSH2 0x516 CALLDATASIZE PUSH1 0x4 PUSH2 0xC71 JUMP JUMPDEST SWAP6 SWAP5 SWAP1 SWAP5 SWAP4 SWAP2 SWAP4 PUSH2 0x2AF4 JUMP JUMPDEST PUSH2 0x52A PUSH2 0x7F9 JUMP JUMPDEST PUSH2 0x508 JUMP JUMPDEST POP CALLVALUE PUSH2 0x54C JUMPI JUMPDEST PUSH2 0x1DE PUSH2 0x25B PUSH2 0x547 CALLDATASIZE PUSH1 0x4 PUSH2 0x9D9 JUMP JUMPDEST PUSH2 0xB60 JUMP JUMPDEST PUSH2 0x554 PUSH2 0x7F9 JUMP JUMPDEST PUSH2 0x536 JUMP JUMPDEST POP CALLVALUE PUSH2 0x57A JUMPI JUMPDEST PUSH2 0x16 PUSH2 0x56E CALLDATASIZE PUSH1 0x4 PUSH2 0xAB4 JUMP JUMPDEST SWAP5 SWAP4 SWAP1 SWAP4 SWAP3 SWAP2 SWAP3 PUSH2 0x1AF7 JUMP JUMPDEST PUSH2 0x582 PUSH2 0x7F9 JUMP JUMPDEST PUSH2 0x560 JUMP JUMPDEST POP CALLVALUE PUSH2 0x5A2 JUMPI JUMPDEST PUSH2 0x16 PUSH2 0x59C CALLDATASIZE PUSH1 0x4 PUSH2 0xA1A JUMP JUMPDEST SWAP2 PUSH2 0x1E26 JUMP JUMPDEST PUSH2 0x5AA PUSH2 0x7F9 JUMP JUMPDEST PUSH2 0x58E JUMP JUMPDEST POP CALLVALUE PUSH2 0x5CC JUMPI JUMPDEST PUSH2 0x5C1 CALLDATASIZE PUSH1 0x4 PUSH2 0x84A JUMP JUMPDEST PUSH2 0x1DE PUSH2 0x25B PUSH2 0xA12 JUMP JUMPDEST PUSH2 0x5D4 PUSH2 0x7F9 JUMP JUMPDEST PUSH2 0x5B6 JUMP JUMPDEST POP CALLVALUE PUSH2 0x5F3 JUMPI JUMPDEST PUSH2 0x16 PUSH2 0x5EE CALLDATASIZE PUSH1 0x4 PUSH2 0x922 JUMP JUMPDEST PUSH2 0x2342 JUMP JUMPDEST PUSH2 0x5FB PUSH2 0x7F9 JUMP JUMPDEST PUSH2 0x5E0 JUMP JUMPDEST POP CALLVALUE PUSH2 0x61A JUMPI JUMPDEST PUSH2 0x16 PUSH2 0x615 CALLDATASIZE PUSH1 0x4 PUSH2 0x9D9 JUMP JUMPDEST PUSH2 0x2238 JUMP JUMPDEST PUSH2 0x622 PUSH2 0x7F9 JUMP JUMPDEST PUSH2 0x607 JUMP JUMPDEST POP CALLVALUE PUSH2 0x644 JUMPI JUMPDEST PUSH2 0x639 CALLDATASIZE PUSH1 0x4 PUSH2 0x84A JUMP JUMPDEST PUSH2 0x1DE PUSH2 0x25B PUSH2 0x9FA JUMP JUMPDEST PUSH2 0x64C PUSH2 0x7F9 JUMP JUMPDEST PUSH2 0x62E JUMP JUMPDEST POP CALLVALUE PUSH2 0x67A JUMPI JUMPDEST PUSH2 0x663 CALLDATASIZE PUSH1 0x4 PUSH2 0x84A JUMP JUMPDEST PUSH2 0x1DE PUSH1 0x0 DUP1 MLOAD PUSH1 0x20 PUSH2 0x3054 DUP4 CODECOPY DUP2 MLOAD SWAP2 MSTORE PUSH2 0x25B JUMP JUMPDEST PUSH2 0x682 PUSH2 0x7F9 JUMP JUMPDEST PUSH2 0x658 JUMP JUMPDEST POP CALLVALUE PUSH2 0x6A2 JUMPI JUMPDEST PUSH2 0x16 PUSH2 0x69C CALLDATASIZE PUSH1 0x4 PUSH2 0x8C8 JUMP JUMPDEST SWAP1 PUSH2 0x29D9 JUMP JUMPDEST PUSH2 0x6AA PUSH2 0x7F9 JUMP JUMPDEST PUSH2 0x68E JUMP JUMPDEST POP CALLVALUE PUSH2 0x6CA JUMPI JUMPDEST PUSH2 0x16 PUSH2 0x6C4 CALLDATASIZE PUSH1 0x4 PUSH2 0x9A8 JUMP JUMPDEST SWAP1 PUSH2 0x12C6 JUMP JUMPDEST PUSH2 0x6D2 PUSH2 0x7F9 JUMP JUMPDEST PUSH2 0x6B6 JUMP JUMPDEST POP CALLVALUE PUSH2 0x6F4 JUMPI JUMPDEST PUSH2 0x1DE PUSH2 0x42C PUSH2 0x6EF CALLDATASIZE PUSH1 0x4 PUSH2 0x9D9 JUMP JUMPDEST PUSH2 0x2D56 JUMP JUMPDEST PUSH2 0x6FC PUSH2 0x7F9 JUMP JUMPDEST PUSH2 0x6DE JUMP JUMPDEST POP CALLVALUE PUSH2 0x71C JUMPI JUMPDEST PUSH2 0x16 PUSH2 0x716 CALLDATASIZE PUSH1 0x4 PUSH2 0x9A8 JUMP JUMPDEST SWAP1 PUSH2 0x1114 JUMP JUMPDEST PUSH2 0x724 PUSH2 0x7F9 JUMP JUMPDEST PUSH2 0x708 JUMP JUMPDEST POP CALLVALUE PUSH2 0x746 JUMPI JUMPDEST PUSH2 0x1DE PUSH2 0x25B PUSH2 0x741 CALLDATASIZE PUSH1 0x4 PUSH2 0x922 JUMP JUMPDEST PUSH2 0x10D5 JUMP JUMPDEST PUSH2 0x74E PUSH2 0x7F9 JUMP JUMPDEST PUSH2 0x730 JUMP JUMPDEST POP CALLVALUE PUSH2 0x770 JUMPI JUMPDEST PUSH2 0x1DE PUSH2 0x25B PUSH2 0x76B CALLDATASIZE PUSH1 0x4 PUSH2 0x922 JUMP JUMPDEST PUSH2 0x969 JUMP JUMPDEST PUSH2 0x778 PUSH2 0x7F9 JUMP JUMPDEST PUSH2 0x75A JUMP JUMPDEST POP CALLVALUE PUSH2 0x798 JUMPI JUMPDEST PUSH2 0x16 PUSH2 0x792 CALLDATASIZE PUSH1 0x4 PUSH2 0x8C8 JUMP JUMPDEST SWAP1 PUSH2 0x28E7 JUMP JUMPDEST PUSH2 0x7A0 PUSH2 0x7F9 JUMP JUMPDEST PUSH2 0x784 JUMP JUMPDEST POP CALLVALUE PUSH2 0x7C2 JUMPI JUMPDEST PUSH2 0x7B7 CALLDATASIZE PUSH1 0x4 PUSH2 0x84A JUMP JUMPDEST PUSH2 0x1DE PUSH2 0x25B PUSH2 0x874 JUMP JUMPDEST PUSH2 0x7CA PUSH2 0x7F9 JUMP JUMPDEST PUSH2 0x7AC JUMP JUMPDEST POP CALLVALUE PUSH2 0x7EC JUMPI JUMPDEST PUSH2 0x1DE PUSH2 0x42C PUSH2 0x7E7 CALLDATASIZE PUSH1 0x4 PUSH2 0x822 JUMP JUMPDEST PUSH2 0x1056 JUMP JUMPDEST PUSH2 0x7F4 PUSH2 0x7F9 JUMP JUMPDEST PUSH2 0x7D6 JUMP JUMPDEST POP PUSH1 0x0 DUP1 REVERT JUMPDEST PUSH1 0x1 PUSH1 0x1 PUSH1 0xE0 SHL SUB NOT DUP2 AND JUMPDEST EQ ISZERO PUSH2 0x7F9 JUMPI JUMP JUMPDEST SWAP1 POP CALLDATALOAD SWAP1 PUSH2 0x820 DUP3 PUSH2 0x7FF JUMP JUMPDEST JUMP JUMPDEST SWAP1 PUSH2 0x836 SWAP2 PUSH1 0x20 DUP2 DUP4 SUB SLT PUSH2 0x839 JUMPI PUSH2 0x813 JUMP JUMPDEST SWAP1 JUMP JUMPDEST PUSH2 0x841 PUSH2 0x7F9 JUMP JUMPDEST PUSH2 0x813 JUMP JUMPDEST SWAP1 MSTORE JUMP JUMPDEST PUSH1 0x0 SWAP2 SUB SLT PUSH2 0x855 JUMPI JUMP JUMPDEST PUSH2 0x820 PUSH2 0x7F9 JUMP JUMPDEST PUSH2 0x836 PUSH2 0x836 PUSH2 0x836 SWAP3 SWAP1 JUMP JUMPDEST PUSH2 0x836 PUSH1 0xA PUSH2 0x85D JUMP JUMPDEST PUSH2 0x836 PUSH2 0x86A JUMP JUMPDEST SWAP1 SWAP2 DUP3 PUSH1 0x1F DUP4 ADD SLT ISZERO PUSH2 0x8BB JUMPI JUMPDEST PUSH1 0x20 DUP3 CALLDATALOAD SWAP3 PUSH8 0xFFFFFFFFFFFFFFFF DUP5 GT PUSH2 0x8AE JUMPI JUMPDEST ADD SWAP3 PUSH1 0x20 DUP4 MUL DUP5 ADD GT PUSH2 0x855 JUMPI JUMP JUMPDEST PUSH2 0x8B6 PUSH2 0x7F9 JUMP JUMPDEST PUSH2 0x89F JUMP JUMPDEST PUSH2 0x8C3 PUSH2 0x7F9 JUMP JUMPDEST PUSH2 0x88A JUMP JUMPDEST SWAP1 PUSH2 0x8F1 SWAP2 PUSH1 0x20 DUP2 DUP4 SUB SLT PUSH2 0x902 JUMPI JUMPDEST DUP1 CALLDATALOAD SWAP1 PUSH8 0xFFFFFFFFFFFFFFFF DUP3 GT PUSH2 0x8F5 JUMPI JUMPDEST ADD PUSH2 0x87C JUMP JUMPDEST SWAP1 SWAP2 JUMP JUMPDEST PUSH2 0x8FD PUSH2 0x7F9 JUMP JUMPDEST PUSH2 0x8EB JUMP JUMPDEST PUSH2 0x90A PUSH2 0x7F9 JUMP JUMPDEST PUSH2 0x8D8 JUMP JUMPDEST DUP1 PUSH2 0x80B JUMP JUMPDEST SWAP1 POP CALLDATALOAD SWAP1 PUSH2 0x820 DUP3 PUSH2 0x90F JUMP JUMPDEST SWAP1 PUSH2 0x836 SWAP2 PUSH1 0x20 DUP2 DUP4 SUB SLT PUSH2 0x936 JUMPI PUSH2 0x915 JUMP JUMPDEST PUSH2 0x93E PUSH2 0x7F9 JUMP JUMPDEST PUSH2 0x915 JUMP JUMPDEST SWAP1 JUMPDEST PUSH1 0x0 MSTORE PUSH1 0x20 MSTORE PUSH1 0x40 PUSH1 0x0 KECCAK256 SWAP1 JUMP JUMPDEST PUSH2 0x836 SWAP2 PUSH1 0x8 MUL SHR DUP2 JUMP JUMPDEST SWAP1 PUSH2 0x836 SWAP2 SLOAD PUSH2 0x953 JUMP JUMPDEST PUSH2 0x836 SWAP1 PUSH2 0x97B PUSH1 0x8 SWAP2 PUSH1 0x0 SWAP3 PUSH2 0x943 JUMP JUMPDEST PUSH2 0x95E JUMP JUMPDEST PUSH1 0x1 PUSH1 0x1 PUSH1 0xA0 SHL SUB AND SWAP1 JUMP JUMPDEST PUSH1 0x1 PUSH1 0x1 PUSH1 0xA0 SHL SUB DUP2 AND PUSH2 0x80B JUMP JUMPDEST SWAP1 POP CALLDATALOAD SWAP1 PUSH2 0x820 DUP3 PUSH2 0x98C JUMP JUMPDEST SWAP2 SWAP1 PUSH2 0x836 SWAP1 PUSH1 0x40 DUP5 DUP3 SUB SLT PUSH2 0x9CC JUMPI JUMPDEST PUSH2 0x9C3 DUP2 DUP6 PUSH2 0x915 JUMP JUMPDEST SWAP4 PUSH1 0x20 ADD PUSH2 0x99B JUMP JUMPDEST PUSH2 0x9D4 PUSH2 0x7F9 JUMP JUMPDEST PUSH2 0x9B9 JUMP JUMPDEST SWAP1 PUSH2 0x836 SWAP2 PUSH1 0x20 DUP2 DUP4 SUB SLT PUSH2 0x9ED JUMPI PUSH2 0x99B JUMP JUMPDEST PUSH2 0x9F5 PUSH2 0x7F9 JUMP JUMPDEST PUSH2 0x99B JUMP JUMPDEST PUSH2 0x836 PUSH1 0x0 PUSH1 0x4 PUSH2 0x95E JUMP JUMPDEST PUSH2 0x836 PUSH3 0x278D00 PUSH2 0x85D JUMP JUMPDEST PUSH2 0x836 PUSH2 0xA06 JUMP JUMPDEST SWAP2 PUSH1 0x40 DUP4 DUP4 SUB SLT PUSH2 0xA5E JUMPI JUMPDEST PUSH2 0x836 PUSH2 0xA46 DUP4 DUP6 CALLDATALOAD PUSH8 0xFFFFFFFFFFFFFFFF DUP2 GT PUSH2 0xA51 JUMPI JUMPDEST DUP7 ADD PUSH2 0x87C JUMP JUMPDEST SWAP4 SWAP1 SWAP5 PUSH1 0x20 ADD PUSH2 0x915 JUMP JUMPDEST PUSH2 0xA59 PUSH2 0x7F9 JUMP JUMPDEST PUSH2 0xA3F JUMP JUMPDEST PUSH2 0xA66 PUSH2 0x7F9 JUMP JUMPDEST PUSH2 0xA26 JUMP JUMPDEST SWAP1 SWAP2 DUP3 PUSH1 0x1F DUP4 ADD SLT ISZERO PUSH2 0xAA7 JUMPI JUMPDEST PUSH1 0x20 DUP3 CALLDATALOAD SWAP3 PUSH8 0xFFFFFFFFFFFFFFFF DUP5 GT PUSH2 0xA9A JUMPI JUMPDEST ADD SWAP3 DUP3 DUP5 ADD GT PUSH2 0x855 JUMPI JUMP JUMPDEST PUSH2 0xAA2 PUSH2 0x7F9 JUMP JUMPDEST PUSH2 0xA8E JUMP JUMPDEST PUSH2 0xAAF PUSH2 0x7F9 JUMP JUMPDEST PUSH2 0xA79 JUMP JUMPDEST SWAP2 SWAP1 PUSH1 0xA0 DUP4 DUP3 SUB SLT PUSH2 0xB23 JUMPI JUMPDEST PUSH2 0x836 PUSH2 0xACE DUP3 DUP6 PUSH2 0x99B JUMP JUMPDEST SWAP4 PUSH2 0xADC DUP4 PUSH1 0x20 DUP4 ADD PUSH2 0x99B JUMP JUMPDEST SWAP4 PUSH2 0xAFD DUP5 PUSH1 0x40 DUP5 ADD CALLDATALOAD PUSH8 0xFFFFFFFFFFFFFFFF DUP2 GT PUSH2 0xB16 JUMPI JUMPDEST DUP5 ADD PUSH2 0xA6B JUMP JUMPDEST SWAP4 SWAP1 SWAP5 PUSH2 0xB0D DUP2 PUSH1 0x60 DUP7 ADD PUSH2 0x915 JUMP JUMPDEST SWAP4 PUSH1 0x80 ADD PUSH2 0x915 JUMP JUMPDEST PUSH2 0xB1E PUSH2 0x7F9 JUMP JUMPDEST PUSH2 0xAF6 JUMP JUMPDEST PUSH2 0xB2B PUSH2 0x7F9 JUMP JUMPDEST PUSH2 0xAC1 JUMP JUMPDEST PUSH2 0x836 SWAP1 PUSH2 0x980 SWAP1 PUSH1 0x1 PUSH1 0x1 PUSH1 0xA0 SHL SUB AND DUP3 JUMP JUMPDEST PUSH2 0x836 SWAP1 PUSH2 0xB30 JUMP JUMPDEST PUSH2 0x836 SWAP1 PUSH2 0xB44 JUMP JUMPDEST SWAP1 PUSH2 0x945 SWAP1 PUSH2 0xB4D JUMP JUMPDEST PUSH2 0x836 SWAP1 PUSH2 0x97B PUSH1 0x9 SWAP2 PUSH1 0x0 SWAP3 PUSH2 0xB56 JUMP JUMPDEST PUSH1 0x1F ADD PUSH1 0x1F NOT AND SWAP1 JUMP JUMPDEST POP PUSH4 0x4E487B71 PUSH1 0xE0 SHL PUSH1 0x0 MSTORE PUSH1 0x41 PUSH1 0x4 MSTORE PUSH1 0x24 PUSH1 0x0 REVERT JUMPDEST SWAP1 PUSH1 0x1F ADD PUSH1 0x1F NOT AND DUP2 ADD SWAP1 DUP2 LT PUSH8 0xFFFFFFFFFFFFFFFF DUP3 GT OR PUSH2 0xBB5 JUMPI PUSH1 0x40 MSTORE JUMP JUMPDEST PUSH2 0xBBD PUSH2 0xB7C JUMP JUMPDEST PUSH1 0x40 MSTORE JUMP JUMPDEST SWAP1 PUSH2 0x820 PUSH2 0xBCF PUSH1 0x40 MLOAD SWAP1 JUMP JUMPDEST SWAP3 DUP4 PUSH2 0xB93 JUMP JUMPDEST PUSH2 0xBF5 PUSH1 0x20 SWAP2 PUSH8 0xFFFFFFFFFFFFFFFF DUP2 GT PUSH2 0xBF9 JUMPI PUSH1 0x1F ADD PUSH1 0x1F NOT AND SWAP1 JUMP JUMPDEST ADD SWAP1 JUMP JUMPDEST PUSH2 0xB72 PUSH2 0xB7C JUMP JUMPDEST SWAP1 DUP3 PUSH1 0x0 SWAP4 SWAP3 DUP3 CALLDATACOPY ADD MSTORE JUMP JUMPDEST SWAP3 SWAP2 SWAP1 PUSH2 0x820 SWAP2 PUSH2 0xC25 PUSH2 0xC20 DUP4 PUSH2 0xBD6 JUMP JUMPDEST PUSH2 0xBC2 JUMP JUMPDEST SWAP5 DUP3 DUP7 MSTORE PUSH1 0x20 DUP7 ADD SWAP2 DUP4 DUP3 ADD GT PUSH2 0xC3B JUMPI PUSH2 0xC01 JUMP JUMPDEST PUSH2 0xC43 PUSH2 0x7F9 JUMP JUMPDEST PUSH2 0xC01 JUMP JUMPDEST SWAP1 PUSH2 0x836 SWAP2 DUP2 PUSH1 0x1F DUP3 ADD SLT ISZERO PUSH2 0xC64 JUMPI JUMPDEST PUSH1 0x20 DUP2 CALLDATALOAD SWAP2 ADD PUSH2 0xC0D JUMP JUMPDEST PUSH2 0xC6C PUSH2 0x7F9 JUMP JUMPDEST PUSH2 0xC59 JUMP JUMPDEST PUSH1 0xE0 DUP2 DUP4 SUB SLT PUSH2 0xCF9 JUMPI JUMPDEST PUSH2 0xC86 DUP3 DUP3 PUSH2 0x915 JUMP JUMPDEST SWAP3 PUSH2 0xC94 DUP4 PUSH1 0x20 DUP5 ADD PUSH2 0x99B JUMP JUMPDEST SWAP3 PUSH2 0xCA2 DUP2 PUSH1 0x40 DUP6 ADD PUSH2 0x915 JUMP JUMPDEST SWAP3 PUSH2 0xCB0 DUP3 PUSH1 0x60 DUP4 ADD PUSH2 0x915 JUMP JUMPDEST SWAP3 PUSH2 0x836 PUSH2 0xCC1 DUP5 PUSH1 0x80 DUP6 ADD PUSH2 0x915 JUMP JUMPDEST SWAP4 PUSH2 0xCCF DUP2 PUSH1 0xA0 DUP7 ADD PUSH2 0x915 JUMP JUMPDEST SWAP4 PUSH1 0xC0 DUP2 ADD CALLDATALOAD SWAP1 PUSH8 0xFFFFFFFFFFFFFFFF DUP3 GT PUSH2 0xCEC JUMPI JUMPDEST ADD PUSH2 0xC48 JUMP JUMPDEST PUSH2 0xCF4 PUSH2 0x7F9 JUMP JUMPDEST PUSH2 0xCE6 JUMP JUMPDEST PUSH2 0xD01 PUSH2 0x7F9 JUMP JUMPDEST PUSH2 0xC7C JUMP JUMPDEST POP PUSH4 0x4E487B71 PUSH1 0xE0 SHL PUSH1 0x0 MSTORE PUSH1 0x0 PUSH1 0x4 MSTORE PUSH1 0x24 PUSH1 0x0 REVERT JUMPDEST POP PUSH4 0x4E487B71 PUSH1 0xE0 SHL PUSH1 0x0 MSTORE PUSH1 0x22 PUSH1 0x4 MSTORE PUSH1 0x24 PUSH1 0x0 REVERT JUMPDEST SWAP1 PUSH1 0x1 PUSH1 0x2 DUP4 DIV SWAP3 AND DUP1 ISZERO PUSH2 0xD57 JUMPI JUMPDEST PUSH1 0x20 DUP4 LT EQ PUSH2 0xD4F JUMPI JUMP JUMPDEST PUSH2 0x820 PUSH2 0xD1D JUMP JUMPDEST SWAP2 PUSH1 0x7F AND SWAP2 PUSH2 0xD44 JUMP JUMPDEST DUP1 SLOAD PUSH1 0x0 SWAP4 SWAP3 SWAP2 PUSH2 0xD7E PUSH2 0xD74 DUP4 PUSH2 0xD34 JUMP JUMPDEST DUP1 DUP6 MSTORE SWAP4 PUSH1 0x20 ADD SWAP1 JUMP JUMPDEST SWAP2 PUSH1 0x1 DUP2 AND SWAP1 DUP2 ISZERO PUSH2 0xDD0 JUMPI POP PUSH1 0x1 EQ PUSH2 0xD97 JUMPI POP POP POP JUMP JUMPDEST PUSH2 0xDAA SWAP2 SWAP3 SWAP4 SWAP5 POP PUSH1 0x0 MSTORE PUSH1 0x20 PUSH1 0x0 KECCAK256 SWAP1 JUMP JUMPDEST SWAP2 PUSH1 0x0 SWAP3 JUMPDEST DUP2 DUP5 LT PUSH2 0xDBC JUMPI POP POP ADD SWAP1 JUMP JUMPDEST DUP1 SLOAD DUP5 DUP5 ADD MSTORE PUSH1 0x20 SWAP1 SWAP4 ADD SWAP3 PUSH1 0x1 ADD PUSH2 0xDAF JUMP JUMPDEST PUSH1 0xFF NOT AND DUP4 MSTORE POP POP PUSH1 0x20 ADD SWAP3 POP POP JUMP JUMPDEST SWAP1 PUSH2 0x836 SWAP2 PUSH2 0xD61 JUMP JUMPDEST SWAP1 PUSH2 0x820 PUSH2 0xE04 SWAP3 PUSH2 0xDFB PUSH1 0x40 MLOAD SWAP1 JUMP JUMPDEST SWAP4 DUP5 DUP1 SWAP3 PUSH2 0xDE0 JUMP JUMPDEST SUB DUP4 PUSH2 0xB93 JUMP JUMPDEST PUSH1 0x0 PUSH2 0x836 SWAP3 GT PUSH2 0xE1B JUMPI PUSH2 0xDEA JUMP JUMPDEST PUSH2 0xE23 PUSH2 0xD06 JUMP JUMPDEST PUSH2 0xDEA JUMP JUMPDEST PUSH2 0x836 PUSH1 0x0 PUSH1 0x2 PUSH2 0xE0B JUMP JUMPDEST SWAP2 DUP1 SWAP2 SWAP3 PUSH1 0x0 SWAP1 JUMPDEST DUP3 DUP3 LT PUSH2 0xE54 JUMPI POP GT PUSH2 0xE4D JUMPI POP POP JUMP JUMPDEST PUSH1 0x0 SWAP2 ADD MSTORE JUMP JUMPDEST SWAP2 POP DUP1 PUSH1 0x20 SWAP2 DUP4 ADD MLOAD DUP2 DUP7 ADD MSTORE ADD DUP3 SWAP2 PUSH2 0xE3C JUMP JUMPDEST PUSH2 0xE8A PUSH2 0xB72 PUSH1 0x20 SWAP4 PUSH2 0xBF5 SWAP4 PUSH2 0xE7E DUP2 MLOAD SWAP1 JUMP JUMPDEST DUP1 DUP4 MSTORE SWAP4 DUP5 SWAP3 PUSH1 0x20 ADD SWAP1 JUMP JUMPDEST SWAP6 DUP7 SWAP2 ADD PUSH2 0xE34 JUMP JUMPDEST PUSH1 0x20 DUP1 DUP3 MSTORE PUSH2 0x836 SWAP3 SWAP2 ADD SWAP1 PUSH2 0xE69 JUMP JUMPDEST SWAP2 SWAP1 PUSH1 0xA0 DUP4 DUP3 SUB SLT PUSH2 0xEE8 JUMPI JUMPDEST PUSH2 0xEBB DUP2 DUP5 PUSH2 0x915 JUMP JUMPDEST SWAP3 PUSH2 0xEC9 DUP3 PUSH1 0x20 DUP4 ADD PUSH2 0x99B JUMP JUMPDEST SWAP3 PUSH2 0x836 PUSH2 0xEDA DUP5 PUSH1 0x40 DUP6 ADD PUSH2 0x915 JUMP JUMPDEST SWAP4 PUSH2 0xB0D DUP2 PUSH1 0x60 DUP7 ADD PUSH2 0x915 JUMP JUMPDEST PUSH2 0xEF0 PUSH2 0x7F9 JUMP JUMPDEST PUSH2 0xEB1 JUMP JUMPDEST PUSH2 0x836 PUSH1 0x0 PUSH2 0x85D JUMP JUMPDEST PUSH2 0x836 PUSH2 0xEF5 JUMP JUMPDEST SWAP1 PUSH2 0xF27 PUSH2 0xF20 PUSH2 0xF16 DUP5 MLOAD SWAP1 JUMP JUMPDEST DUP1 DUP5 MSTORE SWAP3 PUSH1 0x20 ADD SWAP1 JUMP JUMPDEST SWAP3 PUSH1 0x20 ADD SWAP1 JUMP JUMPDEST SWAP1 PUSH1 0x0 JUMPDEST DUP2 DUP2 LT PUSH2 0xF38 JUMPI POP POP POP SWAP1 JUMP JUMPDEST SWAP1 SWAP2 SWAP3 PUSH2 0xF5E PUSH2 0xF57 PUSH1 0x1 SWAP3 DUP7 MLOAD PUSH1 0x1 PUSH1 0x1 PUSH1 0xA0 SHL SUB AND DUP2 MSTORE PUSH1 0x20 ADD SWAP1 JUMP JUMPDEST SWAP5 PUSH1 0x20 ADD SWAP1 JUMP JUMPDEST SWAP3 SWAP2 ADD PUSH2 0xF2B JUMP JUMPDEST PUSH1 0x20 DUP1 DUP3 MSTORE PUSH2 0x836 SWAP3 SWAP2 ADD SWAP1 PUSH2 0xF07 JUMP JUMPDEST PUSH2 0x836 PUSH1 0x0 PUSH1 0x5 PUSH2 0x95E JUMP JUMPDEST PUSH2 0x836 SWAP2 PUSH1 0x8 MUL SHR PUSH2 0x980 JUMP JUMPDEST SWAP1 PUSH2 0x836 SWAP2 SLOAD PUSH2 0xF83 JUMP JUMPDEST PUSH2 0x836 PUSH1 0x0 PUSH1 0x3 PUSH2 0xF90 JUMP JUMPDEST SWAP1 SWAP2 PUSH1 0x60 DUP3 DUP5 SUB SLT PUSH2 0xFD8 JUMPI JUMPDEST PUSH2 0x836 PUSH2 0xFC1 DUP5 DUP5 PUSH2 0x915 JUMP JUMPDEST SWAP4 PUSH2 0xFCF DUP2 PUSH1 0x20 DUP7 ADD PUSH2 0x915 JUMP JUMPDEST SWAP4 PUSH1 0x40 ADD PUSH2 0x915 JUMP JUMPDEST PUSH2 0xFE0 PUSH2 0x7F9 JUMP JUMPDEST PUSH2 0xFB4 JUMP JUMPDEST PUSH2 0x836 SWAP1 PUSH2 0x97B PUSH1 0xA SWAP2 PUSH1 0x0 SWAP3 PUSH2 0xB56 JUMP JUMPDEST SWAP1 SWAP2 PUSH1 0x60 DUP3 DUP5 SUB SLT PUSH2 0x1028 JUMPI JUMPDEST PUSH2 0x836 PUSH2 0x1011 DUP5 DUP5 PUSH2 0x915 JUMP JUMPDEST SWAP4 PUSH2 0x101F DUP2 PUSH1 0x20 DUP7 ADD PUSH2 0x915 JUMP JUMPDEST SWAP4 PUSH1 0x40 ADD PUSH2 0x99B JUMP JUMPDEST PUSH2 0x1030 PUSH2 0x7F9 JUMP JUMPDEST PUSH2 0x1004 JUMP JUMPDEST PUSH1 0x1 PUSH1 0x1 PUSH1 0xA0 SHL SUB SWAP1 SWAP2 AND DUP2 MSTORE PUSH1 0x40 DUP2 ADD SWAP3 SWAP2 PUSH2 0x820 SWAP2 PUSH1 0x20 ADD MSTORE JUMP JUMPDEST ADD MSTORE JUMP JUMPDEST PUSH4 0x7965DB0B PUSH1 0xE0 SHL PUSH1 0x1 PUSH1 0x1 PUSH1 0xE0 SHL SUB NOT DUP3 AND EQ SWAP1 DUP2 ISZERO PUSH2 0x1075 JUMPI POP SWAP1 JUMP JUMPDEST PUSH2 0x836 SWAP2 POP PUSH1 0x1 PUSH1 0x1 PUSH1 0xE0 SHL SUB NOT AND PUSH4 0x1FFC9A7 PUSH1 0xE0 SHL EQ SWAP1 JUMP JUMPDEST PUSH2 0x836 SWAP1 JUMPDEST PUSH1 0xFF AND SWAP1 JUMP JUMPDEST PUSH2 0x836 SWAP1 SLOAD PUSH2 0x1090 JUMP JUMPDEST PUSH2 0x836 SWAP2 PUSH2 0x10BF SWAP2 PUSH2 0x10B9 PUSH1 0x0 SWAP2 DUP3 PUSH2 0x943 JUMP JUMPDEST ADD PUSH2 0xB56 JUMP JUMPDEST PUSH2 0x109B JUMP JUMPDEST PUSH2 0x836 SWAP1 DUP2 JUMP JUMPDEST PUSH2 0x836 SWAP1 SLOAD PUSH2 0x10C4 JUMP JUMPDEST PUSH1 0x1 PUSH2 0x10EE PUSH2 0x836 SWAP3 PUSH2 0x10E6 PUSH1 0x0 SWAP1 JUMP JUMPDEST POP PUSH1 0x0 PUSH2 0x943 JUMP JUMPDEST ADD PUSH2 0x10CB JUMP JUMPDEST SWAP1 PUSH2 0x820 SWAP2 PUSH2 0x110A PUSH2 0x1105 DUP3 PUSH2 0x10D5 JUMP JUMPDEST PUSH2 0x111E JUMP JUMPDEST SWAP1 PUSH2 0x820 SWAP2 PUSH2 0x1316 JUMP JUMPDEST SWAP1 PUSH2 0x820 SWAP2 PUSH2 0x10F4 JUMP JUMPDEST PUSH2 0x820 SWAP1 CALLER SWAP1 PUSH2 0x11AE JUMP JUMPDEST PUSH2 0x836 SWAP1 PUSH2 0x85D JUMP JUMPDEST PUSH2 0xBF5 PUSH2 0x114A SWAP3 PUSH1 0x20 SWAP3 PUSH2 0x1144 DUP2 MLOAD SWAP1 JUMP JUMPDEST SWAP5 DUP6 SWAP3 SWAP1 JUMP JUMPDEST SWAP4 DUP5 SWAP2 ADD PUSH2 0xE34 JUMP JUMPDEST PUSH2 0x1191 PUSH2 0x836 SWAP4 SWAP3 PUSH2 0x118B PUSH2 0x118B SWAP4 PUSH32 0x416363657373436F6E74726F6C3A206163636F756E7420000000000000000000 DUP2 MSTORE PUSH1 0x17 ADD SWAP1 JUMP JUMPDEST SWAP1 PUSH2 0x1132 JUMP JUMPDEST PUSH17 0x1034B99036B4B9B9B4B733903937B6329 PUSH1 0x7D SHL DUP2 MSTORE PUSH1 0x11 ADD SWAP1 JUMP JUMPDEST SWAP1 PUSH2 0x11C0 PUSH2 0x11BC DUP3 DUP5 PUSH2 0x10A5 JUMP JUMPDEST ISZERO SWAP1 JUMP JUMPDEST PUSH2 0x11C8 JUMPI POP POP JUMP JUMPDEST PUSH2 0x1238 SWAP3 POP SWAP1 PUSH2 0x836 PUSH2 0x11E6 PUSH2 0x11E0 PUSH2 0x1220 SWAP5 PUSH2 0x16A2 JUMP JUMPDEST SWAP3 PUSH2 0x1129 JUMP JUMPDEST PUSH2 0x11FB PUSH1 0x20 SWAP2 PUSH2 0x11F5 DUP4 PUSH2 0x85D JUMP JUMPDEST SWAP1 PUSH2 0x1542 JUMP JUMPDEST SWAP3 PUSH2 0x1214 PUSH2 0x1208 PUSH1 0x40 MLOAD SWAP1 JUMP JUMPDEST SWAP5 DUP6 SWAP4 DUP5 ADD SWAP3 DUP4 PUSH2 0x1153 JUMP JUMPDEST SWAP1 DUP2 SUB DUP3 MSTORE SUB DUP3 PUSH2 0xB93 JUMP JUMPDEST PUSH1 0x40 MLOAD PUSH3 0x461BCD PUSH1 0xE5 SHL DUP2 MSTORE SWAP2 DUP3 SWAP2 PUSH1 0x4 DUP4 ADD PUSH2 0xE93 JUMP JUMPDEST SUB SWAP1 REVERT JUMPDEST SWAP1 PUSH2 0x820 SWAP2 PUSH2 0x124D PUSH2 0x1105 DUP3 PUSH2 0x10D5 JUMP JUMPDEST SWAP1 PUSH2 0x820 SWAP2 PUSH2 0x138C JUMP JUMPDEST SWAP1 PUSH2 0x820 SWAP2 PUSH2 0x123C JUMP JUMPDEST ISZERO PUSH2 0x1268 JUMPI JUMP JUMPDEST POP PUSH1 0x40 MLOAD PUSH3 0x461BCD PUSH1 0xE5 SHL DUP2 MSTORE PUSH1 0x20 PUSH1 0x4 DUP3 ADD MSTORE PUSH1 0x2F PUSH1 0x24 DUP3 ADD MSTORE PUSH32 0x416363657373436F6E74726F6C3A2063616E206F6E6C792072656E6F756E6365 PUSH1 0x44 DUP3 ADD MSTORE PUSH15 0x103937B632B9903337B91039B2B633 PUSH1 0x89 SHL PUSH1 0x64 DUP3 ADD MSTORE PUSH1 0x84 SWAP1 REVERT JUMPDEST PUSH2 0x820 SWAP2 SWAP1 PUSH2 0x12E7 PUSH2 0x12D7 CALLER PUSH2 0x980 JUMP JUMPDEST PUSH1 0x1 PUSH1 0x1 PUSH1 0xA0 SHL SUB DUP5 AND EQ PUSH2 0x1261 JUMP JUMPDEST PUSH2 0x138C JUMP JUMPDEST SWAP1 PUSH1 0xFF SWAP1 JUMPDEST SWAP2 DUP2 NOT AND SWAP2 AND OR SWAP1 JUMP JUMPDEST SWAP1 PUSH2 0x130B PUSH2 0x836 PUSH2 0x1312 SWAP3 ISZERO ISZERO SWAP1 JUMP JUMPDEST DUP3 SLOAD PUSH2 0x12EC JUMP JUMPDEST SWAP1 SSTORE JUMP JUMPDEST SWAP1 PUSH2 0x1324 PUSH2 0x11BC DUP3 DUP5 PUSH2 0x10A5 JUMP JUMPDEST PUSH2 0x132C JUMPI POP POP JUMP JUMPDEST PUSH2 0x1346 PUSH1 0x1 PUSH2 0x1341 DUP4 PUSH1 0x0 PUSH2 0x10B9 DUP8 DUP3 PUSH2 0x943 JUMP JUMPDEST PUSH2 0x12FB JUMP JUMPDEST CALLER SWAP1 PUSH2 0x137C PUSH2 0x1376 PUSH2 0x1376 PUSH32 0x2F8788117E7EFF1D82E926EC794901D17C78024A50270940304540A733656F0D SWAP6 SWAP1 JUMP JUMPDEST SWAP3 PUSH2 0xB4D JUMP JUMPDEST SWAP3 PUSH2 0x1386 PUSH1 0x40 MLOAD SWAP1 JUMP JUMPDEST PUSH1 0x0 SWAP1 LOG4 JUMP JUMPDEST SWAP1 PUSH2 0x1397 DUP2 DUP4 PUSH2 0x10A5 JUMP JUMPDEST PUSH2 0x139F JUMPI POP POP JUMP JUMPDEST PUSH2 0x13B3 PUSH1 0x0 PUSH2 0x1341 DUP4 DUP3 PUSH2 0x10B9 DUP8 DUP3 PUSH2 0x943 JUMP JUMPDEST CALLER SWAP1 PUSH2 0x137C PUSH2 0x1376 PUSH2 0x1376 PUSH32 0xF6391F5C32D9C69D2A47EA670B442974B53935D1EDC7FD64EB21E047A839171B SWAP6 SWAP1 JUMP JUMPDEST POP PUSH4 0x4E487B71 PUSH1 0xE0 SHL PUSH1 0x0 MSTORE PUSH1 0x11 PUSH1 0x4 MSTORE PUSH1 0x24 PUSH1 0x0 REVERT JUMPDEST SWAP1 PUSH2 0x1404 JUMP JUMPDEST SWAP2 SWAP1 JUMP JUMPDEST SWAP1 DUP1 PUSH1 0x0 NOT DIV DUP3 GT DUP2 ISZERO ISZERO AND PUSH2 0x1418 JUMPI MUL SWAP1 JUMP JUMPDEST PUSH2 0x1420 PUSH2 0x13E3 JUMP JUMPDEST MUL SWAP1 JUMP JUMPDEST DUP2 NOT DUP2 GT PUSH2 0x1430 JUMPI ADD SWAP1 JUMP JUMPDEST PUSH2 0xBF5 PUSH2 0x13E3 JUMP JUMPDEST SWAP1 PUSH2 0x1445 PUSH2 0xC20 DUP4 PUSH2 0xBD6 JUMP JUMPDEST SWAP2 DUP3 MSTORE JUMP JUMPDEST CALLDATASIZE SWAP1 CALLDATACOPY JUMP JUMPDEST SWAP1 PUSH2 0x820 PUSH2 0x1465 PUSH2 0x145F DUP5 PUSH2 0x1438 JUMP JUMPDEST SWAP4 PUSH2 0xBD6 JUMP JUMPDEST PUSH1 0x1F NOT ADD PUSH1 0x20 DUP5 ADD PUSH2 0x144A JUMP JUMPDEST POP PUSH4 0x4E487B71 PUSH1 0xE0 SHL PUSH1 0x0 MSTORE PUSH1 0x32 PUSH1 0x4 MSTORE PUSH1 0x24 PUSH1 0x0 REVERT JUMPDEST SWAP1 PUSH1 0x1 PUSH1 0x20 SWAP2 PUSH2 0x1497 DUP5 MLOAD SWAP1 JUMP JUMPDEST DUP2 LT ISZERO PUSH2 0x14A5 JUMPI JUMPDEST MUL ADD ADD SWAP1 JUMP JUMPDEST PUSH2 0x14AD PUSH2 0x1472 JUMP JUMPDEST PUSH2 0x149F JUMP JUMPDEST PUSH1 0x1 SWAP1 DUP1 ISZERO PUSH2 0x14BF JUMPI SUB SWAP1 JUMP JUMPDEST PUSH2 0x14C7 PUSH2 0x13E3 JUMP JUMPDEST SUB SWAP1 JUMP JUMPDEST PUSH2 0x1095 PUSH2 0x836 PUSH2 0x836 SWAP3 SWAP1 JUMP JUMPDEST PUSH2 0x836 SWAP1 PUSH2 0x14EC PUSH2 0x1400 PUSH2 0x836 SWAP5 PUSH1 0xFF AND SWAP1 JUMP JUMPDEST SWAP1 SHR SWAP1 JUMP JUMPDEST ISZERO PUSH2 0x14F8 JUMPI JUMP JUMPDEST POP PUSH1 0x40 MLOAD PUSH3 0x461BCD PUSH1 0xE5 SHL DUP2 MSTORE DUP1 PUSH2 0x1238 PUSH1 0x4 DUP3 ADD PUSH1 0x20 DUP1 DUP3 MSTORE DUP2 DUP2 ADD MSTORE PUSH32 0x537472696E67733A20686578206C656E67746820696E73756666696369656E74 PUSH1 0x40 DUP3 ADD MSTORE PUSH1 0x60 ADD SWAP1 JUMP JUMPDEST SWAP2 SWAP1 PUSH1 0x2 SWAP1 PUSH2 0x1573 PUSH2 0x156E PUSH2 0x155F DUP4 PUSH2 0x155A DUP7 PUSH2 0x85D JUMP JUMPDEST PUSH2 0x13FA JUMP JUMPDEST PUSH2 0x1568 DUP6 PUSH2 0x85D JUMP JUMPDEST SWAP1 PUSH2 0x1424 JUMP JUMPDEST PUSH2 0x144F JUMP JUMPDEST SWAP2 PUSH1 0x0 SWAP2 PUSH1 0x30 PUSH2 0x158B PUSH2 0x1585 DUP6 PUSH2 0x85D JUMP JUMPDEST DUP7 PUSH2 0x1489 JUMP JUMPDEST MSTORE8 PUSH2 0x15C3 PUSH2 0x15BA PUSH1 0xF PUSH1 0xFB SHL SWAP3 PUSH2 0x155A PUSH1 0x1 SWAP6 DUP7 SWAP6 DUP9 BYTE PUSH2 0x15B4 PUSH2 0x15AE DUP9 PUSH2 0x85D JUMP JUMPDEST DUP12 PUSH2 0x1489 JUMP JUMPDEST MSTORE8 PUSH2 0x85D JUMP JUMPDEST PUSH2 0x1568 DUP4 PUSH2 0x85D JUMP JUMPDEST SWAP2 JUMPDEST PUSH2 0x15E6 JUMPI JUMPDEST POP POP PUSH2 0x836 SWAP3 SWAP4 PUSH2 0x15E0 PUSH2 0x1400 PUSH2 0x836 SWAP4 PUSH2 0x85D JUMP JUMPDEST EQ PUSH2 0x14F1 JUMP JUMPDEST SWAP1 SWAP5 PUSH2 0x15F1 DUP3 PUSH2 0x85D JUMP JUMPDEST DUP7 GT ISZERO PUSH2 0x1670 JUMPI PUSH2 0x165D PUSH2 0x1657 DUP4 SWAP3 PUSH2 0x163A PUSH2 0x161D PUSH16 0x181899199A1A9B1B9C1CB0B131B232B3 PUSH1 0x81 SHL SWAP1 JUMP JUMPDEST PUSH2 0x1627 PUSH1 0xF PUSH2 0x85D JUMP JUMPDEST DUP4 AND PUSH1 0x10 DUP2 LT ISZERO PUSH2 0x1663 JUMPI JUMPDEST BYTE PUSH1 0xF8 SHL SWAP1 JUMP JUMPDEST DUP7 BYTE PUSH2 0x1646 DUP11 DUP10 PUSH2 0x1489 JUMP JUMPDEST MSTORE8 PUSH2 0x1651 PUSH1 0x4 PUSH2 0x14CB JUMP JUMPDEST SWAP1 PUSH2 0x14D8 JUMP JUMPDEST SWAP7 PUSH2 0x14B2 JUMP JUMPDEST SWAP2 PUSH2 0x15C5 JUMP JUMPDEST PUSH2 0x166B PUSH2 0x1472 JUMP JUMPDEST PUSH2 0x1633 JUMP JUMPDEST SWAP5 PUSH2 0x15CA JUMP JUMPDEST PUSH2 0x836 SWAP1 DUP2 SWAP1 PUSH1 0x1 PUSH1 0x1 PUSH1 0xA0 SHL SUB AND DUP2 JUMP JUMPDEST PUSH2 0x836 PUSH1 0x14 PUSH2 0x14CB JUMP JUMPDEST PUSH2 0x836 PUSH2 0x836 PUSH2 0x836 SWAP3 PUSH1 0xFF AND SWAP1 JUMP JUMPDEST PUSH2 0x16BF PUSH2 0x16BA PUSH2 0x836 SWAP3 PUSH2 0x16B4 PUSH1 0x60 SWAP1 JUMP JUMPDEST POP PUSH2 0xB44 JUMP JUMPDEST PUSH2 0x1676 JUMP JUMPDEST PUSH2 0x11F5 PUSH2 0x16CA PUSH2 0x1688 JUMP JUMPDEST PUSH2 0x1692 JUMP JUMPDEST SWAP5 SWAP4 SWAP3 SWAP2 SWAP1 PUSH2 0x16DE PUSH1 0xB PUSH2 0x109B JUMP JUMPDEST PUSH2 0x16F7 JUMPI PUSH2 0x16EB SWAP6 PUSH2 0x196D JUMP JUMPDEST PUSH2 0x820 PUSH1 0x1 PUSH1 0xB PUSH2 0x12FB JUMP JUMPDEST POP POP POP POP POP POP POP PUSH2 0x1707 PUSH1 0x40 MLOAD SWAP1 JUMP JUMPDEST PUSH3 0xDC149F PUSH1 0xE4 SHL DUP2 MSTORE PUSH1 0x4 SWAP1 REVERT JUMPDEST PUSH2 0x980 PUSH2 0x836 PUSH2 0x836 SWAP3 SWAP1 JUMP JUMPDEST PUSH2 0x836 SWAP1 PUSH2 0x1715 JUMP JUMPDEST SWAP1 PUSH1 0x1 PUSH1 0x1 PUSH1 0xA0 SHL SUB SWAP1 PUSH2 0x12F1 JUMP JUMPDEST SWAP1 PUSH2 0x174A PUSH2 0x836 PUSH2 0x1312 SWAP3 PUSH2 0xB4D JUMP JUMPDEST DUP3 SLOAD PUSH2 0x172B JUMP JUMPDEST SWAP2 PUSH1 0x0 NOT PUSH1 0x8 SWAP3 SWAP1 SWAP3 MUL SWAP2 DUP3 SHL SWAP2 SHL PUSH2 0x12F1 JUMP JUMPDEST SWAP2 SWAP1 PUSH2 0x1776 PUSH2 0x836 PUSH2 0x1312 SWAP4 PUSH2 0x85D JUMP JUMPDEST SWAP1 DUP4 SLOAD PUSH2 0x1751 JUMP JUMPDEST PUSH2 0x820 SWAP2 PUSH1 0x0 SWAP2 PUSH2 0x1765 JUMP JUMPDEST DUP2 DUP2 LT PUSH2 0x1795 JUMPI POP POP JUMP JUMPDEST DUP1 PUSH2 0x17A3 PUSH1 0x0 PUSH1 0x1 SWAP4 PUSH2 0x177E JUMP JUMPDEST ADD PUSH2 0x178A JUMP JUMPDEST SWAP2 SWAP1 PUSH1 0x1F DUP2 GT PUSH2 0x17B8 JUMPI POP POP POP JUMP JUMPDEST PUSH2 0x17CA PUSH2 0x820 SWAP4 PUSH1 0x0 MSTORE PUSH1 0x20 PUSH1 0x0 KECCAK256 SWAP1 JUMP JUMPDEST SWAP1 PUSH1 0x20 PUSH1 0x1F DUP5 ADD DUP2 SWAP1 DIV DUP4 ADD SWAP4 LT PUSH2 0x17EC JUMPI JUMPDEST PUSH1 0x20 PUSH1 0x1F SWAP1 SWAP2 ADD DIV ADD SWAP1 PUSH2 0x178A JUMP JUMPDEST SWAP1 SWAP2 POP DUP2 SWAP1 PUSH2 0x17DD JUMP JUMPDEST SWAP2 SWAP1 PUSH8 0xFFFFFFFFFFFFFFFF DUP3 GT PUSH2 0x18C1 JUMPI JUMPDEST PUSH2 0x181C DUP3 PUSH2 0x1816 DUP6 SLOAD PUSH2 0xD34 JUMP JUMPDEST DUP6 PUSH2 0x17A9 JUMP JUMPDEST PUSH1 0x0 SWAP1 PUSH1 0x1F DUP4 GT PUSH1 0x1 EQ PUSH2 0x1857 JUMPI PUSH2 0x1312 SWAP3 SWAP2 PUSH1 0x0 SWAP2 DUP4 PUSH2 0x184C JUMPI JUMPDEST POP POP PUSH1 0x0 NOT PUSH1 0x8 DUP4 MUL SHR NOT AND SWAP1 PUSH1 0x2 MUL OR SWAP1 JUMP JUMPDEST ADD CALLDATALOAD SWAP1 POP CODESIZE DUP1 PUSH2 0x1838 JUMP JUMPDEST PUSH1 0x1F NOT DUP4 AND SWAP2 PUSH2 0x186C DUP6 PUSH1 0x0 MSTORE PUSH1 0x20 PUSH1 0x0 KECCAK256 SWAP1 JUMP JUMPDEST SWAP3 DUP2 JUMPDEST DUP2 DUP2 LT PUSH2 0x18A9 JUMPI POP SWAP2 PUSH1 0x2 SWAP4 SWAP2 DUP6 PUSH1 0x1 SWAP7 SWAP5 LT PUSH2 0x1890 JUMPI JUMPDEST POP POP POP MUL ADD SWAP1 SSTORE JUMP JUMPDEST ADD CALLDATALOAD PUSH1 0x0 NOT PUSH1 0x1F DUP5 AND PUSH1 0x8 MUL SHR NOT AND SWAP1 SSTORE CODESIZE DUP1 DUP1 PUSH2 0x1887 JUMP JUMPDEST SWAP2 SWAP4 PUSH1 0x20 PUSH1 0x1 DUP2 SWAP3 DUP8 DUP8 ADD CALLDATALOAD DUP2 SSTORE ADD SWAP6 ADD SWAP3 ADD PUSH2 0x186F JUMP JUMPDEST PUSH2 0x18C9 PUSH2 0xB7C JUMP JUMPDEST PUSH2 0x1808 JUMP JUMPDEST SWAP1 PUSH2 0x820 SWAP3 SWAP2 PUSH2 0x17F6 JUMP JUMPDEST SWAP1 PUSH1 0x0 NOT SWAP1 PUSH2 0x12F1 JUMP JUMPDEST SWAP1 PUSH2 0x18F3 PUSH2 0x836 PUSH2 0x1312 SWAP3 PUSH2 0x85D JUMP JUMPDEST DUP3 SLOAD PUSH2 0x18D9 JUMP JUMPDEST SWAP2 SWAP1 PUSH2 0xB72 DUP2 PUSH2 0x1911 DUP2 PUSH2 0xBF5 SWAP6 PUSH1 0x20 SWAP2 DUP2 MSTORE ADD SWAP1 JUMP JUMPDEST DUP1 SWAP6 PUSH2 0xC01 JUMP JUMPDEST SWAP2 PUSH2 0x1052 SWAP2 PUSH2 0x820 SWAP7 SWAP9 SWAP8 SWAP6 PUSH1 0x80 SWAP6 PUSH2 0x1958 PUSH2 0x1965 SWAP5 PUSH2 0x1948 PUSH1 0xA0 DUP10 ADD SWAP6 PUSH1 0x0 DUP11 ADD SWAP1 PUSH1 0x1 PUSH1 0x1 PUSH1 0xA0 SHL SUB AND SWAP1 MSTORE JUMP JUMPDEST PUSH1 0x1 PUSH1 0x1 PUSH1 0xA0 SHL SUB AND PUSH1 0x20 DUP9 ADD MSTORE JUMP JUMPDEST DUP6 DUP4 SUB PUSH1 0x40 DUP8 ADD MSTORE PUSH2 0x18FA JUMP JUMPDEST SWAP7 PUSH1 0x60 DUP4 ADD MSTORE JUMP JUMPDEST SWAP3 SWAP2 SWAP5 SWAP1 SWAP4 PUSH1 0x0 PUSH2 0x1980 PUSH2 0x980 DUP3 PUSH2 0x1722 JUMP JUMPDEST PUSH1 0x1 PUSH1 0x1 PUSH1 0xA0 SHL SUB DUP7 AND EQ PUSH2 0x1AD7 JUMPI DUP4 PUSH2 0x199A JUMP JUMPDEST SWAP1 POP SWAP1 JUMP JUMPDEST PUSH2 0x19A6 PUSH2 0x1400 DUP4 PUSH2 0x85D JUMP JUMPDEST EQ PUSH2 0x1AB7 JUMPI PUSH2 0x19B4 DUP2 PUSH2 0x85D JUMP JUMPDEST DUP3 EQ DUP1 ISZERO PUSH2 0x1AA4 JUMPI JUMPDEST PUSH2 0x1A84 JUMPI PUSH2 0x19CA SWAP1 PUSH2 0x85D JUMP JUMPDEST DUP3 EQ DUP1 ISZERO PUSH2 0x1A71 JUMPI JUMPDEST PUSH2 0x1A52 JUMPI PUSH2 0x1A4D SWAP3 PUSH2 0x19E6 DUP6 PUSH1 0x3 PUSH2 0x173A JUMP JUMPDEST PUSH2 0x19F2 DUP2 DUP9 PUSH1 0x2 PUSH2 0x18CE JUMP JUMPDEST PUSH2 0x19FD DUP3 PUSH1 0x4 PUSH2 0x18E3 JUMP JUMPDEST PUSH2 0x1A08 DUP4 PUSH1 0x5 PUSH2 0x18E3 JUMP JUMPDEST PUSH2 0x1A19 DUP7 PUSH2 0x1A14 PUSH2 0xEF5 JUMP JUMPDEST PUSH2 0x1316 JUMP JUMPDEST PUSH32 0xA80CADDAB9A93C4DF4F67CD3EE3490472325E6903E29687FC5904CEF451041F9 SWAP7 PUSH2 0x1A44 PUSH1 0x40 MLOAD SWAP1 JUMP JUMPDEST SWAP7 DUP8 SWAP7 DUP8 PUSH2 0x1918 JUMP JUMPDEST SUB SWAP1 LOG1 JUMP JUMPDEST POP POP POP POP POP POP POP PUSH2 0x1A62 PUSH1 0x40 MLOAD SWAP1 JUMP JUMPDEST PUSH4 0x4F08DAF3 PUSH1 0xE1 SHL DUP2 MSTORE PUSH1 0x4 SWAP1 REVERT JUMPDEST POP PUSH2 0x1A7D PUSH2 0x836 PUSH2 0xA06 JUMP JUMPDEST DUP3 GT PUSH2 0x19D3 JUMP JUMPDEST POP POP POP POP POP POP POP POP PUSH2 0x1A95 PUSH1 0x40 MLOAD SWAP1 JUMP JUMPDEST PUSH4 0xC17D8A03 PUSH1 0xE0 SHL DUP2 MSTORE PUSH1 0x4 SWAP1 REVERT JUMPDEST POP PUSH2 0x1AB0 PUSH2 0x836 PUSH2 0x86A JUMP JUMPDEST DUP3 GT PUSH2 0x19BD JUMP JUMPDEST POP POP POP POP POP POP POP POP PUSH2 0x1AC8 PUSH1 0x40 MLOAD SWAP1 JUMP JUMPDEST PUSH4 0x1FC71F5 PUSH1 0xE2 SHL DUP2 MSTORE PUSH1 0x4 SWAP1 REVERT JUMPDEST POP POP POP POP POP POP POP POP PUSH2 0x1AE8 PUSH1 0x40 MLOAD SWAP1 JUMP JUMPDEST PUSH4 0xE6C4247B PUSH1 0xE0 SHL DUP2 MSTORE PUSH1 0x4 SWAP1 REVERT JUMPDEST SWAP1 PUSH2 0x820 SWAP6 SWAP5 SWAP4 SWAP3 SWAP2 PUSH2 0x16CF JUMP JUMPDEST SWAP2 SWAP1 PUSH2 0x1B0F PUSH2 0xEF5 JUMP JUMPDEST PUSH2 0x1B1D PUSH2 0x11BC CALLER DUP1 SWAP4 PUSH2 0x10A5 JUMP JUMPDEST SWAP1 DUP2 PUSH2 0x1B4E JUMPI JUMPDEST POP PUSH2 0x1B32 JUMPI PUSH2 0x820 SWAP3 PUSH2 0x1CB6 JUMP JUMPDEST POP POP POP POP PUSH2 0x1B3F PUSH1 0x40 MLOAD SWAP1 JUMP JUMPDEST PUSH4 0xEA8E4EB5 PUSH1 0xE0 SHL DUP2 MSTORE PUSH1 0x4 SWAP1 REVERT JUMPDEST PUSH2 0x1B6B SWAP2 POP PUSH2 0x11BC SWAP1 PUSH1 0x0 DUP1 MLOAD PUSH1 0x20 PUSH2 0x3054 DUP4 CODECOPY DUP2 MLOAD SWAP2 MSTORE PUSH2 0x10A5 JUMP JUMPDEST CODESIZE PUSH2 0x1B24 JUMP JUMPDEST PUSH1 0x20 DUP1 SWAP2 PUSH8 0xFFFFFFFFFFFFFFFF DUP2 GT PUSH2 0x1B89 JUMPI MUL ADD SWAP1 JUMP JUMPDEST PUSH2 0x1B91 PUSH2 0xB7C JUMP JUMPDEST MUL ADD SWAP1 JUMP JUMPDEST SWAP1 PUSH2 0x1445 PUSH2 0xC20 DUP4 PUSH2 0x1B71 JUMP JUMPDEST SWAP1 PUSH2 0x820 PUSH2 0x1465 PUSH2 0x1BB3 DUP5 PUSH2 0x1B96 JUMP JUMPDEST SWAP4 PUSH2 0x1B71 JUMP JUMPDEST SWAP1 CALLDATALOAD SWAP1 PUSH1 0x1E NOT CALLDATASIZE DUP3 SWAP1 SUB ADD DUP3 SLT ISZERO PUSH2 0x1BFD JUMPI JUMPDEST ADD PUSH1 0x20 DUP2 CALLDATALOAD SWAP2 PUSH8 0xFFFFFFFFFFFFFFFF DUP4 GT PUSH2 0x1BF0 JUMPI JUMPDEST ADD SWAP2 CALLDATASIZE DUP3 SWAP1 SUB DUP4 SGT PUSH2 0x855 JUMPI JUMP JUMPDEST PUSH2 0x1BF8 PUSH2 0x7F9 JUMP JUMPDEST PUSH2 0x1BE2 JUMP JUMPDEST PUSH2 0x1C05 PUSH2 0x7F9 JUMP JUMPDEST PUSH2 0x1BCC JUMP JUMPDEST SWAP1 PUSH2 0x8F1 SWAP3 PUSH1 0x20 SWAP2 DUP2 LT ISZERO PUSH2 0x1C23 JUMPI JUMPDEST MUL DUP2 ADD SWAP1 PUSH2 0x1BB9 JUMP JUMPDEST PUSH2 0x1C2B PUSH2 0x1472 JUMP JUMPDEST PUSH2 0x1C1A JUMP JUMPDEST SWAP1 SWAP2 PUSH2 0xBF5 SWAP1 DUP4 SWAP1 DUP1 SWAP4 PUSH2 0xC01 JUMP JUMPDEST SWAP1 SWAP2 PUSH2 0x836 SWAP3 PUSH2 0x1C30 JUMP JUMPDEST SWAP1 PUSH1 0x20 DUP1 SWAP2 PUSH2 0x1497 DUP5 MLOAD SWAP1 JUMP JUMPDEST PUSH1 0x1 SWAP1 PUSH1 0x0 NOT DUP2 EQ PUSH2 0x1430 JUMPI ADD SWAP1 JUMP JUMPDEST SWAP1 PUSH2 0x1C76 PUSH2 0xF20 PUSH2 0xF16 DUP5 MLOAD SWAP1 JUMP JUMPDEST SWAP1 PUSH1 0x0 JUMPDEST DUP2 DUP2 LT PUSH2 0x1C87 JUMPI POP POP POP SWAP1 JUMP JUMPDEST SWAP1 SWAP2 SWAP3 PUSH2 0x1C9D PUSH2 0xF57 PUSH1 0x1 SWAP3 DUP7 MLOAD DUP2 MSTORE PUSH1 0x20 ADD SWAP1 JUMP JUMPDEST SWAP3 SWAP2 ADD PUSH2 0x1C7A JUMP JUMPDEST PUSH1 0x20 DUP1 DUP3 MSTORE PUSH2 0x836 SWAP3 SWAP2 ADD SWAP1 PUSH2 0x1C67 JUMP JUMPDEST SWAP3 SWAP2 DUP2 SWAP3 PUSH1 0x0 PUSH2 0x1CC5 DUP2 PUSH2 0x85D JUMP JUMPDEST DUP6 EQ PUSH2 0x1E17 JUMPI TIMESTAMP DUP4 LT PUSH2 0x1DF9 JUMPI PUSH2 0x1CDB DUP6 PUSH2 0x1BA3 JUMP JUMPDEST SWAP2 PUSH1 0x0 SWAP6 PUSH1 0x1 JUMPDEST ISZERO PUSH2 0x1D9F JUMPI JUMPDEST DUP3 SWAP7 PUSH2 0x1CF8 PUSH2 0x1995 DUP3 DUP10 DUP13 PUSH2 0x1C0A JUMP JUMPDEST PUSH2 0x1D04 PUSH2 0x1400 DUP7 PUSH2 0x85D JUMP JUMPDEST EQ PUSH2 0x1D7E JUMPI DUP1 PUSH2 0x1D59 PUSH2 0x1214 PUSH2 0x1D39 PUSH2 0x1D21 PUSH2 0x1D78 SWAP6 DUP13 DUP16 PUSH2 0x1C0A JUMP JUMPDEST SWAP1 PUSH2 0x1D2B PUSH1 0x40 MLOAD SWAP1 JUMP JUMPDEST SWAP4 DUP5 SWAP3 PUSH1 0x20 DUP5 ADD SWAP3 DUP4 PUSH2 0x1C3F JUMP JUMPDEST PUSH2 0x1D4B PUSH2 0x1D44 DUP3 MLOAD SWAP1 JUMP JUMPDEST SWAP2 PUSH1 0x20 ADD SWAP1 JUMP JUMPDEST KECCAK256 PUSH2 0x1D56 DUP4 DUP10 PUSH2 0x1C4A JUMP JUMPDEST MSTORE JUMP JUMPDEST PUSH2 0x1D73 DUP8 PUSH2 0x1D6E PUSH2 0x1D6A DUP5 DUP11 PUSH2 0x1C4A JUMP JUMPDEST MLOAD SWAP1 JUMP JUMPDEST PUSH2 0x3044 JUMP JUMPDEST PUSH2 0x1C57 JUMP JUMPDEST SWAP7 PUSH2 0x1CE2 JUMP JUMPDEST POP POP POP POP POP POP POP POP POP PUSH2 0x1D90 PUSH1 0x40 MLOAD SWAP1 JUMP JUMPDEST PUSH4 0xEB484391 PUSH1 0xE0 SHL DUP2 MSTORE PUSH1 0x4 SWAP1 REVERT JUMPDEST DUP1 DUP8 LT ISZERO PUSH2 0x1DAC JUMPI PUSH2 0x1CE8 JUMP JUMPDEST POP SWAP6 POP POP SWAP3 POP SWAP1 POP PUSH2 0x1DF4 PUSH2 0x1DE1 PUSH32 0x8C852CAD34F901531C4A1328DDFEFBC6152FBD45AA7EB38890E74F351D8493A6 SWAP3 PUSH2 0x85D JUMP JUMPDEST SWAP3 PUSH2 0x1DEB PUSH1 0x40 MLOAD SWAP1 JUMP JUMPDEST SWAP2 DUP3 SWAP2 DUP3 PUSH2 0x1CA5 JUMP JUMPDEST SUB SWAP1 LOG2 JUMP JUMPDEST POP POP POP POP POP POP PUSH2 0x1E08 PUSH1 0x40 MLOAD SWAP1 JUMP JUMPDEST PUSH4 0x1DA74479 PUSH1 0xE2 SHL DUP2 MSTORE PUSH1 0x4 SWAP1 REVERT JUMPDEST POP POP POP POP POP POP PUSH2 0x1AE8 PUSH1 0x40 MLOAD SWAP1 JUMP JUMPDEST SWAP1 PUSH2 0x820 SWAP3 SWAP2 PUSH2 0x1B05 JUMP JUMPDEST SWAP2 SWAP1 PUSH2 0x1E3B PUSH2 0xEF5 JUMP JUMPDEST PUSH2 0x1E49 PUSH2 0x11BC CALLER DUP1 SWAP4 PUSH2 0x10A5 JUMP JUMPDEST SWAP1 DUP2 PUSH2 0x1E5E JUMPI JUMPDEST POP PUSH2 0x1B32 JUMPI PUSH2 0x820 SWAP3 PUSH2 0x1E87 JUMP JUMPDEST PUSH2 0x1E7B SWAP2 POP PUSH2 0x11BC SWAP1 PUSH1 0x0 DUP1 MLOAD PUSH1 0x20 PUSH2 0x3054 DUP4 CODECOPY DUP2 MLOAD SWAP2 MSTORE PUSH2 0x10A5 JUMP JUMPDEST CODESIZE PUSH2 0x1E50 JUMP JUMPDEST ADD SWAP2 DUP3 MSTORE JUMP JUMPDEST SWAP2 SWAP1 SWAP2 PUSH1 0x0 PUSH2 0x1E95 DUP2 PUSH2 0x85D JUMP JUMPDEST DUP5 EQ PUSH2 0x1F7A JUMPI TIMESTAMP DUP4 LT PUSH2 0x1F6C JUMPI PUSH2 0x1EAB DUP5 PUSH2 0x1BA3 JUMP JUMPDEST SWAP5 PUSH1 0x0 SWAP5 PUSH1 0x1 JUMPDEST ISZERO PUSH2 0x1F15 JUMPI JUMPDEST PUSH2 0x1F0F DUP4 SWAP7 PUSH2 0x1EFE PUSH2 0x1EC9 PUSH1 0x40 MLOAD SWAP1 JUMP JUMPDEST PUSH2 0x1EE8 DUP2 PUSH1 0x20 DUP2 ADD PUSH2 0x1214 DUP7 DUP13 DUP4 PUSH1 0x20 DUP2 PUSH2 0x1E81 PUSH2 0xBF5 SWAP4 DUP4 SWAP7 SWAP6 SWAP1 MSTORE JUMP JUMPDEST PUSH2 0x1EF3 PUSH2 0x1D44 DUP3 MLOAD SWAP1 JUMP JUMPDEST KECCAK256 PUSH2 0x1D56 DUP4 DUP13 PUSH2 0x1C4A JUMP JUMPDEST PUSH2 0x1D73 DUP8 PUSH2 0x1D6E PUSH2 0x1D6A DUP5 DUP14 PUSH2 0x1C4A JUMP JUMPDEST SWAP6 PUSH2 0x1EB2 JUMP JUMPDEST DUP1 DUP7 LT ISZERO PUSH2 0x1F22 JUMPI PUSH2 0x1EB8 JUMP JUMPDEST POP SWAP5 SWAP4 POP POP PUSH2 0x1F67 PUSH2 0x1F5D PUSH2 0x1F57 PUSH32 0xC3C3780ED921778D05400BDFAF133352F1C8CE56E4CE47391118F53A22103CCE SWAP4 PUSH2 0x85D JUMP JUMPDEST SWAP4 PUSH2 0x85D JUMP JUMPDEST SWAP4 PUSH2 0x1DEB PUSH1 0x40 MLOAD SWAP1 JUMP JUMPDEST SUB SWAP1 LOG3 JUMP JUMPDEST POP POP POP POP POP PUSH2 0x1E08 PUSH1 0x40 MLOAD SWAP1 JUMP JUMPDEST POP POP POP POP POP PUSH2 0x1F88 PUSH1 0x40 MLOAD SWAP1 JUMP JUMPDEST PUSH4 0x3D257579 PUSH1 0xE0 SHL DUP2 MSTORE PUSH1 0x4 SWAP1 REVERT JUMPDEST SWAP1 PUSH2 0x820 SWAP3 SWAP2 PUSH2 0x1E31 JUMP JUMPDEST SWAP2 SWAP1 PUSH2 0x1FAC PUSH2 0xEF5 JUMP JUMPDEST PUSH2 0x1FBA PUSH2 0x11BC CALLER DUP1 SWAP4 PUSH2 0x10A5 JUMP JUMPDEST SWAP1 DUP2 PUSH2 0x1FCF JUMPI JUMPDEST POP PUSH2 0x1B32 JUMPI PUSH2 0x820 SWAP3 PUSH2 0x2033 JUMP JUMPDEST PUSH2 0x1FEC SWAP2 POP PUSH2 0x11BC SWAP1 PUSH1 0x0 DUP1 MLOAD PUSH1 0x20 PUSH2 0x3054 DUP4 CODECOPY DUP2 MLOAD SWAP2 MSTORE PUSH2 0x10A5 JUMP JUMPDEST CODESIZE PUSH2 0x1FC1 JUMP JUMPDEST SWAP2 PUSH1 0x20 SWAP2 DUP2 LT ISZERO PUSH2 0x2002 JUMPI MUL ADD SWAP1 JUMP JUMPDEST PUSH2 0x1B91 PUSH2 0x1472 JUMP JUMPDEST CALLDATALOAD PUSH2 0x836 DUP2 PUSH2 0x98C JUMP JUMPDEST PUSH2 0x846 SWAP1 PUSH1 0x1 PUSH1 0x1 PUSH1 0xA0 SHL SUB AND PUSH1 0x60 SHL SWAP1 JUMP JUMPDEST PUSH2 0xBF5 DUP2 PUSH1 0x14 SWAP4 PUSH2 0x2014 JUMP JUMPDEST SWAP1 SWAP3 SWAP2 DUP4 SWAP3 PUSH1 0x0 PUSH2 0x2043 DUP2 PUSH2 0x85D JUMP JUMPDEST DUP6 EQ PUSH2 0x1E17 JUMPI TIMESTAMP DUP4 LT PUSH2 0x1DF9 JUMPI PUSH2 0x2059 DUP6 PUSH2 0x1BA3 JUMP JUMPDEST SWAP2 PUSH1 0x0 SWAP6 PUSH1 0x1 JUMPDEST ISZERO PUSH2 0x20E5 JUMPI JUMPDEST DUP3 SWAP7 PUSH2 0x207B PUSH2 0x2076 DUP3 DUP12 DUP11 PUSH2 0x1FF2 JUMP JUMPDEST PUSH2 0x200A JUMP JUMPDEST PUSH2 0x2097 PUSH2 0x208A PUSH2 0x980 DUP8 PUSH2 0x1722 JUMP JUMPDEST SWAP2 PUSH1 0x1 PUSH1 0x1 PUSH1 0xA0 SHL SUB AND SWAP1 JUMP JUMPDEST EQ PUSH2 0x20D3 JUMPI DUP1 PUSH2 0x1D59 PUSH2 0x20B1 PUSH2 0x2076 PUSH2 0x20CD SWAP5 DUP14 DUP13 PUSH2 0x1FF2 JUMP JUMPDEST PUSH2 0x1D39 PUSH2 0x20BD PUSH1 0x40 MLOAD SWAP1 JUMP JUMPDEST DUP1 SWAP3 PUSH2 0x1214 PUSH1 0x20 DUP4 ADD SWAP2 DUP3 PUSH2 0x2027 JUMP JUMPDEST SWAP7 PUSH2 0x2060 JUMP JUMPDEST POP POP POP POP POP POP POP POP POP PUSH2 0x1AE8 PUSH1 0x40 MLOAD SWAP1 JUMP JUMPDEST DUP1 DUP8 LT ISZERO PUSH2 0x20F2 JUMPI PUSH2 0x2066 JUMP JUMPDEST POP SWAP6 POP POP SWAP3 POP SWAP1 POP PUSH2 0x1DF4 PUSH2 0x1DE1 PUSH32 0xA9411F55F4CCD3F63F1F6236481C2F6B385A4221287184E89CA4C40792F8224E SWAP3 PUSH2 0x85D JUMP JUMPDEST SWAP1 PUSH2 0x820 SWAP3 SWAP2 PUSH2 0x1FA2 JUMP JUMPDEST PUSH2 0x820 SWAP1 PUSH2 0x2141 PUSH2 0x1105 PUSH2 0xEF5 JUMP JUMPDEST PUSH2 0x214E PUSH2 0x980 PUSH1 0x0 PUSH2 0x1722 JUMP JUMPDEST PUSH1 0x1 PUSH1 0x1 PUSH1 0xA0 SHL SUB DUP3 AND EQ PUSH2 0x21A3 JUMPI PUSH2 0x2175 DUP2 PUSH1 0x0 DUP1 MLOAD PUSH1 0x20 PUSH2 0x3054 DUP4 CODECOPY DUP2 MLOAD SWAP2 MSTORE PUSH2 0x1316 JUMP JUMPDEST PUSH2 0x1A4D PUSH32 0xD36B0989E598A1B05388150A9A8C84925E2710D91910406B8735E01F3ED02817 SWAP2 PUSH2 0x36F PUSH1 0x40 MLOAD SWAP1 JUMP JUMPDEST POP POP PUSH1 0x40 MLOAD PUSH2 0x1AE8 JUMP JUMPDEST PUSH2 0x820 SWAP1 PUSH2 0x2132 JUMP JUMPDEST PUSH2 0x820 SWAP1 PUSH2 0x21C5 PUSH2 0x1105 PUSH2 0xEF5 JUMP JUMPDEST PUSH1 0x0 DUP1 MLOAD PUSH1 0x20 PUSH2 0x3054 DUP4 CODECOPY DUP2 MLOAD SWAP2 MSTORE PUSH2 0x21E1 PUSH2 0x11BC DUP4 DUP4 PUSH2 0x10A5 JUMP JUMPDEST PUSH2 0x221D JUMPI DUP2 PUSH2 0x21EF SWAP2 PUSH2 0x138C JUMP JUMPDEST PUSH2 0x1A4D PUSH32 0x708BD40F8F4D2AD60032CAEA0582161D35C50177CC0B2C575B5D483BD2902CAA SWAP2 PUSH2 0x36F PUSH1 0x40 MLOAD SWAP1 JUMP JUMPDEST POP POP POP PUSH2 0x2229 PUSH1 0x40 MLOAD SWAP1 JUMP JUMPDEST PUSH4 0x2793ED7D PUSH1 0xE0 SHL DUP2 MSTORE PUSH1 0x4 SWAP1 REVERT JUMPDEST PUSH2 0x820 SWAP1 PUSH2 0x21B6 JUMP JUMPDEST PUSH2 0x820 SWAP1 PUSH2 0x2250 PUSH2 0x1105 PUSH2 0xEF5 JUMP JUMPDEST PUSH2 0x225A PUSH1 0x0 PUSH2 0x85D JUMP JUMPDEST DUP2 EQ DUP1 ISZERO PUSH2 0x22AA JUMPI JUMPDEST PUSH2 0x22A0 JUMPI PUSH2 0x2272 DUP2 PUSH1 0x4 PUSH2 0x18E3 JUMP JUMPDEST PUSH2 0x1A4D PUSH32 0xBFF777C073BD9101DD1E419471FE91C54C9FFE380882BCA8EB1FCF75D6086F77 SWAP2 PUSH2 0x25F PUSH1 0x40 MLOAD SWAP1 JUMP JUMPDEST POP POP PUSH1 0x40 MLOAD PUSH2 0x1A95 JUMP JUMPDEST POP PUSH2 0x22B6 PUSH2 0x836 PUSH2 0x86A JUMP JUMPDEST DUP2 GT PUSH2 0x2263 JUMP JUMPDEST PUSH2 0x820 SWAP1 PUSH2 0x2241 JUMP JUMPDEST PUSH2 0x820 SWAP1 PUSH2 0x22D5 PUSH2 0x1105 PUSH2 0xEF5 JUMP JUMPDEST PUSH2 0x22DF PUSH1 0x0 PUSH2 0x85D JUMP JUMPDEST DUP2 EQ DUP1 ISZERO PUSH2 0x232F JUMPI JUMPDEST PUSH2 0x2325 JUMPI PUSH2 0x22F7 DUP2 PUSH1 0x5 PUSH2 0x18E3 JUMP JUMPDEST PUSH2 0x1A4D PUSH32 0x7D7455C70E1855CFEB6FF84FE7B6D37EFCFDAEE91C05F2E25A55368F50BA7B5A SWAP2 PUSH2 0x25F PUSH1 0x40 MLOAD SWAP1 JUMP JUMPDEST POP POP PUSH1 0x40 MLOAD PUSH2 0x1A62 JUMP JUMPDEST POP PUSH2 0x233B PUSH2 0x836 PUSH2 0xA06 JUMP JUMPDEST DUP2 GT PUSH2 0x22E8 JUMP JUMPDEST PUSH2 0x820 SWAP1 PUSH2 0x22C6 JUMP JUMPDEST SWAP1 PUSH2 0x2354 PUSH2 0xEF5 JUMP JUMPDEST PUSH2 0x2362 PUSH2 0x11BC CALLER DUP1 SWAP4 PUSH2 0x10A5 JUMP JUMPDEST SWAP1 DUP2 PUSH2 0x2383 JUMPI JUMPDEST POP PUSH2 0x2377 JUMPI PUSH2 0x820 SWAP2 PUSH2 0x24E1 JUMP JUMPDEST POP POP POP PUSH2 0x1B3F PUSH1 0x40 MLOAD SWAP1 JUMP JUMPDEST PUSH2 0x23A0 SWAP2 POP PUSH2 0x11BC SWAP1 PUSH1 0x0 DUP1 MLOAD PUSH1 0x20 PUSH2 0x3054 DUP4 CODECOPY DUP2 MLOAD SWAP2 MSTORE PUSH2 0x10A5 JUMP JUMPDEST CODESIZE PUSH2 0x2369 JUMP JUMPDEST PUSH2 0x836 SWAP1 PUSH2 0x980 JUMP JUMPDEST PUSH2 0x836 SWAP1 SLOAD PUSH2 0x23A6 JUMP JUMPDEST PUSH2 0x23D9 PUSH1 0x1 SWAP2 PUSH2 0x23C7 DUP2 SLOAD SWAP1 JUMP JUMPDEST DUP5 LT ISZERO PUSH2 0x23E2 JUMPI PUSH1 0x0 MSTORE PUSH1 0x20 PUSH1 0x0 KECCAK256 SWAP1 JUMP JUMPDEST SWAP2 MUL ADD SWAP1 PUSH1 0x0 SWAP1 JUMP JUMPDEST PUSH2 0x23EA PUSH2 0x1472 JUMP JUMPDEST PUSH1 0x0 MSTORE PUSH1 0x20 PUSH1 0x0 KECCAK256 SWAP1 JUMP JUMPDEST SWAP2 PUSH1 0x1 PUSH1 0x1 PUSH1 0xA0 SHL SUB PUSH1 0x8 SWAP3 SWAP1 SWAP3 MUL SWAP2 DUP3 SHL SWAP2 SHL PUSH2 0x12F1 JUMP JUMPDEST SWAP2 SWAP1 PUSH2 0x241F PUSH2 0x836 PUSH2 0x1312 SWAP4 PUSH2 0xB4D JUMP JUMPDEST SWAP1 DUP4 SLOAD PUSH2 0x23F5 JUMP JUMPDEST SWAP1 PUSH2 0x244F PUSH2 0x820 SWAP3 DUP1 SLOAD SWAP1 PUSH9 0x10000000000000000 DUP3 LT ISZERO PUSH2 0x2455 JUMPI JUMPDEST PUSH1 0x1 DUP3 ADD DUP2 SSTORE PUSH2 0x23B9 JUMP JUMPDEST SWAP1 PUSH2 0x240E JUMP JUMPDEST PUSH2 0x245D PUSH2 0xB7C JUMP JUMPDEST PUSH2 0x2444 JUMP JUMPDEST DUP2 DUP2 LT PUSH2 0x14BF JUMPI SUB SWAP1 JUMP JUMPDEST POP PUSH2 0x836 SWAP1 PUSH1 0x20 DUP2 ADD SWAP1 PUSH2 0x99B JUMP JUMPDEST DUP2 DUP4 MSTORE PUSH1 0x20 SWAP1 SWAP3 ADD SWAP2 SWAP1 PUSH1 0x0 DUP3 JUMPDEST DUP3 DUP3 LT PUSH2 0x2498 JUMPI POP POP POP POP SWAP1 JUMP JUMPDEST SWAP1 SWAP2 SWAP3 SWAP4 PUSH2 0x24C7 PUSH2 0x24C0 PUSH1 0x1 SWAP3 PUSH2 0x24AF DUP9 DUP7 PUSH2 0x246D JUMP JUMPDEST PUSH1 0x1 PUSH1 0x1 PUSH1 0xA0 SHL SUB AND DUP2 MSTORE PUSH1 0x20 ADD SWAP1 JUMP JUMPDEST SWAP6 PUSH1 0x20 ADD SWAP1 JUMP JUMPDEST SWAP4 SWAP3 ADD SWAP1 PUSH2 0x248A JUMP JUMPDEST PUSH1 0x20 DUP1 DUP3 MSTORE PUSH2 0x836 SWAP4 SWAP2 ADD SWAP2 PUSH2 0x247C JUMP JUMPDEST SWAP1 SWAP2 SWAP1 DUP3 SWAP2 PUSH1 0x0 JUMPDEST DUP4 JUMPDEST DUP2 LT ISZERO PUSH2 0x2601 JUMPI PUSH2 0x2500 PUSH2 0x2076 DUP3 DUP8 DUP7 PUSH2 0x1FF2 JUMP JUMPDEST PUSH2 0x2510 PUSH2 0x208A PUSH2 0x980 PUSH1 0x0 PUSH2 0x1722 JUMP JUMPDEST EQ PUSH2 0x25F3 JUMPI PUSH2 0x2523 PUSH2 0x2076 DUP3 DUP8 DUP7 PUSH2 0x1FF2 JUMP JUMPDEST PUSH2 0x2533 PUSH2 0x208A PUSH2 0x980 PUSH1 0x3 PUSH2 0x23AF JUMP JUMPDEST EQ PUSH2 0x25D6 JUMPI PUSH2 0x2549 PUSH2 0x427 PUSH2 0x2076 DUP4 DUP9 DUP8 PUSH2 0x1FF2 JUMP JUMPDEST PUSH2 0x25B9 JUMPI PUSH2 0x24EB SWAP1 PUSH2 0x25B2 SWAP1 PUSH2 0x25AC PUSH2 0x258E PUSH2 0x257E PUSH1 0x6 PUSH2 0x257A DUP10 PUSH2 0x2574 PUSH2 0x2076 DUP9 DUP16 DUP7 JUMPDEST SWAP5 PUSH2 0x1FF2 JUMP JUMPDEST SWAP1 PUSH2 0x2427 JUMP JUMPDEST SLOAD SWAP1 JUMP JUMPDEST PUSH2 0x2588 PUSH1 0x1 PUSH2 0x85D JUMP JUMPDEST SWAP1 PUSH2 0x2462 JUMP JUMPDEST PUSH2 0x25A7 PUSH1 0x9 PUSH2 0x25A1 PUSH2 0x2076 DUP7 DUP14 DUP13 PUSH2 0x1FF2 JUMP JUMPDEST SWAP1 PUSH2 0xB56 JUMP JUMPDEST PUSH2 0x18E3 JUMP JUMPDEST PUSH1 0x1 ADD SWAP1 JUMP JUMPDEST SWAP1 POP PUSH2 0x24E9 JUMP JUMPDEST POP POP POP POP POP PUSH2 0x25C7 PUSH1 0x40 MLOAD SWAP1 JUMP JUMPDEST PUSH4 0x241D2EDF PUSH1 0xE0 SHL DUP2 MSTORE PUSH1 0x4 SWAP1 REVERT JUMPDEST POP POP POP POP POP PUSH2 0x25E4 PUSH1 0x40 MLOAD SWAP1 JUMP JUMPDEST PUSH4 0xA122BF39 PUSH1 0xE0 SHL DUP2 MSTORE PUSH1 0x4 SWAP1 REVERT JUMPDEST POP POP POP POP POP PUSH2 0x1AE8 PUSH1 0x40 MLOAD SWAP1 JUMP JUMPDEST POP SWAP3 SWAP1 SWAP2 POP PUSH32 0xE7E9E18EAE0A1664F98BA7E59EDA81692D5802C7E9BD75BB0261F3FC6FD4A493 SWAP2 PUSH2 0x1A4D PUSH2 0x2634 PUSH1 0x40 MLOAD SWAP1 JUMP JUMPDEST SWAP3 DUP4 SWAP3 DUP4 PUSH2 0x24D0 JUMP JUMPDEST SWAP1 PUSH2 0x820 SWAP2 PUSH2 0x234B JUMP JUMPDEST SWAP1 PUSH2 0x2650 PUSH2 0xEF5 JUMP JUMPDEST PUSH2 0x265E PUSH2 0x11BC CALLER DUP1 SWAP4 PUSH2 0x10A5 JUMP JUMPDEST SWAP1 DUP2 PUSH2 0x2673 JUMPI JUMPDEST POP PUSH2 0x2377 JUMPI PUSH2 0x820 SWAP2 PUSH2 0x26EF JUMP JUMPDEST PUSH2 0x2690 SWAP2 POP PUSH2 0x11BC SWAP1 PUSH1 0x0 DUP1 MLOAD PUSH1 0x20 PUSH2 0x3054 DUP4 CODECOPY DUP2 MLOAD SWAP2 MSTORE PUSH2 0x10A5 JUMP JUMPDEST CODESIZE PUSH2 0x2665 JUMP JUMPDEST POP PUSH4 0x4E487B71 PUSH1 0xE0 SHL PUSH1 0x0 MSTORE PUSH1 0x31 PUSH1 0x4 MSTORE PUSH1 0x24 PUSH1 0x0 REVERT JUMPDEST PUSH2 0x820 SWAP2 PUSH1 0x0 SWAP2 PUSH2 0x240E JUMP JUMPDEST PUSH1 0x1 PUSH2 0x26C3 DUP3 SLOAD SWAP1 JUMP JUMPDEST DUP1 ISZERO PUSH2 0x26E2 JUMPI JUMPDEST SUB SWAP1 PUSH2 0x26DF PUSH2 0x26D9 DUP4 DUP4 PUSH2 0x23B9 JUMP JUMPDEST SWAP1 PUSH2 0x26AD JUMP JUMPDEST SSTORE JUMP JUMPDEST PUSH2 0x26EA PUSH2 0x2696 JUMP JUMPDEST PUSH2 0x26CA JUMP JUMPDEST SWAP1 SWAP2 SWAP1 DUP3 SWAP2 PUSH1 0x0 JUMPDEST DUP4 JUMPDEST DUP2 LT ISZERO PUSH2 0x27C2 JUMPI PUSH2 0x2714 PUSH2 0x11BC PUSH2 0x427 PUSH2 0x2076 DUP5 DUP10 DUP9 PUSH2 0x1FF2 JUMP JUMPDEST PUSH2 0x27A5 JUMPI PUSH2 0x279E DUP2 PUSH2 0x25AC PUSH2 0x2799 PUSH2 0x2754 PUSH2 0x836 PUSH1 0x0 PUSH2 0x2794 DUP11 PUSH2 0x25A1 PUSH2 0x2076 DUP16 SWAP12 PUSH2 0x26F9 SWAP13 PUSH1 0x9 SWAP5 PUSH2 0x278F PUSH2 0x275F PUSH2 0x275A PUSH2 0x2754 PUSH2 0x2076 DUP8 DUP8 DUP8 PUSH2 0x1FF2 JUMP JUMPDEST DUP10 PUSH2 0xB56 JUMP JUMPDEST PUSH2 0x10CB JUMP JUMPDEST PUSH2 0x25A7 DUP2 PUSH1 0x6 SWAP14 DUP15 PUSH2 0x244F PUSH2 0x2787 PUSH2 0x2781 PUSH2 0x277B PUSH2 0x257E DUP6 SLOAD SWAP1 JUMP JUMPDEST DUP5 PUSH2 0x23B9 JUMP JUMPDEST SWAP1 PUSH2 0xF90 JUMP JUMPDEST SWAP4 DUP5 SWAP3 PUSH2 0x23B9 JUMP JUMPDEST PUSH2 0x1FF2 JUMP JUMPDEST PUSH2 0x177E JUMP JUMPDEST PUSH2 0x26B9 JUMP JUMPDEST SWAP1 POP PUSH2 0x26F7 JUMP JUMPDEST POP POP POP POP POP PUSH2 0x27B3 PUSH1 0x40 MLOAD SWAP1 JUMP JUMPDEST PUSH4 0x7C241AD PUSH1 0xE5 SHL DUP2 MSTORE PUSH1 0x4 SWAP1 REVERT JUMPDEST POP SWAP3 SWAP1 SWAP2 POP PUSH32 0xC18397A78D98D67911BE09B9C32315C4B8DB0454529F84F856E61F537494CBFC SWAP2 PUSH2 0x1A4D PUSH2 0x2634 PUSH1 0x40 MLOAD SWAP1 JUMP JUMPDEST SWAP1 PUSH2 0x820 SWAP2 PUSH2 0x2647 JUMP JUMPDEST SWAP1 PUSH2 0x820 SWAP2 PUSH2 0x280F PUSH2 0x1105 PUSH2 0xEF5 JUMP JUMPDEST SWAP1 SWAP2 SWAP1 DUP3 SWAP2 PUSH1 0x0 JUMPDEST DUP4 JUMPDEST DUP2 LT ISZERO PUSH2 0x28B4 JUMPI PUSH2 0x282E PUSH2 0x2076 DUP3 DUP8 DUP7 PUSH2 0x1FF2 JUMP JUMPDEST PUSH2 0x283E PUSH2 0x208A PUSH2 0x980 PUSH1 0x0 PUSH2 0x1722 JUMP JUMPDEST EQ PUSH2 0x25F3 JUMPI PUSH2 0x2854 PUSH2 0x6EF PUSH2 0x2076 DUP4 DUP9 DUP8 PUSH2 0x1FF2 JUMP JUMPDEST PUSH2 0x2897 JUMPI PUSH2 0x2819 SWAP1 PUSH2 0x2890 SWAP1 PUSH2 0x25AC PUSH2 0x287D PUSH2 0x257E PUSH1 0x7 PUSH2 0x257A DUP10 PUSH2 0x2574 PUSH2 0x2076 DUP9 DUP16 DUP7 PUSH2 0x256E JUMP JUMPDEST PUSH2 0x25A7 PUSH1 0xA PUSH2 0x25A1 PUSH2 0x2076 DUP7 DUP14 DUP13 PUSH2 0x1FF2 JUMP JUMPDEST SWAP1 POP PUSH2 0x2817 JUMP JUMPDEST POP POP POP POP POP PUSH2 0x28A5 PUSH1 0x40 MLOAD SWAP1 JUMP JUMPDEST PUSH4 0x36650E8F PUSH1 0xE1 SHL DUP2 MSTORE PUSH1 0x4 SWAP1 REVERT JUMPDEST POP SWAP3 SWAP1 SWAP2 POP PUSH32 0x8FF2887F41C4AF26BBCADF0889537A4641E2D1D6D9FA287FEAF683A76096EFD8 SWAP2 PUSH2 0x1A4D PUSH2 0x2634 PUSH1 0x40 MLOAD SWAP1 JUMP JUMPDEST SWAP1 PUSH2 0x820 SWAP2 PUSH2 0x27FF JUMP JUMPDEST SWAP1 PUSH2 0x820 SWAP2 PUSH2 0x2901 PUSH2 0x1105 PUSH2 0xEF5 JUMP JUMPDEST SWAP1 SWAP2 SWAP1 DUP3 SWAP2 PUSH1 0x0 JUMPDEST DUP4 JUMPDEST DUP2 LT ISZERO PUSH2 0x29A6 JUMPI PUSH2 0x2926 PUSH2 0x11BC PUSH2 0x6EF PUSH2 0x2076 DUP5 DUP10 DUP9 PUSH2 0x1FF2 JUMP JUMPDEST PUSH2 0x2989 JUMPI PUSH2 0x2982 DUP2 PUSH2 0x25AC PUSH2 0x2799 PUSH2 0x2754 PUSH2 0x836 PUSH1 0x0 PUSH2 0x2794 DUP11 PUSH2 0x25A1 PUSH2 0x2076 DUP16 SWAP12 PUSH2 0x290B SWAP13 PUSH1 0xA SWAP5 PUSH2 0x278F PUSH2 0x2966 PUSH2 0x275A PUSH2 0x2754 PUSH2 0x2076 DUP8 DUP8 DUP8 PUSH2 0x1FF2 JUMP JUMPDEST PUSH2 0x25A7 DUP2 PUSH1 0x7 SWAP14 DUP15 PUSH2 0x244F PUSH2 0x2787 PUSH2 0x2781 PUSH2 0x277B PUSH2 0x257E DUP6 SLOAD SWAP1 JUMP JUMPDEST SWAP1 POP PUSH2 0x2909 JUMP JUMPDEST POP POP POP POP POP PUSH2 0x2997 PUSH1 0x40 MLOAD SWAP1 JUMP JUMPDEST PUSH4 0x7463712B PUSH1 0xE0 SHL DUP2 MSTORE PUSH1 0x4 SWAP1 REVERT JUMPDEST POP SWAP3 SWAP1 SWAP2 POP PUSH32 0xA520FF964BC029411023E3F0E20BF29E54C023E5E23B0E28D0DE3AE5D4231A9E SWAP2 PUSH2 0x1A4D PUSH2 0x2634 PUSH1 0x40 MLOAD SWAP1 JUMP JUMPDEST SWAP1 PUSH2 0x820 SWAP2 PUSH2 0x28F1 JUMP JUMPDEST SWAP1 PUSH2 0x29F8 SWAP5 SWAP4 SWAP3 SWAP2 PUSH2 0x29F3 PUSH2 0x2A96 JUMP JUMPDEST PUSH2 0x2A12 JUMP JUMPDEST PUSH2 0x820 PUSH2 0x2AC8 JUMP JUMPDEST PUSH2 0x836 PUSH1 0x0 PUSH2 0x1438 JUMP JUMPDEST PUSH2 0x836 PUSH2 0x2A00 JUMP JUMPDEST SWAP3 PUSH2 0x820 SWAP5 SWAP2 SWAP3 PUSH2 0x2A23 PUSH1 0x0 PUSH2 0x85D JUMP JUMPDEST SWAP4 PUSH2 0x2A2C PUSH2 0x2A0A JUMP JUMPDEST SWAP6 PUSH2 0x2E44 JUMP JUMPDEST SWAP1 PUSH2 0x820 SWAP5 SWAP4 SWAP3 SWAP2 PUSH2 0x29E3 JUMP JUMPDEST PUSH2 0x836 PUSH1 0x2 PUSH2 0x85D JUMP JUMPDEST ISZERO PUSH2 0x2A50 JUMPI JUMP JUMPDEST POP PUSH1 0x40 MLOAD PUSH3 0x461BCD PUSH1 0xE5 SHL DUP2 MSTORE PUSH1 0x20 PUSH1 0x4 DUP3 ADD MSTORE PUSH1 0x1F PUSH1 0x24 DUP3 ADD MSTORE PUSH32 0x5265656E7472616E637947756172643A207265656E7472616E742063616C6C00 PUSH1 0x44 DUP3 ADD MSTORE PUSH1 0x64 SWAP1 REVERT JUMPDEST PUSH2 0x820 PUSH2 0x2AA3 PUSH1 0x1 PUSH2 0x10CB JUMP JUMPDEST PUSH2 0x2AB7 PUSH2 0x2AAE PUSH2 0x2A3F JUMP JUMPDEST SWAP2 DUP3 EQ ISZERO PUSH2 0x2A49 JUMP JUMPDEST PUSH1 0x1 PUSH2 0x18E3 JUMP JUMPDEST PUSH2 0x836 PUSH1 0x1 PUSH2 0x85D JUMP JUMPDEST PUSH2 0x820 PUSH2 0x2AB7 PUSH2 0x2ABE JUMP JUMPDEST SWAP1 PUSH2 0x29F8 SWAP7 SWAP6 SWAP5 SWAP4 SWAP3 SWAP2 PUSH2 0x2AE5 PUSH2 0x2A96 JUMP JUMPDEST SWAP1 PUSH2 0x820 SWAP7 SWAP6 SWAP5 SWAP4 SWAP3 SWAP2 PUSH2 0x2E44 JUMP JUMPDEST SWAP1 PUSH2 0x820 SWAP7 SWAP6 SWAP5 SWAP4 SWAP3 SWAP2 PUSH2 0x2AD3 JUMP JUMPDEST SWAP1 PUSH2 0x2B1E PUSH2 0x2B12 PUSH2 0xF16 DUP5 SLOAD SWAP1 JUMP JUMPDEST SWAP3 PUSH1 0x0 MSTORE PUSH1 0x20 PUSH1 0x0 KECCAK256 SWAP1 JUMP JUMPDEST SWAP1 PUSH1 0x0 JUMPDEST DUP2 DUP2 LT PUSH2 0x2B2F JUMPI POP POP POP SWAP1 JUMP JUMPDEST SWAP1 SWAP2 SWAP3 PUSH2 0x2B4B PUSH2 0x2B44 PUSH1 0x1 SWAP3 PUSH2 0x24AF DUP8 PUSH2 0x23AF JUMP JUMPDEST SWAP5 PUSH1 0x1 ADD SWAP1 JUMP JUMPDEST SWAP3 SWAP2 ADD PUSH2 0x2B22 JUMP JUMPDEST SWAP1 PUSH2 0x836 SWAP2 PUSH2 0x2B03 JUMP JUMPDEST SWAP1 PUSH2 0x820 PUSH2 0xE04 SWAP3 PUSH2 0x2B6E PUSH1 0x40 MLOAD SWAP1 JUMP JUMPDEST SWAP4 DUP5 DUP1 SWAP3 PUSH2 0x2B53 JUMP JUMPDEST PUSH2 0x836 SWAP1 PUSH2 0x2B5D JUMP JUMPDEST PUSH2 0x836 PUSH1 0x6 PUSH2 0x2B77 JUMP JUMPDEST PUSH2 0x836 PUSH1 0x7 PUSH2 0x2B77 JUMP JUMPDEST SWAP3 PUSH2 0x2BB1 PUSH1 0x20 PUSH2 0xBF5 SWAP5 PUSH2 0x1E81 PUSH1 0x14 DUP9 PUSH2 0x1E81 DUP3 SWAP12 SWAP11 DUP7 SWAP10 PUSH2 0x2014 JUMP JUMPDEST ADD DUP1 SWAP3 PUSH2 0x2014 JUMP JUMPDEST SWAP1 POP MLOAD SWAP1 PUSH2 0x820 DUP3 PUSH2 0x98C JUMP JUMPDEST SWAP1 POP MLOAD SWAP1 PUSH2 0x820 DUP3 PUSH2 0x90F JUMP JUMPDEST SWAP2 SWAP1 PUSH2 0x836 SWAP1 PUSH1 0x40 DUP5 DUP3 SUB SLT PUSH2 0x2BF7 JUMPI JUMPDEST PUSH2 0x2BEE DUP2 DUP6 PUSH2 0x2BB9 JUMP JUMPDEST SWAP4 PUSH1 0x20 ADD PUSH2 0x2BC6 JUMP JUMPDEST PUSH2 0x2BFF PUSH2 0x7F9 JUMP JUMPDEST PUSH2 0x2BE4 JUMP JUMPDEST POP PUSH1 0x40 MLOAD RETURNDATASIZE PUSH1 0x0 DUP3 RETURNDATACOPY RETURNDATASIZE SWAP1 REVERT JUMPDEST SWAP2 PUSH2 0x2C99 SWAP3 PUSH2 0x2C8B PUSH1 0x40 SWAP4 PUSH2 0x2C24 PUSH1 0x0 SWAP1 JUMP JUMPDEST POP PUSH2 0x2C68 PUSH2 0x2C3D PUSH2 0x2C38 PUSH2 0x2C38 PUSH1 0x3 PUSH2 0x23AF JUMP JUMPDEST PUSH2 0xB4D JUMP JUMPDEST SWAP4 PUSH4 0x2C4EF0D5 SWAP6 PUSH2 0x1214 PUSH2 0x2C50 ADDRESS PUSH2 0xB4D JUMP JUMPDEST SWAP2 PUSH2 0x2C5A PUSH1 0x40 MLOAD SWAP1 JUMP JUMPDEST SWAP6 DUP7 SWAP5 PUSH1 0x20 DUP7 ADD SWAP5 DUP6 PUSH2 0x2B94 JUMP JUMPDEST PUSH2 0x2C73 PUSH2 0x1D44 DUP3 MLOAD SWAP1 JUMP JUMPDEST KECCAK256 SWAP3 PUSH2 0x2C7E PUSH1 0x40 MLOAD SWAP1 JUMP JUMPDEST SWAP6 DUP7 SWAP5 DUP6 SWAP4 DUP5 SWAP4 PUSH1 0xE0 SHL SWAP1 JUMP JUMPDEST DUP4 MSTORE PUSH1 0x4 DUP4 ADD MSTORE PUSH1 0x24 DUP3 ADD SWAP1 JUMP JUMPDEST SUB SWAP2 GAS STATICCALL SWAP1 DUP2 ISZERO PUSH2 0x2CCE JUMPI JUMPDEST PUSH1 0x0 DUP1 SWAP2 SWAP1 SWAP3 PUSH2 0x2CB4 JUMPI POP SWAP1 SWAP2 JUMP JUMPDEST SWAP1 POP PUSH2 0x8F1 SWAP2 POP PUSH2 0x2CC5 RETURNDATASIZE DUP3 PUSH2 0xB93 JUMP JUMPDEST RETURNDATASIZE DUP2 ADD SWAP1 PUSH2 0x2BD3 JUMP JUMPDEST PUSH2 0x2CD6 PUSH2 0x2C04 JUMP JUMPDEST PUSH2 0x2CA5 JUMP JUMPDEST PUSH1 0x6 SWAP1 PUSH2 0x2CE6 DUP3 SLOAD SWAP1 JUMP JUMPDEST PUSH1 0x0 SWAP1 PUSH2 0x2CF5 PUSH2 0x1400 DUP4 PUSH2 0x85D JUMP JUMPDEST EQ PUSH2 0x2D50 JUMPI PUSH2 0x2D08 PUSH2 0x275A DUP4 PUSH1 0x9 PUSH2 0xB56 JUMP JUMPDEST PUSH2 0x2D14 PUSH2 0x1400 DUP4 PUSH2 0x85D JUMP JUMPDEST EQ ISZERO SWAP3 DUP4 ISZERO PUSH2 0x2D24 JUMPI JUMPDEST POP POP POP SWAP1 JUMP JUMPDEST PUSH2 0x2D47 SWAP3 SWAP4 POP PUSH2 0x2781 PUSH2 0x208A SWAP3 PUSH2 0x2D3A SWAP3 PUSH2 0x23B9 JUMP JUMPDEST SWAP3 PUSH1 0x1 PUSH1 0x1 PUSH1 0xA0 SHL SUB AND SWAP1 JUMP JUMPDEST EQ CODESIZE DUP1 DUP1 PUSH2 0x2D1E JUMP JUMPDEST SWAP2 POP POP SWAP1 JUMP JUMPDEST PUSH1 0x7 SWAP1 PUSH2 0x2D61 DUP3 SLOAD SWAP1 JUMP JUMPDEST PUSH1 0x0 SWAP1 PUSH2 0x2D70 PUSH2 0x1400 DUP4 PUSH2 0x85D JUMP JUMPDEST EQ PUSH2 0x2D50 JUMPI PUSH2 0x2D08 PUSH2 0x275A DUP4 PUSH1 0xA PUSH2 0xB56 JUMP JUMPDEST PUSH2 0x836 PUSH2 0x140 PUSH2 0xBC2 JUMP JUMPDEST DUP1 MLOAD DUP3 MSTORE PUSH1 0x20 DUP1 DUP3 ADD MLOAD PUSH1 0x1 PUSH1 0x1 PUSH1 0xA0 SHL SUB AND SWAP1 DUP4 ADD MSTORE PUSH2 0x836 SWAP2 PUSH2 0x140 DUP2 ADD SWAP2 PUSH2 0x120 SWAP1 PUSH1 0x40 DUP2 DUP2 ADD MLOAD PUSH1 0x1 PUSH1 0x1 PUSH1 0xA0 SHL SUB AND SWAP1 DUP5 ADD MSTORE PUSH2 0x2DD5 PUSH1 0x60 DUP3 ADD MLOAD PUSH1 0x60 DUP6 ADD MSTORE JUMP JUMPDEST PUSH2 0x2DE4 PUSH1 0x80 DUP3 ADD MLOAD PUSH1 0x80 DUP6 ADD MSTORE JUMP JUMPDEST PUSH2 0x2DF3 PUSH1 0xA0 DUP3 ADD MLOAD PUSH1 0xA0 DUP6 ADD MSTORE JUMP JUMPDEST PUSH2 0x2E02 PUSH1 0xC0 DUP3 ADD MLOAD PUSH1 0xC0 DUP6 ADD MSTORE JUMP JUMPDEST PUSH2 0x2E11 PUSH1 0xE0 DUP3 ADD MLOAD PUSH1 0xE0 DUP6 ADD MSTORE JUMP JUMPDEST PUSH2 0x2E22 PUSH2 0x100 DUP3 ADD MLOAD PUSH2 0x100 DUP6 ADD MSTORE JUMP JUMPDEST ADD MLOAD SWAP1 PUSH2 0x120 DUP2 DUP5 SUB SWAP2 ADD MSTORE PUSH2 0xE69 JUMP JUMPDEST PUSH1 0x20 DUP1 DUP3 MSTORE PUSH2 0x836 SWAP3 SWAP2 ADD SWAP1 PUSH2 0x2D8E JUMP JUMPDEST SWAP4 SWAP5 SWAP6 SWAP1 SWAP6 PUSH2 0x2E57 PUSH2 0x275A DUP7 PUSH1 0x8 PUSH2 0x943 JUMP JUMPDEST TIMESTAMP DUP2 LT PUSH2 0x3023 JUMPI PUSH1 0x0 SWAP8 PUSH2 0x2E6A DUP10 PUSH2 0x85D JUMP JUMPDEST DUP9 EQ DUP1 ISZERO PUSH2 0x300E JUMPI JUMPDEST PUSH2 0x2FEC JUMPI PUSH2 0x2E83 PUSH2 0x980 DUP11 PUSH2 0x1722 JUMP JUMPDEST PUSH1 0x1 PUSH1 0x1 PUSH1 0xA0 SHL SUB DUP3 AND EQ PUSH2 0x2FD9 JUMPI PUSH2 0x2E9E PUSH2 0x11BC DUP3 PUSH2 0x2CDB JUMP JUMPDEST PUSH2 0x2FC6 JUMPI PUSH2 0x2EAB DUP10 PUSH2 0x85D JUMP JUMPDEST DUP6 EQ PUSH2 0x2FA4 JUMPI DUP9 SWAP8 PUSH2 0x2EBD PUSH1 0x3 PUSH2 0x23AF JUMP JUMPDEST PUSH2 0x2EC6 SWAP1 PUSH2 0xB4D JUMP JUMPDEST PUSH2 0x2ECF SWAP1 PUSH2 0xB4D JUMP JUMPDEST SWAP7 PUSH4 0x5C2A802B SWAP7 CALLER PUSH2 0x2EE1 PUSH1 0x5 PUSH2 0x10CB JUMP JUMPDEST SWAP5 PUSH2 0x2EEA PUSH2 0x2D83 JUMP JUMPDEST SWAP12 PUSH2 0x2EF5 SWAP1 DUP15 DUP15 ADD MSTORE JUMP JUMPDEST PUSH1 0x1 PUSH1 0x1 PUSH1 0xA0 SHL SUB AND PUSH1 0x20 DUP13 ADD MSTORE PUSH1 0x1 PUSH1 0x1 PUSH1 0xA0 SHL SUB AND PUSH1 0x40 DUP12 ADD MSTORE PUSH1 0x60 DUP11 ADD MSTORE PUSH1 0x80 DUP10 ADD MSTORE PUSH1 0xA0 DUP9 ADD MSTORE PUSH1 0xC0 DUP8 ADD MSTORE PUSH1 0xE0 DUP7 ADD MSTORE PUSH2 0x100 DUP6 ADD MSTORE PUSH2 0x120 DUP5 ADD MSTORE PUSH2 0x2F61 SWAP5 PUSH2 0x2F56 SWAP2 DUP4 EXTCODESIZE ISZERO PUSH2 0x2F97 JUMPI JUMPDEST PUSH1 0x40 MLOAD SWAP7 DUP8 SWAP6 DUP7 SWAP5 DUP6 SWAP4 PUSH1 0xE0 SHL SWAP1 JUMP JUMPDEST DUP4 MSTORE PUSH1 0x4 DUP4 ADD PUSH2 0x2E33 JUMP JUMPDEST SUB SWAP3 GAS CALL DUP1 ISZERO PUSH2 0x2F8A JUMPI JUMPDEST PUSH2 0x2F73 JUMPI POP JUMP JUMPDEST PUSH2 0x820 SWAP1 PUSH2 0x2F81 RETURNDATASIZE DUP3 PUSH2 0xB93 JUMP JUMPDEST RETURNDATASIZE DUP2 ADD SWAP1 PUSH2 0x84A JUMP JUMPDEST PUSH2 0x2F92 PUSH2 0x2C04 JUMP JUMPDEST PUSH2 0x2F6C JUMP JUMPDEST PUSH2 0x2F9F PUSH2 0x7F9 JUMP JUMPDEST PUSH2 0x2F46 JUMP JUMPDEST POP POP POP POP POP POP POP POP POP POP PUSH2 0x2FB7 PUSH1 0x40 MLOAD SWAP1 JUMP JUMPDEST PUSH4 0x162908E3 PUSH1 0xE1 SHL DUP2 MSTORE PUSH1 0x4 SWAP1 REVERT JUMPDEST POP POP POP POP POP POP POP POP POP POP PUSH2 0x27B3 PUSH1 0x40 MLOAD SWAP1 JUMP JUMPDEST POP POP POP POP POP POP POP POP POP POP PUSH2 0x1AE8 PUSH1 0x40 MLOAD SWAP1 JUMP JUMPDEST POP POP POP POP POP POP POP POP POP POP PUSH2 0x2FFF PUSH1 0x40 MLOAD SWAP1 JUMP JUMPDEST PUSH4 0x2E8F359 PUSH1 0xE3 SHL DUP2 MSTORE PUSH1 0x4 SWAP1 REVERT JUMPDEST POP PUSH2 0x301C PUSH2 0x836 PUSH1 0x4 PUSH2 0x10CB JUMP JUMPDEST DUP9 GT PUSH2 0x2E73 JUMP JUMPDEST POP POP POP POP POP POP POP POP POP PUSH2 0x3035 PUSH1 0x40 MLOAD SWAP1 JUMP JUMPDEST PUSH4 0x387B2E55 PUSH1 0xE1 SHL DUP2 MSTORE PUSH1 0x4 SWAP1 REVERT JUMPDEST SWAP1 PUSH2 0x25A7 PUSH2 0x820 SWAP3 PUSH1 0x8 PUSH2 0x943 JUMP INVALID MLOAD CHAINID LOG0 DUP12 0xAF SWAP1 0x25 ORIGIN 0xD0 0xEE 0x2F SWAP1 SWAP10 PUSH18 0x144F12CA32651CD70CBEE1117CDDFB3B3B33 LOG3 PUSH5 0x6970667358 0x22 SLT KECCAK256 RETURNDATASIZE 0xE8 PUSH32 0xE65E419580B394CC648A6887356AF0210ACE8C733DC23F090DE2BFC3116C6578 PUSH17 0x6572696D656E74616CF564736F6C634300 ADDMOD 0xC STOP COINBASE "},"methodIdentifiers":{"BRIBE_VAULT()":"be309bca","DEFAULT_ADMIN_ROLE()":"a217fddf","MAX_PERIODS()":"0a254640","MAX_PERIOD_DURATION()":"7fb84bed","PROTOCOL()":"91b9b827","TEAM_ROLE()":"49d5e604","addBlacklistedVoters(address[])":"114e6e73","addWhitelistedTokens(address[])":"cd698e69","depositBribe(bytes32,address,uint256,uint256,uint256)":"99702270","depositBribeWithPermit(bytes32,address,uint256,uint256,uint256,uint256,bytes)":"8fef5891","getBlacklistedVoters()":"b0b38baa","getBribe(bytes32,uint256,address)":"f7e6b46b","getRoleAdmin(bytes32)":"248a9ca3","getWhitelistedTokens()":"e26f7900","grantRole(bytes32,address)":"2f2ff15d","grantTeamRole(address)":"f52c395a","hasRole(bytes32,address)":"91d14854","indexOfBlacklistedVoter(address)":"ea24a768","indexOfWhitelistedToken(address)":"8e8efaee","initialize(address,address,string,uint256,uint256)":"8d23507f","isBlacklistedVoter(address)":"2fa4d218","isWhitelistedToken(address)":"ab37f486","maxPeriods()":"5155bafa","periodDuration()":"b470aade","proposalDeadlines(bytes32)":"21298310","removeBlacklistedVoters(address[])":"42a83551","removeWhitelistedTokens(address[])":"bcec454f","renounceRole(bytes32,address)":"36568abe","revokeRole(bytes32,address)":"d547741f","revokeTeamRole(address)":"5699fbad","setMaxPeriods(uint256)":"da606ce2","setPeriodDuration(uint256)":"7c2d6e01","setProposals(bytes[],uint256)":"84f389a8","setProposalsByAddress(address[],uint256)":"ed99c0d1","setProposalsById(uint256,uint256,uint256)":"d59551d2","supportsInterface(bytes4)":"01ffc9a7"}}}}}