{"contracts/VaultOperator.sol":{"VaultOperator":{"abi":[{"inputs":[{"internalType":"address","name":"_bribeVault","type":"address"},{"internalType":"address","name":"_rewardDistributor","type":"address"}],"stateMutability":"nonpayable","type":"constructor"},{"inputs":[],"name":"InvalidAddress","type":"error"},{"inputs":[],"name":"NotAuthorized","type":"error"},{"anonymous":false,"inputs":[{"indexed":true,"internalType":"address","name":"previousOwner","type":"address"},{"indexed":true,"internalType":"address","name":"newOwner","type":"address"}],"name":"OwnershipTransferStarted","type":"event"},{"anonymous":false,"inputs":[{"indexed":true,"internalType":"address","name":"previousOwner","type":"address"},{"indexed":true,"internalType":"address","name":"newOwner","type":"address"}],"name":"OwnershipTransferred","type":"event"},{"anonymous":false,"inputs":[{"indexed":true,"internalType":"address","name":"operator","type":"address"}],"name":"SetOperator","type":"event"},{"inputs":[],"name":"acceptOwnership","outputs":[],"stateMutability":"nonpayable","type":"function"},{"inputs":[],"name":"bribeVault","outputs":[{"internalType":"contract IBribeVault","name":"","type":"address"}],"stateMutability":"view","type":"function"},{"inputs":[],"name":"operator","outputs":[{"internalType":"address","name":"","type":"address"}],"stateMutability":"view","type":"function"},{"inputs":[],"name":"owner","outputs":[{"internalType":"address","name":"","type":"address"}],"stateMutability":"view","type":"function"},{"inputs":[],"name":"pendingOwner","outputs":[{"internalType":"address","name":"","type":"address"}],"stateMutability":"view","type":"function"},{"inputs":[],"name":"renounceOwnership","outputs":[],"stateMutability":"nonpayable","type":"function"},{"inputs":[],"name":"rewardDistributor","outputs":[{"internalType":"contract IRewardDistributor","name":"","type":"address"}],"stateMutability":"view","type":"function"},{"inputs":[{"internalType":"address","name":"_operator","type":"address"}],"name":"setOperator","outputs":[],"stateMutability":"nonpayable","type":"function"},{"inputs":[{"internalType":"bool","name":"state","type":"bool"}],"name":"setPauseState","outputs":[],"stateMutability":"nonpayable","type":"function"},{"inputs":[{"internalType":"bytes32[]","name":"rewardIdentifiers","type":"bytes32[]"}],"name":"transferBribes","outputs":[],"stateMutability":"nonpayable","type":"function"},{"inputs":[{"internalType":"address","name":"newOwner","type":"address"}],"name":"transferOwnership","outputs":[],"stateMutability":"nonpayable","type":"function"},{"inputs":[{"components":[{"internalType":"bytes32","name":"identifier","type":"bytes32"},{"internalType":"address","name":"token","type":"address"},{"internalType":"bytes32","name":"merkleRoot","type":"bytes32"},{"internalType":"bytes32","name":"proof","type":"bytes32"}],"internalType":"struct Common.Distribution[]","name":"distributions","type":"tuple[]"}],"name":"updateRewardsMetadata","outputs":[],"stateMutability":"nonpayable","type":"function"}],"evm":{"bytecode":{"linkReferences":{},"object":"60c06040523462000059575b62000020620000196200013a565b90620001dd565b604051610c206200035e82396080518181816102350152610927015260a0518181816101bb01528181610ae70152610b710152610c2090f35b6200006362000069565b6200000b565b50600080fd5b50634e487b7160e01b600052604160045260246000fd5b90601f01601f191681019081106001600160401b03821117620000a857604052565b620000b26200006f565b604052565b90620000ce620000c660405190565b928362000086565b565b6001600160a01b031690565b90565b6001600160a01b03811614156200006957565b90505190620000ce82620000df565b9190620000dc906040848203126200012a575b620001208185620000f2565b93602001620000f2565b6200013462000069565b62000114565b6200015d62000f7e803803806200015181620000b7565b92833981019062000101565b9091565b620000d0620000dc620000dc9290565b620000dc9062000161565b620000dc90620000d0906001600160a01b031682565b620000dc906200017c565b620000dc9062000192565b906001600160a01b03905b9181191691161790565b90620001d1620000dc620001d9926200019d565b8254620001a8565b9055565b90620001e862000279565b620001f4600062000171565b6001600160a01b0381166001600160a01b038416146200026b576001600160a01b03166001600160a01b038216146200024f57620002366200023f926200019d565b6080526200019d565b60a052620000ce336002620001bd565b5050506200025c60405190565b63e6c4247b60e01b8152600490fd5b505050506200025c60405190565b620000ce8033620002cb565b916001600160a01b0360089290920291821b911b620001b3565b9190620002b4620000dc620001d9936200019d565b90835462000285565b620000ce916000916200029f565b620000ce90620002de60006001620002bd565b620002fb565b620000dc90620000d0565b620000dc9054620002e4565b620003076000620002ef565b9062000315816000620001bd565b6200034c620003457f8be0079c531659141344cd1fd0a4f28419497f9722a3daafe3b4186f6b6457e0936200019d565b916200019d565b916200035760405190565b600090a356fe60806040526004361015610018575b6100166102de565b005b60003560e01c8063570ca735146102b4578063715018a61461028d57806379ba509714610266578063833d657e1461021e5780638da5cb5b146101f4578063acc2166a146101a4578063b2d7edb21461017c578063b3ab15fb14610155578063cdb88ad11461012e578063df45c75214610106578063e30c3978146100d05763f2fde38b146100a65761000e565b346100c3575b6100166100ba366004610435565b61069b565b0390f35b6100cb6102de565b6100ac565b50346100f9575b6100e23660046102e4565b6100bf6100ed6105f9565b60405191829182610335565b6101016102de565b6100d7565b5034610121575b61001661011b3660046104d8565b90610b32565b6101296102de565b61010d565b5034610148575b61001661014336600461046b565b610bd3565b6101506102de565b610135565b503461016f575b61001661016a366004610435565b610835565b6101776102de565b61015c565b5034610197575b6100166101913660046103d0565b906109c3565b61019f6102de565b610183565b50346101e7575b6101b63660046102e4565b6100bf7f00000000000000000000000000000000000000000000000000000000000000005b60405191829182610374565b6101ef6102de565b6101ab565b5034610211575b6102063660046102e4565b6100bf6100ed61052e565b6102196102de565b6101fb565b5034610259575b6102303660046102e4565b6100bf7f00000000000000000000000000000000000000000000000000000000000000006101db565b6102616102de565b610225565b5034610280575b6102783660046102e4565b610016610794565b6102886102de565b61026d565b50346102a7575b61029f3660046102e4565b610016610570565b6102af6102de565b610294565b50346102d1575b6102c63660046102e4565b6100bf6100ed61031c565b6102d96102de565b6102bb565b50600080fd5b60009103126102ef57565b6102f76102de565b565b61030e916008021c5b6001600160a01b031690565b90565b9061030e91546102f9565b61030e60006002610311565b61033190610302565b9052565b6020810192916102f79190610328565b61030e90610302906001600160a01b031682565b61030e90610345565b61030e90610359565b61033190610362565b6020810192916102f7919061036b565b909182601f830112156103c3575b602082359267ffffffffffffffff84116103b6575b0192602083028401116102ef57565b6103be6102de565b6103a7565b6103cb6102de565b610392565b906103f99160208183031261040a575b80359067ffffffffffffffff82116103fd575b01610384565b9091565b6104056102de565b6103f3565b6104126102de565b6103e0565b61042081610302565b14156102de57565b905035906102f782610417565b9061030e9160208183031261044957610428565b6104516102de565b610428565b801515610420565b905035906102f782610456565b9061030e9160208183031261047f5761045e565b6104876102de565b61045e565b909182601f830112156104cb575b602082359267ffffffffffffffff84116104be575b0192608083028401116102ef57565b6104c66102de565b6104af565b6104d36102de565b61049a565b906103f99160208183031261050e575b80359067ffffffffffffffff8211610501575b0161048c565b6105096102de565b6104fb565b6105166102de565b6104e8565b61030e90610302565b61030e905461051b565b61030e6000610524565b6105406105d1565b6102f761055e565b61030261030e61030e9290565b61030e90610548565b6102f761056b6000610555565b6106e2565b6102f7610538565b0190565b1561058357565b5060405162461bcd60e51b8152806105cd600482016020808252818101527f4f776e61626c653a2063616c6c6572206973206e6f7420746865206f776e6572604082015260600190565b0390fd5b6102f76105dc61052e565b6105f36105ed33610302565b610302565b91610302565b1461057c565b61030e6001610524565b6102f79061060f6105d1565b610644565b906001600160a01b03905b9181191691161790565b9061063961030e61064092610362565b8254610614565b9055565b61064f816001610629565b61065761052e565b9061068b6106857f38d16b8cac22d99fc7c124b9cd0de2d3fa1faef420bfe791d8c362d765e2270093610362565b91610362565b9161069560405190565b600090a3565b6102f790610603565b916001600160a01b0360089290920291821b911b61061f565b91906106ce61030e61064093610362565b9083546106a4565b6102f7916000916106bd565b6102f7906106f2600060016106d6565b6106fc6000610524565b90610708816000610629565b61068b6106857f8be0079c531659141344cd1fd0a4f28419497f9722a3daafe3b4186f6b6457e093610362565b1561073c57565b5060405162461bcd60e51b815260206004820152602960248201527f4f776e61626c6532537465703a2063616c6c6572206973206e6f7420746865206044820152683732bb9037bbb732b960b91b6064820152608490fd5b6102f73361056b6107a36105f9565b6107af6105ed84610302565b14610735565b6102f7906107c16105d1565b6107ce6105e86000610555565b6107d782610302565b14610821576107e7816002610629565b6108117fdbebfba65bd6398fb722063efc10c99f624f9cd8ba657201056af918a676d5ee91610362565b9061081b60405190565b600090a2565b505060405163e6c4247b60e01b8152600490fd5b6102f7906107b5565b90336108506105ed6105e86002610524565b141561085f576102f79161091f565b50505061086b60405190565b63ea8e4eb560e01b8152600490fd5b50634e487b7160e01b600052604160045260246000fd5b90601f01601f1916810190811067ffffffffffffffff8211176108b357604052565b6108bb61087a565b604052565b90826000939282370152565b818352602092610578919084019384936001600160fb1b0381116108f4575b029384916108c0565b6108fc6102de565b6108eb565b602080825261030e939101916108cc565b506040513d6000823e3d90fd5b60009061094b7f0000000000000000000000000000000000000000000000000000000000000000610362565b6109758363b2d7edb2833b156109b6575b61098061096860405190565b9788968795869460e01b90565b845260048401610901565b03925af180156109a9575b6109925750565b6102f7906109a03d82610891565b3d8101906102e4565b6109b1610912565b61098b565b6109be6102de565b61095c565b906102f79161083e565b90336109df6105ed6105e86002610524565b141561085f576102f791610adf565b80610420565b905035906102f7826109ee565b5061030e9060208101906109f4565b5061030e906020810190610428565b906060610a776102f793610a3d610a396000830183610a01565b8552565b610a57610a4d6020830183610a10565b6020860190610328565b610a6e610a676040830183610a01565b6040860152565b82810190610a01565b910152565b9061057881608093610a1f565b818352602090920191906000825b828210610aa5575050505090565b90919293610ac5610abe600192610ab98890565b610a7c565b9560800190565b93920190610a97565b602080825261030e93910191610a89565b600090610b0b7f0000000000000000000000000000000000000000000000000000000000000000610362565b610b278363df45c752833b156109b65761098061096860405190565b845260048401610ace565b906102f7916109cd565b33610b4d6105ed6105e86002610524565b1415610b5c576102f790610b66565b505060405161086b565b600061098091610b957f0000000000000000000000000000000000000000000000000000000000000000610362565b610bb68363cdb88ad1833b15610bc6575b6040519687958694859360e01b90565b8352151560048301526024820190565b610bce6102de565b610ba6565b6102f790610b3c56fea364697066735822122035e0b1ecff1e69f95fd8d5a34a55a206049cbc0d717d5a35d05e16da33d1cdb56c6578706572696d656e74616cf564736f6c634300080c0041","opcodes":"PUSH1 0xC0 PUSH1 0x40 MSTORE CALLVALUE PUSH3 0x59 JUMPI JUMPDEST PUSH3 0x20 PUSH3 0x19 PUSH3 0x13A JUMP JUMPDEST SWAP1 PUSH3 0x1DD JUMP JUMPDEST PUSH1 0x40 MLOAD PUSH2 0xC20 PUSH3 0x35E DUP3 CODECOPY PUSH1 0x80 MLOAD DUP2 DUP2 DUP2 PUSH2 0x235 ADD MSTORE PUSH2 0x927 ADD MSTORE PUSH1 0xA0 MLOAD DUP2 DUP2 DUP2 PUSH2 0x1BB ADD MSTORE DUP2 DUP2 PUSH2 0xAE7 ADD MSTORE PUSH2 0xB71 ADD MSTORE PUSH2 0xC20 SWAP1 RETURN JUMPDEST PUSH3 0x63 PUSH3 0x69 JUMP JUMPDEST PUSH3 0xB JUMP JUMPDEST POP PUSH1 0x0 DUP1 REVERT JUMPDEST POP PUSH4 0x4E487B71 PUSH1 0xE0 SHL PUSH1 0x0 MSTORE PUSH1 0x41 PUSH1 0x4 MSTORE PUSH1 0x24 PUSH1 0x0 REVERT JUMPDEST SWAP1 PUSH1 0x1F ADD PUSH1 0x1F NOT AND DUP2 ADD SWAP1 DUP2 LT PUSH1 0x1 PUSH1 0x1 PUSH1 0x40 SHL SUB DUP3 GT OR PUSH3 0xA8 JUMPI PUSH1 0x40 MSTORE JUMP JUMPDEST PUSH3 0xB2 PUSH3 0x6F JUMP JUMPDEST PUSH1 0x40 MSTORE JUMP JUMPDEST SWAP1 PUSH3 0xCE PUSH3 0xC6 PUSH1 0x40 MLOAD SWAP1 JUMP JUMPDEST SWAP3 DUP4 PUSH3 0x86 JUMP JUMPDEST JUMP JUMPDEST PUSH1 0x1 PUSH1 0x1 PUSH1 0xA0 SHL SUB AND SWAP1 JUMP JUMPDEST SWAP1 JUMP JUMPDEST PUSH1 0x1 PUSH1 0x1 PUSH1 0xA0 SHL SUB DUP2 AND EQ ISZERO PUSH3 0x69 JUMPI JUMP JUMPDEST SWAP1 POP MLOAD SWAP1 PUSH3 0xCE DUP3 PUSH3 0xDF JUMP JUMPDEST SWAP2 SWAP1 PUSH3 0xDC SWAP1 PUSH1 0x40 DUP5 DUP3 SUB SLT PUSH3 0x12A JUMPI JUMPDEST PUSH3 0x120 DUP2 DUP6 PUSH3 0xF2 JUMP JUMPDEST SWAP4 PUSH1 0x20 ADD PUSH3 0xF2 JUMP JUMPDEST PUSH3 0x134 PUSH3 0x69 JUMP JUMPDEST PUSH3 0x114 JUMP JUMPDEST PUSH3 0x15D PUSH3 0xF7E DUP1 CODESIZE SUB DUP1 PUSH3 0x151 DUP2 PUSH3 0xB7 JUMP JUMPDEST SWAP3 DUP4 CODECOPY DUP2 ADD SWAP1 PUSH3 0x101 JUMP JUMPDEST SWAP1 SWAP2 JUMP JUMPDEST PUSH3 0xD0 PUSH3 0xDC PUSH3 0xDC SWAP3 SWAP1 JUMP JUMPDEST PUSH3 0xDC SWAP1 PUSH3 0x161 JUMP JUMPDEST PUSH3 0xDC SWAP1 PUSH3 0xD0 SWAP1 PUSH1 0x1 PUSH1 0x1 PUSH1 0xA0 SHL SUB AND DUP3 JUMP JUMPDEST PUSH3 0xDC SWAP1 PUSH3 0x17C JUMP JUMPDEST PUSH3 0xDC SWAP1 PUSH3 0x192 JUMP JUMPDEST SWAP1 PUSH1 0x1 PUSH1 0x1 PUSH1 0xA0 SHL SUB SWAP1 JUMPDEST SWAP2 DUP2 NOT AND SWAP2 AND OR SWAP1 JUMP JUMPDEST SWAP1 PUSH3 0x1D1 PUSH3 0xDC PUSH3 0x1D9 SWAP3 PUSH3 0x19D JUMP JUMPDEST DUP3 SLOAD PUSH3 0x1A8 JUMP JUMPDEST SWAP1 SSTORE JUMP JUMPDEST SWAP1 PUSH3 0x1E8 PUSH3 0x279 JUMP JUMPDEST PUSH3 0x1F4 PUSH1 0x0 PUSH3 0x171 JUMP JUMPDEST PUSH1 0x1 PUSH1 0x1 PUSH1 0xA0 SHL SUB DUP2 AND PUSH1 0x1 PUSH1 0x1 PUSH1 0xA0 SHL SUB DUP5 AND EQ PUSH3 0x26B JUMPI PUSH1 0x1 PUSH1 0x1 PUSH1 0xA0 SHL SUB AND PUSH1 0x1 PUSH1 0x1 PUSH1 0xA0 SHL SUB DUP3 AND EQ PUSH3 0x24F JUMPI PUSH3 0x236 PUSH3 0x23F SWAP3 PUSH3 0x19D JUMP JUMPDEST PUSH1 0x80 MSTORE PUSH3 0x19D JUMP JUMPDEST PUSH1 0xA0 MSTORE PUSH3 0xCE CALLER PUSH1 0x2 PUSH3 0x1BD JUMP JUMPDEST POP POP POP PUSH3 0x25C PUSH1 0x40 MLOAD SWAP1 JUMP JUMPDEST PUSH4 0xE6C4247B PUSH1 0xE0 SHL DUP2 MSTORE PUSH1 0x4 SWAP1 REVERT JUMPDEST POP POP POP POP PUSH3 0x25C PUSH1 0x40 MLOAD SWAP1 JUMP JUMPDEST PUSH3 0xCE DUP1 CALLER PUSH3 0x2CB JUMP JUMPDEST SWAP2 PUSH1 0x1 PUSH1 0x1 PUSH1 0xA0 SHL SUB PUSH1 0x8 SWAP3 SWAP1 SWAP3 MUL SWAP2 DUP3 SHL SWAP2 SHL PUSH3 0x1B3 JUMP JUMPDEST SWAP2 SWAP1 PUSH3 0x2B4 PUSH3 0xDC PUSH3 0x1D9 SWAP4 PUSH3 0x19D JUMP JUMPDEST SWAP1 DUP4 SLOAD PUSH3 0x285 JUMP JUMPDEST PUSH3 0xCE SWAP2 PUSH1 0x0 SWAP2 PUSH3 0x29F JUMP JUMPDEST PUSH3 0xCE SWAP1 PUSH3 0x2DE PUSH1 0x0 PUSH1 0x1 PUSH3 0x2BD JUMP JUMPDEST PUSH3 0x2FB JUMP JUMPDEST PUSH3 0xDC SWAP1 PUSH3 0xD0 JUMP JUMPDEST PUSH3 0xDC SWAP1 SLOAD PUSH3 0x2E4 JUMP JUMPDEST PUSH3 0x307 PUSH1 0x0 PUSH3 0x2EF JUMP JUMPDEST SWAP1 PUSH3 0x315 DUP2 PUSH1 0x0 PUSH3 0x1BD JUMP JUMPDEST PUSH3 0x34C PUSH3 0x345 PUSH32 0x8BE0079C531659141344CD1FD0A4F28419497F9722A3DAAFE3B4186F6B6457E0 SWAP4 PUSH3 0x19D JUMP JUMPDEST SWAP2 PUSH3 0x19D JUMP JUMPDEST SWAP2 PUSH3 0x357 PUSH1 0x40 MLOAD SWAP1 JUMP JUMPDEST PUSH1 0x0 SWAP1 LOG3 JUMP INVALID PUSH1 0x80 PUSH1 0x40 MSTORE PUSH1 0x4 CALLDATASIZE LT ISZERO PUSH2 0x18 JUMPI JUMPDEST PUSH2 0x16 PUSH2 0x2DE JUMP JUMPDEST STOP JUMPDEST PUSH1 0x0 CALLDATALOAD PUSH1 0xE0 SHR DUP1 PUSH4 0x570CA735 EQ PUSH2 0x2B4 JUMPI DUP1 PUSH4 0x715018A6 EQ PUSH2 0x28D JUMPI DUP1 PUSH4 0x79BA5097 EQ PUSH2 0x266 JUMPI DUP1 PUSH4 0x833D657E EQ PUSH2 0x21E JUMPI DUP1 PUSH4 0x8DA5CB5B EQ PUSH2 0x1F4 JUMPI DUP1 PUSH4 0xACC2166A EQ PUSH2 0x1A4 JUMPI DUP1 PUSH4 0xB2D7EDB2 EQ PUSH2 0x17C JUMPI DUP1 PUSH4 0xB3AB15FB EQ PUSH2 0x155 JUMPI DUP1 PUSH4 0xCDB88AD1 EQ PUSH2 0x12E JUMPI DUP1 PUSH4 0xDF45C752 EQ PUSH2 0x106 JUMPI DUP1 PUSH4 0xE30C3978 EQ PUSH2 0xD0 JUMPI PUSH4 0xF2FDE38B EQ PUSH2 0xA6 JUMPI PUSH2 0xE JUMP JUMPDEST CALLVALUE PUSH2 0xC3 JUMPI JUMPDEST PUSH2 0x16 PUSH2 0xBA CALLDATASIZE PUSH1 0x4 PUSH2 0x435 JUMP JUMPDEST PUSH2 0x69B JUMP JUMPDEST SUB SWAP1 RETURN JUMPDEST PUSH2 0xCB PUSH2 0x2DE JUMP JUMPDEST PUSH2 0xAC JUMP JUMPDEST POP CALLVALUE PUSH2 0xF9 JUMPI JUMPDEST PUSH2 0xE2 CALLDATASIZE PUSH1 0x4 PUSH2 0x2E4 JUMP JUMPDEST PUSH2 0xBF PUSH2 0xED PUSH2 0x5F9 JUMP JUMPDEST PUSH1 0x40 MLOAD SWAP2 DUP3 SWAP2 DUP3 PUSH2 0x335 JUMP JUMPDEST PUSH2 0x101 PUSH2 0x2DE JUMP JUMPDEST PUSH2 0xD7 JUMP JUMPDEST POP CALLVALUE PUSH2 0x121 JUMPI JUMPDEST PUSH2 0x16 PUSH2 0x11B CALLDATASIZE PUSH1 0x4 PUSH2 0x4D8 JUMP JUMPDEST SWAP1 PUSH2 0xB32 JUMP JUMPDEST PUSH2 0x129 PUSH2 0x2DE JUMP JUMPDEST PUSH2 0x10D JUMP JUMPDEST POP CALLVALUE PUSH2 0x148 JUMPI JUMPDEST PUSH2 0x16 PUSH2 0x143 CALLDATASIZE PUSH1 0x4 PUSH2 0x46B JUMP JUMPDEST PUSH2 0xBD3 JUMP JUMPDEST PUSH2 0x150 PUSH2 0x2DE JUMP JUMPDEST PUSH2 0x135 JUMP JUMPDEST POP CALLVALUE PUSH2 0x16F JUMPI JUMPDEST PUSH2 0x16 PUSH2 0x16A CALLDATASIZE PUSH1 0x4 PUSH2 0x435 JUMP JUMPDEST PUSH2 0x835 JUMP JUMPDEST PUSH2 0x177 PUSH2 0x2DE JUMP JUMPDEST PUSH2 0x15C JUMP JUMPDEST POP CALLVALUE PUSH2 0x197 JUMPI JUMPDEST PUSH2 0x16 PUSH2 0x191 CALLDATASIZE PUSH1 0x4 PUSH2 0x3D0 JUMP JUMPDEST SWAP1 PUSH2 0x9C3 JUMP JUMPDEST PUSH2 0x19F PUSH2 0x2DE JUMP JUMPDEST PUSH2 0x183 JUMP JUMPDEST POP CALLVALUE PUSH2 0x1E7 JUMPI JUMPDEST PUSH2 0x1B6 CALLDATASIZE PUSH1 0x4 PUSH2 0x2E4 JUMP JUMPDEST PUSH2 0xBF PUSH32 0x0 JUMPDEST PUSH1 0x40 MLOAD SWAP2 DUP3 SWAP2 DUP3 PUSH2 0x374 JUMP JUMPDEST PUSH2 0x1EF PUSH2 0x2DE JUMP JUMPDEST PUSH2 0x1AB JUMP JUMPDEST POP CALLVALUE PUSH2 0x211 JUMPI JUMPDEST PUSH2 0x206 CALLDATASIZE PUSH1 0x4 PUSH2 0x2E4 JUMP JUMPDEST PUSH2 0xBF PUSH2 0xED PUSH2 0x52E JUMP JUMPDEST PUSH2 0x219 PUSH2 0x2DE JUMP JUMPDEST PUSH2 0x1FB JUMP JUMPDEST POP CALLVALUE PUSH2 0x259 JUMPI JUMPDEST PUSH2 0x230 CALLDATASIZE PUSH1 0x4 PUSH2 0x2E4 JUMP JUMPDEST PUSH2 0xBF PUSH32 0x0 PUSH2 0x1DB JUMP JUMPDEST PUSH2 0x261 PUSH2 0x2DE JUMP JUMPDEST PUSH2 0x225 JUMP JUMPDEST POP CALLVALUE PUSH2 0x280 JUMPI JUMPDEST PUSH2 0x278 CALLDATASIZE PUSH1 0x4 PUSH2 0x2E4 JUMP JUMPDEST PUSH2 0x16 PUSH2 0x794 JUMP JUMPDEST PUSH2 0x288 PUSH2 0x2DE JUMP JUMPDEST PUSH2 0x26D JUMP JUMPDEST POP CALLVALUE PUSH2 0x2A7 JUMPI JUMPDEST PUSH2 0x29F CALLDATASIZE PUSH1 0x4 PUSH2 0x2E4 JUMP JUMPDEST PUSH2 0x16 PUSH2 0x570 JUMP JUMPDEST PUSH2 0x2AF PUSH2 0x2DE JUMP JUMPDEST PUSH2 0x294 JUMP JUMPDEST POP CALLVALUE PUSH2 0x2D1 JUMPI JUMPDEST PUSH2 0x2C6 CALLDATASIZE PUSH1 0x4 PUSH2 0x2E4 JUMP JUMPDEST PUSH2 0xBF PUSH2 0xED PUSH2 0x31C JUMP JUMPDEST PUSH2 0x2D9 PUSH2 0x2DE JUMP JUMPDEST PUSH2 0x2BB JUMP JUMPDEST POP PUSH1 0x0 DUP1 REVERT JUMPDEST PUSH1 0x0 SWAP2 SUB SLT PUSH2 0x2EF JUMPI JUMP JUMPDEST PUSH2 0x2F7 PUSH2 0x2DE JUMP JUMPDEST JUMP JUMPDEST PUSH2 0x30E SWAP2 PUSH1 0x8 MUL SHR JUMPDEST PUSH1 0x1 PUSH1 0x1 PUSH1 0xA0 SHL SUB AND SWAP1 JUMP JUMPDEST SWAP1 JUMP JUMPDEST SWAP1 PUSH2 0x30E SWAP2 SLOAD PUSH2 0x2F9 JUMP JUMPDEST PUSH2 0x30E PUSH1 0x0 PUSH1 0x2 PUSH2 0x311 JUMP JUMPDEST PUSH2 0x331 SWAP1 PUSH2 0x302 JUMP JUMPDEST SWAP1 MSTORE JUMP JUMPDEST PUSH1 0x20 DUP2 ADD SWAP3 SWAP2 PUSH2 0x2F7 SWAP2 SWAP1 PUSH2 0x328 JUMP JUMPDEST PUSH2 0x30E SWAP1 PUSH2 0x302 SWAP1 PUSH1 0x1 PUSH1 0x1 PUSH1 0xA0 SHL SUB AND DUP3 JUMP JUMPDEST PUSH2 0x30E SWAP1 PUSH2 0x345 JUMP JUMPDEST PUSH2 0x30E SWAP1 PUSH2 0x359 JUMP JUMPDEST PUSH2 0x331 SWAP1 PUSH2 0x362 JUMP JUMPDEST PUSH1 0x20 DUP2 ADD SWAP3 SWAP2 PUSH2 0x2F7 SWAP2 SWAP1 PUSH2 0x36B JUMP JUMPDEST SWAP1 SWAP2 DUP3 PUSH1 0x1F DUP4 ADD SLT ISZERO PUSH2 0x3C3 JUMPI JUMPDEST PUSH1 0x20 DUP3 CALLDATALOAD SWAP3 PUSH8 0xFFFFFFFFFFFFFFFF DUP5 GT PUSH2 0x3B6 JUMPI JUMPDEST ADD SWAP3 PUSH1 0x20 DUP4 MUL DUP5 ADD GT PUSH2 0x2EF JUMPI JUMP JUMPDEST PUSH2 0x3BE PUSH2 0x2DE JUMP JUMPDEST PUSH2 0x3A7 JUMP JUMPDEST PUSH2 0x3CB PUSH2 0x2DE JUMP JUMPDEST PUSH2 0x392 JUMP JUMPDEST SWAP1 PUSH2 0x3F9 SWAP2 PUSH1 0x20 DUP2 DUP4 SUB SLT PUSH2 0x40A JUMPI JUMPDEST DUP1 CALLDATALOAD SWAP1 PUSH8 0xFFFFFFFFFFFFFFFF DUP3 GT PUSH2 0x3FD JUMPI JUMPDEST ADD PUSH2 0x384 JUMP JUMPDEST SWAP1 SWAP2 JUMP JUMPDEST PUSH2 0x405 PUSH2 0x2DE JUMP JUMPDEST PUSH2 0x3F3 JUMP JUMPDEST PUSH2 0x412 PUSH2 0x2DE JUMP JUMPDEST PUSH2 0x3E0 JUMP JUMPDEST PUSH2 0x420 DUP2 PUSH2 0x302 JUMP JUMPDEST EQ ISZERO PUSH2 0x2DE JUMPI JUMP JUMPDEST SWAP1 POP CALLDATALOAD SWAP1 PUSH2 0x2F7 DUP3 PUSH2 0x417 JUMP JUMPDEST SWAP1 PUSH2 0x30E SWAP2 PUSH1 0x20 DUP2 DUP4 SUB SLT PUSH2 0x449 JUMPI PUSH2 0x428 JUMP JUMPDEST PUSH2 0x451 PUSH2 0x2DE JUMP JUMPDEST PUSH2 0x428 JUMP JUMPDEST DUP1 ISZERO ISZERO PUSH2 0x420 JUMP JUMPDEST SWAP1 POP CALLDATALOAD SWAP1 PUSH2 0x2F7 DUP3 PUSH2 0x456 JUMP JUMPDEST SWAP1 PUSH2 0x30E SWAP2 PUSH1 0x20 DUP2 DUP4 SUB SLT PUSH2 0x47F JUMPI PUSH2 0x45E JUMP JUMPDEST PUSH2 0x487 PUSH2 0x2DE JUMP JUMPDEST PUSH2 0x45E JUMP JUMPDEST SWAP1 SWAP2 DUP3 PUSH1 0x1F DUP4 ADD SLT ISZERO PUSH2 0x4CB JUMPI JUMPDEST PUSH1 0x20 DUP3 CALLDATALOAD SWAP3 PUSH8 0xFFFFFFFFFFFFFFFF DUP5 GT PUSH2 0x4BE JUMPI JUMPDEST ADD SWAP3 PUSH1 0x80 DUP4 MUL DUP5 ADD GT PUSH2 0x2EF JUMPI JUMP JUMPDEST PUSH2 0x4C6 PUSH2 0x2DE JUMP JUMPDEST PUSH2 0x4AF JUMP JUMPDEST PUSH2 0x4D3 PUSH2 0x2DE JUMP JUMPDEST PUSH2 0x49A JUMP JUMPDEST SWAP1 PUSH2 0x3F9 SWAP2 PUSH1 0x20 DUP2 DUP4 SUB SLT PUSH2 0x50E JUMPI JUMPDEST DUP1 CALLDATALOAD SWAP1 PUSH8 0xFFFFFFFFFFFFFFFF DUP3 GT PUSH2 0x501 JUMPI JUMPDEST ADD PUSH2 0x48C JUMP JUMPDEST PUSH2 0x509 PUSH2 0x2DE JUMP JUMPDEST PUSH2 0x4FB JUMP JUMPDEST PUSH2 0x516 PUSH2 0x2DE JUMP JUMPDEST PUSH2 0x4E8 JUMP JUMPDEST PUSH2 0x30E SWAP1 PUSH2 0x302 JUMP JUMPDEST PUSH2 0x30E SWAP1 SLOAD PUSH2 0x51B JUMP JUMPDEST PUSH2 0x30E PUSH1 0x0 PUSH2 0x524 JUMP JUMPDEST PUSH2 0x540 PUSH2 0x5D1 JUMP JUMPDEST PUSH2 0x2F7 PUSH2 0x55E JUMP JUMPDEST PUSH2 0x302 PUSH2 0x30E PUSH2 0x30E SWAP3 SWAP1 JUMP JUMPDEST PUSH2 0x30E SWAP1 PUSH2 0x548 JUMP JUMPDEST PUSH2 0x2F7 PUSH2 0x56B PUSH1 0x0 PUSH2 0x555 JUMP JUMPDEST PUSH2 0x6E2 JUMP JUMPDEST PUSH2 0x2F7 PUSH2 0x538 JUMP JUMPDEST ADD SWAP1 JUMP JUMPDEST ISZERO PUSH2 0x583 JUMPI JUMP JUMPDEST POP PUSH1 0x40 MLOAD PUSH3 0x461BCD PUSH1 0xE5 SHL DUP2 MSTORE DUP1 PUSH2 0x5CD PUSH1 0x4 DUP3 ADD PUSH1 0x20 DUP1 DUP3 MSTORE DUP2 DUP2 ADD MSTORE PUSH32 0x4F776E61626C653A2063616C6C6572206973206E6F7420746865206F776E6572 PUSH1 0x40 DUP3 ADD MSTORE PUSH1 0x60 ADD SWAP1 JUMP JUMPDEST SUB SWAP1 REVERT JUMPDEST PUSH2 0x2F7 PUSH2 0x5DC PUSH2 0x52E JUMP JUMPDEST PUSH2 0x5F3 PUSH2 0x5ED CALLER PUSH2 0x302 JUMP JUMPDEST PUSH2 0x302 JUMP JUMPDEST SWAP2 PUSH2 0x302 JUMP JUMPDEST EQ PUSH2 0x57C JUMP JUMPDEST PUSH2 0x30E PUSH1 0x1 PUSH2 0x524 JUMP JUMPDEST PUSH2 0x2F7 SWAP1 PUSH2 0x60F PUSH2 0x5D1 JUMP JUMPDEST PUSH2 0x644 JUMP JUMPDEST SWAP1 PUSH1 0x1 PUSH1 0x1 PUSH1 0xA0 SHL SUB SWAP1 JUMPDEST SWAP2 DUP2 NOT AND SWAP2 AND OR SWAP1 JUMP JUMPDEST SWAP1 PUSH2 0x639 PUSH2 0x30E PUSH2 0x640 SWAP3 PUSH2 0x362 JUMP JUMPDEST DUP3 SLOAD PUSH2 0x614 JUMP JUMPDEST SWAP1 SSTORE JUMP JUMPDEST PUSH2 0x64F DUP2 PUSH1 0x1 PUSH2 0x629 JUMP JUMPDEST PUSH2 0x657 PUSH2 0x52E JUMP JUMPDEST SWAP1 PUSH2 0x68B PUSH2 0x685 PUSH32 0x38D16B8CAC22D99FC7C124B9CD0DE2D3FA1FAEF420BFE791D8C362D765E22700 SWAP4 PUSH2 0x362 JUMP JUMPDEST SWAP2 PUSH2 0x362 JUMP JUMPDEST SWAP2 PUSH2 0x695 PUSH1 0x40 MLOAD SWAP1 JUMP JUMPDEST PUSH1 0x0 SWAP1 LOG3 JUMP JUMPDEST PUSH2 0x2F7 SWAP1 PUSH2 0x603 JUMP JUMPDEST SWAP2 PUSH1 0x1 PUSH1 0x1 PUSH1 0xA0 SHL SUB PUSH1 0x8 SWAP3 SWAP1 SWAP3 MUL SWAP2 DUP3 SHL SWAP2 SHL PUSH2 0x61F JUMP JUMPDEST SWAP2 SWAP1 PUSH2 0x6CE PUSH2 0x30E PUSH2 0x640 SWAP4 PUSH2 0x362 JUMP JUMPDEST SWAP1 DUP4 SLOAD PUSH2 0x6A4 JUMP JUMPDEST PUSH2 0x2F7 SWAP2 PUSH1 0x0 SWAP2 PUSH2 0x6BD JUMP JUMPDEST PUSH2 0x2F7 SWAP1 PUSH2 0x6F2 PUSH1 0x0 PUSH1 0x1 PUSH2 0x6D6 JUMP JUMPDEST PUSH2 0x6FC PUSH1 0x0 PUSH2 0x524 JUMP JUMPDEST SWAP1 PUSH2 0x708 DUP2 PUSH1 0x0 PUSH2 0x629 JUMP JUMPDEST PUSH2 0x68B PUSH2 0x685 PUSH32 0x8BE0079C531659141344CD1FD0A4F28419497F9722A3DAAFE3B4186F6B6457E0 SWAP4 PUSH2 0x362 JUMP JUMPDEST ISZERO PUSH2 0x73C JUMPI JUMP JUMPDEST POP PUSH1 0x40 MLOAD PUSH3 0x461BCD PUSH1 0xE5 SHL DUP2 MSTORE PUSH1 0x20 PUSH1 0x4 DUP3 ADD MSTORE PUSH1 0x29 PUSH1 0x24 DUP3 ADD MSTORE PUSH32 0x4F776E61626C6532537465703A2063616C6C6572206973206E6F742074686520 PUSH1 0x44 DUP3 ADD MSTORE PUSH9 0x3732BB9037BBB732B9 PUSH1 0xB9 SHL PUSH1 0x64 DUP3 ADD MSTORE PUSH1 0x84 SWAP1 REVERT JUMPDEST PUSH2 0x2F7 CALLER PUSH2 0x56B PUSH2 0x7A3 PUSH2 0x5F9 JUMP JUMPDEST PUSH2 0x7AF PUSH2 0x5ED DUP5 PUSH2 0x302 JUMP JUMPDEST EQ PUSH2 0x735 JUMP JUMPDEST PUSH2 0x2F7 SWAP1 PUSH2 0x7C1 PUSH2 0x5D1 JUMP JUMPDEST PUSH2 0x7CE PUSH2 0x5E8 PUSH1 0x0 PUSH2 0x555 JUMP JUMPDEST PUSH2 0x7D7 DUP3 PUSH2 0x302 JUMP JUMPDEST EQ PUSH2 0x821 JUMPI PUSH2 0x7E7 DUP2 PUSH1 0x2 PUSH2 0x629 JUMP JUMPDEST PUSH2 0x811 PUSH32 0xDBEBFBA65BD6398FB722063EFC10C99F624F9CD8BA657201056AF918A676D5EE SWAP2 PUSH2 0x362 JUMP JUMPDEST SWAP1 PUSH2 0x81B PUSH1 0x40 MLOAD SWAP1 JUMP JUMPDEST PUSH1 0x0 SWAP1 LOG2 JUMP JUMPDEST POP POP PUSH1 0x40 MLOAD PUSH4 0xE6C4247B PUSH1 0xE0 SHL DUP2 MSTORE PUSH1 0x4 SWAP1 REVERT JUMPDEST PUSH2 0x2F7 SWAP1 PUSH2 0x7B5 JUMP JUMPDEST SWAP1 CALLER PUSH2 0x850 PUSH2 0x5ED PUSH2 0x5E8 PUSH1 0x2 PUSH2 0x524 JUMP JUMPDEST EQ ISZERO PUSH2 0x85F JUMPI PUSH2 0x2F7 SWAP2 PUSH2 0x91F JUMP JUMPDEST POP POP POP PUSH2 0x86B PUSH1 0x40 MLOAD SWAP1 JUMP JUMPDEST PUSH4 0xEA8E4EB5 PUSH1 0xE0 SHL DUP2 MSTORE PUSH1 0x4 SWAP1 REVERT JUMPDEST POP PUSH4 0x4E487B71 PUSH1 0xE0 SHL PUSH1 0x0 MSTORE PUSH1 0x41 PUSH1 0x4 MSTORE PUSH1 0x24 PUSH1 0x0 REVERT JUMPDEST SWAP1 PUSH1 0x1F ADD PUSH1 0x1F NOT AND DUP2 ADD SWAP1 DUP2 LT PUSH8 0xFFFFFFFFFFFFFFFF DUP3 GT OR PUSH2 0x8B3 JUMPI PUSH1 0x40 MSTORE JUMP JUMPDEST PUSH2 0x8BB PUSH2 0x87A JUMP JUMPDEST PUSH1 0x40 MSTORE JUMP JUMPDEST SWAP1 DUP3 PUSH1 0x0 SWAP4 SWAP3 DUP3 CALLDATACOPY ADD MSTORE JUMP JUMPDEST DUP2 DUP4 MSTORE PUSH1 0x20 SWAP3 PUSH2 0x578 SWAP2 SWAP1 DUP5 ADD SWAP4 DUP5 SWAP4 PUSH1 0x1 PUSH1 0x1 PUSH1 0xFB SHL SUB DUP2 GT PUSH2 0x8F4 JUMPI JUMPDEST MUL SWAP4 DUP5 SWAP2 PUSH2 0x8C0 JUMP JUMPDEST PUSH2 0x8FC PUSH2 0x2DE JUMP JUMPDEST PUSH2 0x8EB JUMP JUMPDEST PUSH1 0x20 DUP1 DUP3 MSTORE PUSH2 0x30E SWAP4 SWAP2 ADD SWAP2 PUSH2 0x8CC JUMP JUMPDEST POP PUSH1 0x40 MLOAD RETURNDATASIZE PUSH1 0x0 DUP3 RETURNDATACOPY RETURNDATASIZE SWAP1 REVERT JUMPDEST PUSH1 0x0 SWAP1 PUSH2 0x94B PUSH32 0x0 PUSH2 0x362 JUMP JUMPDEST PUSH2 0x975 DUP4 PUSH4 0xB2D7EDB2 DUP4 EXTCODESIZE ISZERO PUSH2 0x9B6 JUMPI JUMPDEST PUSH2 0x980 PUSH2 0x968 PUSH1 0x40 MLOAD SWAP1 JUMP JUMPDEST SWAP8 DUP9 SWAP7 DUP8 SWAP6 DUP7 SWAP5 PUSH1 0xE0 SHL SWAP1 JUMP JUMPDEST DUP5 MSTORE PUSH1 0x4 DUP5 ADD PUSH2 0x901 JUMP JUMPDEST SUB SWAP3 GAS CALL DUP1 ISZERO PUSH2 0x9A9 JUMPI JUMPDEST PUSH2 0x992 JUMPI POP JUMP JUMPDEST PUSH2 0x2F7 SWAP1 PUSH2 0x9A0 RETURNDATASIZE DUP3 PUSH2 0x891 JUMP JUMPDEST RETURNDATASIZE DUP2 ADD SWAP1 PUSH2 0x2E4 JUMP JUMPDEST PUSH2 0x9B1 PUSH2 0x912 JUMP JUMPDEST PUSH2 0x98B JUMP JUMPDEST PUSH2 0x9BE PUSH2 0x2DE JUMP JUMPDEST PUSH2 0x95C JUMP JUMPDEST SWAP1 PUSH2 0x2F7 SWAP2 PUSH2 0x83E JUMP JUMPDEST SWAP1 CALLER PUSH2 0x9DF PUSH2 0x5ED PUSH2 0x5E8 PUSH1 0x2 PUSH2 0x524 JUMP JUMPDEST EQ ISZERO PUSH2 0x85F JUMPI PUSH2 0x2F7 SWAP2 PUSH2 0xADF JUMP JUMPDEST DUP1 PUSH2 0x420 JUMP JUMPDEST SWAP1 POP CALLDATALOAD SWAP1 PUSH2 0x2F7 DUP3 PUSH2 0x9EE JUMP JUMPDEST POP PUSH2 0x30E SWAP1 PUSH1 0x20 DUP2 ADD SWAP1 PUSH2 0x9F4 JUMP JUMPDEST POP PUSH2 0x30E SWAP1 PUSH1 0x20 DUP2 ADD SWAP1 PUSH2 0x428 JUMP JUMPDEST SWAP1 PUSH1 0x60 PUSH2 0xA77 PUSH2 0x2F7 SWAP4 PUSH2 0xA3D PUSH2 0xA39 PUSH1 0x0 DUP4 ADD DUP4 PUSH2 0xA01 JUMP JUMPDEST DUP6 MSTORE JUMP JUMPDEST PUSH2 0xA57 PUSH2 0xA4D PUSH1 0x20 DUP4 ADD DUP4 PUSH2 0xA10 JUMP JUMPDEST PUSH1 0x20 DUP7 ADD SWAP1 PUSH2 0x328 JUMP JUMPDEST PUSH2 0xA6E PUSH2 0xA67 PUSH1 0x40 DUP4 ADD DUP4 PUSH2 0xA01 JUMP JUMPDEST PUSH1 0x40 DUP7 ADD MSTORE JUMP JUMPDEST DUP3 DUP2 ADD SWAP1 PUSH2 0xA01 JUMP JUMPDEST SWAP2 ADD MSTORE JUMP JUMPDEST SWAP1 PUSH2 0x578 DUP2 PUSH1 0x80 SWAP4 PUSH2 0xA1F JUMP JUMPDEST DUP2 DUP4 MSTORE PUSH1 0x20 SWAP1 SWAP3 ADD SWAP2 SWAP1 PUSH1 0x0 DUP3 JUMPDEST DUP3 DUP3 LT PUSH2 0xAA5 JUMPI POP POP POP POP SWAP1 JUMP JUMPDEST SWAP1 SWAP2 SWAP3 SWAP4 PUSH2 0xAC5 PUSH2 0xABE PUSH1 0x1 SWAP3 PUSH2 0xAB9 DUP9 SWAP1 JUMP JUMPDEST PUSH2 0xA7C JUMP JUMPDEST SWAP6 PUSH1 0x80 ADD SWAP1 JUMP JUMPDEST SWAP4 SWAP3 ADD SWAP1 PUSH2 0xA97 JUMP JUMPDEST PUSH1 0x20 DUP1 DUP3 MSTORE PUSH2 0x30E SWAP4 SWAP2 ADD SWAP2 PUSH2 0xA89 JUMP JUMPDEST PUSH1 0x0 SWAP1 PUSH2 0xB0B PUSH32 0x0 PUSH2 0x362 JUMP JUMPDEST PUSH2 0xB27 DUP4 PUSH4 0xDF45C752 DUP4 EXTCODESIZE ISZERO PUSH2 0x9B6 JUMPI PUSH2 0x980 PUSH2 0x968 PUSH1 0x40 MLOAD SWAP1 JUMP JUMPDEST DUP5 MSTORE PUSH1 0x4 DUP5 ADD PUSH2 0xACE JUMP JUMPDEST SWAP1 PUSH2 0x2F7 SWAP2 PUSH2 0x9CD JUMP JUMPDEST CALLER PUSH2 0xB4D PUSH2 0x5ED PUSH2 0x5E8 PUSH1 0x2 PUSH2 0x524 JUMP JUMPDEST EQ ISZERO PUSH2 0xB5C JUMPI PUSH2 0x2F7 SWAP1 PUSH2 0xB66 JUMP JUMPDEST POP POP PUSH1 0x40 MLOAD PUSH2 0x86B JUMP JUMPDEST PUSH1 0x0 PUSH2 0x980 SWAP2 PUSH2 0xB95 PUSH32 0x0 PUSH2 0x362 JUMP JUMPDEST PUSH2 0xBB6 DUP4 PUSH4 0xCDB88AD1 DUP4 EXTCODESIZE ISZERO PUSH2 0xBC6 JUMPI JUMPDEST PUSH1 0x40 MLOAD SWAP7 DUP8 SWAP6 DUP7 SWAP5 DUP6 SWAP4 PUSH1 0xE0 SHL SWAP1 JUMP JUMPDEST DUP4 MSTORE ISZERO ISZERO PUSH1 0x4 DUP4 ADD MSTORE PUSH1 0x24 DUP3 ADD SWAP1 JUMP JUMPDEST PUSH2 0xBCE PUSH2 0x2DE JUMP JUMPDEST PUSH2 0xBA6 JUMP JUMPDEST PUSH2 0x2F7 SWAP1 PUSH2 0xB3C JUMP INVALID LOG3 PUSH5 0x6970667358 0x22 SLT KECCAK256 CALLDATALOAD 0xE0 0xB1 0xEC SELFDESTRUCT 0x1E PUSH10 0xF95FD8D5A34A55A20604 SWAP13 0xBC 0xD PUSH18 0x7D5A35D05E16DA33D1CDB56C657870657269 PUSH14 0x656E74616CF564736F6C63430008 0xC STOP COINBASE "},"methodIdentifiers":{"acceptOwnership()":"79ba5097","bribeVault()":"833d657e","operator()":"570ca735","owner()":"8da5cb5b","pendingOwner()":"e30c3978","renounceOwnership()":"715018a6","rewardDistributor()":"acc2166a","setOperator(address)":"b3ab15fb","setPauseState(bool)":"cdb88ad1","transferBribes(bytes32[])":"b2d7edb2","transferOwnership(address)":"f2fde38b","updateRewardsMetadata((bytes32,address,bytes32,bytes32)[])":"df45c752"}}}}}