{
  "_format": "hh-sol-artifact-1",
  "contractName": "SymmToken",
  "sourceName": "mainnet/0xba100000625a3754423978a60c9317c58a424e3d/SymmToken.sol",
  "abi": [
    {
      "inputs": [
        {
          "internalType": "string",
          "name": "name",
          "type": "string"
        },
        {
          "internalType": "string",
          "name": "symbol",
          "type": "string"
        }
      ],
      "stateMutability": "nonpayable",
      "type": "constructor"
    },
    {
      "anonymous": false,
      "inputs": [
        {
          "indexed": true,
          "internalType": "address",
          "name": "owner",
          "type": "address"
        },
        {
          "indexed": true,
          "internalType": "address",
          "name": "spender",
          "type": "address"
        },
        {
          "indexed": false,
          "internalType": "uint256",
          "name": "value",
          "type": "uint256"
        }
      ],
      "name": "Approval",
      "type": "event"
    },
    {
      "anonymous": false,
      "inputs": [
        {
          "indexed": true,
          "internalType": "bytes32",
          "name": "role",
          "type": "bytes32"
        },
        {
          "indexed": true,
          "internalType": "address",
          "name": "account",
          "type": "address"
        },
        {
          "indexed": true,
          "internalType": "address",
          "name": "sender",
          "type": "address"
        }
      ],
      "name": "RoleGranted",
      "type": "event"
    },
    {
      "anonymous": false,
      "inputs": [
        {
          "indexed": true,
          "internalType": "bytes32",
          "name": "role",
          "type": "bytes32"
        },
        {
          "indexed": true,
          "internalType": "address",
          "name": "account",
          "type": "address"
        },
        {
          "indexed": true,
          "internalType": "address",
          "name": "sender",
          "type": "address"
        }
      ],
      "name": "RoleRevoked",
      "type": "event"
    },
    {
      "anonymous": false,
      "inputs": [
        {
          "indexed": false,
          "internalType": "uint256",
          "name": "id",
          "type": "uint256"
        }
      ],
      "name": "Snapshot",
      "type": "event"
    },
    {
      "anonymous": false,
      "inputs": [
        {
          "indexed": true,
          "internalType": "address",
          "name": "from",
          "type": "address"
        },
        {
          "indexed": true,
          "internalType": "address",
          "name": "to",
          "type": "address"
        },
        {
          "indexed": false,
          "internalType": "uint256",
          "name": "value",
          "type": "uint256"
        }
      ],
      "name": "Transfer",
      "type": "event"
    },
    {
      "inputs": [],
      "name": "DEFAULT_ADMIN_ROLE",
      "outputs": [
        {
          "internalType": "bytes32",
          "name": "",
          "type": "bytes32"
        }
      ],
      "stateMutability": "view",
      "type": "function"
    },
    {
      "inputs": [],
      "name": "DOMAIN_SEPARATOR",
      "outputs": [
        {
          "internalType": "bytes32",
          "name": "",
          "type": "bytes32"
        }
      ],
      "stateMutability": "view",
      "type": "function"
    },
    {
      "inputs": [],
      "name": "MINTER_ROLE",
      "outputs": [
        {
          "internalType": "bytes32",
          "name": "",
          "type": "bytes32"
        }
      ],
      "stateMutability": "view",
      "type": "function"
    },
    {
      "inputs": [],
      "name": "PERMIT_TYPEHASH",
      "outputs": [
        {
          "internalType": "bytes32",
          "name": "",
          "type": "bytes32"
        }
      ],
      "stateMutability": "view",
      "type": "function"
    },
    {
      "inputs": [],
      "name": "SNAPSHOT_ROLE",
      "outputs": [
        {
          "internalType": "bytes32",
          "name": "",
          "type": "bytes32"
        }
      ],
      "stateMutability": "view",
      "type": "function"
    },
    {
      "inputs": [
        {
          "internalType": "address",
          "name": "owner",
          "type": "address"
        },
        {
          "internalType": "address",
          "name": "spender",
          "type": "address"
        }
      ],
      "name": "allowance",
      "outputs": [
        {
          "internalType": "uint256",
          "name": "",
          "type": "uint256"
        }
      ],
      "stateMutability": "view",
      "type": "function"
    },
    {
      "inputs": [
        {
          "internalType": "address",
          "name": "spender",
          "type": "address"
        },
        {
          "internalType": "uint256",
          "name": "amount",
          "type": "uint256"
        }
      ],
      "name": "approve",
      "outputs": [
        {
          "internalType": "bool",
          "name": "",
          "type": "bool"
        }
      ],
      "stateMutability": "nonpayable",
      "type": "function"
    },
    {
      "inputs": [
        {
          "internalType": "address",
          "name": "account",
          "type": "address"
        }
      ],
      "name": "balanceOf",
      "outputs": [
        {
          "internalType": "uint256",
          "name": "",
          "type": "uint256"
        }
      ],
      "stateMutability": "view",
      "type": "function"
    },
    {
      "inputs": [
        {
          "internalType": "address",
          "name": "account",
          "type": "address"
        },
        {
          "internalType": "uint256",
          "name": "snapshotId",
          "type": "uint256"
        }
      ],
      "name": "balanceOfAt",
      "outputs": [
        {
          "internalType": "uint256",
          "name": "",
          "type": "uint256"
        }
      ],
      "stateMutability": "view",
      "type": "function"
    },
    {
      "inputs": [
        {
          "internalType": "uint256",
          "name": "amount",
          "type": "uint256"
        }
      ],
      "name": "burn",
      "outputs": [],
      "stateMutability": "nonpayable",
      "type": "function"
    },
    {
      "inputs": [
        {
          "internalType": "address",
          "name": "account",
          "type": "address"
        },
        {
          "internalType": "uint256",
          "name": "amount",
          "type": "uint256"
        }
      ],
      "name": "burnFrom",
      "outputs": [],
      "stateMutability": "nonpayable",
      "type": "function"
    },
    {
      "inputs": [],
      "name": "decimals",
      "outputs": [
        {
          "internalType": "uint8",
          "name": "",
          "type": "uint8"
        }
      ],
      "stateMutability": "view",
      "type": "function"
    },
    {
      "inputs": [
        {
          "internalType": "address",
          "name": "spender",
          "type": "address"
        },
        {
          "internalType": "uint256",
          "name": "subtractedValue",
          "type": "uint256"
        }
      ],
      "name": "decreaseAllowance",
      "outputs": [
        {
          "internalType": "bool",
          "name": "",
          "type": "bool"
        }
      ],
      "stateMutability": "nonpayable",
      "type": "function"
    },
    {
      "inputs": [
        {
          "internalType": "bytes32",
          "name": "role",
          "type": "bytes32"
        }
      ],
      "name": "getRoleAdmin",
      "outputs": [
        {
          "internalType": "bytes32",
          "name": "",
          "type": "bytes32"
        }
      ],
      "stateMutability": "view",
      "type": "function"
    },
    {
      "inputs": [
        {
          "internalType": "bytes32",
          "name": "role",
          "type": "bytes32"
        },
        {
          "internalType": "uint256",
          "name": "index",
          "type": "uint256"
        }
      ],
      "name": "getRoleMember",
      "outputs": [
        {
          "internalType": "address",
          "name": "",
          "type": "address"
        }
      ],
      "stateMutability": "view",
      "type": "function"
    },
    {
      "inputs": [
        {
          "internalType": "bytes32",
          "name": "role",
          "type": "bytes32"
        }
      ],
      "name": "getRoleMemberCount",
      "outputs": [
        {
          "internalType": "uint256",
          "name": "",
          "type": "uint256"
        }
      ],
      "stateMutability": "view",
      "type": "function"
    },
    {
      "inputs": [
        {
          "internalType": "bytes32",
          "name": "role",
          "type": "bytes32"
        },
        {
          "internalType": "address",
          "name": "account",
          "type": "address"
        }
      ],
      "name": "grantRole",
      "outputs": [],
      "stateMutability": "nonpayable",
      "type": "function"
    },
    {
      "inputs": [
        {
          "internalType": "bytes32",
          "name": "role",
          "type": "bytes32"
        },
        {
          "internalType": "address",
          "name": "account",
          "type": "address"
        }
      ],
      "name": "hasRole",
      "outputs": [
        {
          "internalType": "bool",
          "name": "",
          "type": "bool"
        }
      ],
      "stateMutability": "view",
      "type": "function"
    },
    {
      "inputs": [
        {
          "internalType": "address",
          "name": "spender",
          "type": "address"
        },
        {
          "internalType": "uint256",
          "name": "addedValue",
          "type": "uint256"
        }
      ],
      "name": "increaseAllowance",
      "outputs": [
        {
          "internalType": "bool",
          "name": "",
          "type": "bool"
        }
      ],
      "stateMutability": "nonpayable",
      "type": "function"
    },
    {
      "inputs": [
        {
          "internalType": "address",
          "name": "to",
          "type": "address"
        },
        {
          "internalType": "uint256",
          "name": "amount",
          "type": "uint256"
        }
      ],
      "name": "mint",
      "outputs": [],
      "stateMutability": "nonpayable",
      "type": "function"
    },
    {
      "inputs": [],
      "name": "name",
      "outputs": [
        {
          "internalType": "string",
          "name": "",
          "type": "string"
        }
      ],
      "stateMutability": "view",
      "type": "function"
    },
    {
      "inputs": [
        {
          "internalType": "address",
          "name": "",
          "type": "address"
        }
      ],
      "name": "nonces",
      "outputs": [
        {
          "internalType": "uint256",
          "name": "",
          "type": "uint256"
        }
      ],
      "stateMutability": "view",
      "type": "function"
    },
    {
      "inputs": [
        {
          "internalType": "address",
          "name": "owner",
          "type": "address"
        },
        {
          "internalType": "address",
          "name": "spender",
          "type": "address"
        },
        {
          "internalType": "uint256",
          "name": "value",
          "type": "uint256"
        },
        {
          "internalType": "uint256",
          "name": "deadline",
          "type": "uint256"
        },
        {
          "internalType": "uint8",
          "name": "v",
          "type": "uint8"
        },
        {
          "internalType": "bytes32",
          "name": "r",
          "type": "bytes32"
        },
        {
          "internalType": "bytes32",
          "name": "s",
          "type": "bytes32"
        }
      ],
      "name": "permit",
      "outputs": [],
      "stateMutability": "nonpayable",
      "type": "function"
    },
    {
      "inputs": [
        {
          "internalType": "bytes32",
          "name": "role",
          "type": "bytes32"
        },
        {
          "internalType": "address",
          "name": "account",
          "type": "address"
        }
      ],
      "name": "renounceRole",
      "outputs": [],
      "stateMutability": "nonpayable",
      "type": "function"
    },
    {
      "inputs": [
        {
          "internalType": "bytes32",
          "name": "role",
          "type": "bytes32"
        },
        {
          "internalType": "address",
          "name": "account",
          "type": "address"
        }
      ],
      "name": "revokeRole",
      "outputs": [],
      "stateMutability": "nonpayable",
      "type": "function"
    },
    {
      "inputs": [],
      "name": "snapshot",
      "outputs": [],
      "stateMutability": "nonpayable",
      "type": "function"
    },
    {
      "inputs": [],
      "name": "symbol",
      "outputs": [
        {
          "internalType": "string",
          "name": "",
          "type": "string"
        }
      ],
      "stateMutability": "view",
      "type": "function"
    },
    {
      "inputs": [],
      "name": "totalSupply",
      "outputs": [
        {
          "internalType": "uint256",
          "name": "",
          "type": "uint256"
        }
      ],
      "stateMutability": "view",
      "type": "function"
    },
    {
      "inputs": [
        {
          "internalType": "uint256",
          "name": "snapshotId",
          "type": "uint256"
        }
      ],
      "name": "totalSupplyAt",
      "outputs": [
        {
          "internalType": "uint256",
          "name": "",
          "type": "uint256"
        }
      ],
      "stateMutability": "view",
      "type": "function"
    },
    {
      "inputs": [
        {
          "internalType": "address",
          "name": "recipient",
          "type": "address"
        },
        {
          "internalType": "uint256",
          "name": "amount",
          "type": "uint256"
        }
      ],
      "name": "transfer",
      "outputs": [
        {
          "internalType": "bool",
          "name": "",
          "type": "bool"
        }
      ],
      "stateMutability": "nonpayable",
      "type": "function"
    },
    {
      "inputs": [
        {
          "internalType": "address",
          "name": "sender",
          "type": "address"
        },
        {
          "internalType": "address",
          "name": "recipient",
          "type": "address"
        },
        {
          "internalType": "uint256",
          "name": "amount",
          "type": "uint256"
        }
      ],
      "name": "transferFrom",
      "outputs": [
        {
          "internalType": "bool",
          "name": "",
          "type": "bool"
        }
      ],
      "stateMutability": "nonpayable",
      "type": "function"
    },
    {
      "inputs": [],
      "name": "version",
      "outputs": [
        {
          "internalType": "string",
          "name": "",
          "type": "string"
        }
      ],
      "stateMutability": "view",
      "type": "function"
    }
  ],
  "bytecode": "0x60c06040527f6e71edae12b1b97f4d1f60370fef10105fa2faae0126114a169c64845d6126c960001b60a0908152503480156200003b57600080fd5b50604051620035bc380380620035bc833981810160405260408110156200006157600080fd5b81019080805160405193929190846401000000008211156200008257600080fd5b838201915060208201858111156200009957600080fd5b8251866001820283011164010000000082111715620000b757600080fd5b8083526020830192505050908051906020019080838360005b83811015620000ed578082015181840152602081019050620000d0565b50505050905090810190601f1680156200011b5780820380516001836020036101000a031916815260200191505b50604052602001805160405193929190846401000000008211156200013f57600080fd5b838201915060208201858111156200015657600080fd5b82518660018202830111640100000000821117156200017457600080fd5b8083526020830192505050908051906020019080838360005b83811015620001aa5780820151818401526020810190506200018d565b50505050905090810190601f168015620001d85780820380516001836020036101000a031916815260200191505b5060405250505081818160049080519060200190620001f99291906200055e565b508060059080519060200190620002129291906200055e565b506012600660006101000a81548160ff021916908360ff1602179055505050620002556000801b62000249620003bb60201b60201c565b620003c360201b60201c565b620002967f9f2df0fed2c77648de5860a4cc508cd0818c85b8b8a1ab4ceeef8d981c8956a66200028a620003bb60201b60201c565b620003c360201b60201c565b620002d77f5fdbd35e8da83ee755d5e62a539e5ed7f47126abede0b8b10f9ea43dc6eed07f620002cb620003bb60201b60201c565b620003c360201b60201c565b6000620002e9620003d960201b60201c565b90507f8b73c3c69bb8fe3d512ecc4cf759cc79239f7b179b0ffacaa9a75d522b39400f83805190602001206040518060400160405280600181526020017f3100000000000000000000000000000000000000000000000000000000000000815250805190602001208330604051602001808681526020018581526020018481526020018381526020018273ffffffffffffffffffffffffffffffffffffffff16815260200195505050505050604051602081830303815290604052805190602001206080818152505050505062000604565b600033905090565b620003d58282620003e660201b60201c565b5050565b6000804690508091505090565b62000414816000808581526020019081526020016000206000016200048960201b620018d01790919060201c565b1562000485576200042a620003bb60201b60201c565b73ffffffffffffffffffffffffffffffffffffffff168173ffffffffffffffffffffffffffffffffffffffff16837f2f8788117e7eff1d82e926ec794901d17c78024a50270940304540a733656f0d60405160405180910390a45b5050565b6000620004b9836000018373ffffffffffffffffffffffffffffffffffffffff1660001b620004c160201b60201c565b905092915050565b6000620004d583836200053b60201b60201c565b6200053057826000018290806001815401808255809150506001900390600052602060002001600090919091909150558260000180549050836001016000848152602001908152602001600020819055506001905062000535565b600090505b92915050565b600080836001016000848152602001908152602001600020541415905092915050565b828054600181600116156101000203166002900490600052602060002090601f016020900481019282601f10620005a157805160ff1916838001178555620005d2565b82800160010185558215620005d2579182015b82811115620005d1578251825591602001919060010190620005b4565b5b509050620005e19190620005e5565b5090565b5b8082111562000600576000816000905550600101620005e6565b5090565b60805160a051612f8a6200063260003980610e2152806115b8525080610e5c52806115975250612f8a6000f3fe608060405234801561001057600080fd5b50600436106101f05760003560e01c806370a082311161010f578063a217fddf116100a2578063d505accf11610071578063d505accf14610a57578063d539139314610af0578063d547741f14610b0e578063dd62ed3e14610b5c576101f0565b8063a217fddf1461092f578063a457c2d71461094d578063a9059cbb146109b1578063ca15c87314610a15576101f0565b806391d14854116100de57806391d14854146107fc57806395d89b41146108605780639711715a146108e3578063981b24d0146108ed576101f0565b806370a082311461069c57806379cc6790146106f45780637ecebe00146107425780639010d07c1461079a576101f0565b80633644e5151161018757806342966c681161015657806342966c681461056b5780634ee2cd7e1461059957806354fd4d50146105fb5780637028e2cd1461067e576101f0565b80633644e5151461044d57806336568abe1461046b57806339509351146104b957806340c10f191461051d576101f0565b8063248a9ca3116101c3578063248a9ca31461037e5780632f2ff15d146103c057806330adf81f1461040e578063313ce5671461042c576101f0565b806306fdde03146101f5578063095ea7b31461027857806318160ddd146102dc57806323b872dd146102fa575b600080fd5b6101fd610bd4565b6040518080602001828103825283818151815260200191508051906020019080838360005b8381101561023d578082015181840152602081019050610222565b50505050905090810190601f16801561026a5780820380516001836020036101000a031916815260200191505b509250505060405180910390f35b6102c46004803603604081101561028e57600080fd5b81019080803573ffffffffffffffffffffffffffffffffffffffff16906020019092919080359060200190929190505050610c76565b60405180821515815260200191505060405180910390f35b6102e4610c94565b6040518082815260200191505060405180910390f35b6103666004803603606081101561031057600080fd5b81019080803573ffffffffffffffffffffffffffffffffffffffff169060200190929190803573ffffffffffffffffffffffffffffffffffffffff16906020019092919080359060200190929190505050610c9e565b60405180821515815260200191505060405180910390f35b6103aa6004803603602081101561039457600080fd5b8101908080359060200190929190505050610d77565b6040518082815260200191505060405180910390f35b61040c600480360360408110156103d657600080fd5b8101908080359060200190929190803573ffffffffffffffffffffffffffffffffffffffff169060200190929190505050610d96565b005b610416610e1f565b6040518082815260200191505060405180910390f35b610434610e43565b604051808260ff16815260200191505060405180910390f35b610455610e5a565b6040518082815260200191505060405180910390f35b6104b76004803603604081101561048157600080fd5b8101908080359060200190929190803573ffffffffffffffffffffffffffffffffffffffff169060200190929190505050610e7e565b005b610505600480360360408110156104cf57600080fd5b81019080803573ffffffffffffffffffffffffffffffffffffffff16906020019092919080359060200190929190505050610f17565b60405180821515815260200191505060405180910390f35b6105696004803603604081101561053357600080fd5b81019080803573ffffffffffffffffffffffffffffffffffffffff16906020019092919080359060200190929190505050610fca565b005b6105976004803603602081101561058157600080fd5b810190808035906020019092919050505061107b565b005b6105e5600480360360408110156105af57600080fd5b81019080803573ffffffffffffffffffffffffffffffffffffffff1690602001909291908035906020019092919050505061108f565b6040518082815260200191505060405180910390f35b6106036110ff565b6040518080602001828103825283818151815260200191508051906020019080838360005b83811015610643578082015181840152602081019050610628565b50505050905090810190601f1680156106705780820380516001836020036101000a031916815260200191505b509250505060405180910390f35b610686611138565b6040518082815260200191505060405180910390f35b6106de600480360360208110156106b257600080fd5b81019080803573ffffffffffffffffffffffffffffffffffffffff16906020019092919050505061115c565b6040518082815260200191505060405180910390f35b6107406004803603604081101561070a57600080fd5b81019080803573ffffffffffffffffffffffffffffffffffffffff169060200190929190803590602001909291905050506111a5565b005b6107846004803603602081101561075857600080fd5b81019080803573ffffffffffffffffffffffffffffffffffffffff169060200190929190505050611207565b6040518082815260200191505060405180910390f35b6107d0600480360360408110156107b057600080fd5b81019080803590602001909291908035906020019092919050505061121f565b604051808273ffffffffffffffffffffffffffffffffffffffff16815260200191505060405180910390f35b6108486004803603604081101561081257600080fd5b8101908080359060200190929190803573ffffffffffffffffffffffffffffffffffffffff169060200190929190505050611250565b60405180821515815260200191505060405180910390f35b610868611281565b6040518080602001828103825283818151815260200191508051906020019080838360005b838110156108a857808201518184015260208101905061088d565b50505050905090810190601f1680156108d55780820380516001836020036101000a031916815260200191505b509250505060405180910390f35b6108eb611323565b005b6109196004803603602081101561090357600080fd5b81019080803590602001909291905050506113d1565b6040518082815260200191505060405180910390f35b610937611402565b6040518082815260200191505060405180910390f35b6109996004803603604081101561096357600080fd5b81019080803573ffffffffffffffffffffffffffffffffffffffff16906020019092919080359060200190929190505050611409565b60405180821515815260200191505060405180910390f35b6109fd600480360360408110156109c757600080fd5b81019080803573ffffffffffffffffffffffffffffffffffffffff169060200190929190803590602001909291905050506114d6565b60405180821515815260200191505060405180910390f35b610a4160048036036020811015610a2b57600080fd5b81019080803590602001909291905050506114f4565b6040518082815260200191505060405180910390f35b610aee600480360360e0811015610a6d57600080fd5b81019080803573ffffffffffffffffffffffffffffffffffffffff169060200190929190803573ffffffffffffffffffffffffffffffffffffffff1690602001909291908035906020019092919080359060200190929190803560ff169060200190929190803590602001909291908035906020019092919050505061151a565b005b610af861179c565b6040518082815260200191505060405180910390f35b610b5a60048036036040811015610b2457600080fd5b8101908080359060200190929190803573ffffffffffffffffffffffffffffffffffffffff1690602001909291905050506117c0565b005b610bbe60048036036040811015610b7257600080fd5b81019080803573ffffffffffffffffffffffffffffffffffffffff169060200190929190803573ffffffffffffffffffffffffffffffffffffffff169060200190929190505050611849565b6040518082815260200191505060405180910390f35b606060048054600181600116156101000203166002900480601f016020809104026020016040519081016040528092919081815260200182805460018160011615610100020316600290048015610c6c5780601f10610c4157610100808354040283529160200191610c6c565b820191906000526020600020905b815481529060010190602001808311610c4f57829003601f168201915b5050505050905090565b6000610c8a610c83611900565b8484611908565b6001905092915050565b6000600354905090565b6000610cab848484611aff565b610d6c84610cb7611900565b610d6785604051806060016040528060288152602001612e4b60289139600260008b73ffffffffffffffffffffffffffffffffffffffff1673ffffffffffffffffffffffffffffffffffffffff1681526020019081526020016000206000610d1d611900565b73ffffffffffffffffffffffffffffffffffffffff1673ffffffffffffffffffffffffffffffffffffffff16815260200190815260200160002054611b219092919063ffffffff16565b611908565b600190509392505050565b6000806000838152602001908152602001600020600201549050919050565b610dbc60008084815260200190815260200160002060020154610db7611900565b611250565b610e11576040517f08c379a000000000000000000000000000000000000000000000000000000000815260040180806020018281038252602f815260200180612d3e602f913960400191505060405180910390fd5b610e1b8282611be1565b5050565b7f000000000000000000000000000000000000000000000000000000000000000081565b6000600660009054906101000a900460ff16905090565b7f000000000000000000000000000000000000000000000000000000000000000081565b610e86611900565b73ffffffffffffffffffffffffffffffffffffffff168173ffffffffffffffffffffffffffffffffffffffff1614610f09576040517f08c379a000000000000000000000000000000000000000000000000000000000815260040180806020018281038252602f815260200180612f26602f913960400191505060405180910390fd5b610f138282611c74565b5050565b6000610fc0610f24611900565b84610fbb8560026000610f35611900565b73ffffffffffffffffffffffffffffffffffffffff1673ffffffffffffffffffffffffffffffffffffffff16815260200190815260200160002060008973ffffffffffffffffffffffffffffffffffffffff1673ffffffffffffffffffffffffffffffffffffffff16815260200190815260200160002054611d0790919063ffffffff16565b611908565b6001905092915050565b610ffb7f9f2df0fed2c77648de5860a4cc508cd0818c85b8b8a1ab4ceeef8d981c8956a6610ff6611900565b611250565b61106d576040517f08c379a000000000000000000000000000000000000000000000000000000000815260040180806020018281038252600f8152602001807f4552525f4d494e5445525f524f4c45000000000000000000000000000000000081525060200191505060405180910390fd5b6110778282611d8f565b5050565b61108c611086611900565b82611dae565b50565b60008060006110dc84600760008873ffffffffffffffffffffffffffffffffffffffff1673ffffffffffffffffffffffffffffffffffffffff168152602001908152602001600020611dcd565b91509150816110f3576110ee8561115c565b6110f5565b805b9250505092915050565b6040518060400160405280600181526020017f310000000000000000000000000000000000000000000000000000000000000081525081565b7f5fdbd35e8da83ee755d5e62a539e5ed7f47126abede0b8b10f9ea43dc6eed07f81565b6000600160008373ffffffffffffffffffffffffffffffffffffffff1673ffffffffffffffffffffffffffffffffffffffff168152602001908152602001600020549050919050565b60006111e482604051806060016040528060248152602001612e73602491396111d5866111d0611900565b611849565b611b219092919063ffffffff16565b90506111f8836111f2611900565b83611908565b6112028383611dae565b505050565b600b6020528060005260406000206000915090505481565b600061124882600080868152602001908152602001600020600001611f2490919063ffffffff16565b905092915050565b600061127982600080868152602001908152602001600020600001611f3e90919063ffffffff16565b905092915050565b606060058054600181600116156101000203166002900480601f0160208091040260200160405190810160405280929190818152602001828054600181600116156101000203166002900480156113195780601f106112ee57610100808354040283529160200191611319565b820191906000526020600020905b8154815290600101906020018083116112fc57829003601f168201915b5050505050905090565b6113547f5fdbd35e8da83ee755d5e62a539e5ed7f47126abede0b8b10f9ea43dc6eed07f61134f611900565b611250565b6113c6576040517f08c379a00000000000000000000000000000000000000000000000000000000081526004018080602001828103825260118152602001807f4552525f534e415053484f545f524f4c4500000000000000000000000000000081525060200191505060405180910390fd5b6113ce611f6e565b50565b60008060006113e1846008611dcd565b91509150816113f7576113f2610c94565b6113f9565b805b92505050919050565b6000801b81565b60006114cc611416611900565b846114c785604051806060016040528060258152602001612f016025913960026000611440611900565b73ffffffffffffffffffffffffffffffffffffffff1673ffffffffffffffffffffffffffffffffffffffff16815260200190815260200160002060008a73ffffffffffffffffffffffffffffffffffffffff1673ffffffffffffffffffffffffffffffffffffffff16815260200190815260200160002054611b219092919063ffffffff16565b611908565b6001905092915050565b60006114ea6114e3611900565b8484611aff565b6001905092915050565b6000611513600080848152602001908152602001600020600001611fc6565b9050919050565b83421115611590576040517f08c379a000000000000000000000000000000000000000000000000000000000815260040180806020018281038252600f8152602001807f4552525f455850495245445f534947000000000000000000000000000000000081525060200191505060405180910390fd5b60006119017f00000000000000000000000000000000000000000000000000000000000000007f00000000000000000000000000000000000000000000000000000000000000008a8a8a600b60008f73ffffffffffffffffffffffffffffffffffffffff1673ffffffffffffffffffffffffffffffffffffffff1681526020019081526020016000206000815480929190600101919050558b604051602001808781526020018673ffffffffffffffffffffffffffffffffffffffff1681526020018573ffffffffffffffffffffffffffffffffffffffff168152602001848152602001838152602001828152602001965050505050505060405160208183030381529060405280519060200120604051602001808461ffff1660f01b815260020183815260200182815260200193505050506040516020818303038152906040528051906020012090506116e781858585611fdb565b73ffffffffffffffffffffffffffffffffffffffff168873ffffffffffffffffffffffffffffffffffffffff1614611787576040517f08c379a000000000000000000000000000000000000000000000000000000000815260040180806020018281038252600f8152602001807f4552525f494e56414c49445f534947000000000000000000000000000000000081525060200191505060405180910390fd5b611792888888611908565b5050505050505050565b7f9f2df0fed2c77648de5860a4cc508cd0818c85b8b8a1ab4ceeef8d981c8956a681565b6117e6600080848152602001908152602001600020600201546117e1611900565b611250565b61183b576040517f08c379a0000000000000000000000000000000000000000000000000000000008152600401808060200182810382526030815260200180612df96030913960400191505060405180910390fd5b6118458282611c74565b5050565b6000600260008473ffffffffffffffffffffffffffffffffffffffff1673ffffffffffffffffffffffffffffffffffffffff16815260200190815260200160002060008373ffffffffffffffffffffffffffffffffffffffff1673ffffffffffffffffffffffffffffffffffffffff16815260200190815260200160002054905092915050565b60006118f8836000018373ffffffffffffffffffffffffffffffffffffffff1660001b6121de565b905092915050565b600033905090565b600073ffffffffffffffffffffffffffffffffffffffff168373ffffffffffffffffffffffffffffffffffffffff16141561198e576040517f08c379a0000000000000000000000000000000000000000000000000000000008152600401808060200182810382526024815260200180612edd6024913960400191505060405180910390fd5b600073ffffffffffffffffffffffffffffffffffffffff168273ffffffffffffffffffffffffffffffffffffffff161415611a14576040517f08c379a0000000000000000000000000000000000000000000000000000000008152600401808060200182810382526022815260200180612d8f6022913960400191505060405180910390fd5b80600260008573ffffffffffffffffffffffffffffffffffffffff1673ffffffffffffffffffffffffffffffffffffffff16815260200190815260200160002060008473ffffffffffffffffffffffffffffffffffffffff1673ffffffffffffffffffffffffffffffffffffffff168152602001908152602001600020819055508173ffffffffffffffffffffffffffffffffffffffff168373ffffffffffffffffffffffffffffffffffffffff167f8c5be1e5ebec7d5bd14f71427d1e84f3dd0314c0f7b2291e5b200ac8c7c3b925836040518082815260200191505060405180910390a3505050565b611b088361224e565b611b118261224e565b611b1c8383836122a1565b505050565b6000838311158290611bce576040517f08c379a00000000000000000000000000000000000000000000000000000000081526004018080602001828103825283818151815260200191508051906020019080838360005b83811015611b93578082015181840152602081019050611b78565b50505050905090810190601f168015611bc05780820380516001836020036101000a031916815260200191505b509250505060405180910390fd5b5060008385039050809150509392505050565b611c08816000808581526020019081526020016000206000016118d090919063ffffffff16565b15611c7057611c15611900565b73ffffffffffffffffffffffffffffffffffffffff168173ffffffffffffffffffffffffffffffffffffffff16837f2f8788117e7eff1d82e926ec794901d17c78024a50270940304540a733656f0d60405160405180910390a45b5050565b611c9b8160008085815260200190815260200160002060000161256690919063ffffffff16565b15611d0357611ca8611900565b73ffffffffffffffffffffffffffffffffffffffff168173ffffffffffffffffffffffffffffffffffffffff16837ff6391f5c32d9c69d2a47ea670b442974b53935d1edc7fd64eb21e047a839171b60405160405180910390a45b5050565b600080828401905083811015611d85576040517f08c379a000000000000000000000000000000000000000000000000000000000815260040180806020018281038252601b8152602001807f536166654d6174683a206164646974696f6e206f766572666c6f77000000000081525060200191505060405180910390fd5b8091505092915050565b611d988261224e565b611da0612596565b611daa82826125aa565b5050565b611db78261224e565b611dbf612596565b611dc98282612773565b5050565b60008060008411611e46576040517f08c379a00000000000000000000000000000000000000000000000000000000081526004018080602001828103825260168152602001807f4552433230536e617073686f743a20696420697320300000000000000000000081525060200191505060405180910390fd5b611e50600a612939565b841115611ec5576040517f08c379a000000000000000000000000000000000000000000000000000000000815260040180806020018281038252601d8152602001807f4552433230536e617073686f743a206e6f6e6578697374656e7420696400000081525060200191505060405180910390fd5b6000611edd858560000161294790919063ffffffff16565b90508360000180549050811415611efb576000809250925050611f1d565b6001846001018281548110611f0c57fe5b906000526020600020015492509250505b9250929050565b6000611f3383600001836129f8565b60001c905092915050565b6000611f66836000018373ffffffffffffffffffffffffffffffffffffffff1660001b612a7b565b905092915050565b6000611f7a600a612a9e565b6000611f86600a612939565b90507f8030e83b04d87bef53480e26263266d6ca66863aa8506aca6f2559d18aa1cb67816040518082815260200191505060405180910390a18091505090565b6000611fd482600001612ab4565b9050919050565b60007f7fffffffffffffffffffffffffffffff5d576e7357a4501ddfe92f46681b20a08260001c1115612059576040517f08c379a0000000000000000000000000000000000000000000000000000000008152600401808060200182810382526022815260200180612dd76022913960400191505060405180910390fd5b601b8460ff16141580156120715750601c8460ff1614155b156120c7576040517f08c379a0000000000000000000000000000000000000000000000000000000008152600401808060200182810382526022815260200180612e296022913960400191505060405180910390fd5b600060018686868660405160008152602001604052604051808581526020018460ff1681526020018381526020018281526020019450505050506020604051602081039080840390855afa158015612123573d6000803e3d6000fd5b505050602060405103519050600073ffffffffffffffffffffffffffffffffffffffff168173ffffffffffffffffffffffffffffffffffffffff1614156121d2576040517f08c379a00000000000000000000000000000000000000000000000000000000081526004018080602001828103825260188152602001807f45434453413a20696e76616c6964207369676e6174757265000000000000000081525060200191505060405180910390fd5b80915050949350505050565b60006121ea8383612a7b565b612243578260000182908060018154018082558091505060019003906000526020600020016000909190919091505582600001805490508360010160008481526020019081526020016000208190555060019050612248565b600090505b92915050565b61229e600760008373ffffffffffffffffffffffffffffffffffffffff1673ffffffffffffffffffffffffffffffffffffffff1681526020019081526020016000206122998361115c565b612ac5565b50565b600073ffffffffffffffffffffffffffffffffffffffff168373ffffffffffffffffffffffffffffffffffffffff161415612327576040517f08c379a0000000000000000000000000000000000000000000000000000000008152600401808060200182810382526025815260200180612eb86025913960400191505060405180910390fd5b600073ffffffffffffffffffffffffffffffffffffffff168273ffffffffffffffffffffffffffffffffffffffff1614156123ad576040517f08c379a0000000000000000000000000000000000000000000000000000000008152600401808060200182810382526023815260200180612d1b6023913960400191505060405180910390fd5b6123b8838383612b42565b61242481604051806060016040528060268152602001612db160269139600160008773ffffffffffffffffffffffffffffffffffffffff1673ffffffffffffffffffffffffffffffffffffffff16815260200190815260200160002054611b219092919063ffffffff16565b600160008573ffffffffffffffffffffffffffffffffffffffff1673ffffffffffffffffffffffffffffffffffffffff168152602001908152602001600020819055506124b981600160008573ffffffffffffffffffffffffffffffffffffffff1673ffffffffffffffffffffffffffffffffffffffff16815260200190815260200160002054611d0790919063ffffffff16565b600160008473ffffffffffffffffffffffffffffffffffffffff1673ffffffffffffffffffffffffffffffffffffffff168152602001908152602001600020819055508173ffffffffffffffffffffffffffffffffffffffff168373ffffffffffffffffffffffffffffffffffffffff167fddf252ad1be2c89b69c2b068fc378daa952ba7f163c4a11628f55a4df523b3ef836040518082815260200191505060405180910390a3505050565b600061258e836000018373ffffffffffffffffffffffffffffffffffffffff1660001b612b47565b905092915050565b6125a860086125a3610c94565b612ac5565b565b600073ffffffffffffffffffffffffffffffffffffffff168273ffffffffffffffffffffffffffffffffffffffff16141561264d576040517f08c379a000000000000000000000000000000000000000000000000000000000815260040180806020018281038252601f8152602001807f45524332303a206d696e7420746f20746865207a65726f20616464726573730081525060200191505060405180910390fd5b61265960008383612b42565b61266e81600354611d0790919063ffffffff16565b6003819055506126c681600160008573ffffffffffffffffffffffffffffffffffffffff1673ffffffffffffffffffffffffffffffffffffffff16815260200190815260200160002054611d0790919063ffffffff16565b600160008473ffffffffffffffffffffffffffffffffffffffff1673ffffffffffffffffffffffffffffffffffffffff168152602001908152602001600020819055508173ffffffffffffffffffffffffffffffffffffffff16600073ffffffffffffffffffffffffffffffffffffffff167fddf252ad1be2c89b69c2b068fc378daa952ba7f163c4a11628f55a4df523b3ef836040518082815260200191505060405180910390a35050565b600073ffffffffffffffffffffffffffffffffffffffff168273ffffffffffffffffffffffffffffffffffffffff1614156127f9576040517f08c379a0000000000000000000000000000000000000000000000000000000008152600401808060200182810382526021815260200180612e976021913960400191505060405180910390fd5b61280582600083612b42565b61287181604051806060016040528060228152602001612d6d60229139600160008673ffffffffffffffffffffffffffffffffffffffff1673ffffffffffffffffffffffffffffffffffffffff16815260200190815260200160002054611b219092919063ffffffff16565b600160008473ffffffffffffffffffffffffffffffffffffffff1673ffffffffffffffffffffffffffffffffffffffff168152602001908152602001600020819055506128c981600354612c2f90919063ffffffff16565b600381905550600073ffffffffffffffffffffffffffffffffffffffff168273ffffffffffffffffffffffffffffffffffffffff167fddf252ad1be2c89b69c2b068fc378daa952ba7f163c4a11628f55a4df523b3ef836040518082815260200191505060405180910390a35050565b600081600001549050919050565b6000808380549050141561295e57600090506129f2565b600080848054905090505b808210156129b257600061297d8383612c79565b90508486828154811061298c57fe5b906000526020600020015411156129a5578091506129ac565b6001810192505b50612969565b6000821180156129da5750838560018403815481106129cd57fe5b9060005260206000200154145b156129ec5760018203925050506129f2565b81925050505b92915050565b600081836000018054905011612a59576040517f08c379a0000000000000000000000000000000000000000000000000000000008152600401808060200182810382526022815260200180612cf96022913960400191505060405180910390fd5b826000018281548110612a6857fe5b9060005260206000200154905092915050565b600080836001016000848152602001908152602001600020541415905092915050565b6001816000016000828254019250508190555050565b600081600001805490509050919050565b6000612ad1600a612939565b905080612ae084600001612cbb565b1015612b3d5782600001819080600181540180825580915050600190039060005260206000200160009091909190915055826001018290806001815401808255809150506001900390600052602060002001600090919091909150555b505050565b505050565b60008083600101600084815260200190815260200160002054905060008114612c235760006001820390506000600186600001805490500390506000866000018281548110612b9257fe5b9060005260206000200154905080876000018481548110612baf57fe5b9060005260206000200181905550600183018760010160008381526020019081526020016000208190555086600001805480612be757fe5b60019003818190600052602060002001600090559055866001016000878152602001908152602001600020600090556001945050505050612c29565b60009150505b92915050565b6000612c7183836040518060400160405280601e81526020017f536166654d6174683a207375627472616374696f6e206f766572666c6f770000815250611b21565b905092915050565b60006002808381612c8657fe5b0660028581612c9157fe5b060181612c9a57fe5b0460028381612ca557fe5b0460028581612cb057fe5b040101905092915050565b60008082805490501415612cd25760009050612cf3565b81600183805490500381548110612ce557fe5b906000526020600020015490505b91905056fe456e756d657261626c655365743a20696e646578206f7574206f6620626f756e647345524332303a207472616e7366657220746f20746865207a65726f2061646472657373416363657373436f6e74726f6c3a2073656e646572206d75737420626520616e2061646d696e20746f206772616e7445524332303a206275726e20616d6f756e7420657863656564732062616c616e636545524332303a20617070726f766520746f20746865207a65726f206164647265737345524332303a207472616e7366657220616d6f756e7420657863656564732062616c616e636545434453413a20696e76616c6964207369676e6174757265202773272076616c7565416363657373436f6e74726f6c3a2073656e646572206d75737420626520616e2061646d696e20746f207265766f6b6545434453413a20696e76616c6964207369676e6174757265202776272076616c756545524332303a207472616e7366657220616d6f756e74206578636565647320616c6c6f77616e636545524332303a206275726e20616d6f756e74206578636565647320616c6c6f77616e636545524332303a206275726e2066726f6d20746865207a65726f206164647265737345524332303a207472616e736665722066726f6d20746865207a65726f206164647265737345524332303a20617070726f76652066726f6d20746865207a65726f206164647265737345524332303a2064656372656173656420616c6c6f77616e63652062656c6f77207a65726f416363657373436f6e74726f6c3a2063616e206f6e6c792072656e6f756e636520726f6c657320666f722073656c66a26469706673582212202a559b336ed002d7130b5a7bfe36b7c036118288e63debeecdf00d2125364f3964736f6c63430007010033",
  "linkReferences": {},
  "deployedLinkReferences": {}
}