{
  "_format": "hh-sol-artifact-1",
  "contractName": "BurnSYMM",
  "sourceName": "contracts/BurnSYMM.sol",
  "abi": [
    {
      "inputs": [
        {
          "internalType": "contract IERC20",
          "name": "token",
          "type": "address"
        },
        {
          "internalType": "uint256",
          "name": "amount",
          "type": "uint256"
        }
      ],
      "name": "depositToken",
      "outputs": [],
      "stateMutability": "nonpayable",
      "type": "function"
    }
  ],
  "bytecode": "0x608060405234801561001057600080fd5b5060016000556103c9806100256000396000f3fe608060405234801561001057600080fd5b506004361061002b5760003560e01c8063338b5dea14610030575b600080fd5b6100696004803603604081101561004657600080fd5b5073ffffffffffffffffffffffffffffffffffffffff813516906020013561006b565b005b61007361010c565b61009573ffffffffffffffffffffffffffffffffffffffff8316333084610125565b8173ffffffffffffffffffffffffffffffffffffffff166342966c68826040518263ffffffff1660e01b815260040180828152602001915050600060405180830381600087803b1580156100e857600080fd5b505af11580156100fc573d6000803e3d6000fd5b505050506101086101c0565b5050565b61011e600260005414156101906101c7565b6002600055565b6040805173ffffffffffffffffffffffffffffffffffffffff80861660248301528416604482015260648082018490528251808303909101815260849091019091526020810180517bffffffffffffffffffffffffffffffffffffffffffffffffffffffff167f23b872dd000000000000000000000000000000000000000000000000000000001790526101ba9085906101d5565b50505050565b6001600055565b8161010857610108816102eb565b600060608373ffffffffffffffffffffffffffffffffffffffff16836040518082805190602001908083835b6020831061023e57805182527fffffffffffffffffffffffffffffffffffffffffffffffffffffffffffffffe09092019160209182019101610201565b6001836020036101000a0380198251168184511680821785525050505050509050019150506000604051808303816000865af19150503d80600081146102a0576040519150601f19603f3d011682016040523d82523d6000602084013e6102a5565b606091505b509150915060008214156102bd573d6000803e3d6000fd5b6101ba8151600014806102e357508180602001905160208110156102e057600080fd5b50515b6101a26101c7565b610315817f42414c0000000000000000000000000000000000000000000000000000000000610318565b50565b7f08c379a000000000000000000000000000000000000000000000000000000000600090815260206004526007602452600a808404818106603090810160081b958390069590950190829004918206850160101b01602363ffffff0060e086901c160160181b0190930160c81b60445260e882901c90606490fdfea2646970667358221220f62692cf268c0b155a2e8131705787457a0db9cbf34f9fadde5ca73d598edbfc64736f6c63430007010033",
  "linkReferences": {},
  "deployedLinkReferences": {}
}