{
  "mainnet/0xba100000625a3754423978a60c9317c58a424e3d/SymmToken.sol": {
    "SymmToken": {
      "abi": [
        {
          "inputs": [
            {
              "internalType": "string",
              "name": "name",
              "type": "string"
            },
            {
              "internalType": "string",
              "name": "symbol",
              "type": "string"
            }
          ],
          "stateMutability": "nonpayable",
          "type": "constructor"
        },
        {
          "anonymous": false,
          "inputs": [
            {
              "indexed": true,
              "internalType": "address",
              "name": "owner",
              "type": "address"
            },
            {
              "indexed": true,
              "internalType": "address",
              "name": "spender",
              "type": "address"
            },
            {
              "indexed": false,
              "internalType": "uint256",
              "name": "value",
              "type": "uint256"
            }
          ],
          "name": "Approval",
          "type": "event"
        },
        {
          "anonymous": false,
          "inputs": [
            {
              "indexed": true,
              "internalType": "bytes32",
              "name": "role",
              "type": "bytes32"
            },
            {
              "indexed": true,
              "internalType": "address",
              "name": "account",
              "type": "address"
            },
            {
              "indexed": true,
              "internalType": "address",
              "name": "sender",
              "type": "address"
            }
          ],
          "name": "RoleGranted",
          "type": "event"
        },
        {
          "anonymous": false,
          "inputs": [
            {
              "indexed": true,
              "internalType": "bytes32",
              "name": "role",
              "type": "bytes32"
            },
            {
              "indexed": true,
              "internalType": "address",
              "name": "account",
              "type": "address"
            },
            {
              "indexed": true,
              "internalType": "address",
              "name": "sender",
              "type": "address"
            }
          ],
          "name": "RoleRevoked",
          "type": "event"
        },
        {
          "anonymous": false,
          "inputs": [
            {
              "indexed": false,
              "internalType": "uint256",
              "name": "id",
              "type": "uint256"
            }
          ],
          "name": "Snapshot",
          "type": "event"
        },
        {
          "anonymous": false,
          "inputs": [
            {
              "indexed": true,
              "internalType": "address",
              "name": "from",
              "type": "address"
            },
            {
              "indexed": true,
              "internalType": "address",
              "name": "to",
              "type": "address"
            },
            {
              "indexed": false,
              "internalType": "uint256",
              "name": "value",
              "type": "uint256"
            }
          ],
          "name": "Transfer",
          "type": "event"
        },
        {
          "inputs": [],
          "name": "DEFAULT_ADMIN_ROLE",
          "outputs": [
            {
              "internalType": "bytes32",
              "name": "",
              "type": "bytes32"
            }
          ],
          "stateMutability": "view",
          "type": "function"
        },
        {
          "inputs": [],
          "name": "DOMAIN_SEPARATOR",
          "outputs": [
            {
              "internalType": "bytes32",
              "name": "",
              "type": "bytes32"
            }
          ],
          "stateMutability": "view",
          "type": "function"
        },
        {
          "inputs": [],
          "name": "MINTER_ROLE",
          "outputs": [
            {
              "internalType": "bytes32",
              "name": "",
              "type": "bytes32"
            }
          ],
          "stateMutability": "view",
          "type": "function"
        },
        {
          "inputs": [],
          "name": "PERMIT_TYPEHASH",
          "outputs": [
            {
              "internalType": "bytes32",
              "name": "",
              "type": "bytes32"
            }
          ],
          "stateMutability": "view",
          "type": "function"
        },
        {
          "inputs": [],
          "name": "SNAPSHOT_ROLE",
          "outputs": [
            {
              "internalType": "bytes32",
              "name": "",
              "type": "bytes32"
            }
          ],
          "stateMutability": "view",
          "type": "function"
        },
        {
          "inputs": [
            {
              "internalType": "address",
              "name": "owner",
              "type": "address"
            },
            {
              "internalType": "address",
              "name": "spender",
              "type": "address"
            }
          ],
          "name": "allowance",
          "outputs": [
            {
              "internalType": "uint256",
              "name": "",
              "type": "uint256"
            }
          ],
          "stateMutability": "view",
          "type": "function"
        },
        {
          "inputs": [
            {
              "internalType": "address",
              "name": "spender",
              "type": "address"
            },
            {
              "internalType": "uint256",
              "name": "amount",
              "type": "uint256"
            }
          ],
          "name": "approve",
          "outputs": [
            {
              "internalType": "bool",
              "name": "",
              "type": "bool"
            }
          ],
          "stateMutability": "nonpayable",
          "type": "function"
        },
        {
          "inputs": [
            {
              "internalType": "address",
              "name": "account",
              "type": "address"
            }
          ],
          "name": "balanceOf",
          "outputs": [
            {
              "internalType": "uint256",
              "name": "",
              "type": "uint256"
            }
          ],
          "stateMutability": "view",
          "type": "function"
        },
        {
          "inputs": [
            {
              "internalType": "address",
              "name": "account",
              "type": "address"
            },
            {
              "internalType": "uint256",
              "name": "snapshotId",
              "type": "uint256"
            }
          ],
          "name": "balanceOfAt",
          "outputs": [
            {
              "internalType": "uint256",
              "name": "",
              "type": "uint256"
            }
          ],
          "stateMutability": "view",
          "type": "function"
        },
        {
          "inputs": [
            {
              "internalType": "uint256",
              "name": "amount",
              "type": "uint256"
            }
          ],
          "name": "burn",
          "outputs": [],
          "stateMutability": "nonpayable",
          "type": "function"
        },
        {
          "inputs": [
            {
              "internalType": "address",
              "name": "account",
              "type": "address"
            },
            {
              "internalType": "uint256",
              "name": "amount",
              "type": "uint256"
            }
          ],
          "name": "burnFrom",
          "outputs": [],
          "stateMutability": "nonpayable",
          "type": "function"
        },
        {
          "inputs": [],
          "name": "decimals",
          "outputs": [
            {
              "internalType": "uint8",
              "name": "",
              "type": "uint8"
            }
          ],
          "stateMutability": "view",
          "type": "function"
        },
        {
          "inputs": [
            {
              "internalType": "address",
              "name": "spender",
              "type": "address"
            },
            {
              "internalType": "uint256",
              "name": "subtractedValue",
              "type": "uint256"
            }
          ],
          "name": "decreaseAllowance",
          "outputs": [
            {
              "internalType": "bool",
              "name": "",
              "type": "bool"
            }
          ],
          "stateMutability": "nonpayable",
          "type": "function"
        },
        {
          "inputs": [
            {
              "internalType": "bytes32",
              "name": "role",
              "type": "bytes32"
            }
          ],
          "name": "getRoleAdmin",
          "outputs": [
            {
              "internalType": "bytes32",
              "name": "",
              "type": "bytes32"
            }
          ],
          "stateMutability": "view",
          "type": "function"
        },
        {
          "inputs": [
            {
              "internalType": "bytes32",
              "name": "role",
              "type": "bytes32"
            },
            {
              "internalType": "uint256",
              "name": "index",
              "type": "uint256"
            }
          ],
          "name": "getRoleMember",
          "outputs": [
            {
              "internalType": "address",
              "name": "",
              "type": "address"
            }
          ],
          "stateMutability": "view",
          "type": "function"
        },
        {
          "inputs": [
            {
              "internalType": "bytes32",
              "name": "role",
              "type": "bytes32"
            }
          ],
          "name": "getRoleMemberCount",
          "outputs": [
            {
              "internalType": "uint256",
              "name": "",
              "type": "uint256"
            }
          ],
          "stateMutability": "view",
          "type": "function"
        },
        {
          "inputs": [
            {
              "internalType": "bytes32",
              "name": "role",
              "type": "bytes32"
            },
            {
              "internalType": "address",
              "name": "account",
              "type": "address"
            }
          ],
          "name": "grantRole",
          "outputs": [],
          "stateMutability": "nonpayable",
          "type": "function"
        },
        {
          "inputs": [
            {
              "internalType": "bytes32",
              "name": "role",
              "type": "bytes32"
            },
            {
              "internalType": "address",
              "name": "account",
              "type": "address"
            }
          ],
          "name": "hasRole",
          "outputs": [
            {
              "internalType": "bool",
              "name": "",
              "type": "bool"
            }
          ],
          "stateMutability": "view",
          "type": "function"
        },
        {
          "inputs": [
            {
              "internalType": "address",
              "name": "spender",
              "type": "address"
            },
            {
              "internalType": "uint256",
              "name": "addedValue",
              "type": "uint256"
            }
          ],
          "name": "increaseAllowance",
          "outputs": [
            {
              "internalType": "bool",
              "name": "",
              "type": "bool"
            }
          ],
          "stateMutability": "nonpayable",
          "type": "function"
        },
        {
          "inputs": [
            {
              "internalType": "address",
              "name": "to",
              "type": "address"
            },
            {
              "internalType": "uint256",
              "name": "amount",
              "type": "uint256"
            }
          ],
          "name": "mint",
          "outputs": [],
          "stateMutability": "nonpayable",
          "type": "function"
        },
        {
          "inputs": [],
          "name": "name",
          "outputs": [
            {
              "internalType": "string",
              "name": "",
              "type": "string"
            }
          ],
          "stateMutability": "view",
          "type": "function"
        },
        {
          "inputs": [
            {
              "internalType": "address",
              "name": "",
              "type": "address"
            }
          ],
          "name": "nonces",
          "outputs": [
            {
              "internalType": "uint256",
              "name": "",
              "type": "uint256"
            }
          ],
          "stateMutability": "view",
          "type": "function"
        },
        {
          "inputs": [
            {
              "internalType": "address",
              "name": "owner",
              "type": "address"
            },
            {
              "internalType": "address",
              "name": "spender",
              "type": "address"
            },
            {
              "internalType": "uint256",
              "name": "value",
              "type": "uint256"
            },
            {
              "internalType": "uint256",
              "name": "deadline",
              "type": "uint256"
            },
            {
              "internalType": "uint8",
              "name": "v",
              "type": "uint8"
            },
            {
              "internalType": "bytes32",
              "name": "r",
              "type": "bytes32"
            },
            {
              "internalType": "bytes32",
              "name": "s",
              "type": "bytes32"
            }
          ],
          "name": "permit",
          "outputs": [],
          "stateMutability": "nonpayable",
          "type": "function"
        },
        {
          "inputs": [
            {
              "internalType": "bytes32",
              "name": "role",
              "type": "bytes32"
            },
            {
              "internalType": "address",
              "name": "account",
              "type": "address"
            }
          ],
          "name": "renounceRole",
          "outputs": [],
          "stateMutability": "nonpayable",
          "type": "function"
        },
        {
          "inputs": [
            {
              "internalType": "bytes32",
              "name": "role",
              "type": "bytes32"
            },
            {
              "internalType": "address",
              "name": "account",
              "type": "address"
            }
          ],
          "name": "revokeRole",
          "outputs": [],
          "stateMutability": "nonpayable",
          "type": "function"
        },
        {
          "inputs": [],
          "name": "snapshot",
          "outputs": [],
          "stateMutability": "nonpayable",
          "type": "function"
        },
        {
          "inputs": [],
          "name": "symbol",
          "outputs": [
            {
              "internalType": "string",
              "name": "",
              "type": "string"
            }
          ],
          "stateMutability": "view",
          "type": "function"
        },
        {
          "inputs": [],
          "name": "totalSupply",
          "outputs": [
            {
              "internalType": "uint256",
              "name": "",
              "type": "uint256"
            }
          ],
          "stateMutability": "view",
          "type": "function"
        },
        {
          "inputs": [
            {
              "internalType": "uint256",
              "name": "snapshotId",
              "type": "uint256"
            }
          ],
          "name": "totalSupplyAt",
          "outputs": [
            {
              "internalType": "uint256",
              "name": "",
              "type": "uint256"
            }
          ],
          "stateMutability": "view",
          "type": "function"
        },
        {
          "inputs": [
            {
              "internalType": "address",
              "name": "recipient",
              "type": "address"
            },
            {
              "internalType": "uint256",
              "name": "amount",
              "type": "uint256"
            }
          ],
          "name": "transfer",
          "outputs": [
            {
              "internalType": "bool",
              "name": "",
              "type": "bool"
            }
          ],
          "stateMutability": "nonpayable",
          "type": "function"
        },
        {
          "inputs": [
            {
              "internalType": "address",
              "name": "sender",
              "type": "address"
            },
            {
              "internalType": "address",
              "name": "recipient",
              "type": "address"
            },
            {
              "internalType": "uint256",
              "name": "amount",
              "type": "uint256"
            }
          ],
          "name": "transferFrom",
          "outputs": [
            {
              "internalType": "bool",
              "name": "",
              "type": "bool"
            }
          ],
          "stateMutability": "nonpayable",
          "type": "function"
        },
        {
          "inputs": [],
          "name": "version",
          "outputs": [
            {
              "internalType": "string",
              "name": "",
              "type": "string"
            }
          ],
          "stateMutability": "view",
          "type": "function"
        }
      ],
      "devdoc": {
        "kind": "dev",
        "methods": {
          "allowance(address,address)": {
            "details": "See {IERC20-allowance}."
          },
          "approve(address,uint256)": {
            "details": "See {IERC20-approve}. Requirements: - `spender` cannot be the zero address."
          },
          "balanceOf(address)": {
            "details": "See {IERC20-balanceOf}."
          },
          "balanceOfAt(address,uint256)": {
            "details": "Retrieves the balance of `account` at the time `snapshotId` was created."
          },
          "decimals()": {
            "details": "Returns the number of decimals used to get its user representation. For example, if `decimals` equals `2`, a balance of `505` tokens should be displayed to a user as `5,05` (`505 / 10 ** 2`). Tokens usually opt for a value of 18, imitating the relationship between Ether and Wei. This is the value {ERC20} uses, unless {_setupDecimals} is called. NOTE: This information is only used for _display_ purposes: it in no way affects any of the arithmetic of the contract, including {IERC20-balanceOf} and {IERC20-transfer}."
          },
          "decreaseAllowance(address,uint256)": {
            "details": "Atomically decreases the allowance granted to `spender` by the caller. This is an alternative to {approve} that can be used as a mitigation for problems described in {IERC20-approve}. Emits an {Approval} event indicating the updated allowance. Requirements: - `spender` cannot be the zero address. - `spender` must have allowance for the caller of at least `subtractedValue`."
          },
          "getRoleAdmin(bytes32)": {
            "details": "Returns the admin role that controls `role`. See {grantRole} and {revokeRole}. To change a role's admin, use {_setRoleAdmin}."
          },
          "getRoleMember(bytes32,uint256)": {
            "details": "Returns one of the accounts that have `role`. `index` must be a value between 0 and {getRoleMemberCount}, non-inclusive. Role bearers are not sorted in any particular way, and their ordering may change at any point. WARNING: When using {getRoleMember} and {getRoleMemberCount}, make sure you perform all queries on the same block. See the following https://forum.openzeppelin.com/t/iterating-over-elements-on-enumerableset-in-openzeppelin-contracts/2296[forum post] for more information."
          },
          "getRoleMemberCount(bytes32)": {
            "details": "Returns the number of accounts that have `role`. Can be used together with {getRoleMember} to enumerate all bearers of a role."
          },
          "grantRole(bytes32,address)": {
            "details": "Grants `role` to `account`. If `account` had not been already granted `role`, emits a {RoleGranted} event. Requirements: - the caller must have ``role``'s admin role."
          },
          "hasRole(bytes32,address)": {
            "details": "Returns `true` if `account` has been granted `role`."
          },
          "increaseAllowance(address,uint256)": {
            "details": "Atomically increases the allowance granted to `spender` by the caller. This is an alternative to {approve} that can be used as a mitigation for problems described in {IERC20-approve}. Emits an {Approval} event indicating the updated allowance. Requirements: - `spender` cannot be the zero address."
          },
          "name()": {
            "details": "Returns the name of the token."
          },
          "renounceRole(bytes32,address)": {
            "details": "Revokes `role` from the calling account. Roles are often managed via {grantRole} and {revokeRole}: this function's purpose is to provide a mechanism for accounts to lose their privileges if they are compromised (such as when a trusted device is misplaced). If the calling account had been granted `role`, emits a {RoleRevoked} event. Requirements: - the caller must be `account`."
          },
          "revokeRole(bytes32,address)": {
            "details": "Revokes `role` from `account`. If `account` had been granted `role`, emits a {RoleRevoked} event. Requirements: - the caller must have ``role``'s admin role."
          },
          "symbol()": {
            "details": "Returns the symbol of the token, usually a shorter version of the name."
          },
          "totalSupply()": {
            "details": "See {IERC20-totalSupply}."
          },
          "totalSupplyAt(uint256)": {
            "details": "Retrieves the total supply at the time `snapshotId` was created."
          },
          "transfer(address,uint256)": {
            "details": "See {IERC20-transfer}. Requirements: - `recipient` cannot be the zero address. - the caller must have a balance of at least `amount`."
          },
          "transferFrom(address,address,uint256)": {
            "details": "See {IERC20-transferFrom}. Emits an {Approval} event indicating the updated allowance. This is not required by the EIP. See the note at the beginning of {ERC20}; Requirements: - `sender` and `recipient` cannot be the zero address. - `sender` must have a balance of at least `amount`. - the caller must have allowance for ``sender``'s tokens of at least `amount`."
          }
        },
        "version": 1
      },
      "evm": {
        "assembly": "    /* \"mainnet/0xba100000625a3754423978a60c9317c58a424e3d/SymmToken.sol\":50553:54766  contract SymmToken is AccessControl, ERC20Snapshot {\r... */\n  mstore(0x40, 0xc0)\n    /* \"mainnet/0xba100000625a3754423978a60c9317c58a424e3d/SymmToken.sol\":51029:51095  0x6e71edae12b1b97f4d1f60370fef10105fa2faae0126114a169c64845d6126c9 */\n  0x6e71edae12b1b97f4d1f60370fef10105fa2faae0126114a169c64845d6126c9\n    /* \"mainnet/0xba100000625a3754423978a60c9317c58a424e3d/SymmToken.sol\":50986:51095  bytes32 public immutable PERMIT_TYPEHASH = 0x6e71edae12b1b97f4d1f60370fef10105fa2faae0126114a169c64845d6126c9 */\n  0x00\n  shl\n  0xa0\n  swap1\n  dup2\n  mstore\n  pop\n    /* \"mainnet/0xba100000625a3754423978a60c9317c58a424e3d/SymmToken.sol\":51149:51772  constructor(string memory name, string memory symbol) ERC20(name, symbol) {\r... */\n  callvalue\n  dup1\n  iszero\n  tag_1\n  jumpi\n  0x00\n  dup1\n  revert\ntag_1:\n  pop\n  mload(0x40)\n  sub(codesize, bytecodeSize)\n  dup1\n  bytecodeSize\n  dup4\n  codecopy\n  dup2\n  dup2\n  add\n  0x40\n  mstore\n  0x40\n  dup2\n  lt\n  iszero\n  tag_2\n  jumpi\n  0x00\n  dup1\n  revert\ntag_2:\n  dup2\n  add\n  swap1\n  dup1\n  dup1\n  mload\n  mload(0x40)\n  swap4\n  swap3\n  swap2\n  swap1\n  dup5\n  0x0100000000\n  dup3\n  gt\n  iszero\n  tag_3\n  jumpi\n  0x00\n  dup1\n  revert\ntag_3:\n  dup4\n  dup3\n  add\n  swap2\n  pop\n  0x20\n  dup3\n  add\n  dup6\n  dup2\n  gt\n  iszero\n  tag_4\n  jumpi\n  0x00\n  dup1\n  revert\ntag_4:\n  dup3\n  mload\n  dup7\n  0x01\n  dup3\n  mul\n  dup4\n  add\n  gt\n  0x0100000000\n  dup3\n  gt\n  or\n  iszero\n  tag_5\n  jumpi\n  0x00\n  dup1\n  revert\ntag_5:\n  dup1\n  dup4\n  mstore\n  0x20\n  dup4\n  add\n  swap3\n  pop\n  pop\n  pop\n  swap1\n  dup1\n  mload\n  swap1\n  0x20\n  add\n  swap1\n  dup1\n  dup4\n  dup4\n  0x00\ntag_6:\n  dup4\n  dup2\n  lt\n  iszero\n  tag_8\n  jumpi\n  dup1\n  dup3\n  add\n  mload\n  dup2\n  dup5\n  add\n  mstore\n  0x20\n  dup2\n  add\n  swap1\n  pop\n  jump(tag_6)\ntag_8:\n  pop\n  pop\n  pop\n  pop\n  swap1\n  pop\n  swap1\n  dup2\n  add\n  swap1\n  0x1f\n  and\n  dup1\n  iszero\n  tag_9\n  jumpi\n  dup1\n  dup3\n  sub\n  dup1\n  mload\n  0x01\n  dup4\n  0x20\n  sub\n  0x0100\n  exp\n  sub\n  not\n  and\n  dup2\n  mstore\n  0x20\n  add\n  swap2\n  pop\ntag_9:\n  pop\n  0x40\n  mstore\n  0x20\n  add\n  dup1\n  mload\n  mload(0x40)\n  swap4\n  swap3\n  swap2\n  swap1\n  dup5\n  0x0100000000\n  dup3\n  gt\n  iszero\n  tag_10\n  jumpi\n  0x00\n  dup1\n  revert\ntag_10:\n  dup4\n  dup3\n  add\n  swap2\n  pop\n  0x20\n  dup3\n  add\n  dup6\n  dup2\n  gt\n  iszero\n  tag_11\n  jumpi\n  0x00\n  dup1\n  revert\ntag_11:\n  dup3\n  mload\n  dup7\n  0x01\n  dup3\n  mul\n  dup4\n  add\n  gt\n  0x0100000000\n  dup3\n  gt\n  or\n  iszero\n  tag_12\n  jumpi\n  0x00\n  dup1\n  revert\ntag_12:\n  dup1\n  dup4\n  mstore\n  0x20\n  dup4\n  add\n  swap3\n  pop\n  pop\n  pop\n  swap1\n  dup1\n  mload\n  swap1\n  0x20\n  add\n  swap1\n  dup1\n  dup4\n  dup4\n  0x00\ntag_13:\n  dup4\n  dup2\n  lt\n  iszero\n  tag_15\n  jumpi\n  dup1\n  dup3\n  add\n  mload\n  dup2\n  dup5\n  add\n  mstore\n  0x20\n  dup2\n  add\n  swap1\n  pop\n  jump(tag_13)\ntag_15:\n  pop\n  pop\n  pop\n  pop\n  swap1\n  pop\n  swap1\n  dup2\n  add\n  swap1\n  0x1f\n  and\n  dup1\n  iszero\n  tag_16\n  jumpi\n  dup1\n  dup3\n  sub\n  dup1\n  mload\n  0x01\n  dup4\n  0x20\n  sub\n  0x0100\n  exp\n  sub\n  not\n  and\n  dup2\n  mstore\n  0x20\n  add\n  swap2\n  pop\ntag_16:\n  pop\n  0x40\n  mstore\n  pop\n  pop\n  pop\n    /* \"mainnet/0xba100000625a3754423978a60c9317c58a424e3d/SymmToken.sol\":51209:51213  name */\n  dup2\n    /* \"mainnet/0xba100000625a3754423978a60c9317c58a424e3d/SymmToken.sol\":51215:51221  symbol */\n  dup2\n    /* \"mainnet/0xba100000625a3754423978a60c9317c58a424e3d/SymmToken.sol\":33175:33179  name */\n  dup2\n    /* \"mainnet/0xba100000625a3754423978a60c9317c58a424e3d/SymmToken.sol\":33167:33172  _name */\n  0x04\n    /* \"mainnet/0xba100000625a3754423978a60c9317c58a424e3d/SymmToken.sol\":33167:33179  _name = name */\n  swap1\n  dup1\n  mload\n  swap1\n  0x20\n  add\n  swap1\n  tag_22\n  swap3\n  swap2\n  swap1\n  tag_23\n  jump\t// in\ntag_22:\n  pop\n    /* \"mainnet/0xba100000625a3754423978a60c9317c58a424e3d/SymmToken.sol\":33200:33206  symbol */\n  dup1\n    /* \"mainnet/0xba100000625a3754423978a60c9317c58a424e3d/SymmToken.sol\":33190:33197  _symbol */\n  0x05\n    /* \"mainnet/0xba100000625a3754423978a60c9317c58a424e3d/SymmToken.sol\":33190:33206  _symbol = symbol */\n  swap1\n  dup1\n  mload\n  swap1\n  0x20\n  add\n  swap1\n  tag_24\n  swap3\n  swap2\n  swap1\n  tag_23\n  jump\t// in\ntag_24:\n  pop\n    /* \"mainnet/0xba100000625a3754423978a60c9317c58a424e3d/SymmToken.sol\":33229:33231  18 */\n  0x12\n    /* \"mainnet/0xba100000625a3754423978a60c9317c58a424e3d/SymmToken.sol\":33217:33226  _decimals */\n  0x06\n  0x00\n    /* \"mainnet/0xba100000625a3754423978a60c9317c58a424e3d/SymmToken.sol\":33217:33231  _decimals = 18 */\n  0x0100\n  exp\n  dup2\n  sload\n  dup2\n  0xff\n  mul\n  not\n  and\n  swap1\n  dup4\n  0xff\n  and\n  mul\n  or\n  swap1\n  sstore\n  pop\n    /* \"mainnet/0xba100000625a3754423978a60c9317c58a424e3d/SymmToken.sol\":33101:33239  constructor (string memory name, string memory symbol) {\r... */\n  pop\n  pop\n    /* \"mainnet/0xba100000625a3754423978a60c9317c58a424e3d/SymmToken.sol\":51234:51278  _setupRole(DEFAULT_ADMIN_ROLE, _msgSender()) */\n  tag_26\n    /* \"mainnet/0xba100000625a3754423978a60c9317c58a424e3d/SymmToken.sol\":13737:13741  0x00 */\n  0x00\n    /* \"mainnet/0xba100000625a3754423978a60c9317c58a424e3d/SymmToken.sol\":51245:51263  DEFAULT_ADMIN_ROLE */\n  dup1\n  shl\n    /* \"mainnet/0xba100000625a3754423978a60c9317c58a424e3d/SymmToken.sol\":51265:51277  _msgSender() */\n  tag_27\n    /* \"mainnet/0xba100000625a3754423978a60c9317c58a424e3d/SymmToken.sol\":51265:51275  _msgSender */\n  shl(0x20, tag_28)\n    /* \"mainnet/0xba100000625a3754423978a60c9317c58a424e3d/SymmToken.sol\":51265:51277  _msgSender() */\n  0x20\n  shr\n  jump\t// in\ntag_27:\n    /* \"mainnet/0xba100000625a3754423978a60c9317c58a424e3d/SymmToken.sol\":51234:51244  _setupRole */\n  shl(0x20, tag_29)\n    /* \"mainnet/0xba100000625a3754423978a60c9317c58a424e3d/SymmToken.sol\":51234:51278  _setupRole(DEFAULT_ADMIN_ROLE, _msgSender()) */\n  0x20\n  shr\n  jump\t// in\ntag_26:\n    /* \"mainnet/0xba100000625a3754423978a60c9317c58a424e3d/SymmToken.sol\":51289:51326  _setupRole(MINTER_ROLE, _msgSender()) */\n  tag_30\n    /* \"mainnet/0xba100000625a3754423978a60c9317c58a424e3d/SymmToken.sol\":50727:50751  keccak256(\"MINTER_ROLE\") */\n  0x9f2df0fed2c77648de5860a4cc508cd0818c85b8b8a1ab4ceeef8d981c8956a6\n    /* \"mainnet/0xba100000625a3754423978a60c9317c58a424e3d/SymmToken.sol\":51313:51325  _msgSender() */\n  tag_31\n    /* \"mainnet/0xba100000625a3754423978a60c9317c58a424e3d/SymmToken.sol\":51313:51323  _msgSender */\n  shl(0x20, tag_28)\n    /* \"mainnet/0xba100000625a3754423978a60c9317c58a424e3d/SymmToken.sol\":51313:51325  _msgSender() */\n  0x20\n  shr\n  jump\t// in\ntag_31:\n    /* \"mainnet/0xba100000625a3754423978a60c9317c58a424e3d/SymmToken.sol\":51289:51299  _setupRole */\n  shl(0x20, tag_29)\n    /* \"mainnet/0xba100000625a3754423978a60c9317c58a424e3d/SymmToken.sol\":51289:51326  _setupRole(MINTER_ROLE, _msgSender()) */\n  0x20\n  shr\n  jump\t// in\ntag_30:\n    /* \"mainnet/0xba100000625a3754423978a60c9317c58a424e3d/SymmToken.sol\":51337:51376  _setupRole(SNAPSHOT_ROLE, _msgSender()) */\n  tag_32\n    /* \"mainnet/0xba100000625a3754423978a60c9317c58a424e3d/SymmToken.sol\":50798:50824  keccak256(\"SNAPSHOT_ROLE\") */\n  0x5fdbd35e8da83ee755d5e62a539e5ed7f47126abede0b8b10f9ea43dc6eed07f\n    /* \"mainnet/0xba100000625a3754423978a60c9317c58a424e3d/SymmToken.sol\":51363:51375  _msgSender() */\n  tag_33\n    /* \"mainnet/0xba100000625a3754423978a60c9317c58a424e3d/SymmToken.sol\":51363:51373  _msgSender */\n  shl(0x20, tag_28)\n    /* \"mainnet/0xba100000625a3754423978a60c9317c58a424e3d/SymmToken.sol\":51363:51375  _msgSender() */\n  0x20\n  shr\n  jump\t// in\ntag_33:\n    /* \"mainnet/0xba100000625a3754423978a60c9317c58a424e3d/SymmToken.sol\":51337:51347  _setupRole */\n  shl(0x20, tag_29)\n    /* \"mainnet/0xba100000625a3754423978a60c9317c58a424e3d/SymmToken.sol\":51337:51376  _setupRole(SNAPSHOT_ROLE, _msgSender()) */\n  0x20\n  shr\n  jump\t// in\ntag_32:\n    /* \"mainnet/0xba100000625a3754423978a60c9317c58a424e3d/SymmToken.sol\":51389:51404  uint256 chainId */\n  0x00\n    /* \"mainnet/0xba100000625a3754423978a60c9317c58a424e3d/SymmToken.sol\":51407:51417  _chainID() */\n  tag_34\n    /* \"mainnet/0xba100000625a3754423978a60c9317c58a424e3d/SymmToken.sol\":51407:51415  _chainID */\n  shl(0x20, tag_35)\n    /* \"mainnet/0xba100000625a3754423978a60c9317c58a424e3d/SymmToken.sol\":51407:51417  _chainID() */\n  0x20\n  shr\n  jump\t// in\ntag_34:\n    /* \"mainnet/0xba100000625a3754423978a60c9317c58a424e3d/SymmToken.sol\":51389:51417  uint256 chainId = _chainID() */\n  swap1\n  pop\n    /* \"mainnet/0xba100000625a3754423978a60c9317c58a424e3d/SymmToken.sol\":51500:51595  keccak256('EIP712Domain(string name,string version,uint256 chainId,address verifyingContract)') */\n  0x8b73c3c69bb8fe3d512ecc4cf759cc79239f7b179b0ffacaa9a75d522b39400f\n    /* \"mainnet/0xba100000625a3754423978a60c9317c58a424e3d/SymmToken.sol\":51630:51634  name */\n  dup4\n    /* \"mainnet/0xba100000625a3754423978a60c9317c58a424e3d/SymmToken.sol\":51614:51636  keccak256(bytes(name)) */\n  dup1\n  mload\n  swap1\n  0x20\n  add\n  keccak256\n    /* \"mainnet/0xba100000625a3754423978a60c9317c58a424e3d/SymmToken.sol\":51671:51678  version */\n  mload(0x40)\n  dup1\n  0x40\n  add\n  0x40\n  mstore\n  dup1\n  0x01\n  dup2\n  mstore\n  0x20\n  add\n  0x3100000000000000000000000000000000000000000000000000000000000000\n  dup2\n  mstore\n  pop\n    /* \"mainnet/0xba100000625a3754423978a60c9317c58a424e3d/SymmToken.sol\":51655:51680  keccak256(bytes(version)) */\n  dup1\n  mload\n  swap1\n  0x20\n  add\n  keccak256\n    /* \"mainnet/0xba100000625a3754423978a60c9317c58a424e3d/SymmToken.sol\":51699:51706  chainId */\n  dup4\n    /* \"mainnet/0xba100000625a3754423978a60c9317c58a424e3d/SymmToken.sol\":51733:51737  this */\n  address\n    /* \"mainnet/0xba100000625a3754423978a60c9317c58a424e3d/SymmToken.sol\":51471:51753  abi.encode(\r... */\n  add(0x20, mload(0x40))\n  dup1\n  dup7\n  dup2\n  mstore\n  0x20\n  add\n  dup6\n  dup2\n  mstore\n  0x20\n  add\n  dup5\n  dup2\n  mstore\n  0x20\n  add\n  dup4\n  dup2\n  mstore\n  0x20\n  add\n  dup3\n  0xffffffffffffffffffffffffffffffffffffffff\n  and\n  dup2\n  mstore\n  0x20\n  add\n  swap6\n  pop\n  pop\n  pop\n  pop\n  pop\n  pop\n  mload(0x40)\n  0x20\n  dup2\n  dup4\n  sub\n  sub\n  dup2\n  mstore\n  swap1\n  0x40\n  mstore\n    /* \"mainnet/0xba100000625a3754423978a60c9317c58a424e3d/SymmToken.sol\":51447:51764  keccak256(\r... */\n  dup1\n  mload\n  swap1\n  0x20\n  add\n  keccak256\n    /* \"mainnet/0xba100000625a3754423978a60c9317c58a424e3d/SymmToken.sol\":51428:51764  DOMAIN_SEPARATOR = keccak256(\r... */\n  0x80\n  dup2\n  dup2\n  mstore\n  pop\n  pop\n    /* \"mainnet/0xba100000625a3754423978a60c9317c58a424e3d/SymmToken.sol\":51149:51772  constructor(string memory name, string memory symbol) ERC20(name, symbol) {\r... */\n  pop\n  pop\n  pop\n    /* \"mainnet/0xba100000625a3754423978a60c9317c58a424e3d/SymmToken.sol\":50553:54766  contract SymmToken is AccessControl, ERC20Snapshot {\r... */\n  jump(tag_36)\n    /* \"mainnet/0xba100000625a3754423978a60c9317c58a424e3d/SymmToken.sol\":11629:11735  function _msgSender() internal view virtual returns (address payable) {\r... */\ntag_28:\n    /* \"mainnet/0xba100000625a3754423978a60c9317c58a424e3d/SymmToken.sol\":11682:11697  address payable */\n  0x00\n    /* \"mainnet/0xba100000625a3754423978a60c9317c58a424e3d/SymmToken.sol\":11717:11727  msg.sender */\n  caller\n    /* \"mainnet/0xba100000625a3754423978a60c9317c58a424e3d/SymmToken.sol\":11710:11727  return msg.sender */\n  swap1\n  pop\n    /* \"mainnet/0xba100000625a3754423978a60c9317c58a424e3d/SymmToken.sol\":11629:11735  function _msgSender() internal view virtual returns (address payable) {\r... */\n  swap1\n  jump\t// out\n    /* \"mainnet/0xba100000625a3754423978a60c9317c58a424e3d/SymmToken.sol\":18267:18379  function _setupRole(bytes32 role, address account) internal virtual {\r... */\ntag_29:\n    /* \"mainnet/0xba100000625a3754423978a60c9317c58a424e3d/SymmToken.sol\":18346:18371  _grantRole(role, account) */\n  tag_39\n    /* \"mainnet/0xba100000625a3754423978a60c9317c58a424e3d/SymmToken.sol\":18357:18361  role */\n  dup3\n    /* \"mainnet/0xba100000625a3754423978a60c9317c58a424e3d/SymmToken.sol\":18363:18370  account */\n  dup3\n    /* \"mainnet/0xba100000625a3754423978a60c9317c58a424e3d/SymmToken.sol\":18346:18356  _grantRole */\n  shl(0x20, tag_40)\n    /* \"mainnet/0xba100000625a3754423978a60c9317c58a424e3d/SymmToken.sol\":18346:18371  _grantRole(role, account) */\n  0x20\n  shr\n  jump\t// in\ntag_39:\n    /* \"mainnet/0xba100000625a3754423978a60c9317c58a424e3d/SymmToken.sol\":18267:18379  function _setupRole(bytes32 role, address account) internal virtual {\r... */\n  pop\n  pop\n  jump\t// out\n    /* \"mainnet/0xba100000625a3754423978a60c9317c58a424e3d/SymmToken.sol\":51780:51955  function _chainID() private pure returns (uint256) {\r... */\ntag_35:\n    /* \"mainnet/0xba100000625a3754423978a60c9317c58a424e3d/SymmToken.sol\":51822:51829  uint256 */\n  0x00\n    /* \"mainnet/0xba100000625a3754423978a60c9317c58a424e3d/SymmToken.sol\":51842:51857  uint256 chainID */\n  dup1\n    /* \"mainnet/0xba100000625a3754423978a60c9317c58a424e3d/SymmToken.sol\":51903:51912  chainid() */\n  chainid\n    /* \"mainnet/0xba100000625a3754423978a60c9317c58a424e3d/SymmToken.sol\":51892:51912  chainID := chainid() */\n  swap1\n  pop\n    /* \"mainnet/0xba100000625a3754423978a60c9317c58a424e3d/SymmToken.sol\":51940:51947  chainID */\n  dup1\n    /* \"mainnet/0xba100000625a3754423978a60c9317c58a424e3d/SymmToken.sol\":51933:51947  return chainID */\n  swap2\n  pop\n  pop\n    /* \"mainnet/0xba100000625a3754423978a60c9317c58a424e3d/SymmToken.sol\":51780:51955  function _chainID() private pure returns (uint256) {\r... */\n  swap1\n  jump\t// out\n    /* \"mainnet/0xba100000625a3754423978a60c9317c58a424e3d/SymmToken.sol\":18595:18783  function _grantRole(bytes32 role, address account) private {\r... */\ntag_40:\n    /* \"mainnet/0xba100000625a3754423978a60c9317c58a424e3d/SymmToken.sol\":18669:18702  _roles[role].members.add(account) */\n  tag_43\n    /* \"mainnet/0xba100000625a3754423978a60c9317c58a424e3d/SymmToken.sol\":18694:18701  account */\n  dup2\n    /* \"mainnet/0xba100000625a3754423978a60c9317c58a424e3d/SymmToken.sol\":18669:18675  _roles */\n  0x00\n    /* \"mainnet/0xba100000625a3754423978a60c9317c58a424e3d/SymmToken.sol\":18669:18681  _roles[role] */\n  dup1\n    /* \"mainnet/0xba100000625a3754423978a60c9317c58a424e3d/SymmToken.sol\":18676:18680  role */\n  dup6\n    /* \"mainnet/0xba100000625a3754423978a60c9317c58a424e3d/SymmToken.sol\":18669:18681  _roles[role] */\n  dup2\n  mstore\n  0x20\n  add\n  swap1\n  dup2\n  mstore\n  0x20\n  add\n  0x00\n  keccak256\n    /* \"mainnet/0xba100000625a3754423978a60c9317c58a424e3d/SymmToken.sol\":18669:18689  _roles[role].members */\n  0x00\n  add\n    /* \"mainnet/0xba100000625a3754423978a60c9317c58a424e3d/SymmToken.sol\":18669:18693  _roles[role].members.add */\n  or(tag_0_139, shl(0x20, tag_44))\n  swap1\n    /* \"mainnet/0xba100000625a3754423978a60c9317c58a424e3d/SymmToken.sol\":18669:18702  _roles[role].members.add(account) */\n  swap2\n  swap1\n  0x20\n  shr\n  jump\t// in\ntag_43:\n    /* \"mainnet/0xba100000625a3754423978a60c9317c58a424e3d/SymmToken.sol\":18665:18776  if (_roles[role].members.add(account)) {\r... */\n  iszero\n  tag_45\n  jumpi\n    /* \"mainnet/0xba100000625a3754423978a60c9317c58a424e3d/SymmToken.sol\":18751:18763  _msgSender() */\n  tag_46\n    /* \"mainnet/0xba100000625a3754423978a60c9317c58a424e3d/SymmToken.sol\":18751:18761  _msgSender */\n  shl(0x20, tag_28)\n    /* \"mainnet/0xba100000625a3754423978a60c9317c58a424e3d/SymmToken.sol\":18751:18763  _msgSender() */\n  0x20\n  shr\n  jump\t// in\ntag_46:\n    /* \"mainnet/0xba100000625a3754423978a60c9317c58a424e3d/SymmToken.sol\":18724:18764  RoleGranted(role, account, _msgSender()) */\n  0xffffffffffffffffffffffffffffffffffffffff\n  and\n    /* \"mainnet/0xba100000625a3754423978a60c9317c58a424e3d/SymmToken.sol\":18742:18749  account */\n  dup2\n    /* \"mainnet/0xba100000625a3754423978a60c9317c58a424e3d/SymmToken.sol\":18724:18764  RoleGranted(role, account, _msgSender()) */\n  0xffffffffffffffffffffffffffffffffffffffff\n  and\n    /* \"mainnet/0xba100000625a3754423978a60c9317c58a424e3d/SymmToken.sol\":18736:18740  role */\n  dup4\n    /* \"mainnet/0xba100000625a3754423978a60c9317c58a424e3d/SymmToken.sol\":18724:18764  RoleGranted(role, account, _msgSender()) */\n  0x2f8788117e7eff1d82e926ec794901d17c78024a50270940304540a733656f0d\n  mload(0x40)\n  mload(0x40)\n  dup1\n  swap2\n  sub\n  swap1\n  log4\n    /* \"mainnet/0xba100000625a3754423978a60c9317c58a424e3d/SymmToken.sol\":18665:18776  if (_roles[role].members.add(account)) {\r... */\ntag_45:\n    /* \"mainnet/0xba100000625a3754423978a60c9317c58a424e3d/SymmToken.sol\":18595:18783  function _grantRole(bytes32 role, address account) private {\r... */\n  pop\n  pop\n  jump\t// out\n    /* \"mainnet/0xba100000625a3754423978a60c9317c58a424e3d/SymmToken.sol\":5076:5219  function add(AddressSet storage set, address value) internal returns (bool) {\r... */\ntag_44:\n    /* \"mainnet/0xba100000625a3754423978a60c9317c58a424e3d/SymmToken.sol\":5146:5150  bool */\n  0x00\n    /* \"mainnet/0xba100000625a3754423978a60c9317c58a424e3d/SymmToken.sol\":5170:5211  _add(set._inner, bytes32(uint256(value))) */\n  tag_48\n    /* \"mainnet/0xba100000625a3754423978a60c9317c58a424e3d/SymmToken.sol\":5175:5178  set */\n  dup4\n    /* \"mainnet/0xba100000625a3754423978a60c9317c58a424e3d/SymmToken.sol\":5175:5185  set._inner */\n  0x00\n  add\n    /* \"mainnet/0xba100000625a3754423978a60c9317c58a424e3d/SymmToken.sol\":5203:5208  value */\n  dup4\n    /* \"mainnet/0xba100000625a3754423978a60c9317c58a424e3d/SymmToken.sol\":5195:5209  uint256(value) */\n  0xffffffffffffffffffffffffffffffffffffffff\n  and\n    /* \"mainnet/0xba100000625a3754423978a60c9317c58a424e3d/SymmToken.sol\":5187:5210  bytes32(uint256(value)) */\n  0x00\n  shl\n    /* \"mainnet/0xba100000625a3754423978a60c9317c58a424e3d/SymmToken.sol\":5170:5174  _add */\n  shl(0x20, tag_49)\n    /* \"mainnet/0xba100000625a3754423978a60c9317c58a424e3d/SymmToken.sol\":5170:5211  _add(set._inner, bytes32(uint256(value))) */\n  0x20\n  shr\n  jump\t// in\ntag_48:\n    /* \"mainnet/0xba100000625a3754423978a60c9317c58a424e3d/SymmToken.sol\":5163:5211  return _add(set._inner, bytes32(uint256(value))) */\n  swap1\n  pop\n    /* \"mainnet/0xba100000625a3754423978a60c9317c58a424e3d/SymmToken.sol\":5076:5219  function add(AddressSet storage set, address value) internal returns (bool) {\r... */\n  swap3\n  swap2\n  pop\n  pop\n  jump\t// out\n    /* \"mainnet/0xba100000625a3754423978a60c9317c58a424e3d/SymmToken.sol\":1730:2144  function _add(Set storage set, bytes32 value) private returns (bool) {\r... */\ntag_49:\n    /* \"mainnet/0xba100000625a3754423978a60c9317c58a424e3d/SymmToken.sol\":1793:1797  bool */\n  0x00\n    /* \"mainnet/0xba100000625a3754423978a60c9317c58a424e3d/SymmToken.sol\":1815:1836  _contains(set, value) */\n  tag_51\n    /* \"mainnet/0xba100000625a3754423978a60c9317c58a424e3d/SymmToken.sol\":1825:1828  set */\n  dup4\n    /* \"mainnet/0xba100000625a3754423978a60c9317c58a424e3d/SymmToken.sol\":1830:1835  value */\n  dup4\n    /* \"mainnet/0xba100000625a3754423978a60c9317c58a424e3d/SymmToken.sol\":1815:1824  _contains */\n  shl(0x20, tag_52)\n    /* \"mainnet/0xba100000625a3754423978a60c9317c58a424e3d/SymmToken.sol\":1815:1836  _contains(set, value) */\n  0x20\n  shr\n  jump\t// in\ntag_51:\n    /* \"mainnet/0xba100000625a3754423978a60c9317c58a424e3d/SymmToken.sol\":1810:2137  if (!_contains(set, value)) {\r... */\n  tag_53\n  jumpi\n    /* \"mainnet/0xba100000625a3754423978a60c9317c58a424e3d/SymmToken.sol\":1853:1856  set */\n  dup3\n    /* \"mainnet/0xba100000625a3754423978a60c9317c58a424e3d/SymmToken.sol\":1853:1864  set._values */\n  0x00\n  add\n    /* \"mainnet/0xba100000625a3754423978a60c9317c58a424e3d/SymmToken.sol\":1870:1875  value */\n  dup3\n    /* \"mainnet/0xba100000625a3754423978a60c9317c58a424e3d/SymmToken.sol\":1853:1876  set._values.push(value) */\n  swap1\n  dup1\n  0x01\n  dup2\n  sload\n  add\n  dup1\n  dup3\n  sstore\n  dup1\n  swap2\n  pop\n  pop\n  0x01\n  swap1\n  sub\n  swap1\n  0x00\n  mstore\n  keccak256(0x00, 0x20)\n  add\n  0x00\n  swap1\n  swap2\n  swap1\n  swap2\n  swap1\n  swap2\n  pop\n  sstore\n    /* \"mainnet/0xba100000625a3754423978a60c9317c58a424e3d/SymmToken.sol\":2036:2039  set */\n  dup3\n    /* \"mainnet/0xba100000625a3754423978a60c9317c58a424e3d/SymmToken.sol\":2036:2047  set._values */\n  0x00\n  add\n    /* \"mainnet/0xba100000625a3754423978a60c9317c58a424e3d/SymmToken.sol\":2036:2054  set._values.length */\n  dup1\n  sload\n  swap1\n  pop\n    /* \"mainnet/0xba100000625a3754423978a60c9317c58a424e3d/SymmToken.sol\":2014:2017  set */\n  dup4\n    /* \"mainnet/0xba100000625a3754423978a60c9317c58a424e3d/SymmToken.sol\":2014:2026  set._indexes */\n  0x01\n  add\n    /* \"mainnet/0xba100000625a3754423978a60c9317c58a424e3d/SymmToken.sol\":2014:2033  set._indexes[value] */\n  0x00\n    /* \"mainnet/0xba100000625a3754423978a60c9317c58a424e3d/SymmToken.sol\":2027:2032  value */\n  dup5\n    /* \"mainnet/0xba100000625a3754423978a60c9317c58a424e3d/SymmToken.sol\":2014:2033  set._indexes[value] */\n  dup2\n  mstore\n  0x20\n  add\n  swap1\n  dup2\n  mstore\n  0x20\n  add\n  0x00\n  keccak256\n    /* \"mainnet/0xba100000625a3754423978a60c9317c58a424e3d/SymmToken.sol\":2014:2054  set._indexes[value] = set._values.length */\n  dup2\n  swap1\n  sstore\n  pop\n    /* \"mainnet/0xba100000625a3754423978a60c9317c58a424e3d/SymmToken.sol\":2076:2080  true */\n  0x01\n    /* \"mainnet/0xba100000625a3754423978a60c9317c58a424e3d/SymmToken.sol\":2069:2080  return true */\n  swap1\n  pop\n  jump(tag_50)\n    /* \"mainnet/0xba100000625a3754423978a60c9317c58a424e3d/SymmToken.sol\":1810:2137  if (!_contains(set, value)) {\r... */\ntag_53:\n    /* \"mainnet/0xba100000625a3754423978a60c9317c58a424e3d/SymmToken.sol\":2120:2125  false */\n  0x00\n    /* \"mainnet/0xba100000625a3754423978a60c9317c58a424e3d/SymmToken.sol\":2113:2125  return false */\n  swap1\n  pop\n    /* \"mainnet/0xba100000625a3754423978a60c9317c58a424e3d/SymmToken.sol\":1730:2144  function _add(Set storage set, bytes32 value) private returns (bool) {\r... */\ntag_50:\n  swap3\n  swap2\n  pop\n  pop\n  jump\t// out\n    /* \"mainnet/0xba100000625a3754423978a60c9317c58a424e3d/SymmToken.sol\":3950:4079  function _contains(Set storage set, bytes32 value) private view returns (bool) {\r... */\ntag_52:\n    /* \"mainnet/0xba100000625a3754423978a60c9317c58a424e3d/SymmToken.sol\":4023:4027  bool */\n  0x00\n    /* \"mainnet/0xba100000625a3754423978a60c9317c58a424e3d/SymmToken.sol\":4070:4071  0 */\n  dup1\n    /* \"mainnet/0xba100000625a3754423978a60c9317c58a424e3d/SymmToken.sol\":4047:4050  set */\n  dup4\n    /* \"mainnet/0xba100000625a3754423978a60c9317c58a424e3d/SymmToken.sol\":4047:4059  set._indexes */\n  0x01\n  add\n    /* \"mainnet/0xba100000625a3754423978a60c9317c58a424e3d/SymmToken.sol\":4047:4066  set._indexes[value] */\n  0x00\n    /* \"mainnet/0xba100000625a3754423978a60c9317c58a424e3d/SymmToken.sol\":4060:4065  value */\n  dup5\n    /* \"mainnet/0xba100000625a3754423978a60c9317c58a424e3d/SymmToken.sol\":4047:4066  set._indexes[value] */\n  dup2\n  mstore\n  0x20\n  add\n  swap1\n  dup2\n  mstore\n  0x20\n  add\n  0x00\n  keccak256\n  sload\n    /* \"mainnet/0xba100000625a3754423978a60c9317c58a424e3d/SymmToken.sol\":4047:4071  set._indexes[value] != 0 */\n  eq\n  iszero\n    /* \"mainnet/0xba100000625a3754423978a60c9317c58a424e3d/SymmToken.sol\":4040:4071  return set._indexes[value] != 0 */\n  swap1\n  pop\n    /* \"mainnet/0xba100000625a3754423978a60c9317c58a424e3d/SymmToken.sol\":3950:4079  function _contains(Set storage set, bytes32 value) private view returns (bool) {\r... */\n  swap3\n  swap2\n  pop\n  pop\n  jump\t// out\n    /* \"mainnet/0xba100000625a3754423978a60c9317c58a424e3d/SymmToken.sol\":50553:54766  contract SymmToken is AccessControl, ERC20Snapshot {\r... */\ntag_23:\n  dup3\n  dup1\n  sload\n  0x01\n  dup2\n  0x01\n  and\n  iszero\n  0x0100\n  mul\n  sub\n  and\n  0x02\n  swap1\n  div\n  swap1\n  0x00\n  mstore\n  keccak256(0x00, 0x20)\n  swap1\n  0x1f\n  add\n  0x20\n  swap1\n  div\n  dup2\n  add\n  swap3\n  dup3\n  0x1f\n  lt\n  tag_58\n  jumpi\n  dup1\n  mload\n  not(0xff)\n  and\n  dup4\n  dup1\n  add\n  or\n  dup6\n  sstore\n  jump(tag_57)\ntag_58:\n  dup3\n  dup1\n  add\n  0x01\n  add\n  dup6\n  sstore\n  dup3\n  iszero\n  tag_57\n  jumpi\n  swap2\n  dup3\n  add\ntag_59:\n  dup3\n  dup2\n  gt\n  iszero\n  tag_60\n  jumpi\n  dup3\n  mload\n  dup3\n  sstore\n  swap2\n  0x20\n  add\n  swap2\n  swap1\n  0x01\n  add\n  swap1\n  jump(tag_59)\ntag_60:\ntag_57:\n  pop\n  swap1\n  pop\n  tag_61\n  swap2\n  swap1\n  tag_62\n  jump\t// in\ntag_61:\n  pop\n  swap1\n  jump\t// out\ntag_62:\ntag_63:\n  dup1\n  dup3\n  gt\n  iszero\n  tag_64\n  jumpi\n  0x00\n  dup2\n  0x00\n  swap1\n  sstore\n  pop\n  0x01\n  add\n  jump(tag_63)\ntag_64:\n  pop\n  swap1\n  jump\t// out\ntag_36:\n  mload(0x80)\n  mload(0xa0)\n  codecopy(0x00, dataOffset(sub_0), dataSize(sub_0))\n  assignImmutable(\"0x667a84acaf245040ec9efc3710c3f6af76fb40f6fe2dcbec23ceb823be93d270\")\n  assignImmutable(\"0x8d7b82dfbbe5408bd9a69a62646560468f7c7f2dca6810985bf39c40f0bae974\")\n  return(0x00, dataSize(sub_0))\nstop\n\nsub_0: assembly {\n        /* \"mainnet/0xba100000625a3754423978a60c9317c58a424e3d/SymmToken.sol\":50553:54766  contract SymmToken is AccessControl, ERC20Snapshot {\r... */\n      mstore(0x40, 0x80)\n      callvalue\n      dup1\n      iszero\n      tag_1\n      jumpi\n      0x00\n      dup1\n      revert\n    tag_1:\n      pop\n      jumpi(tag_2, lt(calldatasize, 0x04))\n      shr(0xe0, calldataload(0x00))\n      dup1\n      0x70a08231\n      gt\n      tag_35\n      jumpi\n      dup1\n      0xa217fddf\n      gt\n      tag_36\n      jumpi\n      dup1\n      0xd505accf\n      gt\n      tag_37\n      jumpi\n      dup1\n      0xd505accf\n      eq\n      tag_31\n      jumpi\n      dup1\n      0xd5391393\n      eq\n      tag_32\n      jumpi\n      dup1\n      0xd547741f\n      eq\n      tag_33\n      jumpi\n      dup1\n      0xdd62ed3e\n      eq\n      tag_34\n      jumpi\n      jump(tag_2)\n    tag_37:\n      dup1\n      0xa217fddf\n      eq\n      tag_27\n      jumpi\n      dup1\n      0xa457c2d7\n      eq\n      tag_28\n      jumpi\n      dup1\n      0xa9059cbb\n      eq\n      tag_29\n      jumpi\n      dup1\n      0xca15c873\n      eq\n      tag_30\n      jumpi\n      jump(tag_2)\n    tag_36:\n      dup1\n      0x91d14854\n      gt\n      tag_38\n      jumpi\n      dup1\n      0x91d14854\n      eq\n      tag_23\n      jumpi\n      dup1\n      0x95d89b41\n      eq\n      tag_24\n      jumpi\n      dup1\n      0x9711715a\n      eq\n      tag_25\n      jumpi\n      dup1\n      0x981b24d0\n      eq\n      tag_26\n      jumpi\n      jump(tag_2)\n    tag_38:\n      dup1\n      0x70a08231\n      eq\n      tag_19\n      jumpi\n      dup1\n      0x79cc6790\n      eq\n      tag_20\n      jumpi\n      dup1\n      0x7ecebe00\n      eq\n      tag_21\n      jumpi\n      dup1\n      0x9010d07c\n      eq\n      tag_22\n      jumpi\n      jump(tag_2)\n    tag_35:\n      dup1\n      0x3644e515\n      gt\n      tag_39\n      jumpi\n      dup1\n      0x42966c68\n      gt\n      tag_40\n      jumpi\n      dup1\n      0x42966c68\n      eq\n      tag_15\n      jumpi\n      dup1\n      0x4ee2cd7e\n      eq\n      tag_16\n      jumpi\n      dup1\n      0x54fd4d50\n      eq\n      tag_17\n      jumpi\n      dup1\n      0x7028e2cd\n      eq\n      tag_18\n      jumpi\n      jump(tag_2)\n    tag_40:\n      dup1\n      0x3644e515\n      eq\n      tag_11\n      jumpi\n      dup1\n      0x36568abe\n      eq\n      tag_12\n      jumpi\n      dup1\n      0x39509351\n      eq\n      tag_13\n      jumpi\n      dup1\n      0x40c10f19\n      eq\n      tag_14\n      jumpi\n      jump(tag_2)\n    tag_39:\n      dup1\n      0x248a9ca3\n      gt\n      tag_41\n      jumpi\n      dup1\n      0x248a9ca3\n      eq\n      tag_7\n      jumpi\n      dup1\n      0x2f2ff15d\n      eq\n      tag_8\n      jumpi\n      dup1\n      0x30adf81f\n      eq\n      tag_9\n      jumpi\n      dup1\n      0x313ce567\n      eq\n      tag_10\n      jumpi\n      jump(tag_2)\n    tag_41:\n      dup1\n      0x06fdde03\n      eq\n      tag_3\n      jumpi\n      dup1\n      0x095ea7b3\n      eq\n      tag_4\n      jumpi\n      dup1\n      0x18160ddd\n      eq\n      tag_5\n      jumpi\n      dup1\n      0x23b872dd\n      eq\n      tag_6\n      jumpi\n    tag_2:\n      0x00\n      dup1\n      revert\n        /* \"mainnet/0xba100000625a3754423978a60c9317c58a424e3d/SymmToken.sol\":33309:33392  function name() public view returns (string memory) {\r... */\n    tag_3:\n      tag_42\n      tag_43\n      jump\t// in\n    tag_42:\n      mload(0x40)\n      dup1\n      dup1\n      0x20\n      add\n      dup3\n      dup2\n      sub\n      dup3\n      mstore\n      dup4\n      dup2\n      dup2\n      mload\n      dup2\n      mstore\n      0x20\n      add\n      swap2\n      pop\n      dup1\n      mload\n      swap1\n      0x20\n      add\n      swap1\n      dup1\n      dup4\n      dup4\n      0x00\n    tag_44:\n      dup4\n      dup2\n      lt\n      iszero\n      tag_46\n      jumpi\n      dup1\n      dup3\n      add\n      mload\n      dup2\n      dup5\n      add\n      mstore\n      0x20\n      dup2\n      add\n      swap1\n      pop\n      jump(tag_44)\n    tag_46:\n      pop\n      pop\n      pop\n      pop\n      swap1\n      pop\n      swap1\n      dup2\n      add\n      swap1\n      0x1f\n      and\n      dup1\n      iszero\n      tag_47\n      jumpi\n      dup1\n      dup3\n      sub\n      dup1\n      mload\n      0x01\n      dup4\n      0x20\n      sub\n      0x0100\n      exp\n      sub\n      not\n      and\n      dup2\n      mstore\n      0x20\n      add\n      swap2\n      pop\n    tag_47:\n      pop\n      swap3\n      pop\n      pop\n      pop\n      mload(0x40)\n      dup1\n      swap2\n      sub\n      swap1\n      return\n        /* \"mainnet/0xba100000625a3754423978a60c9317c58a424e3d/SymmToken.sol\":35415:35584  function approve(address spender, uint256 amount) public virtual override returns (bool) {\r... */\n    tag_4:\n      tag_48\n      0x04\n      dup1\n      calldatasize\n      sub\n      0x40\n      dup2\n      lt\n      iszero\n      tag_49\n      jumpi\n      0x00\n      dup1\n      revert\n    tag_49:\n      dup2\n      add\n      swap1\n      dup1\n      dup1\n      calldataload\n      0xffffffffffffffffffffffffffffffffffffffff\n      and\n      swap1\n      0x20\n      add\n      swap1\n      swap3\n      swap2\n      swap1\n      dup1\n      calldataload\n      swap1\n      0x20\n      add\n      swap1\n      swap3\n      swap2\n      swap1\n      pop\n      pop\n      pop\n      tag_50\n      jump\t// in\n    tag_48:\n      mload(0x40)\n      dup1\n      dup3\n      iszero\n      iszero\n      dup2\n      mstore\n      0x20\n      add\n      swap2\n      pop\n      pop\n      mload(0x40)\n      dup1\n      swap2\n      sub\n      swap1\n      return\n        /* \"mainnet/0xba100000625a3754423978a60c9317c58a424e3d/SymmToken.sol\":34384:34484  function totalSupply() public view override returns (uint256) {\r... */\n    tag_5:\n      tag_51\n      tag_52\n      jump\t// in\n    tag_51:\n      mload(0x40)\n      dup1\n      dup3\n      dup2\n      mstore\n      0x20\n      add\n      swap2\n      pop\n      pop\n      mload(0x40)\n      dup1\n      swap2\n      sub\n      swap1\n      return\n        /* \"mainnet/0xba100000625a3754423978a60c9317c58a424e3d/SymmToken.sol\":36058:36379  function transferFrom(address sender, address recipient, uint256 amount) public virtual override returns (bool) {\r... */\n    tag_6:\n      tag_53\n      0x04\n      dup1\n      calldatasize\n      sub\n      0x60\n      dup2\n      lt\n      iszero\n      tag_54\n      jumpi\n      0x00\n      dup1\n      revert\n    tag_54:\n      dup2\n      add\n      swap1\n      dup1\n      dup1\n      calldataload\n      0xffffffffffffffffffffffffffffffffffffffff\n      and\n      swap1\n      0x20\n      add\n      swap1\n      swap3\n      swap2\n      swap1\n      dup1\n      calldataload\n      0xffffffffffffffffffffffffffffffffffffffff\n      and\n      swap1\n      0x20\n      add\n      swap1\n      swap3\n      swap2\n      swap1\n      dup1\n      calldataload\n      swap1\n      0x20\n      add\n      swap1\n      swap3\n      swap2\n      swap1\n      pop\n      pop\n      pop\n      tag_55\n      jump\t// in\n    tag_53:\n      mload(0x40)\n      dup1\n      dup3\n      iszero\n      iszero\n      dup2\n      mstore\n      0x20\n      add\n      swap2\n      pop\n      pop\n      mload(0x40)\n      dup1\n      swap2\n      sub\n      swap1\n      return\n        /* \"mainnet/0xba100000625a3754423978a60c9317c58a424e3d/SymmToken.sol\":15890:16004  function getRoleAdmin(bytes32 role) public view returns (bytes32) {\r... */\n    tag_7:\n      tag_56\n      0x04\n      dup1\n      calldatasize\n      sub\n      0x20\n      dup2\n      lt\n      iszero\n      tag_57\n      jumpi\n      0x00\n      dup1\n      revert\n    tag_57:\n      dup2\n      add\n      swap1\n      dup1\n      dup1\n      calldataload\n      swap1\n      0x20\n      add\n      swap1\n      swap3\n      swap2\n      swap1\n      pop\n      pop\n      pop\n      tag_58\n      jump\t// in\n    tag_56:\n      mload(0x40)\n      dup1\n      dup3\n      dup2\n      mstore\n      0x20\n      add\n      swap2\n      pop\n      pop\n      mload(0x40)\n      dup1\n      swap2\n      sub\n      swap1\n      return\n        /* \"mainnet/0xba100000625a3754423978a60c9317c58a424e3d/SymmToken.sol\":16266:16493  function grantRole(bytes32 role, address account) public virtual {\r... */\n    tag_8:\n      tag_59\n      0x04\n      dup1\n      calldatasize\n      sub\n      0x40\n      dup2\n      lt\n      iszero\n      tag_60\n      jumpi\n      0x00\n      dup1\n      revert\n    tag_60:\n      dup2\n      add\n      swap1\n      dup1\n      dup1\n      calldataload\n      swap1\n      0x20\n      add\n      swap1\n      swap3\n      swap2\n      swap1\n      dup1\n      calldataload\n      0xffffffffffffffffffffffffffffffffffffffff\n      and\n      swap1\n      0x20\n      add\n      swap1\n      swap3\n      swap2\n      swap1\n      pop\n      pop\n      pop\n      tag_61\n      jump\t// in\n    tag_59:\n      stop\n        /* \"mainnet/0xba100000625a3754423978a60c9317c58a424e3d/SymmToken.sol\":50986:51095  bytes32 public immutable PERMIT_TYPEHASH = 0x6e71edae12b1b97f4d1f60370fef10105fa2faae0126114a169c64845d6126c9 */\n    tag_9:\n      tag_62\n      tag_63\n      jump\t// in\n    tag_62:\n      mload(0x40)\n      dup1\n      dup3\n      dup2\n      mstore\n      0x20\n      add\n      swap2\n      pop\n      pop\n      mload(0x40)\n      dup1\n      swap2\n      sub\n      swap1\n      return\n        /* \"mainnet/0xba100000625a3754423978a60c9317c58a424e3d/SymmToken.sol\":34236:34319  function decimals() public view returns (uint8) {\r... */\n    tag_10:\n      tag_64\n      tag_65\n      jump\t// in\n    tag_64:\n      mload(0x40)\n      dup1\n      dup3\n      0xff\n      and\n      dup2\n      mstore\n      0x20\n      add\n      swap2\n      pop\n      pop\n      mload(0x40)\n      dup1\n      swap2\n      sub\n      swap1\n      return\n        /* \"mainnet/0xba100000625a3754423978a60c9317c58a424e3d/SymmToken.sol\":50833:50874  bytes32 public immutable DOMAIN_SEPARATOR */\n    tag_11:\n      tag_66\n      tag_67\n      jump\t// in\n    tag_66:\n      mload(0x40)\n      dup1\n      dup3\n      dup2\n      mstore\n      0x20\n      add\n      swap2\n      pop\n      pop\n      mload(0x40)\n      dup1\n      swap2\n      sub\n      swap1\n      return\n        /* \"mainnet/0xba100000625a3754423978a60c9317c58a424e3d/SymmToken.sol\":17475:17684  function renounceRole(bytes32 role, address account) public virtual {\r... */\n    tag_12:\n      tag_68\n      0x04\n      dup1\n      calldatasize\n      sub\n      0x40\n      dup2\n      lt\n      iszero\n      tag_69\n      jumpi\n      0x00\n      dup1\n      revert\n    tag_69:\n      dup2\n      add\n      swap1\n      dup1\n      dup1\n      calldataload\n      swap1\n      0x20\n      add\n      swap1\n      swap3\n      swap2\n      swap1\n      dup1\n      calldataload\n      0xffffffffffffffffffffffffffffffffffffffff\n      and\n      swap1\n      0x20\n      add\n      swap1\n      swap3\n      swap2\n      swap1\n      pop\n      pop\n      pop\n      tag_70\n      jump\t// in\n    tag_68:\n      stop\n        /* \"mainnet/0xba100000625a3754423978a60c9317c58a424e3d/SymmToken.sol\":36788:37006  function increaseAllowance(address spender, uint256 addedValue) public virtual returns (bool) {\r... */\n    tag_13:\n      tag_71\n      0x04\n      dup1\n      calldatasize\n      sub\n      0x40\n      dup2\n      lt\n      iszero\n      tag_72\n      jumpi\n      0x00\n      dup1\n      revert\n    tag_72:\n      dup2\n      add\n      swap1\n      dup1\n      dup1\n      calldataload\n      0xffffffffffffffffffffffffffffffffffffffff\n      and\n      swap1\n      0x20\n      add\n      swap1\n      swap3\n      swap2\n      swap1\n      dup1\n      calldataload\n      swap1\n      0x20\n      add\n      swap1\n      swap3\n      swap2\n      swap1\n      pop\n      pop\n      pop\n      tag_73\n      jump\t// in\n    tag_71:\n      mload(0x40)\n      dup1\n      dup3\n      iszero\n      iszero\n      dup2\n      mstore\n      0x20\n      add\n      swap2\n      pop\n      pop\n      mload(0x40)\n      dup1\n      swap2\n      sub\n      swap1\n      return\n        /* \"mainnet/0xba100000625a3754423978a60c9317c58a424e3d/SymmToken.sol\":54043:54209  function mint(address to, uint256 amount) public virtual {\r... */\n    tag_14:\n      tag_74\n      0x04\n      dup1\n      calldatasize\n      sub\n      0x40\n      dup2\n      lt\n      iszero\n      tag_75\n      jumpi\n      0x00\n      dup1\n      revert\n    tag_75:\n      dup2\n      add\n      swap1\n      dup1\n      dup1\n      calldataload\n      0xffffffffffffffffffffffffffffffffffffffff\n      and\n      swap1\n      0x20\n      add\n      swap1\n      swap3\n      swap2\n      swap1\n      dup1\n      calldataload\n      swap1\n      0x20\n      add\n      swap1\n      swap3\n      swap2\n      swap1\n      pop\n      pop\n      pop\n      tag_76\n      jump\t// in\n    tag_74:\n      stop\n        /* \"mainnet/0xba100000625a3754423978a60c9317c58a424e3d/SymmToken.sol\":54217:54308  function burn(uint256 amount) public virtual {\r... */\n    tag_15:\n      tag_77\n      0x04\n      dup1\n      calldatasize\n      sub\n      0x20\n      dup2\n      lt\n      iszero\n      tag_78\n      jumpi\n      0x00\n      dup1\n      revert\n    tag_78:\n      dup2\n      add\n      swap1\n      dup1\n      dup1\n      calldataload\n      swap1\n      0x20\n      add\n      swap1\n      swap3\n      swap2\n      swap1\n      pop\n      pop\n      pop\n      tag_79\n      jump\t// in\n    tag_77:\n      stop\n        /* \"mainnet/0xba100000625a3754423978a60c9317c58a424e3d/SymmToken.sol\":46411:46669  function balanceOfAt(address account, uint256 snapshotId) public view returns (uint256) {\r... */\n    tag_16:\n      tag_80\n      0x04\n      dup1\n      calldatasize\n      sub\n      0x40\n      dup2\n      lt\n      iszero\n      tag_81\n      jumpi\n      0x00\n      dup1\n      revert\n    tag_81:\n      dup2\n      add\n      swap1\n      dup1\n      dup1\n      calldataload\n      0xffffffffffffffffffffffffffffffffffffffff\n      and\n      swap1\n      0x20\n      add\n      swap1\n      swap3\n      swap2\n      swap1\n      dup1\n      calldataload\n      swap1\n      0x20\n      add\n      swap1\n      swap3\n      swap2\n      swap1\n      pop\n      pop\n      pop\n      tag_82\n      jump\t// in\n    tag_80:\n      mload(0x40)\n      dup1\n      dup3\n      dup2\n      mstore\n      0x20\n      add\n      swap2\n      pop\n      pop\n      mload(0x40)\n      dup1\n      swap2\n      sub\n      swap1\n      return\n        /* \"mainnet/0xba100000625a3754423978a60c9317c58a424e3d/SymmToken.sol\":50644:50682  string  public constant version  = \"1\" */\n    tag_17:\n      tag_83\n      tag_84\n      jump\t// in\n    tag_83:\n      mload(0x40)\n      dup1\n      dup1\n      0x20\n      add\n      dup3\n      dup2\n      sub\n      dup3\n      mstore\n      dup4\n      dup2\n      dup2\n      mload\n      dup2\n      mstore\n      0x20\n      add\n      swap2\n      pop\n      dup1\n      mload\n      swap1\n      0x20\n      add\n      swap1\n      dup1\n      dup4\n      dup4\n      0x00\n    tag_85:\n      dup4\n      dup2\n      lt\n      iszero\n      tag_87\n      jumpi\n      dup1\n      dup3\n      add\n      mload\n      dup2\n      dup5\n      add\n      mstore\n      0x20\n      dup2\n      add\n      swap1\n      pop\n      jump(tag_85)\n    tag_87:\n      pop\n      pop\n      pop\n      pop\n      swap1\n      pop\n      swap1\n      dup2\n      add\n      swap1\n      0x1f\n      and\n      dup1\n      iszero\n      tag_88\n      jumpi\n      dup1\n      dup3\n      sub\n      dup1\n      mload\n      0x01\n      dup4\n      0x20\n      sub\n      0x0100\n      exp\n      sub\n      not\n      and\n      dup2\n      mstore\n      0x20\n      add\n      swap2\n      pop\n    tag_88:\n      pop\n      swap3\n      pop\n      pop\n      pop\n      mload(0x40)\n      dup1\n      swap2\n      sub\n      swap1\n      return\n        /* \"mainnet/0xba100000625a3754423978a60c9317c58a424e3d/SymmToken.sol\":50758:50824  bytes32 public constant SNAPSHOT_ROLE = keccak256(\"SNAPSHOT_ROLE\") */\n    tag_18:\n      tag_89\n      tag_90\n      jump\t// in\n    tag_89:\n      mload(0x40)\n      dup1\n      dup3\n      dup2\n      mstore\n      0x20\n      add\n      swap2\n      pop\n      pop\n      mload(0x40)\n      dup1\n      swap2\n      sub\n      swap1\n      return\n        /* \"mainnet/0xba100000625a3754423978a60c9317c58a424e3d/SymmToken.sol\":34547:34666  function balanceOf(address account) public view override returns (uint256) {\r... */\n    tag_19:\n      tag_91\n      0x04\n      dup1\n      calldatasize\n      sub\n      0x20\n      dup2\n      lt\n      iszero\n      tag_92\n      jumpi\n      0x00\n      dup1\n      revert\n    tag_92:\n      dup2\n      add\n      swap1\n      dup1\n      dup1\n      calldataload\n      0xffffffffffffffffffffffffffffffffffffffff\n      and\n      swap1\n      0x20\n      add\n      swap1\n      swap3\n      swap2\n      swap1\n      pop\n      pop\n      pop\n      tag_93\n      jump\t// in\n    tag_91:\n      mload(0x40)\n      dup1\n      dup3\n      dup2\n      mstore\n      0x20\n      add\n      swap2\n      pop\n      pop\n      mload(0x40)\n      dup1\n      swap2\n      sub\n      swap1\n      return\n        /* \"mainnet/0xba100000625a3754423978a60c9317c58a424e3d/SymmToken.sol\":54316:54611  function burnFrom(address account, uint256 amount) public virtual {\r... */\n    tag_20:\n      tag_94\n      0x04\n      dup1\n      calldatasize\n      sub\n      0x40\n      dup2\n      lt\n      iszero\n      tag_95\n      jumpi\n      0x00\n      dup1\n      revert\n    tag_95:\n      dup2\n      add\n      swap1\n      dup1\n      dup1\n      calldataload\n      0xffffffffffffffffffffffffffffffffffffffff\n      and\n      swap1\n      0x20\n      add\n      swap1\n      swap3\n      swap2\n      swap1\n      dup1\n      calldataload\n      swap1\n      0x20\n      add\n      swap1\n      swap3\n      swap2\n      swap1\n      pop\n      pop\n      pop\n      tag_96\n      jump\t// in\n    tag_94:\n      stop\n        /* \"mainnet/0xba100000625a3754423978a60c9317c58a424e3d/SymmToken.sol\":51102:51140  mapping(address => uint) public nonces */\n    tag_21:\n      tag_97\n      0x04\n      dup1\n      calldatasize\n      sub\n      0x20\n      dup2\n      lt\n      iszero\n      tag_98\n      jumpi\n      0x00\n      dup1\n      revert\n    tag_98:\n      dup2\n      add\n      swap1\n      dup1\n      dup1\n      calldataload\n      0xffffffffffffffffffffffffffffffffffffffff\n      and\n      swap1\n      0x20\n      add\n      swap1\n      swap3\n      swap2\n      swap1\n      pop\n      pop\n      pop\n      tag_99\n      jump\t// in\n    tag_97:\n      mload(0x40)\n      dup1\n      dup3\n      dup2\n      mstore\n      0x20\n      add\n      swap2\n      pop\n      pop\n      mload(0x40)\n      dup1\n      swap2\n      sub\n      swap1\n      return\n        /* \"mainnet/0xba100000625a3754423978a60c9317c58a424e3d/SymmToken.sol\":15563:15701  function getRoleMember(bytes32 role, uint256 index) public view returns (address) {\r... */\n    tag_22:\n      tag_100\n      0x04\n      dup1\n      calldatasize\n      sub\n      0x40\n      dup2\n      lt\n      iszero\n      tag_101\n      jumpi\n      0x00\n      dup1\n      revert\n    tag_101:\n      dup2\n      add\n      swap1\n      dup1\n      dup1\n      calldataload\n      swap1\n      0x20\n      add\n      swap1\n      swap3\n      swap2\n      swap1\n      dup1\n      calldataload\n      swap1\n      0x20\n      add\n      swap1\n      swap3\n      swap2\n      swap1\n      pop\n      pop\n      pop\n      tag_102\n      jump\t// in\n    tag_100:\n      mload(0x40)\n      dup1\n      dup3\n      0xffffffffffffffffffffffffffffffffffffffff\n      and\n      dup2\n      mstore\n      0x20\n      add\n      swap2\n      pop\n      pop\n      mload(0x40)\n      dup1\n      swap2\n      sub\n      swap1\n      return\n        /* \"mainnet/0xba100000625a3754423978a60c9317c58a424e3d/SymmToken.sol\":14524:14663  function hasRole(bytes32 role, address account) public view returns (bool) {\r... */\n    tag_23:\n      tag_103\n      0x04\n      dup1\n      calldatasize\n      sub\n      0x40\n      dup2\n      lt\n      iszero\n      tag_104\n      jumpi\n      0x00\n      dup1\n      revert\n    tag_104:\n      dup2\n      add\n      swap1\n      dup1\n      dup1\n      calldataload\n      swap1\n      0x20\n      add\n      swap1\n      swap3\n      swap2\n      swap1\n      dup1\n      calldataload\n      0xffffffffffffffffffffffffffffffffffffffff\n      and\n      swap1\n      0x20\n      add\n      swap1\n      swap3\n      swap2\n      swap1\n      pop\n      pop\n      pop\n      tag_105\n      jump\t// in\n    tag_103:\n      mload(0x40)\n      dup1\n      dup3\n      iszero\n      iszero\n      dup2\n      mstore\n      0x20\n      add\n      swap2\n      pop\n      pop\n      mload(0x40)\n      dup1\n      swap2\n      sub\n      swap1\n      return\n        /* \"mainnet/0xba100000625a3754423978a60c9317c58a424e3d/SymmToken.sol\":33511:33598  function symbol() public view returns (string memory) {\r... */\n    tag_24:\n      tag_106\n      tag_107\n      jump\t// in\n    tag_106:\n      mload(0x40)\n      dup1\n      dup1\n      0x20\n      add\n      dup3\n      dup2\n      sub\n      dup3\n      mstore\n      dup4\n      dup2\n      dup2\n      mload\n      dup2\n      mstore\n      0x20\n      add\n      swap2\n      pop\n      dup1\n      mload\n      swap1\n      0x20\n      add\n      swap1\n      dup1\n      dup4\n      dup4\n      0x00\n    tag_108:\n      dup4\n      dup2\n      lt\n      iszero\n      tag_110\n      jumpi\n      dup1\n      dup3\n      add\n      mload\n      dup2\n      dup5\n      add\n      mstore\n      0x20\n      dup2\n      add\n      swap1\n      pop\n      jump(tag_108)\n    tag_110:\n      pop\n      pop\n      pop\n      pop\n      swap1\n      pop\n      swap1\n      dup2\n      add\n      swap1\n      0x1f\n      and\n      dup1\n      iszero\n      tag_111\n      jumpi\n      dup1\n      dup3\n      sub\n      dup1\n      mload\n      0x01\n      dup4\n      0x20\n      sub\n      0x0100\n      exp\n      sub\n      not\n      and\n      dup2\n      mstore\n      0x20\n      add\n      swap2\n      pop\n    tag_111:\n      pop\n      swap3\n      pop\n      pop\n      pop\n      mload(0x40)\n      dup1\n      swap2\n      sub\n      swap1\n      return\n        /* \"mainnet/0xba100000625a3754423978a60c9317c58a424e3d/SymmToken.sol\":54619:54761  function snapshot() public virtual {\r... */\n    tag_25:\n      tag_112\n      tag_113\n      jump\t// in\n    tag_112:\n      stop\n        /* \"mainnet/0xba100000625a3754423978a60c9317c58a424e3d/SymmToken.sol\":46773:46998  function totalSupplyAt(uint256 snapshotId) public view returns(uint256) {\r... */\n    tag_26:\n      tag_114\n      0x04\n      dup1\n      calldatasize\n      sub\n      0x20\n      dup2\n      lt\n      iszero\n      tag_115\n      jumpi\n      0x00\n      dup1\n      revert\n    tag_115:\n      dup2\n      add\n      swap1\n      dup1\n      dup1\n      calldataload\n      swap1\n      0x20\n      add\n      swap1\n      swap3\n      swap2\n      swap1\n      pop\n      pop\n      pop\n      tag_116\n      jump\t// in\n    tag_114:\n      mload(0x40)\n      dup1\n      dup3\n      dup2\n      mstore\n      0x20\n      add\n      swap2\n      pop\n      pop\n      mload(0x40)\n      dup1\n      swap2\n      sub\n      swap1\n      return\n        /* \"mainnet/0xba100000625a3754423978a60c9317c58a424e3d/SymmToken.sol\":13692:13741  bytes32 public constant DEFAULT_ADMIN_ROLE = 0x00 */\n    tag_27:\n      tag_117\n      tag_118\n      jump\t// in\n    tag_117:\n      mload(0x40)\n      dup1\n      dup3\n      dup2\n      mstore\n      0x20\n      add\n      swap2\n      pop\n      pop\n      mload(0x40)\n      dup1\n      swap2\n      sub\n      swap1\n      return\n        /* \"mainnet/0xba100000625a3754423978a60c9317c58a424e3d/SymmToken.sol\":37509:37778  function decreaseAllowance(address spender, uint256 subtractedValue) public virtual returns (bool) {\r... */\n    tag_28:\n      tag_119\n      0x04\n      dup1\n      calldatasize\n      sub\n      0x40\n      dup2\n      lt\n      iszero\n      tag_120\n      jumpi\n      0x00\n      dup1\n      revert\n    tag_120:\n      dup2\n      add\n      swap1\n      dup1\n      dup1\n      calldataload\n      0xffffffffffffffffffffffffffffffffffffffff\n      and\n      swap1\n      0x20\n      add\n      swap1\n      swap3\n      swap2\n      swap1\n      dup1\n      calldataload\n      swap1\n      0x20\n      add\n      swap1\n      swap3\n      swap2\n      swap1\n      pop\n      pop\n      pop\n      tag_121\n      jump\t// in\n    tag_119:\n      mload(0x40)\n      dup1\n      dup3\n      iszero\n      iszero\n      dup2\n      mstore\n      0x20\n      add\n      swap2\n      pop\n      pop\n      mload(0x40)\n      dup1\n      swap2\n      sub\n      swap1\n      return\n        /* \"mainnet/0xba100000625a3754423978a60c9317c58a424e3d/SymmToken.sol\":34879:35054  function transfer(address recipient, uint256 amount) public virtual override returns (bool) {\r... */\n    tag_29:\n      tag_122\n      0x04\n      dup1\n      calldatasize\n      sub\n      0x40\n      dup2\n      lt\n      iszero\n      tag_123\n      jumpi\n      0x00\n      dup1\n      revert\n    tag_123:\n      dup2\n      add\n      swap1\n      dup1\n      dup1\n      calldataload\n      0xffffffffffffffffffffffffffffffffffffffff\n      and\n      swap1\n      0x20\n      add\n      swap1\n      swap3\n      swap2\n      swap1\n      dup1\n      calldataload\n      swap1\n      0x20\n      add\n      swap1\n      swap3\n      swap2\n      swap1\n      pop\n      pop\n      pop\n      tag_124\n      jump\t// in\n    tag_122:\n      mload(0x40)\n      dup1\n      dup3\n      iszero\n      iszero\n      dup2\n      mstore\n      0x20\n      add\n      swap2\n      pop\n      pop\n      mload(0x40)\n      dup1\n      swap2\n      sub\n      swap1\n      return\n        /* \"mainnet/0xba100000625a3754423978a60c9317c58a424e3d/SymmToken.sol\":14837:14964  function getRoleMemberCount(bytes32 role) public view returns (uint256) {\r... */\n    tag_30:\n      tag_125\n      0x04\n      dup1\n      calldatasize\n      sub\n      0x20\n      dup2\n      lt\n      iszero\n      tag_126\n      jumpi\n      0x00\n      dup1\n      revert\n    tag_126:\n      dup2\n      add\n      swap1\n      dup1\n      dup1\n      calldataload\n      swap1\n      0x20\n      add\n      swap1\n      swap3\n      swap2\n      swap1\n      pop\n      pop\n      pop\n      tag_127\n      jump\t// in\n    tag_125:\n      mload(0x40)\n      dup1\n      dup3\n      dup2\n      mstore\n      0x20\n      add\n      swap2\n      pop\n      pop\n      mload(0x40)\n      dup1\n      swap2\n      sub\n      swap1\n      return\n        /* \"mainnet/0xba100000625a3754423978a60c9317c58a424e3d/SymmToken.sol\":51963:52536  function permit(address owner, address spender, uint value, uint deadline, uint8 v, bytes32 r, bytes32 s) external {\r... */\n    tag_31:\n      tag_128\n      0x04\n      dup1\n      calldatasize\n      sub\n      0xe0\n      dup2\n      lt\n      iszero\n      tag_129\n      jumpi\n      0x00\n      dup1\n      revert\n    tag_129:\n      dup2\n      add\n      swap1\n      dup1\n      dup1\n      calldataload\n      0xffffffffffffffffffffffffffffffffffffffff\n      and\n      swap1\n      0x20\n      add\n      swap1\n      swap3\n      swap2\n      swap1\n      dup1\n      calldataload\n      0xffffffffffffffffffffffffffffffffffffffff\n      and\n      swap1\n      0x20\n      add\n      swap1\n      swap3\n      swap2\n      swap1\n      dup1\n      calldataload\n      swap1\n      0x20\n      add\n      swap1\n      swap3\n      swap2\n      swap1\n      dup1\n      calldataload\n      swap1\n      0x20\n      add\n      swap1\n      swap3\n      swap2\n      swap1\n      dup1\n      calldataload\n      0xff\n      and\n      swap1\n      0x20\n      add\n      swap1\n      swap3\n      swap2\n      swap1\n      dup1\n      calldataload\n      swap1\n      0x20\n      add\n      swap1\n      swap3\n      swap2\n      swap1\n      dup1\n      calldataload\n      swap1\n      0x20\n      add\n      swap1\n      swap3\n      swap2\n      swap1\n      pop\n      pop\n      pop\n      tag_130\n      jump\t// in\n    tag_128:\n      stop\n        /* \"mainnet/0xba100000625a3754423978a60c9317c58a424e3d/SymmToken.sol\":50689:50751  bytes32 public constant MINTER_ROLE = keccak256(\"MINTER_ROLE\") */\n    tag_32:\n      tag_131\n      tag_132\n      jump\t// in\n    tag_131:\n      mload(0x40)\n      dup1\n      dup3\n      dup2\n      mstore\n      0x20\n      add\n      swap2\n      pop\n      pop\n      mload(0x40)\n      dup1\n      swap2\n      sub\n      swap1\n      return\n        /* \"mainnet/0xba100000625a3754423978a60c9317c58a424e3d/SymmToken.sol\":16738:16968  function revokeRole(bytes32 role, address account) public virtual {\r... */\n    tag_33:\n      tag_133\n      0x04\n      dup1\n      calldatasize\n      sub\n      0x40\n      dup2\n      lt\n      iszero\n      tag_134\n      jumpi\n      0x00\n      dup1\n      revert\n    tag_134:\n      dup2\n      add\n      swap1\n      dup1\n      dup1\n      calldataload\n      swap1\n      0x20\n      add\n      swap1\n      swap3\n      swap2\n      swap1\n      dup1\n      calldataload\n      0xffffffffffffffffffffffffffffffffffffffff\n      and\n      swap1\n      0x20\n      add\n      swap1\n      swap3\n      swap2\n      swap1\n      pop\n      pop\n      pop\n      tag_135\n      jump\t// in\n    tag_133:\n      stop\n        /* \"mainnet/0xba100000625a3754423978a60c9317c58a424e3d/SymmToken.sol\":35117:35268  function allowance(address owner, address spender) public view virtual override returns (uint256) {\r... */\n    tag_34:\n      tag_136\n      0x04\n      dup1\n      calldatasize\n      sub\n      0x40\n      dup2\n      lt\n      iszero\n      tag_137\n      jumpi\n      0x00\n      dup1\n      revert\n    tag_137:\n      dup2\n      add\n      swap1\n      dup1\n      dup1\n      calldataload\n      0xffffffffffffffffffffffffffffffffffffffff\n      and\n      swap1\n      0x20\n      add\n      swap1\n      swap3\n      swap2\n      swap1\n      dup1\n      calldataload\n      0xffffffffffffffffffffffffffffffffffffffff\n      and\n      swap1\n      0x20\n      add\n      swap1\n      swap3\n      swap2\n      swap1\n      pop\n      pop\n      pop\n      tag_138\n      jump\t// in\n    tag_136:\n      mload(0x40)\n      dup1\n      dup3\n      dup2\n      mstore\n      0x20\n      add\n      swap2\n      pop\n      pop\n      mload(0x40)\n      dup1\n      swap2\n      sub\n      swap1\n      return\n        /* \"mainnet/0xba100000625a3754423978a60c9317c58a424e3d/SymmToken.sol\":33309:33392  function name() public view returns (string memory) {\r... */\n    tag_43:\n        /* \"mainnet/0xba100000625a3754423978a60c9317c58a424e3d/SymmToken.sol\":33346:33359  string memory */\n      0x60\n        /* \"mainnet/0xba100000625a3754423978a60c9317c58a424e3d/SymmToken.sol\":33379:33384  _name */\n      0x04\n        /* \"mainnet/0xba100000625a3754423978a60c9317c58a424e3d/SymmToken.sol\":33372:33384  return _name */\n      dup1\n      sload\n      0x01\n      dup2\n      0x01\n      and\n      iszero\n      0x0100\n      mul\n      sub\n      and\n      0x02\n      swap1\n      div\n      dup1\n      0x1f\n      add\n      0x20\n      dup1\n      swap2\n      div\n      mul\n      0x20\n      add\n      mload(0x40)\n      swap1\n      dup2\n      add\n      0x40\n      mstore\n      dup1\n      swap3\n      swap2\n      swap1\n      dup2\n      dup2\n      mstore\n      0x20\n      add\n      dup3\n      dup1\n      sload\n      0x01\n      dup2\n      0x01\n      and\n      iszero\n      0x0100\n      mul\n      sub\n      and\n      0x02\n      swap1\n      div\n      dup1\n      iszero\n      tag_141\n      jumpi\n      dup1\n      0x1f\n      lt\n      tag_142\n      jumpi\n      0x0100\n      dup1\n      dup4\n      sload\n      div\n      mul\n      dup4\n      mstore\n      swap2\n      0x20\n      add\n      swap2\n      jump(tag_141)\n    tag_142:\n      dup3\n      add\n      swap2\n      swap1\n      0x00\n      mstore\n      keccak256(0x00, 0x20)\n      swap1\n    tag_143:\n      dup2\n      sload\n      dup2\n      mstore\n      swap1\n      0x01\n      add\n      swap1\n      0x20\n      add\n      dup1\n      dup4\n      gt\n      tag_143\n      jumpi\n      dup3\n      swap1\n      sub\n      0x1f\n      and\n      dup3\n      add\n      swap2\n    tag_141:\n      pop\n      pop\n      pop\n      pop\n      pop\n      swap1\n      pop\n        /* \"mainnet/0xba100000625a3754423978a60c9317c58a424e3d/SymmToken.sol\":33309:33392  function name() public view returns (string memory) {\r... */\n      swap1\n      jump\t// out\n        /* \"mainnet/0xba100000625a3754423978a60c9317c58a424e3d/SymmToken.sol\":35415:35584  function approve(address spender, uint256 amount) public virtual override returns (bool) {\r... */\n    tag_50:\n        /* \"mainnet/0xba100000625a3754423978a60c9317c58a424e3d/SymmToken.sol\":35498:35502  bool */\n      0x00\n        /* \"mainnet/0xba100000625a3754423978a60c9317c58a424e3d/SymmToken.sol\":35515:35554  _approve(_msgSender(), spender, amount) */\n      tag_145\n        /* \"mainnet/0xba100000625a3754423978a60c9317c58a424e3d/SymmToken.sol\":35524:35536  _msgSender() */\n      tag_146\n        /* \"mainnet/0xba100000625a3754423978a60c9317c58a424e3d/SymmToken.sol\":35524:35534  _msgSender */\n      tag_147\n        /* \"mainnet/0xba100000625a3754423978a60c9317c58a424e3d/SymmToken.sol\":35524:35536  _msgSender() */\n      jump\t// in\n    tag_146:\n        /* \"mainnet/0xba100000625a3754423978a60c9317c58a424e3d/SymmToken.sol\":35538:35545  spender */\n      dup5\n        /* \"mainnet/0xba100000625a3754423978a60c9317c58a424e3d/SymmToken.sol\":35547:35553  amount */\n      dup5\n        /* \"mainnet/0xba100000625a3754423978a60c9317c58a424e3d/SymmToken.sol\":35515:35523  _approve */\n      tag_148\n        /* \"mainnet/0xba100000625a3754423978a60c9317c58a424e3d/SymmToken.sol\":35515:35554  _approve(_msgSender(), spender, amount) */\n      jump\t// in\n    tag_145:\n        /* \"mainnet/0xba100000625a3754423978a60c9317c58a424e3d/SymmToken.sol\":35572:35576  true */\n      0x01\n        /* \"mainnet/0xba100000625a3754423978a60c9317c58a424e3d/SymmToken.sol\":35565:35576  return true */\n      swap1\n      pop\n        /* \"mainnet/0xba100000625a3754423978a60c9317c58a424e3d/SymmToken.sol\":35415:35584  function approve(address spender, uint256 amount) public virtual override returns (bool) {\r... */\n      swap3\n      swap2\n      pop\n      pop\n      jump\t// out\n        /* \"mainnet/0xba100000625a3754423978a60c9317c58a424e3d/SymmToken.sol\":34384:34484  function totalSupply() public view override returns (uint256) {\r... */\n    tag_52:\n        /* \"mainnet/0xba100000625a3754423978a60c9317c58a424e3d/SymmToken.sol\":34437:34444  uint256 */\n      0x00\n        /* \"mainnet/0xba100000625a3754423978a60c9317c58a424e3d/SymmToken.sol\":34464:34476  _totalSupply */\n      sload(0x03)\n        /* \"mainnet/0xba100000625a3754423978a60c9317c58a424e3d/SymmToken.sol\":34457:34476  return _totalSupply */\n      swap1\n      pop\n        /* \"mainnet/0xba100000625a3754423978a60c9317c58a424e3d/SymmToken.sol\":34384:34484  function totalSupply() public view override returns (uint256) {\r... */\n      swap1\n      jump\t// out\n        /* \"mainnet/0xba100000625a3754423978a60c9317c58a424e3d/SymmToken.sol\":36058:36379  function transferFrom(address sender, address recipient, uint256 amount) public virtual override returns (bool) {\r... */\n    tag_55:\n        /* \"mainnet/0xba100000625a3754423978a60c9317c58a424e3d/SymmToken.sol\":36164:36168  bool */\n      0x00\n        /* \"mainnet/0xba100000625a3754423978a60c9317c58a424e3d/SymmToken.sol\":36181:36217  _transfer(sender, recipient, amount) */\n      tag_151\n        /* \"mainnet/0xba100000625a3754423978a60c9317c58a424e3d/SymmToken.sol\":36191:36197  sender */\n      dup5\n        /* \"mainnet/0xba100000625a3754423978a60c9317c58a424e3d/SymmToken.sol\":36199:36208  recipient */\n      dup5\n        /* \"mainnet/0xba100000625a3754423978a60c9317c58a424e3d/SymmToken.sol\":36210:36216  amount */\n      dup5\n        /* \"mainnet/0xba100000625a3754423978a60c9317c58a424e3d/SymmToken.sol\":36181:36190  _transfer */\n      tag_152\n        /* \"mainnet/0xba100000625a3754423978a60c9317c58a424e3d/SymmToken.sol\":36181:36217  _transfer(sender, recipient, amount) */\n      jump\t// in\n    tag_151:\n        /* \"mainnet/0xba100000625a3754423978a60c9317c58a424e3d/SymmToken.sol\":36228:36349  _approve(sender, _msgSender(), _allowances[sender][_msgSender()].sub(amount, \"ERC20: transfer amount exceeds allowance\")) */\n      tag_153\n        /* \"mainnet/0xba100000625a3754423978a60c9317c58a424e3d/SymmToken.sol\":36237:36243  sender */\n      dup5\n        /* \"mainnet/0xba100000625a3754423978a60c9317c58a424e3d/SymmToken.sol\":36245:36257  _msgSender() */\n      tag_154\n        /* \"mainnet/0xba100000625a3754423978a60c9317c58a424e3d/SymmToken.sol\":36245:36255  _msgSender */\n      tag_147\n        /* \"mainnet/0xba100000625a3754423978a60c9317c58a424e3d/SymmToken.sol\":36245:36257  _msgSender() */\n      jump\t// in\n    tag_154:\n        /* \"mainnet/0xba100000625a3754423978a60c9317c58a424e3d/SymmToken.sol\":36259:36348  _allowances[sender][_msgSender()].sub(amount, \"ERC20: transfer amount exceeds allowance\") */\n      tag_155\n        /* \"mainnet/0xba100000625a3754423978a60c9317c58a424e3d/SymmToken.sol\":36297:36303  amount */\n      dup6\n        /* \"mainnet/0xba100000625a3754423978a60c9317c58a424e3d/SymmToken.sol\":36259:36348  _allowances[sender][_msgSender()].sub(amount, \"ERC20: transfer amount exceeds allowance\") */\n      mload(0x40)\n      dup1\n      0x60\n      add\n      0x40\n      mstore\n      dup1\n      0x28\n      dup2\n      mstore\n      0x20\n      add\n      data_974d1b4421da69cc60b481194f0dad36a5bb4e23da810da7a7fb30cdba178330\n      0x28\n      swap2\n      codecopy\n        /* \"mainnet/0xba100000625a3754423978a60c9317c58a424e3d/SymmToken.sol\":36259:36270  _allowances */\n      0x02\n        /* \"mainnet/0xba100000625a3754423978a60c9317c58a424e3d/SymmToken.sol\":36259:36278  _allowances[sender] */\n      0x00\n        /* \"mainnet/0xba100000625a3754423978a60c9317c58a424e3d/SymmToken.sol\":36271:36277  sender */\n      dup12\n        /* \"mainnet/0xba100000625a3754423978a60c9317c58a424e3d/SymmToken.sol\":36259:36278  _allowances[sender] */\n      0xffffffffffffffffffffffffffffffffffffffff\n      and\n      0xffffffffffffffffffffffffffffffffffffffff\n      and\n      dup2\n      mstore\n      0x20\n      add\n      swap1\n      dup2\n      mstore\n      0x20\n      add\n      0x00\n      keccak256\n        /* \"mainnet/0xba100000625a3754423978a60c9317c58a424e3d/SymmToken.sol\":36259:36292  _allowances[sender][_msgSender()] */\n      0x00\n        /* \"mainnet/0xba100000625a3754423978a60c9317c58a424e3d/SymmToken.sol\":36279:36291  _msgSender() */\n      tag_156\n        /* \"mainnet/0xba100000625a3754423978a60c9317c58a424e3d/SymmToken.sol\":36279:36289  _msgSender */\n      tag_147\n        /* \"mainnet/0xba100000625a3754423978a60c9317c58a424e3d/SymmToken.sol\":36279:36291  _msgSender() */\n      jump\t// in\n    tag_156:\n        /* \"mainnet/0xba100000625a3754423978a60c9317c58a424e3d/SymmToken.sol\":36259:36292  _allowances[sender][_msgSender()] */\n      0xffffffffffffffffffffffffffffffffffffffff\n      and\n      0xffffffffffffffffffffffffffffffffffffffff\n      and\n      dup2\n      mstore\n      0x20\n      add\n      swap1\n      dup2\n      mstore\n      0x20\n      add\n      0x00\n      keccak256\n      sload\n        /* \"mainnet/0xba100000625a3754423978a60c9317c58a424e3d/SymmToken.sol\":36259:36296  _allowances[sender][_msgSender()].sub */\n      tag_157\n      swap1\n        /* \"mainnet/0xba100000625a3754423978a60c9317c58a424e3d/SymmToken.sol\":36259:36348  _allowances[sender][_msgSender()].sub(amount, \"ERC20: transfer amount exceeds allowance\") */\n      swap3\n      swap2\n      swap1\n      0xffffffff\n      and\n      jump\t// in\n    tag_155:\n        /* \"mainnet/0xba100000625a3754423978a60c9317c58a424e3d/SymmToken.sol\":36228:36236  _approve */\n      tag_148\n        /* \"mainnet/0xba100000625a3754423978a60c9317c58a424e3d/SymmToken.sol\":36228:36349  _approve(sender, _msgSender(), _allowances[sender][_msgSender()].sub(amount, \"ERC20: transfer amount exceeds allowance\")) */\n      jump\t// in\n    tag_153:\n        /* \"mainnet/0xba100000625a3754423978a60c9317c58a424e3d/SymmToken.sol\":36367:36371  true */\n      0x01\n        /* \"mainnet/0xba100000625a3754423978a60c9317c58a424e3d/SymmToken.sol\":36360:36371  return true */\n      swap1\n      pop\n        /* \"mainnet/0xba100000625a3754423978a60c9317c58a424e3d/SymmToken.sol\":36058:36379  function transferFrom(address sender, address recipient, uint256 amount) public virtual override returns (bool) {\r... */\n      swap4\n      swap3\n      pop\n      pop\n      pop\n      jump\t// out\n        /* \"mainnet/0xba100000625a3754423978a60c9317c58a424e3d/SymmToken.sol\":15890:16004  function getRoleAdmin(bytes32 role) public view returns (bytes32) {\r... */\n    tag_58:\n        /* \"mainnet/0xba100000625a3754423978a60c9317c58a424e3d/SymmToken.sol\":15947:15954  bytes32 */\n      0x00\n        /* \"mainnet/0xba100000625a3754423978a60c9317c58a424e3d/SymmToken.sol\":15974:15980  _roles */\n      dup1\n        /* \"mainnet/0xba100000625a3754423978a60c9317c58a424e3d/SymmToken.sol\":15974:15986  _roles[role] */\n      0x00\n        /* \"mainnet/0xba100000625a3754423978a60c9317c58a424e3d/SymmToken.sol\":15981:15985  role */\n      dup4\n        /* \"mainnet/0xba100000625a3754423978a60c9317c58a424e3d/SymmToken.sol\":15974:15986  _roles[role] */\n      dup2\n      mstore\n      0x20\n      add\n      swap1\n      dup2\n      mstore\n      0x20\n      add\n      0x00\n      keccak256\n        /* \"mainnet/0xba100000625a3754423978a60c9317c58a424e3d/SymmToken.sol\":15974:15996  _roles[role].adminRole */\n      0x02\n      add\n      sload\n        /* \"mainnet/0xba100000625a3754423978a60c9317c58a424e3d/SymmToken.sol\":15967:15996  return _roles[role].adminRole */\n      swap1\n      pop\n        /* \"mainnet/0xba100000625a3754423978a60c9317c58a424e3d/SymmToken.sol\":15890:16004  function getRoleAdmin(bytes32 role) public view returns (bytes32) {\r... */\n      swap2\n      swap1\n      pop\n      jump\t// out\n        /* \"mainnet/0xba100000625a3754423978a60c9317c58a424e3d/SymmToken.sol\":16266:16493  function grantRole(bytes32 role, address account) public virtual {\r... */\n    tag_61:\n        /* \"mainnet/0xba100000625a3754423978a60c9317c58a424e3d/SymmToken.sol\":16350:16395  hasRole(_roles[role].adminRole, _msgSender()) */\n      tag_160\n        /* \"mainnet/0xba100000625a3754423978a60c9317c58a424e3d/SymmToken.sol\":16358:16364  _roles */\n      0x00\n        /* \"mainnet/0xba100000625a3754423978a60c9317c58a424e3d/SymmToken.sol\":16358:16370  _roles[role] */\n      dup1\n        /* \"mainnet/0xba100000625a3754423978a60c9317c58a424e3d/SymmToken.sol\":16365:16369  role */\n      dup5\n        /* \"mainnet/0xba100000625a3754423978a60c9317c58a424e3d/SymmToken.sol\":16358:16370  _roles[role] */\n      dup2\n      mstore\n      0x20\n      add\n      swap1\n      dup2\n      mstore\n      0x20\n      add\n      0x00\n      keccak256\n        /* \"mainnet/0xba100000625a3754423978a60c9317c58a424e3d/SymmToken.sol\":16358:16380  _roles[role].adminRole */\n      0x02\n      add\n      sload\n        /* \"mainnet/0xba100000625a3754423978a60c9317c58a424e3d/SymmToken.sol\":16382:16394  _msgSender() */\n      tag_161\n        /* \"mainnet/0xba100000625a3754423978a60c9317c58a424e3d/SymmToken.sol\":16382:16392  _msgSender */\n      tag_147\n        /* \"mainnet/0xba100000625a3754423978a60c9317c58a424e3d/SymmToken.sol\":16382:16394  _msgSender() */\n      jump\t// in\n    tag_161:\n        /* \"mainnet/0xba100000625a3754423978a60c9317c58a424e3d/SymmToken.sol\":16350:16357  hasRole */\n      tag_105\n        /* \"mainnet/0xba100000625a3754423978a60c9317c58a424e3d/SymmToken.sol\":16350:16395  hasRole(_roles[role].adminRole, _msgSender()) */\n      jump\t// in\n    tag_160:\n        /* \"mainnet/0xba100000625a3754423978a60c9317c58a424e3d/SymmToken.sol\":16342:16447  require(hasRole(_roles[role].adminRole, _msgSender()), \"AccessControl: sender must be an admin to grant\") */\n      tag_162\n      jumpi\n      mload(0x40)\n      0x08c379a000000000000000000000000000000000000000000000000000000000\n      dup2\n      mstore\n      0x04\n      add\n      dup1\n      dup1\n      0x20\n      add\n      dup3\n      dup2\n      sub\n      dup3\n      mstore\n      0x2f\n      dup2\n      mstore\n      0x20\n      add\n      dup1\n      data_0ba7116025f1ef6b158a2bd2238e617f30e17c9e456917d901086ca4f8ad2811\n      0x2f\n      swap2\n      codecopy\n      0x40\n      add\n      swap2\n      pop\n      pop\n      mload(0x40)\n      dup1\n      swap2\n      sub\n      swap1\n      revert\n    tag_162:\n        /* \"mainnet/0xba100000625a3754423978a60c9317c58a424e3d/SymmToken.sol\":16460:16485  _grantRole(role, account) */\n      tag_163\n        /* \"mainnet/0xba100000625a3754423978a60c9317c58a424e3d/SymmToken.sol\":16471:16475  role */\n      dup3\n        /* \"mainnet/0xba100000625a3754423978a60c9317c58a424e3d/SymmToken.sol\":16477:16484  account */\n      dup3\n        /* \"mainnet/0xba100000625a3754423978a60c9317c58a424e3d/SymmToken.sol\":16460:16470  _grantRole */\n      tag_164\n        /* \"mainnet/0xba100000625a3754423978a60c9317c58a424e3d/SymmToken.sol\":16460:16485  _grantRole(role, account) */\n      jump\t// in\n    tag_163:\n        /* \"mainnet/0xba100000625a3754423978a60c9317c58a424e3d/SymmToken.sol\":16266:16493  function grantRole(bytes32 role, address account) public virtual {\r... */\n      pop\n      pop\n      jump\t// out\n        /* \"mainnet/0xba100000625a3754423978a60c9317c58a424e3d/SymmToken.sol\":50986:51095  bytes32 public immutable PERMIT_TYPEHASH = 0x6e71edae12b1b97f4d1f60370fef10105fa2faae0126114a169c64845d6126c9 */\n    tag_63:\n      immutable(\"0x667a84acaf245040ec9efc3710c3f6af76fb40f6fe2dcbec23ceb823be93d270\")\n      dup2\n      jump\t// out\n        /* \"mainnet/0xba100000625a3754423978a60c9317c58a424e3d/SymmToken.sol\":34236:34319  function decimals() public view returns (uint8) {\r... */\n    tag_65:\n        /* \"mainnet/0xba100000625a3754423978a60c9317c58a424e3d/SymmToken.sol\":34277:34282  uint8 */\n      0x00\n        /* \"mainnet/0xba100000625a3754423978a60c9317c58a424e3d/SymmToken.sol\":34302:34311  _decimals */\n      0x06\n      0x00\n      swap1\n      sload\n      swap1\n      0x0100\n      exp\n      swap1\n      div\n      0xff\n      and\n        /* \"mainnet/0xba100000625a3754423978a60c9317c58a424e3d/SymmToken.sol\":34295:34311  return _decimals */\n      swap1\n      pop\n        /* \"mainnet/0xba100000625a3754423978a60c9317c58a424e3d/SymmToken.sol\":34236:34319  function decimals() public view returns (uint8) {\r... */\n      swap1\n      jump\t// out\n        /* \"mainnet/0xba100000625a3754423978a60c9317c58a424e3d/SymmToken.sol\":50833:50874  bytes32 public immutable DOMAIN_SEPARATOR */\n    tag_67:\n      immutable(\"0x8d7b82dfbbe5408bd9a69a62646560468f7c7f2dca6810985bf39c40f0bae974\")\n      dup2\n      jump\t// out\n        /* \"mainnet/0xba100000625a3754423978a60c9317c58a424e3d/SymmToken.sol\":17475:17684  function renounceRole(bytes32 role, address account) public virtual {\r... */\n    tag_70:\n        /* \"mainnet/0xba100000625a3754423978a60c9317c58a424e3d/SymmToken.sol\":17573:17585  _msgSender() */\n      tag_167\n        /* \"mainnet/0xba100000625a3754423978a60c9317c58a424e3d/SymmToken.sol\":17573:17583  _msgSender */\n      tag_147\n        /* \"mainnet/0xba100000625a3754423978a60c9317c58a424e3d/SymmToken.sol\":17573:17585  _msgSender() */\n      jump\t// in\n    tag_167:\n        /* \"mainnet/0xba100000625a3754423978a60c9317c58a424e3d/SymmToken.sol\":17562:17585  account == _msgSender() */\n      0xffffffffffffffffffffffffffffffffffffffff\n      and\n        /* \"mainnet/0xba100000625a3754423978a60c9317c58a424e3d/SymmToken.sol\":17562:17569  account */\n      dup2\n        /* \"mainnet/0xba100000625a3754423978a60c9317c58a424e3d/SymmToken.sol\":17562:17585  account == _msgSender() */\n      0xffffffffffffffffffffffffffffffffffffffff\n      and\n      eq\n        /* \"mainnet/0xba100000625a3754423978a60c9317c58a424e3d/SymmToken.sol\":17554:17637  require(account == _msgSender(), \"AccessControl: can only renounce roles for self\") */\n      tag_168\n      jumpi\n      mload(0x40)\n      0x08c379a000000000000000000000000000000000000000000000000000000000\n      dup2\n      mstore\n      0x04\n      add\n      dup1\n      dup1\n      0x20\n      add\n      dup3\n      dup2\n      sub\n      dup3\n      mstore\n      0x2f\n      dup2\n      mstore\n      0x20\n      add\n      dup1\n      data_fb06fa8ff2141e8ed74502f6792273793f25f0e9d3cf15344f3f5a0d4948fd4b\n      0x2f\n      swap2\n      codecopy\n      0x40\n      add\n      swap2\n      pop\n      pop\n      mload(0x40)\n      dup1\n      swap2\n      sub\n      swap1\n      revert\n    tag_168:\n        /* \"mainnet/0xba100000625a3754423978a60c9317c58a424e3d/SymmToken.sol\":17650:17676  _revokeRole(role, account) */\n      tag_169\n        /* \"mainnet/0xba100000625a3754423978a60c9317c58a424e3d/SymmToken.sol\":17662:17666  role */\n      dup3\n        /* \"mainnet/0xba100000625a3754423978a60c9317c58a424e3d/SymmToken.sol\":17668:17675  account */\n      dup3\n        /* \"mainnet/0xba100000625a3754423978a60c9317c58a424e3d/SymmToken.sol\":17650:17661  _revokeRole */\n      tag_170\n        /* \"mainnet/0xba100000625a3754423978a60c9317c58a424e3d/SymmToken.sol\":17650:17676  _revokeRole(role, account) */\n      jump\t// in\n    tag_169:\n        /* \"mainnet/0xba100000625a3754423978a60c9317c58a424e3d/SymmToken.sol\":17475:17684  function renounceRole(bytes32 role, address account) public virtual {\r... */\n      pop\n      pop\n      jump\t// out\n        /* \"mainnet/0xba100000625a3754423978a60c9317c58a424e3d/SymmToken.sol\":36788:37006  function increaseAllowance(address spender, uint256 addedValue) public virtual returns (bool) {\r... */\n    tag_73:\n        /* \"mainnet/0xba100000625a3754423978a60c9317c58a424e3d/SymmToken.sol\":36876:36880  bool */\n      0x00\n        /* \"mainnet/0xba100000625a3754423978a60c9317c58a424e3d/SymmToken.sol\":36893:36976  _approve(_msgSender(), spender, _allowances[_msgSender()][spender].add(addedValue)) */\n      tag_172\n        /* \"mainnet/0xba100000625a3754423978a60c9317c58a424e3d/SymmToken.sol\":36902:36914  _msgSender() */\n      tag_173\n        /* \"mainnet/0xba100000625a3754423978a60c9317c58a424e3d/SymmToken.sol\":36902:36912  _msgSender */\n      tag_147\n        /* \"mainnet/0xba100000625a3754423978a60c9317c58a424e3d/SymmToken.sol\":36902:36914  _msgSender() */\n      jump\t// in\n    tag_173:\n        /* \"mainnet/0xba100000625a3754423978a60c9317c58a424e3d/SymmToken.sol\":36916:36923  spender */\n      dup5\n        /* \"mainnet/0xba100000625a3754423978a60c9317c58a424e3d/SymmToken.sol\":36925:36975  _allowances[_msgSender()][spender].add(addedValue) */\n      tag_174\n        /* \"mainnet/0xba100000625a3754423978a60c9317c58a424e3d/SymmToken.sol\":36964:36974  addedValue */\n      dup6\n        /* \"mainnet/0xba100000625a3754423978a60c9317c58a424e3d/SymmToken.sol\":36925:36936  _allowances */\n      0x02\n        /* \"mainnet/0xba100000625a3754423978a60c9317c58a424e3d/SymmToken.sol\":36925:36950  _allowances[_msgSender()] */\n      0x00\n        /* \"mainnet/0xba100000625a3754423978a60c9317c58a424e3d/SymmToken.sol\":36937:36949  _msgSender() */\n      tag_175\n        /* \"mainnet/0xba100000625a3754423978a60c9317c58a424e3d/SymmToken.sol\":36937:36947  _msgSender */\n      tag_147\n        /* \"mainnet/0xba100000625a3754423978a60c9317c58a424e3d/SymmToken.sol\":36937:36949  _msgSender() */\n      jump\t// in\n    tag_175:\n        /* \"mainnet/0xba100000625a3754423978a60c9317c58a424e3d/SymmToken.sol\":36925:36950  _allowances[_msgSender()] */\n      0xffffffffffffffffffffffffffffffffffffffff\n      and\n      0xffffffffffffffffffffffffffffffffffffffff\n      and\n      dup2\n      mstore\n      0x20\n      add\n      swap1\n      dup2\n      mstore\n      0x20\n      add\n      0x00\n      keccak256\n        /* \"mainnet/0xba100000625a3754423978a60c9317c58a424e3d/SymmToken.sol\":36925:36959  _allowances[_msgSender()][spender] */\n      0x00\n        /* \"mainnet/0xba100000625a3754423978a60c9317c58a424e3d/SymmToken.sol\":36951:36958  spender */\n      dup10\n        /* \"mainnet/0xba100000625a3754423978a60c9317c58a424e3d/SymmToken.sol\":36925:36959  _allowances[_msgSender()][spender] */\n      0xffffffffffffffffffffffffffffffffffffffff\n      and\n      0xffffffffffffffffffffffffffffffffffffffff\n      and\n      dup2\n      mstore\n      0x20\n      add\n      swap1\n      dup2\n      mstore\n      0x20\n      add\n      0x00\n      keccak256\n      sload\n        /* \"mainnet/0xba100000625a3754423978a60c9317c58a424e3d/SymmToken.sol\":36925:36963  _allowances[_msgSender()][spender].add */\n      tag_176\n      swap1\n        /* \"mainnet/0xba100000625a3754423978a60c9317c58a424e3d/SymmToken.sol\":36925:36975  _allowances[_msgSender()][spender].add(addedValue) */\n      swap2\n      swap1\n      0xffffffff\n      and\n      jump\t// in\n    tag_174:\n        /* \"mainnet/0xba100000625a3754423978a60c9317c58a424e3d/SymmToken.sol\":36893:36901  _approve */\n      tag_148\n        /* \"mainnet/0xba100000625a3754423978a60c9317c58a424e3d/SymmToken.sol\":36893:36976  _approve(_msgSender(), spender, _allowances[_msgSender()][spender].add(addedValue)) */\n      jump\t// in\n    tag_172:\n        /* \"mainnet/0xba100000625a3754423978a60c9317c58a424e3d/SymmToken.sol\":36994:36998  true */\n      0x01\n        /* \"mainnet/0xba100000625a3754423978a60c9317c58a424e3d/SymmToken.sol\":36987:36998  return true */\n      swap1\n      pop\n        /* \"mainnet/0xba100000625a3754423978a60c9317c58a424e3d/SymmToken.sol\":36788:37006  function increaseAllowance(address spender, uint256 addedValue) public virtual returns (bool) {\r... */\n      swap3\n      swap2\n      pop\n      pop\n      jump\t// out\n        /* \"mainnet/0xba100000625a3754423978a60c9317c58a424e3d/SymmToken.sol\":54043:54209  function mint(address to, uint256 amount) public virtual {\r... */\n    tag_76:\n        /* \"mainnet/0xba100000625a3754423978a60c9317c58a424e3d/SymmToken.sol\":54119:54153  hasRole(MINTER_ROLE, _msgSender()) */\n      tag_178\n        /* \"mainnet/0xba100000625a3754423978a60c9317c58a424e3d/SymmToken.sol\":50727:50751  keccak256(\"MINTER_ROLE\") */\n      0x9f2df0fed2c77648de5860a4cc508cd0818c85b8b8a1ab4ceeef8d981c8956a6\n        /* \"mainnet/0xba100000625a3754423978a60c9317c58a424e3d/SymmToken.sol\":54140:54152  _msgSender() */\n      tag_179\n        /* \"mainnet/0xba100000625a3754423978a60c9317c58a424e3d/SymmToken.sol\":54140:54150  _msgSender */\n      tag_147\n        /* \"mainnet/0xba100000625a3754423978a60c9317c58a424e3d/SymmToken.sol\":54140:54152  _msgSender() */\n      jump\t// in\n    tag_179:\n        /* \"mainnet/0xba100000625a3754423978a60c9317c58a424e3d/SymmToken.sol\":54119:54126  hasRole */\n      tag_105\n        /* \"mainnet/0xba100000625a3754423978a60c9317c58a424e3d/SymmToken.sol\":54119:54153  hasRole(MINTER_ROLE, _msgSender()) */\n      jump\t// in\n    tag_178:\n        /* \"mainnet/0xba100000625a3754423978a60c9317c58a424e3d/SymmToken.sol\":54111:54173  require(hasRole(MINTER_ROLE, _msgSender()), \"ERR_MINTER_ROLE\") */\n      tag_180\n      jumpi\n      mload(0x40)\n      0x08c379a000000000000000000000000000000000000000000000000000000000\n      dup2\n      mstore\n      0x04\n      add\n      dup1\n      dup1\n      0x20\n      add\n      dup3\n      dup2\n      sub\n      dup3\n      mstore\n      0x0f\n      dup2\n      mstore\n      0x20\n      add\n      dup1\n      0x4552525f4d494e5445525f524f4c450000000000000000000000000000000000\n      dup2\n      mstore\n      pop\n      0x20\n      add\n      swap2\n      pop\n      pop\n      mload(0x40)\n      dup1\n      swap2\n      sub\n      swap1\n      revert\n    tag_180:\n        /* \"mainnet/0xba100000625a3754423978a60c9317c58a424e3d/SymmToken.sol\":54184:54201  _mint(to, amount) */\n      tag_181\n        /* \"mainnet/0xba100000625a3754423978a60c9317c58a424e3d/SymmToken.sol\":54190:54192  to */\n      dup3\n        /* \"mainnet/0xba100000625a3754423978a60c9317c58a424e3d/SymmToken.sol\":54194:54200  amount */\n      dup3\n        /* \"mainnet/0xba100000625a3754423978a60c9317c58a424e3d/SymmToken.sol\":54184:54189  _mint */\n      tag_182\n        /* \"mainnet/0xba100000625a3754423978a60c9317c58a424e3d/SymmToken.sol\":54184:54201  _mint(to, amount) */\n      jump\t// in\n    tag_181:\n        /* \"mainnet/0xba100000625a3754423978a60c9317c58a424e3d/SymmToken.sol\":54043:54209  function mint(address to, uint256 amount) public virtual {\r... */\n      pop\n      pop\n      jump\t// out\n        /* \"mainnet/0xba100000625a3754423978a60c9317c58a424e3d/SymmToken.sol\":54217:54308  function burn(uint256 amount) public virtual {\r... */\n    tag_79:\n        /* \"mainnet/0xba100000625a3754423978a60c9317c58a424e3d/SymmToken.sol\":54273:54300  _burn(_msgSender(), amount) */\n      tag_184\n        /* \"mainnet/0xba100000625a3754423978a60c9317c58a424e3d/SymmToken.sol\":54279:54291  _msgSender() */\n      tag_185\n        /* \"mainnet/0xba100000625a3754423978a60c9317c58a424e3d/SymmToken.sol\":54279:54289  _msgSender */\n      tag_147\n        /* \"mainnet/0xba100000625a3754423978a60c9317c58a424e3d/SymmToken.sol\":54279:54291  _msgSender() */\n      jump\t// in\n    tag_185:\n        /* \"mainnet/0xba100000625a3754423978a60c9317c58a424e3d/SymmToken.sol\":54293:54299  amount */\n      dup3\n        /* \"mainnet/0xba100000625a3754423978a60c9317c58a424e3d/SymmToken.sol\":54273:54278  _burn */\n      tag_186\n        /* \"mainnet/0xba100000625a3754423978a60c9317c58a424e3d/SymmToken.sol\":54273:54300  _burn(_msgSender(), amount) */\n      jump\t// in\n    tag_184:\n        /* \"mainnet/0xba100000625a3754423978a60c9317c58a424e3d/SymmToken.sol\":54217:54308  function burn(uint256 amount) public virtual {\r... */\n      pop\n      jump\t// out\n        /* \"mainnet/0xba100000625a3754423978a60c9317c58a424e3d/SymmToken.sol\":46411:46669  function balanceOfAt(address account, uint256 snapshotId) public view returns (uint256) {\r... */\n    tag_82:\n        /* \"mainnet/0xba100000625a3754423978a60c9317c58a424e3d/SymmToken.sol\":46490:46497  uint256 */\n      0x00\n        /* \"mainnet/0xba100000625a3754423978a60c9317c58a424e3d/SymmToken.sol\":46511:46527  bool snapshotted */\n      dup1\n        /* \"mainnet/0xba100000625a3754423978a60c9317c58a424e3d/SymmToken.sol\":46529:46542  uint256 value */\n      0x00\n        /* \"mainnet/0xba100000625a3754423978a60c9317c58a424e3d/SymmToken.sol\":46546:46601  _valueAt(snapshotId, _accountBalanceSnapshots[account]) */\n      tag_188\n        /* \"mainnet/0xba100000625a3754423978a60c9317c58a424e3d/SymmToken.sol\":46555:46565  snapshotId */\n      dup5\n        /* \"mainnet/0xba100000625a3754423978a60c9317c58a424e3d/SymmToken.sol\":46567:46591  _accountBalanceSnapshots */\n      0x07\n        /* \"mainnet/0xba100000625a3754423978a60c9317c58a424e3d/SymmToken.sol\":46567:46600  _accountBalanceSnapshots[account] */\n      0x00\n        /* \"mainnet/0xba100000625a3754423978a60c9317c58a424e3d/SymmToken.sol\":46592:46599  account */\n      dup9\n        /* \"mainnet/0xba100000625a3754423978a60c9317c58a424e3d/SymmToken.sol\":46567:46600  _accountBalanceSnapshots[account] */\n      0xffffffffffffffffffffffffffffffffffffffff\n      and\n      0xffffffffffffffffffffffffffffffffffffffff\n      and\n      dup2\n      mstore\n      0x20\n      add\n      swap1\n      dup2\n      mstore\n      0x20\n      add\n      0x00\n      keccak256\n        /* \"mainnet/0xba100000625a3754423978a60c9317c58a424e3d/SymmToken.sol\":46546:46554  _valueAt */\n      tag_189\n        /* \"mainnet/0xba100000625a3754423978a60c9317c58a424e3d/SymmToken.sol\":46546:46601  _valueAt(snapshotId, _accountBalanceSnapshots[account]) */\n      jump\t// in\n    tag_188:\n        /* \"mainnet/0xba100000625a3754423978a60c9317c58a424e3d/SymmToken.sol\":46510:46601  (bool snapshotted, uint256 value) = _valueAt(snapshotId, _accountBalanceSnapshots[account]) */\n      swap2\n      pop\n      swap2\n      pop\n        /* \"mainnet/0xba100000625a3754423978a60c9317c58a424e3d/SymmToken.sol\":46621:46632  snapshotted */\n      dup2\n        /* \"mainnet/0xba100000625a3754423978a60c9317c58a424e3d/SymmToken.sol\":46621:46661  snapshotted ? value : balanceOf(account) */\n      tag_190\n      jumpi\n        /* \"mainnet/0xba100000625a3754423978a60c9317c58a424e3d/SymmToken.sol\":46643:46661  balanceOf(account) */\n      tag_191\n        /* \"mainnet/0xba100000625a3754423978a60c9317c58a424e3d/SymmToken.sol\":46653:46660  account */\n      dup6\n        /* \"mainnet/0xba100000625a3754423978a60c9317c58a424e3d/SymmToken.sol\":46643:46652  balanceOf */\n      tag_93\n        /* \"mainnet/0xba100000625a3754423978a60c9317c58a424e3d/SymmToken.sol\":46643:46661  balanceOf(account) */\n      jump\t// in\n    tag_191:\n        /* \"mainnet/0xba100000625a3754423978a60c9317c58a424e3d/SymmToken.sol\":46621:46661  snapshotted ? value : balanceOf(account) */\n      jump(tag_192)\n    tag_190:\n        /* \"mainnet/0xba100000625a3754423978a60c9317c58a424e3d/SymmToken.sol\":46635:46640  value */\n      dup1\n        /* \"mainnet/0xba100000625a3754423978a60c9317c58a424e3d/SymmToken.sol\":46621:46661  snapshotted ? value : balanceOf(account) */\n    tag_192:\n        /* \"mainnet/0xba100000625a3754423978a60c9317c58a424e3d/SymmToken.sol\":46614:46661  return snapshotted ? value : balanceOf(account) */\n      swap3\n      pop\n      pop\n      pop\n        /* \"mainnet/0xba100000625a3754423978a60c9317c58a424e3d/SymmToken.sol\":46411:46669  function balanceOfAt(address account, uint256 snapshotId) public view returns (uint256) {\r... */\n      swap3\n      swap2\n      pop\n      pop\n      jump\t// out\n        /* \"mainnet/0xba100000625a3754423978a60c9317c58a424e3d/SymmToken.sol\":50644:50682  string  public constant version  = \"1\" */\n    tag_84:\n      mload(0x40)\n      dup1\n      0x40\n      add\n      0x40\n      mstore\n      dup1\n      0x01\n      dup2\n      mstore\n      0x20\n      add\n      0x3100000000000000000000000000000000000000000000000000000000000000\n      dup2\n      mstore\n      pop\n      dup2\n      jump\t// out\n        /* \"mainnet/0xba100000625a3754423978a60c9317c58a424e3d/SymmToken.sol\":50758:50824  bytes32 public constant SNAPSHOT_ROLE = keccak256(\"SNAPSHOT_ROLE\") */\n    tag_90:\n        /* \"mainnet/0xba100000625a3754423978a60c9317c58a424e3d/SymmToken.sol\":50798:50824  keccak256(\"SNAPSHOT_ROLE\") */\n      0x5fdbd35e8da83ee755d5e62a539e5ed7f47126abede0b8b10f9ea43dc6eed07f\n        /* \"mainnet/0xba100000625a3754423978a60c9317c58a424e3d/SymmToken.sol\":50758:50824  bytes32 public constant SNAPSHOT_ROLE = keccak256(\"SNAPSHOT_ROLE\") */\n      dup2\n      jump\t// out\n        /* \"mainnet/0xba100000625a3754423978a60c9317c58a424e3d/SymmToken.sol\":34547:34666  function balanceOf(address account) public view override returns (uint256) {\r... */\n    tag_93:\n        /* \"mainnet/0xba100000625a3754423978a60c9317c58a424e3d/SymmToken.sol\":34613:34620  uint256 */\n      0x00\n        /* \"mainnet/0xba100000625a3754423978a60c9317c58a424e3d/SymmToken.sol\":34640:34649  _balances */\n      0x01\n        /* \"mainnet/0xba100000625a3754423978a60c9317c58a424e3d/SymmToken.sol\":34640:34658  _balances[account] */\n      0x00\n        /* \"mainnet/0xba100000625a3754423978a60c9317c58a424e3d/SymmToken.sol\":34650:34657  account */\n      dup4\n        /* \"mainnet/0xba100000625a3754423978a60c9317c58a424e3d/SymmToken.sol\":34640:34658  _balances[account] */\n      0xffffffffffffffffffffffffffffffffffffffff\n      and\n      0xffffffffffffffffffffffffffffffffffffffff\n      and\n      dup2\n      mstore\n      0x20\n      add\n      swap1\n      dup2\n      mstore\n      0x20\n      add\n      0x00\n      keccak256\n      sload\n        /* \"mainnet/0xba100000625a3754423978a60c9317c58a424e3d/SymmToken.sol\":34633:34658  return _balances[account] */\n      swap1\n      pop\n        /* \"mainnet/0xba100000625a3754423978a60c9317c58a424e3d/SymmToken.sol\":34547:34666  function balanceOf(address account) public view override returns (uint256) {\r... */\n      swap2\n      swap1\n      pop\n      jump\t// out\n        /* \"mainnet/0xba100000625a3754423978a60c9317c58a424e3d/SymmToken.sol\":54316:54611  function burnFrom(address account, uint256 amount) public virtual {\r... */\n    tag_96:\n        /* \"mainnet/0xba100000625a3754423978a60c9317c58a424e3d/SymmToken.sol\":54393:54419  uint256 decreasedAllowance */\n      0x00\n        /* \"mainnet/0xba100000625a3754423978a60c9317c58a424e3d/SymmToken.sol\":54422:54506  allowance(account, _msgSender()).sub(amount, \"ERC20: burn amount exceeds allowance\") */\n      tag_195\n        /* \"mainnet/0xba100000625a3754423978a60c9317c58a424e3d/SymmToken.sol\":54459:54465  amount */\n      dup3\n        /* \"mainnet/0xba100000625a3754423978a60c9317c58a424e3d/SymmToken.sol\":54422:54506  allowance(account, _msgSender()).sub(amount, \"ERC20: burn amount exceeds allowance\") */\n      mload(0x40)\n      dup1\n      0x60\n      add\n      0x40\n      mstore\n      dup1\n      0x24\n      dup2\n      mstore\n      0x20\n      add\n      data_a287c363786607a1457a2d9d12fa61c0073358e02d76b4035fc2c2d86a19c0db\n      0x24\n      swap2\n      codecopy\n        /* \"mainnet/0xba100000625a3754423978a60c9317c58a424e3d/SymmToken.sol\":54422:54454  allowance(account, _msgSender()) */\n      tag_196\n        /* \"mainnet/0xba100000625a3754423978a60c9317c58a424e3d/SymmToken.sol\":54432:54439  account */\n      dup7\n        /* \"mainnet/0xba100000625a3754423978a60c9317c58a424e3d/SymmToken.sol\":54441:54453  _msgSender() */\n      tag_197\n        /* \"mainnet/0xba100000625a3754423978a60c9317c58a424e3d/SymmToken.sol\":54441:54451  _msgSender */\n      tag_147\n        /* \"mainnet/0xba100000625a3754423978a60c9317c58a424e3d/SymmToken.sol\":54441:54453  _msgSender() */\n      jump\t// in\n    tag_197:\n        /* \"mainnet/0xba100000625a3754423978a60c9317c58a424e3d/SymmToken.sol\":54422:54431  allowance */\n      tag_138\n        /* \"mainnet/0xba100000625a3754423978a60c9317c58a424e3d/SymmToken.sol\":54422:54454  allowance(account, _msgSender()) */\n      jump\t// in\n    tag_196:\n        /* \"mainnet/0xba100000625a3754423978a60c9317c58a424e3d/SymmToken.sol\":54422:54458  allowance(account, _msgSender()).sub */\n      tag_157\n      swap1\n        /* \"mainnet/0xba100000625a3754423978a60c9317c58a424e3d/SymmToken.sol\":54422:54506  allowance(account, _msgSender()).sub(amount, \"ERC20: burn amount exceeds allowance\") */\n      swap3\n      swap2\n      swap1\n      0xffffffff\n      and\n      jump\t// in\n    tag_195:\n        /* \"mainnet/0xba100000625a3754423978a60c9317c58a424e3d/SymmToken.sol\":54393:54506  uint256 decreasedAllowance = allowance(account, _msgSender()).sub(amount, \"ERC20: burn amount exceeds allowance\") */\n      swap1\n      pop\n        /* \"mainnet/0xba100000625a3754423978a60c9317c58a424e3d/SymmToken.sol\":54519:54570  _approve(account, _msgSender(), decreasedAllowance) */\n      tag_198\n        /* \"mainnet/0xba100000625a3754423978a60c9317c58a424e3d/SymmToken.sol\":54528:54535  account */\n      dup4\n        /* \"mainnet/0xba100000625a3754423978a60c9317c58a424e3d/SymmToken.sol\":54537:54549  _msgSender() */\n      tag_199\n        /* \"mainnet/0xba100000625a3754423978a60c9317c58a424e3d/SymmToken.sol\":54537:54547  _msgSender */\n      tag_147\n        /* \"mainnet/0xba100000625a3754423978a60c9317c58a424e3d/SymmToken.sol\":54537:54549  _msgSender() */\n      jump\t// in\n    tag_199:\n        /* \"mainnet/0xba100000625a3754423978a60c9317c58a424e3d/SymmToken.sol\":54551:54569  decreasedAllowance */\n      dup4\n        /* \"mainnet/0xba100000625a3754423978a60c9317c58a424e3d/SymmToken.sol\":54519:54527  _approve */\n      tag_148\n        /* \"mainnet/0xba100000625a3754423978a60c9317c58a424e3d/SymmToken.sol\":54519:54570  _approve(account, _msgSender(), decreasedAllowance) */\n      jump\t// in\n    tag_198:\n        /* \"mainnet/0xba100000625a3754423978a60c9317c58a424e3d/SymmToken.sol\":54581:54603  _burn(account, amount) */\n      tag_200\n        /* \"mainnet/0xba100000625a3754423978a60c9317c58a424e3d/SymmToken.sol\":54587:54594  account */\n      dup4\n        /* \"mainnet/0xba100000625a3754423978a60c9317c58a424e3d/SymmToken.sol\":54596:54602  amount */\n      dup4\n        /* \"mainnet/0xba100000625a3754423978a60c9317c58a424e3d/SymmToken.sol\":54581:54586  _burn */\n      tag_186\n        /* \"mainnet/0xba100000625a3754423978a60c9317c58a424e3d/SymmToken.sol\":54581:54603  _burn(account, amount) */\n      jump\t// in\n    tag_200:\n        /* \"mainnet/0xba100000625a3754423978a60c9317c58a424e3d/SymmToken.sol\":54316:54611  function burnFrom(address account, uint256 amount) public virtual {\r... */\n      pop\n      pop\n      pop\n      jump\t// out\n        /* \"mainnet/0xba100000625a3754423978a60c9317c58a424e3d/SymmToken.sol\":51102:51140  mapping(address => uint) public nonces */\n    tag_99:\n      mstore(0x20, 0x0b)\n      dup1\n      0x00\n      mstore\n      keccak256(0x00, 0x40)\n      0x00\n      swap2\n      pop\n      swap1\n      pop\n      sload\n      dup2\n      jump\t// out\n        /* \"mainnet/0xba100000625a3754423978a60c9317c58a424e3d/SymmToken.sol\":15563:15701  function getRoleMember(bytes32 role, uint256 index) public view returns (address) {\r... */\n    tag_102:\n        /* \"mainnet/0xba100000625a3754423978a60c9317c58a424e3d/SymmToken.sol\":15636:15643  address */\n      0x00\n        /* \"mainnet/0xba100000625a3754423978a60c9317c58a424e3d/SymmToken.sol\":15663:15693  _roles[role].members.at(index) */\n      tag_202\n        /* \"mainnet/0xba100000625a3754423978a60c9317c58a424e3d/SymmToken.sol\":15687:15692  index */\n      dup3\n        /* \"mainnet/0xba100000625a3754423978a60c9317c58a424e3d/SymmToken.sol\":15663:15669  _roles */\n      0x00\n        /* \"mainnet/0xba100000625a3754423978a60c9317c58a424e3d/SymmToken.sol\":15663:15675  _roles[role] */\n      dup1\n        /* \"mainnet/0xba100000625a3754423978a60c9317c58a424e3d/SymmToken.sol\":15670:15674  role */\n      dup7\n        /* \"mainnet/0xba100000625a3754423978a60c9317c58a424e3d/SymmToken.sol\":15663:15675  _roles[role] */\n      dup2\n      mstore\n      0x20\n      add\n      swap1\n      dup2\n      mstore\n      0x20\n      add\n      0x00\n      keccak256\n        /* \"mainnet/0xba100000625a3754423978a60c9317c58a424e3d/SymmToken.sol\":15663:15683  _roles[role].members */\n      0x00\n      add\n        /* \"mainnet/0xba100000625a3754423978a60c9317c58a424e3d/SymmToken.sol\":15663:15686  _roles[role].members.at */\n      tag_203\n      swap1\n        /* \"mainnet/0xba100000625a3754423978a60c9317c58a424e3d/SymmToken.sol\":15663:15693  _roles[role].members.at(index) */\n      swap2\n      swap1\n      0xffffffff\n      and\n      jump\t// in\n    tag_202:\n        /* \"mainnet/0xba100000625a3754423978a60c9317c58a424e3d/SymmToken.sol\":15656:15693  return _roles[role].members.at(index) */\n      swap1\n      pop\n        /* \"mainnet/0xba100000625a3754423978a60c9317c58a424e3d/SymmToken.sol\":15563:15701  function getRoleMember(bytes32 role, uint256 index) public view returns (address) {\r... */\n      swap3\n      swap2\n      pop\n      pop\n      jump\t// out\n        /* \"mainnet/0xba100000625a3754423978a60c9317c58a424e3d/SymmToken.sol\":14524:14663  function hasRole(bytes32 role, address account) public view returns (bool) {\r... */\n    tag_105:\n        /* \"mainnet/0xba100000625a3754423978a60c9317c58a424e3d/SymmToken.sol\":14593:14597  bool */\n      0x00\n        /* \"mainnet/0xba100000625a3754423978a60c9317c58a424e3d/SymmToken.sol\":14617:14655  _roles[role].members.contains(account) */\n      tag_205\n        /* \"mainnet/0xba100000625a3754423978a60c9317c58a424e3d/SymmToken.sol\":14647:14654  account */\n      dup3\n        /* \"mainnet/0xba100000625a3754423978a60c9317c58a424e3d/SymmToken.sol\":14617:14623  _roles */\n      0x00\n        /* \"mainnet/0xba100000625a3754423978a60c9317c58a424e3d/SymmToken.sol\":14617:14629  _roles[role] */\n      dup1\n        /* \"mainnet/0xba100000625a3754423978a60c9317c58a424e3d/SymmToken.sol\":14624:14628  role */\n      dup7\n        /* \"mainnet/0xba100000625a3754423978a60c9317c58a424e3d/SymmToken.sol\":14617:14629  _roles[role] */\n      dup2\n      mstore\n      0x20\n      add\n      swap1\n      dup2\n      mstore\n      0x20\n      add\n      0x00\n      keccak256\n        /* \"mainnet/0xba100000625a3754423978a60c9317c58a424e3d/SymmToken.sol\":14617:14637  _roles[role].members */\n      0x00\n      add\n        /* \"mainnet/0xba100000625a3754423978a60c9317c58a424e3d/SymmToken.sol\":14617:14646  _roles[role].members.contains */\n      tag_206\n      swap1\n        /* \"mainnet/0xba100000625a3754423978a60c9317c58a424e3d/SymmToken.sol\":14617:14655  _roles[role].members.contains(account) */\n      swap2\n      swap1\n      0xffffffff\n      and\n      jump\t// in\n    tag_205:\n        /* \"mainnet/0xba100000625a3754423978a60c9317c58a424e3d/SymmToken.sol\":14610:14655  return _roles[role].members.contains(account) */\n      swap1\n      pop\n        /* \"mainnet/0xba100000625a3754423978a60c9317c58a424e3d/SymmToken.sol\":14524:14663  function hasRole(bytes32 role, address account) public view returns (bool) {\r... */\n      swap3\n      swap2\n      pop\n      pop\n      jump\t// out\n        /* \"mainnet/0xba100000625a3754423978a60c9317c58a424e3d/SymmToken.sol\":33511:33598  function symbol() public view returns (string memory) {\r... */\n    tag_107:\n        /* \"mainnet/0xba100000625a3754423978a60c9317c58a424e3d/SymmToken.sol\":33550:33563  string memory */\n      0x60\n        /* \"mainnet/0xba100000625a3754423978a60c9317c58a424e3d/SymmToken.sol\":33583:33590  _symbol */\n      0x05\n        /* \"mainnet/0xba100000625a3754423978a60c9317c58a424e3d/SymmToken.sol\":33576:33590  return _symbol */\n      dup1\n      sload\n      0x01\n      dup2\n      0x01\n      and\n      iszero\n      0x0100\n      mul\n      sub\n      and\n      0x02\n      swap1\n      div\n      dup1\n      0x1f\n      add\n      0x20\n      dup1\n      swap2\n      div\n      mul\n      0x20\n      add\n      mload(0x40)\n      swap1\n      dup2\n      add\n      0x40\n      mstore\n      dup1\n      swap3\n      swap2\n      swap1\n      dup2\n      dup2\n      mstore\n      0x20\n      add\n      dup3\n      dup1\n      sload\n      0x01\n      dup2\n      0x01\n      and\n      iszero\n      0x0100\n      mul\n      sub\n      and\n      0x02\n      swap1\n      div\n      dup1\n      iszero\n      tag_208\n      jumpi\n      dup1\n      0x1f\n      lt\n      tag_209\n      jumpi\n      0x0100\n      dup1\n      dup4\n      sload\n      div\n      mul\n      dup4\n      mstore\n      swap2\n      0x20\n      add\n      swap2\n      jump(tag_208)\n    tag_209:\n      dup3\n      add\n      swap2\n      swap1\n      0x00\n      mstore\n      keccak256(0x00, 0x20)\n      swap1\n    tag_210:\n      dup2\n      sload\n      dup2\n      mstore\n      swap1\n      0x01\n      add\n      swap1\n      0x20\n      add\n      dup1\n      dup4\n      gt\n      tag_210\n      jumpi\n      dup3\n      swap1\n      sub\n      0x1f\n      and\n      dup3\n      add\n      swap2\n    tag_208:\n      pop\n      pop\n      pop\n      pop\n      pop\n      swap1\n      pop\n        /* \"mainnet/0xba100000625a3754423978a60c9317c58a424e3d/SymmToken.sol\":33511:33598  function symbol() public view returns (string memory) {\r... */\n      swap1\n      jump\t// out\n        /* \"mainnet/0xba100000625a3754423978a60c9317c58a424e3d/SymmToken.sol\":54619:54761  function snapshot() public virtual {\r... */\n    tag_113:\n        /* \"mainnet/0xba100000625a3754423978a60c9317c58a424e3d/SymmToken.sol\":54673:54709  hasRole(SNAPSHOT_ROLE, _msgSender()) */\n      tag_212\n        /* \"mainnet/0xba100000625a3754423978a60c9317c58a424e3d/SymmToken.sol\":50798:50824  keccak256(\"SNAPSHOT_ROLE\") */\n      0x5fdbd35e8da83ee755d5e62a539e5ed7f47126abede0b8b10f9ea43dc6eed07f\n        /* \"mainnet/0xba100000625a3754423978a60c9317c58a424e3d/SymmToken.sol\":54696:54708  _msgSender() */\n      tag_213\n        /* \"mainnet/0xba100000625a3754423978a60c9317c58a424e3d/SymmToken.sol\":54696:54706  _msgSender */\n      tag_147\n        /* \"mainnet/0xba100000625a3754423978a60c9317c58a424e3d/SymmToken.sol\":54696:54708  _msgSender() */\n      jump\t// in\n    tag_213:\n        /* \"mainnet/0xba100000625a3754423978a60c9317c58a424e3d/SymmToken.sol\":54673:54680  hasRole */\n      tag_105\n        /* \"mainnet/0xba100000625a3754423978a60c9317c58a424e3d/SymmToken.sol\":54673:54709  hasRole(SNAPSHOT_ROLE, _msgSender()) */\n      jump\t// in\n    tag_212:\n        /* \"mainnet/0xba100000625a3754423978a60c9317c58a424e3d/SymmToken.sol\":54665:54731  require(hasRole(SNAPSHOT_ROLE, _msgSender()), \"ERR_SNAPSHOT_ROLE\") */\n      tag_214\n      jumpi\n      mload(0x40)\n      0x08c379a000000000000000000000000000000000000000000000000000000000\n      dup2\n      mstore\n      0x04\n      add\n      dup1\n      dup1\n      0x20\n      add\n      dup3\n      dup2\n      sub\n      dup3\n      mstore\n      0x11\n      dup2\n      mstore\n      0x20\n      add\n      dup1\n      0x4552525f534e415053484f545f524f4c45000000000000000000000000000000\n      dup2\n      mstore\n      pop\n      0x20\n      add\n      swap2\n      pop\n      pop\n      mload(0x40)\n      dup1\n      swap2\n      sub\n      swap1\n      revert\n    tag_214:\n        /* \"mainnet/0xba100000625a3754423978a60c9317c58a424e3d/SymmToken.sol\":54742:54753  _snapshot() */\n      tag_215\n        /* \"mainnet/0xba100000625a3754423978a60c9317c58a424e3d/SymmToken.sol\":54742:54751  _snapshot */\n      tag_216\n        /* \"mainnet/0xba100000625a3754423978a60c9317c58a424e3d/SymmToken.sol\":54742:54753  _snapshot() */\n      jump\t// in\n    tag_215:\n      pop\n        /* \"mainnet/0xba100000625a3754423978a60c9317c58a424e3d/SymmToken.sol\":54619:54761  function snapshot() public virtual {\r... */\n      jump\t// out\n        /* \"mainnet/0xba100000625a3754423978a60c9317c58a424e3d/SymmToken.sol\":46773:46998  function totalSupplyAt(uint256 snapshotId) public view returns(uint256) {\r... */\n    tag_116:\n        /* \"mainnet/0xba100000625a3754423978a60c9317c58a424e3d/SymmToken.sol\":46836:46843  uint256 */\n      0x00\n        /* \"mainnet/0xba100000625a3754423978a60c9317c58a424e3d/SymmToken.sol\":46857:46873  bool snapshotted */\n      dup1\n        /* \"mainnet/0xba100000625a3754423978a60c9317c58a424e3d/SymmToken.sol\":46875:46888  uint256 value */\n      0x00\n        /* \"mainnet/0xba100000625a3754423978a60c9317c58a424e3d/SymmToken.sol\":46892:46935  _valueAt(snapshotId, _totalSupplySnapshots) */\n      tag_218\n        /* \"mainnet/0xba100000625a3754423978a60c9317c58a424e3d/SymmToken.sol\":46901:46911  snapshotId */\n      dup5\n        /* \"mainnet/0xba100000625a3754423978a60c9317c58a424e3d/SymmToken.sol\":46913:46934  _totalSupplySnapshots */\n      0x08\n        /* \"mainnet/0xba100000625a3754423978a60c9317c58a424e3d/SymmToken.sol\":46892:46900  _valueAt */\n      tag_189\n        /* \"mainnet/0xba100000625a3754423978a60c9317c58a424e3d/SymmToken.sol\":46892:46935  _valueAt(snapshotId, _totalSupplySnapshots) */\n      jump\t// in\n    tag_218:\n        /* \"mainnet/0xba100000625a3754423978a60c9317c58a424e3d/SymmToken.sol\":46856:46935  (bool snapshotted, uint256 value) = _valueAt(snapshotId, _totalSupplySnapshots) */\n      swap2\n      pop\n      swap2\n      pop\n        /* \"mainnet/0xba100000625a3754423978a60c9317c58a424e3d/SymmToken.sol\":46955:46966  snapshotted */\n      dup2\n        /* \"mainnet/0xba100000625a3754423978a60c9317c58a424e3d/SymmToken.sol\":46955:46990  snapshotted ? value : totalSupply() */\n      tag_219\n      jumpi\n        /* \"mainnet/0xba100000625a3754423978a60c9317c58a424e3d/SymmToken.sol\":46977:46990  totalSupply() */\n      tag_220\n        /* \"mainnet/0xba100000625a3754423978a60c9317c58a424e3d/SymmToken.sol\":46977:46988  totalSupply */\n      tag_52\n        /* \"mainnet/0xba100000625a3754423978a60c9317c58a424e3d/SymmToken.sol\":46977:46990  totalSupply() */\n      jump\t// in\n    tag_220:\n        /* \"mainnet/0xba100000625a3754423978a60c9317c58a424e3d/SymmToken.sol\":46955:46990  snapshotted ? value : totalSupply() */\n      jump(tag_221)\n    tag_219:\n        /* \"mainnet/0xba100000625a3754423978a60c9317c58a424e3d/SymmToken.sol\":46969:46974  value */\n      dup1\n        /* \"mainnet/0xba100000625a3754423978a60c9317c58a424e3d/SymmToken.sol\":46955:46990  snapshotted ? value : totalSupply() */\n    tag_221:\n        /* \"mainnet/0xba100000625a3754423978a60c9317c58a424e3d/SymmToken.sol\":46948:46990  return snapshotted ? value : totalSupply() */\n      swap3\n      pop\n      pop\n      pop\n        /* \"mainnet/0xba100000625a3754423978a60c9317c58a424e3d/SymmToken.sol\":46773:46998  function totalSupplyAt(uint256 snapshotId) public view returns(uint256) {\r... */\n      swap2\n      swap1\n      pop\n      jump\t// out\n        /* \"mainnet/0xba100000625a3754423978a60c9317c58a424e3d/SymmToken.sol\":13692:13741  bytes32 public constant DEFAULT_ADMIN_ROLE = 0x00 */\n    tag_118:\n        /* \"mainnet/0xba100000625a3754423978a60c9317c58a424e3d/SymmToken.sol\":13737:13741  0x00 */\n      0x00\n        /* \"mainnet/0xba100000625a3754423978a60c9317c58a424e3d/SymmToken.sol\":13692:13741  bytes32 public constant DEFAULT_ADMIN_ROLE = 0x00 */\n      dup1\n      shl\n      dup2\n      jump\t// out\n        /* \"mainnet/0xba100000625a3754423978a60c9317c58a424e3d/SymmToken.sol\":37509:37778  function decreaseAllowance(address spender, uint256 subtractedValue) public virtual returns (bool) {\r... */\n    tag_121:\n        /* \"mainnet/0xba100000625a3754423978a60c9317c58a424e3d/SymmToken.sol\":37602:37606  bool */\n      0x00\n        /* \"mainnet/0xba100000625a3754423978a60c9317c58a424e3d/SymmToken.sol\":37619:37748  _approve(_msgSender(), spender, _allowances[_msgSender()][spender].sub(subtractedValue, \"ERC20: decreased allowance below zero\")) */\n      tag_223\n        /* \"mainnet/0xba100000625a3754423978a60c9317c58a424e3d/SymmToken.sol\":37628:37640  _msgSender() */\n      tag_224\n        /* \"mainnet/0xba100000625a3754423978a60c9317c58a424e3d/SymmToken.sol\":37628:37638  _msgSender */\n      tag_147\n        /* \"mainnet/0xba100000625a3754423978a60c9317c58a424e3d/SymmToken.sol\":37628:37640  _msgSender() */\n      jump\t// in\n    tag_224:\n        /* \"mainnet/0xba100000625a3754423978a60c9317c58a424e3d/SymmToken.sol\":37642:37649  spender */\n      dup5\n        /* \"mainnet/0xba100000625a3754423978a60c9317c58a424e3d/SymmToken.sol\":37651:37747  _allowances[_msgSender()][spender].sub(subtractedValue, \"ERC20: decreased allowance below zero\") */\n      tag_225\n        /* \"mainnet/0xba100000625a3754423978a60c9317c58a424e3d/SymmToken.sol\":37690:37705  subtractedValue */\n      dup6\n        /* \"mainnet/0xba100000625a3754423978a60c9317c58a424e3d/SymmToken.sol\":37651:37747  _allowances[_msgSender()][spender].sub(subtractedValue, \"ERC20: decreased allowance below zero\") */\n      mload(0x40)\n      dup1\n      0x60\n      add\n      0x40\n      mstore\n      dup1\n      0x25\n      dup2\n      mstore\n      0x20\n      add\n      data_f8b476f7d28209d77d4a4ac1fe36b9f8259aa1bb6bddfa6e89de7e51615cf8a8\n      0x25\n      swap2\n      codecopy\n        /* \"mainnet/0xba100000625a3754423978a60c9317c58a424e3d/SymmToken.sol\":37651:37662  _allowances */\n      0x02\n        /* \"mainnet/0xba100000625a3754423978a60c9317c58a424e3d/SymmToken.sol\":37651:37676  _allowances[_msgSender()] */\n      0x00\n        /* \"mainnet/0xba100000625a3754423978a60c9317c58a424e3d/SymmToken.sol\":37663:37675  _msgSender() */\n      tag_226\n        /* \"mainnet/0xba100000625a3754423978a60c9317c58a424e3d/SymmToken.sol\":37663:37673  _msgSender */\n      tag_147\n        /* \"mainnet/0xba100000625a3754423978a60c9317c58a424e3d/SymmToken.sol\":37663:37675  _msgSender() */\n      jump\t// in\n    tag_226:\n        /* \"mainnet/0xba100000625a3754423978a60c9317c58a424e3d/SymmToken.sol\":37651:37676  _allowances[_msgSender()] */\n      0xffffffffffffffffffffffffffffffffffffffff\n      and\n      0xffffffffffffffffffffffffffffffffffffffff\n      and\n      dup2\n      mstore\n      0x20\n      add\n      swap1\n      dup2\n      mstore\n      0x20\n      add\n      0x00\n      keccak256\n        /* \"mainnet/0xba100000625a3754423978a60c9317c58a424e3d/SymmToken.sol\":37651:37685  _allowances[_msgSender()][spender] */\n      0x00\n        /* \"mainnet/0xba100000625a3754423978a60c9317c58a424e3d/SymmToken.sol\":37677:37684  spender */\n      dup11\n        /* \"mainnet/0xba100000625a3754423978a60c9317c58a424e3d/SymmToken.sol\":37651:37685  _allowances[_msgSender()][spender] */\n      0xffffffffffffffffffffffffffffffffffffffff\n      and\n      0xffffffffffffffffffffffffffffffffffffffff\n      and\n      dup2\n      mstore\n      0x20\n      add\n      swap1\n      dup2\n      mstore\n      0x20\n      add\n      0x00\n      keccak256\n      sload\n        /* \"mainnet/0xba100000625a3754423978a60c9317c58a424e3d/SymmToken.sol\":37651:37689  _allowances[_msgSender()][spender].sub */\n      tag_157\n      swap1\n        /* \"mainnet/0xba100000625a3754423978a60c9317c58a424e3d/SymmToken.sol\":37651:37747  _allowances[_msgSender()][spender].sub(subtractedValue, \"ERC20: decreased allowance below zero\") */\n      swap3\n      swap2\n      swap1\n      0xffffffff\n      and\n      jump\t// in\n    tag_225:\n        /* \"mainnet/0xba100000625a3754423978a60c9317c58a424e3d/SymmToken.sol\":37619:37627  _approve */\n      tag_148\n        /* \"mainnet/0xba100000625a3754423978a60c9317c58a424e3d/SymmToken.sol\":37619:37748  _approve(_msgSender(), spender, _allowances[_msgSender()][spender].sub(subtractedValue, \"ERC20: decreased allowance below zero\")) */\n      jump\t// in\n    tag_223:\n        /* \"mainnet/0xba100000625a3754423978a60c9317c58a424e3d/SymmToken.sol\":37766:37770  true */\n      0x01\n        /* \"mainnet/0xba100000625a3754423978a60c9317c58a424e3d/SymmToken.sol\":37759:37770  return true */\n      swap1\n      pop\n        /* \"mainnet/0xba100000625a3754423978a60c9317c58a424e3d/SymmToken.sol\":37509:37778  function decreaseAllowance(address spender, uint256 subtractedValue) public virtual returns (bool) {\r... */\n      swap3\n      swap2\n      pop\n      pop\n      jump\t// out\n        /* \"mainnet/0xba100000625a3754423978a60c9317c58a424e3d/SymmToken.sol\":34879:35054  function transfer(address recipient, uint256 amount) public virtual override returns (bool) {\r... */\n    tag_124:\n        /* \"mainnet/0xba100000625a3754423978a60c9317c58a424e3d/SymmToken.sol\":34965:34969  bool */\n      0x00\n        /* \"mainnet/0xba100000625a3754423978a60c9317c58a424e3d/SymmToken.sol\":34982:35024  _transfer(_msgSender(), recipient, amount) */\n      tag_228\n        /* \"mainnet/0xba100000625a3754423978a60c9317c58a424e3d/SymmToken.sol\":34992:35004  _msgSender() */\n      tag_229\n        /* \"mainnet/0xba100000625a3754423978a60c9317c58a424e3d/SymmToken.sol\":34992:35002  _msgSender */\n      tag_147\n        /* \"mainnet/0xba100000625a3754423978a60c9317c58a424e3d/SymmToken.sol\":34992:35004  _msgSender() */\n      jump\t// in\n    tag_229:\n        /* \"mainnet/0xba100000625a3754423978a60c9317c58a424e3d/SymmToken.sol\":35006:35015  recipient */\n      dup5\n        /* \"mainnet/0xba100000625a3754423978a60c9317c58a424e3d/SymmToken.sol\":35017:35023  amount */\n      dup5\n        /* \"mainnet/0xba100000625a3754423978a60c9317c58a424e3d/SymmToken.sol\":34982:34991  _transfer */\n      tag_152\n        /* \"mainnet/0xba100000625a3754423978a60c9317c58a424e3d/SymmToken.sol\":34982:35024  _transfer(_msgSender(), recipient, amount) */\n      jump\t// in\n    tag_228:\n        /* \"mainnet/0xba100000625a3754423978a60c9317c58a424e3d/SymmToken.sol\":35042:35046  true */\n      0x01\n        /* \"mainnet/0xba100000625a3754423978a60c9317c58a424e3d/SymmToken.sol\":35035:35046  return true */\n      swap1\n      pop\n        /* \"mainnet/0xba100000625a3754423978a60c9317c58a424e3d/SymmToken.sol\":34879:35054  function transfer(address recipient, uint256 amount) public virtual override returns (bool) {\r... */\n      swap3\n      swap2\n      pop\n      pop\n      jump\t// out\n        /* \"mainnet/0xba100000625a3754423978a60c9317c58a424e3d/SymmToken.sol\":14837:14964  function getRoleMemberCount(bytes32 role) public view returns (uint256) {\r... */\n    tag_127:\n        /* \"mainnet/0xba100000625a3754423978a60c9317c58a424e3d/SymmToken.sol\":14900:14907  uint256 */\n      0x00\n        /* \"mainnet/0xba100000625a3754423978a60c9317c58a424e3d/SymmToken.sol\":14927:14956  _roles[role].members.length() */\n      tag_231\n        /* \"mainnet/0xba100000625a3754423978a60c9317c58a424e3d/SymmToken.sol\":14927:14933  _roles */\n      0x00\n        /* \"mainnet/0xba100000625a3754423978a60c9317c58a424e3d/SymmToken.sol\":14927:14939  _roles[role] */\n      dup1\n        /* \"mainnet/0xba100000625a3754423978a60c9317c58a424e3d/SymmToken.sol\":14934:14938  role */\n      dup5\n        /* \"mainnet/0xba100000625a3754423978a60c9317c58a424e3d/SymmToken.sol\":14927:14939  _roles[role] */\n      dup2\n      mstore\n      0x20\n      add\n      swap1\n      dup2\n      mstore\n      0x20\n      add\n      0x00\n      keccak256\n        /* \"mainnet/0xba100000625a3754423978a60c9317c58a424e3d/SymmToken.sol\":14927:14947  _roles[role].members */\n      0x00\n      add\n        /* \"mainnet/0xba100000625a3754423978a60c9317c58a424e3d/SymmToken.sol\":14927:14954  _roles[role].members.length */\n      tag_232\n        /* \"mainnet/0xba100000625a3754423978a60c9317c58a424e3d/SymmToken.sol\":14927:14956  _roles[role].members.length() */\n      jump\t// in\n    tag_231:\n        /* \"mainnet/0xba100000625a3754423978a60c9317c58a424e3d/SymmToken.sol\":14920:14956  return _roles[role].members.length() */\n      swap1\n      pop\n        /* \"mainnet/0xba100000625a3754423978a60c9317c58a424e3d/SymmToken.sol\":14837:14964  function getRoleMemberCount(bytes32 role) public view returns (uint256) {\r... */\n      swap2\n      swap1\n      pop\n      jump\t// out\n        /* \"mainnet/0xba100000625a3754423978a60c9317c58a424e3d/SymmToken.sol\":51963:52536  function permit(address owner, address spender, uint value, uint deadline, uint8 v, bytes32 r, bytes32 s) external {\r... */\n    tag_130:\n        /* \"mainnet/0xba100000625a3754423978a60c9317c58a424e3d/SymmToken.sol\":52116:52124  deadline */\n      dup4\n        /* \"mainnet/0xba100000625a3754423978a60c9317c58a424e3d/SymmToken.sol\":52097:52112  block.timestamp */\n      timestamp\n        /* \"mainnet/0xba100000625a3754423978a60c9317c58a424e3d/SymmToken.sol\":52097:52124  block.timestamp <= deadline */\n      gt\n      iszero\n        /* \"mainnet/0xba100000625a3754423978a60c9317c58a424e3d/SymmToken.sol\":52089:52144  require(block.timestamp <= deadline, \"ERR_EXPIRED_SIG\") */\n      tag_234\n      jumpi\n      mload(0x40)\n      0x08c379a000000000000000000000000000000000000000000000000000000000\n      dup2\n      mstore\n      0x04\n      add\n      dup1\n      dup1\n      0x20\n      add\n      dup3\n      dup2\n      sub\n      dup3\n      mstore\n      0x0f\n      dup2\n      mstore\n      0x20\n      add\n      dup1\n      0x4552525f455850495245445f5349470000000000000000000000000000000000\n      dup2\n      mstore\n      pop\n      0x20\n      add\n      swap2\n      pop\n      pop\n      mload(0x40)\n      dup1\n      swap2\n      sub\n      swap1\n      revert\n    tag_234:\n        /* \"mainnet/0xba100000625a3754423978a60c9317c58a424e3d/SymmToken.sol\":52155:52169  bytes32 digest */\n      0x00\n        /* \"mainnet/0xba100000625a3754423978a60c9317c58a424e3d/SymmToken.sol\":52238:52244  0x1901 */\n      0x1901\n        /* \"mainnet/0xba100000625a3754423978a60c9317c58a424e3d/SymmToken.sol\":52264:52280  DOMAIN_SEPARATOR */\n      immutable(\"0x8d7b82dfbbe5408bd9a69a62646560468f7c7f2dca6810985bf39c40f0bae974\")\n        /* \"mainnet/0xba100000625a3754423978a60c9317c58a424e3d/SymmToken.sol\":52320:52335  PERMIT_TYPEHASH */\n      immutable(\"0x667a84acaf245040ec9efc3710c3f6af76fb40f6fe2dcbec23ceb823be93d270\")\n        /* \"mainnet/0xba100000625a3754423978a60c9317c58a424e3d/SymmToken.sol\":52337:52342  owner */\n      dup11\n        /* \"mainnet/0xba100000625a3754423978a60c9317c58a424e3d/SymmToken.sol\":52344:52351  spender */\n      dup11\n        /* \"mainnet/0xba100000625a3754423978a60c9317c58a424e3d/SymmToken.sol\":52353:52358  value */\n      dup11\n        /* \"mainnet/0xba100000625a3754423978a60c9317c58a424e3d/SymmToken.sol\":52360:52366  nonces */\n      0x0b\n        /* \"mainnet/0xba100000625a3754423978a60c9317c58a424e3d/SymmToken.sol\":52360:52373  nonces[owner] */\n      0x00\n        /* \"mainnet/0xba100000625a3754423978a60c9317c58a424e3d/SymmToken.sol\":52367:52372  owner */\n      dup16\n        /* \"mainnet/0xba100000625a3754423978a60c9317c58a424e3d/SymmToken.sol\":52360:52373  nonces[owner] */\n      0xffffffffffffffffffffffffffffffffffffffff\n      and\n      0xffffffffffffffffffffffffffffffffffffffff\n      and\n      dup2\n      mstore\n      0x20\n      add\n      swap1\n      dup2\n      mstore\n      0x20\n      add\n      0x00\n      keccak256\n      0x00\n        /* \"mainnet/0xba100000625a3754423978a60c9317c58a424e3d/SymmToken.sol\":52360:52375  nonces[owner]++ */\n      dup2\n      sload\n      dup1\n      swap3\n      swap2\n      swap1\n      0x01\n      add\n      swap2\n      swap1\n      pop\n      sstore\n        /* \"mainnet/0xba100000625a3754423978a60c9317c58a424e3d/SymmToken.sol\":52377:52385  deadline */\n      dup12\n        /* \"mainnet/0xba100000625a3754423978a60c9317c58a424e3d/SymmToken.sol\":52309:52386  abi.encode(PERMIT_TYPEHASH, owner, spender, value, nonces[owner]++, deadline) */\n      add(0x20, mload(0x40))\n      dup1\n      dup8\n      dup2\n      mstore\n      0x20\n      add\n      dup7\n      0xffffffffffffffffffffffffffffffffffffffff\n      and\n      dup2\n      mstore\n      0x20\n      add\n      dup6\n      0xffffffffffffffffffffffffffffffffffffffff\n      and\n      dup2\n      mstore\n      0x20\n      add\n      dup5\n      dup2\n      mstore\n      0x20\n      add\n      dup4\n      dup2\n      mstore\n      0x20\n      add\n      dup3\n      dup2\n      mstore\n      0x20\n      add\n      swap7\n      pop\n      pop\n      pop\n      pop\n      pop\n      pop\n      pop\n      mload(0x40)\n      0x20\n      dup2\n      dup4\n      sub\n      sub\n      dup2\n      mstore\n      swap1\n      0x40\n      mstore\n        /* \"mainnet/0xba100000625a3754423978a60c9317c58a424e3d/SymmToken.sol\":52299:52387  keccak256(abi.encode(PERMIT_TYPEHASH, owner, spender, value, nonces[owner]++, deadline)) */\n      dup1\n      mload\n      swap1\n      0x20\n      add\n      keccak256\n        /* \"mainnet/0xba100000625a3754423978a60c9317c58a424e3d/SymmToken.sol\":52196:52402  abi.encodePacked(\r... */\n      add(0x20, mload(0x40))\n      dup1\n      dup5\n      0xffff\n      and\n      0xf0\n      shl\n      dup2\n      mstore\n      0x02\n      add\n      dup4\n      dup2\n      mstore\n      0x20\n      add\n      dup3\n      dup2\n      mstore\n      0x20\n      add\n      swap4\n      pop\n      pop\n      pop\n      pop\n      mload(0x40)\n      0x20\n      dup2\n      dup4\n      sub\n      sub\n      dup2\n      mstore\n      swap1\n      0x40\n      mstore\n        /* \"mainnet/0xba100000625a3754423978a60c9317c58a424e3d/SymmToken.sol\":52172:52413  keccak256(\r... */\n      dup1\n      mload\n      swap1\n      0x20\n      add\n      keccak256\n        /* \"mainnet/0xba100000625a3754423978a60c9317c58a424e3d/SymmToken.sol\":52155:52413  bytes32 digest = keccak256(\r... */\n      swap1\n      pop\n        /* \"mainnet/0xba100000625a3754423978a60c9317c58a424e3d/SymmToken.sol\":52441:52466  _recover(digest, v, r, s) */\n      tag_235\n        /* \"mainnet/0xba100000625a3754423978a60c9317c58a424e3d/SymmToken.sol\":52450:52456  digest */\n      dup2\n        /* \"mainnet/0xba100000625a3754423978a60c9317c58a424e3d/SymmToken.sol\":52458:52459  v */\n      dup6\n        /* \"mainnet/0xba100000625a3754423978a60c9317c58a424e3d/SymmToken.sol\":52461:52462  r */\n      dup6\n        /* \"mainnet/0xba100000625a3754423978a60c9317c58a424e3d/SymmToken.sol\":52464:52465  s */\n      dup6\n        /* \"mainnet/0xba100000625a3754423978a60c9317c58a424e3d/SymmToken.sol\":52441:52449  _recover */\n      tag_236\n        /* \"mainnet/0xba100000625a3754423978a60c9317c58a424e3d/SymmToken.sol\":52441:52466  _recover(digest, v, r, s) */\n      jump\t// in\n    tag_235:\n        /* \"mainnet/0xba100000625a3754423978a60c9317c58a424e3d/SymmToken.sol\":52432:52466  owner == _recover(digest, v, r, s) */\n      0xffffffffffffffffffffffffffffffffffffffff\n      and\n        /* \"mainnet/0xba100000625a3754423978a60c9317c58a424e3d/SymmToken.sol\":52432:52437  owner */\n      dup9\n        /* \"mainnet/0xba100000625a3754423978a60c9317c58a424e3d/SymmToken.sol\":52432:52466  owner == _recover(digest, v, r, s) */\n      0xffffffffffffffffffffffffffffffffffffffff\n      and\n      eq\n        /* \"mainnet/0xba100000625a3754423978a60c9317c58a424e3d/SymmToken.sol\":52424:52486  require(owner == _recover(digest, v, r, s), \"ERR_INVALID_SIG\") */\n      tag_237\n      jumpi\n      mload(0x40)\n      0x08c379a000000000000000000000000000000000000000000000000000000000\n      dup2\n      mstore\n      0x04\n      add\n      dup1\n      dup1\n      0x20\n      add\n      dup3\n      dup2\n      sub\n      dup3\n      mstore\n      0x0f\n      dup2\n      mstore\n      0x20\n      add\n      dup1\n      0x4552525f494e56414c49445f5349470000000000000000000000000000000000\n      dup2\n      mstore\n      pop\n      0x20\n      add\n      swap2\n      pop\n      pop\n      mload(0x40)\n      dup1\n      swap2\n      sub\n      swap1\n      revert\n    tag_237:\n        /* \"mainnet/0xba100000625a3754423978a60c9317c58a424e3d/SymmToken.sol\":52497:52528  _approve(owner, spender, value) */\n      tag_238\n        /* \"mainnet/0xba100000625a3754423978a60c9317c58a424e3d/SymmToken.sol\":52506:52511  owner */\n      dup9\n        /* \"mainnet/0xba100000625a3754423978a60c9317c58a424e3d/SymmToken.sol\":52513:52520  spender */\n      dup9\n        /* \"mainnet/0xba100000625a3754423978a60c9317c58a424e3d/SymmToken.sol\":52522:52527  value */\n      dup9\n        /* \"mainnet/0xba100000625a3754423978a60c9317c58a424e3d/SymmToken.sol\":52497:52505  _approve */\n      tag_148\n        /* \"mainnet/0xba100000625a3754423978a60c9317c58a424e3d/SymmToken.sol\":52497:52528  _approve(owner, spender, value) */\n      jump\t// in\n    tag_238:\n        /* \"mainnet/0xba100000625a3754423978a60c9317c58a424e3d/SymmToken.sol\":51963:52536  function permit(address owner, address spender, uint value, uint deadline, uint8 v, bytes32 r, bytes32 s) external {\r... */\n      pop\n      pop\n      pop\n      pop\n      pop\n      pop\n      pop\n      pop\n      jump\t// out\n        /* \"mainnet/0xba100000625a3754423978a60c9317c58a424e3d/SymmToken.sol\":50689:50751  bytes32 public constant MINTER_ROLE = keccak256(\"MINTER_ROLE\") */\n    tag_132:\n        /* \"mainnet/0xba100000625a3754423978a60c9317c58a424e3d/SymmToken.sol\":50727:50751  keccak256(\"MINTER_ROLE\") */\n      0x9f2df0fed2c77648de5860a4cc508cd0818c85b8b8a1ab4ceeef8d981c8956a6\n        /* \"mainnet/0xba100000625a3754423978a60c9317c58a424e3d/SymmToken.sol\":50689:50751  bytes32 public constant MINTER_ROLE = keccak256(\"MINTER_ROLE\") */\n      dup2\n      jump\t// out\n        /* \"mainnet/0xba100000625a3754423978a60c9317c58a424e3d/SymmToken.sol\":16738:16968  function revokeRole(bytes32 role, address account) public virtual {\r... */\n    tag_135:\n        /* \"mainnet/0xba100000625a3754423978a60c9317c58a424e3d/SymmToken.sol\":16823:16868  hasRole(_roles[role].adminRole, _msgSender()) */\n      tag_240\n        /* \"mainnet/0xba100000625a3754423978a60c9317c58a424e3d/SymmToken.sol\":16831:16837  _roles */\n      0x00\n        /* \"mainnet/0xba100000625a3754423978a60c9317c58a424e3d/SymmToken.sol\":16831:16843  _roles[role] */\n      dup1\n        /* \"mainnet/0xba100000625a3754423978a60c9317c58a424e3d/SymmToken.sol\":16838:16842  role */\n      dup5\n        /* \"mainnet/0xba100000625a3754423978a60c9317c58a424e3d/SymmToken.sol\":16831:16843  _roles[role] */\n      dup2\n      mstore\n      0x20\n      add\n      swap1\n      dup2\n      mstore\n      0x20\n      add\n      0x00\n      keccak256\n        /* \"mainnet/0xba100000625a3754423978a60c9317c58a424e3d/SymmToken.sol\":16831:16853  _roles[role].adminRole */\n      0x02\n      add\n      sload\n        /* \"mainnet/0xba100000625a3754423978a60c9317c58a424e3d/SymmToken.sol\":16855:16867  _msgSender() */\n      tag_241\n        /* \"mainnet/0xba100000625a3754423978a60c9317c58a424e3d/SymmToken.sol\":16855:16865  _msgSender */\n      tag_147\n        /* \"mainnet/0xba100000625a3754423978a60c9317c58a424e3d/SymmToken.sol\":16855:16867  _msgSender() */\n      jump\t// in\n    tag_241:\n        /* \"mainnet/0xba100000625a3754423978a60c9317c58a424e3d/SymmToken.sol\":16823:16830  hasRole */\n      tag_105\n        /* \"mainnet/0xba100000625a3754423978a60c9317c58a424e3d/SymmToken.sol\":16823:16868  hasRole(_roles[role].adminRole, _msgSender()) */\n      jump\t// in\n    tag_240:\n        /* \"mainnet/0xba100000625a3754423978a60c9317c58a424e3d/SymmToken.sol\":16815:16921  require(hasRole(_roles[role].adminRole, _msgSender()), \"AccessControl: sender must be an admin to revoke\") */\n      tag_242\n      jumpi\n      mload(0x40)\n      0x08c379a000000000000000000000000000000000000000000000000000000000\n      dup2\n      mstore\n      0x04\n      add\n      dup1\n      dup1\n      0x20\n      add\n      dup3\n      dup2\n      sub\n      dup3\n      mstore\n      0x30\n      dup2\n      mstore\n      0x20\n      add\n      dup1\n      data_64344570eab7406ca49d34d38bf2b2496dfda914405390c5057c8b0aabf798a3\n      0x30\n      swap2\n      codecopy\n      0x40\n      add\n      swap2\n      pop\n      pop\n      mload(0x40)\n      dup1\n      swap2\n      sub\n      swap1\n      revert\n    tag_242:\n        /* \"mainnet/0xba100000625a3754423978a60c9317c58a424e3d/SymmToken.sol\":16934:16960  _revokeRole(role, account) */\n      tag_243\n        /* \"mainnet/0xba100000625a3754423978a60c9317c58a424e3d/SymmToken.sol\":16946:16950  role */\n      dup3\n        /* \"mainnet/0xba100000625a3754423978a60c9317c58a424e3d/SymmToken.sol\":16952:16959  account */\n      dup3\n        /* \"mainnet/0xba100000625a3754423978a60c9317c58a424e3d/SymmToken.sol\":16934:16945  _revokeRole */\n      tag_170\n        /* \"mainnet/0xba100000625a3754423978a60c9317c58a424e3d/SymmToken.sol\":16934:16960  _revokeRole(role, account) */\n      jump\t// in\n    tag_243:\n        /* \"mainnet/0xba100000625a3754423978a60c9317c58a424e3d/SymmToken.sol\":16738:16968  function revokeRole(bytes32 role, address account) public virtual {\r... */\n      pop\n      pop\n      jump\t// out\n        /* \"mainnet/0xba100000625a3754423978a60c9317c58a424e3d/SymmToken.sol\":35117:35268  function allowance(address owner, address spender) public view virtual override returns (uint256) {\r... */\n    tag_138:\n        /* \"mainnet/0xba100000625a3754423978a60c9317c58a424e3d/SymmToken.sol\":35206:35213  uint256 */\n      0x00\n        /* \"mainnet/0xba100000625a3754423978a60c9317c58a424e3d/SymmToken.sol\":35233:35244  _allowances */\n      0x02\n        /* \"mainnet/0xba100000625a3754423978a60c9317c58a424e3d/SymmToken.sol\":35233:35251  _allowances[owner] */\n      0x00\n        /* \"mainnet/0xba100000625a3754423978a60c9317c58a424e3d/SymmToken.sol\":35245:35250  owner */\n      dup5\n        /* \"mainnet/0xba100000625a3754423978a60c9317c58a424e3d/SymmToken.sol\":35233:35251  _allowances[owner] */\n      0xffffffffffffffffffffffffffffffffffffffff\n      and\n      0xffffffffffffffffffffffffffffffffffffffff\n      and\n      dup2\n      mstore\n      0x20\n      add\n      swap1\n      dup2\n      mstore\n      0x20\n      add\n      0x00\n      keccak256\n        /* \"mainnet/0xba100000625a3754423978a60c9317c58a424e3d/SymmToken.sol\":35233:35260  _allowances[owner][spender] */\n      0x00\n        /* \"mainnet/0xba100000625a3754423978a60c9317c58a424e3d/SymmToken.sol\":35252:35259  spender */\n      dup4\n        /* \"mainnet/0xba100000625a3754423978a60c9317c58a424e3d/SymmToken.sol\":35233:35260  _allowances[owner][spender] */\n      0xffffffffffffffffffffffffffffffffffffffff\n      and\n      0xffffffffffffffffffffffffffffffffffffffff\n      and\n      dup2\n      mstore\n      0x20\n      add\n      swap1\n      dup2\n      mstore\n      0x20\n      add\n      0x00\n      keccak256\n      sload\n        /* \"mainnet/0xba100000625a3754423978a60c9317c58a424e3d/SymmToken.sol\":35226:35260  return _allowances[owner][spender] */\n      swap1\n      pop\n        /* \"mainnet/0xba100000625a3754423978a60c9317c58a424e3d/SymmToken.sol\":35117:35268  function allowance(address owner, address spender) public view virtual override returns (uint256) {\r... */\n      swap3\n      swap2\n      pop\n      pop\n      jump\t// out\n        /* \"mainnet/0xba100000625a3754423978a60c9317c58a424e3d/SymmToken.sol\":5076:5219  function add(AddressSet storage set, address value) internal returns (bool) {\r... */\n    tag_139:\n        /* \"mainnet/0xba100000625a3754423978a60c9317c58a424e3d/SymmToken.sol\":5146:5150  bool */\n      0x00\n        /* \"mainnet/0xba100000625a3754423978a60c9317c58a424e3d/SymmToken.sol\":5170:5211  _add(set._inner, bytes32(uint256(value))) */\n      tag_246\n        /* \"mainnet/0xba100000625a3754423978a60c9317c58a424e3d/SymmToken.sol\":5175:5178  set */\n      dup4\n        /* \"mainnet/0xba100000625a3754423978a60c9317c58a424e3d/SymmToken.sol\":5175:5185  set._inner */\n      0x00\n      add\n        /* \"mainnet/0xba100000625a3754423978a60c9317c58a424e3d/SymmToken.sol\":5203:5208  value */\n      dup4\n        /* \"mainnet/0xba100000625a3754423978a60c9317c58a424e3d/SymmToken.sol\":5195:5209  uint256(value) */\n      0xffffffffffffffffffffffffffffffffffffffff\n      and\n        /* \"mainnet/0xba100000625a3754423978a60c9317c58a424e3d/SymmToken.sol\":5187:5210  bytes32(uint256(value)) */\n      0x00\n      shl\n        /* \"mainnet/0xba100000625a3754423978a60c9317c58a424e3d/SymmToken.sol\":5170:5174  _add */\n      tag_247\n        /* \"mainnet/0xba100000625a3754423978a60c9317c58a424e3d/SymmToken.sol\":5170:5211  _add(set._inner, bytes32(uint256(value))) */\n      jump\t// in\n    tag_246:\n        /* \"mainnet/0xba100000625a3754423978a60c9317c58a424e3d/SymmToken.sol\":5163:5211  return _add(set._inner, bytes32(uint256(value))) */\n      swap1\n      pop\n        /* \"mainnet/0xba100000625a3754423978a60c9317c58a424e3d/SymmToken.sol\":5076:5219  function add(AddressSet storage set, address value) internal returns (bool) {\r... */\n      swap3\n      swap2\n      pop\n      pop\n      jump\t// out\n        /* \"mainnet/0xba100000625a3754423978a60c9317c58a424e3d/SymmToken.sol\":11629:11735  function _msgSender() internal view virtual returns (address payable) {\r... */\n    tag_147:\n        /* \"mainnet/0xba100000625a3754423978a60c9317c58a424e3d/SymmToken.sol\":11682:11697  address payable */\n      0x00\n        /* \"mainnet/0xba100000625a3754423978a60c9317c58a424e3d/SymmToken.sol\":11717:11727  msg.sender */\n      caller\n        /* \"mainnet/0xba100000625a3754423978a60c9317c58a424e3d/SymmToken.sol\":11710:11727  return msg.sender */\n      swap1\n      pop\n        /* \"mainnet/0xba100000625a3754423978a60c9317c58a424e3d/SymmToken.sol\":11629:11735  function _msgSender() internal view virtual returns (address payable) {\r... */\n      swap1\n      jump\t// out\n        /* \"mainnet/0xba100000625a3754423978a60c9317c58a424e3d/SymmToken.sol\":40656:41002  function _approve(address owner, address spender, uint256 amount) internal virtual {\r... */\n    tag_148:\n        /* \"mainnet/0xba100000625a3754423978a60c9317c58a424e3d/SymmToken.sol\":40775:40776  0 */\n      0x00\n        /* \"mainnet/0xba100000625a3754423978a60c9317c58a424e3d/SymmToken.sol\":40758:40777  owner != address(0) */\n      0xffffffffffffffffffffffffffffffffffffffff\n      and\n        /* \"mainnet/0xba100000625a3754423978a60c9317c58a424e3d/SymmToken.sol\":40758:40763  owner */\n      dup4\n        /* \"mainnet/0xba100000625a3754423978a60c9317c58a424e3d/SymmToken.sol\":40758:40777  owner != address(0) */\n      0xffffffffffffffffffffffffffffffffffffffff\n      and\n      eq\n      iszero\n        /* \"mainnet/0xba100000625a3754423978a60c9317c58a424e3d/SymmToken.sol\":40750:40818  require(owner != address(0), \"ERC20: approve from the zero address\") */\n      tag_250\n      jumpi\n      mload(0x40)\n      0x08c379a000000000000000000000000000000000000000000000000000000000\n      dup2\n      mstore\n      0x04\n      add\n      dup1\n      dup1\n      0x20\n      add\n      dup3\n      dup2\n      sub\n      dup3\n      mstore\n      0x24\n      dup2\n      mstore\n      0x20\n      add\n      dup1\n      data_c953f4879035ed60e766b34720f656aab5c697b141d924c283124ecedb91c208\n      0x24\n      swap2\n      codecopy\n      0x40\n      add\n      swap2\n      pop\n      pop\n      mload(0x40)\n      dup1\n      swap2\n      sub\n      swap1\n      revert\n    tag_250:\n        /* \"mainnet/0xba100000625a3754423978a60c9317c58a424e3d/SymmToken.sol\":40856:40857  0 */\n      0x00\n        /* \"mainnet/0xba100000625a3754423978a60c9317c58a424e3d/SymmToken.sol\":40837:40858  spender != address(0) */\n      0xffffffffffffffffffffffffffffffffffffffff\n      and\n        /* \"mainnet/0xba100000625a3754423978a60c9317c58a424e3d/SymmToken.sol\":40837:40844  spender */\n      dup3\n        /* \"mainnet/0xba100000625a3754423978a60c9317c58a424e3d/SymmToken.sol\":40837:40858  spender != address(0) */\n      0xffffffffffffffffffffffffffffffffffffffff\n      and\n      eq\n      iszero\n        /* \"mainnet/0xba100000625a3754423978a60c9317c58a424e3d/SymmToken.sol\":40829:40897  require(spender != address(0), \"ERC20: approve to the zero address\") */\n      tag_251\n      jumpi\n      mload(0x40)\n      0x08c379a000000000000000000000000000000000000000000000000000000000\n      dup2\n      mstore\n      0x04\n      add\n      dup1\n      dup1\n      0x20\n      add\n      dup3\n      dup2\n      sub\n      dup3\n      mstore\n      0x22\n      dup2\n      mstore\n      0x20\n      add\n      dup1\n      data_24883cc5fe64ace9d0df1893501ecb93c77180f0ff69cca79affb3c316dc8029\n      0x22\n      swap2\n      codecopy\n      0x40\n      add\n      swap2\n      pop\n      pop\n      mload(0x40)\n      dup1\n      swap2\n      sub\n      swap1\n      revert\n    tag_251:\n        /* \"mainnet/0xba100000625a3754423978a60c9317c58a424e3d/SymmToken.sol\":40940:40946  amount */\n      dup1\n        /* \"mainnet/0xba100000625a3754423978a60c9317c58a424e3d/SymmToken.sol\":40910:40921  _allowances */\n      0x02\n        /* \"mainnet/0xba100000625a3754423978a60c9317c58a424e3d/SymmToken.sol\":40910:40928  _allowances[owner] */\n      0x00\n        /* \"mainnet/0xba100000625a3754423978a60c9317c58a424e3d/SymmToken.sol\":40922:40927  owner */\n      dup6\n        /* \"mainnet/0xba100000625a3754423978a60c9317c58a424e3d/SymmToken.sol\":40910:40928  _allowances[owner] */\n      0xffffffffffffffffffffffffffffffffffffffff\n      and\n      0xffffffffffffffffffffffffffffffffffffffff\n      and\n      dup2\n      mstore\n      0x20\n      add\n      swap1\n      dup2\n      mstore\n      0x20\n      add\n      0x00\n      keccak256\n        /* \"mainnet/0xba100000625a3754423978a60c9317c58a424e3d/SymmToken.sol\":40910:40937  _allowances[owner][spender] */\n      0x00\n        /* \"mainnet/0xba100000625a3754423978a60c9317c58a424e3d/SymmToken.sol\":40929:40936  spender */\n      dup5\n        /* \"mainnet/0xba100000625a3754423978a60c9317c58a424e3d/SymmToken.sol\":40910:40937  _allowances[owner][spender] */\n      0xffffffffffffffffffffffffffffffffffffffff\n      and\n      0xffffffffffffffffffffffffffffffffffffffff\n      and\n      dup2\n      mstore\n      0x20\n      add\n      swap1\n      dup2\n      mstore\n      0x20\n      add\n      0x00\n      keccak256\n        /* \"mainnet/0xba100000625a3754423978a60c9317c58a424e3d/SymmToken.sol\":40910:40946  _allowances[owner][spender] = amount */\n      dup2\n      swap1\n      sstore\n      pop\n        /* \"mainnet/0xba100000625a3754423978a60c9317c58a424e3d/SymmToken.sol\":40978:40985  spender */\n      dup2\n        /* \"mainnet/0xba100000625a3754423978a60c9317c58a424e3d/SymmToken.sol\":40962:40994  Approval(owner, spender, amount) */\n      0xffffffffffffffffffffffffffffffffffffffff\n      and\n        /* \"mainnet/0xba100000625a3754423978a60c9317c58a424e3d/SymmToken.sol\":40971:40976  owner */\n      dup4\n        /* \"mainnet/0xba100000625a3754423978a60c9317c58a424e3d/SymmToken.sol\":40962:40994  Approval(owner, spender, amount) */\n      0xffffffffffffffffffffffffffffffffffffffff\n      and\n      0x8c5be1e5ebec7d5bd14f71427d1e84f3dd0314c0f7b2291e5b200ac8c7c3b925\n        /* \"mainnet/0xba100000625a3754423978a60c9317c58a424e3d/SymmToken.sol\":40987:40993  amount */\n      dup4\n        /* \"mainnet/0xba100000625a3754423978a60c9317c58a424e3d/SymmToken.sol\":40962:40994  Approval(owner, spender, amount) */\n      mload(0x40)\n      dup1\n      dup3\n      dup2\n      mstore\n      0x20\n      add\n      swap2\n      pop\n      pop\n      mload(0x40)\n      dup1\n      swap2\n      sub\n      swap1\n      log3\n        /* \"mainnet/0xba100000625a3754423978a60c9317c58a424e3d/SymmToken.sol\":40656:41002  function _approve(address owner, address spender, uint256 amount) internal virtual {\r... */\n      pop\n      pop\n      pop\n      jump\t// out\n        /* \"mainnet/0xba100000625a3754423978a60c9317c58a424e3d/SymmToken.sol\":47306:47521  function _transfer(address from, address to, uint256 value) internal virtual override {\r... */\n    tag_152:\n        /* \"mainnet/0xba100000625a3754423978a60c9317c58a424e3d/SymmToken.sol\":47403:47431  _updateAccountSnapshot(from) */\n      tag_253\n        /* \"mainnet/0xba100000625a3754423978a60c9317c58a424e3d/SymmToken.sol\":47426:47430  from */\n      dup4\n        /* \"mainnet/0xba100000625a3754423978a60c9317c58a424e3d/SymmToken.sol\":47403:47425  _updateAccountSnapshot */\n      tag_254\n        /* \"mainnet/0xba100000625a3754423978a60c9317c58a424e3d/SymmToken.sol\":47403:47431  _updateAccountSnapshot(from) */\n      jump\t// in\n    tag_253:\n        /* \"mainnet/0xba100000625a3754423978a60c9317c58a424e3d/SymmToken.sol\":47442:47468  _updateAccountSnapshot(to) */\n      tag_255\n        /* \"mainnet/0xba100000625a3754423978a60c9317c58a424e3d/SymmToken.sol\":47465:47467  to */\n      dup3\n        /* \"mainnet/0xba100000625a3754423978a60c9317c58a424e3d/SymmToken.sol\":47442:47464  _updateAccountSnapshot */\n      tag_254\n        /* \"mainnet/0xba100000625a3754423978a60c9317c58a424e3d/SymmToken.sol\":47442:47468  _updateAccountSnapshot(to) */\n      jump\t// in\n    tag_255:\n        /* \"mainnet/0xba100000625a3754423978a60c9317c58a424e3d/SymmToken.sol\":47481:47513  super._transfer(from, to, value) */\n      tag_256\n        /* \"mainnet/0xba100000625a3754423978a60c9317c58a424e3d/SymmToken.sol\":47497:47501  from */\n      dup4\n        /* \"mainnet/0xba100000625a3754423978a60c9317c58a424e3d/SymmToken.sol\":47503:47505  to */\n      dup4\n        /* \"mainnet/0xba100000625a3754423978a60c9317c58a424e3d/SymmToken.sol\":47507:47512  value */\n      dup4\n        /* \"mainnet/0xba100000625a3754423978a60c9317c58a424e3d/SymmToken.sol\":47481:47496  super._transfer */\n      tag_257\n        /* \"mainnet/0xba100000625a3754423978a60c9317c58a424e3d/SymmToken.sol\":47481:47513  super._transfer(from, to, value) */\n      jump\t// in\n    tag_256:\n        /* \"mainnet/0xba100000625a3754423978a60c9317c58a424e3d/SymmToken.sol\":47306:47521  function _transfer(address from, address to, uint256 value) internal virtual override {\r... */\n      pop\n      pop\n      pop\n      jump\t// out\n        /* \"mainnet/0xba100000625a3754423978a60c9317c58a424e3d/SymmToken.sol\":20798:20990  function sub(uint256 a, uint256 b, string memory errorMessage) internal pure returns (uint256) {\r... */\n    tag_157:\n        /* \"mainnet/0xba100000625a3754423978a60c9317c58a424e3d/SymmToken.sol\":20884:20891  uint256 */\n      0x00\n        /* \"mainnet/0xba100000625a3754423978a60c9317c58a424e3d/SymmToken.sol\":20917:20918  a */\n      dup4\n        /* \"mainnet/0xba100000625a3754423978a60c9317c58a424e3d/SymmToken.sol\":20912:20913  b */\n      dup4\n        /* \"mainnet/0xba100000625a3754423978a60c9317c58a424e3d/SymmToken.sol\":20912:20918  b <= a */\n      gt\n      iszero\n        /* \"mainnet/0xba100000625a3754423978a60c9317c58a424e3d/SymmToken.sol\":20920:20932  errorMessage */\n      dup3\n        /* \"mainnet/0xba100000625a3754423978a60c9317c58a424e3d/SymmToken.sol\":20904:20933  require(b <= a, errorMessage) */\n      swap1\n      tag_259\n      jumpi\n      mload(0x40)\n      0x08c379a000000000000000000000000000000000000000000000000000000000\n      dup2\n      mstore\n      0x04\n      add\n      dup1\n      dup1\n      0x20\n      add\n      dup3\n      dup2\n      sub\n      dup3\n      mstore\n      dup4\n      dup2\n      dup2\n      mload\n      dup2\n      mstore\n      0x20\n      add\n      swap2\n      pop\n      dup1\n      mload\n      swap1\n      0x20\n      add\n      swap1\n      dup1\n      dup4\n      dup4\n      0x00\n    tag_260:\n      dup4\n      dup2\n      lt\n      iszero\n      tag_262\n      jumpi\n      dup1\n      dup3\n      add\n      mload\n      dup2\n      dup5\n      add\n      mstore\n      0x20\n      dup2\n      add\n      swap1\n      pop\n      jump(tag_260)\n    tag_262:\n      pop\n      pop\n      pop\n      pop\n      swap1\n      pop\n      swap1\n      dup2\n      add\n      swap1\n      0x1f\n      and\n      dup1\n      iszero\n      tag_263\n      jumpi\n      dup1\n      dup3\n      sub\n      dup1\n      mload\n      0x01\n      dup4\n      0x20\n      sub\n      0x0100\n      exp\n      sub\n      not\n      and\n      dup2\n      mstore\n      0x20\n      add\n      swap2\n      pop\n    tag_263:\n      pop\n      swap3\n      pop\n      pop\n      pop\n      mload(0x40)\n      dup1\n      swap2\n      sub\n      swap1\n      revert\n    tag_259:\n      pop\n        /* \"mainnet/0xba100000625a3754423978a60c9317c58a424e3d/SymmToken.sol\":20944:20953  uint256 c */\n      0x00\n        /* \"mainnet/0xba100000625a3754423978a60c9317c58a424e3d/SymmToken.sol\":20960:20961  b */\n      dup4\n        /* \"mainnet/0xba100000625a3754423978a60c9317c58a424e3d/SymmToken.sol\":20956:20957  a */\n      dup6\n        /* \"mainnet/0xba100000625a3754423978a60c9317c58a424e3d/SymmToken.sol\":20956:20961  a - b */\n      sub\n        /* \"mainnet/0xba100000625a3754423978a60c9317c58a424e3d/SymmToken.sol\":20944:20961  uint256 c = a - b */\n      swap1\n      pop\n        /* \"mainnet/0xba100000625a3754423978a60c9317c58a424e3d/SymmToken.sol\":20981:20982  c */\n      dup1\n        /* \"mainnet/0xba100000625a3754423978a60c9317c58a424e3d/SymmToken.sol\":20974:20982  return c */\n      swap2\n      pop\n      pop\n        /* \"mainnet/0xba100000625a3754423978a60c9317c58a424e3d/SymmToken.sol\":20798:20990  function sub(uint256 a, uint256 b, string memory errorMessage) internal pure returns (uint256) {\r... */\n      swap4\n      swap3\n      pop\n      pop\n      pop\n      jump\t// out\n        /* \"mainnet/0xba100000625a3754423978a60c9317c58a424e3d/SymmToken.sol\":18595:18783  function _grantRole(bytes32 role, address account) private {\r... */\n    tag_164:\n        /* \"mainnet/0xba100000625a3754423978a60c9317c58a424e3d/SymmToken.sol\":18669:18702  _roles[role].members.add(account) */\n      tag_265\n        /* \"mainnet/0xba100000625a3754423978a60c9317c58a424e3d/SymmToken.sol\":18694:18701  account */\n      dup2\n        /* \"mainnet/0xba100000625a3754423978a60c9317c58a424e3d/SymmToken.sol\":18669:18675  _roles */\n      0x00\n        /* \"mainnet/0xba100000625a3754423978a60c9317c58a424e3d/SymmToken.sol\":18669:18681  _roles[role] */\n      dup1\n        /* \"mainnet/0xba100000625a3754423978a60c9317c58a424e3d/SymmToken.sol\":18676:18680  role */\n      dup6\n        /* \"mainnet/0xba100000625a3754423978a60c9317c58a424e3d/SymmToken.sol\":18669:18681  _roles[role] */\n      dup2\n      mstore\n      0x20\n      add\n      swap1\n      dup2\n      mstore\n      0x20\n      add\n      0x00\n      keccak256\n        /* \"mainnet/0xba100000625a3754423978a60c9317c58a424e3d/SymmToken.sol\":18669:18689  _roles[role].members */\n      0x00\n      add\n        /* \"mainnet/0xba100000625a3754423978a60c9317c58a424e3d/SymmToken.sol\":18669:18693  _roles[role].members.add */\n      tag_139\n      swap1\n        /* \"mainnet/0xba100000625a3754423978a60c9317c58a424e3d/SymmToken.sol\":18669:18702  _roles[role].members.add(account) */\n      swap2\n      swap1\n      0xffffffff\n      and\n      jump\t// in\n    tag_265:\n        /* \"mainnet/0xba100000625a3754423978a60c9317c58a424e3d/SymmToken.sol\":18665:18776  if (_roles[role].members.add(account)) {\r... */\n      iszero\n      tag_266\n      jumpi\n        /* \"mainnet/0xba100000625a3754423978a60c9317c58a424e3d/SymmToken.sol\":18751:18763  _msgSender() */\n      tag_267\n        /* \"mainnet/0xba100000625a3754423978a60c9317c58a424e3d/SymmToken.sol\":18751:18761  _msgSender */\n      tag_147\n        /* \"mainnet/0xba100000625a3754423978a60c9317c58a424e3d/SymmToken.sol\":18751:18763  _msgSender() */\n      jump\t// in\n    tag_267:\n        /* \"mainnet/0xba100000625a3754423978a60c9317c58a424e3d/SymmToken.sol\":18724:18764  RoleGranted(role, account, _msgSender()) */\n      0xffffffffffffffffffffffffffffffffffffffff\n      and\n        /* \"mainnet/0xba100000625a3754423978a60c9317c58a424e3d/SymmToken.sol\":18742:18749  account */\n      dup2\n        /* \"mainnet/0xba100000625a3754423978a60c9317c58a424e3d/SymmToken.sol\":18724:18764  RoleGranted(role, account, _msgSender()) */\n      0xffffffffffffffffffffffffffffffffffffffff\n      and\n        /* \"mainnet/0xba100000625a3754423978a60c9317c58a424e3d/SymmToken.sol\":18736:18740  role */\n      dup4\n        /* \"mainnet/0xba100000625a3754423978a60c9317c58a424e3d/SymmToken.sol\":18724:18764  RoleGranted(role, account, _msgSender()) */\n      0x2f8788117e7eff1d82e926ec794901d17c78024a50270940304540a733656f0d\n      mload(0x40)\n      mload(0x40)\n      dup1\n      swap2\n      sub\n      swap1\n      log4\n        /* \"mainnet/0xba100000625a3754423978a60c9317c58a424e3d/SymmToken.sol\":18665:18776  if (_roles[role].members.add(account)) {\r... */\n    tag_266:\n        /* \"mainnet/0xba100000625a3754423978a60c9317c58a424e3d/SymmToken.sol\":18595:18783  function _grantRole(bytes32 role, address account) private {\r... */\n      pop\n      pop\n      jump\t// out\n        /* \"mainnet/0xba100000625a3754423978a60c9317c58a424e3d/SymmToken.sol\":18791:18983  function _revokeRole(bytes32 role, address account) private {\r... */\n    tag_170:\n        /* \"mainnet/0xba100000625a3754423978a60c9317c58a424e3d/SymmToken.sol\":18866:18902  _roles[role].members.remove(account) */\n      tag_269\n        /* \"mainnet/0xba100000625a3754423978a60c9317c58a424e3d/SymmToken.sol\":18894:18901  account */\n      dup2\n        /* \"mainnet/0xba100000625a3754423978a60c9317c58a424e3d/SymmToken.sol\":18866:18872  _roles */\n      0x00\n        /* \"mainnet/0xba100000625a3754423978a60c9317c58a424e3d/SymmToken.sol\":18866:18878  _roles[role] */\n      dup1\n        /* \"mainnet/0xba100000625a3754423978a60c9317c58a424e3d/SymmToken.sol\":18873:18877  role */\n      dup6\n        /* \"mainnet/0xba100000625a3754423978a60c9317c58a424e3d/SymmToken.sol\":18866:18878  _roles[role] */\n      dup2\n      mstore\n      0x20\n      add\n      swap1\n      dup2\n      mstore\n      0x20\n      add\n      0x00\n      keccak256\n        /* \"mainnet/0xba100000625a3754423978a60c9317c58a424e3d/SymmToken.sol\":18866:18886  _roles[role].members */\n      0x00\n      add\n        /* \"mainnet/0xba100000625a3754423978a60c9317c58a424e3d/SymmToken.sol\":18866:18893  _roles[role].members.remove */\n      tag_270\n      swap1\n        /* \"mainnet/0xba100000625a3754423978a60c9317c58a424e3d/SymmToken.sol\":18866:18902  _roles[role].members.remove(account) */\n      swap2\n      swap1\n      0xffffffff\n      and\n      jump\t// in\n    tag_269:\n        /* \"mainnet/0xba100000625a3754423978a60c9317c58a424e3d/SymmToken.sol\":18862:18976  if (_roles[role].members.remove(account)) {\r... */\n      iszero\n      tag_271\n      jumpi\n        /* \"mainnet/0xba100000625a3754423978a60c9317c58a424e3d/SymmToken.sol\":18951:18963  _msgSender() */\n      tag_272\n        /* \"mainnet/0xba100000625a3754423978a60c9317c58a424e3d/SymmToken.sol\":18951:18961  _msgSender */\n      tag_147\n        /* \"mainnet/0xba100000625a3754423978a60c9317c58a424e3d/SymmToken.sol\":18951:18963  _msgSender() */\n      jump\t// in\n    tag_272:\n        /* \"mainnet/0xba100000625a3754423978a60c9317c58a424e3d/SymmToken.sol\":18924:18964  RoleRevoked(role, account, _msgSender()) */\n      0xffffffffffffffffffffffffffffffffffffffff\n      and\n        /* \"mainnet/0xba100000625a3754423978a60c9317c58a424e3d/SymmToken.sol\":18942:18949  account */\n      dup2\n        /* \"mainnet/0xba100000625a3754423978a60c9317c58a424e3d/SymmToken.sol\":18924:18964  RoleRevoked(role, account, _msgSender()) */\n      0xffffffffffffffffffffffffffffffffffffffff\n      and\n        /* \"mainnet/0xba100000625a3754423978a60c9317c58a424e3d/SymmToken.sol\":18936:18940  role */\n      dup4\n        /* \"mainnet/0xba100000625a3754423978a60c9317c58a424e3d/SymmToken.sol\":18924:18964  RoleRevoked(role, account, _msgSender()) */\n      0xf6391f5c32d9c69d2a47ea670b442974b53935d1edc7fd64eb21e047a839171b\n      mload(0x40)\n      mload(0x40)\n      dup1\n      swap2\n      sub\n      swap1\n      log4\n        /* \"mainnet/0xba100000625a3754423978a60c9317c58a424e3d/SymmToken.sol\":18862:18976  if (_roles[role].members.remove(account)) {\r... */\n    tag_271:\n        /* \"mainnet/0xba100000625a3754423978a60c9317c58a424e3d/SymmToken.sol\":18791:18983  function _revokeRole(bytes32 role, address account) private {\r... */\n      pop\n      pop\n      jump\t// out\n        /* \"mainnet/0xba100000625a3754423978a60c9317c58a424e3d/SymmToken.sol\":19911:20092  function add(uint256 a, uint256 b) internal pure returns (uint256) {\r... */\n    tag_176:\n        /* \"mainnet/0xba100000625a3754423978a60c9317c58a424e3d/SymmToken.sol\":19969:19976  uint256 */\n      0x00\n        /* \"mainnet/0xba100000625a3754423978a60c9317c58a424e3d/SymmToken.sol\":19989:19998  uint256 c */\n      dup1\n        /* \"mainnet/0xba100000625a3754423978a60c9317c58a424e3d/SymmToken.sol\":20005:20006  b */\n      dup3\n        /* \"mainnet/0xba100000625a3754423978a60c9317c58a424e3d/SymmToken.sol\":20001:20002  a */\n      dup5\n        /* \"mainnet/0xba100000625a3754423978a60c9317c58a424e3d/SymmToken.sol\":20001:20006  a + b */\n      add\n        /* \"mainnet/0xba100000625a3754423978a60c9317c58a424e3d/SymmToken.sol\":19989:20006  uint256 c = a + b */\n      swap1\n      pop\n        /* \"mainnet/0xba100000625a3754423978a60c9317c58a424e3d/SymmToken.sol\":20030:20031  a */\n      dup4\n        /* \"mainnet/0xba100000625a3754423978a60c9317c58a424e3d/SymmToken.sol\":20025:20026  c */\n      dup2\n        /* \"mainnet/0xba100000625a3754423978a60c9317c58a424e3d/SymmToken.sol\":20025:20031  c >= a */\n      lt\n      iszero\n        /* \"mainnet/0xba100000625a3754423978a60c9317c58a424e3d/SymmToken.sol\":20017:20063  require(c >= a, \"SafeMath: addition overflow\") */\n      tag_274\n      jumpi\n      mload(0x40)\n      0x08c379a000000000000000000000000000000000000000000000000000000000\n      dup2\n      mstore\n      0x04\n      add\n      dup1\n      dup1\n      0x20\n      add\n      dup3\n      dup2\n      sub\n      dup3\n      mstore\n      0x1b\n      dup2\n      mstore\n      0x20\n      add\n      dup1\n      0x536166654d6174683a206164646974696f6e206f766572666c6f770000000000\n      dup2\n      mstore\n      pop\n      0x20\n      add\n      swap2\n      pop\n      pop\n      mload(0x40)\n      dup1\n      swap2\n      sub\n      swap1\n      revert\n    tag_274:\n        /* \"mainnet/0xba100000625a3754423978a60c9317c58a424e3d/SymmToken.sol\":20083:20084  c */\n      dup1\n        /* \"mainnet/0xba100000625a3754423978a60c9317c58a424e3d/SymmToken.sol\":20076:20084  return c */\n      swap2\n      pop\n      pop\n        /* \"mainnet/0xba100000625a3754423978a60c9317c58a424e3d/SymmToken.sol\":19911:20092  function add(uint256 a, uint256 b) internal pure returns (uint256) {\r... */\n      swap3\n      swap2\n      pop\n      pop\n      jump\t// out\n        /* \"mainnet/0xba100000625a3754423978a60c9317c58a424e3d/SymmToken.sol\":47529:47731  function _mint(address account, uint256 value) internal virtual override {\r... */\n    tag_182:\n        /* \"mainnet/0xba100000625a3754423978a60c9317c58a424e3d/SymmToken.sol\":47613:47644  _updateAccountSnapshot(account) */\n      tag_276\n        /* \"mainnet/0xba100000625a3754423978a60c9317c58a424e3d/SymmToken.sol\":47636:47643  account */\n      dup3\n        /* \"mainnet/0xba100000625a3754423978a60c9317c58a424e3d/SymmToken.sol\":47613:47635  _updateAccountSnapshot */\n      tag_254\n        /* \"mainnet/0xba100000625a3754423978a60c9317c58a424e3d/SymmToken.sol\":47613:47644  _updateAccountSnapshot(account) */\n      jump\t// in\n    tag_276:\n        /* \"mainnet/0xba100000625a3754423978a60c9317c58a424e3d/SymmToken.sol\":47655:47683  _updateTotalSupplySnapshot() */\n      tag_277\n        /* \"mainnet/0xba100000625a3754423978a60c9317c58a424e3d/SymmToken.sol\":47655:47681  _updateTotalSupplySnapshot */\n      tag_278\n        /* \"mainnet/0xba100000625a3754423978a60c9317c58a424e3d/SymmToken.sol\":47655:47683  _updateTotalSupplySnapshot() */\n      jump\t// in\n    tag_277:\n        /* \"mainnet/0xba100000625a3754423978a60c9317c58a424e3d/SymmToken.sol\":47696:47723  super._mint(account, value) */\n      tag_279\n        /* \"mainnet/0xba100000625a3754423978a60c9317c58a424e3d/SymmToken.sol\":47708:47715  account */\n      dup3\n        /* \"mainnet/0xba100000625a3754423978a60c9317c58a424e3d/SymmToken.sol\":47717:47722  value */\n      dup3\n        /* \"mainnet/0xba100000625a3754423978a60c9317c58a424e3d/SymmToken.sol\":47696:47707  super._mint */\n      tag_280\n        /* \"mainnet/0xba100000625a3754423978a60c9317c58a424e3d/SymmToken.sol\":47696:47723  super._mint(account, value) */\n      jump\t// in\n    tag_279:\n        /* \"mainnet/0xba100000625a3754423978a60c9317c58a424e3d/SymmToken.sol\":47529:47731  function _mint(address account, uint256 value) internal virtual override {\r... */\n      pop\n      pop\n      jump\t// out\n        /* \"mainnet/0xba100000625a3754423978a60c9317c58a424e3d/SymmToken.sol\":47739:47941  function _burn(address account, uint256 value) internal virtual override {\r... */\n    tag_186:\n        /* \"mainnet/0xba100000625a3754423978a60c9317c58a424e3d/SymmToken.sol\":47823:47854  _updateAccountSnapshot(account) */\n      tag_282\n        /* \"mainnet/0xba100000625a3754423978a60c9317c58a424e3d/SymmToken.sol\":47846:47853  account */\n      dup3\n        /* \"mainnet/0xba100000625a3754423978a60c9317c58a424e3d/SymmToken.sol\":47823:47845  _updateAccountSnapshot */\n      tag_254\n        /* \"mainnet/0xba100000625a3754423978a60c9317c58a424e3d/SymmToken.sol\":47823:47854  _updateAccountSnapshot(account) */\n      jump\t// in\n    tag_282:\n        /* \"mainnet/0xba100000625a3754423978a60c9317c58a424e3d/SymmToken.sol\":47865:47893  _updateTotalSupplySnapshot() */\n      tag_283\n        /* \"mainnet/0xba100000625a3754423978a60c9317c58a424e3d/SymmToken.sol\":47865:47891  _updateTotalSupplySnapshot */\n      tag_278\n        /* \"mainnet/0xba100000625a3754423978a60c9317c58a424e3d/SymmToken.sol\":47865:47893  _updateTotalSupplySnapshot() */\n      jump\t// in\n    tag_283:\n        /* \"mainnet/0xba100000625a3754423978a60c9317c58a424e3d/SymmToken.sol\":47906:47933  super._burn(account, value) */\n      tag_284\n        /* \"mainnet/0xba100000625a3754423978a60c9317c58a424e3d/SymmToken.sol\":47918:47925  account */\n      dup3\n        /* \"mainnet/0xba100000625a3754423978a60c9317c58a424e3d/SymmToken.sol\":47927:47932  value */\n      dup3\n        /* \"mainnet/0xba100000625a3754423978a60c9317c58a424e3d/SymmToken.sol\":47906:47917  super._burn */\n      tag_285\n        /* \"mainnet/0xba100000625a3754423978a60c9317c58a424e3d/SymmToken.sol\":47906:47933  super._burn(account, value) */\n      jump\t// in\n    tag_284:\n        /* \"mainnet/0xba100000625a3754423978a60c9317c58a424e3d/SymmToken.sol\":47739:47941  function _burn(address account, uint256 value) internal virtual override {\r... */\n      pop\n      pop\n      jump\t// out\n        /* \"mainnet/0xba100000625a3754423978a60c9317c58a424e3d/SymmToken.sol\":47949:49641  function _valueAt(uint256 snapshotId, Snapshots storage snapshots)\r... */\n    tag_189:\n        /* \"mainnet/0xba100000625a3754423978a60c9317c58a424e3d/SymmToken.sol\":48047:48051  bool */\n      0x00\n        /* \"mainnet/0xba100000625a3754423978a60c9317c58a424e3d/SymmToken.sol\":48053:48060  uint256 */\n      dup1\n        /* \"mainnet/0xba100000625a3754423978a60c9317c58a424e3d/SymmToken.sol\":48099:48100  0 */\n      0x00\n        /* \"mainnet/0xba100000625a3754423978a60c9317c58a424e3d/SymmToken.sol\":48086:48096  snapshotId */\n      dup5\n        /* \"mainnet/0xba100000625a3754423978a60c9317c58a424e3d/SymmToken.sol\":48086:48100  snapshotId > 0 */\n      gt\n        /* \"mainnet/0xba100000625a3754423978a60c9317c58a424e3d/SymmToken.sol\":48078:48127  require(snapshotId > 0, \"ERC20Snapshot: id is 0\") */\n      tag_287\n      jumpi\n      mload(0x40)\n      0x08c379a000000000000000000000000000000000000000000000000000000000\n      dup2\n      mstore\n      0x04\n      add\n      dup1\n      dup1\n      0x20\n      add\n      dup3\n      dup2\n      sub\n      dup3\n      mstore\n      0x16\n      dup2\n      mstore\n      0x20\n      add\n      dup1\n      0x4552433230536e617073686f743a206964206973203000000000000000000000\n      dup2\n      mstore\n      pop\n      0x20\n      add\n      swap2\n      pop\n      pop\n      mload(0x40)\n      dup1\n      swap2\n      sub\n      swap1\n      revert\n    tag_287:\n        /* \"mainnet/0xba100000625a3754423978a60c9317c58a424e3d/SymmToken.sol\":48214:48242  _currentSnapshotId.current() */\n      tag_288\n        /* \"mainnet/0xba100000625a3754423978a60c9317c58a424e3d/SymmToken.sol\":48214:48232  _currentSnapshotId */\n      0x0a\n        /* \"mainnet/0xba100000625a3754423978a60c9317c58a424e3d/SymmToken.sol\":48214:48240  _currentSnapshotId.current */\n      tag_289\n        /* \"mainnet/0xba100000625a3754423978a60c9317c58a424e3d/SymmToken.sol\":48214:48242  _currentSnapshotId.current() */\n      jump\t// in\n    tag_288:\n        /* \"mainnet/0xba100000625a3754423978a60c9317c58a424e3d/SymmToken.sol\":48200:48210  snapshotId */\n      dup5\n        /* \"mainnet/0xba100000625a3754423978a60c9317c58a424e3d/SymmToken.sol\":48200:48242  snapshotId <= _currentSnapshotId.current() */\n      gt\n      iszero\n        /* \"mainnet/0xba100000625a3754423978a60c9317c58a424e3d/SymmToken.sol\":48192:48276  require(snapshotId <= _currentSnapshotId.current(), \"ERC20Snapshot: nonexistent id\") */\n      tag_290\n      jumpi\n      mload(0x40)\n      0x08c379a000000000000000000000000000000000000000000000000000000000\n      dup2\n      mstore\n      0x04\n      add\n      dup1\n      dup1\n      0x20\n      add\n      dup3\n      dup2\n      sub\n      dup3\n      mstore\n      0x1d\n      dup2\n      mstore\n      0x20\n      add\n      dup1\n      0x4552433230536e617073686f743a206e6f6e6578697374656e74206964000000\n      dup2\n      mstore\n      pop\n      0x20\n      add\n      swap2\n      pop\n      pop\n      mload(0x40)\n      dup1\n      swap2\n      sub\n      swap1\n      revert\n    tag_290:\n        /* \"mainnet/0xba100000625a3754423978a60c9317c58a424e3d/SymmToken.sol\":49415:49428  uint256 index */\n      0x00\n        /* \"mainnet/0xba100000625a3754423978a60c9317c58a424e3d/SymmToken.sol\":49431:49471  snapshots.ids.findUpperBound(snapshotId) */\n      tag_291\n        /* \"mainnet/0xba100000625a3754423978a60c9317c58a424e3d/SymmToken.sol\":49460:49470  snapshotId */\n      dup6\n        /* \"mainnet/0xba100000625a3754423978a60c9317c58a424e3d/SymmToken.sol\":49431:49440  snapshots */\n      dup6\n        /* \"mainnet/0xba100000625a3754423978a60c9317c58a424e3d/SymmToken.sol\":49431:49444  snapshots.ids */\n      0x00\n      add\n        /* \"mainnet/0xba100000625a3754423978a60c9317c58a424e3d/SymmToken.sol\":49431:49459  snapshots.ids.findUpperBound */\n      tag_292\n      swap1\n        /* \"mainnet/0xba100000625a3754423978a60c9317c58a424e3d/SymmToken.sol\":49431:49471  snapshots.ids.findUpperBound(snapshotId) */\n      swap2\n      swap1\n      0xffffffff\n      and\n      jump\t// in\n    tag_291:\n        /* \"mainnet/0xba100000625a3754423978a60c9317c58a424e3d/SymmToken.sol\":49415:49471  uint256 index = snapshots.ids.findUpperBound(snapshotId) */\n      swap1\n      pop\n        /* \"mainnet/0xba100000625a3754423978a60c9317c58a424e3d/SymmToken.sol\":49497:49506  snapshots */\n      dup4\n        /* \"mainnet/0xba100000625a3754423978a60c9317c58a424e3d/SymmToken.sol\":49497:49510  snapshots.ids */\n      0x00\n      add\n        /* \"mainnet/0xba100000625a3754423978a60c9317c58a424e3d/SymmToken.sol\":49497:49517  snapshots.ids.length */\n      dup1\n      sload\n      swap1\n      pop\n        /* \"mainnet/0xba100000625a3754423978a60c9317c58a424e3d/SymmToken.sol\":49488:49493  index */\n      dup2\n        /* \"mainnet/0xba100000625a3754423978a60c9317c58a424e3d/SymmToken.sol\":49488:49517  index == snapshots.ids.length */\n      eq\n        /* \"mainnet/0xba100000625a3754423978a60c9317c58a424e3d/SymmToken.sol\":49484:49634  if (index == snapshots.ids.length) {\r... */\n      iszero\n      tag_293\n      jumpi\n        /* \"mainnet/0xba100000625a3754423978a60c9317c58a424e3d/SymmToken.sol\":49542:49547  false */\n      0x00\n        /* \"mainnet/0xba100000625a3754423978a60c9317c58a424e3d/SymmToken.sol\":49549:49550  0 */\n      dup1\n        /* \"mainnet/0xba100000625a3754423978a60c9317c58a424e3d/SymmToken.sol\":49534:49551  return (false, 0) */\n      swap3\n      pop\n      swap3\n      pop\n      pop\n      jump(tag_286)\n        /* \"mainnet/0xba100000625a3754423978a60c9317c58a424e3d/SymmToken.sol\":49484:49634  if (index == snapshots.ids.length) {\r... */\n    tag_293:\n        /* \"mainnet/0xba100000625a3754423978a60c9317c58a424e3d/SymmToken.sol\":49592:49596  true */\n      0x01\n        /* \"mainnet/0xba100000625a3754423978a60c9317c58a424e3d/SymmToken.sol\":49598:49607  snapshots */\n      dup5\n        /* \"mainnet/0xba100000625a3754423978a60c9317c58a424e3d/SymmToken.sol\":49598:49614  snapshots.values */\n      0x01\n      add\n        /* \"mainnet/0xba100000625a3754423978a60c9317c58a424e3d/SymmToken.sol\":49615:49620  index */\n      dup3\n        /* \"mainnet/0xba100000625a3754423978a60c9317c58a424e3d/SymmToken.sol\":49598:49621  snapshots.values[index] */\n      dup2\n      sload\n      dup2\n      lt\n      tag_295\n      jumpi\n      invalid\n    tag_295:\n      swap1\n      0x00\n      mstore\n      keccak256(0x00, 0x20)\n      add\n      sload\n        /* \"mainnet/0xba100000625a3754423978a60c9317c58a424e3d/SymmToken.sol\":49584:49622  return (true, snapshots.values[index]) */\n      swap3\n      pop\n      swap3\n      pop\n      pop\n        /* \"mainnet/0xba100000625a3754423978a60c9317c58a424e3d/SymmToken.sol\":47949:49641  function _valueAt(uint256 snapshotId, Snapshots storage snapshots)\r... */\n    tag_286:\n      swap3\n      pop\n      swap3\n      swap1\n      pop\n      jump\t// out\n        /* \"mainnet/0xba100000625a3754423978a60c9317c58a424e3d/SymmToken.sol\":6335:6484  function at(AddressSet storage set, uint256 index) internal view returns (address) {\r... */\n    tag_203:\n        /* \"mainnet/0xba100000625a3754423978a60c9317c58a424e3d/SymmToken.sol\":6409:6416  address */\n      0x00\n        /* \"mainnet/0xba100000625a3754423978a60c9317c58a424e3d/SymmToken.sol\":6452:6474  _at(set._inner, index) */\n      tag_298\n        /* \"mainnet/0xba100000625a3754423978a60c9317c58a424e3d/SymmToken.sol\":6456:6459  set */\n      dup4\n        /* \"mainnet/0xba100000625a3754423978a60c9317c58a424e3d/SymmToken.sol\":6456:6466  set._inner */\n      0x00\n      add\n        /* \"mainnet/0xba100000625a3754423978a60c9317c58a424e3d/SymmToken.sol\":6468:6473  index */\n      dup4\n        /* \"mainnet/0xba100000625a3754423978a60c9317c58a424e3d/SymmToken.sol\":6452:6455  _at */\n      tag_299\n        /* \"mainnet/0xba100000625a3754423978a60c9317c58a424e3d/SymmToken.sol\":6452:6474  _at(set._inner, index) */\n      jump\t// in\n    tag_298:\n        /* \"mainnet/0xba100000625a3754423978a60c9317c58a424e3d/SymmToken.sol\":6444:6475  uint256(_at(set._inner, index)) */\n      0x00\n      shr\n        /* \"mainnet/0xba100000625a3754423978a60c9317c58a424e3d/SymmToken.sol\":6429:6476  return address(uint256(_at(set._inner, index))) */\n      swap1\n      pop\n        /* \"mainnet/0xba100000625a3754423978a60c9317c58a424e3d/SymmToken.sol\":6335:6484  function at(AddressSet storage set, uint256 index) internal view returns (address) {\r... */\n      swap3\n      swap2\n      pop\n      pop\n      jump\t// out\n        /* \"mainnet/0xba100000625a3754423978a60c9317c58a424e3d/SymmToken.sol\":5630:5788  function contains(AddressSet storage set, address value) internal view returns (bool) {\r... */\n    tag_206:\n        /* \"mainnet/0xba100000625a3754423978a60c9317c58a424e3d/SymmToken.sol\":5710:5714  bool */\n      0x00\n        /* \"mainnet/0xba100000625a3754423978a60c9317c58a424e3d/SymmToken.sol\":5734:5780  _contains(set._inner, bytes32(uint256(value))) */\n      tag_301\n        /* \"mainnet/0xba100000625a3754423978a60c9317c58a424e3d/SymmToken.sol\":5744:5747  set */\n      dup4\n        /* \"mainnet/0xba100000625a3754423978a60c9317c58a424e3d/SymmToken.sol\":5744:5754  set._inner */\n      0x00\n      add\n        /* \"mainnet/0xba100000625a3754423978a60c9317c58a424e3d/SymmToken.sol\":5772:5777  value */\n      dup4\n        /* \"mainnet/0xba100000625a3754423978a60c9317c58a424e3d/SymmToken.sol\":5764:5778  uint256(value) */\n      0xffffffffffffffffffffffffffffffffffffffff\n      and\n        /* \"mainnet/0xba100000625a3754423978a60c9317c58a424e3d/SymmToken.sol\":5756:5779  bytes32(uint256(value)) */\n      0x00\n      shl\n        /* \"mainnet/0xba100000625a3754423978a60c9317c58a424e3d/SymmToken.sol\":5734:5743  _contains */\n      tag_302\n        /* \"mainnet/0xba100000625a3754423978a60c9317c58a424e3d/SymmToken.sol\":5734:5780  _contains(set._inner, bytes32(uint256(value))) */\n      jump\t// in\n    tag_301:\n        /* \"mainnet/0xba100000625a3754423978a60c9317c58a424e3d/SymmToken.sol\":5727:5780  return _contains(set._inner, bytes32(uint256(value))) */\n      swap1\n      pop\n        /* \"mainnet/0xba100000625a3754423978a60c9317c58a424e3d/SymmToken.sol\":5630:5788  function contains(AddressSet storage set, address value) internal view returns (bool) {\r... */\n      swap3\n      swap2\n      pop\n      pop\n      jump\t// out\n        /* \"mainnet/0xba100000625a3754423978a60c9317c58a424e3d/SymmToken.sol\":46071:46299  function _snapshot() internal virtual returns (uint256) {\r... */\n    tag_216:\n        /* \"mainnet/0xba100000625a3754423978a60c9317c58a424e3d/SymmToken.sol\":46118:46125  uint256 */\n      0x00\n        /* \"mainnet/0xba100000625a3754423978a60c9317c58a424e3d/SymmToken.sol\":46138:46168  _currentSnapshotId.increment() */\n      tag_304\n        /* \"mainnet/0xba100000625a3754423978a60c9317c58a424e3d/SymmToken.sol\":46138:46156  _currentSnapshotId */\n      0x0a\n        /* \"mainnet/0xba100000625a3754423978a60c9317c58a424e3d/SymmToken.sol\":46138:46166  _currentSnapshotId.increment */\n      tag_305\n        /* \"mainnet/0xba100000625a3754423978a60c9317c58a424e3d/SymmToken.sol\":46138:46168  _currentSnapshotId.increment() */\n      jump\t// in\n    tag_304:\n        /* \"mainnet/0xba100000625a3754423978a60c9317c58a424e3d/SymmToken.sol\":46181:46198  uint256 currentId */\n      0x00\n        /* \"mainnet/0xba100000625a3754423978a60c9317c58a424e3d/SymmToken.sol\":46201:46229  _currentSnapshotId.current() */\n      tag_306\n        /* \"mainnet/0xba100000625a3754423978a60c9317c58a424e3d/SymmToken.sol\":46201:46219  _currentSnapshotId */\n      0x0a\n        /* \"mainnet/0xba100000625a3754423978a60c9317c58a424e3d/SymmToken.sol\":46201:46227  _currentSnapshotId.current */\n      tag_289\n        /* \"mainnet/0xba100000625a3754423978a60c9317c58a424e3d/SymmToken.sol\":46201:46229  _currentSnapshotId.current() */\n      jump\t// in\n    tag_306:\n        /* \"mainnet/0xba100000625a3754423978a60c9317c58a424e3d/SymmToken.sol\":46181:46229  uint256 currentId = _currentSnapshotId.current() */\n      swap1\n      pop\n        /* \"mainnet/0xba100000625a3754423978a60c9317c58a424e3d/SymmToken.sol\":46245:46264  Snapshot(currentId) */\n      0x8030e83b04d87bef53480e26263266d6ca66863aa8506aca6f2559d18aa1cb67\n        /* \"mainnet/0xba100000625a3754423978a60c9317c58a424e3d/SymmToken.sol\":46254:46263  currentId */\n      dup2\n        /* \"mainnet/0xba100000625a3754423978a60c9317c58a424e3d/SymmToken.sol\":46245:46264  Snapshot(currentId) */\n      mload(0x40)\n      dup1\n      dup3\n      dup2\n      mstore\n      0x20\n      add\n      swap2\n      pop\n      pop\n      mload(0x40)\n      dup1\n      swap2\n      sub\n      swap1\n      log1\n        /* \"mainnet/0xba100000625a3754423978a60c9317c58a424e3d/SymmToken.sol\":46282:46291  currentId */\n      dup1\n        /* \"mainnet/0xba100000625a3754423978a60c9317c58a424e3d/SymmToken.sol\":46275:46291  return currentId */\n      swap2\n      pop\n      pop\n        /* \"mainnet/0xba100000625a3754423978a60c9317c58a424e3d/SymmToken.sol\":46071:46299  function _snapshot() internal virtual returns (uint256) {\r... */\n      swap1\n      jump\t// out\n        /* \"mainnet/0xba100000625a3754423978a60c9317c58a424e3d/SymmToken.sol\":5874:5991  function length(AddressSet storage set) internal view returns (uint256) {\r... */\n    tag_232:\n        /* \"mainnet/0xba100000625a3754423978a60c9317c58a424e3d/SymmToken.sol\":5937:5944  uint256 */\n      0x00\n        /* \"mainnet/0xba100000625a3754423978a60c9317c58a424e3d/SymmToken.sol\":5964:5983  _length(set._inner) */\n      tag_308\n        /* \"mainnet/0xba100000625a3754423978a60c9317c58a424e3d/SymmToken.sol\":5972:5975  set */\n      dup3\n        /* \"mainnet/0xba100000625a3754423978a60c9317c58a424e3d/SymmToken.sol\":5972:5982  set._inner */\n      0x00\n      add\n        /* \"mainnet/0xba100000625a3754423978a60c9317c58a424e3d/SymmToken.sol\":5964:5971  _length */\n      tag_309\n        /* \"mainnet/0xba100000625a3754423978a60c9317c58a424e3d/SymmToken.sol\":5964:5983  _length(set._inner) */\n      jump\t// in\n    tag_308:\n        /* \"mainnet/0xba100000625a3754423978a60c9317c58a424e3d/SymmToken.sol\":5957:5983  return _length(set._inner) */\n      swap1\n      pop\n        /* \"mainnet/0xba100000625a3754423978a60c9317c58a424e3d/SymmToken.sol\":5874:5991  function length(AddressSet storage set) internal view returns (uint256) {\r... */\n      swap2\n      swap1\n      pop\n      jump\t// out\n        /* \"mainnet/0xba100000625a3754423978a60c9317c58a424e3d/SymmToken.sol\":52544:54035  function _recover(bytes32 hash, uint8 v, bytes32 r, bytes32 s) private pure returns (address) {\r... */\n    tag_236:\n        /* \"mainnet/0xba100000625a3754423978a60c9317c58a424e3d/SymmToken.sol\":52629:52636  address */\n      0x00\n        /* \"mainnet/0xba100000625a3754423978a60c9317c58a424e3d/SymmToken.sol\":53549:53615  0x7FFFFFFFFFFFFFFFFFFFFFFFFFFFFFFF5D576E7357A4501DDFE92F46681B20A0 */\n      0x7fffffffffffffffffffffffffffffff5d576e7357a4501ddfe92f46681b20a0\n        /* \"mainnet/0xba100000625a3754423978a60c9317c58a424e3d/SymmToken.sol\":53544:53545  s */\n      dup3\n        /* \"mainnet/0xba100000625a3754423978a60c9317c58a424e3d/SymmToken.sol\":53536:53546  uint256(s) */\n      0x00\n      shr\n        /* \"mainnet/0xba100000625a3754423978a60c9317c58a424e3d/SymmToken.sol\":53536:53615  uint256(s) > 0x7FFFFFFFFFFFFFFFFFFFFFFFFFFFFFFF5D576E7357A4501DDFE92F46681B20A0 */\n      gt\n        /* \"mainnet/0xba100000625a3754423978a60c9317c58a424e3d/SymmToken.sol\":53532:53688  if (uint256(s) > 0x7FFFFFFFFFFFFFFFFFFFFFFFFFFFFFFF5D576E7357A4501DDFE92F46681B20A0) {\r... */\n      iszero\n      tag_311\n      jumpi\n        /* \"mainnet/0xba100000625a3754423978a60c9317c58a424e3d/SymmToken.sol\":53632:53676  revert(\"ECDSA: invalid signature 's' value\") */\n      mload(0x40)\n      0x08c379a000000000000000000000000000000000000000000000000000000000\n      dup2\n      mstore\n      0x04\n      add\n      dup1\n      dup1\n      0x20\n      add\n      dup3\n      dup2\n      sub\n      dup3\n      mstore\n      0x22\n      dup2\n      mstore\n      0x20\n      add\n      dup1\n      data_520d1f787dbcafbbfc007fd2c4ecf3d2711ec587f3ee9a1215c0b646c3e530bd\n      0x22\n      swap2\n      codecopy\n      0x40\n      add\n      swap2\n      pop\n      pop\n      mload(0x40)\n      dup1\n      swap2\n      sub\n      swap1\n      revert\n        /* \"mainnet/0xba100000625a3754423978a60c9317c58a424e3d/SymmToken.sol\":53532:53688  if (uint256(s) > 0x7FFFFFFFFFFFFFFFFFFFFFFFFFFFFFFF5D576E7357A4501DDFE92F46681B20A0) {\r... */\n    tag_311:\n        /* \"mainnet/0xba100000625a3754423978a60c9317c58a424e3d/SymmToken.sol\":53709:53711  27 */\n      0x1b\n        /* \"mainnet/0xba100000625a3754423978a60c9317c58a424e3d/SymmToken.sol\":53704:53705  v */\n      dup5\n        /* \"mainnet/0xba100000625a3754423978a60c9317c58a424e3d/SymmToken.sol\":53704:53711  v != 27 */\n      0xff\n      and\n      eq\n      iszero\n        /* \"mainnet/0xba100000625a3754423978a60c9317c58a424e3d/SymmToken.sol\":53704:53722  v != 27 && v != 28 */\n      dup1\n      iszero\n      tag_312\n      jumpi\n      pop\n        /* \"mainnet/0xba100000625a3754423978a60c9317c58a424e3d/SymmToken.sol\":53720:53722  28 */\n      0x1c\n        /* \"mainnet/0xba100000625a3754423978a60c9317c58a424e3d/SymmToken.sol\":53715:53716  v */\n      dup5\n        /* \"mainnet/0xba100000625a3754423978a60c9317c58a424e3d/SymmToken.sol\":53715:53722  v != 28 */\n      0xff\n      and\n      eq\n      iszero\n        /* \"mainnet/0xba100000625a3754423978a60c9317c58a424e3d/SymmToken.sol\":53704:53722  v != 27 && v != 28 */\n    tag_312:\n        /* \"mainnet/0xba100000625a3754423978a60c9317c58a424e3d/SymmToken.sol\":53700:53795  if (v != 27 && v != 28) {\r... */\n      iszero\n      tag_313\n      jumpi\n        /* \"mainnet/0xba100000625a3754423978a60c9317c58a424e3d/SymmToken.sol\":53739:53783  revert(\"ECDSA: invalid signature 'v' value\") */\n      mload(0x40)\n      0x08c379a000000000000000000000000000000000000000000000000000000000\n      dup2\n      mstore\n      0x04\n      add\n      dup1\n      dup1\n      0x20\n      add\n      dup3\n      dup2\n      sub\n      dup3\n      mstore\n      0x22\n      dup2\n      mstore\n      0x20\n      add\n      dup1\n      data_8522ee1b53216f595394db8e80a64d9e7d9bd512c0811c18debe9f40858597e4\n      0x22\n      swap2\n      codecopy\n      0x40\n      add\n      swap2\n      pop\n      pop\n      mload(0x40)\n      dup1\n      swap2\n      sub\n      swap1\n      revert\n        /* \"mainnet/0xba100000625a3754423978a60c9317c58a424e3d/SymmToken.sol\":53700:53795  if (v != 27 && v != 28) {\r... */\n    tag_313:\n        /* \"mainnet/0xba100000625a3754423978a60c9317c58a424e3d/SymmToken.sol\":53892:53906  address signer */\n      0x00\n        /* \"mainnet/0xba100000625a3754423978a60c9317c58a424e3d/SymmToken.sol\":53909:53933  ecrecover(hash, v, r, s) */\n      0x01\n        /* \"mainnet/0xba100000625a3754423978a60c9317c58a424e3d/SymmToken.sol\":53919:53923  hash */\n      dup7\n        /* \"mainnet/0xba100000625a3754423978a60c9317c58a424e3d/SymmToken.sol\":53925:53926  v */\n      dup7\n        /* \"mainnet/0xba100000625a3754423978a60c9317c58a424e3d/SymmToken.sol\":53928:53929  r */\n      dup7\n        /* \"mainnet/0xba100000625a3754423978a60c9317c58a424e3d/SymmToken.sol\":53931:53932  s */\n      dup7\n        /* \"mainnet/0xba100000625a3754423978a60c9317c58a424e3d/SymmToken.sol\":53909:53933  ecrecover(hash, v, r, s) */\n      mload(0x40)\n      0x00\n      dup2\n      mstore\n      0x20\n      add\n      0x40\n      mstore\n      mload(0x40)\n      dup1\n      dup6\n      dup2\n      mstore\n      0x20\n      add\n      dup5\n      0xff\n      and\n      dup2\n      mstore\n      0x20\n      add\n      dup4\n      dup2\n      mstore\n      0x20\n      add\n      dup3\n      dup2\n      mstore\n      0x20\n      add\n      swap5\n      pop\n      pop\n      pop\n      pop\n      pop\n      0x20\n      mload(0x40)\n      0x20\n      dup2\n      sub\n      swap1\n      dup1\n      dup5\n      sub\n      swap1\n      dup6\n      gas\n      staticcall\n      iszero\n      dup1\n      iszero\n      tag_315\n      jumpi\n      returndatasize\n      0x00\n      dup1\n      returndatacopy\n      revert(0x00, returndatasize)\n    tag_315:\n      pop\n      pop\n      pop\n      mload(sub(mload(0x40), 0x20))\n        /* \"mainnet/0xba100000625a3754423978a60c9317c58a424e3d/SymmToken.sol\":53892:53933  address signer = ecrecover(hash, v, r, s) */\n      swap1\n      pop\n        /* \"mainnet/0xba100000625a3754423978a60c9317c58a424e3d/SymmToken.sol\":53970:53971  0 */\n      0x00\n        /* \"mainnet/0xba100000625a3754423978a60c9317c58a424e3d/SymmToken.sol\":53952:53972  signer != address(0) */\n      0xffffffffffffffffffffffffffffffffffffffff\n      and\n        /* \"mainnet/0xba100000625a3754423978a60c9317c58a424e3d/SymmToken.sol\":53952:53958  signer */\n      dup2\n        /* \"mainnet/0xba100000625a3754423978a60c9317c58a424e3d/SymmToken.sol\":53952:53972  signer != address(0) */\n      0xffffffffffffffffffffffffffffffffffffffff\n      and\n      eq\n      iszero\n        /* \"mainnet/0xba100000625a3754423978a60c9317c58a424e3d/SymmToken.sol\":53944:54001  require(signer != address(0), \"ECDSA: invalid signature\") */\n      tag_316\n      jumpi\n      mload(0x40)\n      0x08c379a000000000000000000000000000000000000000000000000000000000\n      dup2\n      mstore\n      0x04\n      add\n      dup1\n      dup1\n      0x20\n      add\n      dup3\n      dup2\n      sub\n      dup3\n      mstore\n      0x18\n      dup2\n      mstore\n      0x20\n      add\n      dup1\n      0x45434453413a20696e76616c6964207369676e61747572650000000000000000\n      dup2\n      mstore\n      pop\n      0x20\n      add\n      swap2\n      pop\n      pop\n      mload(0x40)\n      dup1\n      swap2\n      sub\n      swap1\n      revert\n    tag_316:\n        /* \"mainnet/0xba100000625a3754423978a60c9317c58a424e3d/SymmToken.sol\":54021:54027  signer */\n      dup1\n        /* \"mainnet/0xba100000625a3754423978a60c9317c58a424e3d/SymmToken.sol\":54014:54027  return signer */\n      swap2\n      pop\n      pop\n        /* \"mainnet/0xba100000625a3754423978a60c9317c58a424e3d/SymmToken.sol\":52544:54035  function _recover(bytes32 hash, uint8 v, bytes32 r, bytes32 s) private pure returns (address) {\r... */\n      swap5\n      swap4\n      pop\n      pop\n      pop\n      pop\n      jump\t// out\n        /* \"mainnet/0xba100000625a3754423978a60c9317c58a424e3d/SymmToken.sol\":1730:2144  function _add(Set storage set, bytes32 value) private returns (bool) {\r... */\n    tag_247:\n        /* \"mainnet/0xba100000625a3754423978a60c9317c58a424e3d/SymmToken.sol\":1793:1797  bool */\n      0x00\n        /* \"mainnet/0xba100000625a3754423978a60c9317c58a424e3d/SymmToken.sol\":1815:1836  _contains(set, value) */\n      tag_318\n        /* \"mainnet/0xba100000625a3754423978a60c9317c58a424e3d/SymmToken.sol\":1825:1828  set */\n      dup4\n        /* \"mainnet/0xba100000625a3754423978a60c9317c58a424e3d/SymmToken.sol\":1830:1835  value */\n      dup4\n        /* \"mainnet/0xba100000625a3754423978a60c9317c58a424e3d/SymmToken.sol\":1815:1824  _contains */\n      tag_302\n        /* \"mainnet/0xba100000625a3754423978a60c9317c58a424e3d/SymmToken.sol\":1815:1836  _contains(set, value) */\n      jump\t// in\n    tag_318:\n        /* \"mainnet/0xba100000625a3754423978a60c9317c58a424e3d/SymmToken.sol\":1810:2137  if (!_contains(set, value)) {\r... */\n      tag_319\n      jumpi\n        /* \"mainnet/0xba100000625a3754423978a60c9317c58a424e3d/SymmToken.sol\":1853:1856  set */\n      dup3\n        /* \"mainnet/0xba100000625a3754423978a60c9317c58a424e3d/SymmToken.sol\":1853:1864  set._values */\n      0x00\n      add\n        /* \"mainnet/0xba100000625a3754423978a60c9317c58a424e3d/SymmToken.sol\":1870:1875  value */\n      dup3\n        /* \"mainnet/0xba100000625a3754423978a60c9317c58a424e3d/SymmToken.sol\":1853:1876  set._values.push(value) */\n      swap1\n      dup1\n      0x01\n      dup2\n      sload\n      add\n      dup1\n      dup3\n      sstore\n      dup1\n      swap2\n      pop\n      pop\n      0x01\n      swap1\n      sub\n      swap1\n      0x00\n      mstore\n      keccak256(0x00, 0x20)\n      add\n      0x00\n      swap1\n      swap2\n      swap1\n      swap2\n      swap1\n      swap2\n      pop\n      sstore\n        /* \"mainnet/0xba100000625a3754423978a60c9317c58a424e3d/SymmToken.sol\":2036:2039  set */\n      dup3\n        /* \"mainnet/0xba100000625a3754423978a60c9317c58a424e3d/SymmToken.sol\":2036:2047  set._values */\n      0x00\n      add\n        /* \"mainnet/0xba100000625a3754423978a60c9317c58a424e3d/SymmToken.sol\":2036:2054  set._values.length */\n      dup1\n      sload\n      swap1\n      pop\n        /* \"mainnet/0xba100000625a3754423978a60c9317c58a424e3d/SymmToken.sol\":2014:2017  set */\n      dup4\n        /* \"mainnet/0xba100000625a3754423978a60c9317c58a424e3d/SymmToken.sol\":2014:2026  set._indexes */\n      0x01\n      add\n        /* \"mainnet/0xba100000625a3754423978a60c9317c58a424e3d/SymmToken.sol\":2014:2033  set._indexes[value] */\n      0x00\n        /* \"mainnet/0xba100000625a3754423978a60c9317c58a424e3d/SymmToken.sol\":2027:2032  value */\n      dup5\n        /* \"mainnet/0xba100000625a3754423978a60c9317c58a424e3d/SymmToken.sol\":2014:2033  set._indexes[value] */\n      dup2\n      mstore\n      0x20\n      add\n      swap1\n      dup2\n      mstore\n      0x20\n      add\n      0x00\n      keccak256\n        /* \"mainnet/0xba100000625a3754423978a60c9317c58a424e3d/SymmToken.sol\":2014:2054  set._indexes[value] = set._values.length */\n      dup2\n      swap1\n      sstore\n      pop\n        /* \"mainnet/0xba100000625a3754423978a60c9317c58a424e3d/SymmToken.sol\":2076:2080  true */\n      0x01\n        /* \"mainnet/0xba100000625a3754423978a60c9317c58a424e3d/SymmToken.sol\":2069:2080  return true */\n      swap1\n      pop\n      jump(tag_317)\n        /* \"mainnet/0xba100000625a3754423978a60c9317c58a424e3d/SymmToken.sol\":1810:2137  if (!_contains(set, value)) {\r... */\n    tag_319:\n        /* \"mainnet/0xba100000625a3754423978a60c9317c58a424e3d/SymmToken.sol\":2120:2125  false */\n      0x00\n        /* \"mainnet/0xba100000625a3754423978a60c9317c58a424e3d/SymmToken.sol\":2113:2125  return false */\n      swap1\n      pop\n        /* \"mainnet/0xba100000625a3754423978a60c9317c58a424e3d/SymmToken.sol\":1730:2144  function _add(Set storage set, bytes32 value) private returns (bool) {\r... */\n    tag_317:\n      swap3\n      swap2\n      pop\n      pop\n      jump\t// out\n        /* \"mainnet/0xba100000625a3754423978a60c9317c58a424e3d/SymmToken.sol\":49649:49795  function _updateAccountSnapshot(address account) private {\r... */\n    tag_254:\n        /* \"mainnet/0xba100000625a3754423978a60c9317c58a424e3d/SymmToken.sol\":49717:49787  _updateSnapshot(_accountBalanceSnapshots[account], balanceOf(account)) */\n      tag_323\n        /* \"mainnet/0xba100000625a3754423978a60c9317c58a424e3d/SymmToken.sol\":49733:49757  _accountBalanceSnapshots */\n      0x07\n        /* \"mainnet/0xba100000625a3754423978a60c9317c58a424e3d/SymmToken.sol\":49733:49766  _accountBalanceSnapshots[account] */\n      0x00\n        /* \"mainnet/0xba100000625a3754423978a60c9317c58a424e3d/SymmToken.sol\":49758:49765  account */\n      dup4\n        /* \"mainnet/0xba100000625a3754423978a60c9317c58a424e3d/SymmToken.sol\":49733:49766  _accountBalanceSnapshots[account] */\n      0xffffffffffffffffffffffffffffffffffffffff\n      and\n      0xffffffffffffffffffffffffffffffffffffffff\n      and\n      dup2\n      mstore\n      0x20\n      add\n      swap1\n      dup2\n      mstore\n      0x20\n      add\n      0x00\n      keccak256\n        /* \"mainnet/0xba100000625a3754423978a60c9317c58a424e3d/SymmToken.sol\":49768:49786  balanceOf(account) */\n      tag_324\n        /* \"mainnet/0xba100000625a3754423978a60c9317c58a424e3d/SymmToken.sol\":49778:49785  account */\n      dup4\n        /* \"mainnet/0xba100000625a3754423978a60c9317c58a424e3d/SymmToken.sol\":49768:49777  balanceOf */\n      tag_93\n        /* \"mainnet/0xba100000625a3754423978a60c9317c58a424e3d/SymmToken.sol\":49768:49786  balanceOf(account) */\n      jump\t// in\n    tag_324:\n        /* \"mainnet/0xba100000625a3754423978a60c9317c58a424e3d/SymmToken.sol\":49717:49732  _updateSnapshot */\n      tag_325\n        /* \"mainnet/0xba100000625a3754423978a60c9317c58a424e3d/SymmToken.sol\":49717:49787  _updateSnapshot(_accountBalanceSnapshots[account], balanceOf(account)) */\n      jump\t// in\n    tag_323:\n        /* \"mainnet/0xba100000625a3754423978a60c9317c58a424e3d/SymmToken.sol\":49649:49795  function _updateAccountSnapshot(address account) private {\r... */\n      pop\n      jump\t// out\n        /* \"mainnet/0xba100000625a3754423978a60c9317c58a424e3d/SymmToken.sol\":38268:38807  function _transfer(address sender, address recipient, uint256 amount) internal virtual {\r... */\n    tag_257:\n        /* \"mainnet/0xba100000625a3754423978a60c9317c58a424e3d/SymmToken.sol\":38392:38393  0 */\n      0x00\n        /* \"mainnet/0xba100000625a3754423978a60c9317c58a424e3d/SymmToken.sol\":38374:38394  sender != address(0) */\n      0xffffffffffffffffffffffffffffffffffffffff\n      and\n        /* \"mainnet/0xba100000625a3754423978a60c9317c58a424e3d/SymmToken.sol\":38374:38380  sender */\n      dup4\n        /* \"mainnet/0xba100000625a3754423978a60c9317c58a424e3d/SymmToken.sol\":38374:38394  sender != address(0) */\n      0xffffffffffffffffffffffffffffffffffffffff\n      and\n      eq\n      iszero\n        /* \"mainnet/0xba100000625a3754423978a60c9317c58a424e3d/SymmToken.sol\":38366:38436  require(sender != address(0), \"ERC20: transfer from the zero address\") */\n      tag_327\n      jumpi\n      mload(0x40)\n      0x08c379a000000000000000000000000000000000000000000000000000000000\n      dup2\n      mstore\n      0x04\n      add\n      dup1\n      dup1\n      0x20\n      add\n      dup3\n      dup2\n      sub\n      dup3\n      mstore\n      0x25\n      dup2\n      mstore\n      0x20\n      add\n      dup1\n      data_baecc556b46f4ed0f2b4cb599d60785ac8563dd2dc0a5bf12edea1c39e5e1fea\n      0x25\n      swap2\n      codecopy\n      0x40\n      add\n      swap2\n      pop\n      pop\n      mload(0x40)\n      dup1\n      swap2\n      sub\n      swap1\n      revert\n    tag_327:\n        /* \"mainnet/0xba100000625a3754423978a60c9317c58a424e3d/SymmToken.sol\":38476:38477  0 */\n      0x00\n        /* \"mainnet/0xba100000625a3754423978a60c9317c58a424e3d/SymmToken.sol\":38455:38478  recipient != address(0) */\n      0xffffffffffffffffffffffffffffffffffffffff\n      and\n        /* \"mainnet/0xba100000625a3754423978a60c9317c58a424e3d/SymmToken.sol\":38455:38464  recipient */\n      dup3\n        /* \"mainnet/0xba100000625a3754423978a60c9317c58a424e3d/SymmToken.sol\":38455:38478  recipient != address(0) */\n      0xffffffffffffffffffffffffffffffffffffffff\n      and\n      eq\n      iszero\n        /* \"mainnet/0xba100000625a3754423978a60c9317c58a424e3d/SymmToken.sol\":38447:38518  require(recipient != address(0), \"ERC20: transfer to the zero address\") */\n      tag_328\n      jumpi\n      mload(0x40)\n      0x08c379a000000000000000000000000000000000000000000000000000000000\n      dup2\n      mstore\n      0x04\n      add\n      dup1\n      dup1\n      0x20\n      add\n      dup3\n      dup2\n      sub\n      dup3\n      mstore\n      0x23\n      dup2\n      mstore\n      0x20\n      add\n      dup1\n      data_0557e210f7a69a685100a7e4e3d0a7024c546085cee28910fd17d0b081d9516f\n      0x23\n      swap2\n      codecopy\n      0x40\n      add\n      swap2\n      pop\n      pop\n      mload(0x40)\n      dup1\n      swap2\n      sub\n      swap1\n      revert\n    tag_328:\n        /* \"mainnet/0xba100000625a3754423978a60c9317c58a424e3d/SymmToken.sol\":38531:38578  _beforeTokenTransfer(sender, recipient, amount) */\n      tag_329\n        /* \"mainnet/0xba100000625a3754423978a60c9317c58a424e3d/SymmToken.sol\":38552:38558  sender */\n      dup4\n        /* \"mainnet/0xba100000625a3754423978a60c9317c58a424e3d/SymmToken.sol\":38560:38569  recipient */\n      dup4\n        /* \"mainnet/0xba100000625a3754423978a60c9317c58a424e3d/SymmToken.sol\":38571:38577  amount */\n      dup4\n        /* \"mainnet/0xba100000625a3754423978a60c9317c58a424e3d/SymmToken.sol\":38531:38551  _beforeTokenTransfer */\n      tag_330\n        /* \"mainnet/0xba100000625a3754423978a60c9317c58a424e3d/SymmToken.sol\":38531:38578  _beforeTokenTransfer(sender, recipient, amount) */\n      jump\t// in\n    tag_329:\n        /* \"mainnet/0xba100000625a3754423978a60c9317c58a424e3d/SymmToken.sol\":38611:38682  _balances[sender].sub(amount, \"ERC20: transfer amount exceeds balance\") */\n      tag_331\n        /* \"mainnet/0xba100000625a3754423978a60c9317c58a424e3d/SymmToken.sol\":38633:38639  amount */\n      dup2\n        /* \"mainnet/0xba100000625a3754423978a60c9317c58a424e3d/SymmToken.sol\":38611:38682  _balances[sender].sub(amount, \"ERC20: transfer amount exceeds balance\") */\n      mload(0x40)\n      dup1\n      0x60\n      add\n      0x40\n      mstore\n      dup1\n      0x26\n      dup2\n      mstore\n      0x20\n      add\n      data_4107e8a8b9e94bf8ff83080ddec1c0bffe897ebc2241b89d44f66b3d274088b6\n      0x26\n      swap2\n      codecopy\n        /* \"mainnet/0xba100000625a3754423978a60c9317c58a424e3d/SymmToken.sol\":38611:38620  _balances */\n      0x01\n        /* \"mainnet/0xba100000625a3754423978a60c9317c58a424e3d/SymmToken.sol\":38611:38628  _balances[sender] */\n      0x00\n        /* \"mainnet/0xba100000625a3754423978a60c9317c58a424e3d/SymmToken.sol\":38621:38627  sender */\n      dup8\n        /* \"mainnet/0xba100000625a3754423978a60c9317c58a424e3d/SymmToken.sol\":38611:38628  _balances[sender] */\n      0xffffffffffffffffffffffffffffffffffffffff\n      and\n      0xffffffffffffffffffffffffffffffffffffffff\n      and\n      dup2\n      mstore\n      0x20\n      add\n      swap1\n      dup2\n      mstore\n      0x20\n      add\n      0x00\n      keccak256\n      sload\n        /* \"mainnet/0xba100000625a3754423978a60c9317c58a424e3d/SymmToken.sol\":38611:38632  _balances[sender].sub */\n      tag_157\n      swap1\n        /* \"mainnet/0xba100000625a3754423978a60c9317c58a424e3d/SymmToken.sol\":38611:38682  _balances[sender].sub(amount, \"ERC20: transfer amount exceeds balance\") */\n      swap3\n      swap2\n      swap1\n      0xffffffff\n      and\n      jump\t// in\n    tag_331:\n        /* \"mainnet/0xba100000625a3754423978a60c9317c58a424e3d/SymmToken.sol\":38591:38600  _balances */\n      0x01\n        /* \"mainnet/0xba100000625a3754423978a60c9317c58a424e3d/SymmToken.sol\":38591:38608  _balances[sender] */\n      0x00\n        /* \"mainnet/0xba100000625a3754423978a60c9317c58a424e3d/SymmToken.sol\":38601:38607  sender */\n      dup6\n        /* \"mainnet/0xba100000625a3754423978a60c9317c58a424e3d/SymmToken.sol\":38591:38608  _balances[sender] */\n      0xffffffffffffffffffffffffffffffffffffffff\n      and\n      0xffffffffffffffffffffffffffffffffffffffff\n      and\n      dup2\n      mstore\n      0x20\n      add\n      swap1\n      dup2\n      mstore\n      0x20\n      add\n      0x00\n      keccak256\n        /* \"mainnet/0xba100000625a3754423978a60c9317c58a424e3d/SymmToken.sol\":38591:38682  _balances[sender] = _balances[sender].sub(amount, \"ERC20: transfer amount exceeds balance\") */\n      dup2\n      swap1\n      sstore\n      pop\n        /* \"mainnet/0xba100000625a3754423978a60c9317c58a424e3d/SymmToken.sol\":38716:38748  _balances[recipient].add(amount) */\n      tag_332\n        /* \"mainnet/0xba100000625a3754423978a60c9317c58a424e3d/SymmToken.sol\":38741:38747  amount */\n      dup2\n        /* \"mainnet/0xba100000625a3754423978a60c9317c58a424e3d/SymmToken.sol\":38716:38725  _balances */\n      0x01\n        /* \"mainnet/0xba100000625a3754423978a60c9317c58a424e3d/SymmToken.sol\":38716:38736  _balances[recipient] */\n      0x00\n        /* \"mainnet/0xba100000625a3754423978a60c9317c58a424e3d/SymmToken.sol\":38726:38735  recipient */\n      dup6\n        /* \"mainnet/0xba100000625a3754423978a60c9317c58a424e3d/SymmToken.sol\":38716:38736  _balances[recipient] */\n      0xffffffffffffffffffffffffffffffffffffffff\n      and\n      0xffffffffffffffffffffffffffffffffffffffff\n      and\n      dup2\n      mstore\n      0x20\n      add\n      swap1\n      dup2\n      mstore\n      0x20\n      add\n      0x00\n      keccak256\n      sload\n        /* \"mainnet/0xba100000625a3754423978a60c9317c58a424e3d/SymmToken.sol\":38716:38740  _balances[recipient].add */\n      tag_176\n      swap1\n        /* \"mainnet/0xba100000625a3754423978a60c9317c58a424e3d/SymmToken.sol\":38716:38748  _balances[recipient].add(amount) */\n      swap2\n      swap1\n      0xffffffff\n      and\n      jump\t// in\n    tag_332:\n        /* \"mainnet/0xba100000625a3754423978a60c9317c58a424e3d/SymmToken.sol\":38693:38702  _balances */\n      0x01\n        /* \"mainnet/0xba100000625a3754423978a60c9317c58a424e3d/SymmToken.sol\":38693:38713  _balances[recipient] */\n      0x00\n        /* \"mainnet/0xba100000625a3754423978a60c9317c58a424e3d/SymmToken.sol\":38703:38712  recipient */\n      dup5\n        /* \"mainnet/0xba100000625a3754423978a60c9317c58a424e3d/SymmToken.sol\":38693:38713  _balances[recipient] */\n      0xffffffffffffffffffffffffffffffffffffffff\n      and\n      0xffffffffffffffffffffffffffffffffffffffff\n      and\n      dup2\n      mstore\n      0x20\n      add\n      swap1\n      dup2\n      mstore\n      0x20\n      add\n      0x00\n      keccak256\n        /* \"mainnet/0xba100000625a3754423978a60c9317c58a424e3d/SymmToken.sol\":38693:38748  _balances[recipient] = _balances[recipient].add(amount) */\n      dup2\n      swap1\n      sstore\n      pop\n        /* \"mainnet/0xba100000625a3754423978a60c9317c58a424e3d/SymmToken.sol\":38781:38790  recipient */\n      dup2\n        /* \"mainnet/0xba100000625a3754423978a60c9317c58a424e3d/SymmToken.sol\":38764:38799  Transfer(sender, recipient, amount) */\n      0xffffffffffffffffffffffffffffffffffffffff\n      and\n        /* \"mainnet/0xba100000625a3754423978a60c9317c58a424e3d/SymmToken.sol\":38773:38779  sender */\n      dup4\n        /* \"mainnet/0xba100000625a3754423978a60c9317c58a424e3d/SymmToken.sol\":38764:38799  Transfer(sender, recipient, amount) */\n      0xffffffffffffffffffffffffffffffffffffffff\n      and\n      0xddf252ad1be2c89b69c2b068fc378daa952ba7f163c4a11628f55a4df523b3ef\n        /* \"mainnet/0xba100000625a3754423978a60c9317c58a424e3d/SymmToken.sol\":38792:38798  amount */\n      dup4\n        /* \"mainnet/0xba100000625a3754423978a60c9317c58a424e3d/SymmToken.sol\":38764:38799  Transfer(sender, recipient, amount) */\n      mload(0x40)\n      dup1\n      dup3\n      dup2\n      mstore\n      0x20\n      add\n      swap2\n      pop\n      pop\n      mload(0x40)\n      dup1\n      swap2\n      sub\n      swap1\n      log3\n        /* \"mainnet/0xba100000625a3754423978a60c9317c58a424e3d/SymmToken.sol\":38268:38807  function _transfer(address sender, address recipient, uint256 amount) internal virtual {\r... */\n      pop\n      pop\n      pop\n      jump\t// out\n        /* \"mainnet/0xba100000625a3754423978a60c9317c58a424e3d/SymmToken.sol\":5395:5544  function remove(AddressSet storage set, address value) internal returns (bool) {\r... */\n    tag_270:\n        /* \"mainnet/0xba100000625a3754423978a60c9317c58a424e3d/SymmToken.sol\":5468:5472  bool */\n      0x00\n        /* \"mainnet/0xba100000625a3754423978a60c9317c58a424e3d/SymmToken.sol\":5492:5536  _remove(set._inner, bytes32(uint256(value))) */\n      tag_334\n        /* \"mainnet/0xba100000625a3754423978a60c9317c58a424e3d/SymmToken.sol\":5500:5503  set */\n      dup4\n        /* \"mainnet/0xba100000625a3754423978a60c9317c58a424e3d/SymmToken.sol\":5500:5510  set._inner */\n      0x00\n      add\n        /* \"mainnet/0xba100000625a3754423978a60c9317c58a424e3d/SymmToken.sol\":5528:5533  value */\n      dup4\n        /* \"mainnet/0xba100000625a3754423978a60c9317c58a424e3d/SymmToken.sol\":5520:5534  uint256(value) */\n      0xffffffffffffffffffffffffffffffffffffffff\n      and\n        /* \"mainnet/0xba100000625a3754423978a60c9317c58a424e3d/SymmToken.sol\":5512:5535  bytes32(uint256(value)) */\n      0x00\n      shl\n        /* \"mainnet/0xba100000625a3754423978a60c9317c58a424e3d/SymmToken.sol\":5492:5499  _remove */\n      tag_335\n        /* \"mainnet/0xba100000625a3754423978a60c9317c58a424e3d/SymmToken.sol\":5492:5536  _remove(set._inner, bytes32(uint256(value))) */\n      jump\t// in\n    tag_334:\n        /* \"mainnet/0xba100000625a3754423978a60c9317c58a424e3d/SymmToken.sol\":5485:5536  return _remove(set._inner, bytes32(uint256(value))) */\n      swap1\n      pop\n        /* \"mainnet/0xba100000625a3754423978a60c9317c58a424e3d/SymmToken.sol\":5395:5544  function remove(AddressSet storage set, address value) internal returns (bool) {\r... */\n      swap3\n      swap2\n      pop\n      pop\n      jump\t// out\n        /* \"mainnet/0xba100000625a3754423978a60c9317c58a424e3d/SymmToken.sol\":49803:49921  function _updateTotalSupplySnapshot() private {\r... */\n    tag_278:\n        /* \"mainnet/0xba100000625a3754423978a60c9317c58a424e3d/SymmToken.sol\":49860:49913  _updateSnapshot(_totalSupplySnapshots, totalSupply()) */\n      tag_337\n        /* \"mainnet/0xba100000625a3754423978a60c9317c58a424e3d/SymmToken.sol\":49876:49897  _totalSupplySnapshots */\n      0x08\n        /* \"mainnet/0xba100000625a3754423978a60c9317c58a424e3d/SymmToken.sol\":49899:49912  totalSupply() */\n      tag_338\n        /* \"mainnet/0xba100000625a3754423978a60c9317c58a424e3d/SymmToken.sol\":49899:49910  totalSupply */\n      tag_52\n        /* \"mainnet/0xba100000625a3754423978a60c9317c58a424e3d/SymmToken.sol\":49899:49912  totalSupply() */\n      jump\t// in\n    tag_338:\n        /* \"mainnet/0xba100000625a3754423978a60c9317c58a424e3d/SymmToken.sol\":49860:49875  _updateSnapshot */\n      tag_325\n        /* \"mainnet/0xba100000625a3754423978a60c9317c58a424e3d/SymmToken.sol\":49860:49913  _updateSnapshot(_totalSupplySnapshots, totalSupply()) */\n      jump\t// in\n    tag_337:\n        /* \"mainnet/0xba100000625a3754423978a60c9317c58a424e3d/SymmToken.sol\":49803:49921  function _updateTotalSupplySnapshot() private {\r... */\n      jump\t// out\n        /* \"mainnet/0xba100000625a3754423978a60c9317c58a424e3d/SymmToken.sol\":39088:39466  function _mint(address account, uint256 amount) internal virtual {\r... */\n    tag_280:\n        /* \"mainnet/0xba100000625a3754423978a60c9317c58a424e3d/SymmToken.sol\":39191:39192  0 */\n      0x00\n        /* \"mainnet/0xba100000625a3754423978a60c9317c58a424e3d/SymmToken.sol\":39172:39193  account != address(0) */\n      0xffffffffffffffffffffffffffffffffffffffff\n      and\n        /* \"mainnet/0xba100000625a3754423978a60c9317c58a424e3d/SymmToken.sol\":39172:39179  account */\n      dup3\n        /* \"mainnet/0xba100000625a3754423978a60c9317c58a424e3d/SymmToken.sol\":39172:39193  account != address(0) */\n      0xffffffffffffffffffffffffffffffffffffffff\n      and\n      eq\n      iszero\n        /* \"mainnet/0xba100000625a3754423978a60c9317c58a424e3d/SymmToken.sol\":39164:39229  require(account != address(0), \"ERC20: mint to the zero address\") */\n      tag_340\n      jumpi\n      mload(0x40)\n      0x08c379a000000000000000000000000000000000000000000000000000000000\n      dup2\n      mstore\n      0x04\n      add\n      dup1\n      dup1\n      0x20\n      add\n      dup3\n      dup2\n      sub\n      dup3\n      mstore\n      0x1f\n      dup2\n      mstore\n      0x20\n      add\n      dup1\n      0x45524332303a206d696e7420746f20746865207a65726f206164647265737300\n      dup2\n      mstore\n      pop\n      0x20\n      add\n      swap2\n      pop\n      pop\n      mload(0x40)\n      dup1\n      swap2\n      sub\n      swap1\n      revert\n    tag_340:\n        /* \"mainnet/0xba100000625a3754423978a60c9317c58a424e3d/SymmToken.sol\":39242:39291  _beforeTokenTransfer(address(0), account, amount) */\n      tag_341\n        /* \"mainnet/0xba100000625a3754423978a60c9317c58a424e3d/SymmToken.sol\":39271:39272  0 */\n      0x00\n        /* \"mainnet/0xba100000625a3754423978a60c9317c58a424e3d/SymmToken.sol\":39275:39282  account */\n      dup4\n        /* \"mainnet/0xba100000625a3754423978a60c9317c58a424e3d/SymmToken.sol\":39284:39290  amount */\n      dup4\n        /* \"mainnet/0xba100000625a3754423978a60c9317c58a424e3d/SymmToken.sol\":39242:39262  _beforeTokenTransfer */\n      tag_330\n        /* \"mainnet/0xba100000625a3754423978a60c9317c58a424e3d/SymmToken.sol\":39242:39291  _beforeTokenTransfer(address(0), account, amount) */\n      jump\t// in\n    tag_341:\n        /* \"mainnet/0xba100000625a3754423978a60c9317c58a424e3d/SymmToken.sol\":39319:39343  _totalSupply.add(amount) */\n      tag_342\n        /* \"mainnet/0xba100000625a3754423978a60c9317c58a424e3d/SymmToken.sol\":39336:39342  amount */\n      dup2\n        /* \"mainnet/0xba100000625a3754423978a60c9317c58a424e3d/SymmToken.sol\":39319:39331  _totalSupply */\n      sload(0x03)\n        /* \"mainnet/0xba100000625a3754423978a60c9317c58a424e3d/SymmToken.sol\":39319:39335  _totalSupply.add */\n      tag_176\n      swap1\n        /* \"mainnet/0xba100000625a3754423978a60c9317c58a424e3d/SymmToken.sol\":39319:39343  _totalSupply.add(amount) */\n      swap2\n      swap1\n      0xffffffff\n      and\n      jump\t// in\n    tag_342:\n        /* \"mainnet/0xba100000625a3754423978a60c9317c58a424e3d/SymmToken.sol\":39304:39316  _totalSupply */\n      0x03\n        /* \"mainnet/0xba100000625a3754423978a60c9317c58a424e3d/SymmToken.sol\":39304:39343  _totalSupply = _totalSupply.add(amount) */\n      dup2\n      swap1\n      sstore\n      pop\n        /* \"mainnet/0xba100000625a3754423978a60c9317c58a424e3d/SymmToken.sol\":39375:39405  _balances[account].add(amount) */\n      tag_343\n        /* \"mainnet/0xba100000625a3754423978a60c9317c58a424e3d/SymmToken.sol\":39398:39404  amount */\n      dup2\n        /* \"mainnet/0xba100000625a3754423978a60c9317c58a424e3d/SymmToken.sol\":39375:39384  _balances */\n      0x01\n        /* \"mainnet/0xba100000625a3754423978a60c9317c58a424e3d/SymmToken.sol\":39375:39393  _balances[account] */\n      0x00\n        /* \"mainnet/0xba100000625a3754423978a60c9317c58a424e3d/SymmToken.sol\":39385:39392  account */\n      dup6\n        /* \"mainnet/0xba100000625a3754423978a60c9317c58a424e3d/SymmToken.sol\":39375:39393  _balances[account] */\n      0xffffffffffffffffffffffffffffffffffffffff\n      and\n      0xffffffffffffffffffffffffffffffffffffffff\n      and\n      dup2\n      mstore\n      0x20\n      add\n      swap1\n      dup2\n      mstore\n      0x20\n      add\n      0x00\n      keccak256\n      sload\n        /* \"mainnet/0xba100000625a3754423978a60c9317c58a424e3d/SymmToken.sol\":39375:39397  _balances[account].add */\n      tag_176\n      swap1\n        /* \"mainnet/0xba100000625a3754423978a60c9317c58a424e3d/SymmToken.sol\":39375:39405  _balances[account].add(amount) */\n      swap2\n      swap1\n      0xffffffff\n      and\n      jump\t// in\n    tag_343:\n        /* \"mainnet/0xba100000625a3754423978a60c9317c58a424e3d/SymmToken.sol\":39354:39363  _balances */\n      0x01\n        /* \"mainnet/0xba100000625a3754423978a60c9317c58a424e3d/SymmToken.sol\":39354:39372  _balances[account] */\n      0x00\n        /* \"mainnet/0xba100000625a3754423978a60c9317c58a424e3d/SymmToken.sol\":39364:39371  account */\n      dup5\n        /* \"mainnet/0xba100000625a3754423978a60c9317c58a424e3d/SymmToken.sol\":39354:39372  _balances[account] */\n      0xffffffffffffffffffffffffffffffffffffffff\n      and\n      0xffffffffffffffffffffffffffffffffffffffff\n      and\n      dup2\n      mstore\n      0x20\n      add\n      swap1\n      dup2\n      mstore\n      0x20\n      add\n      0x00\n      keccak256\n        /* \"mainnet/0xba100000625a3754423978a60c9317c58a424e3d/SymmToken.sol\":39354:39405  _balances[account] = _balances[account].add(amount) */\n      dup2\n      swap1\n      sstore\n      pop\n        /* \"mainnet/0xba100000625a3754423978a60c9317c58a424e3d/SymmToken.sol\":39442:39449  account */\n      dup2\n        /* \"mainnet/0xba100000625a3754423978a60c9317c58a424e3d/SymmToken.sol\":39421:39458  Transfer(address(0), account, amount) */\n      0xffffffffffffffffffffffffffffffffffffffff\n      and\n        /* \"mainnet/0xba100000625a3754423978a60c9317c58a424e3d/SymmToken.sol\":39438:39439  0 */\n      0x00\n        /* \"mainnet/0xba100000625a3754423978a60c9317c58a424e3d/SymmToken.sol\":39421:39458  Transfer(address(0), account, amount) */\n      0xffffffffffffffffffffffffffffffffffffffff\n      and\n      0xddf252ad1be2c89b69c2b068fc378daa952ba7f163c4a11628f55a4df523b3ef\n        /* \"mainnet/0xba100000625a3754423978a60c9317c58a424e3d/SymmToken.sol\":39451:39457  amount */\n      dup4\n        /* \"mainnet/0xba100000625a3754423978a60c9317c58a424e3d/SymmToken.sol\":39421:39458  Transfer(address(0), account, amount) */\n      mload(0x40)\n      dup1\n      dup3\n      dup2\n      mstore\n      0x20\n      add\n      swap2\n      pop\n      pop\n      mload(0x40)\n      dup1\n      swap2\n      sub\n      swap1\n      log3\n        /* \"mainnet/0xba100000625a3754423978a60c9317c58a424e3d/SymmToken.sol\":39088:39466  function _mint(address account, uint256 amount) internal virtual {\r... */\n      pop\n      pop\n      jump\t// out\n        /* \"mainnet/0xba100000625a3754423978a60c9317c58a424e3d/SymmToken.sol\":39798:40216  function _burn(address account, uint256 amount) internal virtual {\r... */\n    tag_285:\n        /* \"mainnet/0xba100000625a3754423978a60c9317c58a424e3d/SymmToken.sol\":39901:39902  0 */\n      0x00\n        /* \"mainnet/0xba100000625a3754423978a60c9317c58a424e3d/SymmToken.sol\":39882:39903  account != address(0) */\n      0xffffffffffffffffffffffffffffffffffffffff\n      and\n        /* \"mainnet/0xba100000625a3754423978a60c9317c58a424e3d/SymmToken.sol\":39882:39889  account */\n      dup3\n        /* \"mainnet/0xba100000625a3754423978a60c9317c58a424e3d/SymmToken.sol\":39882:39903  account != address(0) */\n      0xffffffffffffffffffffffffffffffffffffffff\n      and\n      eq\n      iszero\n        /* \"mainnet/0xba100000625a3754423978a60c9317c58a424e3d/SymmToken.sol\":39874:39941  require(account != address(0), \"ERC20: burn from the zero address\") */\n      tag_345\n      jumpi\n      mload(0x40)\n      0x08c379a000000000000000000000000000000000000000000000000000000000\n      dup2\n      mstore\n      0x04\n      add\n      dup1\n      dup1\n      0x20\n      add\n      dup3\n      dup2\n      sub\n      dup3\n      mstore\n      0x21\n      dup2\n      mstore\n      0x20\n      add\n      dup1\n      data_b16788493b576042bb52c50ed56189e0b250db113c7bfb1c3897d25cf9632d7f\n      0x21\n      swap2\n      codecopy\n      0x40\n      add\n      swap2\n      pop\n      pop\n      mload(0x40)\n      dup1\n      swap2\n      sub\n      swap1\n      revert\n    tag_345:\n        /* \"mainnet/0xba100000625a3754423978a60c9317c58a424e3d/SymmToken.sol\":39954:40003  _beforeTokenTransfer(account, address(0), amount) */\n      tag_346\n        /* \"mainnet/0xba100000625a3754423978a60c9317c58a424e3d/SymmToken.sol\":39975:39982  account */\n      dup3\n        /* \"mainnet/0xba100000625a3754423978a60c9317c58a424e3d/SymmToken.sol\":39992:39993  0 */\n      0x00\n        /* \"mainnet/0xba100000625a3754423978a60c9317c58a424e3d/SymmToken.sol\":39996:40002  amount */\n      dup4\n        /* \"mainnet/0xba100000625a3754423978a60c9317c58a424e3d/SymmToken.sol\":39954:39974  _beforeTokenTransfer */\n      tag_330\n        /* \"mainnet/0xba100000625a3754423978a60c9317c58a424e3d/SymmToken.sol\":39954:40003  _beforeTokenTransfer(account, address(0), amount) */\n      jump\t// in\n    tag_346:\n        /* \"mainnet/0xba100000625a3754423978a60c9317c58a424e3d/SymmToken.sol\":40037:40105  _balances[account].sub(amount, \"ERC20: burn amount exceeds balance\") */\n      tag_347\n        /* \"mainnet/0xba100000625a3754423978a60c9317c58a424e3d/SymmToken.sol\":40060:40066  amount */\n      dup2\n        /* \"mainnet/0xba100000625a3754423978a60c9317c58a424e3d/SymmToken.sol\":40037:40105  _balances[account].sub(amount, \"ERC20: burn amount exceeds balance\") */\n      mload(0x40)\n      dup1\n      0x60\n      add\n      0x40\n      mstore\n      dup1\n      0x22\n      dup2\n      mstore\n      0x20\n      add\n      data_149b126e7125232b4200af45303d04fba8b74653b1a295a6a561a528c33fefdd\n      0x22\n      swap2\n      codecopy\n        /* \"mainnet/0xba100000625a3754423978a60c9317c58a424e3d/SymmToken.sol\":40037:40046  _balances */\n      0x01\n        /* \"mainnet/0xba100000625a3754423978a60c9317c58a424e3d/SymmToken.sol\":40037:40055  _balances[account] */\n      0x00\n        /* \"mainnet/0xba100000625a3754423978a60c9317c58a424e3d/SymmToken.sol\":40047:40054  account */\n      dup7\n        /* \"mainnet/0xba100000625a3754423978a60c9317c58a424e3d/SymmToken.sol\":40037:40055  _balances[account] */\n      0xffffffffffffffffffffffffffffffffffffffff\n      and\n      0xffffffffffffffffffffffffffffffffffffffff\n      and\n      dup2\n      mstore\n      0x20\n      add\n      swap1\n      dup2\n      mstore\n      0x20\n      add\n      0x00\n      keccak256\n      sload\n        /* \"mainnet/0xba100000625a3754423978a60c9317c58a424e3d/SymmToken.sol\":40037:40059  _balances[account].sub */\n      tag_157\n      swap1\n        /* \"mainnet/0xba100000625a3754423978a60c9317c58a424e3d/SymmToken.sol\":40037:40105  _balances[account].sub(amount, \"ERC20: burn amount exceeds balance\") */\n      swap3\n      swap2\n      swap1\n      0xffffffff\n      and\n      jump\t// in\n    tag_347:\n        /* \"mainnet/0xba100000625a3754423978a60c9317c58a424e3d/SymmToken.sol\":40016:40025  _balances */\n      0x01\n        /* \"mainnet/0xba100000625a3754423978a60c9317c58a424e3d/SymmToken.sol\":40016:40034  _balances[account] */\n      0x00\n        /* \"mainnet/0xba100000625a3754423978a60c9317c58a424e3d/SymmToken.sol\":40026:40033  account */\n      dup5\n        /* \"mainnet/0xba100000625a3754423978a60c9317c58a424e3d/SymmToken.sol\":40016:40034  _balances[account] */\n      0xffffffffffffffffffffffffffffffffffffffff\n      and\n      0xffffffffffffffffffffffffffffffffffffffff\n      and\n      dup2\n      mstore\n      0x20\n      add\n      swap1\n      dup2\n      mstore\n      0x20\n      add\n      0x00\n      keccak256\n        /* \"mainnet/0xba100000625a3754423978a60c9317c58a424e3d/SymmToken.sol\":40016:40105  _balances[account] = _balances[account].sub(amount, \"ERC20: burn amount exceeds balance\") */\n      dup2\n      swap1\n      sstore\n      pop\n        /* \"mainnet/0xba100000625a3754423978a60c9317c58a424e3d/SymmToken.sol\":40131:40155  _totalSupply.sub(amount) */\n      tag_348\n        /* \"mainnet/0xba100000625a3754423978a60c9317c58a424e3d/SymmToken.sol\":40148:40154  amount */\n      dup2\n        /* \"mainnet/0xba100000625a3754423978a60c9317c58a424e3d/SymmToken.sol\":40131:40143  _totalSupply */\n      sload(0x03)\n        /* \"mainnet/0xba100000625a3754423978a60c9317c58a424e3d/SymmToken.sol\":40131:40147  _totalSupply.sub */\n      tag_349\n      swap1\n        /* \"mainnet/0xba100000625a3754423978a60c9317c58a424e3d/SymmToken.sol\":40131:40155  _totalSupply.sub(amount) */\n      swap2\n      swap1\n      0xffffffff\n      and\n      jump\t// in\n    tag_348:\n        /* \"mainnet/0xba100000625a3754423978a60c9317c58a424e3d/SymmToken.sol\":40116:40128  _totalSupply */\n      0x03\n        /* \"mainnet/0xba100000625a3754423978a60c9317c58a424e3d/SymmToken.sol\":40116:40155  _totalSupply = _totalSupply.sub(amount) */\n      dup2\n      swap1\n      sstore\n      pop\n        /* \"mainnet/0xba100000625a3754423978a60c9317c58a424e3d/SymmToken.sol\":40197:40198  0 */\n      0x00\n        /* \"mainnet/0xba100000625a3754423978a60c9317c58a424e3d/SymmToken.sol\":40171:40208  Transfer(account, address(0), amount) */\n      0xffffffffffffffffffffffffffffffffffffffff\n      and\n        /* \"mainnet/0xba100000625a3754423978a60c9317c58a424e3d/SymmToken.sol\":40180:40187  account */\n      dup3\n        /* \"mainnet/0xba100000625a3754423978a60c9317c58a424e3d/SymmToken.sol\":40171:40208  Transfer(account, address(0), amount) */\n      0xffffffffffffffffffffffffffffffffffffffff\n      and\n      0xddf252ad1be2c89b69c2b068fc378daa952ba7f163c4a11628f55a4df523b3ef\n        /* \"mainnet/0xba100000625a3754423978a60c9317c58a424e3d/SymmToken.sol\":40201:40207  amount */\n      dup4\n        /* \"mainnet/0xba100000625a3754423978a60c9317c58a424e3d/SymmToken.sol\":40171:40208  Transfer(account, address(0), amount) */\n      mload(0x40)\n      dup1\n      dup3\n      dup2\n      mstore\n      0x20\n      add\n      swap2\n      pop\n      pop\n      mload(0x40)\n      dup1\n      swap2\n      sub\n      swap1\n      log3\n        /* \"mainnet/0xba100000625a3754423978a60c9317c58a424e3d/SymmToken.sol\":39798:40216  function _burn(address account, uint256 amount) internal virtual {\r... */\n      pop\n      pop\n      jump\t// out\n        /* \"mainnet/0xba100000625a3754423978a60c9317c58a424e3d/SymmToken.sol\":27884:27998  function current(Counter storage counter) internal view returns (uint256) {\r... */\n    tag_289:\n        /* \"mainnet/0xba100000625a3754423978a60c9317c58a424e3d/SymmToken.sol\":27949:27956  uint256 */\n      0x00\n        /* \"mainnet/0xba100000625a3754423978a60c9317c58a424e3d/SymmToken.sol\":27976:27983  counter */\n      dup2\n        /* \"mainnet/0xba100000625a3754423978a60c9317c58a424e3d/SymmToken.sol\":27976:27990  counter._value */\n      0x00\n      add\n      sload\n        /* \"mainnet/0xba100000625a3754423978a60c9317c58a424e3d/SymmToken.sol\":27969:27990  return counter._value */\n      swap1\n      pop\n        /* \"mainnet/0xba100000625a3754423978a60c9317c58a424e3d/SymmToken.sol\":27884:27998  function current(Counter storage counter) internal view returns (uint256) {\r... */\n      swap2\n      swap1\n      pop\n      jump\t// out\n        /* \"mainnet/0xba100000625a3754423978a60c9317c58a424e3d/SymmToken.sol\":25838:26756  function findUpperBound(uint256[] storage array, uint256 element) internal view returns (uint256) {\r... */\n    tag_292:\n        /* \"mainnet/0xba100000625a3754423978a60c9317c58a424e3d/SymmToken.sol\":25927:25934  uint256 */\n      0x00\n        /* \"mainnet/0xba100000625a3754423978a60c9317c58a424e3d/SymmToken.sol\":25967:25968  0 */\n      dup1\n        /* \"mainnet/0xba100000625a3754423978a60c9317c58a424e3d/SymmToken.sol\":25951:25956  array */\n      dup4\n        /* \"mainnet/0xba100000625a3754423978a60c9317c58a424e3d/SymmToken.sol\":25951:25963  array.length */\n      dup1\n      sload\n      swap1\n      pop\n        /* \"mainnet/0xba100000625a3754423978a60c9317c58a424e3d/SymmToken.sol\":25951:25968  array.length == 0 */\n      eq\n        /* \"mainnet/0xba100000625a3754423978a60c9317c58a424e3d/SymmToken.sol\":25947:26005  if (array.length == 0) {\r... */\n      iszero\n      tag_352\n      jumpi\n        /* \"mainnet/0xba100000625a3754423978a60c9317c58a424e3d/SymmToken.sol\":25992:25993  0 */\n      0x00\n        /* \"mainnet/0xba100000625a3754423978a60c9317c58a424e3d/SymmToken.sol\":25985:25993  return 0 */\n      swap1\n      pop\n      jump(tag_351)\n        /* \"mainnet/0xba100000625a3754423978a60c9317c58a424e3d/SymmToken.sol\":25947:26005  if (array.length == 0) {\r... */\n    tag_352:\n        /* \"mainnet/0xba100000625a3754423978a60c9317c58a424e3d/SymmToken.sol\":26017:26028  uint256 low */\n      0x00\n        /* \"mainnet/0xba100000625a3754423978a60c9317c58a424e3d/SymmToken.sol\":26043:26055  uint256 high */\n      dup1\n        /* \"mainnet/0xba100000625a3754423978a60c9317c58a424e3d/SymmToken.sol\":26058:26063  array */\n      dup5\n        /* \"mainnet/0xba100000625a3754423978a60c9317c58a424e3d/SymmToken.sol\":26058:26070  array.length */\n      dup1\n      sload\n      swap1\n      pop\n        /* \"mainnet/0xba100000625a3754423978a60c9317c58a424e3d/SymmToken.sol\":26043:26070  uint256 high = array.length */\n      swap1\n      pop\n        /* \"mainnet/0xba100000625a3754423978a60c9317c58a424e3d/SymmToken.sol\":26083:26507  while (low < high) {\r... */\n    tag_353:\n        /* \"mainnet/0xba100000625a3754423978a60c9317c58a424e3d/SymmToken.sol\":26096:26100  high */\n      dup1\n        /* \"mainnet/0xba100000625a3754423978a60c9317c58a424e3d/SymmToken.sol\":26090:26093  low */\n      dup3\n        /* \"mainnet/0xba100000625a3754423978a60c9317c58a424e3d/SymmToken.sol\":26090:26100  low < high */\n      lt\n        /* \"mainnet/0xba100000625a3754423978a60c9317c58a424e3d/SymmToken.sol\":26083:26507  while (low < high) {\r... */\n      iszero\n      tag_354\n      jumpi\n        /* \"mainnet/0xba100000625a3754423978a60c9317c58a424e3d/SymmToken.sol\":26117:26128  uint256 mid */\n      0x00\n        /* \"mainnet/0xba100000625a3754423978a60c9317c58a424e3d/SymmToken.sol\":26131:26154  Math.average(low, high) */\n      tag_355\n        /* \"mainnet/0xba100000625a3754423978a60c9317c58a424e3d/SymmToken.sol\":26144:26147  low */\n      dup4\n        /* \"mainnet/0xba100000625a3754423978a60c9317c58a424e3d/SymmToken.sol\":26149:26153  high */\n      dup4\n        /* \"mainnet/0xba100000625a3754423978a60c9317c58a424e3d/SymmToken.sol\":26131:26143  Math.average */\n      tag_356\n        /* \"mainnet/0xba100000625a3754423978a60c9317c58a424e3d/SymmToken.sol\":26131:26154  Math.average(low, high) */\n      jump\t// in\n    tag_355:\n        /* \"mainnet/0xba100000625a3754423978a60c9317c58a424e3d/SymmToken.sol\":26117:26154  uint256 mid = Math.average(low, high) */\n      swap1\n      pop\n        /* \"mainnet/0xba100000625a3754423978a60c9317c58a424e3d/SymmToken.sol\":26388:26395  element */\n      dup5\n        /* \"mainnet/0xba100000625a3754423978a60c9317c58a424e3d/SymmToken.sol\":26375:26380  array */\n      dup7\n        /* \"mainnet/0xba100000625a3754423978a60c9317c58a424e3d/SymmToken.sol\":26381:26384  mid */\n      dup3\n        /* \"mainnet/0xba100000625a3754423978a60c9317c58a424e3d/SymmToken.sol\":26375:26385  array[mid] */\n      dup2\n      sload\n      dup2\n      lt\n      tag_357\n      jumpi\n      invalid\n    tag_357:\n      swap1\n      0x00\n      mstore\n      keccak256(0x00, 0x20)\n      add\n      sload\n        /* \"mainnet/0xba100000625a3754423978a60c9317c58a424e3d/SymmToken.sol\":26375:26395  array[mid] > element */\n      gt\n        /* \"mainnet/0xba100000625a3754423978a60c9317c58a424e3d/SymmToken.sol\":26371:26496  if (array[mid] > element) {\r... */\n      iszero\n      tag_359\n      jumpi\n        /* \"mainnet/0xba100000625a3754423978a60c9317c58a424e3d/SymmToken.sol\":26423:26426  mid */\n      dup1\n        /* \"mainnet/0xba100000625a3754423978a60c9317c58a424e3d/SymmToken.sol\":26416:26426  high = mid */\n      swap2\n      pop\n        /* \"mainnet/0xba100000625a3754423978a60c9317c58a424e3d/SymmToken.sol\":26371:26496  if (array[mid] > element) {\r... */\n      jump(tag_360)\n    tag_359:\n        /* \"mainnet/0xba100000625a3754423978a60c9317c58a424e3d/SymmToken.sol\":26479:26480  1 */\n      0x01\n        /* \"mainnet/0xba100000625a3754423978a60c9317c58a424e3d/SymmToken.sol\":26473:26476  mid */\n      dup2\n        /* \"mainnet/0xba100000625a3754423978a60c9317c58a424e3d/SymmToken.sol\":26473:26480  mid + 1 */\n      add\n        /* \"mainnet/0xba100000625a3754423978a60c9317c58a424e3d/SymmToken.sol\":26467:26480  low = mid + 1 */\n      swap3\n      pop\n        /* \"mainnet/0xba100000625a3754423978a60c9317c58a424e3d/SymmToken.sol\":26371:26496  if (array[mid] > element) {\r... */\n    tag_360:\n        /* \"mainnet/0xba100000625a3754423978a60c9317c58a424e3d/SymmToken.sol\":26083:26507  while (low < high) {\r... */\n      pop\n      jump(tag_353)\n    tag_354:\n        /* \"mainnet/0xba100000625a3754423978a60c9317c58a424e3d/SymmToken.sol\":26633:26634  0 */\n      0x00\n        /* \"mainnet/0xba100000625a3754423978a60c9317c58a424e3d/SymmToken.sol\":26627:26630  low */\n      dup3\n        /* \"mainnet/0xba100000625a3754423978a60c9317c58a424e3d/SymmToken.sol\":26627:26634  low > 0 */\n      gt\n        /* \"mainnet/0xba100000625a3754423978a60c9317c58a424e3d/SymmToken.sol\":26627:26663  low > 0 && array[low - 1] == element */\n      dup1\n      iszero\n      tag_361\n      jumpi\n      pop\n        /* \"mainnet/0xba100000625a3754423978a60c9317c58a424e3d/SymmToken.sol\":26656:26663  element */\n      dup4\n        /* \"mainnet/0xba100000625a3754423978a60c9317c58a424e3d/SymmToken.sol\":26638:26643  array */\n      dup6\n        /* \"mainnet/0xba100000625a3754423978a60c9317c58a424e3d/SymmToken.sol\":26650:26651  1 */\n      0x01\n        /* \"mainnet/0xba100000625a3754423978a60c9317c58a424e3d/SymmToken.sol\":26644:26647  low */\n      dup5\n        /* \"mainnet/0xba100000625a3754423978a60c9317c58a424e3d/SymmToken.sol\":26644:26651  low - 1 */\n      sub\n        /* \"mainnet/0xba100000625a3754423978a60c9317c58a424e3d/SymmToken.sol\":26638:26652  array[low - 1] */\n      dup2\n      sload\n      dup2\n      lt\n      tag_362\n      jumpi\n      invalid\n    tag_362:\n      swap1\n      0x00\n      mstore\n      keccak256(0x00, 0x20)\n      add\n      sload\n        /* \"mainnet/0xba100000625a3754423978a60c9317c58a424e3d/SymmToken.sol\":26638:26663  array[low - 1] == element */\n      eq\n        /* \"mainnet/0xba100000625a3754423978a60c9317c58a424e3d/SymmToken.sol\":26627:26663  low > 0 && array[low - 1] == element */\n    tag_361:\n        /* \"mainnet/0xba100000625a3754423978a60c9317c58a424e3d/SymmToken.sol\":26623:26749  if (low > 0 && array[low - 1] == element) {\r... */\n      iszero\n      tag_364\n      jumpi\n        /* \"mainnet/0xba100000625a3754423978a60c9317c58a424e3d/SymmToken.sol\":26693:26694  1 */\n      0x01\n        /* \"mainnet/0xba100000625a3754423978a60c9317c58a424e3d/SymmToken.sol\":26687:26690  low */\n      dup3\n        /* \"mainnet/0xba100000625a3754423978a60c9317c58a424e3d/SymmToken.sol\":26687:26694  low - 1 */\n      sub\n        /* \"mainnet/0xba100000625a3754423978a60c9317c58a424e3d/SymmToken.sol\":26680:26694  return low - 1 */\n      swap3\n      pop\n      pop\n      pop\n      jump(tag_351)\n        /* \"mainnet/0xba100000625a3754423978a60c9317c58a424e3d/SymmToken.sol\":26623:26749  if (low > 0 && array[low - 1] == element) {\r... */\n    tag_364:\n        /* \"mainnet/0xba100000625a3754423978a60c9317c58a424e3d/SymmToken.sol\":26734:26737  low */\n      dup2\n        /* \"mainnet/0xba100000625a3754423978a60c9317c58a424e3d/SymmToken.sol\":26727:26737  return low */\n      swap3\n      pop\n      pop\n      pop\n        /* \"mainnet/0xba100000625a3754423978a60c9317c58a424e3d/SymmToken.sol\":25838:26756  function findUpperBound(uint256[] storage array, uint256 element) internal view returns (uint256) {\r... */\n    tag_351:\n      swap3\n      swap2\n      pop\n      pop\n      jump\t// out\n        /* \"mainnet/0xba100000625a3754423978a60c9317c58a424e3d/SymmToken.sol\":4618:4822  function _at(Set storage set, uint256 index) private view returns (bytes32) {\r... */\n    tag_299:\n        /* \"mainnet/0xba100000625a3754423978a60c9317c58a424e3d/SymmToken.sol\":4685:4692  bytes32 */\n      0x00\n        /* \"mainnet/0xba100000625a3754423978a60c9317c58a424e3d/SymmToken.sol\":4734:4739  index */\n      dup2\n        /* \"mainnet/0xba100000625a3754423978a60c9317c58a424e3d/SymmToken.sol\":4713:4716  set */\n      dup4\n        /* \"mainnet/0xba100000625a3754423978a60c9317c58a424e3d/SymmToken.sol\":4713:4724  set._values */\n      0x00\n      add\n        /* \"mainnet/0xba100000625a3754423978a60c9317c58a424e3d/SymmToken.sol\":4713:4731  set._values.length */\n      dup1\n      sload\n      swap1\n      pop\n        /* \"mainnet/0xba100000625a3754423978a60c9317c58a424e3d/SymmToken.sol\":4713:4739  set._values.length > index */\n      gt\n        /* \"mainnet/0xba100000625a3754423978a60c9317c58a424e3d/SymmToken.sol\":4705:4778  require(set._values.length > index, \"EnumerableSet: index out of bounds\") */\n      tag_367\n      jumpi\n      mload(0x40)\n      0x08c379a000000000000000000000000000000000000000000000000000000000\n      dup2\n      mstore\n      0x04\n      add\n      dup1\n      dup1\n      0x20\n      add\n      dup3\n      dup2\n      sub\n      dup3\n      mstore\n      0x22\n      dup2\n      mstore\n      0x20\n      add\n      dup1\n      data_045d6834e6193a687012a3ad777f612279e549b6945364d9d2324f48610d3cbb\n      0x22\n      swap2\n      codecopy\n      0x40\n      add\n      swap2\n      pop\n      pop\n      mload(0x40)\n      dup1\n      swap2\n      sub\n      swap1\n      revert\n    tag_367:\n        /* \"mainnet/0xba100000625a3754423978a60c9317c58a424e3d/SymmToken.sol\":4796:4799  set */\n      dup3\n        /* \"mainnet/0xba100000625a3754423978a60c9317c58a424e3d/SymmToken.sol\":4796:4807  set._values */\n      0x00\n      add\n        /* \"mainnet/0xba100000625a3754423978a60c9317c58a424e3d/SymmToken.sol\":4808:4813  index */\n      dup3\n        /* \"mainnet/0xba100000625a3754423978a60c9317c58a424e3d/SymmToken.sol\":4796:4814  set._values[index] */\n      dup2\n      sload\n      dup2\n      lt\n      tag_368\n      jumpi\n      invalid\n    tag_368:\n      swap1\n      0x00\n      mstore\n      keccak256(0x00, 0x20)\n      add\n      sload\n        /* \"mainnet/0xba100000625a3754423978a60c9317c58a424e3d/SymmToken.sol\":4789:4814  return set._values[index] */\n      swap1\n      pop\n        /* \"mainnet/0xba100000625a3754423978a60c9317c58a424e3d/SymmToken.sol\":4618:4822  function _at(Set storage set, uint256 index) private view returns (bytes32) {\r... */\n      swap3\n      swap2\n      pop\n      pop\n      jump\t// out\n        /* \"mainnet/0xba100000625a3754423978a60c9317c58a424e3d/SymmToken.sol\":3950:4079  function _contains(Set storage set, bytes32 value) private view returns (bool) {\r... */\n    tag_302:\n        /* \"mainnet/0xba100000625a3754423978a60c9317c58a424e3d/SymmToken.sol\":4023:4027  bool */\n      0x00\n        /* \"mainnet/0xba100000625a3754423978a60c9317c58a424e3d/SymmToken.sol\":4070:4071  0 */\n      dup1\n        /* \"mainnet/0xba100000625a3754423978a60c9317c58a424e3d/SymmToken.sol\":4047:4050  set */\n      dup4\n        /* \"mainnet/0xba100000625a3754423978a60c9317c58a424e3d/SymmToken.sol\":4047:4059  set._indexes */\n      0x01\n      add\n        /* \"mainnet/0xba100000625a3754423978a60c9317c58a424e3d/SymmToken.sol\":4047:4066  set._indexes[value] */\n      0x00\n        /* \"mainnet/0xba100000625a3754423978a60c9317c58a424e3d/SymmToken.sol\":4060:4065  value */\n      dup5\n        /* \"mainnet/0xba100000625a3754423978a60c9317c58a424e3d/SymmToken.sol\":4047:4066  set._indexes[value] */\n      dup2\n      mstore\n      0x20\n      add\n      swap1\n      dup2\n      mstore\n      0x20\n      add\n      0x00\n      keccak256\n      sload\n        /* \"mainnet/0xba100000625a3754423978a60c9317c58a424e3d/SymmToken.sol\":4047:4071  set._indexes[value] != 0 */\n      eq\n      iszero\n        /* \"mainnet/0xba100000625a3754423978a60c9317c58a424e3d/SymmToken.sol\":4040:4071  return set._indexes[value] != 0 */\n      swap1\n      pop\n        /* \"mainnet/0xba100000625a3754423978a60c9317c58a424e3d/SymmToken.sol\":3950:4079  function _contains(Set storage set, bytes32 value) private view returns (bool) {\r... */\n      swap3\n      swap2\n      pop\n      pop\n      jump\t// out\n        /* \"mainnet/0xba100000625a3754423978a60c9317c58a424e3d/SymmToken.sol\":28006:28187  function increment(Counter storage counter) internal {\r... */\n    tag_305:\n        /* \"mainnet/0xba100000625a3754423978a60c9317c58a424e3d/SymmToken.sol\":28178:28179  1 */\n      0x01\n        /* \"mainnet/0xba100000625a3754423978a60c9317c58a424e3d/SymmToken.sol\":28160:28167  counter */\n      dup2\n        /* \"mainnet/0xba100000625a3754423978a60c9317c58a424e3d/SymmToken.sol\":28160:28174  counter._value */\n      0x00\n      add\n      0x00\n        /* \"mainnet/0xba100000625a3754423978a60c9317c58a424e3d/SymmToken.sol\":28160:28179  counter._value += 1 */\n      dup3\n      dup3\n      sload\n      add\n      swap3\n      pop\n      pop\n      dup2\n      swap1\n      sstore\n      pop\n        /* \"mainnet/0xba100000625a3754423978a60c9317c58a424e3d/SymmToken.sol\":28006:28187  function increment(Counter storage counter) internal {\r... */\n      pop\n      jump\t// out\n        /* \"mainnet/0xba100000625a3754423978a60c9317c58a424e3d/SymmToken.sol\":4165:4274  function _length(Set storage set) private view returns (uint256) {\r... */\n    tag_309:\n        /* \"mainnet/0xba100000625a3754423978a60c9317c58a424e3d/SymmToken.sol\":4221:4228  uint256 */\n      0x00\n        /* \"mainnet/0xba100000625a3754423978a60c9317c58a424e3d/SymmToken.sol\":4248:4251  set */\n      dup2\n        /* \"mainnet/0xba100000625a3754423978a60c9317c58a424e3d/SymmToken.sol\":4248:4259  set._values */\n      0x00\n      add\n        /* \"mainnet/0xba100000625a3754423978a60c9317c58a424e3d/SymmToken.sol\":4248:4266  set._values.length */\n      dup1\n      sload\n      swap1\n      pop\n        /* \"mainnet/0xba100000625a3754423978a60c9317c58a424e3d/SymmToken.sol\":4241:4266  return set._values.length */\n      swap1\n      pop\n        /* \"mainnet/0xba100000625a3754423978a60c9317c58a424e3d/SymmToken.sol\":4165:4274  function _length(Set storage set) private view returns (uint256) {\r... */\n      swap2\n      swap1\n      pop\n      jump\t// out\n        /* \"mainnet/0xba100000625a3754423978a60c9317c58a424e3d/SymmToken.sol\":49929:50244  function _updateSnapshot(Snapshots storage snapshots, uint256 currentValue) private {\r... */\n    tag_325:\n        /* \"mainnet/0xba100000625a3754423978a60c9317c58a424e3d/SymmToken.sol\":50024:50041  uint256 currentId */\n      0x00\n        /* \"mainnet/0xba100000625a3754423978a60c9317c58a424e3d/SymmToken.sol\":50044:50072  _currentSnapshotId.current() */\n      tag_374\n        /* \"mainnet/0xba100000625a3754423978a60c9317c58a424e3d/SymmToken.sol\":50044:50062  _currentSnapshotId */\n      0x0a\n        /* \"mainnet/0xba100000625a3754423978a60c9317c58a424e3d/SymmToken.sol\":50044:50070  _currentSnapshotId.current */\n      tag_289\n        /* \"mainnet/0xba100000625a3754423978a60c9317c58a424e3d/SymmToken.sol\":50044:50072  _currentSnapshotId.current() */\n      jump\t// in\n    tag_374:\n        /* \"mainnet/0xba100000625a3754423978a60c9317c58a424e3d/SymmToken.sol\":50024:50072  uint256 currentId = _currentSnapshotId.current() */\n      swap1\n      pop\n        /* \"mainnet/0xba100000625a3754423978a60c9317c58a424e3d/SymmToken.sol\":50120:50129  currentId */\n      dup1\n        /* \"mainnet/0xba100000625a3754423978a60c9317c58a424e3d/SymmToken.sol\":50087:50117  _lastSnapshotId(snapshots.ids) */\n      tag_375\n        /* \"mainnet/0xba100000625a3754423978a60c9317c58a424e3d/SymmToken.sol\":50103:50112  snapshots */\n      dup5\n        /* \"mainnet/0xba100000625a3754423978a60c9317c58a424e3d/SymmToken.sol\":50103:50116  snapshots.ids */\n      0x00\n      add\n        /* \"mainnet/0xba100000625a3754423978a60c9317c58a424e3d/SymmToken.sol\":50087:50102  _lastSnapshotId */\n      tag_376\n        /* \"mainnet/0xba100000625a3754423978a60c9317c58a424e3d/SymmToken.sol\":50087:50117  _lastSnapshotId(snapshots.ids) */\n      jump\t// in\n    tag_375:\n        /* \"mainnet/0xba100000625a3754423978a60c9317c58a424e3d/SymmToken.sol\":50087:50129  _lastSnapshotId(snapshots.ids) < currentId */\n      lt\n        /* \"mainnet/0xba100000625a3754423978a60c9317c58a424e3d/SymmToken.sol\":50083:50237  if (_lastSnapshotId(snapshots.ids) < currentId) {\r... */\n      iszero\n      tag_377\n      jumpi\n        /* \"mainnet/0xba100000625a3754423978a60c9317c58a424e3d/SymmToken.sol\":50146:50155  snapshots */\n      dup3\n        /* \"mainnet/0xba100000625a3754423978a60c9317c58a424e3d/SymmToken.sol\":50146:50159  snapshots.ids */\n      0x00\n      add\n        /* \"mainnet/0xba100000625a3754423978a60c9317c58a424e3d/SymmToken.sol\":50165:50174  currentId */\n      dup2\n        /* \"mainnet/0xba100000625a3754423978a60c9317c58a424e3d/SymmToken.sol\":50146:50175  snapshots.ids.push(currentId) */\n      swap1\n      dup1\n      0x01\n      dup2\n      sload\n      add\n      dup1\n      dup3\n      sstore\n      dup1\n      swap2\n      pop\n      pop\n      0x01\n      swap1\n      sub\n      swap1\n      0x00\n      mstore\n      keccak256(0x00, 0x20)\n      add\n      0x00\n      swap1\n      swap2\n      swap1\n      swap2\n      swap1\n      swap2\n      pop\n      sstore\n        /* \"mainnet/0xba100000625a3754423978a60c9317c58a424e3d/SymmToken.sol\":50190:50199  snapshots */\n      dup3\n        /* \"mainnet/0xba100000625a3754423978a60c9317c58a424e3d/SymmToken.sol\":50190:50206  snapshots.values */\n      0x01\n      add\n        /* \"mainnet/0xba100000625a3754423978a60c9317c58a424e3d/SymmToken.sol\":50212:50224  currentValue */\n      dup3\n        /* \"mainnet/0xba100000625a3754423978a60c9317c58a424e3d/SymmToken.sol\":50190:50225  snapshots.values.push(currentValue) */\n      swap1\n      dup1\n      0x01\n      dup2\n      sload\n      add\n      dup1\n      dup3\n      sstore\n      dup1\n      swap2\n      pop\n      pop\n      0x01\n      swap1\n      sub\n      swap1\n      0x00\n      mstore\n      keccak256(0x00, 0x20)\n      add\n      0x00\n      swap1\n      swap2\n      swap1\n      swap2\n      swap1\n      swap2\n      pop\n      sstore\n        /* \"mainnet/0xba100000625a3754423978a60c9317c58a424e3d/SymmToken.sol\":50083:50237  if (_lastSnapshotId(snapshots.ids) < currentId) {\r... */\n    tag_377:\n        /* \"mainnet/0xba100000625a3754423978a60c9317c58a424e3d/SymmToken.sol\":49929:50244  function _updateSnapshot(Snapshots storage snapshots, uint256 currentValue) private {\r... */\n      pop\n      pop\n      pop\n      jump\t// out\n        /* \"mainnet/0xba100000625a3754423978a60c9317c58a424e3d/SymmToken.sol\":42027:42119  function _beforeTokenTransfer(address from, address to, uint256 amount) internal virtual { } */\n    tag_330:\n      pop\n      pop\n      pop\n      jump\t// out\n        /* \"mainnet/0xba100000625a3754423978a60c9317c58a424e3d/SymmToken.sol\":2320:3864  function _remove(Set storage set, bytes32 value) private returns (bool) {\r... */\n    tag_335:\n        /* \"mainnet/0xba100000625a3754423978a60c9317c58a424e3d/SymmToken.sol\":2386:2390  bool */\n      0x00\n        /* \"mainnet/0xba100000625a3754423978a60c9317c58a424e3d/SymmToken.sol\":2504:2522  uint256 valueIndex */\n      dup1\n        /* \"mainnet/0xba100000625a3754423978a60c9317c58a424e3d/SymmToken.sol\":2525:2528  set */\n      dup4\n        /* \"mainnet/0xba100000625a3754423978a60c9317c58a424e3d/SymmToken.sol\":2525:2537  set._indexes */\n      0x01\n      add\n        /* \"mainnet/0xba100000625a3754423978a60c9317c58a424e3d/SymmToken.sol\":2525:2544  set._indexes[value] */\n      0x00\n        /* \"mainnet/0xba100000625a3754423978a60c9317c58a424e3d/SymmToken.sol\":2538:2543  value */\n      dup5\n        /* \"mainnet/0xba100000625a3754423978a60c9317c58a424e3d/SymmToken.sol\":2525:2544  set._indexes[value] */\n      dup2\n      mstore\n      0x20\n      add\n      swap1\n      dup2\n      mstore\n      0x20\n      add\n      0x00\n      keccak256\n      sload\n        /* \"mainnet/0xba100000625a3754423978a60c9317c58a424e3d/SymmToken.sol\":2504:2544  uint256 valueIndex = set._indexes[value] */\n      swap1\n      pop\n        /* \"mainnet/0xba100000625a3754423978a60c9317c58a424e3d/SymmToken.sol\":2575:2576  0 */\n      0x00\n        /* \"mainnet/0xba100000625a3754423978a60c9317c58a424e3d/SymmToken.sol\":2561:2571  valueIndex */\n      dup2\n        /* \"mainnet/0xba100000625a3754423978a60c9317c58a424e3d/SymmToken.sol\":2561:2576  valueIndex != 0 */\n      eq\n        /* \"mainnet/0xba100000625a3754423978a60c9317c58a424e3d/SymmToken.sol\":2557:3857  if (valueIndex != 0) { // Equivalent to contains(set, value)\r... */\n      tag_382\n      jumpi\n        /* \"mainnet/0xba100000625a3754423978a60c9317c58a424e3d/SymmToken.sol\":2923:2944  uint256 toDeleteIndex */\n      0x00\n        /* \"mainnet/0xba100000625a3754423978a60c9317c58a424e3d/SymmToken.sol\":2960:2961  1 */\n      0x01\n        /* \"mainnet/0xba100000625a3754423978a60c9317c58a424e3d/SymmToken.sol\":2947:2957  valueIndex */\n      dup3\n        /* \"mainnet/0xba100000625a3754423978a60c9317c58a424e3d/SymmToken.sol\":2947:2961  valueIndex - 1 */\n      sub\n        /* \"mainnet/0xba100000625a3754423978a60c9317c58a424e3d/SymmToken.sol\":2923:2961  uint256 toDeleteIndex = valueIndex - 1 */\n      swap1\n      pop\n        /* \"mainnet/0xba100000625a3754423978a60c9317c58a424e3d/SymmToken.sol\":2976:2993  uint256 lastIndex */\n      0x00\n        /* \"mainnet/0xba100000625a3754423978a60c9317c58a424e3d/SymmToken.sol\":3017:3018  1 */\n      0x01\n        /* \"mainnet/0xba100000625a3754423978a60c9317c58a424e3d/SymmToken.sol\":2996:2999  set */\n      dup7\n        /* \"mainnet/0xba100000625a3754423978a60c9317c58a424e3d/SymmToken.sol\":2996:3007  set._values */\n      0x00\n      add\n        /* \"mainnet/0xba100000625a3754423978a60c9317c58a424e3d/SymmToken.sol\":2996:3014  set._values.length */\n      dup1\n      sload\n      swap1\n      pop\n        /* \"mainnet/0xba100000625a3754423978a60c9317c58a424e3d/SymmToken.sol\":2996:3018  set._values.length - 1 */\n      sub\n        /* \"mainnet/0xba100000625a3754423978a60c9317c58a424e3d/SymmToken.sol\":2976:3018  uint256 lastIndex = set._values.length - 1 */\n      swap1\n      pop\n        /* \"mainnet/0xba100000625a3754423978a60c9317c58a424e3d/SymmToken.sol\":3263:3280  bytes32 lastvalue */\n      0x00\n        /* \"mainnet/0xba100000625a3754423978a60c9317c58a424e3d/SymmToken.sol\":3283:3286  set */\n      dup7\n        /* \"mainnet/0xba100000625a3754423978a60c9317c58a424e3d/SymmToken.sol\":3283:3294  set._values */\n      0x00\n      add\n        /* \"mainnet/0xba100000625a3754423978a60c9317c58a424e3d/SymmToken.sol\":3295:3304  lastIndex */\n      dup3\n        /* \"mainnet/0xba100000625a3754423978a60c9317c58a424e3d/SymmToken.sol\":3283:3305  set._values[lastIndex] */\n      dup2\n      sload\n      dup2\n      lt\n      tag_383\n      jumpi\n      invalid\n    tag_383:\n      swap1\n      0x00\n      mstore\n      keccak256(0x00, 0x20)\n      add\n      sload\n        /* \"mainnet/0xba100000625a3754423978a60c9317c58a424e3d/SymmToken.sol\":3263:3305  bytes32 lastvalue = set._values[lastIndex] */\n      swap1\n      pop\n        /* \"mainnet/0xba100000625a3754423978a60c9317c58a424e3d/SymmToken.sol\":3429:3438  lastvalue */\n      dup1\n        /* \"mainnet/0xba100000625a3754423978a60c9317c58a424e3d/SymmToken.sol\":3400:3403  set */\n      dup8\n        /* \"mainnet/0xba100000625a3754423978a60c9317c58a424e3d/SymmToken.sol\":3400:3411  set._values */\n      0x00\n      add\n        /* \"mainnet/0xba100000625a3754423978a60c9317c58a424e3d/SymmToken.sol\":3412:3425  toDeleteIndex */\n      dup5\n        /* \"mainnet/0xba100000625a3754423978a60c9317c58a424e3d/SymmToken.sol\":3400:3426  set._values[toDeleteIndex] */\n      dup2\n      sload\n      dup2\n      lt\n      tag_385\n      jumpi\n      invalid\n    tag_385:\n      swap1\n      0x00\n      mstore\n      keccak256(0x00, 0x20)\n      add\n        /* \"mainnet/0xba100000625a3754423978a60c9317c58a424e3d/SymmToken.sol\":3400:3438  set._values[toDeleteIndex] = lastvalue */\n      dup2\n      swap1\n      sstore\n      pop\n        /* \"mainnet/0xba100000625a3754423978a60c9317c58a424e3d/SymmToken.sol\":3548:3549  1 */\n      0x01\n        /* \"mainnet/0xba100000625a3754423978a60c9317c58a424e3d/SymmToken.sol\":3532:3545  toDeleteIndex */\n      dup4\n        /* \"mainnet/0xba100000625a3754423978a60c9317c58a424e3d/SymmToken.sol\":3532:3549  toDeleteIndex + 1 */\n      add\n        /* \"mainnet/0xba100000625a3754423978a60c9317c58a424e3d/SymmToken.sol\":3506:3509  set */\n      dup8\n        /* \"mainnet/0xba100000625a3754423978a60c9317c58a424e3d/SymmToken.sol\":3506:3518  set._indexes */\n      0x01\n      add\n        /* \"mainnet/0xba100000625a3754423978a60c9317c58a424e3d/SymmToken.sol\":3506:3529  set._indexes[lastvalue] */\n      0x00\n        /* \"mainnet/0xba100000625a3754423978a60c9317c58a424e3d/SymmToken.sol\":3519:3528  lastvalue */\n      dup4\n        /* \"mainnet/0xba100000625a3754423978a60c9317c58a424e3d/SymmToken.sol\":3506:3529  set._indexes[lastvalue] */\n      dup2\n      mstore\n      0x20\n      add\n      swap1\n      dup2\n      mstore\n      0x20\n      add\n      0x00\n      keccak256\n        /* \"mainnet/0xba100000625a3754423978a60c9317c58a424e3d/SymmToken.sol\":3506:3549  set._indexes[lastvalue] = toDeleteIndex + 1 */\n      dup2\n      swap1\n      sstore\n      pop\n        /* \"mainnet/0xba100000625a3754423978a60c9317c58a424e3d/SymmToken.sol\":3658:3661  set */\n      dup7\n        /* \"mainnet/0xba100000625a3754423978a60c9317c58a424e3d/SymmToken.sol\":3658:3669  set._values */\n      0x00\n      add\n        /* \"mainnet/0xba100000625a3754423978a60c9317c58a424e3d/SymmToken.sol\":3658:3675  set._values.pop() */\n      dup1\n      sload\n      dup1\n      tag_387\n      jumpi\n      invalid\n    tag_387:\n      0x01\n      swap1\n      sub\n      dup2\n      dup2\n      swap1\n      0x00\n      mstore\n      keccak256(0x00, 0x20)\n      add\n      0x00\n      swap1\n      sstore\n      swap1\n      sstore\n        /* \"mainnet/0xba100000625a3754423978a60c9317c58a424e3d/SymmToken.sol\":3753:3756  set */\n      dup7\n        /* \"mainnet/0xba100000625a3754423978a60c9317c58a424e3d/SymmToken.sol\":3753:3765  set._indexes */\n      0x01\n      add\n        /* \"mainnet/0xba100000625a3754423978a60c9317c58a424e3d/SymmToken.sol\":3753:3772  set._indexes[value] */\n      0x00\n        /* \"mainnet/0xba100000625a3754423978a60c9317c58a424e3d/SymmToken.sol\":3766:3771  value */\n      dup8\n        /* \"mainnet/0xba100000625a3754423978a60c9317c58a424e3d/SymmToken.sol\":3753:3772  set._indexes[value] */\n      dup2\n      mstore\n      0x20\n      add\n      swap1\n      dup2\n      mstore\n      0x20\n      add\n      0x00\n      keccak256\n        /* \"mainnet/0xba100000625a3754423978a60c9317c58a424e3d/SymmToken.sol\":3746:3772  delete set._indexes[value] */\n      0x00\n      swap1\n      sstore\n        /* \"mainnet/0xba100000625a3754423978a60c9317c58a424e3d/SymmToken.sol\":3796:3800  true */\n      0x01\n        /* \"mainnet/0xba100000625a3754423978a60c9317c58a424e3d/SymmToken.sol\":3789:3800  return true */\n      swap5\n      pop\n      pop\n      pop\n      pop\n      pop\n      jump(tag_381)\n        /* \"mainnet/0xba100000625a3754423978a60c9317c58a424e3d/SymmToken.sol\":2557:3857  if (valueIndex != 0) { // Equivalent to contains(set, value)\r... */\n    tag_382:\n        /* \"mainnet/0xba100000625a3754423978a60c9317c58a424e3d/SymmToken.sol\":3840:3845  false */\n      0x00\n        /* \"mainnet/0xba100000625a3754423978a60c9317c58a424e3d/SymmToken.sol\":3833:3845  return false */\n      swap2\n      pop\n      pop\n        /* \"mainnet/0xba100000625a3754423978a60c9317c58a424e3d/SymmToken.sol\":2320:3864  function _remove(Set storage set, bytes32 value) private returns (bool) {\r... */\n    tag_381:\n      swap3\n      swap2\n      pop\n      pop\n      jump\t// out\n        /* \"mainnet/0xba100000625a3754423978a60c9317c58a424e3d/SymmToken.sol\":20367:20503  function sub(uint256 a, uint256 b) internal pure returns (uint256) {\r... */\n    tag_349:\n        /* \"mainnet/0xba100000625a3754423978a60c9317c58a424e3d/SymmToken.sol\":20425:20432  uint256 */\n      0x00\n        /* \"mainnet/0xba100000625a3754423978a60c9317c58a424e3d/SymmToken.sol\":20452:20495  sub(a, b, \"SafeMath: subtraction overflow\") */\n      tag_391\n        /* \"mainnet/0xba100000625a3754423978a60c9317c58a424e3d/SymmToken.sol\":20456:20457  a */\n      dup4\n        /* \"mainnet/0xba100000625a3754423978a60c9317c58a424e3d/SymmToken.sol\":20459:20460  b */\n      dup4\n        /* \"mainnet/0xba100000625a3754423978a60c9317c58a424e3d/SymmToken.sol\":20452:20495  sub(a, b, \"SafeMath: subtraction overflow\") */\n      mload(0x40)\n      dup1\n      0x40\n      add\n      0x40\n      mstore\n      dup1\n      0x1e\n      dup2\n      mstore\n      0x20\n      add\n      0x536166654d6174683a207375627472616374696f6e206f766572666c6f770000\n      dup2\n      mstore\n      pop\n        /* \"mainnet/0xba100000625a3754423978a60c9317c58a424e3d/SymmToken.sol\":20452:20455  sub */\n      tag_157\n        /* \"mainnet/0xba100000625a3754423978a60c9317c58a424e3d/SymmToken.sol\":20452:20495  sub(a, b, \"SafeMath: subtraction overflow\") */\n      jump\t// in\n    tag_391:\n        /* \"mainnet/0xba100000625a3754423978a60c9317c58a424e3d/SymmToken.sol\":20445:20495  return sub(a, b, \"SafeMath: subtraction overflow\") */\n      swap1\n      pop\n        /* \"mainnet/0xba100000625a3754423978a60c9317c58a424e3d/SymmToken.sol\":20367:20503  function sub(uint256 a, uint256 b) internal pure returns (uint256) {\r... */\n      swap3\n      swap2\n      pop\n      pop\n      jump\t// out\n        /* \"mainnet/0xba100000625a3754423978a60c9317c58a424e3d/SymmToken.sol\":25039:25232  function average(uint256 a, uint256 b) internal pure returns (uint256) {\r... */\n    tag_356:\n        /* \"mainnet/0xba100000625a3754423978a60c9317c58a424e3d/SymmToken.sol\":25101:25108  uint256 */\n      0x00\n        /* \"mainnet/0xba100000625a3754423978a60c9317c58a424e3d/SymmToken.sol\":25222:25223  2 */\n      0x02\n        /* \"mainnet/0xba100000625a3754423978a60c9317c58a424e3d/SymmToken.sol\":25217:25218  2 */\n      dup1\n        /* \"mainnet/0xba100000625a3754423978a60c9317c58a424e3d/SymmToken.sol\":25213:25214  b */\n      dup4\n        /* \"mainnet/0xba100000625a3754423978a60c9317c58a424e3d/SymmToken.sol\":25213:25218  b % 2 */\n      dup2\n      tag_393\n      jumpi\n      invalid\n    tag_393:\n      mod\n        /* \"mainnet/0xba100000625a3754423978a60c9317c58a424e3d/SymmToken.sol\":25209:25210  2 */\n      0x02\n        /* \"mainnet/0xba100000625a3754423978a60c9317c58a424e3d/SymmToken.sol\":25205:25206  a */\n      dup6\n        /* \"mainnet/0xba100000625a3754423978a60c9317c58a424e3d/SymmToken.sol\":25205:25210  a % 2 */\n      dup2\n      tag_394\n      jumpi\n      invalid\n    tag_394:\n      mod\n        /* \"mainnet/0xba100000625a3754423978a60c9317c58a424e3d/SymmToken.sol\":25205:25218  a % 2 + b % 2 */\n      add\n        /* \"mainnet/0xba100000625a3754423978a60c9317c58a424e3d/SymmToken.sol\":25204:25223  (a % 2 + b % 2) / 2 */\n      dup2\n      tag_395\n      jumpi\n      invalid\n    tag_395:\n      div\n        /* \"mainnet/0xba100000625a3754423978a60c9317c58a424e3d/SymmToken.sol\":25198:25199  2 */\n      0x02\n        /* \"mainnet/0xba100000625a3754423978a60c9317c58a424e3d/SymmToken.sol\":25194:25195  b */\n      dup4\n        /* \"mainnet/0xba100000625a3754423978a60c9317c58a424e3d/SymmToken.sol\":25194:25199  b / 2 */\n      dup2\n      tag_396\n      jumpi\n      invalid\n    tag_396:\n      div\n        /* \"mainnet/0xba100000625a3754423978a60c9317c58a424e3d/SymmToken.sol\":25188:25189  2 */\n      0x02\n        /* \"mainnet/0xba100000625a3754423978a60c9317c58a424e3d/SymmToken.sol\":25184:25185  a */\n      dup6\n        /* \"mainnet/0xba100000625a3754423978a60c9317c58a424e3d/SymmToken.sol\":25184:25189  a / 2 */\n      dup2\n      tag_397\n      jumpi\n      invalid\n    tag_397:\n      div\n        /* \"mainnet/0xba100000625a3754423978a60c9317c58a424e3d/SymmToken.sol\":25183:25200  (a / 2) + (b / 2) */\n      add\n        /* \"mainnet/0xba100000625a3754423978a60c9317c58a424e3d/SymmToken.sol\":25183:25224  (a / 2) + (b / 2) + ((a % 2 + b % 2) / 2) */\n      add\n        /* \"mainnet/0xba100000625a3754423978a60c9317c58a424e3d/SymmToken.sol\":25176:25224  return (a / 2) + (b / 2) + ((a % 2 + b % 2) / 2) */\n      swap1\n      pop\n        /* \"mainnet/0xba100000625a3754423978a60c9317c58a424e3d/SymmToken.sol\":25039:25232  function average(uint256 a, uint256 b) internal pure returns (uint256) {\r... */\n      swap3\n      swap2\n      pop\n      pop\n      jump\t// out\n        /* \"mainnet/0xba100000625a3754423978a60c9317c58a424e3d/SymmToken.sol\":50252:50464  function _lastSnapshotId(uint256[] storage ids) private view returns (uint256) {\r... */\n    tag_376:\n        /* \"mainnet/0xba100000625a3754423978a60c9317c58a424e3d/SymmToken.sol\":50322:50329  uint256 */\n      0x00\n        /* \"mainnet/0xba100000625a3754423978a60c9317c58a424e3d/SymmToken.sol\":50360:50361  0 */\n      dup1\n        /* \"mainnet/0xba100000625a3754423978a60c9317c58a424e3d/SymmToken.sol\":50346:50349  ids */\n      dup3\n        /* \"mainnet/0xba100000625a3754423978a60c9317c58a424e3d/SymmToken.sol\":50346:50356  ids.length */\n      dup1\n      sload\n      swap1\n      pop\n        /* \"mainnet/0xba100000625a3754423978a60c9317c58a424e3d/SymmToken.sol\":50346:50361  ids.length == 0 */\n      eq\n        /* \"mainnet/0xba100000625a3754423978a60c9317c58a424e3d/SymmToken.sol\":50342:50457  if (ids.length == 0) {\r... */\n      iszero\n      tag_399\n      jumpi\n        /* \"mainnet/0xba100000625a3754423978a60c9317c58a424e3d/SymmToken.sol\":50385:50386  0 */\n      0x00\n        /* \"mainnet/0xba100000625a3754423978a60c9317c58a424e3d/SymmToken.sol\":50378:50386  return 0 */\n      swap1\n      pop\n      jump(tag_398)\n        /* \"mainnet/0xba100000625a3754423978a60c9317c58a424e3d/SymmToken.sol\":50342:50457  if (ids.length == 0) {\r... */\n    tag_399:\n        /* \"mainnet/0xba100000625a3754423978a60c9317c58a424e3d/SymmToken.sol\":50426:50429  ids */\n      dup2\n        /* \"mainnet/0xba100000625a3754423978a60c9317c58a424e3d/SymmToken.sol\":50443:50444  1 */\n      0x01\n        /* \"mainnet/0xba100000625a3754423978a60c9317c58a424e3d/SymmToken.sol\":50430:50433  ids */\n      dup4\n        /* \"mainnet/0xba100000625a3754423978a60c9317c58a424e3d/SymmToken.sol\":50430:50440  ids.length */\n      dup1\n      sload\n      swap1\n      pop\n        /* \"mainnet/0xba100000625a3754423978a60c9317c58a424e3d/SymmToken.sol\":50430:50444  ids.length - 1 */\n      sub\n        /* \"mainnet/0xba100000625a3754423978a60c9317c58a424e3d/SymmToken.sol\":50426:50445  ids[ids.length - 1] */\n      dup2\n      sload\n      dup2\n      lt\n      tag_401\n      jumpi\n      invalid\n    tag_401:\n      swap1\n      0x00\n      mstore\n      keccak256(0x00, 0x20)\n      add\n      sload\n        /* \"mainnet/0xba100000625a3754423978a60c9317c58a424e3d/SymmToken.sol\":50419:50445  return ids[ids.length - 1] */\n      swap1\n      pop\n        /* \"mainnet/0xba100000625a3754423978a60c9317c58a424e3d/SymmToken.sol\":50252:50464  function _lastSnapshotId(uint256[] storage ids) private view returns (uint256) {\r... */\n    tag_398:\n      swap2\n      swap1\n      pop\n      jump\t// out\n    stop\n    data_045d6834e6193a687012a3ad777f612279e549b6945364d9d2324f48610d3cbb 456e756d657261626c655365743a20696e646578206f7574206f6620626f756e6473\n    data_0557e210f7a69a685100a7e4e3d0a7024c546085cee28910fd17d0b081d9516f 45524332303a207472616e7366657220746f20746865207a65726f2061646472657373\n    data_0ba7116025f1ef6b158a2bd2238e617f30e17c9e456917d901086ca4f8ad2811 416363657373436f6e74726f6c3a2073656e646572206d75737420626520616e2061646d696e20746f206772616e74\n    data_149b126e7125232b4200af45303d04fba8b74653b1a295a6a561a528c33fefdd 45524332303a206275726e20616d6f756e7420657863656564732062616c616e6365\n    data_24883cc5fe64ace9d0df1893501ecb93c77180f0ff69cca79affb3c316dc8029 45524332303a20617070726f766520746f20746865207a65726f2061646472657373\n    data_4107e8a8b9e94bf8ff83080ddec1c0bffe897ebc2241b89d44f66b3d274088b6 45524332303a207472616e7366657220616d6f756e7420657863656564732062616c616e6365\n    data_520d1f787dbcafbbfc007fd2c4ecf3d2711ec587f3ee9a1215c0b646c3e530bd 45434453413a20696e76616c6964207369676e6174757265202773272076616c7565\n    data_64344570eab7406ca49d34d38bf2b2496dfda914405390c5057c8b0aabf798a3 416363657373436f6e74726f6c3a2073656e646572206d75737420626520616e2061646d696e20746f207265766f6b65\n    data_8522ee1b53216f595394db8e80a64d9e7d9bd512c0811c18debe9f40858597e4 45434453413a20696e76616c6964207369676e6174757265202776272076616c7565\n    data_974d1b4421da69cc60b481194f0dad36a5bb4e23da810da7a7fb30cdba178330 45524332303a207472616e7366657220616d6f756e74206578636565647320616c6c6f77616e6365\n    data_a287c363786607a1457a2d9d12fa61c0073358e02d76b4035fc2c2d86a19c0db 45524332303a206275726e20616d6f756e74206578636565647320616c6c6f77616e6365\n    data_b16788493b576042bb52c50ed56189e0b250db113c7bfb1c3897d25cf9632d7f 45524332303a206275726e2066726f6d20746865207a65726f2061646472657373\n    data_baecc556b46f4ed0f2b4cb599d60785ac8563dd2dc0a5bf12edea1c39e5e1fea 45524332303a207472616e736665722066726f6d20746865207a65726f2061646472657373\n    data_c953f4879035ed60e766b34720f656aab5c697b141d924c283124ecedb91c208 45524332303a20617070726f76652066726f6d20746865207a65726f2061646472657373\n    data_f8b476f7d28209d77d4a4ac1fe36b9f8259aa1bb6bddfa6e89de7e51615cf8a8 45524332303a2064656372656173656420616c6c6f77616e63652062656c6f77207a65726f\n    data_fb06fa8ff2141e8ed74502f6792273793f25f0e9d3cf15344f3f5a0d4948fd4b 416363657373436f6e74726f6c3a2063616e206f6e6c792072656e6f756e636520726f6c657320666f722073656c66\n\n    auxdata: 0xa26469706673582212202a559b336ed002d7130b5a7bfe36b7c036118288e63debeecdf00d2125364f3964736f6c63430007010033\n}\n",
        "bytecode": {
          "linkReferences": {},
          "object": "60c06040527f6e71edae12b1b97f4d1f60370fef10105fa2faae0126114a169c64845d6126c960001b60a0908152503480156200003b57600080fd5b50604051620035bc380380620035bc833981810160405260408110156200006157600080fd5b81019080805160405193929190846401000000008211156200008257600080fd5b838201915060208201858111156200009957600080fd5b8251866001820283011164010000000082111715620000b757600080fd5b8083526020830192505050908051906020019080838360005b83811015620000ed578082015181840152602081019050620000d0565b50505050905090810190601f1680156200011b5780820380516001836020036101000a031916815260200191505b50604052602001805160405193929190846401000000008211156200013f57600080fd5b838201915060208201858111156200015657600080fd5b82518660018202830111640100000000821117156200017457600080fd5b8083526020830192505050908051906020019080838360005b83811015620001aa5780820151818401526020810190506200018d565b50505050905090810190601f168015620001d85780820380516001836020036101000a031916815260200191505b5060405250505081818160049080519060200190620001f99291906200055e565b508060059080519060200190620002129291906200055e565b506012600660006101000a81548160ff021916908360ff1602179055505050620002556000801b62000249620003bb60201b60201c565b620003c360201b60201c565b620002967f9f2df0fed2c77648de5860a4cc508cd0818c85b8b8a1ab4ceeef8d981c8956a66200028a620003bb60201b60201c565b620003c360201b60201c565b620002d77f5fdbd35e8da83ee755d5e62a539e5ed7f47126abede0b8b10f9ea43dc6eed07f620002cb620003bb60201b60201c565b620003c360201b60201c565b6000620002e9620003d960201b60201c565b90507f8b73c3c69bb8fe3d512ecc4cf759cc79239f7b179b0ffacaa9a75d522b39400f83805190602001206040518060400160405280600181526020017f3100000000000000000000000000000000000000000000000000000000000000815250805190602001208330604051602001808681526020018581526020018481526020018381526020018273ffffffffffffffffffffffffffffffffffffffff16815260200195505050505050604051602081830303815290604052805190602001206080818152505050505062000604565b600033905090565b620003d58282620003e660201b60201c565b5050565b6000804690508091505090565b62000414816000808581526020019081526020016000206000016200048960201b620018d01790919060201c565b1562000485576200042a620003bb60201b60201c565b73ffffffffffffffffffffffffffffffffffffffff168173ffffffffffffffffffffffffffffffffffffffff16837f2f8788117e7eff1d82e926ec794901d17c78024a50270940304540a733656f0d60405160405180910390a45b5050565b6000620004b9836000018373ffffffffffffffffffffffffffffffffffffffff1660001b620004c160201b60201c565b905092915050565b6000620004d583836200053b60201b60201c565b6200053057826000018290806001815401808255809150506001900390600052602060002001600090919091909150558260000180549050836001016000848152602001908152602001600020819055506001905062000535565b600090505b92915050565b600080836001016000848152602001908152602001600020541415905092915050565b828054600181600116156101000203166002900490600052602060002090601f016020900481019282601f10620005a157805160ff1916838001178555620005d2565b82800160010185558215620005d2579182015b82811115620005d1578251825591602001919060010190620005b4565b5b509050620005e19190620005e5565b5090565b5b8082111562000600576000816000905550600101620005e6565b5090565b60805160a051612f8a6200063260003980610e2152806115b8525080610e5c52806115975250612f8a6000f3fe608060405234801561001057600080fd5b50600436106101f05760003560e01c806370a082311161010f578063a217fddf116100a2578063d505accf11610071578063d505accf14610a57578063d539139314610af0578063d547741f14610b0e578063dd62ed3e14610b5c576101f0565b8063a217fddf1461092f578063a457c2d71461094d578063a9059cbb146109b1578063ca15c87314610a15576101f0565b806391d14854116100de57806391d14854146107fc57806395d89b41146108605780639711715a146108e3578063981b24d0146108ed576101f0565b806370a082311461069c57806379cc6790146106f45780637ecebe00146107425780639010d07c1461079a576101f0565b80633644e5151161018757806342966c681161015657806342966c681461056b5780634ee2cd7e1461059957806354fd4d50146105fb5780637028e2cd1461067e576101f0565b80633644e5151461044d57806336568abe1461046b57806339509351146104b957806340c10f191461051d576101f0565b8063248a9ca3116101c3578063248a9ca31461037e5780632f2ff15d146103c057806330adf81f1461040e578063313ce5671461042c576101f0565b806306fdde03146101f5578063095ea7b31461027857806318160ddd146102dc57806323b872dd146102fa575b600080fd5b6101fd610bd4565b6040518080602001828103825283818151815260200191508051906020019080838360005b8381101561023d578082015181840152602081019050610222565b50505050905090810190601f16801561026a5780820380516001836020036101000a031916815260200191505b509250505060405180910390f35b6102c46004803603604081101561028e57600080fd5b81019080803573ffffffffffffffffffffffffffffffffffffffff16906020019092919080359060200190929190505050610c76565b60405180821515815260200191505060405180910390f35b6102e4610c94565b6040518082815260200191505060405180910390f35b6103666004803603606081101561031057600080fd5b81019080803573ffffffffffffffffffffffffffffffffffffffff169060200190929190803573ffffffffffffffffffffffffffffffffffffffff16906020019092919080359060200190929190505050610c9e565b60405180821515815260200191505060405180910390f35b6103aa6004803603602081101561039457600080fd5b8101908080359060200190929190505050610d77565b6040518082815260200191505060405180910390f35b61040c600480360360408110156103d657600080fd5b8101908080359060200190929190803573ffffffffffffffffffffffffffffffffffffffff169060200190929190505050610d96565b005b610416610e1f565b6040518082815260200191505060405180910390f35b610434610e43565b604051808260ff16815260200191505060405180910390f35b610455610e5a565b6040518082815260200191505060405180910390f35b6104b76004803603604081101561048157600080fd5b8101908080359060200190929190803573ffffffffffffffffffffffffffffffffffffffff169060200190929190505050610e7e565b005b610505600480360360408110156104cf57600080fd5b81019080803573ffffffffffffffffffffffffffffffffffffffff16906020019092919080359060200190929190505050610f17565b60405180821515815260200191505060405180910390f35b6105696004803603604081101561053357600080fd5b81019080803573ffffffffffffffffffffffffffffffffffffffff16906020019092919080359060200190929190505050610fca565b005b6105976004803603602081101561058157600080fd5b810190808035906020019092919050505061107b565b005b6105e5600480360360408110156105af57600080fd5b81019080803573ffffffffffffffffffffffffffffffffffffffff1690602001909291908035906020019092919050505061108f565b6040518082815260200191505060405180910390f35b6106036110ff565b6040518080602001828103825283818151815260200191508051906020019080838360005b83811015610643578082015181840152602081019050610628565b50505050905090810190601f1680156106705780820380516001836020036101000a031916815260200191505b509250505060405180910390f35b610686611138565b6040518082815260200191505060405180910390f35b6106de600480360360208110156106b257600080fd5b81019080803573ffffffffffffffffffffffffffffffffffffffff16906020019092919050505061115c565b6040518082815260200191505060405180910390f35b6107406004803603604081101561070a57600080fd5b81019080803573ffffffffffffffffffffffffffffffffffffffff169060200190929190803590602001909291905050506111a5565b005b6107846004803603602081101561075857600080fd5b81019080803573ffffffffffffffffffffffffffffffffffffffff169060200190929190505050611207565b6040518082815260200191505060405180910390f35b6107d0600480360360408110156107b057600080fd5b81019080803590602001909291908035906020019092919050505061121f565b604051808273ffffffffffffffffffffffffffffffffffffffff16815260200191505060405180910390f35b6108486004803603604081101561081257600080fd5b8101908080359060200190929190803573ffffffffffffffffffffffffffffffffffffffff169060200190929190505050611250565b60405180821515815260200191505060405180910390f35b610868611281565b6040518080602001828103825283818151815260200191508051906020019080838360005b838110156108a857808201518184015260208101905061088d565b50505050905090810190601f1680156108d55780820380516001836020036101000a031916815260200191505b509250505060405180910390f35b6108eb611323565b005b6109196004803603602081101561090357600080fd5b81019080803590602001909291905050506113d1565b6040518082815260200191505060405180910390f35b610937611402565b6040518082815260200191505060405180910390f35b6109996004803603604081101561096357600080fd5b81019080803573ffffffffffffffffffffffffffffffffffffffff16906020019092919080359060200190929190505050611409565b60405180821515815260200191505060405180910390f35b6109fd600480360360408110156109c757600080fd5b81019080803573ffffffffffffffffffffffffffffffffffffffff169060200190929190803590602001909291905050506114d6565b60405180821515815260200191505060405180910390f35b610a4160048036036020811015610a2b57600080fd5b81019080803590602001909291905050506114f4565b6040518082815260200191505060405180910390f35b610aee600480360360e0811015610a6d57600080fd5b81019080803573ffffffffffffffffffffffffffffffffffffffff169060200190929190803573ffffffffffffffffffffffffffffffffffffffff1690602001909291908035906020019092919080359060200190929190803560ff169060200190929190803590602001909291908035906020019092919050505061151a565b005b610af861179c565b6040518082815260200191505060405180910390f35b610b5a60048036036040811015610b2457600080fd5b8101908080359060200190929190803573ffffffffffffffffffffffffffffffffffffffff1690602001909291905050506117c0565b005b610bbe60048036036040811015610b7257600080fd5b81019080803573ffffffffffffffffffffffffffffffffffffffff169060200190929190803573ffffffffffffffffffffffffffffffffffffffff169060200190929190505050611849565b6040518082815260200191505060405180910390f35b606060048054600181600116156101000203166002900480601f016020809104026020016040519081016040528092919081815260200182805460018160011615610100020316600290048015610c6c5780601f10610c4157610100808354040283529160200191610c6c565b820191906000526020600020905b815481529060010190602001808311610c4f57829003601f168201915b5050505050905090565b6000610c8a610c83611900565b8484611908565b6001905092915050565b6000600354905090565b6000610cab848484611aff565b610d6c84610cb7611900565b610d6785604051806060016040528060288152602001612e4b60289139600260008b73ffffffffffffffffffffffffffffffffffffffff1673ffffffffffffffffffffffffffffffffffffffff1681526020019081526020016000206000610d1d611900565b73ffffffffffffffffffffffffffffffffffffffff1673ffffffffffffffffffffffffffffffffffffffff16815260200190815260200160002054611b219092919063ffffffff16565b611908565b600190509392505050565b6000806000838152602001908152602001600020600201549050919050565b610dbc60008084815260200190815260200160002060020154610db7611900565b611250565b610e11576040517f08c379a000000000000000000000000000000000000000000000000000000000815260040180806020018281038252602f815260200180612d3e602f913960400191505060405180910390fd5b610e1b8282611be1565b5050565b7f000000000000000000000000000000000000000000000000000000000000000081565b6000600660009054906101000a900460ff16905090565b7f000000000000000000000000000000000000000000000000000000000000000081565b610e86611900565b73ffffffffffffffffffffffffffffffffffffffff168173ffffffffffffffffffffffffffffffffffffffff1614610f09576040517f08c379a000000000000000000000000000000000000000000000000000000000815260040180806020018281038252602f815260200180612f26602f913960400191505060405180910390fd5b610f138282611c74565b5050565b6000610fc0610f24611900565b84610fbb8560026000610f35611900565b73ffffffffffffffffffffffffffffffffffffffff1673ffffffffffffffffffffffffffffffffffffffff16815260200190815260200160002060008973ffffffffffffffffffffffffffffffffffffffff1673ffffffffffffffffffffffffffffffffffffffff16815260200190815260200160002054611d0790919063ffffffff16565b611908565b6001905092915050565b610ffb7f9f2df0fed2c77648de5860a4cc508cd0818c85b8b8a1ab4ceeef8d981c8956a6610ff6611900565b611250565b61106d576040517f08c379a000000000000000000000000000000000000000000000000000000000815260040180806020018281038252600f8152602001807f4552525f4d494e5445525f524f4c45000000000000000000000000000000000081525060200191505060405180910390fd5b6110778282611d8f565b5050565b61108c611086611900565b82611dae565b50565b60008060006110dc84600760008873ffffffffffffffffffffffffffffffffffffffff1673ffffffffffffffffffffffffffffffffffffffff168152602001908152602001600020611dcd565b91509150816110f3576110ee8561115c565b6110f5565b805b9250505092915050565b6040518060400160405280600181526020017f310000000000000000000000000000000000000000000000000000000000000081525081565b7f5fdbd35e8da83ee755d5e62a539e5ed7f47126abede0b8b10f9ea43dc6eed07f81565b6000600160008373ffffffffffffffffffffffffffffffffffffffff1673ffffffffffffffffffffffffffffffffffffffff168152602001908152602001600020549050919050565b60006111e482604051806060016040528060248152602001612e73602491396111d5866111d0611900565b611849565b611b219092919063ffffffff16565b90506111f8836111f2611900565b83611908565b6112028383611dae565b505050565b600b6020528060005260406000206000915090505481565b600061124882600080868152602001908152602001600020600001611f2490919063ffffffff16565b905092915050565b600061127982600080868152602001908152602001600020600001611f3e90919063ffffffff16565b905092915050565b606060058054600181600116156101000203166002900480601f0160208091040260200160405190810160405280929190818152602001828054600181600116156101000203166002900480156113195780601f106112ee57610100808354040283529160200191611319565b820191906000526020600020905b8154815290600101906020018083116112fc57829003601f168201915b5050505050905090565b6113547f5fdbd35e8da83ee755d5e62a539e5ed7f47126abede0b8b10f9ea43dc6eed07f61134f611900565b611250565b6113c6576040517f08c379a00000000000000000000000000000000000000000000000000000000081526004018080602001828103825260118152602001807f4552525f534e415053484f545f524f4c4500000000000000000000000000000081525060200191505060405180910390fd5b6113ce611f6e565b50565b60008060006113e1846008611dcd565b91509150816113f7576113f2610c94565b6113f9565b805b92505050919050565b6000801b81565b60006114cc611416611900565b846114c785604051806060016040528060258152602001612f016025913960026000611440611900565b73ffffffffffffffffffffffffffffffffffffffff1673ffffffffffffffffffffffffffffffffffffffff16815260200190815260200160002060008a73ffffffffffffffffffffffffffffffffffffffff1673ffffffffffffffffffffffffffffffffffffffff16815260200190815260200160002054611b219092919063ffffffff16565b611908565b6001905092915050565b60006114ea6114e3611900565b8484611aff565b6001905092915050565b6000611513600080848152602001908152602001600020600001611fc6565b9050919050565b83421115611590576040517f08c379a000000000000000000000000000000000000000000000000000000000815260040180806020018281038252600f8152602001807f4552525f455850495245445f534947000000000000000000000000000000000081525060200191505060405180910390fd5b60006119017f00000000000000000000000000000000000000000000000000000000000000007f00000000000000000000000000000000000000000000000000000000000000008a8a8a600b60008f73ffffffffffffffffffffffffffffffffffffffff1673ffffffffffffffffffffffffffffffffffffffff1681526020019081526020016000206000815480929190600101919050558b604051602001808781526020018673ffffffffffffffffffffffffffffffffffffffff1681526020018573ffffffffffffffffffffffffffffffffffffffff168152602001848152602001838152602001828152602001965050505050505060405160208183030381529060405280519060200120604051602001808461ffff1660f01b815260020183815260200182815260200193505050506040516020818303038152906040528051906020012090506116e781858585611fdb565b73ffffffffffffffffffffffffffffffffffffffff168873ffffffffffffffffffffffffffffffffffffffff1614611787576040517f08c379a000000000000000000000000000000000000000000000000000000000815260040180806020018281038252600f8152602001807f4552525f494e56414c49445f534947000000000000000000000000000000000081525060200191505060405180910390fd5b611792888888611908565b5050505050505050565b7f9f2df0fed2c77648de5860a4cc508cd0818c85b8b8a1ab4ceeef8d981c8956a681565b6117e6600080848152602001908152602001600020600201546117e1611900565b611250565b61183b576040517f08c379a0000000000000000000000000000000000000000000000000000000008152600401808060200182810382526030815260200180612df96030913960400191505060405180910390fd5b6118458282611c74565b5050565b6000600260008473ffffffffffffffffffffffffffffffffffffffff1673ffffffffffffffffffffffffffffffffffffffff16815260200190815260200160002060008373ffffffffffffffffffffffffffffffffffffffff1673ffffffffffffffffffffffffffffffffffffffff16815260200190815260200160002054905092915050565b60006118f8836000018373ffffffffffffffffffffffffffffffffffffffff1660001b6121de565b905092915050565b600033905090565b600073ffffffffffffffffffffffffffffffffffffffff168373ffffffffffffffffffffffffffffffffffffffff16141561198e576040517f08c379a0000000000000000000000000000000000000000000000000000000008152600401808060200182810382526024815260200180612edd6024913960400191505060405180910390fd5b600073ffffffffffffffffffffffffffffffffffffffff168273ffffffffffffffffffffffffffffffffffffffff161415611a14576040517f08c379a0000000000000000000000000000000000000000000000000000000008152600401808060200182810382526022815260200180612d8f6022913960400191505060405180910390fd5b80600260008573ffffffffffffffffffffffffffffffffffffffff1673ffffffffffffffffffffffffffffffffffffffff16815260200190815260200160002060008473ffffffffffffffffffffffffffffffffffffffff1673ffffffffffffffffffffffffffffffffffffffff168152602001908152602001600020819055508173ffffffffffffffffffffffffffffffffffffffff168373ffffffffffffffffffffffffffffffffffffffff167f8c5be1e5ebec7d5bd14f71427d1e84f3dd0314c0f7b2291e5b200ac8c7c3b925836040518082815260200191505060405180910390a3505050565b611b088361224e565b611b118261224e565b611b1c8383836122a1565b505050565b6000838311158290611bce576040517f08c379a00000000000000000000000000000000000000000000000000000000081526004018080602001828103825283818151815260200191508051906020019080838360005b83811015611b93578082015181840152602081019050611b78565b50505050905090810190601f168015611bc05780820380516001836020036101000a031916815260200191505b509250505060405180910390fd5b5060008385039050809150509392505050565b611c08816000808581526020019081526020016000206000016118d090919063ffffffff16565b15611c7057611c15611900565b73ffffffffffffffffffffffffffffffffffffffff168173ffffffffffffffffffffffffffffffffffffffff16837f2f8788117e7eff1d82e926ec794901d17c78024a50270940304540a733656f0d60405160405180910390a45b5050565b611c9b8160008085815260200190815260200160002060000161256690919063ffffffff16565b15611d0357611ca8611900565b73ffffffffffffffffffffffffffffffffffffffff168173ffffffffffffffffffffffffffffffffffffffff16837ff6391f5c32d9c69d2a47ea670b442974b53935d1edc7fd64eb21e047a839171b60405160405180910390a45b5050565b600080828401905083811015611d85576040517f08c379a000000000000000000000000000000000000000000000000000000000815260040180806020018281038252601b8152602001807f536166654d6174683a206164646974696f6e206f766572666c6f77000000000081525060200191505060405180910390fd5b8091505092915050565b611d988261224e565b611da0612596565b611daa82826125aa565b5050565b611db78261224e565b611dbf612596565b611dc98282612773565b5050565b60008060008411611e46576040517f08c379a00000000000000000000000000000000000000000000000000000000081526004018080602001828103825260168152602001807f4552433230536e617073686f743a20696420697320300000000000000000000081525060200191505060405180910390fd5b611e50600a612939565b841115611ec5576040517f08c379a000000000000000000000000000000000000000000000000000000000815260040180806020018281038252601d8152602001807f4552433230536e617073686f743a206e6f6e6578697374656e7420696400000081525060200191505060405180910390fd5b6000611edd858560000161294790919063ffffffff16565b90508360000180549050811415611efb576000809250925050611f1d565b6001846001018281548110611f0c57fe5b906000526020600020015492509250505b9250929050565b6000611f3383600001836129f8565b60001c905092915050565b6000611f66836000018373ffffffffffffffffffffffffffffffffffffffff1660001b612a7b565b905092915050565b6000611f7a600a612a9e565b6000611f86600a612939565b90507f8030e83b04d87bef53480e26263266d6ca66863aa8506aca6f2559d18aa1cb67816040518082815260200191505060405180910390a18091505090565b6000611fd482600001612ab4565b9050919050565b60007f7fffffffffffffffffffffffffffffff5d576e7357a4501ddfe92f46681b20a08260001c1115612059576040517f08c379a0000000000000000000000000000000000000000000000000000000008152600401808060200182810382526022815260200180612dd76022913960400191505060405180910390fd5b601b8460ff16141580156120715750601c8460ff1614155b156120c7576040517f08c379a0000000000000000000000000000000000000000000000000000000008152600401808060200182810382526022815260200180612e296022913960400191505060405180910390fd5b600060018686868660405160008152602001604052604051808581526020018460ff1681526020018381526020018281526020019450505050506020604051602081039080840390855afa158015612123573d6000803e3d6000fd5b505050602060405103519050600073ffffffffffffffffffffffffffffffffffffffff168173ffffffffffffffffffffffffffffffffffffffff1614156121d2576040517f08c379a00000000000000000000000000000000000000000000000000000000081526004018080602001828103825260188152602001807f45434453413a20696e76616c6964207369676e6174757265000000000000000081525060200191505060405180910390fd5b80915050949350505050565b60006121ea8383612a7b565b612243578260000182908060018154018082558091505060019003906000526020600020016000909190919091505582600001805490508360010160008481526020019081526020016000208190555060019050612248565b600090505b92915050565b61229e600760008373ffffffffffffffffffffffffffffffffffffffff1673ffffffffffffffffffffffffffffffffffffffff1681526020019081526020016000206122998361115c565b612ac5565b50565b600073ffffffffffffffffffffffffffffffffffffffff168373ffffffffffffffffffffffffffffffffffffffff161415612327576040517f08c379a0000000000000000000000000000000000000000000000000000000008152600401808060200182810382526025815260200180612eb86025913960400191505060405180910390fd5b600073ffffffffffffffffffffffffffffffffffffffff168273ffffffffffffffffffffffffffffffffffffffff1614156123ad576040517f08c379a0000000000000000000000000000000000000000000000000000000008152600401808060200182810382526023815260200180612d1b6023913960400191505060405180910390fd5b6123b8838383612b42565b61242481604051806060016040528060268152602001612db160269139600160008773ffffffffffffffffffffffffffffffffffffffff1673ffffffffffffffffffffffffffffffffffffffff16815260200190815260200160002054611b219092919063ffffffff16565b600160008573ffffffffffffffffffffffffffffffffffffffff1673ffffffffffffffffffffffffffffffffffffffff168152602001908152602001600020819055506124b981600160008573ffffffffffffffffffffffffffffffffffffffff1673ffffffffffffffffffffffffffffffffffffffff16815260200190815260200160002054611d0790919063ffffffff16565b600160008473ffffffffffffffffffffffffffffffffffffffff1673ffffffffffffffffffffffffffffffffffffffff168152602001908152602001600020819055508173ffffffffffffffffffffffffffffffffffffffff168373ffffffffffffffffffffffffffffffffffffffff167fddf252ad1be2c89b69c2b068fc378daa952ba7f163c4a11628f55a4df523b3ef836040518082815260200191505060405180910390a3505050565b600061258e836000018373ffffffffffffffffffffffffffffffffffffffff1660001b612b47565b905092915050565b6125a860086125a3610c94565b612ac5565b565b600073ffffffffffffffffffffffffffffffffffffffff168273ffffffffffffffffffffffffffffffffffffffff16141561264d576040517f08c379a000000000000000000000000000000000000000000000000000000000815260040180806020018281038252601f8152602001807f45524332303a206d696e7420746f20746865207a65726f20616464726573730081525060200191505060405180910390fd5b61265960008383612b42565b61266e81600354611d0790919063ffffffff16565b6003819055506126c681600160008573ffffffffffffffffffffffffffffffffffffffff1673ffffffffffffffffffffffffffffffffffffffff16815260200190815260200160002054611d0790919063ffffffff16565b600160008473ffffffffffffffffffffffffffffffffffffffff1673ffffffffffffffffffffffffffffffffffffffff168152602001908152602001600020819055508173ffffffffffffffffffffffffffffffffffffffff16600073ffffffffffffffffffffffffffffffffffffffff167fddf252ad1be2c89b69c2b068fc378daa952ba7f163c4a11628f55a4df523b3ef836040518082815260200191505060405180910390a35050565b600073ffffffffffffffffffffffffffffffffffffffff168273ffffffffffffffffffffffffffffffffffffffff1614156127f9576040517f08c379a0000000000000000000000000000000000000000000000000000000008152600401808060200182810382526021815260200180612e976021913960400191505060405180910390fd5b61280582600083612b42565b61287181604051806060016040528060228152602001612d6d60229139600160008673ffffffffffffffffffffffffffffffffffffffff1673ffffffffffffffffffffffffffffffffffffffff16815260200190815260200160002054611b219092919063ffffffff16565b600160008473ffffffffffffffffffffffffffffffffffffffff1673ffffffffffffffffffffffffffffffffffffffff168152602001908152602001600020819055506128c981600354612c2f90919063ffffffff16565b600381905550600073ffffffffffffffffffffffffffffffffffffffff168273ffffffffffffffffffffffffffffffffffffffff167fddf252ad1be2c89b69c2b068fc378daa952ba7f163c4a11628f55a4df523b3ef836040518082815260200191505060405180910390a35050565b600081600001549050919050565b6000808380549050141561295e57600090506129f2565b600080848054905090505b808210156129b257600061297d8383612c79565b90508486828154811061298c57fe5b906000526020600020015411156129a5578091506129ac565b6001810192505b50612969565b6000821180156129da5750838560018403815481106129cd57fe5b9060005260206000200154145b156129ec5760018203925050506129f2565b81925050505b92915050565b600081836000018054905011612a59576040517f08c379a0000000000000000000000000000000000000000000000000000000008152600401808060200182810382526022815260200180612cf96022913960400191505060405180910390fd5b826000018281548110612a6857fe5b9060005260206000200154905092915050565b600080836001016000848152602001908152602001600020541415905092915050565b6001816000016000828254019250508190555050565b600081600001805490509050919050565b6000612ad1600a612939565b905080612ae084600001612cbb565b1015612b3d5782600001819080600181540180825580915050600190039060005260206000200160009091909190915055826001018290806001815401808255809150506001900390600052602060002001600090919091909150555b505050565b505050565b60008083600101600084815260200190815260200160002054905060008114612c235760006001820390506000600186600001805490500390506000866000018281548110612b9257fe5b9060005260206000200154905080876000018481548110612baf57fe5b9060005260206000200181905550600183018760010160008381526020019081526020016000208190555086600001805480612be757fe5b60019003818190600052602060002001600090559055866001016000878152602001908152602001600020600090556001945050505050612c29565b60009150505b92915050565b6000612c7183836040518060400160405280601e81526020017f536166654d6174683a207375627472616374696f6e206f766572666c6f770000815250611b21565b905092915050565b60006002808381612c8657fe5b0660028581612c9157fe5b060181612c9a57fe5b0460028381612ca557fe5b0460028581612cb057fe5b040101905092915050565b60008082805490501415612cd25760009050612cf3565b81600183805490500381548110612ce557fe5b906000526020600020015490505b91905056fe456e756d657261626c655365743a20696e646578206f7574206f6620626f756e647345524332303a207472616e7366657220746f20746865207a65726f2061646472657373416363657373436f6e74726f6c3a2073656e646572206d75737420626520616e2061646d696e20746f206772616e7445524332303a206275726e20616d6f756e7420657863656564732062616c616e636545524332303a20617070726f766520746f20746865207a65726f206164647265737345524332303a207472616e7366657220616d6f756e7420657863656564732062616c616e636545434453413a20696e76616c6964207369676e6174757265202773272076616c7565416363657373436f6e74726f6c3a2073656e646572206d75737420626520616e2061646d696e20746f207265766f6b6545434453413a20696e76616c6964207369676e6174757265202776272076616c756545524332303a207472616e7366657220616d6f756e74206578636565647320616c6c6f77616e636545524332303a206275726e20616d6f756e74206578636565647320616c6c6f77616e636545524332303a206275726e2066726f6d20746865207a65726f206164647265737345524332303a207472616e736665722066726f6d20746865207a65726f206164647265737345524332303a20617070726f76652066726f6d20746865207a65726f206164647265737345524332303a2064656372656173656420616c6c6f77616e63652062656c6f77207a65726f416363657373436f6e74726f6c3a2063616e206f6e6c792072656e6f756e636520726f6c657320666f722073656c66a26469706673582212202a559b336ed002d7130b5a7bfe36b7c036118288e63debeecdf00d2125364f3964736f6c63430007010033",
          "opcodes": "PUSH1 0xC0 PUSH1 0x40 MSTORE PUSH32 0x6E71EDAE12B1B97F4D1F60370FEF10105FA2FAAE0126114A169C64845D6126C9 PUSH1 0x0 SHL PUSH1 0xA0 SWAP1 DUP2 MSTORE POP CALLVALUE DUP1 ISZERO PUSH3 0x3B JUMPI PUSH1 0x0 DUP1 REVERT JUMPDEST POP PUSH1 0x40 MLOAD PUSH3 0x35BC CODESIZE SUB DUP1 PUSH3 0x35BC DUP4 CODECOPY DUP2 DUP2 ADD PUSH1 0x40 MSTORE PUSH1 0x40 DUP2 LT ISZERO PUSH3 0x61 JUMPI PUSH1 0x0 DUP1 REVERT JUMPDEST DUP2 ADD SWAP1 DUP1 DUP1 MLOAD PUSH1 0x40 MLOAD SWAP4 SWAP3 SWAP2 SWAP1 DUP5 PUSH5 0x100000000 DUP3 GT ISZERO PUSH3 0x82 JUMPI PUSH1 0x0 DUP1 REVERT JUMPDEST DUP4 DUP3 ADD SWAP2 POP PUSH1 0x20 DUP3 ADD DUP6 DUP2 GT ISZERO PUSH3 0x99 JUMPI PUSH1 0x0 DUP1 REVERT JUMPDEST DUP3 MLOAD DUP7 PUSH1 0x1 DUP3 MUL DUP4 ADD GT PUSH5 0x100000000 DUP3 GT OR ISZERO PUSH3 0xB7 JUMPI PUSH1 0x0 DUP1 REVERT JUMPDEST DUP1 DUP4 MSTORE PUSH1 0x20 DUP4 ADD SWAP3 POP POP POP SWAP1 DUP1 MLOAD SWAP1 PUSH1 0x20 ADD SWAP1 DUP1 DUP4 DUP4 PUSH1 0x0 JUMPDEST DUP4 DUP2 LT ISZERO PUSH3 0xED JUMPI DUP1 DUP3 ADD MLOAD DUP2 DUP5 ADD MSTORE PUSH1 0x20 DUP2 ADD SWAP1 POP PUSH3 0xD0 JUMP JUMPDEST POP POP POP POP SWAP1 POP SWAP1 DUP2 ADD SWAP1 PUSH1 0x1F AND DUP1 ISZERO PUSH3 0x11B JUMPI DUP1 DUP3 SUB DUP1 MLOAD PUSH1 0x1 DUP4 PUSH1 0x20 SUB PUSH2 0x100 EXP SUB NOT AND DUP2 MSTORE PUSH1 0x20 ADD SWAP2 POP JUMPDEST POP PUSH1 0x40 MSTORE PUSH1 0x20 ADD DUP1 MLOAD PUSH1 0x40 MLOAD SWAP4 SWAP3 SWAP2 SWAP1 DUP5 PUSH5 0x100000000 DUP3 GT ISZERO PUSH3 0x13F JUMPI PUSH1 0x0 DUP1 REVERT JUMPDEST DUP4 DUP3 ADD SWAP2 POP PUSH1 0x20 DUP3 ADD DUP6 DUP2 GT ISZERO PUSH3 0x156 JUMPI PUSH1 0x0 DUP1 REVERT JUMPDEST DUP3 MLOAD DUP7 PUSH1 0x1 DUP3 MUL DUP4 ADD GT PUSH5 0x100000000 DUP3 GT OR ISZERO PUSH3 0x174 JUMPI PUSH1 0x0 DUP1 REVERT JUMPDEST DUP1 DUP4 MSTORE PUSH1 0x20 DUP4 ADD SWAP3 POP POP POP SWAP1 DUP1 MLOAD SWAP1 PUSH1 0x20 ADD SWAP1 DUP1 DUP4 DUP4 PUSH1 0x0 JUMPDEST DUP4 DUP2 LT ISZERO PUSH3 0x1AA JUMPI DUP1 DUP3 ADD MLOAD DUP2 DUP5 ADD MSTORE PUSH1 0x20 DUP2 ADD SWAP1 POP PUSH3 0x18D JUMP JUMPDEST POP POP POP POP SWAP1 POP SWAP1 DUP2 ADD SWAP1 PUSH1 0x1F AND DUP1 ISZERO PUSH3 0x1D8 JUMPI DUP1 DUP3 SUB DUP1 MLOAD PUSH1 0x1 DUP4 PUSH1 0x20 SUB PUSH2 0x100 EXP SUB NOT AND DUP2 MSTORE PUSH1 0x20 ADD SWAP2 POP JUMPDEST POP PUSH1 0x40 MSTORE POP POP POP DUP2 DUP2 DUP2 PUSH1 0x4 SWAP1 DUP1 MLOAD SWAP1 PUSH1 0x20 ADD SWAP1 PUSH3 0x1F9 SWAP3 SWAP2 SWAP1 PUSH3 0x55E JUMP JUMPDEST POP DUP1 PUSH1 0x5 SWAP1 DUP1 MLOAD SWAP1 PUSH1 0x20 ADD SWAP1 PUSH3 0x212 SWAP3 SWAP2 SWAP1 PUSH3 0x55E JUMP JUMPDEST POP PUSH1 0x12 PUSH1 0x6 PUSH1 0x0 PUSH2 0x100 EXP DUP2 SLOAD DUP2 PUSH1 0xFF MUL NOT AND SWAP1 DUP4 PUSH1 0xFF AND MUL OR SWAP1 SSTORE POP POP POP PUSH3 0x255 PUSH1 0x0 DUP1 SHL PUSH3 0x249 PUSH3 0x3BB PUSH1 0x20 SHL PUSH1 0x20 SHR JUMP JUMPDEST PUSH3 0x3C3 PUSH1 0x20 SHL PUSH1 0x20 SHR JUMP JUMPDEST PUSH3 0x296 PUSH32 0x9F2DF0FED2C77648DE5860A4CC508CD0818C85B8B8A1AB4CEEEF8D981C8956A6 PUSH3 0x28A PUSH3 0x3BB PUSH1 0x20 SHL PUSH1 0x20 SHR JUMP JUMPDEST PUSH3 0x3C3 PUSH1 0x20 SHL PUSH1 0x20 SHR JUMP JUMPDEST PUSH3 0x2D7 PUSH32 0x5FDBD35E8DA83EE755D5E62A539E5ED7F47126ABEDE0B8B10F9EA43DC6EED07F PUSH3 0x2CB PUSH3 0x3BB PUSH1 0x20 SHL PUSH1 0x20 SHR JUMP JUMPDEST PUSH3 0x3C3 PUSH1 0x20 SHL PUSH1 0x20 SHR JUMP JUMPDEST PUSH1 0x0 PUSH3 0x2E9 PUSH3 0x3D9 PUSH1 0x20 SHL PUSH1 0x20 SHR JUMP JUMPDEST SWAP1 POP PUSH32 0x8B73C3C69BB8FE3D512ECC4CF759CC79239F7B179B0FFACAA9A75D522B39400F DUP4 DUP1 MLOAD SWAP1 PUSH1 0x20 ADD KECCAK256 PUSH1 0x40 MLOAD DUP1 PUSH1 0x40 ADD PUSH1 0x40 MSTORE DUP1 PUSH1 0x1 DUP2 MSTORE PUSH1 0x20 ADD PUSH32 0x3100000000000000000000000000000000000000000000000000000000000000 DUP2 MSTORE POP DUP1 MLOAD SWAP1 PUSH1 0x20 ADD KECCAK256 DUP4 ADDRESS PUSH1 0x40 MLOAD PUSH1 0x20 ADD DUP1 DUP7 DUP2 MSTORE PUSH1 0x20 ADD DUP6 DUP2 MSTORE PUSH1 0x20 ADD DUP5 DUP2 MSTORE PUSH1 0x20 ADD DUP4 DUP2 MSTORE PUSH1 0x20 ADD DUP3 PUSH20 0xFFFFFFFFFFFFFFFFFFFFFFFFFFFFFFFFFFFFFFFF AND DUP2 MSTORE PUSH1 0x20 ADD SWAP6 POP POP POP POP POP POP PUSH1 0x40 MLOAD PUSH1 0x20 DUP2 DUP4 SUB SUB DUP2 MSTORE SWAP1 PUSH1 0x40 MSTORE DUP1 MLOAD SWAP1 PUSH1 0x20 ADD KECCAK256 PUSH1 0x80 DUP2 DUP2 MSTORE POP POP POP POP POP PUSH3 0x604 JUMP JUMPDEST PUSH1 0x0 CALLER SWAP1 POP SWAP1 JUMP JUMPDEST PUSH3 0x3D5 DUP3 DUP3 PUSH3 0x3E6 PUSH1 0x20 SHL PUSH1 0x20 SHR JUMP JUMPDEST POP POP JUMP JUMPDEST PUSH1 0x0 DUP1 CHAINID SWAP1 POP DUP1 SWAP2 POP POP SWAP1 JUMP JUMPDEST PUSH3 0x414 DUP2 PUSH1 0x0 DUP1 DUP6 DUP2 MSTORE PUSH1 0x20 ADD SWAP1 DUP2 MSTORE PUSH1 0x20 ADD PUSH1 0x0 KECCAK256 PUSH1 0x0 ADD PUSH3 0x489 PUSH1 0x20 SHL PUSH3 0x18D0 OR SWAP1 SWAP2 SWAP1 PUSH1 0x20 SHR JUMP JUMPDEST ISZERO PUSH3 0x485 JUMPI PUSH3 0x42A PUSH3 0x3BB PUSH1 0x20 SHL PUSH1 0x20 SHR JUMP JUMPDEST PUSH20 0xFFFFFFFFFFFFFFFFFFFFFFFFFFFFFFFFFFFFFFFF AND DUP2 PUSH20 0xFFFFFFFFFFFFFFFFFFFFFFFFFFFFFFFFFFFFFFFF AND DUP4 PUSH32 0x2F8788117E7EFF1D82E926EC794901D17C78024A50270940304540A733656F0D PUSH1 0x40 MLOAD PUSH1 0x40 MLOAD DUP1 SWAP2 SUB SWAP1 LOG4 JUMPDEST POP POP JUMP JUMPDEST PUSH1 0x0 PUSH3 0x4B9 DUP4 PUSH1 0x0 ADD DUP4 PUSH20 0xFFFFFFFFFFFFFFFFFFFFFFFFFFFFFFFFFFFFFFFF AND PUSH1 0x0 SHL PUSH3 0x4C1 PUSH1 0x20 SHL PUSH1 0x20 SHR JUMP JUMPDEST SWAP1 POP SWAP3 SWAP2 POP POP JUMP JUMPDEST PUSH1 0x0 PUSH3 0x4D5 DUP4 DUP4 PUSH3 0x53B PUSH1 0x20 SHL PUSH1 0x20 SHR JUMP JUMPDEST PUSH3 0x530 JUMPI DUP3 PUSH1 0x0 ADD DUP3 SWAP1 DUP1 PUSH1 0x1 DUP2 SLOAD ADD DUP1 DUP3 SSTORE DUP1 SWAP2 POP POP PUSH1 0x1 SWAP1 SUB SWAP1 PUSH1 0x0 MSTORE PUSH1 0x20 PUSH1 0x0 KECCAK256 ADD PUSH1 0x0 SWAP1 SWAP2 SWAP1 SWAP2 SWAP1 SWAP2 POP SSTORE DUP3 PUSH1 0x0 ADD DUP1 SLOAD SWAP1 POP DUP4 PUSH1 0x1 ADD PUSH1 0x0 DUP5 DUP2 MSTORE PUSH1 0x20 ADD SWAP1 DUP2 MSTORE PUSH1 0x20 ADD PUSH1 0x0 KECCAK256 DUP2 SWAP1 SSTORE POP PUSH1 0x1 SWAP1 POP PUSH3 0x535 JUMP JUMPDEST PUSH1 0x0 SWAP1 POP JUMPDEST SWAP3 SWAP2 POP POP JUMP JUMPDEST PUSH1 0x0 DUP1 DUP4 PUSH1 0x1 ADD PUSH1 0x0 DUP5 DUP2 MSTORE PUSH1 0x20 ADD SWAP1 DUP2 MSTORE PUSH1 0x20 ADD PUSH1 0x0 KECCAK256 SLOAD EQ ISZERO SWAP1 POP SWAP3 SWAP2 POP POP JUMP JUMPDEST DUP3 DUP1 SLOAD PUSH1 0x1 DUP2 PUSH1 0x1 AND ISZERO PUSH2 0x100 MUL SUB AND PUSH1 0x2 SWAP1 DIV SWAP1 PUSH1 0x0 MSTORE PUSH1 0x20 PUSH1 0x0 KECCAK256 SWAP1 PUSH1 0x1F ADD PUSH1 0x20 SWAP1 DIV DUP2 ADD SWAP3 DUP3 PUSH1 0x1F LT PUSH3 0x5A1 JUMPI DUP1 MLOAD PUSH1 0xFF NOT AND DUP4 DUP1 ADD OR DUP6 SSTORE PUSH3 0x5D2 JUMP JUMPDEST DUP3 DUP1 ADD PUSH1 0x1 ADD DUP6 SSTORE DUP3 ISZERO PUSH3 0x5D2 JUMPI SWAP2 DUP3 ADD JUMPDEST DUP3 DUP2 GT ISZERO PUSH3 0x5D1 JUMPI DUP3 MLOAD DUP3 SSTORE SWAP2 PUSH1 0x20 ADD SWAP2 SWAP1 PUSH1 0x1 ADD SWAP1 PUSH3 0x5B4 JUMP JUMPDEST JUMPDEST POP SWAP1 POP PUSH3 0x5E1 SWAP2 SWAP1 PUSH3 0x5E5 JUMP JUMPDEST POP SWAP1 JUMP JUMPDEST JUMPDEST DUP1 DUP3 GT ISZERO PUSH3 0x600 JUMPI PUSH1 0x0 DUP2 PUSH1 0x0 SWAP1 SSTORE POP PUSH1 0x1 ADD PUSH3 0x5E6 JUMP JUMPDEST POP SWAP1 JUMP JUMPDEST PUSH1 0x80 MLOAD PUSH1 0xA0 MLOAD PUSH2 0x2F8A PUSH3 0x632 PUSH1 0x0 CODECOPY DUP1 PUSH2 0xE21 MSTORE DUP1 PUSH2 0x15B8 MSTORE POP DUP1 PUSH2 0xE5C MSTORE DUP1 PUSH2 0x1597 MSTORE POP PUSH2 0x2F8A PUSH1 0x0 RETURN INVALID PUSH1 0x80 PUSH1 0x40 MSTORE CALLVALUE DUP1 ISZERO PUSH2 0x10 JUMPI PUSH1 0x0 DUP1 REVERT JUMPDEST POP PUSH1 0x4 CALLDATASIZE LT PUSH2 0x1F0 JUMPI PUSH1 0x0 CALLDATALOAD PUSH1 0xE0 SHR DUP1 PUSH4 0x70A08231 GT PUSH2 0x10F JUMPI DUP1 PUSH4 0xA217FDDF GT PUSH2 0xA2 JUMPI DUP1 PUSH4 0xD505ACCF GT PUSH2 0x71 JUMPI DUP1 PUSH4 0xD505ACCF EQ PUSH2 0xA57 JUMPI DUP1 PUSH4 0xD5391393 EQ PUSH2 0xAF0 JUMPI DUP1 PUSH4 0xD547741F EQ PUSH2 0xB0E JUMPI DUP1 PUSH4 0xDD62ED3E EQ PUSH2 0xB5C JUMPI PUSH2 0x1F0 JUMP JUMPDEST DUP1 PUSH4 0xA217FDDF EQ PUSH2 0x92F JUMPI DUP1 PUSH4 0xA457C2D7 EQ PUSH2 0x94D JUMPI DUP1 PUSH4 0xA9059CBB EQ PUSH2 0x9B1 JUMPI DUP1 PUSH4 0xCA15C873 EQ PUSH2 0xA15 JUMPI PUSH2 0x1F0 JUMP JUMPDEST DUP1 PUSH4 0x91D14854 GT PUSH2 0xDE JUMPI DUP1 PUSH4 0x91D14854 EQ PUSH2 0x7FC JUMPI DUP1 PUSH4 0x95D89B41 EQ PUSH2 0x860 JUMPI DUP1 PUSH4 0x9711715A EQ PUSH2 0x8E3 JUMPI DUP1 PUSH4 0x981B24D0 EQ PUSH2 0x8ED JUMPI PUSH2 0x1F0 JUMP JUMPDEST DUP1 PUSH4 0x70A08231 EQ PUSH2 0x69C JUMPI DUP1 PUSH4 0x79CC6790 EQ PUSH2 0x6F4 JUMPI DUP1 PUSH4 0x7ECEBE00 EQ PUSH2 0x742 JUMPI DUP1 PUSH4 0x9010D07C EQ PUSH2 0x79A JUMPI PUSH2 0x1F0 JUMP JUMPDEST DUP1 PUSH4 0x3644E515 GT PUSH2 0x187 JUMPI DUP1 PUSH4 0x42966C68 GT PUSH2 0x156 JUMPI DUP1 PUSH4 0x42966C68 EQ PUSH2 0x56B JUMPI DUP1 PUSH4 0x4EE2CD7E EQ PUSH2 0x599 JUMPI DUP1 PUSH4 0x54FD4D50 EQ PUSH2 0x5FB JUMPI DUP1 PUSH4 0x7028E2CD EQ PUSH2 0x67E JUMPI PUSH2 0x1F0 JUMP JUMPDEST DUP1 PUSH4 0x3644E515 EQ PUSH2 0x44D JUMPI DUP1 PUSH4 0x36568ABE EQ PUSH2 0x46B JUMPI DUP1 PUSH4 0x39509351 EQ PUSH2 0x4B9 JUMPI DUP1 PUSH4 0x40C10F19 EQ PUSH2 0x51D JUMPI PUSH2 0x1F0 JUMP JUMPDEST DUP1 PUSH4 0x248A9CA3 GT PUSH2 0x1C3 JUMPI DUP1 PUSH4 0x248A9CA3 EQ PUSH2 0x37E JUMPI DUP1 PUSH4 0x2F2FF15D EQ PUSH2 0x3C0 JUMPI DUP1 PUSH4 0x30ADF81F EQ PUSH2 0x40E JUMPI DUP1 PUSH4 0x313CE567 EQ PUSH2 0x42C JUMPI PUSH2 0x1F0 JUMP JUMPDEST DUP1 PUSH4 0x6FDDE03 EQ PUSH2 0x1F5 JUMPI DUP1 PUSH4 0x95EA7B3 EQ PUSH2 0x278 JUMPI DUP1 PUSH4 0x18160DDD EQ PUSH2 0x2DC JUMPI DUP1 PUSH4 0x23B872DD EQ PUSH2 0x2FA JUMPI JUMPDEST PUSH1 0x0 DUP1 REVERT JUMPDEST PUSH2 0x1FD PUSH2 0xBD4 JUMP JUMPDEST PUSH1 0x40 MLOAD DUP1 DUP1 PUSH1 0x20 ADD DUP3 DUP2 SUB DUP3 MSTORE DUP4 DUP2 DUP2 MLOAD DUP2 MSTORE PUSH1 0x20 ADD SWAP2 POP DUP1 MLOAD SWAP1 PUSH1 0x20 ADD SWAP1 DUP1 DUP4 DUP4 PUSH1 0x0 JUMPDEST DUP4 DUP2 LT ISZERO PUSH2 0x23D JUMPI DUP1 DUP3 ADD MLOAD DUP2 DUP5 ADD MSTORE PUSH1 0x20 DUP2 ADD SWAP1 POP PUSH2 0x222 JUMP JUMPDEST POP POP POP POP SWAP1 POP SWAP1 DUP2 ADD SWAP1 PUSH1 0x1F AND DUP1 ISZERO PUSH2 0x26A JUMPI DUP1 DUP3 SUB DUP1 MLOAD PUSH1 0x1 DUP4 PUSH1 0x20 SUB PUSH2 0x100 EXP SUB NOT AND DUP2 MSTORE PUSH1 0x20 ADD SWAP2 POP JUMPDEST POP SWAP3 POP POP POP PUSH1 0x40 MLOAD DUP1 SWAP2 SUB SWAP1 RETURN JUMPDEST PUSH2 0x2C4 PUSH1 0x4 DUP1 CALLDATASIZE SUB PUSH1 0x40 DUP2 LT ISZERO PUSH2 0x28E JUMPI PUSH1 0x0 DUP1 REVERT JUMPDEST DUP2 ADD SWAP1 DUP1 DUP1 CALLDATALOAD PUSH20 0xFFFFFFFFFFFFFFFFFFFFFFFFFFFFFFFFFFFFFFFF AND SWAP1 PUSH1 0x20 ADD SWAP1 SWAP3 SWAP2 SWAP1 DUP1 CALLDATALOAD SWAP1 PUSH1 0x20 ADD SWAP1 SWAP3 SWAP2 SWAP1 POP POP POP PUSH2 0xC76 JUMP JUMPDEST PUSH1 0x40 MLOAD DUP1 DUP3 ISZERO ISZERO DUP2 MSTORE PUSH1 0x20 ADD SWAP2 POP POP PUSH1 0x40 MLOAD DUP1 SWAP2 SUB SWAP1 RETURN JUMPDEST PUSH2 0x2E4 PUSH2 0xC94 JUMP JUMPDEST PUSH1 0x40 MLOAD DUP1 DUP3 DUP2 MSTORE PUSH1 0x20 ADD SWAP2 POP POP PUSH1 0x40 MLOAD DUP1 SWAP2 SUB SWAP1 RETURN JUMPDEST PUSH2 0x366 PUSH1 0x4 DUP1 CALLDATASIZE SUB PUSH1 0x60 DUP2 LT ISZERO PUSH2 0x310 JUMPI PUSH1 0x0 DUP1 REVERT JUMPDEST DUP2 ADD SWAP1 DUP1 DUP1 CALLDATALOAD PUSH20 0xFFFFFFFFFFFFFFFFFFFFFFFFFFFFFFFFFFFFFFFF AND SWAP1 PUSH1 0x20 ADD SWAP1 SWAP3 SWAP2 SWAP1 DUP1 CALLDATALOAD PUSH20 0xFFFFFFFFFFFFFFFFFFFFFFFFFFFFFFFFFFFFFFFF AND SWAP1 PUSH1 0x20 ADD SWAP1 SWAP3 SWAP2 SWAP1 DUP1 CALLDATALOAD SWAP1 PUSH1 0x20 ADD SWAP1 SWAP3 SWAP2 SWAP1 POP POP POP PUSH2 0xC9E JUMP JUMPDEST PUSH1 0x40 MLOAD DUP1 DUP3 ISZERO ISZERO DUP2 MSTORE PUSH1 0x20 ADD SWAP2 POP POP PUSH1 0x40 MLOAD DUP1 SWAP2 SUB SWAP1 RETURN JUMPDEST PUSH2 0x3AA PUSH1 0x4 DUP1 CALLDATASIZE SUB PUSH1 0x20 DUP2 LT ISZERO PUSH2 0x394 JUMPI PUSH1 0x0 DUP1 REVERT JUMPDEST DUP2 ADD SWAP1 DUP1 DUP1 CALLDATALOAD SWAP1 PUSH1 0x20 ADD SWAP1 SWAP3 SWAP2 SWAP1 POP POP POP PUSH2 0xD77 JUMP JUMPDEST PUSH1 0x40 MLOAD DUP1 DUP3 DUP2 MSTORE PUSH1 0x20 ADD SWAP2 POP POP PUSH1 0x40 MLOAD DUP1 SWAP2 SUB SWAP1 RETURN JUMPDEST PUSH2 0x40C PUSH1 0x4 DUP1 CALLDATASIZE SUB PUSH1 0x40 DUP2 LT ISZERO PUSH2 0x3D6 JUMPI PUSH1 0x0 DUP1 REVERT JUMPDEST DUP2 ADD SWAP1 DUP1 DUP1 CALLDATALOAD SWAP1 PUSH1 0x20 ADD SWAP1 SWAP3 SWAP2 SWAP1 DUP1 CALLDATALOAD PUSH20 0xFFFFFFFFFFFFFFFFFFFFFFFFFFFFFFFFFFFFFFFF AND SWAP1 PUSH1 0x20 ADD SWAP1 SWAP3 SWAP2 SWAP1 POP POP POP PUSH2 0xD96 JUMP JUMPDEST STOP JUMPDEST PUSH2 0x416 PUSH2 0xE1F JUMP JUMPDEST PUSH1 0x40 MLOAD DUP1 DUP3 DUP2 MSTORE PUSH1 0x20 ADD SWAP2 POP POP PUSH1 0x40 MLOAD DUP1 SWAP2 SUB SWAP1 RETURN JUMPDEST PUSH2 0x434 PUSH2 0xE43 JUMP JUMPDEST PUSH1 0x40 MLOAD DUP1 DUP3 PUSH1 0xFF AND DUP2 MSTORE PUSH1 0x20 ADD SWAP2 POP POP PUSH1 0x40 MLOAD DUP1 SWAP2 SUB SWAP1 RETURN JUMPDEST PUSH2 0x455 PUSH2 0xE5A JUMP JUMPDEST PUSH1 0x40 MLOAD DUP1 DUP3 DUP2 MSTORE PUSH1 0x20 ADD SWAP2 POP POP PUSH1 0x40 MLOAD DUP1 SWAP2 SUB SWAP1 RETURN JUMPDEST PUSH2 0x4B7 PUSH1 0x4 DUP1 CALLDATASIZE SUB PUSH1 0x40 DUP2 LT ISZERO PUSH2 0x481 JUMPI PUSH1 0x0 DUP1 REVERT JUMPDEST DUP2 ADD SWAP1 DUP1 DUP1 CALLDATALOAD SWAP1 PUSH1 0x20 ADD SWAP1 SWAP3 SWAP2 SWAP1 DUP1 CALLDATALOAD PUSH20 0xFFFFFFFFFFFFFFFFFFFFFFFFFFFFFFFFFFFFFFFF AND SWAP1 PUSH1 0x20 ADD SWAP1 SWAP3 SWAP2 SWAP1 POP POP POP PUSH2 0xE7E JUMP JUMPDEST STOP JUMPDEST PUSH2 0x505 PUSH1 0x4 DUP1 CALLDATASIZE SUB PUSH1 0x40 DUP2 LT ISZERO PUSH2 0x4CF JUMPI PUSH1 0x0 DUP1 REVERT JUMPDEST DUP2 ADD SWAP1 DUP1 DUP1 CALLDATALOAD PUSH20 0xFFFFFFFFFFFFFFFFFFFFFFFFFFFFFFFFFFFFFFFF AND SWAP1 PUSH1 0x20 ADD SWAP1 SWAP3 SWAP2 SWAP1 DUP1 CALLDATALOAD SWAP1 PUSH1 0x20 ADD SWAP1 SWAP3 SWAP2 SWAP1 POP POP POP PUSH2 0xF17 JUMP JUMPDEST PUSH1 0x40 MLOAD DUP1 DUP3 ISZERO ISZERO DUP2 MSTORE PUSH1 0x20 ADD SWAP2 POP POP PUSH1 0x40 MLOAD DUP1 SWAP2 SUB SWAP1 RETURN JUMPDEST PUSH2 0x569 PUSH1 0x4 DUP1 CALLDATASIZE SUB PUSH1 0x40 DUP2 LT ISZERO PUSH2 0x533 JUMPI PUSH1 0x0 DUP1 REVERT JUMPDEST DUP2 ADD SWAP1 DUP1 DUP1 CALLDATALOAD PUSH20 0xFFFFFFFFFFFFFFFFFFFFFFFFFFFFFFFFFFFFFFFF AND SWAP1 PUSH1 0x20 ADD SWAP1 SWAP3 SWAP2 SWAP1 DUP1 CALLDATALOAD SWAP1 PUSH1 0x20 ADD SWAP1 SWAP3 SWAP2 SWAP1 POP POP POP PUSH2 0xFCA JUMP JUMPDEST STOP JUMPDEST PUSH2 0x597 PUSH1 0x4 DUP1 CALLDATASIZE SUB PUSH1 0x20 DUP2 LT ISZERO PUSH2 0x581 JUMPI PUSH1 0x0 DUP1 REVERT JUMPDEST DUP2 ADD SWAP1 DUP1 DUP1 CALLDATALOAD SWAP1 PUSH1 0x20 ADD SWAP1 SWAP3 SWAP2 SWAP1 POP POP POP PUSH2 0x107B JUMP JUMPDEST STOP JUMPDEST PUSH2 0x5E5 PUSH1 0x4 DUP1 CALLDATASIZE SUB PUSH1 0x40 DUP2 LT ISZERO PUSH2 0x5AF JUMPI PUSH1 0x0 DUP1 REVERT JUMPDEST DUP2 ADD SWAP1 DUP1 DUP1 CALLDATALOAD PUSH20 0xFFFFFFFFFFFFFFFFFFFFFFFFFFFFFFFFFFFFFFFF AND SWAP1 PUSH1 0x20 ADD SWAP1 SWAP3 SWAP2 SWAP1 DUP1 CALLDATALOAD SWAP1 PUSH1 0x20 ADD SWAP1 SWAP3 SWAP2 SWAP1 POP POP POP PUSH2 0x108F JUMP JUMPDEST PUSH1 0x40 MLOAD DUP1 DUP3 DUP2 MSTORE PUSH1 0x20 ADD SWAP2 POP POP PUSH1 0x40 MLOAD DUP1 SWAP2 SUB SWAP1 RETURN JUMPDEST PUSH2 0x603 PUSH2 0x10FF JUMP JUMPDEST PUSH1 0x40 MLOAD DUP1 DUP1 PUSH1 0x20 ADD DUP3 DUP2 SUB DUP3 MSTORE DUP4 DUP2 DUP2 MLOAD DUP2 MSTORE PUSH1 0x20 ADD SWAP2 POP DUP1 MLOAD SWAP1 PUSH1 0x20 ADD SWAP1 DUP1 DUP4 DUP4 PUSH1 0x0 JUMPDEST DUP4 DUP2 LT ISZERO PUSH2 0x643 JUMPI DUP1 DUP3 ADD MLOAD DUP2 DUP5 ADD MSTORE PUSH1 0x20 DUP2 ADD SWAP1 POP PUSH2 0x628 JUMP JUMPDEST POP POP POP POP SWAP1 POP SWAP1 DUP2 ADD SWAP1 PUSH1 0x1F AND DUP1 ISZERO PUSH2 0x670 JUMPI DUP1 DUP3 SUB DUP1 MLOAD PUSH1 0x1 DUP4 PUSH1 0x20 SUB PUSH2 0x100 EXP SUB NOT AND DUP2 MSTORE PUSH1 0x20 ADD SWAP2 POP JUMPDEST POP SWAP3 POP POP POP PUSH1 0x40 MLOAD DUP1 SWAP2 SUB SWAP1 RETURN JUMPDEST PUSH2 0x686 PUSH2 0x1138 JUMP JUMPDEST PUSH1 0x40 MLOAD DUP1 DUP3 DUP2 MSTORE PUSH1 0x20 ADD SWAP2 POP POP PUSH1 0x40 MLOAD DUP1 SWAP2 SUB SWAP1 RETURN JUMPDEST PUSH2 0x6DE PUSH1 0x4 DUP1 CALLDATASIZE SUB PUSH1 0x20 DUP2 LT ISZERO PUSH2 0x6B2 JUMPI PUSH1 0x0 DUP1 REVERT JUMPDEST DUP2 ADD SWAP1 DUP1 DUP1 CALLDATALOAD PUSH20 0xFFFFFFFFFFFFFFFFFFFFFFFFFFFFFFFFFFFFFFFF AND SWAP1 PUSH1 0x20 ADD SWAP1 SWAP3 SWAP2 SWAP1 POP POP POP PUSH2 0x115C JUMP JUMPDEST PUSH1 0x40 MLOAD DUP1 DUP3 DUP2 MSTORE PUSH1 0x20 ADD SWAP2 POP POP PUSH1 0x40 MLOAD DUP1 SWAP2 SUB SWAP1 RETURN JUMPDEST PUSH2 0x740 PUSH1 0x4 DUP1 CALLDATASIZE SUB PUSH1 0x40 DUP2 LT ISZERO PUSH2 0x70A JUMPI PUSH1 0x0 DUP1 REVERT JUMPDEST DUP2 ADD SWAP1 DUP1 DUP1 CALLDATALOAD PUSH20 0xFFFFFFFFFFFFFFFFFFFFFFFFFFFFFFFFFFFFFFFF AND SWAP1 PUSH1 0x20 ADD SWAP1 SWAP3 SWAP2 SWAP1 DUP1 CALLDATALOAD SWAP1 PUSH1 0x20 ADD SWAP1 SWAP3 SWAP2 SWAP1 POP POP POP PUSH2 0x11A5 JUMP JUMPDEST STOP JUMPDEST PUSH2 0x784 PUSH1 0x4 DUP1 CALLDATASIZE SUB PUSH1 0x20 DUP2 LT ISZERO PUSH2 0x758 JUMPI PUSH1 0x0 DUP1 REVERT JUMPDEST DUP2 ADD SWAP1 DUP1 DUP1 CALLDATALOAD PUSH20 0xFFFFFFFFFFFFFFFFFFFFFFFFFFFFFFFFFFFFFFFF AND SWAP1 PUSH1 0x20 ADD SWAP1 SWAP3 SWAP2 SWAP1 POP POP POP PUSH2 0x1207 JUMP JUMPDEST PUSH1 0x40 MLOAD DUP1 DUP3 DUP2 MSTORE PUSH1 0x20 ADD SWAP2 POP POP PUSH1 0x40 MLOAD DUP1 SWAP2 SUB SWAP1 RETURN JUMPDEST PUSH2 0x7D0 PUSH1 0x4 DUP1 CALLDATASIZE SUB PUSH1 0x40 DUP2 LT ISZERO PUSH2 0x7B0 JUMPI PUSH1 0x0 DUP1 REVERT JUMPDEST DUP2 ADD SWAP1 DUP1 DUP1 CALLDATALOAD SWAP1 PUSH1 0x20 ADD SWAP1 SWAP3 SWAP2 SWAP1 DUP1 CALLDATALOAD SWAP1 PUSH1 0x20 ADD SWAP1 SWAP3 SWAP2 SWAP1 POP POP POP PUSH2 0x121F JUMP JUMPDEST PUSH1 0x40 MLOAD DUP1 DUP3 PUSH20 0xFFFFFFFFFFFFFFFFFFFFFFFFFFFFFFFFFFFFFFFF AND DUP2 MSTORE PUSH1 0x20 ADD SWAP2 POP POP PUSH1 0x40 MLOAD DUP1 SWAP2 SUB SWAP1 RETURN JUMPDEST PUSH2 0x848 PUSH1 0x4 DUP1 CALLDATASIZE SUB PUSH1 0x40 DUP2 LT ISZERO PUSH2 0x812 JUMPI PUSH1 0x0 DUP1 REVERT JUMPDEST DUP2 ADD SWAP1 DUP1 DUP1 CALLDATALOAD SWAP1 PUSH1 0x20 ADD SWAP1 SWAP3 SWAP2 SWAP1 DUP1 CALLDATALOAD PUSH20 0xFFFFFFFFFFFFFFFFFFFFFFFFFFFFFFFFFFFFFFFF AND SWAP1 PUSH1 0x20 ADD SWAP1 SWAP3 SWAP2 SWAP1 POP POP POP PUSH2 0x1250 JUMP JUMPDEST PUSH1 0x40 MLOAD DUP1 DUP3 ISZERO ISZERO DUP2 MSTORE PUSH1 0x20 ADD SWAP2 POP POP PUSH1 0x40 MLOAD DUP1 SWAP2 SUB SWAP1 RETURN JUMPDEST PUSH2 0x868 PUSH2 0x1281 JUMP JUMPDEST PUSH1 0x40 MLOAD DUP1 DUP1 PUSH1 0x20 ADD DUP3 DUP2 SUB DUP3 MSTORE DUP4 DUP2 DUP2 MLOAD DUP2 MSTORE PUSH1 0x20 ADD SWAP2 POP DUP1 MLOAD SWAP1 PUSH1 0x20 ADD SWAP1 DUP1 DUP4 DUP4 PUSH1 0x0 JUMPDEST DUP4 DUP2 LT ISZERO PUSH2 0x8A8 JUMPI DUP1 DUP3 ADD MLOAD DUP2 DUP5 ADD MSTORE PUSH1 0x20 DUP2 ADD SWAP1 POP PUSH2 0x88D JUMP JUMPDEST POP POP POP POP SWAP1 POP SWAP1 DUP2 ADD SWAP1 PUSH1 0x1F AND DUP1 ISZERO PUSH2 0x8D5 JUMPI DUP1 DUP3 SUB DUP1 MLOAD PUSH1 0x1 DUP4 PUSH1 0x20 SUB PUSH2 0x100 EXP SUB NOT AND DUP2 MSTORE PUSH1 0x20 ADD SWAP2 POP JUMPDEST POP SWAP3 POP POP POP PUSH1 0x40 MLOAD DUP1 SWAP2 SUB SWAP1 RETURN JUMPDEST PUSH2 0x8EB PUSH2 0x1323 JUMP JUMPDEST STOP JUMPDEST PUSH2 0x919 PUSH1 0x4 DUP1 CALLDATASIZE SUB PUSH1 0x20 DUP2 LT ISZERO PUSH2 0x903 JUMPI PUSH1 0x0 DUP1 REVERT JUMPDEST DUP2 ADD SWAP1 DUP1 DUP1 CALLDATALOAD SWAP1 PUSH1 0x20 ADD SWAP1 SWAP3 SWAP2 SWAP1 POP POP POP PUSH2 0x13D1 JUMP JUMPDEST PUSH1 0x40 MLOAD DUP1 DUP3 DUP2 MSTORE PUSH1 0x20 ADD SWAP2 POP POP PUSH1 0x40 MLOAD DUP1 SWAP2 SUB SWAP1 RETURN JUMPDEST PUSH2 0x937 PUSH2 0x1402 JUMP JUMPDEST PUSH1 0x40 MLOAD DUP1 DUP3 DUP2 MSTORE PUSH1 0x20 ADD SWAP2 POP POP PUSH1 0x40 MLOAD DUP1 SWAP2 SUB SWAP1 RETURN JUMPDEST PUSH2 0x999 PUSH1 0x4 DUP1 CALLDATASIZE SUB PUSH1 0x40 DUP2 LT ISZERO PUSH2 0x963 JUMPI PUSH1 0x0 DUP1 REVERT JUMPDEST DUP2 ADD SWAP1 DUP1 DUP1 CALLDATALOAD PUSH20 0xFFFFFFFFFFFFFFFFFFFFFFFFFFFFFFFFFFFFFFFF AND SWAP1 PUSH1 0x20 ADD SWAP1 SWAP3 SWAP2 SWAP1 DUP1 CALLDATALOAD SWAP1 PUSH1 0x20 ADD SWAP1 SWAP3 SWAP2 SWAP1 POP POP POP PUSH2 0x1409 JUMP JUMPDEST PUSH1 0x40 MLOAD DUP1 DUP3 ISZERO ISZERO DUP2 MSTORE PUSH1 0x20 ADD SWAP2 POP POP PUSH1 0x40 MLOAD DUP1 SWAP2 SUB SWAP1 RETURN JUMPDEST PUSH2 0x9FD PUSH1 0x4 DUP1 CALLDATASIZE SUB PUSH1 0x40 DUP2 LT ISZERO PUSH2 0x9C7 JUMPI PUSH1 0x0 DUP1 REVERT JUMPDEST DUP2 ADD SWAP1 DUP1 DUP1 CALLDATALOAD PUSH20 0xFFFFFFFFFFFFFFFFFFFFFFFFFFFFFFFFFFFFFFFF AND SWAP1 PUSH1 0x20 ADD SWAP1 SWAP3 SWAP2 SWAP1 DUP1 CALLDATALOAD SWAP1 PUSH1 0x20 ADD SWAP1 SWAP3 SWAP2 SWAP1 POP POP POP PUSH2 0x14D6 JUMP JUMPDEST PUSH1 0x40 MLOAD DUP1 DUP3 ISZERO ISZERO DUP2 MSTORE PUSH1 0x20 ADD SWAP2 POP POP PUSH1 0x40 MLOAD DUP1 SWAP2 SUB SWAP1 RETURN JUMPDEST PUSH2 0xA41 PUSH1 0x4 DUP1 CALLDATASIZE SUB PUSH1 0x20 DUP2 LT ISZERO PUSH2 0xA2B JUMPI PUSH1 0x0 DUP1 REVERT JUMPDEST DUP2 ADD SWAP1 DUP1 DUP1 CALLDATALOAD SWAP1 PUSH1 0x20 ADD SWAP1 SWAP3 SWAP2 SWAP1 POP POP POP PUSH2 0x14F4 JUMP JUMPDEST PUSH1 0x40 MLOAD DUP1 DUP3 DUP2 MSTORE PUSH1 0x20 ADD SWAP2 POP POP PUSH1 0x40 MLOAD DUP1 SWAP2 SUB SWAP1 RETURN JUMPDEST PUSH2 0xAEE PUSH1 0x4 DUP1 CALLDATASIZE SUB PUSH1 0xE0 DUP2 LT ISZERO PUSH2 0xA6D JUMPI PUSH1 0x0 DUP1 REVERT JUMPDEST DUP2 ADD SWAP1 DUP1 DUP1 CALLDATALOAD PUSH20 0xFFFFFFFFFFFFFFFFFFFFFFFFFFFFFFFFFFFFFFFF AND SWAP1 PUSH1 0x20 ADD SWAP1 SWAP3 SWAP2 SWAP1 DUP1 CALLDATALOAD PUSH20 0xFFFFFFFFFFFFFFFFFFFFFFFFFFFFFFFFFFFFFFFF AND SWAP1 PUSH1 0x20 ADD SWAP1 SWAP3 SWAP2 SWAP1 DUP1 CALLDATALOAD SWAP1 PUSH1 0x20 ADD SWAP1 SWAP3 SWAP2 SWAP1 DUP1 CALLDATALOAD SWAP1 PUSH1 0x20 ADD SWAP1 SWAP3 SWAP2 SWAP1 DUP1 CALLDATALOAD PUSH1 0xFF AND SWAP1 PUSH1 0x20 ADD SWAP1 SWAP3 SWAP2 SWAP1 DUP1 CALLDATALOAD SWAP1 PUSH1 0x20 ADD SWAP1 SWAP3 SWAP2 SWAP1 DUP1 CALLDATALOAD SWAP1 PUSH1 0x20 ADD SWAP1 SWAP3 SWAP2 SWAP1 POP POP POP PUSH2 0x151A JUMP JUMPDEST STOP JUMPDEST PUSH2 0xAF8 PUSH2 0x179C JUMP JUMPDEST PUSH1 0x40 MLOAD DUP1 DUP3 DUP2 MSTORE PUSH1 0x20 ADD SWAP2 POP POP PUSH1 0x40 MLOAD DUP1 SWAP2 SUB SWAP1 RETURN JUMPDEST PUSH2 0xB5A PUSH1 0x4 DUP1 CALLDATASIZE SUB PUSH1 0x40 DUP2 LT ISZERO PUSH2 0xB24 JUMPI PUSH1 0x0 DUP1 REVERT JUMPDEST DUP2 ADD SWAP1 DUP1 DUP1 CALLDATALOAD SWAP1 PUSH1 0x20 ADD SWAP1 SWAP3 SWAP2 SWAP1 DUP1 CALLDATALOAD PUSH20 0xFFFFFFFFFFFFFFFFFFFFFFFFFFFFFFFFFFFFFFFF AND SWAP1 PUSH1 0x20 ADD SWAP1 SWAP3 SWAP2 SWAP1 POP POP POP PUSH2 0x17C0 JUMP JUMPDEST STOP JUMPDEST PUSH2 0xBBE PUSH1 0x4 DUP1 CALLDATASIZE SUB PUSH1 0x40 DUP2 LT ISZERO PUSH2 0xB72 JUMPI PUSH1 0x0 DUP1 REVERT JUMPDEST DUP2 ADD SWAP1 DUP1 DUP1 CALLDATALOAD PUSH20 0xFFFFFFFFFFFFFFFFFFFFFFFFFFFFFFFFFFFFFFFF AND SWAP1 PUSH1 0x20 ADD SWAP1 SWAP3 SWAP2 SWAP1 DUP1 CALLDATALOAD PUSH20 0xFFFFFFFFFFFFFFFFFFFFFFFFFFFFFFFFFFFFFFFF AND SWAP1 PUSH1 0x20 ADD SWAP1 SWAP3 SWAP2 SWAP1 POP POP POP PUSH2 0x1849 JUMP JUMPDEST PUSH1 0x40 MLOAD DUP1 DUP3 DUP2 MSTORE PUSH1 0x20 ADD SWAP2 POP POP PUSH1 0x40 MLOAD DUP1 SWAP2 SUB SWAP1 RETURN JUMPDEST PUSH1 0x60 PUSH1 0x4 DUP1 SLOAD PUSH1 0x1 DUP2 PUSH1 0x1 AND ISZERO PUSH2 0x100 MUL SUB AND PUSH1 0x2 SWAP1 DIV DUP1 PUSH1 0x1F ADD PUSH1 0x20 DUP1 SWAP2 DIV MUL PUSH1 0x20 ADD PUSH1 0x40 MLOAD SWAP1 DUP2 ADD PUSH1 0x40 MSTORE DUP1 SWAP3 SWAP2 SWAP1 DUP2 DUP2 MSTORE PUSH1 0x20 ADD DUP3 DUP1 SLOAD PUSH1 0x1 DUP2 PUSH1 0x1 AND ISZERO PUSH2 0x100 MUL SUB AND PUSH1 0x2 SWAP1 DIV DUP1 ISZERO PUSH2 0xC6C JUMPI DUP1 PUSH1 0x1F LT PUSH2 0xC41 JUMPI PUSH2 0x100 DUP1 DUP4 SLOAD DIV MUL DUP4 MSTORE SWAP2 PUSH1 0x20 ADD SWAP2 PUSH2 0xC6C JUMP JUMPDEST DUP3 ADD SWAP2 SWAP1 PUSH1 0x0 MSTORE PUSH1 0x20 PUSH1 0x0 KECCAK256 SWAP1 JUMPDEST DUP2 SLOAD DUP2 MSTORE SWAP1 PUSH1 0x1 ADD SWAP1 PUSH1 0x20 ADD DUP1 DUP4 GT PUSH2 0xC4F JUMPI DUP3 SWAP1 SUB PUSH1 0x1F AND DUP3 ADD SWAP2 JUMPDEST POP POP POP POP POP SWAP1 POP SWAP1 JUMP JUMPDEST PUSH1 0x0 PUSH2 0xC8A PUSH2 0xC83 PUSH2 0x1900 JUMP JUMPDEST DUP5 DUP5 PUSH2 0x1908 JUMP JUMPDEST PUSH1 0x1 SWAP1 POP SWAP3 SWAP2 POP POP JUMP JUMPDEST PUSH1 0x0 PUSH1 0x3 SLOAD SWAP1 POP SWAP1 JUMP JUMPDEST PUSH1 0x0 PUSH2 0xCAB DUP5 DUP5 DUP5 PUSH2 0x1AFF JUMP JUMPDEST PUSH2 0xD6C DUP5 PUSH2 0xCB7 PUSH2 0x1900 JUMP JUMPDEST PUSH2 0xD67 DUP6 PUSH1 0x40 MLOAD DUP1 PUSH1 0x60 ADD PUSH1 0x40 MSTORE DUP1 PUSH1 0x28 DUP2 MSTORE PUSH1 0x20 ADD PUSH2 0x2E4B PUSH1 0x28 SWAP2 CODECOPY PUSH1 0x2 PUSH1 0x0 DUP12 PUSH20 0xFFFFFFFFFFFFFFFFFFFFFFFFFFFFFFFFFFFFFFFF AND PUSH20 0xFFFFFFFFFFFFFFFFFFFFFFFFFFFFFFFFFFFFFFFF AND DUP2 MSTORE PUSH1 0x20 ADD SWAP1 DUP2 MSTORE PUSH1 0x20 ADD PUSH1 0x0 KECCAK256 PUSH1 0x0 PUSH2 0xD1D PUSH2 0x1900 JUMP JUMPDEST PUSH20 0xFFFFFFFFFFFFFFFFFFFFFFFFFFFFFFFFFFFFFFFF AND PUSH20 0xFFFFFFFFFFFFFFFFFFFFFFFFFFFFFFFFFFFFFFFF AND DUP2 MSTORE PUSH1 0x20 ADD SWAP1 DUP2 MSTORE PUSH1 0x20 ADD PUSH1 0x0 KECCAK256 SLOAD PUSH2 0x1B21 SWAP1 SWAP3 SWAP2 SWAP1 PUSH4 0xFFFFFFFF AND JUMP JUMPDEST PUSH2 0x1908 JUMP JUMPDEST PUSH1 0x1 SWAP1 POP SWAP4 SWAP3 POP POP POP JUMP JUMPDEST PUSH1 0x0 DUP1 PUSH1 0x0 DUP4 DUP2 MSTORE PUSH1 0x20 ADD SWAP1 DUP2 MSTORE PUSH1 0x20 ADD PUSH1 0x0 KECCAK256 PUSH1 0x2 ADD SLOAD SWAP1 POP SWAP2 SWAP1 POP JUMP JUMPDEST PUSH2 0xDBC PUSH1 0x0 DUP1 DUP5 DUP2 MSTORE PUSH1 0x20 ADD SWAP1 DUP2 MSTORE PUSH1 0x20 ADD PUSH1 0x0 KECCAK256 PUSH1 0x2 ADD SLOAD PUSH2 0xDB7 PUSH2 0x1900 JUMP JUMPDEST PUSH2 0x1250 JUMP JUMPDEST PUSH2 0xE11 JUMPI PUSH1 0x40 MLOAD PUSH32 0x8C379A000000000000000000000000000000000000000000000000000000000 DUP2 MSTORE PUSH1 0x4 ADD DUP1 DUP1 PUSH1 0x20 ADD DUP3 DUP2 SUB DUP3 MSTORE PUSH1 0x2F DUP2 MSTORE PUSH1 0x20 ADD DUP1 PUSH2 0x2D3E PUSH1 0x2F SWAP2 CODECOPY PUSH1 0x40 ADD SWAP2 POP POP PUSH1 0x40 MLOAD DUP1 SWAP2 SUB SWAP1 REVERT JUMPDEST PUSH2 0xE1B DUP3 DUP3 PUSH2 0x1BE1 JUMP JUMPDEST POP POP JUMP JUMPDEST PUSH32 0x0 DUP2 JUMP JUMPDEST PUSH1 0x0 PUSH1 0x6 PUSH1 0x0 SWAP1 SLOAD SWAP1 PUSH2 0x100 EXP SWAP1 DIV PUSH1 0xFF AND SWAP1 POP SWAP1 JUMP JUMPDEST PUSH32 0x0 DUP2 JUMP JUMPDEST PUSH2 0xE86 PUSH2 0x1900 JUMP JUMPDEST PUSH20 0xFFFFFFFFFFFFFFFFFFFFFFFFFFFFFFFFFFFFFFFF AND DUP2 PUSH20 0xFFFFFFFFFFFFFFFFFFFFFFFFFFFFFFFFFFFFFFFF AND EQ PUSH2 0xF09 JUMPI PUSH1 0x40 MLOAD PUSH32 0x8C379A000000000000000000000000000000000000000000000000000000000 DUP2 MSTORE PUSH1 0x4 ADD DUP1 DUP1 PUSH1 0x20 ADD DUP3 DUP2 SUB DUP3 MSTORE PUSH1 0x2F DUP2 MSTORE PUSH1 0x20 ADD DUP1 PUSH2 0x2F26 PUSH1 0x2F SWAP2 CODECOPY PUSH1 0x40 ADD SWAP2 POP POP PUSH1 0x40 MLOAD DUP1 SWAP2 SUB SWAP1 REVERT JUMPDEST PUSH2 0xF13 DUP3 DUP3 PUSH2 0x1C74 JUMP JUMPDEST POP POP JUMP JUMPDEST PUSH1 0x0 PUSH2 0xFC0 PUSH2 0xF24 PUSH2 0x1900 JUMP JUMPDEST DUP5 PUSH2 0xFBB DUP6 PUSH1 0x2 PUSH1 0x0 PUSH2 0xF35 PUSH2 0x1900 JUMP JUMPDEST PUSH20 0xFFFFFFFFFFFFFFFFFFFFFFFFFFFFFFFFFFFFFFFF AND PUSH20 0xFFFFFFFFFFFFFFFFFFFFFFFFFFFFFFFFFFFFFFFF AND DUP2 MSTORE PUSH1 0x20 ADD SWAP1 DUP2 MSTORE PUSH1 0x20 ADD PUSH1 0x0 KECCAK256 PUSH1 0x0 DUP10 PUSH20 0xFFFFFFFFFFFFFFFFFFFFFFFFFFFFFFFFFFFFFFFF AND PUSH20 0xFFFFFFFFFFFFFFFFFFFFFFFFFFFFFFFFFFFFFFFF AND DUP2 MSTORE PUSH1 0x20 ADD SWAP1 DUP2 MSTORE PUSH1 0x20 ADD PUSH1 0x0 KECCAK256 SLOAD PUSH2 0x1D07 SWAP1 SWAP2 SWAP1 PUSH4 0xFFFFFFFF AND JUMP JUMPDEST PUSH2 0x1908 JUMP JUMPDEST PUSH1 0x1 SWAP1 POP SWAP3 SWAP2 POP POP JUMP JUMPDEST PUSH2 0xFFB PUSH32 0x9F2DF0FED2C77648DE5860A4CC508CD0818C85B8B8A1AB4CEEEF8D981C8956A6 PUSH2 0xFF6 PUSH2 0x1900 JUMP JUMPDEST PUSH2 0x1250 JUMP JUMPDEST PUSH2 0x106D JUMPI PUSH1 0x40 MLOAD PUSH32 0x8C379A000000000000000000000000000000000000000000000000000000000 DUP2 MSTORE PUSH1 0x4 ADD DUP1 DUP1 PUSH1 0x20 ADD DUP3 DUP2 SUB DUP3 MSTORE PUSH1 0xF DUP2 MSTORE PUSH1 0x20 ADD DUP1 PUSH32 0x4552525F4D494E5445525F524F4C450000000000000000000000000000000000 DUP2 MSTORE POP PUSH1 0x20 ADD SWAP2 POP POP PUSH1 0x40 MLOAD DUP1 SWAP2 SUB SWAP1 REVERT JUMPDEST PUSH2 0x1077 DUP3 DUP3 PUSH2 0x1D8F JUMP JUMPDEST POP POP JUMP JUMPDEST PUSH2 0x108C PUSH2 0x1086 PUSH2 0x1900 JUMP JUMPDEST DUP3 PUSH2 0x1DAE JUMP JUMPDEST POP JUMP JUMPDEST PUSH1 0x0 DUP1 PUSH1 0x0 PUSH2 0x10DC DUP5 PUSH1 0x7 PUSH1 0x0 DUP9 PUSH20 0xFFFFFFFFFFFFFFFFFFFFFFFFFFFFFFFFFFFFFFFF AND PUSH20 0xFFFFFFFFFFFFFFFFFFFFFFFFFFFFFFFFFFFFFFFF AND DUP2 MSTORE PUSH1 0x20 ADD SWAP1 DUP2 MSTORE PUSH1 0x20 ADD PUSH1 0x0 KECCAK256 PUSH2 0x1DCD JUMP JUMPDEST SWAP2 POP SWAP2 POP DUP2 PUSH2 0x10F3 JUMPI PUSH2 0x10EE DUP6 PUSH2 0x115C JUMP JUMPDEST PUSH2 0x10F5 JUMP JUMPDEST DUP1 JUMPDEST SWAP3 POP POP POP SWAP3 SWAP2 POP POP JUMP JUMPDEST PUSH1 0x40 MLOAD DUP1 PUSH1 0x40 ADD PUSH1 0x40 MSTORE DUP1 PUSH1 0x1 DUP2 MSTORE PUSH1 0x20 ADD PUSH32 0x3100000000000000000000000000000000000000000000000000000000000000 DUP2 MSTORE POP DUP2 JUMP JUMPDEST PUSH32 0x5FDBD35E8DA83EE755D5E62A539E5ED7F47126ABEDE0B8B10F9EA43DC6EED07F DUP2 JUMP JUMPDEST PUSH1 0x0 PUSH1 0x1 PUSH1 0x0 DUP4 PUSH20 0xFFFFFFFFFFFFFFFFFFFFFFFFFFFFFFFFFFFFFFFF AND PUSH20 0xFFFFFFFFFFFFFFFFFFFFFFFFFFFFFFFFFFFFFFFF AND DUP2 MSTORE PUSH1 0x20 ADD SWAP1 DUP2 MSTORE PUSH1 0x20 ADD PUSH1 0x0 KECCAK256 SLOAD SWAP1 POP SWAP2 SWAP1 POP JUMP JUMPDEST PUSH1 0x0 PUSH2 0x11E4 DUP3 PUSH1 0x40 MLOAD DUP1 PUSH1 0x60 ADD PUSH1 0x40 MSTORE DUP1 PUSH1 0x24 DUP2 MSTORE PUSH1 0x20 ADD PUSH2 0x2E73 PUSH1 0x24 SWAP2 CODECOPY PUSH2 0x11D5 DUP7 PUSH2 0x11D0 PUSH2 0x1900 JUMP JUMPDEST PUSH2 0x1849 JUMP JUMPDEST PUSH2 0x1B21 SWAP1 SWAP3 SWAP2 SWAP1 PUSH4 0xFFFFFFFF AND JUMP JUMPDEST SWAP1 POP PUSH2 0x11F8 DUP4 PUSH2 0x11F2 PUSH2 0x1900 JUMP JUMPDEST DUP4 PUSH2 0x1908 JUMP JUMPDEST PUSH2 0x1202 DUP4 DUP4 PUSH2 0x1DAE JUMP JUMPDEST POP POP POP JUMP JUMPDEST PUSH1 0xB PUSH1 0x20 MSTORE DUP1 PUSH1 0x0 MSTORE PUSH1 0x40 PUSH1 0x0 KECCAK256 PUSH1 0x0 SWAP2 POP SWAP1 POP SLOAD DUP2 JUMP JUMPDEST PUSH1 0x0 PUSH2 0x1248 DUP3 PUSH1 0x0 DUP1 DUP7 DUP2 MSTORE PUSH1 0x20 ADD SWAP1 DUP2 MSTORE PUSH1 0x20 ADD PUSH1 0x0 KECCAK256 PUSH1 0x0 ADD PUSH2 0x1F24 SWAP1 SWAP2 SWAP1 PUSH4 0xFFFFFFFF AND JUMP JUMPDEST SWAP1 POP SWAP3 SWAP2 POP POP JUMP JUMPDEST PUSH1 0x0 PUSH2 0x1279 DUP3 PUSH1 0x0 DUP1 DUP7 DUP2 MSTORE PUSH1 0x20 ADD SWAP1 DUP2 MSTORE PUSH1 0x20 ADD PUSH1 0x0 KECCAK256 PUSH1 0x0 ADD PUSH2 0x1F3E SWAP1 SWAP2 SWAP1 PUSH4 0xFFFFFFFF AND JUMP JUMPDEST SWAP1 POP SWAP3 SWAP2 POP POP JUMP JUMPDEST PUSH1 0x60 PUSH1 0x5 DUP1 SLOAD PUSH1 0x1 DUP2 PUSH1 0x1 AND ISZERO PUSH2 0x100 MUL SUB AND PUSH1 0x2 SWAP1 DIV DUP1 PUSH1 0x1F ADD PUSH1 0x20 DUP1 SWAP2 DIV MUL PUSH1 0x20 ADD PUSH1 0x40 MLOAD SWAP1 DUP2 ADD PUSH1 0x40 MSTORE DUP1 SWAP3 SWAP2 SWAP1 DUP2 DUP2 MSTORE PUSH1 0x20 ADD DUP3 DUP1 SLOAD PUSH1 0x1 DUP2 PUSH1 0x1 AND ISZERO PUSH2 0x100 MUL SUB AND PUSH1 0x2 SWAP1 DIV DUP1 ISZERO PUSH2 0x1319 JUMPI DUP1 PUSH1 0x1F LT PUSH2 0x12EE JUMPI PUSH2 0x100 DUP1 DUP4 SLOAD DIV MUL DUP4 MSTORE SWAP2 PUSH1 0x20 ADD SWAP2 PUSH2 0x1319 JUMP JUMPDEST DUP3 ADD SWAP2 SWAP1 PUSH1 0x0 MSTORE PUSH1 0x20 PUSH1 0x0 KECCAK256 SWAP1 JUMPDEST DUP2 SLOAD DUP2 MSTORE SWAP1 PUSH1 0x1 ADD SWAP1 PUSH1 0x20 ADD DUP1 DUP4 GT PUSH2 0x12FC JUMPI DUP3 SWAP1 SUB PUSH1 0x1F AND DUP3 ADD SWAP2 JUMPDEST POP POP POP POP POP SWAP1 POP SWAP1 JUMP JUMPDEST PUSH2 0x1354 PUSH32 0x5FDBD35E8DA83EE755D5E62A539E5ED7F47126ABEDE0B8B10F9EA43DC6EED07F PUSH2 0x134F PUSH2 0x1900 JUMP JUMPDEST PUSH2 0x1250 JUMP JUMPDEST PUSH2 0x13C6 JUMPI PUSH1 0x40 MLOAD PUSH32 0x8C379A000000000000000000000000000000000000000000000000000000000 DUP2 MSTORE PUSH1 0x4 ADD DUP1 DUP1 PUSH1 0x20 ADD DUP3 DUP2 SUB DUP3 MSTORE PUSH1 0x11 DUP2 MSTORE PUSH1 0x20 ADD DUP1 PUSH32 0x4552525F534E415053484F545F524F4C45000000000000000000000000000000 DUP2 MSTORE POP PUSH1 0x20 ADD SWAP2 POP POP PUSH1 0x40 MLOAD DUP1 SWAP2 SUB SWAP1 REVERT JUMPDEST PUSH2 0x13CE PUSH2 0x1F6E JUMP JUMPDEST POP JUMP JUMPDEST PUSH1 0x0 DUP1 PUSH1 0x0 PUSH2 0x13E1 DUP5 PUSH1 0x8 PUSH2 0x1DCD JUMP JUMPDEST SWAP2 POP SWAP2 POP DUP2 PUSH2 0x13F7 JUMPI PUSH2 0x13F2 PUSH2 0xC94 JUMP JUMPDEST PUSH2 0x13F9 JUMP JUMPDEST DUP1 JUMPDEST SWAP3 POP POP POP SWAP2 SWAP1 POP JUMP JUMPDEST PUSH1 0x0 DUP1 SHL DUP2 JUMP JUMPDEST PUSH1 0x0 PUSH2 0x14CC PUSH2 0x1416 PUSH2 0x1900 JUMP JUMPDEST DUP5 PUSH2 0x14C7 DUP6 PUSH1 0x40 MLOAD DUP1 PUSH1 0x60 ADD PUSH1 0x40 MSTORE DUP1 PUSH1 0x25 DUP2 MSTORE PUSH1 0x20 ADD PUSH2 0x2F01 PUSH1 0x25 SWAP2 CODECOPY PUSH1 0x2 PUSH1 0x0 PUSH2 0x1440 PUSH2 0x1900 JUMP JUMPDEST PUSH20 0xFFFFFFFFFFFFFFFFFFFFFFFFFFFFFFFFFFFFFFFF AND PUSH20 0xFFFFFFFFFFFFFFFFFFFFFFFFFFFFFFFFFFFFFFFF AND DUP2 MSTORE PUSH1 0x20 ADD SWAP1 DUP2 MSTORE PUSH1 0x20 ADD PUSH1 0x0 KECCAK256 PUSH1 0x0 DUP11 PUSH20 0xFFFFFFFFFFFFFFFFFFFFFFFFFFFFFFFFFFFFFFFF AND PUSH20 0xFFFFFFFFFFFFFFFFFFFFFFFFFFFFFFFFFFFFFFFF AND DUP2 MSTORE PUSH1 0x20 ADD SWAP1 DUP2 MSTORE PUSH1 0x20 ADD PUSH1 0x0 KECCAK256 SLOAD PUSH2 0x1B21 SWAP1 SWAP3 SWAP2 SWAP1 PUSH4 0xFFFFFFFF AND JUMP JUMPDEST PUSH2 0x1908 JUMP JUMPDEST PUSH1 0x1 SWAP1 POP SWAP3 SWAP2 POP POP JUMP JUMPDEST PUSH1 0x0 PUSH2 0x14EA PUSH2 0x14E3 PUSH2 0x1900 JUMP JUMPDEST DUP5 DUP5 PUSH2 0x1AFF JUMP JUMPDEST PUSH1 0x1 SWAP1 POP SWAP3 SWAP2 POP POP JUMP JUMPDEST PUSH1 0x0 PUSH2 0x1513 PUSH1 0x0 DUP1 DUP5 DUP2 MSTORE PUSH1 0x20 ADD SWAP1 DUP2 MSTORE PUSH1 0x20 ADD PUSH1 0x0 KECCAK256 PUSH1 0x0 ADD PUSH2 0x1FC6 JUMP JUMPDEST SWAP1 POP SWAP2 SWAP1 POP JUMP JUMPDEST DUP4 TIMESTAMP GT ISZERO PUSH2 0x1590 JUMPI PUSH1 0x40 MLOAD PUSH32 0x8C379A000000000000000000000000000000000000000000000000000000000 DUP2 MSTORE PUSH1 0x4 ADD DUP1 DUP1 PUSH1 0x20 ADD DUP3 DUP2 SUB DUP3 MSTORE PUSH1 0xF DUP2 MSTORE PUSH1 0x20 ADD DUP1 PUSH32 0x4552525F455850495245445F5349470000000000000000000000000000000000 DUP2 MSTORE POP PUSH1 0x20 ADD SWAP2 POP POP PUSH1 0x40 MLOAD DUP1 SWAP2 SUB SWAP1 REVERT JUMPDEST PUSH1 0x0 PUSH2 0x1901 PUSH32 0x0 PUSH32 0x0 DUP11 DUP11 DUP11 PUSH1 0xB PUSH1 0x0 DUP16 PUSH20 0xFFFFFFFFFFFFFFFFFFFFFFFFFFFFFFFFFFFFFFFF AND PUSH20 0xFFFFFFFFFFFFFFFFFFFFFFFFFFFFFFFFFFFFFFFF AND DUP2 MSTORE PUSH1 0x20 ADD SWAP1 DUP2 MSTORE PUSH1 0x20 ADD PUSH1 0x0 KECCAK256 PUSH1 0x0 DUP2 SLOAD DUP1 SWAP3 SWAP2 SWAP1 PUSH1 0x1 ADD SWAP2 SWAP1 POP SSTORE DUP12 PUSH1 0x40 MLOAD PUSH1 0x20 ADD DUP1 DUP8 DUP2 MSTORE PUSH1 0x20 ADD DUP7 PUSH20 0xFFFFFFFFFFFFFFFFFFFFFFFFFFFFFFFFFFFFFFFF AND DUP2 MSTORE PUSH1 0x20 ADD DUP6 PUSH20 0xFFFFFFFFFFFFFFFFFFFFFFFFFFFFFFFFFFFFFFFF AND DUP2 MSTORE PUSH1 0x20 ADD DUP5 DUP2 MSTORE PUSH1 0x20 ADD DUP4 DUP2 MSTORE PUSH1 0x20 ADD DUP3 DUP2 MSTORE PUSH1 0x20 ADD SWAP7 POP POP POP POP POP POP POP PUSH1 0x40 MLOAD PUSH1 0x20 DUP2 DUP4 SUB SUB DUP2 MSTORE SWAP1 PUSH1 0x40 MSTORE DUP1 MLOAD SWAP1 PUSH1 0x20 ADD KECCAK256 PUSH1 0x40 MLOAD PUSH1 0x20 ADD DUP1 DUP5 PUSH2 0xFFFF AND PUSH1 0xF0 SHL DUP2 MSTORE PUSH1 0x2 ADD DUP4 DUP2 MSTORE PUSH1 0x20 ADD DUP3 DUP2 MSTORE PUSH1 0x20 ADD SWAP4 POP POP POP POP PUSH1 0x40 MLOAD PUSH1 0x20 DUP2 DUP4 SUB SUB DUP2 MSTORE SWAP1 PUSH1 0x40 MSTORE DUP1 MLOAD SWAP1 PUSH1 0x20 ADD KECCAK256 SWAP1 POP PUSH2 0x16E7 DUP2 DUP6 DUP6 DUP6 PUSH2 0x1FDB JUMP JUMPDEST PUSH20 0xFFFFFFFFFFFFFFFFFFFFFFFFFFFFFFFFFFFFFFFF AND DUP9 PUSH20 0xFFFFFFFFFFFFFFFFFFFFFFFFFFFFFFFFFFFFFFFF AND EQ PUSH2 0x1787 JUMPI PUSH1 0x40 MLOAD PUSH32 0x8C379A000000000000000000000000000000000000000000000000000000000 DUP2 MSTORE PUSH1 0x4 ADD DUP1 DUP1 PUSH1 0x20 ADD DUP3 DUP2 SUB DUP3 MSTORE PUSH1 0xF DUP2 MSTORE PUSH1 0x20 ADD DUP1 PUSH32 0x4552525F494E56414C49445F5349470000000000000000000000000000000000 DUP2 MSTORE POP PUSH1 0x20 ADD SWAP2 POP POP PUSH1 0x40 MLOAD DUP1 SWAP2 SUB SWAP1 REVERT JUMPDEST PUSH2 0x1792 DUP9 DUP9 DUP9 PUSH2 0x1908 JUMP JUMPDEST POP POP POP POP POP POP POP POP JUMP JUMPDEST PUSH32 0x9F2DF0FED2C77648DE5860A4CC508CD0818C85B8B8A1AB4CEEEF8D981C8956A6 DUP2 JUMP JUMPDEST PUSH2 0x17E6 PUSH1 0x0 DUP1 DUP5 DUP2 MSTORE PUSH1 0x20 ADD SWAP1 DUP2 MSTORE PUSH1 0x20 ADD PUSH1 0x0 KECCAK256 PUSH1 0x2 ADD SLOAD PUSH2 0x17E1 PUSH2 0x1900 JUMP JUMPDEST PUSH2 0x1250 JUMP JUMPDEST PUSH2 0x183B JUMPI PUSH1 0x40 MLOAD PUSH32 0x8C379A000000000000000000000000000000000000000000000000000000000 DUP2 MSTORE PUSH1 0x4 ADD DUP1 DUP1 PUSH1 0x20 ADD DUP3 DUP2 SUB DUP3 MSTORE PUSH1 0x30 DUP2 MSTORE PUSH1 0x20 ADD DUP1 PUSH2 0x2DF9 PUSH1 0x30 SWAP2 CODECOPY PUSH1 0x40 ADD SWAP2 POP POP PUSH1 0x40 MLOAD DUP1 SWAP2 SUB SWAP1 REVERT JUMPDEST PUSH2 0x1845 DUP3 DUP3 PUSH2 0x1C74 JUMP JUMPDEST POP POP JUMP JUMPDEST PUSH1 0x0 PUSH1 0x2 PUSH1 0x0 DUP5 PUSH20 0xFFFFFFFFFFFFFFFFFFFFFFFFFFFFFFFFFFFFFFFF AND PUSH20 0xFFFFFFFFFFFFFFFFFFFFFFFFFFFFFFFFFFFFFFFF AND DUP2 MSTORE PUSH1 0x20 ADD SWAP1 DUP2 MSTORE PUSH1 0x20 ADD PUSH1 0x0 KECCAK256 PUSH1 0x0 DUP4 PUSH20 0xFFFFFFFFFFFFFFFFFFFFFFFFFFFFFFFFFFFFFFFF AND PUSH20 0xFFFFFFFFFFFFFFFFFFFFFFFFFFFFFFFFFFFFFFFF AND DUP2 MSTORE PUSH1 0x20 ADD SWAP1 DUP2 MSTORE PUSH1 0x20 ADD PUSH1 0x0 KECCAK256 SLOAD SWAP1 POP SWAP3 SWAP2 POP POP JUMP JUMPDEST PUSH1 0x0 PUSH2 0x18F8 DUP4 PUSH1 0x0 ADD DUP4 PUSH20 0xFFFFFFFFFFFFFFFFFFFFFFFFFFFFFFFFFFFFFFFF AND PUSH1 0x0 SHL PUSH2 0x21DE JUMP JUMPDEST SWAP1 POP SWAP3 SWAP2 POP POP JUMP JUMPDEST PUSH1 0x0 CALLER SWAP1 POP SWAP1 JUMP JUMPDEST PUSH1 0x0 PUSH20 0xFFFFFFFFFFFFFFFFFFFFFFFFFFFFFFFFFFFFFFFF AND DUP4 PUSH20 0xFFFFFFFFFFFFFFFFFFFFFFFFFFFFFFFFFFFFFFFF AND EQ ISZERO PUSH2 0x198E JUMPI PUSH1 0x40 MLOAD PUSH32 0x8C379A000000000000000000000000000000000000000000000000000000000 DUP2 MSTORE PUSH1 0x4 ADD DUP1 DUP1 PUSH1 0x20 ADD DUP3 DUP2 SUB DUP3 MSTORE PUSH1 0x24 DUP2 MSTORE PUSH1 0x20 ADD DUP1 PUSH2 0x2EDD PUSH1 0x24 SWAP2 CODECOPY PUSH1 0x40 ADD SWAP2 POP POP PUSH1 0x40 MLOAD DUP1 SWAP2 SUB SWAP1 REVERT JUMPDEST PUSH1 0x0 PUSH20 0xFFFFFFFFFFFFFFFFFFFFFFFFFFFFFFFFFFFFFFFF AND DUP3 PUSH20 0xFFFFFFFFFFFFFFFFFFFFFFFFFFFFFFFFFFFFFFFF AND EQ ISZERO PUSH2 0x1A14 JUMPI PUSH1 0x40 MLOAD PUSH32 0x8C379A000000000000000000000000000000000000000000000000000000000 DUP2 MSTORE PUSH1 0x4 ADD DUP1 DUP1 PUSH1 0x20 ADD DUP3 DUP2 SUB DUP3 MSTORE PUSH1 0x22 DUP2 MSTORE PUSH1 0x20 ADD DUP1 PUSH2 0x2D8F PUSH1 0x22 SWAP2 CODECOPY PUSH1 0x40 ADD SWAP2 POP POP PUSH1 0x40 MLOAD DUP1 SWAP2 SUB SWAP1 REVERT JUMPDEST DUP1 PUSH1 0x2 PUSH1 0x0 DUP6 PUSH20 0xFFFFFFFFFFFFFFFFFFFFFFFFFFFFFFFFFFFFFFFF AND PUSH20 0xFFFFFFFFFFFFFFFFFFFFFFFFFFFFFFFFFFFFFFFF AND DUP2 MSTORE PUSH1 0x20 ADD SWAP1 DUP2 MSTORE PUSH1 0x20 ADD PUSH1 0x0 KECCAK256 PUSH1 0x0 DUP5 PUSH20 0xFFFFFFFFFFFFFFFFFFFFFFFFFFFFFFFFFFFFFFFF AND PUSH20 0xFFFFFFFFFFFFFFFFFFFFFFFFFFFFFFFFFFFFFFFF AND DUP2 MSTORE PUSH1 0x20 ADD SWAP1 DUP2 MSTORE PUSH1 0x20 ADD PUSH1 0x0 KECCAK256 DUP2 SWAP1 SSTORE POP DUP2 PUSH20 0xFFFFFFFFFFFFFFFFFFFFFFFFFFFFFFFFFFFFFFFF AND DUP4 PUSH20 0xFFFFFFFFFFFFFFFFFFFFFFFFFFFFFFFFFFFFFFFF AND PUSH32 0x8C5BE1E5EBEC7D5BD14F71427D1E84F3DD0314C0F7B2291E5B200AC8C7C3B925 DUP4 PUSH1 0x40 MLOAD DUP1 DUP3 DUP2 MSTORE PUSH1 0x20 ADD SWAP2 POP POP PUSH1 0x40 MLOAD DUP1 SWAP2 SUB SWAP1 LOG3 POP POP POP JUMP JUMPDEST PUSH2 0x1B08 DUP4 PUSH2 0x224E JUMP JUMPDEST PUSH2 0x1B11 DUP3 PUSH2 0x224E JUMP JUMPDEST PUSH2 0x1B1C DUP4 DUP4 DUP4 PUSH2 0x22A1 JUMP JUMPDEST POP POP POP JUMP JUMPDEST PUSH1 0x0 DUP4 DUP4 GT ISZERO DUP3 SWAP1 PUSH2 0x1BCE JUMPI PUSH1 0x40 MLOAD PUSH32 0x8C379A000000000000000000000000000000000000000000000000000000000 DUP2 MSTORE PUSH1 0x4 ADD DUP1 DUP1 PUSH1 0x20 ADD DUP3 DUP2 SUB DUP3 MSTORE DUP4 DUP2 DUP2 MLOAD DUP2 MSTORE PUSH1 0x20 ADD SWAP2 POP DUP1 MLOAD SWAP1 PUSH1 0x20 ADD SWAP1 DUP1 DUP4 DUP4 PUSH1 0x0 JUMPDEST DUP4 DUP2 LT ISZERO PUSH2 0x1B93 JUMPI DUP1 DUP3 ADD MLOAD DUP2 DUP5 ADD MSTORE PUSH1 0x20 DUP2 ADD SWAP1 POP PUSH2 0x1B78 JUMP JUMPDEST POP POP POP POP SWAP1 POP SWAP1 DUP2 ADD SWAP1 PUSH1 0x1F AND DUP1 ISZERO PUSH2 0x1BC0 JUMPI DUP1 DUP3 SUB DUP1 MLOAD PUSH1 0x1 DUP4 PUSH1 0x20 SUB PUSH2 0x100 EXP SUB NOT AND DUP2 MSTORE PUSH1 0x20 ADD SWAP2 POP JUMPDEST POP SWAP3 POP POP POP PUSH1 0x40 MLOAD DUP1 SWAP2 SUB SWAP1 REVERT JUMPDEST POP PUSH1 0x0 DUP4 DUP6 SUB SWAP1 POP DUP1 SWAP2 POP POP SWAP4 SWAP3 POP POP POP JUMP JUMPDEST PUSH2 0x1C08 DUP2 PUSH1 0x0 DUP1 DUP6 DUP2 MSTORE PUSH1 0x20 ADD SWAP1 DUP2 MSTORE PUSH1 0x20 ADD PUSH1 0x0 KECCAK256 PUSH1 0x0 ADD PUSH2 0x18D0 SWAP1 SWAP2 SWAP1 PUSH4 0xFFFFFFFF AND JUMP JUMPDEST ISZERO PUSH2 0x1C70 JUMPI PUSH2 0x1C15 PUSH2 0x1900 JUMP JUMPDEST PUSH20 0xFFFFFFFFFFFFFFFFFFFFFFFFFFFFFFFFFFFFFFFF AND DUP2 PUSH20 0xFFFFFFFFFFFFFFFFFFFFFFFFFFFFFFFFFFFFFFFF AND DUP4 PUSH32 0x2F8788117E7EFF1D82E926EC794901D17C78024A50270940304540A733656F0D PUSH1 0x40 MLOAD PUSH1 0x40 MLOAD DUP1 SWAP2 SUB SWAP1 LOG4 JUMPDEST POP POP JUMP JUMPDEST PUSH2 0x1C9B DUP2 PUSH1 0x0 DUP1 DUP6 DUP2 MSTORE PUSH1 0x20 ADD SWAP1 DUP2 MSTORE PUSH1 0x20 ADD PUSH1 0x0 KECCAK256 PUSH1 0x0 ADD PUSH2 0x2566 SWAP1 SWAP2 SWAP1 PUSH4 0xFFFFFFFF AND JUMP JUMPDEST ISZERO PUSH2 0x1D03 JUMPI PUSH2 0x1CA8 PUSH2 0x1900 JUMP JUMPDEST PUSH20 0xFFFFFFFFFFFFFFFFFFFFFFFFFFFFFFFFFFFFFFFF AND DUP2 PUSH20 0xFFFFFFFFFFFFFFFFFFFFFFFFFFFFFFFFFFFFFFFF AND DUP4 PUSH32 0xF6391F5C32D9C69D2A47EA670B442974B53935D1EDC7FD64EB21E047A839171B PUSH1 0x40 MLOAD PUSH1 0x40 MLOAD DUP1 SWAP2 SUB SWAP1 LOG4 JUMPDEST POP POP JUMP JUMPDEST PUSH1 0x0 DUP1 DUP3 DUP5 ADD SWAP1 POP DUP4 DUP2 LT ISZERO PUSH2 0x1D85 JUMPI PUSH1 0x40 MLOAD PUSH32 0x8C379A000000000000000000000000000000000000000000000000000000000 DUP2 MSTORE PUSH1 0x4 ADD DUP1 DUP1 PUSH1 0x20 ADD DUP3 DUP2 SUB DUP3 MSTORE PUSH1 0x1B DUP2 MSTORE PUSH1 0x20 ADD DUP1 PUSH32 0x536166654D6174683A206164646974696F6E206F766572666C6F770000000000 DUP2 MSTORE POP PUSH1 0x20 ADD SWAP2 POP POP PUSH1 0x40 MLOAD DUP1 SWAP2 SUB SWAP1 REVERT JUMPDEST DUP1 SWAP2 POP POP SWAP3 SWAP2 POP POP JUMP JUMPDEST PUSH2 0x1D98 DUP3 PUSH2 0x224E JUMP JUMPDEST PUSH2 0x1DA0 PUSH2 0x2596 JUMP JUMPDEST PUSH2 0x1DAA DUP3 DUP3 PUSH2 0x25AA JUMP JUMPDEST POP POP JUMP JUMPDEST PUSH2 0x1DB7 DUP3 PUSH2 0x224E JUMP JUMPDEST PUSH2 0x1DBF PUSH2 0x2596 JUMP JUMPDEST PUSH2 0x1DC9 DUP3 DUP3 PUSH2 0x2773 JUMP JUMPDEST POP POP JUMP JUMPDEST PUSH1 0x0 DUP1 PUSH1 0x0 DUP5 GT PUSH2 0x1E46 JUMPI PUSH1 0x40 MLOAD PUSH32 0x8C379A000000000000000000000000000000000000000000000000000000000 DUP2 MSTORE PUSH1 0x4 ADD DUP1 DUP1 PUSH1 0x20 ADD DUP3 DUP2 SUB DUP3 MSTORE PUSH1 0x16 DUP2 MSTORE PUSH1 0x20 ADD DUP1 PUSH32 0x4552433230536E617073686F743A206964206973203000000000000000000000 DUP2 MSTORE POP PUSH1 0x20 ADD SWAP2 POP POP PUSH1 0x40 MLOAD DUP1 SWAP2 SUB SWAP1 REVERT JUMPDEST PUSH2 0x1E50 PUSH1 0xA PUSH2 0x2939 JUMP JUMPDEST DUP5 GT ISZERO PUSH2 0x1EC5 JUMPI PUSH1 0x40 MLOAD PUSH32 0x8C379A000000000000000000000000000000000000000000000000000000000 DUP2 MSTORE PUSH1 0x4 ADD DUP1 DUP1 PUSH1 0x20 ADD DUP3 DUP2 SUB DUP3 MSTORE PUSH1 0x1D DUP2 MSTORE PUSH1 0x20 ADD DUP1 PUSH32 0x4552433230536E617073686F743A206E6F6E6578697374656E74206964000000 DUP2 MSTORE POP PUSH1 0x20 ADD SWAP2 POP POP PUSH1 0x40 MLOAD DUP1 SWAP2 SUB SWAP1 REVERT JUMPDEST PUSH1 0x0 PUSH2 0x1EDD DUP6 DUP6 PUSH1 0x0 ADD PUSH2 0x2947 SWAP1 SWAP2 SWAP1 PUSH4 0xFFFFFFFF AND JUMP JUMPDEST SWAP1 POP DUP4 PUSH1 0x0 ADD DUP1 SLOAD SWAP1 POP DUP2 EQ ISZERO PUSH2 0x1EFB JUMPI PUSH1 0x0 DUP1 SWAP3 POP SWAP3 POP POP PUSH2 0x1F1D JUMP JUMPDEST PUSH1 0x1 DUP5 PUSH1 0x1 ADD DUP3 DUP2 SLOAD DUP2 LT PUSH2 0x1F0C JUMPI INVALID JUMPDEST SWAP1 PUSH1 0x0 MSTORE PUSH1 0x20 PUSH1 0x0 KECCAK256 ADD SLOAD SWAP3 POP SWAP3 POP POP JUMPDEST SWAP3 POP SWAP3 SWAP1 POP JUMP JUMPDEST PUSH1 0x0 PUSH2 0x1F33 DUP4 PUSH1 0x0 ADD DUP4 PUSH2 0x29F8 JUMP JUMPDEST PUSH1 0x0 SHR SWAP1 POP SWAP3 SWAP2 POP POP JUMP JUMPDEST PUSH1 0x0 PUSH2 0x1F66 DUP4 PUSH1 0x0 ADD DUP4 PUSH20 0xFFFFFFFFFFFFFFFFFFFFFFFFFFFFFFFFFFFFFFFF AND PUSH1 0x0 SHL PUSH2 0x2A7B JUMP JUMPDEST SWAP1 POP SWAP3 SWAP2 POP POP JUMP JUMPDEST PUSH1 0x0 PUSH2 0x1F7A PUSH1 0xA PUSH2 0x2A9E JUMP JUMPDEST PUSH1 0x0 PUSH2 0x1F86 PUSH1 0xA PUSH2 0x2939 JUMP JUMPDEST SWAP1 POP PUSH32 0x8030E83B04D87BEF53480E26263266D6CA66863AA8506ACA6F2559D18AA1CB67 DUP2 PUSH1 0x40 MLOAD DUP1 DUP3 DUP2 MSTORE PUSH1 0x20 ADD SWAP2 POP POP PUSH1 0x40 MLOAD DUP1 SWAP2 SUB SWAP1 LOG1 DUP1 SWAP2 POP POP SWAP1 JUMP JUMPDEST PUSH1 0x0 PUSH2 0x1FD4 DUP3 PUSH1 0x0 ADD PUSH2 0x2AB4 JUMP JUMPDEST SWAP1 POP SWAP2 SWAP1 POP JUMP JUMPDEST PUSH1 0x0 PUSH32 0x7FFFFFFFFFFFFFFFFFFFFFFFFFFFFFFF5D576E7357A4501DDFE92F46681B20A0 DUP3 PUSH1 0x0 SHR GT ISZERO PUSH2 0x2059 JUMPI PUSH1 0x40 MLOAD PUSH32 0x8C379A000000000000000000000000000000000000000000000000000000000 DUP2 MSTORE PUSH1 0x4 ADD DUP1 DUP1 PUSH1 0x20 ADD DUP3 DUP2 SUB DUP3 MSTORE PUSH1 0x22 DUP2 MSTORE PUSH1 0x20 ADD DUP1 PUSH2 0x2DD7 PUSH1 0x22 SWAP2 CODECOPY PUSH1 0x40 ADD SWAP2 POP POP PUSH1 0x40 MLOAD DUP1 SWAP2 SUB SWAP1 REVERT JUMPDEST PUSH1 0x1B DUP5 PUSH1 0xFF AND EQ ISZERO DUP1 ISZERO PUSH2 0x2071 JUMPI POP PUSH1 0x1C DUP5 PUSH1 0xFF AND EQ ISZERO JUMPDEST ISZERO PUSH2 0x20C7 JUMPI PUSH1 0x40 MLOAD PUSH32 0x8C379A000000000000000000000000000000000000000000000000000000000 DUP2 MSTORE PUSH1 0x4 ADD DUP1 DUP1 PUSH1 0x20 ADD DUP3 DUP2 SUB DUP3 MSTORE PUSH1 0x22 DUP2 MSTORE PUSH1 0x20 ADD DUP1 PUSH2 0x2E29 PUSH1 0x22 SWAP2 CODECOPY PUSH1 0x40 ADD SWAP2 POP POP PUSH1 0x40 MLOAD DUP1 SWAP2 SUB SWAP1 REVERT JUMPDEST PUSH1 0x0 PUSH1 0x1 DUP7 DUP7 DUP7 DUP7 PUSH1 0x40 MLOAD PUSH1 0x0 DUP2 MSTORE PUSH1 0x20 ADD PUSH1 0x40 MSTORE PUSH1 0x40 MLOAD DUP1 DUP6 DUP2 MSTORE PUSH1 0x20 ADD DUP5 PUSH1 0xFF AND DUP2 MSTORE PUSH1 0x20 ADD DUP4 DUP2 MSTORE PUSH1 0x20 ADD DUP3 DUP2 MSTORE PUSH1 0x20 ADD SWAP5 POP POP POP POP POP PUSH1 0x20 PUSH1 0x40 MLOAD PUSH1 0x20 DUP2 SUB SWAP1 DUP1 DUP5 SUB SWAP1 DUP6 GAS STATICCALL ISZERO DUP1 ISZERO PUSH2 0x2123 JUMPI RETURNDATASIZE PUSH1 0x0 DUP1 RETURNDATACOPY RETURNDATASIZE PUSH1 0x0 REVERT JUMPDEST POP POP POP PUSH1 0x20 PUSH1 0x40 MLOAD SUB MLOAD SWAP1 POP PUSH1 0x0 PUSH20 0xFFFFFFFFFFFFFFFFFFFFFFFFFFFFFFFFFFFFFFFF AND DUP2 PUSH20 0xFFFFFFFFFFFFFFFFFFFFFFFFFFFFFFFFFFFFFFFF AND EQ ISZERO PUSH2 0x21D2 JUMPI PUSH1 0x40 MLOAD PUSH32 0x8C379A000000000000000000000000000000000000000000000000000000000 DUP2 MSTORE PUSH1 0x4 ADD DUP1 DUP1 PUSH1 0x20 ADD DUP3 DUP2 SUB DUP3 MSTORE PUSH1 0x18 DUP2 MSTORE PUSH1 0x20 ADD DUP1 PUSH32 0x45434453413A20696E76616C6964207369676E61747572650000000000000000 DUP2 MSTORE POP PUSH1 0x20 ADD SWAP2 POP POP PUSH1 0x40 MLOAD DUP1 SWAP2 SUB SWAP1 REVERT JUMPDEST DUP1 SWAP2 POP POP SWAP5 SWAP4 POP POP POP POP JUMP JUMPDEST PUSH1 0x0 PUSH2 0x21EA DUP4 DUP4 PUSH2 0x2A7B JUMP JUMPDEST PUSH2 0x2243 JUMPI DUP3 PUSH1 0x0 ADD DUP3 SWAP1 DUP1 PUSH1 0x1 DUP2 SLOAD ADD DUP1 DUP3 SSTORE DUP1 SWAP2 POP POP PUSH1 0x1 SWAP1 SUB SWAP1 PUSH1 0x0 MSTORE PUSH1 0x20 PUSH1 0x0 KECCAK256 ADD PUSH1 0x0 SWAP1 SWAP2 SWAP1 SWAP2 SWAP1 SWAP2 POP SSTORE DUP3 PUSH1 0x0 ADD DUP1 SLOAD SWAP1 POP DUP4 PUSH1 0x1 ADD PUSH1 0x0 DUP5 DUP2 MSTORE PUSH1 0x20 ADD SWAP1 DUP2 MSTORE PUSH1 0x20 ADD PUSH1 0x0 KECCAK256 DUP2 SWAP1 SSTORE POP PUSH1 0x1 SWAP1 POP PUSH2 0x2248 JUMP JUMPDEST PUSH1 0x0 SWAP1 POP JUMPDEST SWAP3 SWAP2 POP POP JUMP JUMPDEST PUSH2 0x229E PUSH1 0x7 PUSH1 0x0 DUP4 PUSH20 0xFFFFFFFFFFFFFFFFFFFFFFFFFFFFFFFFFFFFFFFF AND PUSH20 0xFFFFFFFFFFFFFFFFFFFFFFFFFFFFFFFFFFFFFFFF AND DUP2 MSTORE PUSH1 0x20 ADD SWAP1 DUP2 MSTORE PUSH1 0x20 ADD PUSH1 0x0 KECCAK256 PUSH2 0x2299 DUP4 PUSH2 0x115C JUMP JUMPDEST PUSH2 0x2AC5 JUMP JUMPDEST POP JUMP JUMPDEST PUSH1 0x0 PUSH20 0xFFFFFFFFFFFFFFFFFFFFFFFFFFFFFFFFFFFFFFFF AND DUP4 PUSH20 0xFFFFFFFFFFFFFFFFFFFFFFFFFFFFFFFFFFFFFFFF AND EQ ISZERO PUSH2 0x2327 JUMPI PUSH1 0x40 MLOAD PUSH32 0x8C379A000000000000000000000000000000000000000000000000000000000 DUP2 MSTORE PUSH1 0x4 ADD DUP1 DUP1 PUSH1 0x20 ADD DUP3 DUP2 SUB DUP3 MSTORE PUSH1 0x25 DUP2 MSTORE PUSH1 0x20 ADD DUP1 PUSH2 0x2EB8 PUSH1 0x25 SWAP2 CODECOPY PUSH1 0x40 ADD SWAP2 POP POP PUSH1 0x40 MLOAD DUP1 SWAP2 SUB SWAP1 REVERT JUMPDEST PUSH1 0x0 PUSH20 0xFFFFFFFFFFFFFFFFFFFFFFFFFFFFFFFFFFFFFFFF AND DUP3 PUSH20 0xFFFFFFFFFFFFFFFFFFFFFFFFFFFFFFFFFFFFFFFF AND EQ ISZERO PUSH2 0x23AD JUMPI PUSH1 0x40 MLOAD PUSH32 0x8C379A000000000000000000000000000000000000000000000000000000000 DUP2 MSTORE PUSH1 0x4 ADD DUP1 DUP1 PUSH1 0x20 ADD DUP3 DUP2 SUB DUP3 MSTORE PUSH1 0x23 DUP2 MSTORE PUSH1 0x20 ADD DUP1 PUSH2 0x2D1B PUSH1 0x23 SWAP2 CODECOPY PUSH1 0x40 ADD SWAP2 POP POP PUSH1 0x40 MLOAD DUP1 SWAP2 SUB SWAP1 REVERT JUMPDEST PUSH2 0x23B8 DUP4 DUP4 DUP4 PUSH2 0x2B42 JUMP JUMPDEST PUSH2 0x2424 DUP2 PUSH1 0x40 MLOAD DUP1 PUSH1 0x60 ADD PUSH1 0x40 MSTORE DUP1 PUSH1 0x26 DUP2 MSTORE PUSH1 0x20 ADD PUSH2 0x2DB1 PUSH1 0x26 SWAP2 CODECOPY PUSH1 0x1 PUSH1 0x0 DUP8 PUSH20 0xFFFFFFFFFFFFFFFFFFFFFFFFFFFFFFFFFFFFFFFF AND PUSH20 0xFFFFFFFFFFFFFFFFFFFFFFFFFFFFFFFFFFFFFFFF AND DUP2 MSTORE PUSH1 0x20 ADD SWAP1 DUP2 MSTORE PUSH1 0x20 ADD PUSH1 0x0 KECCAK256 SLOAD PUSH2 0x1B21 SWAP1 SWAP3 SWAP2 SWAP1 PUSH4 0xFFFFFFFF AND JUMP JUMPDEST PUSH1 0x1 PUSH1 0x0 DUP6 PUSH20 0xFFFFFFFFFFFFFFFFFFFFFFFFFFFFFFFFFFFFFFFF AND PUSH20 0xFFFFFFFFFFFFFFFFFFFFFFFFFFFFFFFFFFFFFFFF AND DUP2 MSTORE PUSH1 0x20 ADD SWAP1 DUP2 MSTORE PUSH1 0x20 ADD PUSH1 0x0 KECCAK256 DUP2 SWAP1 SSTORE POP PUSH2 0x24B9 DUP2 PUSH1 0x1 PUSH1 0x0 DUP6 PUSH20 0xFFFFFFFFFFFFFFFFFFFFFFFFFFFFFFFFFFFFFFFF AND PUSH20 0xFFFFFFFFFFFFFFFFFFFFFFFFFFFFFFFFFFFFFFFF AND DUP2 MSTORE PUSH1 0x20 ADD SWAP1 DUP2 MSTORE PUSH1 0x20 ADD PUSH1 0x0 KECCAK256 SLOAD PUSH2 0x1D07 SWAP1 SWAP2 SWAP1 PUSH4 0xFFFFFFFF AND JUMP JUMPDEST PUSH1 0x1 PUSH1 0x0 DUP5 PUSH20 0xFFFFFFFFFFFFFFFFFFFFFFFFFFFFFFFFFFFFFFFF AND PUSH20 0xFFFFFFFFFFFFFFFFFFFFFFFFFFFFFFFFFFFFFFFF AND DUP2 MSTORE PUSH1 0x20 ADD SWAP1 DUP2 MSTORE PUSH1 0x20 ADD PUSH1 0x0 KECCAK256 DUP2 SWAP1 SSTORE POP DUP2 PUSH20 0xFFFFFFFFFFFFFFFFFFFFFFFFFFFFFFFFFFFFFFFF AND DUP4 PUSH20 0xFFFFFFFFFFFFFFFFFFFFFFFFFFFFFFFFFFFFFFFF AND PUSH32 0xDDF252AD1BE2C89B69C2B068FC378DAA952BA7F163C4A11628F55A4DF523B3EF DUP4 PUSH1 0x40 MLOAD DUP1 DUP3 DUP2 MSTORE PUSH1 0x20 ADD SWAP2 POP POP PUSH1 0x40 MLOAD DUP1 SWAP2 SUB SWAP1 LOG3 POP POP POP JUMP JUMPDEST PUSH1 0x0 PUSH2 0x258E DUP4 PUSH1 0x0 ADD DUP4 PUSH20 0xFFFFFFFFFFFFFFFFFFFFFFFFFFFFFFFFFFFFFFFF AND PUSH1 0x0 SHL PUSH2 0x2B47 JUMP JUMPDEST SWAP1 POP SWAP3 SWAP2 POP POP JUMP JUMPDEST PUSH2 0x25A8 PUSH1 0x8 PUSH2 0x25A3 PUSH2 0xC94 JUMP JUMPDEST PUSH2 0x2AC5 JUMP JUMPDEST JUMP JUMPDEST PUSH1 0x0 PUSH20 0xFFFFFFFFFFFFFFFFFFFFFFFFFFFFFFFFFFFFFFFF AND DUP3 PUSH20 0xFFFFFFFFFFFFFFFFFFFFFFFFFFFFFFFFFFFFFFFF AND EQ ISZERO PUSH2 0x264D JUMPI PUSH1 0x40 MLOAD PUSH32 0x8C379A000000000000000000000000000000000000000000000000000000000 DUP2 MSTORE PUSH1 0x4 ADD DUP1 DUP1 PUSH1 0x20 ADD DUP3 DUP2 SUB DUP3 MSTORE PUSH1 0x1F DUP2 MSTORE PUSH1 0x20 ADD DUP1 PUSH32 0x45524332303A206D696E7420746F20746865207A65726F206164647265737300 DUP2 MSTORE POP PUSH1 0x20 ADD SWAP2 POP POP PUSH1 0x40 MLOAD DUP1 SWAP2 SUB SWAP1 REVERT JUMPDEST PUSH2 0x2659 PUSH1 0x0 DUP4 DUP4 PUSH2 0x2B42 JUMP JUMPDEST PUSH2 0x266E DUP2 PUSH1 0x3 SLOAD PUSH2 0x1D07 SWAP1 SWAP2 SWAP1 PUSH4 0xFFFFFFFF AND JUMP JUMPDEST PUSH1 0x3 DUP2 SWAP1 SSTORE POP PUSH2 0x26C6 DUP2 PUSH1 0x1 PUSH1 0x0 DUP6 PUSH20 0xFFFFFFFFFFFFFFFFFFFFFFFFFFFFFFFFFFFFFFFF AND PUSH20 0xFFFFFFFFFFFFFFFFFFFFFFFFFFFFFFFFFFFFFFFF AND DUP2 MSTORE PUSH1 0x20 ADD SWAP1 DUP2 MSTORE PUSH1 0x20 ADD PUSH1 0x0 KECCAK256 SLOAD PUSH2 0x1D07 SWAP1 SWAP2 SWAP1 PUSH4 0xFFFFFFFF AND JUMP JUMPDEST PUSH1 0x1 PUSH1 0x0 DUP5 PUSH20 0xFFFFFFFFFFFFFFFFFFFFFFFFFFFFFFFFFFFFFFFF AND PUSH20 0xFFFFFFFFFFFFFFFFFFFFFFFFFFFFFFFFFFFFFFFF AND DUP2 MSTORE PUSH1 0x20 ADD SWAP1 DUP2 MSTORE PUSH1 0x20 ADD PUSH1 0x0 KECCAK256 DUP2 SWAP1 SSTORE POP DUP2 PUSH20 0xFFFFFFFFFFFFFFFFFFFFFFFFFFFFFFFFFFFFFFFF AND PUSH1 0x0 PUSH20 0xFFFFFFFFFFFFFFFFFFFFFFFFFFFFFFFFFFFFFFFF AND PUSH32 0xDDF252AD1BE2C89B69C2B068FC378DAA952BA7F163C4A11628F55A4DF523B3EF DUP4 PUSH1 0x40 MLOAD DUP1 DUP3 DUP2 MSTORE PUSH1 0x20 ADD SWAP2 POP POP PUSH1 0x40 MLOAD DUP1 SWAP2 SUB SWAP1 LOG3 POP POP JUMP JUMPDEST PUSH1 0x0 PUSH20 0xFFFFFFFFFFFFFFFFFFFFFFFFFFFFFFFFFFFFFFFF AND DUP3 PUSH20 0xFFFFFFFFFFFFFFFFFFFFFFFFFFFFFFFFFFFFFFFF AND EQ ISZERO PUSH2 0x27F9 JUMPI PUSH1 0x40 MLOAD PUSH32 0x8C379A000000000000000000000000000000000000000000000000000000000 DUP2 MSTORE PUSH1 0x4 ADD DUP1 DUP1 PUSH1 0x20 ADD DUP3 DUP2 SUB DUP3 MSTORE PUSH1 0x21 DUP2 MSTORE PUSH1 0x20 ADD DUP1 PUSH2 0x2E97 PUSH1 0x21 SWAP2 CODECOPY PUSH1 0x40 ADD SWAP2 POP POP PUSH1 0x40 MLOAD DUP1 SWAP2 SUB SWAP1 REVERT JUMPDEST PUSH2 0x2805 DUP3 PUSH1 0x0 DUP4 PUSH2 0x2B42 JUMP JUMPDEST PUSH2 0x2871 DUP2 PUSH1 0x40 MLOAD DUP1 PUSH1 0x60 ADD PUSH1 0x40 MSTORE DUP1 PUSH1 0x22 DUP2 MSTORE PUSH1 0x20 ADD PUSH2 0x2D6D PUSH1 0x22 SWAP2 CODECOPY PUSH1 0x1 PUSH1 0x0 DUP7 PUSH20 0xFFFFFFFFFFFFFFFFFFFFFFFFFFFFFFFFFFFFFFFF AND PUSH20 0xFFFFFFFFFFFFFFFFFFFFFFFFFFFFFFFFFFFFFFFF AND DUP2 MSTORE PUSH1 0x20 ADD SWAP1 DUP2 MSTORE PUSH1 0x20 ADD PUSH1 0x0 KECCAK256 SLOAD PUSH2 0x1B21 SWAP1 SWAP3 SWAP2 SWAP1 PUSH4 0xFFFFFFFF AND JUMP JUMPDEST PUSH1 0x1 PUSH1 0x0 DUP5 PUSH20 0xFFFFFFFFFFFFFFFFFFFFFFFFFFFFFFFFFFFFFFFF AND PUSH20 0xFFFFFFFFFFFFFFFFFFFFFFFFFFFFFFFFFFFFFFFF AND DUP2 MSTORE PUSH1 0x20 ADD SWAP1 DUP2 MSTORE PUSH1 0x20 ADD PUSH1 0x0 KECCAK256 DUP2 SWAP1 SSTORE POP PUSH2 0x28C9 DUP2 PUSH1 0x3 SLOAD PUSH2 0x2C2F SWAP1 SWAP2 SWAP1 PUSH4 0xFFFFFFFF AND JUMP JUMPDEST PUSH1 0x3 DUP2 SWAP1 SSTORE POP PUSH1 0x0 PUSH20 0xFFFFFFFFFFFFFFFFFFFFFFFFFFFFFFFFFFFFFFFF AND DUP3 PUSH20 0xFFFFFFFFFFFFFFFFFFFFFFFFFFFFFFFFFFFFFFFF AND PUSH32 0xDDF252AD1BE2C89B69C2B068FC378DAA952BA7F163C4A11628F55A4DF523B3EF DUP4 PUSH1 0x40 MLOAD DUP1 DUP3 DUP2 MSTORE PUSH1 0x20 ADD SWAP2 POP POP PUSH1 0x40 MLOAD DUP1 SWAP2 SUB SWAP1 LOG3 POP POP JUMP JUMPDEST PUSH1 0x0 DUP2 PUSH1 0x0 ADD SLOAD SWAP1 POP SWAP2 SWAP1 POP JUMP JUMPDEST PUSH1 0x0 DUP1 DUP4 DUP1 SLOAD SWAP1 POP EQ ISZERO PUSH2 0x295E JUMPI PUSH1 0x0 SWAP1 POP PUSH2 0x29F2 JUMP JUMPDEST PUSH1 0x0 DUP1 DUP5 DUP1 SLOAD SWAP1 POP SWAP1 POP JUMPDEST DUP1 DUP3 LT ISZERO PUSH2 0x29B2 JUMPI PUSH1 0x0 PUSH2 0x297D DUP4 DUP4 PUSH2 0x2C79 JUMP JUMPDEST SWAP1 POP DUP5 DUP7 DUP3 DUP2 SLOAD DUP2 LT PUSH2 0x298C JUMPI INVALID JUMPDEST SWAP1 PUSH1 0x0 MSTORE PUSH1 0x20 PUSH1 0x0 KECCAK256 ADD SLOAD GT ISZERO PUSH2 0x29A5 JUMPI DUP1 SWAP2 POP PUSH2 0x29AC JUMP JUMPDEST PUSH1 0x1 DUP2 ADD SWAP3 POP JUMPDEST POP PUSH2 0x2969 JUMP JUMPDEST PUSH1 0x0 DUP3 GT DUP1 ISZERO PUSH2 0x29DA JUMPI POP DUP4 DUP6 PUSH1 0x1 DUP5 SUB DUP2 SLOAD DUP2 LT PUSH2 0x29CD JUMPI INVALID JUMPDEST SWAP1 PUSH1 0x0 MSTORE PUSH1 0x20 PUSH1 0x0 KECCAK256 ADD SLOAD EQ JUMPDEST ISZERO PUSH2 0x29EC JUMPI PUSH1 0x1 DUP3 SUB SWAP3 POP POP POP PUSH2 0x29F2 JUMP JUMPDEST DUP2 SWAP3 POP POP POP JUMPDEST SWAP3 SWAP2 POP POP JUMP JUMPDEST PUSH1 0x0 DUP2 DUP4 PUSH1 0x0 ADD DUP1 SLOAD SWAP1 POP GT PUSH2 0x2A59 JUMPI PUSH1 0x40 MLOAD PUSH32 0x8C379A000000000000000000000000000000000000000000000000000000000 DUP2 MSTORE PUSH1 0x4 ADD DUP1 DUP1 PUSH1 0x20 ADD DUP3 DUP2 SUB DUP3 MSTORE PUSH1 0x22 DUP2 MSTORE PUSH1 0x20 ADD DUP1 PUSH2 0x2CF9 PUSH1 0x22 SWAP2 CODECOPY PUSH1 0x40 ADD SWAP2 POP POP PUSH1 0x40 MLOAD DUP1 SWAP2 SUB SWAP1 REVERT JUMPDEST DUP3 PUSH1 0x0 ADD DUP3 DUP2 SLOAD DUP2 LT PUSH2 0x2A68 JUMPI INVALID JUMPDEST SWAP1 PUSH1 0x0 MSTORE PUSH1 0x20 PUSH1 0x0 KECCAK256 ADD SLOAD SWAP1 POP SWAP3 SWAP2 POP POP JUMP JUMPDEST PUSH1 0x0 DUP1 DUP4 PUSH1 0x1 ADD PUSH1 0x0 DUP5 DUP2 MSTORE PUSH1 0x20 ADD SWAP1 DUP2 MSTORE PUSH1 0x20 ADD PUSH1 0x0 KECCAK256 SLOAD EQ ISZERO SWAP1 POP SWAP3 SWAP2 POP POP JUMP JUMPDEST PUSH1 0x1 DUP2 PUSH1 0x0 ADD PUSH1 0x0 DUP3 DUP3 SLOAD ADD SWAP3 POP POP DUP2 SWAP1 SSTORE POP POP JUMP JUMPDEST PUSH1 0x0 DUP2 PUSH1 0x0 ADD DUP1 SLOAD SWAP1 POP SWAP1 POP SWAP2 SWAP1 POP JUMP JUMPDEST PUSH1 0x0 PUSH2 0x2AD1 PUSH1 0xA PUSH2 0x2939 JUMP JUMPDEST SWAP1 POP DUP1 PUSH2 0x2AE0 DUP5 PUSH1 0x0 ADD PUSH2 0x2CBB JUMP JUMPDEST LT ISZERO PUSH2 0x2B3D JUMPI DUP3 PUSH1 0x0 ADD DUP2 SWAP1 DUP1 PUSH1 0x1 DUP2 SLOAD ADD DUP1 DUP3 SSTORE DUP1 SWAP2 POP POP PUSH1 0x1 SWAP1 SUB SWAP1 PUSH1 0x0 MSTORE PUSH1 0x20 PUSH1 0x0 KECCAK256 ADD PUSH1 0x0 SWAP1 SWAP2 SWAP1 SWAP2 SWAP1 SWAP2 POP SSTORE DUP3 PUSH1 0x1 ADD DUP3 SWAP1 DUP1 PUSH1 0x1 DUP2 SLOAD ADD DUP1 DUP3 SSTORE DUP1 SWAP2 POP POP PUSH1 0x1 SWAP1 SUB SWAP1 PUSH1 0x0 MSTORE PUSH1 0x20 PUSH1 0x0 KECCAK256 ADD PUSH1 0x0 SWAP1 SWAP2 SWAP1 SWAP2 SWAP1 SWAP2 POP SSTORE JUMPDEST POP POP POP JUMP JUMPDEST POP POP POP JUMP JUMPDEST PUSH1 0x0 DUP1 DUP4 PUSH1 0x1 ADD PUSH1 0x0 DUP5 DUP2 MSTORE PUSH1 0x20 ADD SWAP1 DUP2 MSTORE PUSH1 0x20 ADD PUSH1 0x0 KECCAK256 SLOAD SWAP1 POP PUSH1 0x0 DUP2 EQ PUSH2 0x2C23 JUMPI PUSH1 0x0 PUSH1 0x1 DUP3 SUB SWAP1 POP PUSH1 0x0 PUSH1 0x1 DUP7 PUSH1 0x0 ADD DUP1 SLOAD SWAP1 POP SUB SWAP1 POP PUSH1 0x0 DUP7 PUSH1 0x0 ADD DUP3 DUP2 SLOAD DUP2 LT PUSH2 0x2B92 JUMPI INVALID JUMPDEST SWAP1 PUSH1 0x0 MSTORE PUSH1 0x20 PUSH1 0x0 KECCAK256 ADD SLOAD SWAP1 POP DUP1 DUP8 PUSH1 0x0 ADD DUP5 DUP2 SLOAD DUP2 LT PUSH2 0x2BAF JUMPI INVALID JUMPDEST SWAP1 PUSH1 0x0 MSTORE PUSH1 0x20 PUSH1 0x0 KECCAK256 ADD DUP2 SWAP1 SSTORE POP PUSH1 0x1 DUP4 ADD DUP8 PUSH1 0x1 ADD PUSH1 0x0 DUP4 DUP2 MSTORE PUSH1 0x20 ADD SWAP1 DUP2 MSTORE PUSH1 0x20 ADD PUSH1 0x0 KECCAK256 DUP2 SWAP1 SSTORE POP DUP7 PUSH1 0x0 ADD DUP1 SLOAD DUP1 PUSH2 0x2BE7 JUMPI INVALID JUMPDEST PUSH1 0x1 SWAP1 SUB DUP2 DUP2 SWAP1 PUSH1 0x0 MSTORE PUSH1 0x20 PUSH1 0x0 KECCAK256 ADD PUSH1 0x0 SWAP1 SSTORE SWAP1 SSTORE DUP7 PUSH1 0x1 ADD PUSH1 0x0 DUP8 DUP2 MSTORE PUSH1 0x20 ADD SWAP1 DUP2 MSTORE PUSH1 0x20 ADD PUSH1 0x0 KECCAK256 PUSH1 0x0 SWAP1 SSTORE PUSH1 0x1 SWAP5 POP POP POP POP POP PUSH2 0x2C29 JUMP JUMPDEST PUSH1 0x0 SWAP2 POP POP JUMPDEST SWAP3 SWAP2 POP POP JUMP JUMPDEST PUSH1 0x0 PUSH2 0x2C71 DUP4 DUP4 PUSH1 0x40 MLOAD DUP1 PUSH1 0x40 ADD PUSH1 0x40 MSTORE DUP1 PUSH1 0x1E DUP2 MSTORE PUSH1 0x20 ADD PUSH32 0x536166654D6174683A207375627472616374696F6E206F766572666C6F770000 DUP2 MSTORE POP PUSH2 0x1B21 JUMP JUMPDEST SWAP1 POP SWAP3 SWAP2 POP POP JUMP JUMPDEST PUSH1 0x0 PUSH1 0x2 DUP1 DUP4 DUP2 PUSH2 0x2C86 JUMPI INVALID JUMPDEST MOD PUSH1 0x2 DUP6 DUP2 PUSH2 0x2C91 JUMPI INVALID JUMPDEST MOD ADD DUP2 PUSH2 0x2C9A JUMPI INVALID JUMPDEST DIV PUSH1 0x2 DUP4 DUP2 PUSH2 0x2CA5 JUMPI INVALID JUMPDEST DIV PUSH1 0x2 DUP6 DUP2 PUSH2 0x2CB0 JUMPI INVALID JUMPDEST DIV ADD ADD SWAP1 POP SWAP3 SWAP2 POP POP JUMP JUMPDEST PUSH1 0x0 DUP1 DUP3 DUP1 SLOAD SWAP1 POP EQ ISZERO PUSH2 0x2CD2 JUMPI PUSH1 0x0 SWAP1 POP PUSH2 0x2CF3 JUMP JUMPDEST DUP2 PUSH1 0x1 DUP4 DUP1 SLOAD SWAP1 POP SUB DUP2 SLOAD DUP2 LT PUSH2 0x2CE5 JUMPI INVALID JUMPDEST SWAP1 PUSH1 0x0 MSTORE PUSH1 0x20 PUSH1 0x0 KECCAK256 ADD SLOAD SWAP1 POP JUMPDEST SWAP2 SWAP1 POP JUMP INVALID GASLIMIT PUSH15 0x756D657261626C655365743A20696E PUSH5 0x6578206F75 PUSH21 0x206F6620626F756E647345524332303A207472616E PUSH20 0x66657220746F20746865207A65726F2061646472 PUSH6 0x737341636365 PUSH20 0x73436F6E74726F6C3A2073656E646572206D7573 PUSH21 0x20626520616E2061646D696E20746F206772616E74 GASLIMIT MSTORE NUMBER ORIGIN ADDRESS GASPRICE KECCAK256 PUSH3 0x75726E KECCAK256 PUSH2 0x6D6F PUSH22 0x6E7420657863656564732062616C616E636545524332 ADDRESS GASPRICE KECCAK256 PUSH2 0x7070 PUSH19 0x6F766520746F20746865207A65726F20616464 PUSH19 0x65737345524332303A207472616E7366657220 PUSH2 0x6D6F PUSH22 0x6E7420657863656564732062616C616E636545434453 COINBASE GASPRICE KECCAK256 PUSH10 0x6E76616C696420736967 PUSH15 0x6174757265202773272076616C7565 COINBASE PUSH4 0x63657373 NUMBER PUSH16 0x6E74726F6C3A2073656E646572206D75 PUSH20 0x7420626520616E2061646D696E20746F20726576 PUSH16 0x6B6545434453413A20696E76616C6964 KECCAK256 PUSH20 0x69676E6174757265202776272076616C75654552 NUMBER ORIGIN ADDRESS GASPRICE KECCAK256 PUSH21 0x72616E7366657220616D6F756E7420657863656564 PUSH20 0x20616C6C6F77616E636545524332303A20627572 PUSH15 0x20616D6F756E742065786365656473 KECCAK256 PUSH2 0x6C6C PUSH16 0x77616E636545524332303A206275726E KECCAK256 PUSH7 0x726F6D20746865 KECCAK256 PUSH27 0x65726F206164647265737345524332303A207472616E7366657220 PUSH7 0x726F6D20746865 KECCAK256 PUSH27 0x65726F206164647265737345524332303A20617070726F76652066 PUSH19 0x6F6D20746865207A65726F2061646472657373 GASLIMIT MSTORE NUMBER ORIGIN ADDRESS GASPRICE KECCAK256 PUSH5 0x6563726561 PUSH20 0x656420616C6C6F77616E63652062656C6F77207A PUSH6 0x726F41636365 PUSH20 0x73436F6E74726F6C3A2063616E206F6E6C792072 PUSH6 0x6E6F756E6365 KECCAK256 PUSH19 0x6F6C657320666F722073656C66A26469706673 PC 0x22 SLT KECCAK256 0x2A SSTORE SWAP12 CALLER PUSH15 0xD002D7130B5A7BFE36B7C036118288 0xE6 RETURNDATASIZE 0xEB 0xEE 0xCD CREATE 0xD 0x21 0x25 CALLDATASIZE 0x4F CODECOPY PUSH5 0x736F6C6343 STOP SMOD ADD STOP CALLER "
        },
        "gasEstimates": {
          "creation": {
            "codeDepositCost": "2434000",
            "executionCost": "infinite",
            "totalCost": "infinite"
          },
          "external": {
            "DEFAULT_ADMIN_ROLE()": "256",
            "DOMAIN_SEPARATOR()": "infinite",
            "MINTER_ROLE()": "271",
            "PERMIT_TYPEHASH()": "infinite",
            "SNAPSHOT_ROLE()": "316",
            "allowance(address,address)": "1431",
            "approve(address,uint256)": "infinite",
            "balanceOf(address)": "1242",
            "balanceOfAt(address,uint256)": "infinite",
            "burn(uint256)": "infinite",
            "burnFrom(address,uint256)": "infinite",
            "decimals()": "1167",
            "decreaseAllowance(address,uint256)": "infinite",
            "getRoleAdmin(bytes32)": "1230",
            "getRoleMember(bytes32,uint256)": "infinite",
            "getRoleMemberCount(bytes32)": "1401",
            "grantRole(bytes32,address)": "infinite",
            "hasRole(bytes32,address)": "infinite",
            "increaseAllowance(address,uint256)": "infinite",
            "mint(address,uint256)": "infinite",
            "name()": "infinite",
            "nonces(address)": "1259",
            "permit(address,address,uint256,uint256,uint8,bytes32,bytes32)": "infinite",
            "renounceRole(bytes32,address)": "infinite",
            "revokeRole(bytes32,address)": "infinite",
            "snapshot()": "infinite",
            "symbol()": "infinite",
            "totalSupply()": "1104",
            "totalSupplyAt(uint256)": "infinite",
            "transfer(address,uint256)": "infinite",
            "transferFrom(address,address,uint256)": "infinite",
            "version()": "infinite"
          },
          "internal": {
            "_chainID()": "infinite",
            "_recover(bytes32,uint8,bytes32,bytes32)": "infinite"
          }
        },
        "methodIdentifiers": {
          "DEFAULT_ADMIN_ROLE()": "a217fddf",
          "DOMAIN_SEPARATOR()": "3644e515",
          "MINTER_ROLE()": "d5391393",
          "PERMIT_TYPEHASH()": "30adf81f",
          "SNAPSHOT_ROLE()": "7028e2cd",
          "allowance(address,address)": "dd62ed3e",
          "approve(address,uint256)": "095ea7b3",
          "balanceOf(address)": "70a08231",
          "balanceOfAt(address,uint256)": "4ee2cd7e",
          "burn(uint256)": "42966c68",
          "burnFrom(address,uint256)": "79cc6790",
          "decimals()": "313ce567",
          "decreaseAllowance(address,uint256)": "a457c2d7",
          "getRoleAdmin(bytes32)": "248a9ca3",
          "getRoleMember(bytes32,uint256)": "9010d07c",
          "getRoleMemberCount(bytes32)": "ca15c873",
          "grantRole(bytes32,address)": "2f2ff15d",
          "hasRole(bytes32,address)": "91d14854",
          "increaseAllowance(address,uint256)": "39509351",
          "mint(address,uint256)": "40c10f19",
          "name()": "06fdde03",
          "nonces(address)": "7ecebe00",
          "permit(address,address,uint256,uint256,uint8,bytes32,bytes32)": "d505accf",
          "renounceRole(bytes32,address)": "36568abe",
          "revokeRole(bytes32,address)": "d547741f",
          "snapshot()": "9711715a",
          "symbol()": "95d89b41",
          "totalSupply()": "18160ddd",
          "totalSupplyAt(uint256)": "981b24d0",
          "transfer(address,uint256)": "a9059cbb",
          "transferFrom(address,address,uint256)": "23b872dd",
          "version()": "54fd4d50"
        }
      },
      "storageLayout": {
        "storage": [
          {
            "astId": 502,
            "contract": "mainnet/0xba100000625a3754423978a60c9317c58a424e3d/SymmToken.sol:SymmToken",
            "label": "_roles",
            "offset": 0,
            "slot": "0",
            "type": "t_mapping(t_bytes32,t_struct(RoleData)498_storage)"
          },
          {
            "astId": 1235,
            "contract": "mainnet/0xba100000625a3754423978a60c9317c58a424e3d/SymmToken.sol:SymmToken",
            "label": "_balances",
            "offset": 0,
            "slot": "1",
            "type": "t_mapping(t_address,t_uint256)"
          },
          {
            "astId": 1241,
            "contract": "mainnet/0xba100000625a3754423978a60c9317c58a424e3d/SymmToken.sol:SymmToken",
            "label": "_allowances",
            "offset": 0,
            "slot": "2",
            "type": "t_mapping(t_address,t_mapping(t_address,t_uint256))"
          },
          {
            "astId": 1243,
            "contract": "mainnet/0xba100000625a3754423978a60c9317c58a424e3d/SymmToken.sol:SymmToken",
            "label": "_totalSupply",
            "offset": 0,
            "slot": "3",
            "type": "t_uint256"
          },
          {
            "astId": 1245,
            "contract": "mainnet/0xba100000625a3754423978a60c9317c58a424e3d/SymmToken.sol:SymmToken",
            "label": "_name",
            "offset": 0,
            "slot": "4",
            "type": "t_string_storage"
          },
          {
            "astId": 1247,
            "contract": "mainnet/0xba100000625a3754423978a60c9317c58a424e3d/SymmToken.sol:SymmToken",
            "label": "_symbol",
            "offset": 0,
            "slot": "5",
            "type": "t_string_storage"
          },
          {
            "astId": 1249,
            "contract": "mainnet/0xba100000625a3754423978a60c9317c58a424e3d/SymmToken.sol:SymmToken",
            "label": "_decimals",
            "offset": 0,
            "slot": "6",
            "type": "t_uint8"
          },
          {
            "astId": 1746,
            "contract": "mainnet/0xba100000625a3754423978a60c9317c58a424e3d/SymmToken.sol:SymmToken",
            "label": "_accountBalanceSnapshots",
            "offset": 0,
            "slot": "7",
            "type": "t_mapping(t_address,t_struct(Snapshots)1742_storage)"
          },
          {
            "astId": 1748,
            "contract": "mainnet/0xba100000625a3754423978a60c9317c58a424e3d/SymmToken.sol:SymmToken",
            "label": "_totalSupplySnapshots",
            "offset": 0,
            "slot": "8",
            "type": "t_struct(Snapshots)1742_storage"
          },
          {
            "astId": 1750,
            "contract": "mainnet/0xba100000625a3754423978a60c9317c58a424e3d/SymmToken.sol:SymmToken",
            "label": "_currentSnapshotId",
            "offset": 0,
            "slot": "10",
            "type": "t_struct(Counter)1102_storage"
          },
          {
            "astId": 2079,
            "contract": "mainnet/0xba100000625a3754423978a60c9317c58a424e3d/SymmToken.sol:SymmToken",
            "label": "nonces",
            "offset": 0,
            "slot": "11",
            "type": "t_mapping(t_address,t_uint256)"
          }
        ],
        "types": {
          "t_address": {
            "encoding": "inplace",
            "label": "address",
            "numberOfBytes": "20"
          },
          "t_array(t_bytes32)dyn_storage": {
            "base": "t_bytes32",
            "encoding": "dynamic_array",
            "label": "bytes32[]",
            "numberOfBytes": "32"
          },
          "t_array(t_uint256)dyn_storage": {
            "base": "t_uint256",
            "encoding": "dynamic_array",
            "label": "uint256[]",
            "numberOfBytes": "32"
          },
          "t_bytes32": {
            "encoding": "inplace",
            "label": "bytes32",
            "numberOfBytes": "32"
          },
          "t_mapping(t_address,t_mapping(t_address,t_uint256))": {
            "encoding": "mapping",
            "key": "t_address",
            "label": "mapping(address => mapping(address => uint256))",
            "numberOfBytes": "32",
            "value": "t_mapping(t_address,t_uint256)"
          },
          "t_mapping(t_address,t_struct(Snapshots)1742_storage)": {
            "encoding": "mapping",
            "key": "t_address",
            "label": "mapping(address => struct ERC20Snapshot.Snapshots)",
            "numberOfBytes": "32",
            "value": "t_struct(Snapshots)1742_storage"
          },
          "t_mapping(t_address,t_uint256)": {
            "encoding": "mapping",
            "key": "t_address",
            "label": "mapping(address => uint256)",
            "numberOfBytes": "32",
            "value": "t_uint256"
          },
          "t_mapping(t_bytes32,t_struct(RoleData)498_storage)": {
            "encoding": "mapping",
            "key": "t_bytes32",
            "label": "mapping(bytes32 => struct AccessControl.RoleData)",
            "numberOfBytes": "32",
            "value": "t_struct(RoleData)498_storage"
          },
          "t_mapping(t_bytes32,t_uint256)": {
            "encoding": "mapping",
            "key": "t_bytes32",
            "label": "mapping(bytes32 => uint256)",
            "numberOfBytes": "32",
            "value": "t_uint256"
          },
          "t_string_storage": {
            "encoding": "bytes",
            "label": "string",
            "numberOfBytes": "32"
          },
          "t_struct(AddressSet)190_storage": {
            "encoding": "inplace",
            "label": "struct EnumerableSet.AddressSet",
            "members": [
              {
                "astId": 189,
                "contract": "mainnet/0xba100000625a3754423978a60c9317c58a424e3d/SymmToken.sol:SymmToken",
                "label": "_inner",
                "offset": 0,
                "slot": "0",
                "type": "t_struct(Set)10_storage"
              }
            ],
            "numberOfBytes": "64"
          },
          "t_struct(Counter)1102_storage": {
            "encoding": "inplace",
            "label": "struct Counters.Counter",
            "members": [
              {
                "astId": 1101,
                "contract": "mainnet/0xba100000625a3754423978a60c9317c58a424e3d/SymmToken.sol:SymmToken",
                "label": "_value",
                "offset": 0,
                "slot": "0",
                "type": "t_uint256"
              }
            ],
            "numberOfBytes": "32"
          },
          "t_struct(RoleData)498_storage": {
            "encoding": "inplace",
            "label": "struct AccessControl.RoleData",
            "members": [
              {
                "astId": 495,
                "contract": "mainnet/0xba100000625a3754423978a60c9317c58a424e3d/SymmToken.sol:SymmToken",
                "label": "members",
                "offset": 0,
                "slot": "0",
                "type": "t_struct(AddressSet)190_storage"
              },
              {
                "astId": 497,
                "contract": "mainnet/0xba100000625a3754423978a60c9317c58a424e3d/SymmToken.sol:SymmToken",
                "label": "adminRole",
                "offset": 0,
                "slot": "2",
                "type": "t_bytes32"
              }
            ],
            "numberOfBytes": "96"
          },
          "t_struct(Set)10_storage": {
            "encoding": "inplace",
            "label": "struct EnumerableSet.Set",
            "members": [
              {
                "astId": 5,
                "contract": "mainnet/0xba100000625a3754423978a60c9317c58a424e3d/SymmToken.sol:SymmToken",
                "label": "_values",
                "offset": 0,
                "slot": "0",
                "type": "t_array(t_bytes32)dyn_storage"
              },
              {
                "astId": 9,
                "contract": "mainnet/0xba100000625a3754423978a60c9317c58a424e3d/SymmToken.sol:SymmToken",
                "label": "_indexes",
                "offset": 0,
                "slot": "1",
                "type": "t_mapping(t_bytes32,t_uint256)"
              }
            ],
            "numberOfBytes": "64"
          },
          "t_struct(Snapshots)1742_storage": {
            "encoding": "inplace",
            "label": "struct ERC20Snapshot.Snapshots",
            "members": [
              {
                "astId": 1738,
                "contract": "mainnet/0xba100000625a3754423978a60c9317c58a424e3d/SymmToken.sol:SymmToken",
                "label": "ids",
                "offset": 0,
                "slot": "0",
                "type": "t_array(t_uint256)dyn_storage"
              },
              {
                "astId": 1741,
                "contract": "mainnet/0xba100000625a3754423978a60c9317c58a424e3d/SymmToken.sol:SymmToken",
                "label": "values",
                "offset": 0,
                "slot": "1",
                "type": "t_array(t_uint256)dyn_storage"
              }
            ],
            "numberOfBytes": "64"
          },
          "t_uint256": {
            "encoding": "inplace",
            "label": "uint256",
            "numberOfBytes": "32"
          },
          "t_uint8": {
            "encoding": "inplace",
            "label": "uint8",
            "numberOfBytes": "1"
          }
        }
      },
      "userdoc": {
        "kind": "user",
        "methods": {},
        "version": 1
      }
    }
  }
}